{
  "contractName": "InBlock_Data",
  "abi": [
    {
      "constant": true,
      "inputs": [],
      "name": "ID_expired",
      "outputs": [
        {
          "name": "",
          "type": "int256"
        }
      ],
      "payable": false,
      "stateMutability": "view",
      "type": "function"
    },
    {
      "constant": true,
      "inputs": [],
      "name": "ID_Index",
      "outputs": [
        {
          "name": "",
          "type": "uint256"
        }
      ],
      "payable": false,
      "stateMutability": "view",
      "type": "function"
    },
    {
      "constant": true,
      "inputs": [],
      "name": "certificatePrice2",
      "outputs": [
        {
          "name": "",
          "type": "uint256"
        }
      ],
      "payable": false,
      "stateMutability": "view",
      "type": "function"
    },
    {
      "constant": true,
      "inputs": [],
      "name": "initial_block",
      "outputs": [
        {
          "name": "",
          "type": "bytes4"
        }
      ],
      "payable": false,
      "stateMutability": "view",
      "type": "function"
    },
    {
      "constant": true,
      "inputs": [],
      "name": "stopped",
      "outputs": [
        {
          "name": "",
          "type": "bool"
        }
      ],
      "payable": false,
      "stateMutability": "view",
      "type": "function"
    },
    {
      "constant": true,
      "inputs": [],
      "name": "askOracleCost",
      "outputs": [
        {
          "name": "",
          "type": "uint256"
        }
      ],
      "payable": false,
      "stateMutability": "view",
      "type": "function"
    },
    {
      "constant": true,
      "inputs": [],
      "name": "owner",
      "outputs": [
        {
          "name": "",
          "type": "address"
        }
      ],
      "payable": false,
      "stateMutability": "view",
      "type": "function"
    },
    {
      "constant": true,
      "inputs": [
        {
          "name": "",
          "type": "bytes4"
        },
        {
          "name": "",
          "type": "uint256"
        }
      ],
      "name": "certificates",
      "outputs": [
        {
          "name": "ip_address",
          "type": "bytes4"
        },
        {
          "name": "o_addr",
          "type": "address"
        },
        {
          "name": "id",
          "type": "uint256"
        },
        {
          "name": "mask",
          "type": "uint8"
        },
        {
          "name": "date",
          "type": "uint256"
        },
        {
          "components": [
            {
              "name": "uri",
              "type": "bytes"
            },
            {
              "name": "hashFunction",
              "type": "bytes"
            },
            {
              "name": "hash",
              "type": "bytes"
            }
          ],
          "name": "info",
          "type": "tuple"
        },
        {
          "name": "Roa",
          "type": "bytes"
        }
      ],
      "payable": false,
      "stateMutability": "view",
      "type": "function"
    },
    {
      "constant": true,
      "inputs": [],
      "name": "price",
      "outputs": [
        {
          "name": "",
          "type": "uint256"
        }
      ],
      "payable": false,
      "stateMutability": "view",
      "type": "function"
    },
    {
      "constant": true,
      "inputs": [],
      "name": "ID",
      "outputs": [
        {
          "name": "",
          "type": "int256"
        }
      ],
      "payable": false,
      "stateMutability": "view",
      "type": "function"
    },
    {
      "constant": true,
      "inputs": [],
      "name": "dollarsPrice",
      "outputs": [
        {
          "name": "",
          "type": "uint256"
        }
      ],
      "payable": false,
      "stateMutability": "view",
      "type": "function"
    },
    {
      "constant": true,
      "inputs": [],
      "name": "base_certificate_mask",
      "outputs": [
        {
          "name": "",
          "type": "uint8"
        }
      ],
      "payable": false,
      "stateMutability": "view",
      "type": "function"
    },
    {
      "constant": true,
      "inputs": [],
      "name": "certificatePrice1",
      "outputs": [
        {
          "name": "",
          "type": "uint256"
        }
      ],
      "payable": false,
      "stateMutability": "view",
      "type": "function"
    },
    {
      "constant": true,
      "inputs": [],
      "name": "certificatePrice3",
      "outputs": [
        {
          "name": "",
          "type": "uint256"
        }
      ],
      "payable": false,
      "stateMutability": "view",
      "type": "function"
    },
    {
      "constant": true,
      "inputs": [],
      "name": "prefixPrice",
      "outputs": [
        {
          "name": "",
          "type": "uint256"
        }
      ],
      "payable": false,
      "stateMutability": "view",
      "type": "function"
    },
    {
      "constant": false,
      "inputs": [],
      "name": "circuitBreaker",
      "outputs": [],
      "payable": false,
      "stateMutability": "nonpayable",
      "type": "function"
    },
    {
      "constant": false,
      "inputs": [],
      "name": "toggleCircuit",
      "outputs": [],
      "payable": false,
      "stateMutability": "nonpayable",
      "type": "function"
    }
  ],
  "bytecode": "0x60806040526113886009556109c4600a556109c4600b5534801561002257600080fd5b5061082d806100326000396000f3006080604052600436106100d75763ffffffff60e060020a60003504166306cd8b7581146100dc57806316efd941146101035780633ae5e3071461011a5780633c94b3991461012f5780634962185114610144578063743d9ff81461015957806375f12b21146101a05780638c2a8c10146101c95780638da5cb5b146101de57806391f926131461020f578063a035b1fe14610341578063b3cea21714610356578063b5820d751461036b578063ce41339714610380578063cf5531dc146103ab578063ef0851bf146103c0578063ff6e3c31146103d5575b600080fd5b3480156100e857600080fd5b506100f16103ea565b60408051918252519081900360200190f35b34801561010f57600080fd5b506101186103f0565b005b34801561012657600080fd5b506100f1610435565b34801561013b57600080fd5b506100f161043b565b34801561015057600080fd5b50610118610441565b34801561016557600080fd5b5061016e6104ae565b604080517bffffffffffffffffffffffffffffffffffffffffffffffffffffffff199092168252519081900360200190f35b3480156101ac57600080fd5b506101b56104ba565b604080519115158252519081900360200190f35b3480156101d557600080fd5b506100f16104e0565b3480156101ea57600080fd5b506101f36104e6565b60408051600160a060020a039092168252519081900360200190f35b34801561021b57600080fd5b506102497bffffffffffffffffffffffffffffffffffffffffffffffffffffffff19600435166024356104fe565b60405180887bffffffffffffffffffffffffffffffffffffffffffffffffffffffff19167bffffffffffffffffffffffffffffffffffffffffffffffffffffffff1916815260200187600160a060020a0316600160a060020a031681526020018681526020018560ff1660ff16815260200184815260200183815260200180602001828103825283818151815260200191508051906020019080838360005b838110156103005781810151838201526020016102e8565b50505050905090810190601f16801561032d5780820380516001836020036101000a031916815260200191505b509850505050505050505060405180910390f35b34801561034d57600080fd5b506100f16107cc565b34801561036257600080fd5b506100f16107d2565b34801561037757600080fd5b506100f16107d8565b34801561038c57600080fd5b506103956107de565b6040805160ff9092168252519081900360200190f35b3480156103b757600080fd5b506100f16107ef565b3480156103cc57600080fd5b506100f16107f5565b3480156103e157600080fd5b506100f16107fb565b60085481565b600d54650100000000009004600160a060020a0316331461041057600080fd5b600d805479ff0000000000000000000000000000000000000000000000000019169055565b60075481565b60015481565b600d54650100000000009004600160a060020a0316331461046157600080fd5b600d805479ff000000000000000000000000000000000000000000000000001981167901000000000000000000000000000000000000000000000000009182900460ff1615909102179055565b600d5460e060020a0281565b600d54790100000000000000000000000000000000000000000000000000900460ff1681565b60035481565b600d54650100000000009004600160a060020a031681565b600e6020528160005260406000208181548110151561051957fe5b600091825260209182902060089190910201805460018083015460028085015460038601546040805160048901805461010098811615989098026000190190971694909404601f81018a9004909902840160809081019091526060840189815260e060020a88029b50640100000000909704600160a060020a03169950939760ff90921696909590949293849284918401828280156105f95780601f106105ce576101008083540402835291602001916105f9565b820191906000526020600020905b8154815290600101906020018083116105dc57829003601f168201915b50505050508152602001600182018054600181600116156101000203166002900480601f01602080910402602001604051908101604052809291908181526020018280546001816001161561010002031660029004801561069b5780601f106106705761010080835404028352916020019161069b565b820191906000526020600020905b81548152906001019060200180831161067e57829003601f168201915b5050509183525050600282810180546040805160206001841615610100026000190190931694909404601f8101839004830285018301909152808452938101939083018282801561072d5780601f106107025761010080835404028352916020019161072d565b820191906000526020600020905b81548152906001019060200180831161071057829003601f168201915b5050509190925250505060078201805460408051602060026001851615610100026000190190941693909304601f810184900484028201840190925281815293949392918301828280156107c25780601f10610797576101008083540402835291602001916107c2565b820191906000526020600020905b8154815290600101906020018083116107a557829003601f168201915b5050505050905087565b60045481565b60065481565b60055481565b600d54640100000000900460ff1681565b60005481565b60025481565b600c54815600a165627a7a7230582077e390f3d234e828f9f504f7e34f9224da98523d6541ddac00dc137fa5a31ce20029",
  "source": "pragma solidity ^0.4.24;\r\n\r\ncontract InBlock_Data{\r\n\r\n//******************************************************* MODIFIERS AND RELATED FUNCTION *******************************************************\r\n\r\n\r\n//FOR START AND STOP PARADIGM\r\n\r\nfunction circuitBreaker() onlyOwner() public{\r\n\tstopped=false;\r\n} \r\n\r\nmodifier notStopped(){\r\n\tif(stopped)throw;\r\n\t_;\r\n}\r\n\r\nfunction toggleCircuit() onlyOwner() public{\r\n\tstopped=!stopped;\r\n}\r\n\r\n\r\n\r\nmodifier onlyOwner(){\r\n   require (msg.sender == owner);\r\n        _;\r\n}\r\n\r\n\r\n/*function setSeed(uint a)public {\r\nseed=a;\r\n}*/\r\n\r\n\r\n//******************************************************* DATA STRUCTURE DEFINITION *******************************************************\r\n\r\nuint public certificatePrice1;\r\nuint public certificatePrice2;\r\nuint public certificatePrice3;\r\nuint public askOracleCost;\r\nuint public price; \r\nuint public dollarsPrice;\r\nint public ID;\r\nuint public ID_Index;\r\nint public ID_expired;\r\nuint IDsReadLimit=5000;\r\nuint IDsReadByOwnerLimit=2500;\r\nuint OwnersReadLimit=2500;\r\n\r\n//To store the price expressed in Wei (it is the common form). NB:  1 ether = 1000000000000000000 wei  \r\nuint public prefixPrice;\r\n\r\n//To store the initial_block\r\nbytes4 public initial_block;\r\nuint8 public base_certificate_mask;\r\n\t\r\n\t\r\n//The owner address \r\naddress public owner;\r\n\r\n//For Start and Stop paradigm\t\r\nbool public stopped; \t\r\n\r\n\r\nstruct Info{\r\n\tbytes uri; \r\n\tbytes hashFunction;\r\n\tbytes hash;\r\n}\r\n\r\nstruct Certificate{\r\n\tbytes4 ip_address;\r\n\taddress o_addr;\r\n\tuint id; \r\n\tuint8 mask;\r\n\tuint date;\r\n\tInfo info;\r\n\tbytes Roa;\r\n}\r\n\r\n//Necessary to performs division with float\t\r\nfunction divide(uint numerator, uint denominator, uint precision) internal pure returns(uint quotient) {\r\n\r\n         // caution, check safe-to-multiply here\r\n        uint _numerator  = numerator * 10 ** (precision+1);\r\n        // with rounding of last digit\r\n        uint _quotient =  ((_numerator / denominator) + 5) / 10;\r\n        return ( _quotient);\r\n  }\r\n\r\n\r\n\r\nmapping(bytes4=>Certificate[]) public certificates;\r\n\r\n\r\n}// END OF THE CONTRACT",
  "sourcePath": "C:\\Users\\User\\Desktop\\InBlock_IPv4_Rpki\\InBlock_IPv4\\contracts\\InBlock_Data.sol",
  "compiler": {
    "name": "solc",
    "version": "0.4.25+commit.59dbf8f1.Emscripten.clang"
  },
  "schemaVersion": "2.0.2",
  "updatedAt": "2019-05-29T10:19:53.116Z"
}