{
  "contractName": "InBlock_F",
  "abi": [
    {
      "constant": true,
      "inputs": [],
      "name": "ID_expired",
      "outputs": [
        {
          "name": "",
          "type": "int256"
        }
      ],
      "payable": false,
      "stateMutability": "view",
      "type": "function"
    },
    {
      "constant": false,
      "inputs": [],
      "name": "circuitBreaker",
      "outputs": [],
      "payable": false,
      "stateMutability": "nonpayable",
      "type": "function"
    },
    {
      "constant": true,
      "inputs": [],
      "name": "ID_Index",
      "outputs": [
        {
          "name": "",
          "type": "uint256"
        }
      ],
      "payable": false,
      "stateMutability": "view",
      "type": "function"
    },
    {
      "constant": true,
      "inputs": [],
      "name": "certificatePrice2",
      "outputs": [
        {
          "name": "",
          "type": "uint256"
        }
      ],
      "payable": false,
      "stateMutability": "view",
      "type": "function"
    },
    {
      "constant": false,
      "inputs": [],
      "name": "toggleCircuit",
      "outputs": [],
      "payable": false,
      "stateMutability": "nonpayable",
      "type": "function"
    },
    {
      "constant": true,
      "inputs": [],
      "name": "initial_block",
      "outputs": [
        {
          "name": "",
          "type": "bytes4"
        }
      ],
      "payable": false,
      "stateMutability": "view",
      "type": "function"
    },
    {
      "constant": true,
      "inputs": [],
      "name": "stopped",
      "outputs": [
        {
          "name": "",
          "type": "bool"
        }
      ],
      "payable": false,
      "stateMutability": "view",
      "type": "function"
    },
    {
      "constant": true,
      "inputs": [],
      "name": "askOracleCost",
      "outputs": [
        {
          "name": "",
          "type": "uint256"
        }
      ],
      "payable": false,
      "stateMutability": "view",
      "type": "function"
    },
    {
      "constant": true,
      "inputs": [],
      "name": "owner",
      "outputs": [
        {
          "name": "",
          "type": "address"
        }
      ],
      "payable": false,
      "stateMutability": "view",
      "type": "function"
    },
    {
      "constant": true,
      "inputs": [
        {
          "name": "",
          "type": "bytes4"
        },
        {
          "name": "",
          "type": "uint256"
        }
      ],
      "name": "certificates",
      "outputs": [
        {
          "name": "ip_address",
          "type": "bytes4"
        },
        {
          "name": "o_addr",
          "type": "address"
        },
        {
          "name": "id",
          "type": "uint256"
        },
        {
          "name": "mask",
          "type": "uint8"
        },
        {
          "name": "date",
          "type": "uint256"
        },
        {
          "components": [
            {
              "name": "uri",
              "type": "bytes"
            },
            {
              "name": "hashFunction",
              "type": "bytes"
            },
            {
              "name": "hash",
              "type": "bytes"
            }
          ],
          "name": "info",
          "type": "tuple"
        },
        {
          "name": "Roa",
          "type": "bytes"
        }
      ],
      "payable": false,
      "stateMutability": "view",
      "type": "function"
    },
    {
      "constant": true,
      "inputs": [],
      "name": "price",
      "outputs": [
        {
          "name": "",
          "type": "uint256"
        }
      ],
      "payable": false,
      "stateMutability": "view",
      "type": "function"
    },
    {
      "constant": true,
      "inputs": [],
      "name": "ID",
      "outputs": [
        {
          "name": "",
          "type": "int256"
        }
      ],
      "payable": false,
      "stateMutability": "view",
      "type": "function"
    },
    {
      "constant": true,
      "inputs": [],
      "name": "dollarsPrice",
      "outputs": [
        {
          "name": "",
          "type": "uint256"
        }
      ],
      "payable": false,
      "stateMutability": "view",
      "type": "function"
    },
    {
      "constant": true,
      "inputs": [],
      "name": "base_certificate_mask",
      "outputs": [
        {
          "name": "",
          "type": "uint8"
        }
      ],
      "payable": false,
      "stateMutability": "view",
      "type": "function"
    },
    {
      "constant": true,
      "inputs": [],
      "name": "certificatePrice1",
      "outputs": [
        {
          "name": "",
          "type": "uint256"
        }
      ],
      "payable": false,
      "stateMutability": "view",
      "type": "function"
    },
    {
      "constant": true,
      "inputs": [],
      "name": "certificatePrice3",
      "outputs": [
        {
          "name": "",
          "type": "uint256"
        }
      ],
      "payable": false,
      "stateMutability": "view",
      "type": "function"
    },
    {
      "constant": true,
      "inputs": [],
      "name": "prefixPrice",
      "outputs": [
        {
          "name": "",
          "type": "uint256"
        }
      ],
      "payable": false,
      "stateMutability": "view",
      "type": "function"
    },
    {
      "constant": false,
      "inputs": [
        {
          "name": "ip",
          "type": "bytes4"
        },
        {
          "name": "uri_",
          "type": "bytes"
        },
        {
          "name": "hashFunction_",
          "type": "bytes"
        },
        {
          "name": "hash_",
          "type": "bytes"
        },
        {
          "name": "ROAs_",
          "type": "bytes"
        }
      ],
      "name": "insertCertificate",
      "outputs": [],
      "payable": true,
      "stateMutability": "payable",
      "type": "function"
    },
    {
      "constant": true,
      "inputs": [
        {
          "name": "ip",
          "type": "bytes4"
        },
        {
          "name": "a",
          "type": "address"
        },
        {
          "name": "start",
          "type": "uint256"
        },
        {
          "name": "stop",
          "type": "uint256"
        }
      ],
      "name": "readCertificateOwners",
      "outputs": [
        {
          "name": "",
          "type": "bytes4"
        },
        {
          "name": "",
          "type": "address[]"
        }
      ],
      "payable": false,
      "stateMutability": "view",
      "type": "function"
    },
    {
      "constant": true,
      "inputs": [
        {
          "name": "ip",
          "type": "bytes4"
        },
        {
          "name": "a",
          "type": "address"
        },
        {
          "name": "start",
          "type": "uint256"
        },
        {
          "name": "stop",
          "type": "uint256"
        }
      ],
      "name": "readCertificateIDsByOwner",
      "outputs": [
        {
          "name": "",
          "type": "bytes4"
        },
        {
          "name": "",
          "type": "uint256[]"
        }
      ],
      "payable": false,
      "stateMutability": "view",
      "type": "function"
    },
    {
      "constant": true,
      "inputs": [
        {
          "name": "ip",
          "type": "bytes4"
        },
        {
          "name": "start",
          "type": "uint256"
        },
        {
          "name": "stop",
          "type": "uint256"
        }
      ],
      "name": "readCertificateIDs",
      "outputs": [
        {
          "name": "",
          "type": "bytes4"
        },
        {
          "name": "",
          "type": "uint256[]"
        }
      ],
      "payable": false,
      "stateMutability": "view",
      "type": "function"
    },
    {
      "constant": true,
      "inputs": [
        {
          "name": "ip",
          "type": "bytes4"
        }
      ],
      "name": "countCertificatesIP",
      "outputs": [
        {
          "name": "",
          "type": "uint256"
        }
      ],
      "payable": false,
      "stateMutability": "view",
      "type": "function"
    },
    {
      "constant": true,
      "inputs": [
        {
          "name": "ip",
          "type": "bytes4"
        },
        {
          "name": "id",
          "type": "uint256"
        }
      ],
      "name": "getCertificates",
      "outputs": [
        {
          "name": "",
          "type": "uint256"
        },
        {
          "name": "",
          "type": "address"
        },
        {
          "name": "",
          "type": "bytes"
        },
        {
          "name": "",
          "type": "bytes"
        },
        {
          "name": "",
          "type": "bytes"
        },
        {
          "name": "",
          "type": "bytes"
        }
      ],
      "payable": false,
      "stateMutability": "view",
      "type": "function"
    },
    {
      "constant": false,
      "inputs": [
        {
          "name": "ip",
          "type": "bytes4"
        },
        {
          "name": "id",
          "type": "uint256"
        },
        {
          "name": "roa_",
          "type": "bytes"
        },
        {
          "name": "uri_",
          "type": "bytes"
        },
        {
          "name": "hash_",
          "type": "bytes"
        },
        {
          "name": "hashFunction_",
          "type": "bytes"
        }
      ],
      "name": "updateCertificateROA_Info",
      "outputs": [],
      "payable": false,
      "stateMutability": "nonpayable",
      "type": "function"
    },
    {
      "constant": false,
      "inputs": [
        {
          "name": "iteration",
          "type": "uint256"
        }
      ],
      "name": "iterateInsert",
      "outputs": [],
      "payable": false,
      "stateMutability": "nonpayable",
      "type": "function"
    }
  ],
  "bytecode": "0x60806040526113886009556109c4600a556109c4600b5534801561002257600080fd5b50611cec806100326000396000f30060806040526004361061012f5763ffffffff60e060020a60003504166306cd8b75811461013457806316efd9411461015b5780631de2f9da1461017257806339f1c0741461020a5780633ae5e307146102325780633b51d736146102475780633c94b3991461035c5780633cc88edb1461037157806349621851146103a557806367c93505146103ba5780636a1e9d78146103dc578063743d9ff8146103f457806375f12b21146104265780638c1a32f31461044f5780638c2a8c101461063e5780638da5cb5b1461065357806391f9261314610684578063a035b1fe14610777578063b3cea2171461078c578063b5820d75146107a1578063c5c0f7a0146107b6578063ce413397146108da578063cf5531dc14610905578063ef0851bf1461091a578063ff6e3c311461092f575b600080fd5b34801561014057600080fd5b50610149610944565b60408051918252519081900360200190f35b34801561016757600080fd5b5061017061094a565b005b34801561017e57600080fd5b506101a6600160e060020a031960043516600160a060020a036024351660443560643561098f565b60408051600160e060020a031984168152602080820183815284519383019390935283519192916060840191858101910280838360005b838110156101f55781810151838201526020016101dd565b50505050905001935050505060405180910390f35b34801561021657600080fd5b506101a6600160e060020a031960043516602435604435610acc565b34801561023e57600080fd5b50610149610bda565b60408051602060046024803582810135601f8101859004850286018501909652858552610170958335600160e060020a03191695369560449491939091019190819084018382808284375050604080516020601f89358b018035918201839004830284018301909452808352979a99988101979196509182019450925082915084018382808284375050604080516020601f89358b018035918201839004830284018301909452808352979a99988101979196509182019450925082915084018382808284375050604080516020601f89358b018035918201839004830284018301909452808352979a999881019791965091820194509250829150840183828082843750949750610be09650505050505050565b34801561036857600080fd5b50610149610e6c565b34801561037d57600080fd5b506101a6600160e060020a031960043516600160a060020a0360243516604435606435610e72565b3480156103b157600080fd5b50610170610fdc565b3480156103c657600080fd5b50610149600160e060020a031960043516611049565b3480156103e857600080fd5b50610170600435611065565b34801561040057600080fd5b506104096111b5565b60408051600160e060020a03199092168252519081900360200190f35b34801561043257600080fd5b5061043b6111c1565b604080519115158252519081900360200190f35b34801561045b57600080fd5b50610474600160e060020a0319600435166024356111e7565b6040518087815260200186600160a060020a0316600160a060020a0316815260200180602001806020018060200180602001858103855289818151815260200191508051906020019080838360005b838110156104db5781810151838201526020016104c3565b50505050905090810190601f1680156105085780820380516001836020036101000a031916815260200191505b5085810384528851815288516020918201918a019080838360005b8381101561053b578181015183820152602001610523565b50505050905090810190601f1680156105685780820380516001836020036101000a031916815260200191505b50858103835287518152875160209182019189019080838360005b8381101561059b578181015183820152602001610583565b50505050905090810190601f1680156105c85780820380516001836020036101000a031916815260200191505b50858103825286518152865160209182019188019080838360005b838110156105fb5781810151838201526020016105e3565b50505050905090810190601f1680156106285780820380516001836020036101000a031916815260200191505b509a505050505050505050505060405180910390f35b34801561064a57600080fd5b506101496115c7565b34801561065f57600080fd5b506106686115cd565b60408051600160a060020a039092168252519081900360200190f35b34801561069057600080fd5b506106a9600160e060020a0319600435166024356115e5565b6040518088600160e060020a031916600160e060020a031916815260200187600160a060020a0316600160a060020a031681526020018681526020018560ff1660ff16815260200184815260200183815260200180602001828103825283818151815260200191508051906020019080838360005b8381101561073657818101518382015260200161071e565b50505050905090810190601f1680156107635780820380516001836020036101000a031916815260200191505b509850505050505050505060405180910390f35b34801561078357600080fd5b506101496118b3565b34801561079857600080fd5b506101496118b9565b3480156107ad57600080fd5b506101496118bf565b3480156107c257600080fd5b50604080516020600460443581810135601f8101849004840285018401909552848452610170948235600160e060020a03191694602480359536959460649492019190819084018382808284375050604080516020601f89358b018035918201839004830284018301909452808352979a99988101979196509182019450925082915084018382808284375050604080516020601f89358b018035918201839004830284018301909452808352979a99988101979196509182019450925082915084018382808284375050604080516020601f89358b018035918201839004830284018301909452808352979a9998810197919650918201945092508291508401838280828437509497506118c59650505050505050565b3480156108e657600080fd5b506108ef611a5c565b6040805160ff9092168252519081900360200190f35b34801561091157600080fd5b50610149611a6d565b34801561092657600080fd5b50610149611a73565b34801561093b57600080fd5b50610149611a79565b60085481565b600d54650100000000009004600160a060020a0316331461096a57600080fd5b600d805479ff0000000000000000000000000000000000000000000000000019169055565b600060606000806060600080600b548989031015156109ad57600080fd5b600160e060020a03198b166000908152600e60205260408120549095508811156109f257600160e060020a03198b166000908152600e602052604090205494506109f6565b8794505b610a018b8a87611a7f565b935083604051908082528060200260200182016040528015610a2d578160200160208202803883390190505b50925060009150600090505b84811015610abc57600160e060020a03198b166000908152600e60205260409020805482908110610a6657fe5b906000526020600020906008020160000160049054906101000a9004600160a060020a03168383815181101515610a9957fe5b600160a060020a0390921660209283029091019091015260019182019101610a39565b5098999098509650505050505050565b6000606060006060600080600954888803101515610ae957600080fd5b600160e060020a031989166000908152600e6020526040812054909450871115610b2e57600160e060020a031989166000908152600e60205260409020549350610b32565b8693505b878403604051908082528060200260200182016040528015610b5e578160200160208202803883390190505b509250600091508790505b83811015610bcc57600160e060020a031989166000908152600e60205260409020805482908110610b9657fe5b9060005260206000209060080201600101548383815181101515610bb657fe5b6020908102909101015260019182019101610b69565b509697909650945050505050565b60075481565b610be8611bbe565b346672a57c275dc80060045403111580610c0d57506004546672a57c275dc800013411155b1515610c7a57604080517f08c379a000000000000000000000000000000000000000000000000000000000815260206004820152600b60248201527f5072696365206572726f72000000000000000000000000000000000000000000604482015290519081900360640190fd5b338160200190600160a060020a03169081600160a060020a031681525050600754816040018181525050600d60049054906101000a900460ff16816060019060ff16908160ff168152505042816080018181525050818160c00181905250848160a0015160000181905250838160a0015160200181905250828160a0015160400181905250600754600101600781905550600e600087600160e060020a031916600160e060020a0319168152602001908152602001600020819080600181540180825580915050906001820390600052602060002090600802016000909192909190915060008201518160000160006101000a81548163ffffffff021916908360e060020a9004021790555060208201518160000160046101000a815481600160a060020a030219169083600160a060020a031602179055506040820151816001015560608201518160020160006101000a81548160ff021916908360ff1602179055506080820151816003015560a0820151816004016000820151816000019080519060200190610e0d929190611c03565b506020828101518051610e269260018501920190611c03565b5060408201518051610e42916002840191602090910190611c03565b50505060c08201518051610e60916007840191602090910190611c03565b50505050505050505050565b60015481565b600060606000806060600080600a54898903101515610e9057600080fd5b600160e060020a03198b166000908152600e6020526040812054909550881115610ed557600160e060020a03198b166000908152600e60205260409020549450610ed9565b8794505b610ee58b8b8b8b611af0565b935083604051908082528060200260200182016040528015610f11578160200160208202803883390190505b50925060009150600090505b84811015610abc57600160e060020a03198b166000908152600e602052604090208054600160a060020a038c16919083908110610f5657fe5b60009182526020909120600890910201546401000000009004600160a060020a03161415610fd457600160e060020a03198b166000908152600e60205260409020805482908110610fa357fe5b9060005260206000209060080201600101548383815181101515610fc357fe5b602090810290910101526001909101905b600101610f1d565b600d54650100000000009004600160a060020a03163314610ffc57600080fd5b600d805479ff000000000000000000000000000000000000000000000000001981167901000000000000000000000000000000000000000000000000009182900460ff1615909102179055565b600160e060020a0319166000908152600e602052604090205490565b60005b818110156111b1576111a963c000010060e060020a02606060405190810160405280602f81526020017f7777772e666162696f6c6149735468654d6f737442656175746966756c47697281526020017f6c496e546865576f726c642e636f6d00000000000000000000000000000000008152506040805190810160405280600681526020017f7368613235360000000000000000000000000000000000000000000000000000815250606060405190810160405280603d81526020017f616161616161616161616161616161616161616161616161616161616161616181526020017f61616161616161616161616161616161616161616161616161616161610000008152506040805190810160405280600881526020017f3130303832303137000000000000000000000000000000000000000000000000815250610be0565b600101611068565b5050565b600d5460e060020a0281565b600d54790100000000000000000000000000000000000000000000000000900460ff1681565b600160e060020a031982166000908152600e6020526040812080548291606091829182918291908890811061121857fe5b6000918252602080832060036008909302019190910154600160e060020a03198b168352600e909152604090912080548990811061125257fe5b6000918252602080832060089290920290910154600160e060020a03198c168352600e90915260409091208054640100000000909204600160a060020a0316918a90811061129c57fe5b60009182526020808320600160e060020a03198e168452600e9091526040909220805460089290920290920160040191908b9081106112d757fe5b60009182526020808320600160e060020a03198f168452600e9091526040909220805460089290920290920160050191908c90811061131257fe5b9060005260206000209060080201600401600201600e60008e600160e060020a031916600160e060020a03191681526020019081526020016000208c81548110151561135a57fe5b9060005260206000209060080201600701838054600181600116156101000203166002900480601f0160208091040260200160405190810160405280929190818152602001828054600181600116156101000203166002900480156114005780601f106113d557610100808354040283529160200191611400565b820191906000526020600020905b8154815290600101906020018083116113e357829003601f168201915b5050865460408051602060026001851615610100026000190190941693909304601f81018490048402820184019092528181529599508894509250840190508282801561148e5780601f106114635761010080835404028352916020019161148e565b820191906000526020600020905b81548152906001019060200180831161147157829003601f168201915b5050855460408051602060026001851615610100026000190190941693909304601f81018490048402820184019092528181529598508794509250840190508282801561151c5780601f106114f15761010080835404028352916020019161151c565b820191906000526020600020905b8154815290600101906020018083116114ff57829003601f168201915b5050845460408051602060026001851615610100026000190190941693909304601f8101849004840282018401909252818152959750869450925084019050828280156115aa5780601f1061157f576101008083540402835291602001916115aa565b820191906000526020600020905b81548152906001019060200180831161158d57829003601f168201915b505050505090509550955095509550955095509295509295509295565b60035481565b600d54650100000000009004600160a060020a031681565b600e6020528160005260406000208181548110151561160057fe5b600091825260209182902060089190910201805460018083015460028085015460038601546040805160048901805461010098811615989098026000190190971694909404601f81018a9004909902840160809081019091526060840189815260e060020a88029b50640100000000909704600160a060020a03169950939760ff90921696909590949293849284918401828280156116e05780601f106116b5576101008083540402835291602001916116e0565b820191906000526020600020905b8154815290600101906020018083116116c357829003601f168201915b50505050508152602001600182018054600181600116156101000203166002900480601f0160208091040260200160405190810160405280929190818152602001828054600181600116156101000203166002900480156117825780601f1061175757610100808354040283529160200191611782565b820191906000526020600020905b81548152906001019060200180831161176557829003601f168201915b5050509183525050600282810180546040805160206001841615610100026000190190931694909404601f810183900483028501830190915280845293810193908301828280156118145780601f106117e957610100808354040283529160200191611814565b820191906000526020600020905b8154815290600101906020018083116117f757829003601f168201915b5050509190925250505060078201805460408051602060026001851615610100026000190190941693909304601f810184900484028201840190925281815293949392918301828280156118a95780601f1061187e576101008083540402835291602001916118a9565b820191906000526020600020905b81548152906001019060200180831161188c57829003601f168201915b5050505050905087565b60045481565b60065481565b60055481565b600160e060020a031986166000908152600e602052604090208054869081106118ea57fe5b60009182526020909120600890910201546401000000009004600160a060020a0316331461191757600080fd5b600160e060020a031986166000908152600e6020526040902080548591908790811061193f57fe5b90600052602060002090600802016007019080519060200190611963929190611c03565b50600160e060020a031986166000908152600e6020526040902080548491908790811061198c57fe5b906000526020600020906008020160040160000190805190602001906119b3929190611c03565b50600160e060020a031986166000908152600e602052604090208054829190879081106119dc57fe5b90600052602060002090600802016004016001019080519060200190611a03929190611c03565b50600160e060020a031986166000908152600e60205260409020805483919087908110611a2c57fe5b90600052602060002090600802016004016002019080519060200190611a53929190611c03565b50505050505050565b600d54640100000000900460ff1681565b60005481565b60025481565b600c5481565b600160e060020a031983166000908152600e6020526040812054819081908190851015611aae57849150611ace565b600160e060020a031987166000908152600e602052604090205486900391505b50845b81811015611ae55760019283019201611ad1565b509095945050505050565b600160e060020a031984166000908152600e6020526040812054819081908190851015611b1f57849150611b3f565b600160e060020a031988166000908152600e602052604090205486900391505b50845b81811015611bb257600160e060020a031988166000908152600e602052604090208054600160a060020a038916919083908110611b7b57fe5b60009182526020909120600890910201546401000000009004600160a060020a03161415611baa578260010192505b600101611b42565b50909695505050505050565b604080516101208101825260008082526020820181905291810182905260608101829052608081019190915260a08101611bf6611c81565b8152602001606081525090565b828054600181600116156101000203166002900490600052602060002090601f016020900481019282601f10611c4457805160ff1916838001178555611c71565b82800160010185558215611c71579182015b82811115611c71578251825591602001919060010190611c56565b50611c7d929150611ca3565b5090565b6060604051908101604052806060815260200160608152602001606081525090565b611cbd91905b80821115611c7d5760008155600101611ca9565b905600a165627a7a7230582056361c9aef4dd1530df2d6778cec716882693ff3fcaf1bd4bf2066fa98d442d10029",
  "source": "pragma solidity ^0.4.24;\r\n\r\nimport \"./InBlock_Data.sol\";\r\n\r\ncontract InBlock_F is InBlock_Data{\r\n\r\n\r\nfunction insertCertificate(bytes4 ip, bytes uri_, bytes hashFunction_, bytes hash_, bytes ROAs_)payable public{\r\n\r\nrequire((price - 32270100000000000)<=msg.value|| msg.value<=(price + 32270100000000000) , \"Price error\");\r\n\r\nCertificate memory currentCertificate;\r\n\r\ncurrentCertificate.o_addr=msg.sender;\r\ncurrentCertificate.id=ID_Index;\r\ncurrentCertificate.mask=base_certificate_mask;\r\ncurrentCertificate.date=now;\r\ncurrentCertificate.Roa=ROAs_;\r\ncurrentCertificate.info.uri=uri_;\r\ncurrentCertificate.info.hashFunction=hashFunction_;\r\ncurrentCertificate.info.hash=hash_;\r\nID_Index=ID_Index+1;\r\ncertificates[ip].push(currentCertificate);\r\n\r\n}\r\n\r\n\r\nfunction readCertificateOwners(bytes4 ip,address a,uint start,uint stop)public view returns(bytes4,address[]){\r\n\t\r\n\trequire(stop-start<OwnersReadLimit);\r\n\tuint stopper=0;\r\n\t\r\n\tif(stop>certificates[ip].length){\r\n\t\tstopper=certificates[ip].length;\r\n\t}\r\n\telse stopper=stop;\r\n\t\r\n\tuint count=countCertificatesOwners(ip,start,stopper);\r\n\taddress[] memory cOwners=new address[](count);\r\n\tuint counter=0;\r\n\tfor(uint i=0; i<stopper; i++){\r\n\t\tcOwners[counter]=certificates[ip][i].o_addr;\r\n\t\tcounter++;\r\n\t}\r\n\treturn(ip,cOwners);\r\n}\r\n\r\n\r\n\r\n\r\nfunction readCertificateIDsByOwner(bytes4 ip,address a,uint start,uint stop)public view returns(bytes4,uint[]){\r\n\t\r\n\trequire(stop-start<IDsReadByOwnerLimit);\r\n\tuint stopper=0;\r\n\tif(stop>certificates[ip].length){\r\n\t\tstopper=certificates[ip].length;\r\n\t}\r\n\telse stopper=stop;\r\n\t\r\n\tuint count=countCertificatesIDs(ip,a,start,stop);\r\n\tuint[] memory cIDs=new uint[](count);\r\n\tuint counter=0;\r\n\tfor(uint i=0; i<stopper; i++){\r\n\t\tif(certificates[ip][i].o_addr==a){\r\n\t\t\tcIDs[counter]=certificates[ip][i].id;\r\n\t\t\tcounter++;\r\n\t\t}\r\n\r\n\t}\r\n\treturn(ip,cIDs);\r\n}\r\n\r\n//NB. stop-start <5000\r\nfunction readCertificateIDs(bytes4 ip, uint start, uint stop)public view returns(bytes4,uint[]){\r\n    \r\n\trequire(stop-start<IDsReadLimit);\r\n\tuint stopper=0;\r\n\t\r\n\tif(stop>certificates[ip].length){\r\n\t\tstopper=certificates[ip].length;\r\n\t}\r\n\telse stopper=stop;\r\n\t\r\n\tuint[] memory cIDs=new uint[](stopper-start);\r\n\tuint counter=0;\r\n\tfor(uint i=start; i<stopper; i++){\r\n\t\t\tcIDs[counter]=certificates[ip][i].id;\r\n\t\t\tcounter++;\r\n\t\t}\r\n\treturn(ip,cIDs);\r\n}\r\n\r\n\r\n\r\nfunction countCertificatesOwners(bytes4 ip, uint start, uint stop)view internal returns(uint){\r\n\tuint count=0;\r\n\tuint stopper=0;\r\n\tif(stop<certificates[ip].length){\r\n\t\tstopper=stop;\r\n\t}\r\n\telse stopper=certificates[ip].length-start;\r\n\r\n\tfor(uint i=start; i<stopper; i++){\r\n\t\tcount=count+1;\r\n\t}\r\n\treturn count;\r\n}\r\n\r\n\r\n\r\nfunction countCertificatesIDs(bytes4 ip, address a, uint start, uint stop)view internal returns(uint){\r\n\r\n\tuint count=0;\r\n\tuint stopper=0;\r\n\tif(stop<certificates[ip].length){\r\n\t\tstopper=stop;\r\n\t}\r\n\telse stopper=certificates[ip].length-start;\r\n\r\n\tfor(uint i=start; i<stopper; i++){\r\n\t\t\tif(certificates[ip][i].o_addr==a){\r\n\t\t\t\tcount=count+1;\r\n\t\t\t}\r\n\t}\r\n\treturn count;\r\n}\r\n\r\nfunction countCertificatesIP(bytes4 ip)public view returns(uint){\r\n\treturn certificates[ip].length;\r\n}\r\n\r\n\r\n\r\n\r\nfunction getCertificates(bytes4 ip, uint id)public view returns(uint, address, bytes, bytes, bytes, bytes){\r\n\t\r\n\treturn(certificates[ip][id].date,certificates[ip][id].o_addr,certificates[ip][id].info.uri,certificates[ip][id].info.hashFunction,certificates[ip][id].info.hash,certificates[ip][id].Roa);\r\n}\r\n\r\n\r\n\r\nfunction updateCertificateROA_Info(bytes4 ip, uint id, bytes roa_, bytes uri_, bytes hash_, bytes hashFunction_)public {\r\n\r\n\trequire(msg.sender==certificates[ip][id].o_addr);\r\n\tcertificates[ip][id].Roa=roa_;\r\n\tcertificates[ip][id].info.uri=uri_;\r\n\tcertificates[ip][id].info.hashFunction=hashFunction_;\r\n\tcertificates[ip][id].info.hash=hash_;\r\n}\r\n\r\n\r\n//testfunction\r\n\r\nfunction iterateInsert(uint iteration)public{\r\n\r\nfor(uint i =0; i<iteration;i++){\r\ninsertCertificate(0xc0000100,\"www.fabiolaIsTheMostBeautifulGirlInTheWorld.com\",\"sha256\",\"aaaaaaaaaaaaaaaaaaaaaaaaaaaaaaaaaaaaaaaaaaaaaaaaaaaaaaaaaaaaa\",\"10082017\");\r\n}\r\n}\r\n\r\n}//END ",
  "sourcePath": "C:\\Users\\User\\Desktop\\InBlock_IPv4_Rpki\\InBlock_IPv4\\contracts\\InBlock_F.sol",
  "compiler": {
    "name": "solc",
    "version": "0.4.25+commit.59dbf8f1.Emscripten.clang"
  },
  "schemaVersion": "2.0.2",
  "updatedAt": "2019-05-29T10:19:53.131Z"
}