{
  "contractName": "InBlock",
  "abi": [
    {
      "constant": true,
      "inputs": [],
      "name": "ID_expired",
      "outputs": [
        {
          "name": "",
          "type": "int256"
        }
      ],
      "payable": false,
      "stateMutability": "view",
      "type": "function"
    },
    {
      "constant": false,
      "inputs": [],
      "name": "circuitBreaker",
      "outputs": [],
      "payable": false,
      "stateMutability": "nonpayable",
      "type": "function"
    },
    {
      "constant": true,
      "inputs": [
        {
          "name": "ip",
          "type": "bytes4"
        },
        {
          "name": "a",
          "type": "address"
        },
        {
          "name": "start",
          "type": "uint256"
        },
        {
          "name": "stop",
          "type": "uint256"
        }
      ],
      "name": "readCertificateOwners",
      "outputs": [
        {
          "name": "",
          "type": "bytes4"
        },
        {
          "name": "",
          "type": "address[]"
        }
      ],
      "payable": false,
      "stateMutability": "view",
      "type": "function"
    },
    {
      "constant": true,
      "inputs": [
        {
          "name": "ip",
          "type": "bytes4"
        },
        {
          "name": "start",
          "type": "uint256"
        },
        {
          "name": "stop",
          "type": "uint256"
        }
      ],
      "name": "readCertificateIDs",
      "outputs": [
        {
          "name": "",
          "type": "bytes4"
        },
        {
          "name": "",
          "type": "uint256[]"
        }
      ],
      "payable": false,
      "stateMutability": "view",
      "type": "function"
    },
    {
      "constant": true,
      "inputs": [],
      "name": "ID_Index",
      "outputs": [
        {
          "name": "",
          "type": "uint256"
        }
      ],
      "payable": false,
      "stateMutability": "view",
      "type": "function"
    },
    {
      "constant": false,
      "inputs": [
        {
          "name": "ip",
          "type": "bytes4"
        },
        {
          "name": "uri_",
          "type": "bytes"
        },
        {
          "name": "hashFunction_",
          "type": "bytes"
        },
        {
          "name": "hash_",
          "type": "bytes"
        },
        {
          "name": "ROAs_",
          "type": "bytes"
        }
      ],
      "name": "insertCertificate",
      "outputs": [],
      "payable": true,
      "stateMutability": "payable",
      "type": "function"
    },
    {
      "constant": true,
      "inputs": [],
      "name": "certificatePrice2",
      "outputs": [
        {
          "name": "",
          "type": "uint256"
        }
      ],
      "payable": false,
      "stateMutability": "view",
      "type": "function"
    },
    {
      "constant": true,
      "inputs": [
        {
          "name": "ip",
          "type": "bytes4"
        },
        {
          "name": "a",
          "type": "address"
        },
        {
          "name": "start",
          "type": "uint256"
        },
        {
          "name": "stop",
          "type": "uint256"
        }
      ],
      "name": "readCertificateIDsByOwner",
      "outputs": [
        {
          "name": "",
          "type": "bytes4"
        },
        {
          "name": "",
          "type": "uint256[]"
        }
      ],
      "payable": false,
      "stateMutability": "view",
      "type": "function"
    },
    {
      "constant": false,
      "inputs": [],
      "name": "toggleCircuit",
      "outputs": [],
      "payable": false,
      "stateMutability": "nonpayable",
      "type": "function"
    },
    {
      "constant": true,
      "inputs": [
        {
          "name": "ip",
          "type": "bytes4"
        }
      ],
      "name": "countCertificatesIP",
      "outputs": [
        {
          "name": "",
          "type": "uint256"
        }
      ],
      "payable": false,
      "stateMutability": "view",
      "type": "function"
    },
    {
      "constant": false,
      "inputs": [
        {
          "name": "iteration",
          "type": "uint256"
        }
      ],
      "name": "iterateInsert",
      "outputs": [],
      "payable": false,
      "stateMutability": "nonpayable",
      "type": "function"
    },
    {
      "constant": true,
      "inputs": [],
      "name": "initial_block",
      "outputs": [
        {
          "name": "",
          "type": "bytes4"
        }
      ],
      "payable": false,
      "stateMutability": "view",
      "type": "function"
    },
    {
      "constant": true,
      "inputs": [],
      "name": "stopped",
      "outputs": [
        {
          "name": "",
          "type": "bool"
        }
      ],
      "payable": false,
      "stateMutability": "view",
      "type": "function"
    },
    {
      "constant": true,
      "inputs": [
        {
          "name": "ip",
          "type": "bytes4"
        },
        {
          "name": "id",
          "type": "uint256"
        }
      ],
      "name": "getCertificates",
      "outputs": [
        {
          "name": "",
          "type": "uint256"
        },
        {
          "name": "",
          "type": "address"
        },
        {
          "name": "",
          "type": "bytes"
        },
        {
          "name": "",
          "type": "bytes"
        },
        {
          "name": "",
          "type": "bytes"
        },
        {
          "name": "",
          "type": "bytes"
        }
      ],
      "payable": false,
      "stateMutability": "view",
      "type": "function"
    },
    {
      "constant": true,
      "inputs": [],
      "name": "askOracleCost",
      "outputs": [
        {
          "name": "",
          "type": "uint256"
        }
      ],
      "payable": false,
      "stateMutability": "view",
      "type": "function"
    },
    {
      "constant": true,
      "inputs": [],
      "name": "owner",
      "outputs": [
        {
          "name": "",
          "type": "address"
        }
      ],
      "payable": false,
      "stateMutability": "view",
      "type": "function"
    },
    {
      "constant": true,
      "inputs": [
        {
          "name": "",
          "type": "bytes4"
        },
        {
          "name": "",
          "type": "uint256"
        }
      ],
      "name": "certificates",
      "outputs": [
        {
          "name": "ip_address",
          "type": "bytes4"
        },
        {
          "name": "o_addr",
          "type": "address"
        },
        {
          "name": "id",
          "type": "uint256"
        },
        {
          "name": "mask",
          "type": "uint8"
        },
        {
          "name": "date",
          "type": "uint256"
        },
        {
          "components": [
            {
              "name": "uri",
              "type": "bytes"
            },
            {
              "name": "hashFunction",
              "type": "bytes"
            },
            {
              "name": "hash",
              "type": "bytes"
            }
          ],
          "name": "info",
          "type": "tuple"
        },
        {
          "name": "Roa",
          "type": "bytes"
        }
      ],
      "payable": false,
      "stateMutability": "view",
      "type": "function"
    },
    {
      "constant": true,
      "inputs": [],
      "name": "price",
      "outputs": [
        {
          "name": "",
          "type": "uint256"
        }
      ],
      "payable": false,
      "stateMutability": "view",
      "type": "function"
    },
    {
      "constant": true,
      "inputs": [],
      "name": "ID",
      "outputs": [
        {
          "name": "",
          "type": "int256"
        }
      ],
      "payable": false,
      "stateMutability": "view",
      "type": "function"
    },
    {
      "constant": true,
      "inputs": [],
      "name": "dollarsPrice",
      "outputs": [
        {
          "name": "",
          "type": "uint256"
        }
      ],
      "payable": false,
      "stateMutability": "view",
      "type": "function"
    },
    {
      "constant": false,
      "inputs": [
        {
          "name": "ip",
          "type": "bytes4"
        },
        {
          "name": "id",
          "type": "uint256"
        },
        {
          "name": "roa_",
          "type": "bytes"
        },
        {
          "name": "uri_",
          "type": "bytes"
        },
        {
          "name": "hash_",
          "type": "bytes"
        },
        {
          "name": "hashFunction_",
          "type": "bytes"
        }
      ],
      "name": "updateCertificateROA_Info",
      "outputs": [],
      "payable": false,
      "stateMutability": "nonpayable",
      "type": "function"
    },
    {
      "constant": true,
      "inputs": [],
      "name": "base_certificate_mask",
      "outputs": [
        {
          "name": "",
          "type": "uint8"
        }
      ],
      "payable": false,
      "stateMutability": "view",
      "type": "function"
    },
    {
      "constant": true,
      "inputs": [],
      "name": "certificatePrice1",
      "outputs": [
        {
          "name": "",
          "type": "uint256"
        }
      ],
      "payable": false,
      "stateMutability": "view",
      "type": "function"
    },
    {
      "constant": true,
      "inputs": [],
      "name": "certificatePrice3",
      "outputs": [
        {
          "name": "",
          "type": "uint256"
        }
      ],
      "payable": false,
      "stateMutability": "view",
      "type": "function"
    },
    {
      "constant": true,
      "inputs": [],
      "name": "prefixPrice",
      "outputs": [
        {
          "name": "",
          "type": "uint256"
        }
      ],
      "payable": false,
      "stateMutability": "view",
      "type": "function"
    },
    {
      "inputs": [],
      "payable": false,
      "stateMutability": "nonpayable",
      "type": "constructor"
    },
    {
      "anonymous": false,
      "inputs": [
        {
          "indexed": false,
          "name": "text",
          "type": "string"
        }
      ],
      "name": "Log",
      "type": "event"
    },
    {
      "constant": false,
      "inputs": [
        {
          "name": "_base_certificate_mask",
          "type": "uint8"
        },
        {
          "name": "price",
          "type": "uint256"
        }
      ],
      "name": "activateInBlock",
      "outputs": [],
      "payable": false,
      "stateMutability": "nonpayable",
      "type": "function"
    },
    {
      "constant": false,
      "inputs": [],
      "name": "getOracleCurrencyConversion",
      "outputs": [],
      "payable": true,
      "stateMutability": "payable",
      "type": "function"
    },
    {
      "constant": false,
      "inputs": [
        {
          "name": "_myid",
          "type": "bytes32"
        },
        {
          "name": "_result",
          "type": "string"
        }
      ],
      "name": "__callback",
      "outputs": [],
      "payable": false,
      "stateMutability": "nonpayable",
      "type": "function"
    },
    {
      "constant": false,
      "inputs": [
        {
          "name": "myid",
          "type": "bytes32"
        },
        {
          "name": "result",
          "type": "string"
        },
        {
          "name": "proof",
          "type": "bytes"
        }
      ],
      "name": "__callback",
      "outputs": [],
      "payable": false,
      "stateMutability": "nonpayable",
      "type": "function"
    },
    {
      "constant": false,
      "inputs": [],
      "name": "getcertificateCost",
      "outputs": [],
      "payable": false,
      "stateMutability": "nonpayable",
      "type": "function"
    },
    {
      "constant": false,
      "inputs": [
        {
          "name": "new_owner",
          "type": "address"
        }
      ],
      "name": "transferInBlockControl",
      "outputs": [],
      "payable": false,
      "stateMutability": "nonpayable",
      "type": "function"
    },
    {
      "constant": false,
      "inputs": [
        {
          "name": "ip",
          "type": "bytes4"
        },
        {
          "name": "id",
          "type": "uint256"
        },
        {
          "name": "new_owner",
          "type": "address"
        }
      ],
      "name": "transferCertificateControl",
      "outputs": [],
      "payable": false,
      "stateMutability": "nonpayable",
      "type": "function"
    },
    {
      "constant": false,
      "inputs": [],
      "name": "pay",
      "outputs": [],
      "payable": true,
      "stateMutability": "payable",
      "type": "function"
    }
  ],
  "bytecode": "0x60806040526113886009556109c4600a556109c4600b5534801561002257600080fd5b50600d80547901000000000000000000000000000000000000000000000000007fffffffffffffff0000000000000000000000000000000000000000ffffffffff9091163365010000000000021760c860020a60ff0219161790556706121a1706434000600355600f8054736f485c8bf6fc43ea212e93bbf8ce046c7f1cb475600160a060020a031990911617905568056bc75e2d63100000600455613134806100cd6000396000f3006080604052600436106101875763ffffffff60e060020a60003504166306cd8b75811461018c57806308250c51146101b357806315ec41e7146101bd57806316efd941146101de5780631b9265b8146101f35780631de2f9da146101fb5780631e6dec2c1461029357806327dc297e146102c457806338bbfa501461032257806339f1c074146103be5780633ae5e307146103e65780633b51d736146103fb5780633c94b399146105105780633cc88edb14610525578063496218511461055957806367c935051461056e5780636a1e9d78146105905780636e12fe89146105a8578063743d9ff8146105bd57806375f12b21146105ef5780638c1a32f3146106185780638c2a8c10146108075780638da5cb5b1461081c57806391f926131461084d578063a035b1fe14610940578063b3cea21714610955578063b5820d751461096a578063ba740c011461097f578063c5c0f7a01461099d578063ce41339714610ac1578063cf5531dc14610aec578063ef0851bf14610b01578063ff6e3c3114610b16575b600080fd5b34801561019857600080fd5b506101a1610b2b565b60408051918252519081900360200190f35b6101bb610b31565b005b3480156101c957600080fd5b506101bb600160a060020a0360043516610d8d565b3480156101ea57600080fd5b506101bb610dea565b6101bb610e2f565b34801561020757600080fd5b5061022f600160e060020a031960043516600160a060020a0360243516604435606435610e31565b60408051600160e060020a031984168152602080820183815284519383019390935283519192916060840191858101910280838360005b8381101561027e578181015183820152602001610266565b50505050905001935050505060405180910390f35b34801561029f57600080fd5b506101bb600160e060020a031960043516602435600160a060020a0360443516610f6e565b3480156102d057600080fd5b5060408051602060046024803582810135601f81018590048502860185019096528585526101bb9583359536956044949193909101919081908401838280828437509497506110aa9650505050505050565b34801561032e57600080fd5b5060408051602060046024803582810135601f81018590048502860185019096528585526101bb95833595369560449491939091019190819084018382808284375050604080516020601f89358b018035918201839004830284018301909452808352979a9998810197919650918201945092508291508401838280828437509497506112e09650505050505050565b3480156103ca57600080fd5b5061022f600160e060020a0319600435166024356044356112e5565b3480156103f257600080fd5b506101a16113f3565b60408051602060046024803582810135601f81018590048502860185019096528585526101bb958335600160e060020a03191695369560449491939091019190819084018382808284375050604080516020601f89358b018035918201839004830284018301909452808352979a99988101979196509182019450925082915084018382808284375050604080516020601f89358b018035918201839004830284018301909452808352979a99988101979196509182019450925082915084018382808284375050604080516020601f89358b018035918201839004830284018301909452808352979a9998810197919650918201945092508291508401838280828437509497506113f99650505050505050565b34801561051c57600080fd5b506101a1611685565b34801561053157600080fd5b5061022f600160e060020a031960043516600160a060020a036024351660443560643561168b565b34801561056557600080fd5b506101bb6117f5565b34801561057a57600080fd5b506101a1600160e060020a031960043516611862565b34801561059c57600080fd5b506101bb600435611882565b3480156105b457600080fd5b506101bb6119ce565b3480156105c957600080fd5b506105d2611a77565b60408051600160e060020a03199092168252519081900360200190f35b3480156105fb57600080fd5b50610604611a83565b604080519115158252519081900360200190f35b34801561062457600080fd5b5061063d600160e060020a031960043516602435611aa9565b6040518087815260200186600160a060020a0316600160a060020a0316815260200180602001806020018060200180602001858103855289818151815260200191508051906020019080838360005b838110156106a457818101518382015260200161068c565b50505050905090810190601f1680156106d15780820380516001836020036101000a031916815260200191505b5085810384528851815288516020918201918a019080838360005b838110156107045781810151838201526020016106ec565b50505050905090810190601f1680156107315780820380516001836020036101000a031916815260200191505b50858103835287518152875160209182019189019080838360005b8381101561076457818101518382015260200161074c565b50505050905090810190601f1680156107915780820380516001836020036101000a031916815260200191505b50858103825286518152865160209182019188019080838360005b838110156107c45781810151838201526020016107ac565b50505050905090810190601f1680156107f15780820380516001836020036101000a031916815260200191505b509a505050505050505050505060405180910390f35b34801561081357600080fd5b506101a1611e89565b34801561082857600080fd5b50610831611e8f565b60408051600160a060020a039092168252519081900360200190f35b34801561085957600080fd5b50610872600160e060020a031960043516602435611ea7565b6040518088600160e060020a031916600160e060020a031916815260200187600160a060020a0316600160a060020a031681526020018681526020018560ff1660ff16815260200184815260200183815260200180602001828103825283818151815260200191508051906020019080838360005b838110156108ff5781810151838201526020016108e7565b50505050905090810190601f16801561092c5780820380516001836020036101000a031916815260200191505b509850505050505050505060405180910390f35b34801561094c57600080fd5b506101a1612175565b34801561096157600080fd5b506101a161217b565b34801561097657600080fd5b506101a1612181565b34801561098b57600080fd5b506101bb60ff60043516602435612187565b3480156109a957600080fd5b50604080516020600460443581810135601f81018490048402850184019095528484526101bb948235600160e060020a03191694602480359536959460649492019190819084018382808284375050604080516020601f89358b018035918201839004830284018301909452808352979a99988101979196509182019450925082915084018382808284375050604080516020601f89358b018035918201839004830284018301909452808352979a99988101979196509182019450925082915084018382808284375050604080516020601f89358b018035918201839004830284018301909452808352979a9998810197919650918201945092508291508401838280828437509497506121f49650505050505050565b348015610acd57600080fd5b50610ad661238b565b6040805160ff9092168252519081900360200190f35b348015610af857600080fd5b506101a161239c565b348015610b0d57600080fd5b506101a16123a2565b348015610b2257600080fd5b506101a16123a8565b60085481565b610bf26040805190810160405280600381526020017f55524c0000000000000000000000000000000000000000000000000000000000815250608060405190810160405280604981526020017f6a736f6e2868747470733a2f2f6d696e2d6170692e63727970746f636f6d706181526020017f72652e636f6d2f646174612f70726963653f6673796d3d455448267473796d7381526020017f3d555344292e55534400000000000000000000000000000000000000000000008152506123ae565b60148160001916905550610cbd6040805190810160405280600381526020017f55524c0000000000000000000000000000000000000000000000000000000000815250608060405190810160405280604c81526020017f6a736f6e2868747470733a2f2f6170692e6b72616b656e2e636f6d2f302f707581526020017f626c69632f5469636b65723f706169723d455448555344292e726573756c742e81526020017f584554485a5553442e632e3000000000000000000000000000000000000000008152506123ae565b60158160001916905550610d886040805190810160405280600381526020017f55524c0000000000000000000000000000000000000000000000000000000000815250608060405190810160405280604381526020017f6a736f6e2868747470733a2f2f6170692e636f696e6d61726b65746361702e6381526020017f6f6d2f76312f7469636b65722f657468657265756d2f292e302e70726963655f81526020017f75736400000000000000000000000000000000000000000000000000000000008152506123ae565b601655565b600d54650100000000009004600160a060020a03163314610dad57600080fd5b600d8054600160a060020a03909216650100000000000278ffffffffffffffffffffffffffffffffffffffff000000000019909216919091179055565b600d54650100000000009004600160a060020a03163314610e0a57600080fd5b600d805479ff0000000000000000000000000000000000000000000000000019169055565b565b600060606000806060600080600b54898903101515610e4f57600080fd5b600160e060020a03198b166000908152600e6020526040812054909550881115610e9457600160e060020a03198b166000908152600e60205260409020549450610e98565b8794505b610ea38b8a876127a5565b935083604051908082528060200260200182016040528015610ecf578160200160208202803883390190505b50925060009150600090505b84811015610f5e57600160e060020a03198b166000908152600e60205260409020805482908110610f0857fe5b906000526020600020906008020160000160049054906101000a9004600160a060020a03168383815181101515610f3b57fe5b600160a060020a0390921660209283029091019091015260019182019101610edb565b5098999098509650505050505050565b600160e060020a031983166000908152600e60205260409020805483908110610f9357fe5b60009182526020909120600890910201546401000000009004600160a060020a0316331461104857604080517f08c379a000000000000000000000000000000000000000000000000000000000815260206004820152602260248201527f596f7520617265206e6f7420746865206f776e6572206f662074686520626c6f60448201527f636b000000000000000000000000000000000000000000000000000000000000606482015290519081900360840190fd5b600160e060020a031983166000908152600e6020526040902080548291908490811061107057fe5b906000526020600020906008020160000160046101000a815481600160a060020a030219169083600160a060020a03160217905550505050565b6110b2612816565b600160a060020a031633146110c657600080fd5b601454821415611178577fcf34ef537ac33ee1ac626ca1587a0a7e8e51561e5514f8cb36afa1c5102b3bab816040518080602001828103825283818151815260200191508051906020019080838360005b8381101561112f578181015183820152602001611117565b50505050905090810190601f16801561115c5780820380516001836020036101000a031916815260200191505b509250505060405180910390a1611174816002612a0c565b6000555b60155482141561122a577fcf34ef537ac33ee1ac626ca1587a0a7e8e51561e5514f8cb36afa1c5102b3bab816040518080602001828103825283818151815260200191508051906020019080838360005b838110156111e15781810151838201526020016111c9565b50505050905090810190601f16801561120e5780820380516001836020036101000a031916815260200191505b509250505060405180910390a1611226816002612a0c565b6001555b6016548214156112dc577fcf34ef537ac33ee1ac626ca1587a0a7e8e51561e5514f8cb36afa1c5102b3bab816040518080602001828103825283818151815260200191508051906020019080838360005b8381101561129357818101518382015260200161127b565b50505050905090810190601f1680156112c05780820380516001836020036101000a031916815260200191505b509250505060405180910390a16112d8816002612a0c565b6002555b5050565b505050565b600060606000606060008060095488880310151561130257600080fd5b600160e060020a031989166000908152600e602052604081205490945087111561134757600160e060020a031989166000908152600e6020526040902054935061134b565b8693505b878403604051908082528060200260200182016040528015611377578160200160208202803883390190505b509250600091508790505b838110156113e557600160e060020a031989166000908152600e602052604090208054829081106113af57fe5b90600052602060002090600802016001015483838151811015156113cf57fe5b6020908102909101015260019182019101611382565b509697909650945050505050565b60075481565b611401613009565b346672a57c275dc8006004540311158061142657506004546672a57c275dc800013411155b151561149357604080517f08c379a000000000000000000000000000000000000000000000000000000000815260206004820152600b60248201527f5072696365206572726f72000000000000000000000000000000000000000000604482015290519081900360640190fd5b338160200190600160a060020a03169081600160a060020a031681525050600754816040018181525050600d60049054906101000a900460ff16816060019060ff16908160ff168152505042816080018181525050818160c00181905250848160a0015160000181905250838160a0015160200181905250828160a0015160400181905250600754600101600781905550600e600087600160e060020a031916600160e060020a0319168152602001908152602001600020819080600181540180825580915050906001820390600052602060002090600802016000909192909190915060008201518160000160006101000a81548163ffffffff021916908360e060020a9004021790555060208201518160000160046101000a815481600160a060020a030219169083600160a060020a031602179055506040820151816001015560608201518160020160006101000a81548160ff021916908360ff1602179055506080820151816003015560a082015181600401600082015181600001908051906020019061162692919061304e565b50602082810151805161163f926001850192019061304e565b506040820151805161165b91600284019160209091019061304e565b50505060c0820151805161167991600784019160209091019061304e565b50505050505050505050565b60015481565b600060606000806060600080600a548989031015156116a957600080fd5b600160e060020a03198b166000908152600e60205260408120549095508811156116ee57600160e060020a03198b166000908152600e602052604090205494506116f2565b8794505b6116fe8b8b8b8b612bc5565b93508360405190808252806020026020018201604052801561172a578160200160208202803883390190505b50925060009150600090505b84811015610f5e57600160e060020a03198b166000908152600e602052604090208054600160a060020a038c1691908390811061176f57fe5b60009182526020909120600890910201546401000000009004600160a060020a031614156117ed57600160e060020a03198b166000908152600e602052604090208054829081106117bc57fe5b90600052602060002090600802016001015483838151811015156117dc57fe5b602090810290910101526001909101905b600101611736565b600d54650100000000009004600160a060020a0316331461181557600080fd5b600d805479ff000000000000000000000000000000000000000000000000001981167901000000000000000000000000000000000000000000000000009182900460ff1615909102179055565b600160e060020a031981166000908152600e60205260409020545b919050565b60005b818110156112dc576119c663c000010060e060020a02606060405190810160405280602f81526020017f7777772e666162696f6c6149735468654d6f737442656175746966756c47697281526020017f6c496e546865576f726c642e636f6d00000000000000000000000000000000008152506040805190810160405280600681526020017f7368613235360000000000000000000000000000000000000000000000000000815250606060405190810160405280603d81526020017f616161616161616161616161616161616161616161616161616161616161616181526020017f61616161616161616161616161616161616161616161616161616161610000008152506040805190810160405280600881526020017f31303038323031370000000000000000000000000000000000000000000000008152506113f9565b600101611885565b6001546000541180156119e45750600254600054115b80611a005750600154600054108015611a005750600254600054105b15611a5357600054600154118015611a1b5750600254600154115b80611a375750600054600154108015611a375750600254600154105b15611a4757600254600455611a4e565b6001546004555b611a5a565b6000546004555b611a6a6005546004546005612c93565b6509184e72a00002600455565b600d5460e060020a0281565b600d54790100000000000000000000000000000000000000000000000000900460ff1681565b600160e060020a031982166000908152600e60205260408120805482916060918291829182919088908110611ada57fe5b6000918252602080832060036008909302019190910154600160e060020a03198b168352600e9091526040909120805489908110611b1457fe5b6000918252602080832060089290920290910154600160e060020a03198c168352600e90915260409091208054640100000000909204600160a060020a0316918a908110611b5e57fe5b60009182526020808320600160e060020a03198e168452600e9091526040909220805460089290920290920160040191908b908110611b9957fe5b60009182526020808320600160e060020a03198f168452600e9091526040909220805460089290920290920160050191908c908110611bd457fe5b9060005260206000209060080201600401600201600e60008e600160e060020a031916600160e060020a03191681526020019081526020016000208c815481101515611c1c57fe5b9060005260206000209060080201600701838054600181600116156101000203166002900480601f016020809104026020016040519081016040528092919081815260200182805460018160011615610100020316600290048015611cc25780601f10611c9757610100808354040283529160200191611cc2565b820191906000526020600020905b815481529060010190602001808311611ca557829003601f168201915b5050865460408051602060026001851615610100026000190190941693909304601f810184900484028201840190925281815295995088945092508401905082828015611d505780601f10611d2557610100808354040283529160200191611d50565b820191906000526020600020905b815481529060010190602001808311611d3357829003601f168201915b5050855460408051602060026001851615610100026000190190941693909304601f810184900484028201840190925281815295985087945092508401905082828015611dde5780601f10611db357610100808354040283529160200191611dde565b820191906000526020600020905b815481529060010190602001808311611dc157829003601f168201915b5050845460408051602060026001851615610100026000190190941693909304601f810184900484028201840190925281815295975086945092508401905082828015611e6c5780601f10611e4157610100808354040283529160200191611e6c565b820191906000526020600020905b815481529060010190602001808311611e4f57829003601f168201915b505050505090509550955095509550955095509295509295509295565b60035481565b600d54650100000000009004600160a060020a031681565b600e60205281600052604060002081815481101515611ec257fe5b600091825260209182902060089190910201805460018083015460028085015460038601546040805160048901805461010098811615989098026000190190971694909404601f81018a9004909902840160809081019091526060840189815260e060020a88029b50640100000000909704600160a060020a03169950939760ff9092169690959094929384928491840182828015611fa25780601f10611f7757610100808354040283529160200191611fa2565b820191906000526020600020905b815481529060010190602001808311611f8557829003601f168201915b50505050508152602001600182018054600181600116156101000203166002900480601f0160208091040260200160405190810160405280929190818152602001828054600181600116156101000203166002900480156120445780601f1061201957610100808354040283529160200191612044565b820191906000526020600020905b81548152906001019060200180831161202757829003601f168201915b5050509183525050600282810180546040805160206001841615610100026000190190931694909404601f810183900483028501830190915280845293810193908301828280156120d65780601f106120ab576101008083540402835291602001916120d6565b820191906000526020600020905b8154815290600101906020018083116120b957829003601f168201915b5050509190925250505060078201805460408051602060026001851615610100026000190190941693909304601f8101849004840282018401909252818152939493929183018282801561216b5780601f106121405761010080835404028352916020019161216b565b820191906000526020600020905b81548152906001019060200180831161214e57829003601f168201915b5050505050905087565b60045481565b60065481565b60055481565b600d54650100000000009004600160a060020a031633146121a757600080fd5b600d8054600060075560059290925579ff000000000000000000000000000000000000000000000000001960ff9093166401000000000264ff000000001990921691909117919091169055565b600160e060020a031986166000908152600e6020526040902080548690811061221957fe5b60009182526020909120600890910201546401000000009004600160a060020a0316331461224657600080fd5b600160e060020a031986166000908152600e6020526040902080548591908790811061226e57fe5b9060005260206000209060080201600701908051906020019061229292919061304e565b50600160e060020a031986166000908152600e602052604090208054849190879081106122bb57fe5b906000526020600020906008020160040160000190805190602001906122e292919061304e565b50600160e060020a031986166000908152600e6020526040902080548291908790811061230b57fe5b9060005260206000209060080201600401600101908051906020019061233292919061304e565b50600160e060020a031986166000908152600e6020526040902080548391908790811061235b57fe5b9060005260206000209060080201600401600201908051906020019061238292919061304e565b50505050505050565b600d54640100000000900460ff1681565b60005481565b60025481565b600c5481565b600f546000908190600160a060020a031615806123dd5750600f546123db90600160a060020a0316612cc8565b155b156123ee576123ec6000612ccc565b505b600f60009054906101000a9004600160a060020a0316600160a060020a03166338cc48316040518163ffffffff1660e060020a028152600401602060405180830381600087803b15801561244157600080fd5b505af1158015612455573d6000803e3d6000fd5b505050506040513d602081101561246b57600080fd5b5051601054600160a060020a0390811691161461252157600f60009054906101000a9004600160a060020a0316600160a060020a03166338cc48316040518163ffffffff1660e060020a028152600401602060405180830381600087803b1580156124d557600080fd5b505af11580156124e9573d6000803e3d6000fd5b505050506040513d60208110156124ff57600080fd5b505160108054600160a060020a031916600160a060020a039092169190911790555b6010546040517f524f3889000000000000000000000000000000000000000000000000000000008152602060048201818152875160248401528751600160a060020a039094169363524f388993899383926044909201919085019080838360005b8381101561259a578181015183820152602001612582565b50505050905090810190601f1680156125c75780820380516001836020036101000a031916815260200191505b5092505050602060405180830381600087803b1580156125e657600080fd5b505af11580156125fa573d6000803e3d6000fd5b505050506040513d602081101561261057600080fd5b50519050670de0b6b3a764000062030d403a0201811115612634576000915061279e565b6010546040517fadf59f99000000000000000000000000000000000000000000000000000000008152600060048201818152606060248401908152885160648501528851600160a060020a039095169463adf59f99948794938b938b939192909160448201916084019060208701908083838b5b838110156126c05781810151838201526020016126a8565b50505050905090810190601f1680156126ed5780820380516001836020036101000a031916815260200191505b50838103825284518152845160209182019186019080838360005b83811015612720578181015183820152602001612708565b50505050905090810190601f16801561274d5780820380516001836020036101000a031916815260200191505b50955050505050506020604051808303818588803b15801561276e57600080fd5b505af1158015612782573d6000803e3d6000fd5b50505050506040513d602081101561279957600080fd5b505191505b5092915050565b600160e060020a031983166000908152600e60205260408120548190819081908510156127d4578491506127f4565b600160e060020a031987166000908152600e602052604090205486900391505b50845b8181101561280b57600192830192016127f7565b509095945050505050565b600f54600090600160a060020a031615806128435750600f5461284190600160a060020a0316612cc8565b155b15612854576128526000612ccc565b505b600f60009054906101000a9004600160a060020a0316600160a060020a03166338cc48316040518163ffffffff1660e060020a028152600401602060405180830381600087803b1580156128a757600080fd5b505af11580156128bb573d6000803e3d6000fd5b505050506040513d60208110156128d157600080fd5b5051601054600160a060020a0390811691161461298757600f60009054906101000a9004600160a060020a0316600160a060020a03166338cc48316040518163ffffffff1660e060020a028152600401602060405180830381600087803b15801561293b57600080fd5b505af115801561294f573d6000803e3d6000fd5b505050506040513d602081101561296557600080fd5b505160108054600160a060020a031916600160a060020a039092169190911790555b601060009054906101000a9004600160a060020a0316600160a060020a031663c281d19e6040518163ffffffff1660e060020a028152600401602060405180830381600087803b1580156129da57600080fd5b505af11580156129ee573d6000803e3d6000fd5b505050506040513d6020811015612a0457600080fd5b505190505b90565b6000828180805b8351811015612ba95783517f300000000000000000000000000000000000000000000000000000000000000090859083908110612a4c57fe5b90602001015160f860020a900460f860020a027effffffffffffffffffffffffffffffffffffffffffffffffffffffffffffff191610158015612af2575083517f390000000000000000000000000000000000000000000000000000000000000090859083908110612aba57fe5b90602001015160f860020a900460f860020a027effffffffffffffffffffffffffffffffffffffffffffffffffffffffffffff191611155b15612b4b578115612b1157851515612b0957612ba9565b600019909501945b600a8302925060308482815181101515612b2757fe5b90602001015160f860020a900460f860020a0260f860020a90040383019250612ba1565b8381815181101515612b5957fe5b90602001015160f860020a900460f860020a027effffffffffffffffffffffffffffffffffffffffffffffffffffffffffffff1916602e60f860020a021415612ba157600191505b600101612a13565b600086111561280b5785600a0a83029250509095945050505050565b600160e060020a031984166000908152600e6020526040812054819081908190851015612bf457849150612c14565b600160e060020a031988166000908152600e602052604090205486900391505b50845b81811015612c8757600160e060020a031988166000908152600e602052604090208054600160a060020a038916919083908110612c5057fe5b60009182526020909120600890910201546401000000009004600160a060020a03161415612c7f578260010192505b600101612c17565b50909695505050505050565b600080600083600101600a0a86029150600a8583811515612cb057fe5b04600501811515612cbd57fe5b049695505050505050565b3b90565b600080612cec731d3b2638a7cc9f2cb3d298a3da7a90b67e5506ed612cc8565b1115612d5d57600f8054600160a060020a031916731d3b2638a7cc9f2cb3d298a3da7a90b67e5506ed17905560408051808201909152600b81527f6574685f6d61696e6e65740000000000000000000000000000000000000000006020820152612d5590612ff6565b50600161187d565b6000612d7c73c03a2615d5efaf5f49f60b7bb6583eaec212fdf1612cc8565b1115612de557600f8054600160a060020a03191673c03a2615d5efaf5f49f60b7bb6583eaec212fdf117905560408051808201909152600c81527f6574685f726f707374656e3300000000000000000000000000000000000000006020820152612d5590612ff6565b6000612e0473b7a07bcf2ba2f2703b24c0691b5278999c59ac7e612cc8565b1115612e6d57600f8054600160a060020a03191673b7a07bcf2ba2f2703b24c0691b5278999c59ac7e17905560408051808201909152600981527f6574685f6b6f76616e00000000000000000000000000000000000000000000006020820152612d5590612ff6565b6000612e8c73146500cfd35b22e4a392fe0adc06de1a1368ed48612cc8565b1115612ef557600f8054600160a060020a03191673146500cfd35b22e4a392fe0adc06de1a1368ed4817905560408051808201909152600b81527f6574685f72696e6b6562790000000000000000000000000000000000000000006020820152612d5590612ff6565b6000612f14736f485c8bf6fc43ea212e93bbf8ce046c7f1cb475612cc8565b1115612f485750600f8054600160a060020a031916736f485c8bf6fc43ea212e93bbf8ce046c7f1cb475179055600161187d565b6000612f677320e12a1f859b3feae5fb2a0a32c18f5a65555bbf612cc8565b1115612f9b5750600f8054600160a060020a0319167320e12a1f859b3feae5fb2a0a32c18f5a65555bbf179055600161187d565b6000612fba7351efaf4c8b3c9afbd5ab9f4bbc82784ab6ef8faa612cc8565b1115612fee5750600f8054600160a060020a0319167351efaf4c8b3c9afbd5ab9f4bbc82784ab6ef8faa179055600161187d565b506000919050565b80516112dc90601190602084019061304e565b604080516101208101825260008082526020820181905291810182905260608101829052608081019190915260a081016130416130cc565b8152602001606081525090565b828054600181600116156101000203166002900490600052602060002090601f016020900481019282601f1061308f57805160ff19168380011785556130bc565b828001600101855582156130bc579182015b828111156130bc5782518255916020019190600101906130a1565b506130c89291506130ee565b5090565b6060604051908101604052806060815260200160608152602001606081525090565b612a0991905b808211156130c857600081556001016130f45600a165627a7a7230582098039d41bb29ff89aaaaf4980fc168300c7a27d2c466d21de0aaa08e682e1a800029",
  "source": "pragma solidity ^0.4.24;\r\n\r\nimport \"./InBlock_F.sol\";\r\nimport \"./usingOraclize.sol\";\r\n\r\ncontract InBlock is InBlock_F, usingOraclize{\r\n\r\n\r\n//******************************************************* FUNCTIONS TO BE CALLED TO INITIALIZE THE CONTRACT *******************************************************\r\n\r\n//Constructor\r\n\r\nconstructor() public{\r\n\towner=msg.sender;  \r\n\tstopped=true; \r\n\taskOracleCost=437440800000000000;\r\n\tOAR = OraclizeAddrResolverI(0x6f485C8BF6fc43eA212E93BBF8ce046C7f1cb475); //Testrpc\r\n\t//OAR = OraclizeAddrResolverI(0xc03A2615D5efaf5F49F60B7BB6583eaec212fdf1); //Ropsten\r\n\t//OAR = OraclizeAddrResolverI(0x1d3B2638a7cC9f2CB3D298A3DA7a90B67E5506ed);\t//mainnnet\r\n\tprice=100000000000000000000; //SECURITY UTILITY. EVERYONE HAS TO ASK FOR THE RIGHT PRICE FIRST. \r\n  }\r\n\r\n\r\n//To Set the Initial Block  \r\n function activateInBlock(uint8 _base_certificate_mask, uint price) onlyOwner() public {\r\n\tbase_certificate_mask=_base_certificate_mask;\r\n\tID_Index=0;\r\n\tdollarsPrice=price;\r\n\tstopped=false;\r\n}\r\n\t\r\n//******************************************************* ORACLE FUNCTIONS *******************************************************\r\n\r\nbytes32 queryID1;\r\nbytes32 queryID2;\r\nbytes32 queryID3;\r\nevent Log(string text);\r\n\r\nfunction getOracleCurrencyConversion() public payable{\r\n\t//require(msg.value==askPriceCost, \"Price Error\");\r\n\t queryID1=oraclize_query(\"URL\",\"json(https://min-api.cryptocompare.com/data/price?fsym=ETH&tsyms=USD).USD\");\r\n\t queryID2=oraclize_query(\"URL\", \"json(https://api.kraken.com/0/public/Ticker?pair=ETHUSD).result.XETHZUSD.c.0\");\r\n\t queryID3=oraclize_query(\"URL\", \"json(https://api.coinmarketcap.com/v1/ticker/ethereum/).0.price_usd\");\r\n\t }\r\n\r\nfunction __callback(bytes32 _myid, string _result) {\r\n     require (msg.sender == oraclize_cbAddress());\r\n             if (_myid==queryID1) {\r\n                           Log(_result);\r\n        certificatePrice1 = parseInt(_result, 2);\r\n              }\r\n              if(_myid==queryID2) {\r\n                           Log(_result);\r\n        certificatePrice2 = parseInt(_result, 2);\r\n\t\t             }\r\n\t\t\t if(_myid==queryID3) {\r\n                           Log(_result);\r\n        certificatePrice3 = parseInt(_result, 2);   \r\n             }\r\n}\r\n\r\nfunction getcertificateCost()public{\r\n\r\nif((certificatePrice1>certificatePrice2 && certificatePrice1>certificatePrice3) || (certificatePrice1<certificatePrice2 && certificatePrice1<certificatePrice3)){\r\n\tif((certificatePrice2>certificatePrice1 && certificatePrice2>certificatePrice3) || (certificatePrice2<certificatePrice1 && certificatePrice2<certificatePrice3)){\r\n\t\tprice=certificatePrice3;\r\n\t}else price=certificatePrice2;\r\n}else price=certificatePrice1;\r\n\r\nprice=(divide(dollarsPrice,price,5))*(10**13);\r\n}\r\n\r\n//******************************************************* KEY ROLLOVER FUNCTIONS *******************************************************\r\n\r\n\r\n//Function to permit the change of the owner (the ones who recive the funds) \t\r\nfunction transferInBlockControl(address new_owner)onlyOwner(){\r\n\towner=new_owner;\r\n\t}\r\n\r\n//Function to permit the transfer of the ownership of a specific block \r\nfunction transferCertificateControl(bytes4 ip,uint id, address new_owner) public {\r\n\t\t\r\n\t\t\r\n\t\trequire(msg.sender==certificates[ip][id].o_addr, \"You are not the owner of the block\");\r\n\t\tcertificates[ip][id].o_addr=new_owner;\r\n\r\n}\r\n\r\n\r\n//******************************************************* CONTRACT BALANCE FUNCTIONS *******************************************************\r\n\r\n\r\n//fallback function to permit everyone to give ether to the contract\r\nfunction pay () payable{}\r\n\r\n\r\n}",
  "sourcePath": "C:\\Users\\User\\Desktop\\InBlock_IPv4_Rpki\\InBlock_IPv4\\contracts\\InBlock.sol",
  "compiler": {
    "name": "solc",
    "version": "0.4.25+commit.59dbf8f1.Emscripten.clang"
  },
  "schemaVersion": "2.0.2",
  "updatedAt": "2019-05-29T10:19:53.075Z"
}