{
  "contractName": "InBlock_F",
  "abi": [
    {
      "constant": true,
      "inputs": [],
      "name": "ID_expired",
      "outputs": [
        {
          "name": "",
          "type": "int256"
        }
      ],
      "payable": false,
      "stateMutability": "view",
      "type": "function"
    },
    {
      "constant": false,
      "inputs": [
        {
          "name": "addr",
          "type": "address"
        }
      ],
      "name": "changeUserAccount",
      "outputs": [],
      "payable": false,
      "stateMutability": "nonpayable",
      "type": "function"
    },
    {
      "constant": false,
      "inputs": [],
      "name": "circuitBreaker",
      "outputs": [],
      "payable": false,
      "stateMutability": "nonpayable",
      "type": "function"
    },
    {
      "constant": false,
      "inputs": [
        {
          "name": "addr",
          "type": "address"
        }
      ],
      "name": "addSuperUserAccount",
      "outputs": [],
      "payable": false,
      "stateMutability": "nonpayable",
      "type": "function"
    },
    {
      "constant": true,
      "inputs": [],
      "name": "allocation_prefix_mask",
      "outputs": [
        {
          "name": "",
          "type": "uint8"
        }
      ],
      "payable": false,
      "stateMutability": "view",
      "type": "function"
    },
    {
      "constant": true,
      "inputs": [
        {
          "name": "ip_address",
          "type": "bytes16"
        },
        {
          "name": "_mask",
          "type": "uint8"
        }
      ],
      "name": "find",
      "outputs": [
        {
          "name": "",
          "type": "int256"
        }
      ],
      "payable": false,
      "stateMutability": "view",
      "type": "function"
    },
    {
      "constant": true,
      "inputs": [
        {
          "name": "id",
          "type": "int256"
        }
      ],
      "name": "is_expired_id",
      "outputs": [
        {
          "name": "",
          "type": "bool"
        }
      ],
      "payable": false,
      "stateMutability": "view",
      "type": "function"
    },
    {
      "constant": true,
      "inputs": [],
      "name": "max_allocable_blocks",
      "outputs": [
        {
          "name": "",
          "type": "uint256"
        }
      ],
      "payable": false,
      "stateMutability": "view",
      "type": "function"
    },
    {
      "constant": false,
      "inputs": [
        {
          "name": "addr",
          "type": "address"
        }
      ],
      "name": "deleteSuperUserAccount",
      "outputs": [],
      "payable": false,
      "stateMutability": "nonpayable",
      "type": "function"
    },
    {
      "constant": true,
      "inputs": [],
      "name": "ID_Index",
      "outputs": [
        {
          "name": "",
          "type": "int256"
        }
      ],
      "payable": false,
      "stateMutability": "view",
      "type": "function"
    },
    {
      "constant": false,
      "inputs": [],
      "name": "toggleCircuit",
      "outputs": [],
      "payable": false,
      "stateMutability": "nonpayable",
      "type": "function"
    },
    {
      "constant": true,
      "inputs": [],
      "name": "blockprice",
      "outputs": [
        {
          "name": "",
          "type": "uint256"
        }
      ],
      "payable": false,
      "stateMutability": "view",
      "type": "function"
    },
    {
      "constant": false,
      "inputs": [
        {
          "name": "addr",
          "type": "address"
        }
      ],
      "name": "addUserAccount",
      "outputs": [],
      "payable": false,
      "stateMutability": "nonpayable",
      "type": "function"
    },
    {
      "constant": true,
      "inputs": [],
      "name": "base_prefix_mask",
      "outputs": [
        {
          "name": "",
          "type": "uint8"
        }
      ],
      "payable": false,
      "stateMutability": "view",
      "type": "function"
    },
    {
      "constant": true,
      "inputs": [],
      "name": "dollars_price",
      "outputs": [
        {
          "name": "",
          "type": "uint256"
        }
      ],
      "payable": false,
      "stateMutability": "view",
      "type": "function"
    },
    {
      "constant": true,
      "inputs": [],
      "name": "initial_block",
      "outputs": [
        {
          "name": "",
          "type": "bytes16"
        }
      ],
      "payable": false,
      "stateMutability": "view",
      "type": "function"
    },
    {
      "constant": true,
      "inputs": [],
      "name": "stopped",
      "outputs": [
        {
          "name": "",
          "type": "bool"
        }
      ],
      "payable": false,
      "stateMutability": "view",
      "type": "function"
    },
    {
      "constant": true,
      "inputs": [],
      "name": "seed",
      "outputs": [
        {
          "name": "",
          "type": "uint256"
        }
      ],
      "payable": false,
      "stateMutability": "view",
      "type": "function"
    },
    {
      "constant": true,
      "inputs": [],
      "name": "owner",
      "outputs": [
        {
          "name": "",
          "type": "address"
        }
      ],
      "payable": false,
      "stateMutability": "view",
      "type": "function"
    },
    {
      "constant": true,
      "inputs": [
        {
          "name": "addr",
          "type": "address"
        }
      ],
      "name": "getUserPrivilege",
      "outputs": [
        {
          "name": "",
          "type": "int256"
        }
      ],
      "payable": false,
      "stateMutability": "view",
      "type": "function"
    },
    {
      "constant": true,
      "inputs": [],
      "name": "price",
      "outputs": [
        {
          "name": "",
          "type": "uint256"
        }
      ],
      "payable": false,
      "stateMutability": "view",
      "type": "function"
    },
    {
      "constant": true,
      "inputs": [],
      "name": "ID",
      "outputs": [
        {
          "name": "",
          "type": "int256"
        }
      ],
      "payable": false,
      "stateMutability": "view",
      "type": "function"
    },
    {
      "constant": false,
      "inputs": [
        {
          "name": "addr",
          "type": "address"
        }
      ],
      "name": "changeSuperUserAccount",
      "outputs": [],
      "payable": false,
      "stateMutability": "nonpayable",
      "type": "function"
    },
    {
      "constant": true,
      "inputs": [],
      "name": "max_del",
      "outputs": [
        {
          "name": "",
          "type": "uint8"
        }
      ],
      "payable": false,
      "stateMutability": "view",
      "type": "function"
    },
    {
      "constant": true,
      "inputs": [],
      "name": "askPriceCost",
      "outputs": [
        {
          "name": "",
          "type": "uint256"
        }
      ],
      "payable": false,
      "stateMutability": "view",
      "type": "function"
    },
    {
      "constant": false,
      "inputs": [
        {
          "name": "addr",
          "type": "address"
        }
      ],
      "name": "deleteUserAccount",
      "outputs": [],
      "payable": false,
      "stateMutability": "nonpayable",
      "type": "function"
    },
    {
      "constant": true,
      "inputs": [
        {
          "name": "addr",
          "type": "address"
        }
      ],
      "name": "getSuperUserPrivilege",
      "outputs": [
        {
          "name": "",
          "type": "int256"
        }
      ],
      "payable": false,
      "stateMutability": "view",
      "type": "function"
    },
    {
      "constant": true,
      "inputs": [
        {
          "name": "id",
          "type": "int256"
        }
      ],
      "name": "getItem",
      "outputs": [
        {
          "name": "ip",
          "type": "bytes16"
        },
        {
          "name": "o",
          "type": "address"
        },
        {
          "name": "mask",
          "type": "uint8"
        },
        {
          "name": "parent",
          "type": "int256"
        },
        {
          "name": "left",
          "type": "int256"
        },
        {
          "name": "right",
          "type": "int256"
        },
        {
          "name": "_date",
          "type": "uint256"
        },
        {
          "name": "a",
          "type": "bytes"
        },
        {
          "name": "b",
          "type": "bytes"
        },
        {
          "name": "c",
          "type": "bytes"
        },
        {
          "name": "d",
          "type": "bytes"
        }
      ],
      "payable": false,
      "stateMutability": "view",
      "type": "function"
    },
    {
      "constant": true,
      "inputs": [
        {
          "name": "a",
          "type": "address"
        },
        {
          "name": "start",
          "type": "int256"
        },
        {
          "name": "stop",
          "type": "int256"
        }
      ],
      "name": "getIDsBlocks_address",
      "outputs": [
        {
          "name": "result",
          "type": "uint256[]"
        }
      ],
      "payable": false,
      "stateMutability": "view",
      "type": "function"
    },
    {
      "constant": true,
      "inputs": [
        {
          "name": "start",
          "type": "int256"
        },
        {
          "name": "stop",
          "type": "int256"
        }
      ],
      "name": "getIDsBlocks",
      "outputs": [
        {
          "name": "result",
          "type": "uint256[]"
        }
      ],
      "payable": false,
      "stateMutability": "view",
      "type": "function"
    },
    {
      "constant": false,
      "inputs": [],
      "name": "sparse_allocation",
      "outputs": [
        {
          "name": "",
          "type": "bool"
        }
      ],
      "payable": true,
      "stateMutability": "payable",
      "type": "function"
    },
    {
      "constant": false,
      "inputs": [
        {
          "name": "ip",
          "type": "bytes16"
        }
      ],
      "name": "sequent_allocation",
      "outputs": [
        {
          "name": "",
          "type": "bool"
        }
      ],
      "payable": true,
      "stateMutability": "payable",
      "type": "function"
    },
    {
      "constant": false,
      "inputs": [
        {
          "name": "ip",
          "type": "bytes16"
        }
      ],
      "name": "Renew_Block",
      "outputs": [
        {
          "name": "",
          "type": "bool"
        },
        {
          "name": "",
          "type": "uint256"
        }
      ],
      "payable": true,
      "stateMutability": "payable",
      "type": "function"
    },
    {
      "constant": true,
      "inputs": [
        {
          "name": "start",
          "type": "int256"
        },
        {
          "name": "stop",
          "type": "int256"
        }
      ],
      "name": "getIDsBlocks_expired",
      "outputs": [
        {
          "name": "result",
          "type": "uint256[]"
        }
      ],
      "payable": false,
      "stateMutability": "view",
      "type": "function"
    },
    {
      "constant": false,
      "inputs": [
        {
          "name": "id",
          "type": "int256"
        }
      ],
      "name": "recover_expired_block",
      "outputs": [],
      "payable": false,
      "stateMutability": "nonpayable",
      "type": "function"
    },
    {
      "constant": true,
      "inputs": [],
      "name": "getRecovered",
      "outputs": [
        {
          "name": "result",
          "type": "uint256[]"
        }
      ],
      "payable": false,
      "stateMutability": "view",
      "type": "function"
    },
    {
      "constant": false,
      "inputs": [
        {
          "name": "ip",
          "type": "bytes16"
        },
        {
          "name": "uri",
          "type": "bytes"
        },
        {
          "name": "hashFunction",
          "type": "bytes"
        },
        {
          "name": "hash",
          "type": "bytes"
        }
      ],
      "name": "setInfoBlock",
      "outputs": [],
      "payable": false,
      "stateMutability": "nonpayable",
      "type": "function"
    },
    {
      "constant": true,
      "inputs": [
        {
          "name": "ip",
          "type": "bytes16"
        }
      ],
      "name": "getBlockASes",
      "outputs": [
        {
          "name": "",
          "type": "bytes"
        }
      ],
      "payable": false,
      "stateMutability": "view",
      "type": "function"
    },
    {
      "constant": false,
      "inputs": [
        {
          "name": "ip",
          "type": "bytes16"
        },
        {
          "name": "ASes",
          "type": "bytes"
        }
      ],
      "name": "setRoaBlock",
      "outputs": [],
      "payable": false,
      "stateMutability": "nonpayable",
      "type": "function"
    }
  ],
  "bytecode": "0x608060405234801561001057600080fd5b50612b37806100206000396000f3006080604052600436106101e25763ffffffff7c010000000000000000000000000000000000000000000000000000000060003504166306cd8b7581146101e75780630731137c1461020e57806316efd94114610231578063198a20cd146102465780631a7f57ad146102675780631b25b81d146102925780631bc20050146102ba5780632059b40d146102e657806327dd37d3146102fb578063310c3fd81461031357806337c454e9146103345780633ae5e3071461039957806343f90ac1146103ae57806349621851146103d55780634c219e1a146103ea57806358416ae4146104055780635881db901461049c5780635a0e0c71146104b157806364a6a2871461051957806368a80e681461053a5780636e53d0651461056a578063706c3eae1461079b578063715edd5b146107b0578063716e22e6146107c5578063743d9ff8146107da57806375f12b211461080c5780637d94792a146108215780638da5cb5b14610836578063941f1bbd14610867578063a035b1fe14610888578063b3cea2171461089d578063bb28b17c146108b2578063c5ba2bd4146108d3578063d0b6d75e146108e8578063d69fc48b146108fd578063dcba957f14610918578063ddc41c5f14610939578063e18e9cdc1461095a578063eec9543914610962575b600080fd5b3480156101f357600080fd5b506101fc610a46565b60408051918252519081900360200190f35b34801561021a57600080fd5b5061022f600160a060020a0360043516610a4c565b005b34801561023d57600080fd5b5061022f610acd565b34801561025257600080fd5b5061022f600160a060020a0360043516610af6565b34801561027357600080fd5b5061027c610b36565b6040805160ff9092168252519081900360200190f35b34801561029e57600080fd5b506101fc6001608060020a03196004351660ff60243516610b46565b3480156102c657600080fd5b506102d2600435610c53565b604080519115158252519081900360200190f35b3480156102f257600080fd5b506101fc610ca0565b34801561030757600080fd5b5061022f600435610ca6565b34801561031f57600080fd5b5061022f600160a060020a0360043516610ddc565b34801561034057600080fd5b50610349610e37565b60408051602080825283518183015283519192839290830191858101910280838360005b8381101561038557818101518382015260200161036d565b505050509050019250505060405180910390f35b3480156103a557600080fd5b506101fc610ebc565b3480156103ba57600080fd5b50610349600160a060020a0360043516602435604435610ec2565b3480156103e157600080fd5b5061022f610fa9565b3480156103f657600080fd5b50610349600435602435610fe4565b34801561041157600080fd5b506104276001608060020a031960043516611087565b6040805160208082528351818301528351919283929083019185019080838360005b83811015610461578181015183820152602001610449565b50505050905090810190601f16801561048e5780820380516001836020036101000a031916815260200191505b509250505060405180910390f35b3480156104a857600080fd5b506101fc61116c565b3480156104bd57600080fd5b5060408051602060046024803582810135601f810185900485028601850190965285855261022f9583356001608060020a0319169536956044949193909101919081908401838280828437509497506111729650505050505050565b34801561052557600080fd5b5061022f600160a060020a0360043516611236565b61054f6001608060020a0319600435166112ae565b60408051921515835260208301919091528051918290030190f35b34801561057657600080fd5b506105826004356114d3565b604051808c6fffffffffffffffffffffffffffffffff19166fffffffffffffffffffffffffffffffff191681526020018b600160a060020a0316600160a060020a031681526020018a60ff1660ff16815260200189815260200188815260200187815260200186815260200180602001806020018060200180602001858103855289818151815260200191508051906020019080838360005b8381101561063357818101518382015260200161061b565b50505050905090810190601f1680156106605780820380516001836020036101000a031916815260200191505b5085810384528851815288516020918201918a019080838360005b8381101561069357818101518382015260200161067b565b50505050905090810190601f1680156106c05780820380516001836020036101000a031916815260200191505b50858103835287518152875160209182019189019080838360005b838110156106f35781810151838201526020016106db565b50505050905090810190601f1680156107205780820380516001836020036101000a031916815260200191505b50858103825286518152865160209182019188019080838360005b8381101561075357818101518382015260200161073b565b50505050905090810190601f1680156107805780820380516001836020036101000a031916815260200191505b509f5050505050505050505050505050505060405180910390f35b3480156107a757600080fd5b5061027c61179f565b3480156107bc57600080fd5b506101fc6117af565b6102d26001608060020a0319600435166117b5565b3480156107e657600080fd5b506107ef611bef565b604080516001608060020a03199092168252519081900360200190f35b34801561081857600080fd5b506102d2611bfb565b34801561082d57600080fd5b506101fc611c0b565b34801561084257600080fd5b5061084b611c11565b60408051600160a060020a039092168252519081900360200190f35b34801561087357600080fd5b506101fc600160a060020a0360043516611c20565b34801561089457600080fd5b506101fc611c3b565b3480156108a957600080fd5b506101fc611c41565b3480156108be57600080fd5b5061022f600160a060020a0360043516611c47565b3480156108df57600080fd5b5061027c611cc8565b3480156108f457600080fd5b506101fc611cea565b34801561090957600080fd5b50610349600435602435611cf0565b34801561092457600080fd5b5061022f600160a060020a0360043516611dcb565b34801561094557600080fd5b506101fc600160a060020a0360043516611e42565b6102d2611e5d565b34801561096e57600080fd5b5060408051602060046024803582810135601f810185900485028601850190965285855261022f9583356001608060020a03191695369560449491939091019190819084018382808284375050604080516020601f89358b018035918201839004830284018301909452808352979a99988101979196509182019450925082915084018382808284375050604080516020601f89358b018035918201839004830284018301909452808352979a9998810197919650918201945092508291508401838280828437509497506121ad9650505050505050565b60075481565b33600090815260208190526040902054600314610a6857600080fd5b33600081815260208190526040808220828155600160a060020a03851683529082206003905591905260019081015460ff1615151415610aca5760006020819052600160a060020a0382168152604090206001908101805460ff191690911790555b50565b600a54600160a060020a03163314610ae457600080fd5b600a805460a060020a60ff0219169055565b600a54600160a060020a03163314610b0d57600080fd5b600160a060020a031660009081526001602081905260409091206002815501805460ff19169055565b600a5460b060020a900460ff1681565b60008080805b600954600a54600160ff608060020a909304831660b060020a9092048316919091030116821215610c36576000838152600f60205260409020546001608060020a0319878116608060020a90920216148015610bc557506000838152600f602052604090206001015460ff86811660a060020a90920416145b15610bd65760019050829350610c4a565b610bf78683600960109054906101000a900460ff1601600101608003612299565b1515610c16576000928352600f60205260409092206004015491610c2b565b6000928352600f602052604090922060050154915b816001019150610b4c565b8015610c4457829350610c4a565b60001993505b50505092915050565b6000818152600f60205260408120600201546301e13380014210801590610c8a57506000828152600f602052604090206002015415155b15610c9757506001610c9b565b5060005b919050565b600c5481565b600a54600160a060020a03163314610cbd57600080fd5b610cc681610c53565b1515610cd157600080fd5b6000818152600f6020818152604080842060018101805474ffffffffffffffffffffffffffffffffffffffffff191690556002810185905581518084019283905285815294869052929091529151610d2f9260069092019190612a73565b506040805160208181018084526000808452858152600f9092529290209051610d5e9260079092019190612a73565b506040805160208181018084526000808452858152600f9092529290209051610d8d9260089092019190612a73565b506040805160208181018084526000808452858152600f9092529290209051610dbc9260099092019190612a73565b50600780546000908152600e602052604090209190915580546001019055565b600a54600160a060020a03163314610df357600080fd5b600160a060020a0381166000908152600160208190526040909120015460ff1615610e1d57600080fd5b600160a060020a0316600090815260016020526040812055565b60606000806000600754925082604051908082528060200260200182016040528015610e6d578160200160208202803883390190505b50935060009150600090505b600754811215610eb6576000818152600e60205260409020548451859084908110610ea057fe5b6020908102909101015260019182019101610e79565b50505090565b60065481565b60606000806000610ed48787876122c2565b925082604051908082528060200260200182016040528015610f00578160200160208202803883390190505b509350600091508590505b84600101811215610f9f576000818152600d60209081526040808320548352600f909152902060010154600160a060020a038881169116148015610f6457506000818152600d6020526040902054610f6290610c53565b155b15610f97576000818152600d60205260409020548451859084908110610f8657fe5b602090810290910101526001909101905b600101610f0b565b5050509392505050565b600a54600160a060020a03163314610fc057600080fd5b600a805460a060020a60ff0219811660a060020a9182900460ff1615909102179055565b60606000806000610ff5868661233d565b925082604051908082528060200260200182016040528015611021578160200160208202803883390190505b509350600091508590505b84811215610c4a576000818152600d602052604090205461104c90610c53565b1561107f576000818152600d6020526040902054845185908490811061106e57fe5b602090810290910101526001909101905b60010161102c565b606060006110a483600a60169054906101000a900460ff16610b46565b90506000198114156110b557600080fd5b6110be81610c53565b156110c857600080fd5b6000818152600f602090815260409182902060090180548351601f60026000196101006001861615020190931692909204918201849004840281018401909452808452909183018282801561115e5780601f106111335761010080835404028352916020019161115e565b820191906000526020600020905b81548152906001019060200180831161114157829003601f168201915b505050505091505b50919050565b60085481565b336000818152600160205260408120549091906002148061119d5750600a54600160a060020a031633145b15156111a857600080fd5b600a546111c090859060b060020a900460ff16610b46565b91506000198214156111d157600080fd5b6111da82610c53565b156111e457600080fd5b6000828152600f6020526040902060010154600160a060020a0316331461120a57600080fd5b6000828152600f60209081526040909120845161122f92600990920191860190612a73565b5050505050565b336000818152600160205260409020546002148061125e5750600a54600160a060020a031633145b151561126957600080fd5b3360009081526001602052604090205460021461128557600080fd5b50600160a060020a0316600090815260208190526040902060038155600101805460ff19169055565b600080600080600a60149054906101000a900460ff16156112ce57600080fd5b33600081815260208190526040902054600314806113045750600160a060020a0381166000908152600160205260409020546002145b806113195750600a54600160a060020a031633145b151561132457600080fd5b600854341461137d576040805160e560020a62461bcd02815260206004820152600c60248201527f5072696365204572726f722e0000000000000000000000000000000000000000604482015290519081900360640190fd5b600a5461139590879060b060020a900460ff16610b46565b92506000198314156113a657600080fd5b6113af83610c53565b156113b957600080fd5b6000838152600f6020526040902060010154600160a060020a03163314611450576040805160e560020a62461bcd02815260206004820152602260248201527f596f7520617265206e6f7420746865206f776e6572206f662074686520626c6f60448201527f636b000000000000000000000000000000000000000000000000000000000000606482015290519081900360840190fd5b6000838152600f6020526040808220600201805442908190039081016301e13380908101909255600a54925191019450600160a060020a03909116913480156108fc02929091818181858888f193505050501580156114b3573d6000803e3d6000fd5b5050506000908152600f6020526040902060020154600194909350915050565b6000818152600f60209081526040918290206003810154600482015460058301548354600180860154600280880154600690980180548b516101009582161595909502600019011691909104601f81018a90048a0284018a01909a52898352608060020a90930298600160a060020a0382169860a060020a90920460ff169793606093849384938493918301828280156115ae5780601f10611583576101008083540402835291602001916115ae565b820191906000526020600020905b81548152906001019060200180831161159157829003601f168201915b50505060008f8152600f60209081526040918290206008018054835160026001831615610100026000190190921691909104601f8101849004840282018401909452838152959950935090915083018282801561164c5780601f106116215761010080835404028352916020019161164c565b820191906000526020600020905b81548152906001019060200180831161162f57829003601f168201915b50505060008f8152600f60209081526040918290206007018054835160026001831615610100026000190190921691909104601f810184900484028201840190945283815295985093509091508301828280156116ea5780601f106116bf576101008083540402835291602001916116ea565b820191906000526020600020905b8154815290600101906020018083116116cd57829003601f168201915b50505060008f8152600f60209081526040918290206009018054835160026001831615610100026000190190921691909104601f810184900484028201840190945283815295975093509091508301828280156117885780601f1061175d57610100808354040283529160200191611788565b820191906000526020600020905b81548152906001019060200180831161176b57829003601f168201915b509394505050505091939597999b90929496989a50565b600954608060020a900460ff1681565b60045481565b600080600080600a60149054906101000a900460ff16156117d557600080fd5b336000818152602081905260409020546003148061180b5750600160a060020a0381166000908152600160205260409020546002145b806118205750600a54600160a060020a031633145b151561182b57600080fd5b6006546110001361183b57600080fd5b346672a57c275dc8006008540311158061186057506008546672a57c275dc800013411155b15156118b6576040805160e560020a62461bcd02815260206004820152600b60248201527f5072696365206572726f72000000000000000000000000000000000000000000604482015290519081900360640190fd5b600a546118ce90879060b060020a900460ff16610b46565b935060001984141561192a576040805160e560020a62461bcd02815260206004820152601760248201527f54686520626c6f636b20646f65736e2774206578697374000000000000000000604482015290519081900360640190fd5b61193384610c53565b1561193d57600080fd5b6000848152600f6020526040902060010154600160a060020a031633146119ae576040805160e560020a62461bcd02815260206004820152601660248201527f596f7520617265206e6f7420417574686f72697a656400000000000000000000604482015290519081900360640190fd5b600a546119c990879060b060020a900460ff16608003612299565b15156119f157600a546119ea90879060b060020a900460ff1660800361237e565b9550611ace565b600a54611a0c90879060b060020a900460ff1660800361239a565b9550600192505b600954600a5460ff608060020a909204821660b060020a90910482160381169084161015611ace57611a598684600a60169054906101000a900460ff1603608003612299565b15611a8957611a7c8684600a60169054906101000a900460ff160360800361239a565b9550600190920191611ac9565b611aa78684600a60169054906101000a900460ff160360800361237e565b600954600a5491975060ff608060020a909104811660b060020a909204160392505b611a13565b600a54611ae690879060b060020a900460ff16610b46565b91508160001914158015611afe5750611afe84610c53565b15611bc057611b0d86836123c1565b3360009081526020819052604090205460031415611b45573360009081526020819052604090206001908101805460ff191690911790555b3360009081526001602052604090205460021415611b7d573360009081526001602081905260409091208101805460ff191690911790555b600a54604051600160a060020a03909116903480156108fc02916000818181858888f19350505050158015611bb6573d6000803e3d6000fd5b5060019450611be6565b6000198214611bce57600080fd5b600a54611b0d90879060b060020a900460ff166124ed565b50505050919050565b600954608060020a0281565b600a5460a060020a900460ff1681565b600b5481565b600a54600160a060020a031681565b600160a060020a031660009081526020819052604090205490565b60035481565b60055481565b33600090815260016020526040902054600214611c6357600080fd5b336000818152600160208190526040808320838155600160a060020a038616845290832060029055929091529081015460ff1615151415610aca5760016020819052600160a060020a0382166000908152604090208101805460ff1916909117905550565b600a547501000000000000000000000000000000000000000000900460ff1681565b60025481565b60606000806000611d018686612912565b925082604051908082528060200260200182016040528015611d2d578160200160208202803883390190505b509350600091508590505b84600101811215610c4a576000818152600d60209081526040808320548352600f909152902054611d6e90608060020a02612983565b158015611d9057506000818152600d6020526040902054611d8e90610c53565b155b15611dc3576000818152600d60205260409020548451859084908110611db257fe5b602090810290910101526001909101905b600101611d38565b3360008181526001602052604090205460021480611df35750600a54600160a060020a031633145b1515611dfe57600080fd5b600160a060020a03821660009081526020819052604090206001015460ff1615611e2757600080fd5b50600160a060020a0316600090815260208190526040812055565b600160a060020a031660009081526001602052604090205490565b3360008181526020819052604081205490918291829182918291829160031480611e9f5750600160a060020a0381166000908152600160205260409020546002145b80611eb45750600a54600160a060020a031633145b1515611ebf57600080fd5b346672a57c275dc80060085403111580611ee457506008546672a57c275dc800013411155b1515611f3a576040805160e560020a62461bcd02815260206004820152600b60248201527f5072696365206572726f72000000000000000000000000000000000000000000604482015290519081900360640190fd5b600095506006546110001415612016576007541515611f5857600080fd5b600754600019016000908152600e6020908152604080832054808452600f90925290912054909550608060020a029350611f9284866123c1565b3360009081526020819052604090205460031415611fca573360009081526020819052604090206001908101805460ff191690911790555b3360009081526001602052604090205460021415612002573360009081526001602081905260409091208101805460ff191690911790555b61200a612a26565b600195508596506121a4565b600954600b54608060020a9091029350600116156120505761204d83600960109054906101000a900460ff1660010160800361237e565b92505b600191505b600954600a5460ff608060020a909204821660b060020a909104821603811690831610156120d15760028260ff1660020a600b5481151561209257fe5b0481151561209c57fe5b06156120c6576120c38383600960109054906101000a900460ff166001010160800361237e565b92505b600190910190612055565b600a546120e990849060b060020a900460ff166124ed565b3360009081526020819052604090205460031415612121573360009081526020819052604090206001908101805460ff191690911790555b3360009081526001602052604090205460021415612159573360009081526001602081905260409091208101805460ff191690911790555b600b80546001019055600a54604051600160a060020a03909116903480156108fc02916000818181858888f1935050505015801561219b573d6000803e3d6000fd5b50600195508596505b50505050505090565b33600081815260016020526040812054909190600214806121d85750600a54600160a060020a031633145b15156121e357600080fd5b600a546121fb90879060b060020a900460ff16610b46565b915060001982141561220c57600080fd5b61221582610c53565b1561221f57600080fd5b6000828152600f60209081526040909120865161224492600690920191880190612a73565b506000828152600f60209081526040909120855161226a92600790920191870190612a73565b506000828152600f60209081526040909120845161229092600890920191860190612a73565b50505050505050565b60006122ac608060020a60ff8416612a43565b929092166001608060020a031916151592915050565b600080835b83600101811215612334576000818152600d60209081526040808320548352600f909152902060010154600160a060020a03878116911614801561232057506000818152600d602052604090205461231e90610c53565b155b1561232c578160010191505b6001016122c7565b50949350505050565b600080835b83811215612376576000818152600d602052604090205461236290610c53565b1561236e578160010191505b600101612342565b509392505050565b6000612391608060020a60ff8416612a43565b90921792915050565b6000806123b66123b1608060020a60ff8616612a43565b612a54565b939093169392505050565b6000818152600f6020818152604080842080546001608060020a031916608060020a88041781556001810180543373ffffffffffffffffffffffffffffffffffffffff1990911617808255600a5460a060020a60ff021990911660b060020a90910460ff1660a060020a021790554260028201558151808401928390528581529486905292909152915161245b9260099092019190612a73565b506040805160208181018084526000808452858152600f909252929020905161248a9260069092019190612a73565b506040805160208181018084526000808452858152600f90925292902090516124b99260079092019190612a73565b506040805160208181018084526000808452858152600f90925292902090516124e89260089092019190612a73565b505050565b60008080805b600954600a5460001960ff608060020a909304831660b060020a909204831691909103011682121561261f576125408683600960109054906101000a900460ff1601600101608003612299565b15156125b0576000838152600f60205260409020600401549293508392151561259657600580546000868152600f60205260408082206004018390558282529020600301869055815460010190915592506125ab565b6000848152600f602052604090206004015492505b612614565b6000838152600f6020526040902060050154929350839215156125ff57600580546000868152600f60205260408082208401839055828252902060030186905581546001019091559250612614565b6000848152600f602052604090206005015492505b8160010191506124f3565b600a5461263a90879060b060020a900460ff16608003612299565b15156127b157506006546000908152600d60209081526040808320858452600f909252909120600401549293508392151561271957600580546000868152600f60209081526040808320600401849055838352808320600381018a90558554600190810190965580546001608060020a031916608060020a8d0417815585810180543373ffffffffffffffffffffffffffffffffffffffff199091161760a060020a60ff02191660a060020a60ff8e1602179055426002820155600d9081018690556006805485529252909120829055805490920190915592506127ac565b6000848152600f602090815260408083206004015480845281842080546001608060020a031916608060020a8c04178155600180820180543373ffffffffffffffffffffffffffffffffffffffff199091161760a060020a60ff02191660a060020a60ff8e1602179055426002830155600d91820181905560068054875291909452919093208390558054909101905592505b61290a565b6000838152600f60205260409020600501549293508392151561287757600580546000868152600f602090815260408083208501849055838352808320600381018a90558554600190810190965580546001608060020a031916608060020a8d0417815585810180543373ffffffffffffffffffffffffffffffffffffffff199091161760a060020a60ff02191660a060020a60ff8e1602179055426002820155600d90810186905560068054855292529091208290558054909201909155925061290a565b6000848152600f602090815260408083206005015480845281842080546001608060020a031916608060020a8c04178155600180820180543373ffffffffffffffffffffffffffffffffffffffff199091161760a060020a60ff02191660a060020a60ff8e1602179055426002830155600d91820181905560068054875291909452919093208390558054909101905592505b505050505050565b600080835b83600101811215612376576000818152600d60209081526040808320548352600f90915290205461294d90608060020a02612983565b15801561296f57506000818152600d602052604090205461296d90610c53565b155b1561297b578160010191505b600101612917565b6000805b6010811015612a1d5782816010811061299c57fe5b1a7f0100000000000000000000000000000000000000000000000000000000000000027effffffffffffffffffffffffffffffffffffffffffffffffffffffffffffff191660007f010000000000000000000000000000000000000000000000000000000000000002141515612a155760009150611166565b600101612987565b50600192915050565b600780546000908152600e60205260408120558054600019019055565b60020a608060020a91829004020290565b6000612a5e612a66565b909118919050565b6001608060020a03195b90565b828054600181600116156101000203166002900490600052602060002090601f016020900481019282601f10612ab457805160ff1916838001178555612ae1565b82800160010185558215612ae1579182015b82811115612ae1578251825591602001919060010190612ac6565b50612aed929150612af1565b5090565b612a7091905b80821115612aed5760008155600101612af75600a165627a7a72305820e5f4730c8ea5224a78bea2ae14e613835fba3895cb1f46d50209d1cfa8ca58e50029",
  "source": "pragma solidity ^0.4.24;\r\n\r\nimport \"./InBlock_Data.sol\";\r\n\r\ncontract InBlock_F is InBlock_Data{\r\n\r\n//*************************************************** GETTER BLOCK FUNCTIONS ****************************************************************************\r\n\r\nfunction getItem(int id) public view returns (bytes16 ip, address o, uint8 mask, int parent, int left, int right,uint _date, bytes a, bytes b, bytes c, bytes d){\r\n\t\t\r\n\t\tparent = blocks[id].parent;\r\n        left = blocks[id].left;\r\n        right = blocks[id].right;\r\n        ip = blocks[id].ip_address;\r\n        o = blocks[id].o_addr;\r\n\t\tmask= blocks[id].mask;\r\n\t\t_date= blocks[id].date;\r\n\t\ta=blocks[id].info.uri;\r\n\t\tb=blocks[id].info.hash;\r\n\t\tc=blocks[id].info.hashFunction;\r\n\t\td=blocks[id].Roa;\r\n\t\treturn(ip,o,mask,parent,left,right,_date,a,b,c,d);\r\n\r\n}\r\n\r\n\t\r\nfunction countBlock_address(address a, int start, int stop)view internal returns(uint){\r\nuint count=0;\r\nfor(int i=start; i<stop+1; i++){\r\n\t\tif(blocks[array_index[i].ind].o_addr==a && !is_expired_id(array_index[i].ind)){\r\n\t\tcount=count+1;\r\n\t\t}\r\n\t\t}\r\n\treturn count;\r\n\r\n}\r\n\r\nfunction getIDsBlocks_address(address a,int start, int stop)view public returns(uint[]result){\r\n\r\n\tuint count=countBlock_address(a,start,stop);\r\n\tresult = new uint[] (count);\r\n\tuint counter=0;\r\n\t\r\n\tfor(int i=start;i<stop+1;i++){\r\n\t\tif(blocks[array_index[i].ind].o_addr==a && !is_expired_id(array_index[i].ind)){\r\n\t\tresult[counter]=uint(array_index[i].ind);\r\n\t\tcounter=counter+1;\r\n\t\t}\r\n\t}\r\n\treturn result; \r\n\r\n}\r\n\r\n\r\nfunction countBlock(int start, int stop)view internal returns(uint){\r\nuint count=0;\r\nfor(int i=start; i<stop+1; i++){\r\n\t\tif(!PrefCmpZ(blocks[array_index[i].ind].ip_address) && !is_expired_id(array_index[i].ind)){\r\n\t\tcount=count+1;\r\n\t\t}\r\n\t\t}\r\n\treturn count;\r\n\r\n}\r\n\r\nfunction getIDsBlocks(int start, int stop)view public returns(uint[]result){\r\n\r\n\tuint count=countBlock(start,stop);\r\n\tresult = new uint[] (count);\r\n\tuint counter=0;\r\n\t\r\n\tfor(int i=start;i<stop+1;i++){\r\n\t\tif(!PrefCmpZ(blocks[array_index[i].ind].ip_address) && !is_expired_id(array_index[i].ind)){\r\n\t\tresult[counter]=uint(array_index[i].ind);\r\n\t\tcounter=counter+1;\r\n\t\t}\r\n\t}\r\n\treturn result; \r\n\r\n}\r\n\r\n//******************************************************* FIXED SIZE BLOCK REQUEST FUNCTIONS *******************************************************\r\n\r\n\r\n//sparse allocation for /32\t NB there is a fixed limit of /32 available blocks.\r\nfunction sparse_allocation() onlyUsersOrSuper(msg.sender)payable public returns(bool){\r\n\t\t\r\n\trequire((blockprice - 32270100000000000)<=msg.value|| msg.value<=(blockprice + 32270100000000000) , \"Price error\");\r\n\t\r\n\tbool ok=false;\r\n\twhile(!ok){\r\n\t\t\r\n\t\tif(ID_Index==4096){\r\n\t\t\trequire(ID_expired!=0);\r\n\t\t\tint idapp=expired_array_index[ID_expired-1].ind;\r\n\t\t\tbytes16 app2=blocks[idapp].ip_address;\r\n\t\t\tsetBlock_expired(app2,idapp);\r\n\t\t\tif(Users[msg.sender].privilege==3){\r\n\t\t\t\tUsers[msg.sender].holding=true;\r\n\t\t\t}\r\n\t\t\tif(SuperUsers[msg.sender].privilege==2){\r\n\t\t\t\tSuperUsers[msg.sender].holding=true;\r\n\t\t\t}\r\n\t\t\tdelete_expired();\r\n\t\t\tok=true;\r\n\t\t\treturn ok;\r\n\t\t}else{\r\n\t\t\t\tbytes16 app = initial_block;\r\n\t\t\t\tif(seed%2 !=0) app=setBit(app,128-(base_prefix_mask+1));  \r\n\t\t\t\tfor(uint8 j=1; j<(allocation_prefix_mask-base_prefix_mask); j++){\r\n\t\t\t\t\tif((seed/(2**(uint(j))))%2!=0) app=setBit(app,128- (base_prefix_mask+1+j));\r\n\t\t\t\t}\r\n\t\r\n\t\t\tsetBlock(app,allocation_prefix_mask);\r\n\t\t\tif(Users[msg.sender].privilege==3){\r\n\t\t\t\tUsers[msg.sender].holding=true;\r\n\t\t\t}\r\n\t\t\tif(SuperUsers[msg.sender].privilege==2){\r\n\t\t\t\tSuperUsers[msg.sender].holding=true;\r\n\t\t\t}\r\n\t\t\tseed=seed+1;\r\n\t\t\towner.transfer(msg.value);\r\n\t\t\tok=true;\r\n\t\t\treturn ok;\r\n\t\t}\r\n\t}\r\n\trevert();\r\n}\r\n\r\n\r\n \r\n//function to perform a sequent allocation if an user already has a block and want the contiguos one \r\nfunction sequent_allocation(bytes16 ip) notStopped() onlyUsersOrSuper(msg.sender) payable public returns (bool){\r\n\t\r\n\trequire(ID_Index<4096);\r\n\trequire((blockprice - 32270100000000000)<=msg.value || msg.value<=(blockprice + 32270100000000000) , \"Price error\");\r\n\tint id= find(ip,allocation_prefix_mask);\r\n\trequire(id!=-1,\"The block doesn't exist\");\r\n\trequire(!is_expired_id(id));\r\n\trequire(msg.sender==blocks[id].o_addr, \"You are not Authorized\");\r\n\t\t\r\n\t\tif(!getBit(ip,128-allocation_prefix_mask)){\r\n\t\t\t\tip=setBit(ip,128-allocation_prefix_mask);\r\n\t\t}else{\t\r\n\t\t\t\tip=clearBit(ip,128-allocation_prefix_mask);\r\n\t\t\t\tuint8 i=1;\r\n\t\t\t\twhile(i<allocation_prefix_mask-base_prefix_mask){\r\n\t\t\t\t\t\r\n\t\t\t\t\t\tif(getBit(ip,128-(allocation_prefix_mask-i))){\r\n\t\t\t\t\t\t\t\tip=clearBit(ip,128-(allocation_prefix_mask-i));\r\n\t\t\t\t\t\t\t\ti++;\r\n\t\t\t\t\t\t}else{\r\n\t\t\t\t\t\t\t\tip=setBit(ip,128-(allocation_prefix_mask-i));\r\n\t\t\t\t\t\t\t\ti=allocation_prefix_mask-base_prefix_mask;\r\n\t\t\t\t\t\t\t}\r\n\t\t\t\t\t\t}\r\n\t\t\t  }\r\n\t\t\t  \r\n\t\t\r\n\t\tint id1= find(ip,allocation_prefix_mask);\r\n\t\tif(id1!=-1 && is_expired_id(id)){\r\n\t\t\t\tsetBlock_expired(ip,id1);\r\n\t\t\t\tif(Users[msg.sender].privilege==3){\r\n\t\t\t\tUsers[msg.sender].holding=true;\r\n\t\t\t}\r\n\t\t\tif(SuperUsers[msg.sender].privilege==2){\r\n\t\t\t\tSuperUsers[msg.sender].holding=true;\r\n\t\t\t}\r\n\t\t\t\towner.transfer(msg.value);\r\n\t\t\t\treturn true;\r\n\t\t}else{\r\n\t\t\t\trequire(id1==-1);\r\n\t\t\t\tsetBlock(ip,allocation_prefix_mask);\r\n\t\t\t\tif(Users[msg.sender].privilege==3){\r\n\t\t\t\tUsers[msg.sender].holding=true;\r\n\t\t\t}\r\n\t\t\tif(SuperUsers[msg.sender].privilege==2){\r\n\t\t\t\tSuperUsers[msg.sender].holding=true;\r\n\t\t\t}\r\n\t\t\t\towner.transfer(msg.value);\r\n\t\t\t\treturn true;\r\n\t\t\t}\r\n\t\t\r\n\t\t\trevert();\r\n}\r\n\r\n//******************************************************* BLOCK RENEWAL FUNCTION *******************************************************\r\n\r\n\r\nfunction Renew_Block(bytes16 ip) notStopped() onlyUsersOrSuper(msg.sender) payable public returns (bool,uint){\r\n\t\r\n\trequire(msg.value==blockprice, \"Price Error.\");\r\n\t\r\n\tint id=find(ip,allocation_prefix_mask);\r\n\trequire(id!=-1);\r\n\trequire(!is_expired_id(id));\r\n\trequire(msg.sender==blocks[id].o_addr, \"You are not the owner of the block\");\r\n\tuint app1= (blocks[id].date+365* 1 days)-now;\r\n\tblocks[id].date=now+app1;\t\r\n\towner.transfer(msg.value);\r\n\treturn(true,blocks[id].date);\r\n}\r\n\r\n\r\n//******************************************************* BLOCK RECOVER FUNCTION *******************************************************\r\n\r\nfunction countBlock_expired(int start, int stop)view internal returns(uint){\r\nuint count=0;\r\nfor(int i=start; i<stop; i++){\r\n\t\tif(is_expired_id(array_index[i].ind)){\r\n\t\tcount=count+1;\r\n\t\t}\r\n\t\t}\r\n\treturn count;\r\n\r\n}\r\n\r\nfunction getIDsBlocks_expired(int start, int stop)view public returns(uint[]result){\r\n\r\n\tuint count=countBlock_expired(start,stop);\r\n\tresult = new uint[] (count);\r\n\tuint counter=0;\r\n\t\r\n\tfor(int i=start;i<stop;i++){\r\n\t\tif(is_expired_id(array_index[i].ind)){\r\n\t\tresult[counter]=uint(array_index[i].ind);\r\n\t\tcounter=counter+1;\r\n\t\t}\r\n\t}\r\n\treturn result; \r\n\r\n}\r\n\r\n\r\nfunction recover_expired_block(int id)onlyOwner()public {\r\n\r\n\trequire(is_expired_id(id));\r\n\tblocks[id].mask=0;\r\n\tblocks[id].o_addr=0x00;\r\n\tblocks[id].date=0;\r\n\tblocks[id].info.uri=\"\";\r\n\tblocks[id].info.hashFunction=\"\";\r\n\tblocks[id].info.hash=\"\";\r\n\tblocks[id].Roa=\"\";\r\n\r\n\texpired_array_index[ID_expired].ind=id;\r\n\tID_expired=ID_expired+1;\r\n\r\n}\r\n\r\n\r\nfunction getRecovered()view public returns(uint[]result){\r\n\r\n\tuint count=uint(ID_expired);\r\n\tresult = new uint[] (count);\r\n\tuint counter=0;\r\n\t\r\n\tfor(int i=0;i<ID_expired;i++){\r\n\t\t\tresult[counter]=uint(expired_array_index[i].ind);\r\n\t\t\tcounter=counter+1;\r\n\t\t}\r\n\t\r\n\treturn result; \r\n\r\n}\r\n\r\nfunction delete_expired()internal{\r\n\r\n\tdelete expired_array_index[ID_expired];\r\n\tID_expired=ID_expired-1;\r\n\r\n}\r\n\r\n//******************************************************* SET INFO FUNCTIONS *******************************************************\r\nfunction setInfoBlock(bytes16 ip, bytes uri, bytes hashFunction, bytes hash) onlySuperUsers(msg.sender) public {\r\n\t\r\n\tint id=find(ip,allocation_prefix_mask);\r\n\trequire(id!=-1);\r\n\trequire(!is_expired_id(id));\r\n\tblocks[id].info.uri=uri;\r\n\tblocks[id].info.hashFunction=hashFunction;\r\n\tblocks[id].info.hash=hash;\r\n\t\t\t\r\n}\r\n\r\n\r\n//******************************************************* ASes FUNCTIONS *******************************************************\r\n\r\nfunction getBlockASes(bytes16 ip)view public returns(bytes){\r\n\t\r\n\tint id=find(ip,allocation_prefix_mask);\r\n\trequire(id!=-1);\r\n\trequire(!is_expired_id(id));\r\n\treturn blocks[id].Roa;\r\n}\r\n\r\n\r\nfunction setRoaBlock(bytes16 ip, bytes ASes) onlySuperUsers(msg.sender) public {\r\n\t\t\t\t\t\r\n\tint id=find(ip,allocation_prefix_mask);\r\n\trequire(id!=-1);\r\n\trequire(!is_expired_id(id));\r\n\trequire(msg.sender==blocks[id].o_addr);\r\n\tblocks[id].Roa=ASes;\r\n}\r\n\r\n\r\n//*****************************************************BLOCKS SETTER*************************************************************\r\n\t\r\nfunction setBlock(bytes16 ip,uint8 mask)internal {\r\n\r\n\tint idCurrent=0;\r\n\tint idNext=0;\r\n\tint i=0;\r\n\twhile(i<allocation_prefix_mask-base_prefix_mask-1){\r\n\t\tif(!getBit(ip,(128-(base_prefix_mask+uint8(i)+1)))){\r\n\t\t\t\t\r\n\t\t\t\tidCurrent=idNext;\r\n\t\t\t\tif(blocks[idCurrent].left==0){\r\n\t\t\t\t\t\tidNext=ID;\r\n\t\t\t\t\t\tblocks[idCurrent].left=idNext;\r\n\t\t\t\t\t\tblocks[idNext].parent=idCurrent;\r\n\t\t\t\t\t\tID=ID+1;\r\n\t\t\t\t}else{\r\n\t\t\t\t\tidNext=blocks[idCurrent].left;\r\n\t\t\t\t}\r\n\t\t}else{\r\n\t\t\t\tidCurrent=idNext;\r\n\t\t\t\t\tif(blocks[idCurrent].right==0){\r\n\t\t\t\t\t\t\tidNext=ID;\r\n\t\t\t\t\t\t\tblocks[idCurrent].right=idNext;\r\n\t\t\t\t\t\t\tblocks[idNext].parent=idCurrent;\r\n\t\t\t\t\t\t\tID=ID+1;\r\n\t\t\t\t\t}else{\r\n\t\t\t\t\t\tidNext=blocks[idCurrent].right;\r\n\t\t\t\t\t}\r\n\t\t\t}\r\n\t\r\n\t\ti=i+1;\r\n\t}\r\n\r\n\tif(!getBit(ip,128-allocation_prefix_mask)){\r\n\t\t\t\tvar ind=array_index[ID_Index];\r\n\t\t\t\tidCurrent=idNext;\r\n\t\t\t\tif(blocks[idCurrent].left==0){\r\n\t\t\t\t\t\tidNext=ID;\r\n\t\t\t\t\t\tblocks[idCurrent].left=idNext;\r\n\t\t\t\t\t\tblocks[idNext].parent=idCurrent;\r\n\t\t\t\t\t\tID=ID+1;\r\n\t\t\t\t\t\tblocks[idNext].ip_address=ip;\r\n\t\t\t\t\t\tblocks[idNext].o_addr=msg.sender;\r\n\t\t\t\t\t\tblocks[idNext].mask=mask;\r\n\t\t\t\t\t\tblocks[idNext].date=now;\r\n\t\t\t\t\t\tblocks[idNext].ID_delegated=1;\r\n\t\t\t\t\t\tarray_index[ID_Index].ind=idNext;\r\n\t\t\t\t\t\tID_Index=ID_Index+1;\r\n\t\t\t\t}else{\r\n\t\t\t\t\tidNext=blocks[idCurrent].left;\r\n\t\t\t\t\tblocks[idNext].ip_address=ip;\r\n\t\t\t\t\tblocks[idNext].o_addr=msg.sender;\r\n\t\t\t\t\tblocks[idNext].mask=mask;\r\n\t\t\t\t\tblocks[idNext].date=now;\r\n\t\t\t\t\tblocks[idNext].ID_delegated=1;\r\n\t\t\t\t\tarray_index[ID_Index].ind=idNext;\r\n\t\t\t\t\tID_Index=ID_Index+1;\r\n\t\t\t\t}\r\n\t}else{\r\n\t\t\tidCurrent=idNext;\r\n\t\t\t\tif(blocks[idCurrent].right==0){\r\n\t\t\t\t\t\tidNext=ID;\r\n\t\t\t\t\t\tblocks[idCurrent].right=idNext;\r\n\t\t\t\t\t\tblocks[idNext].parent=idCurrent;\r\n\t\t\t\t\t\tID=ID+1;\r\n\t\t\t\t\t\tblocks[idNext].ip_address=ip;\r\n\t\t\t\t\t\tblocks[idNext].o_addr=msg.sender;\r\n\t\t\t\t\t\tblocks[idNext].mask=mask;\r\n\t\t\t\t\t\tblocks[idNext].date=now;\r\n\t\t\t\t\t\tblocks[idNext].ID_delegated=1;\r\n\t\t\t\t\t\tarray_index[ID_Index].ind=idNext;\r\n\t\t\t\t\t\tID_Index=ID_Index+1;\r\n\t\t\t\t}else{\r\n\t\t\t\t\tidNext=blocks[idCurrent].right;\r\n\t\t\t\t\tblocks[idNext].ip_address=ip;\r\n\t\t\t\t\tblocks[idNext].o_addr=msg.sender;\r\n\t\t\t\t\tblocks[idNext].mask=mask;\r\n\t\t\t\t\tblocks[idNext].date=now;\r\n\t\t\t\t\tblocks[idNext].ID_delegated=1;\r\n\t\t\t\t\tarray_index[ID_Index].ind=idNext;\r\n\t\t\t\t\tID_Index=ID_Index+1;\r\n\t\t\t\t}\r\n\t\t}\r\n}\r\n\r\n\r\n//THIS FUNCTION HAS TO BE CHANGED WITH THE NEW DATASTRUCTURE MAINTAING A LIST OF EXPIRED BLOCKS \r\nfunction setBlock_expired(bytes16 ip, int id) internal {\r\n\t\t\r\n\tblocks[id].ip_address=ip;\r\n\tblocks[id].o_addr=msg.sender;\r\n\tblocks[id].mask=allocation_prefix_mask;\r\n\tblocks[id].date=now;\r\n\tblocks[id].Roa=\"\";\r\n\tblocks[id].info.uri=\"\";\r\n\tblocks[id].info.hashFunction=\"\";\r\n\tblocks[id].info.hash=\"\";\r\n\t\r\n}\r\n\r\n\r\n}//END ",
  "sourcePath": "C:\\Users\\User\\Desktop\\Latest Release InBlock\\InBlock_v1.1\\InBlock_v1.1\\InBlock_v1.1\\contracts\\InBlock_F.sol",
  "compiler": {
    "name": "solc",
    "version": "0.4.24+commit.e67f0147.Emscripten.clang"
  },
  "schemaVersion": "2.0.1",
  "updatedAt": "2018-09-17T15:56:10.242Z"
}