{
  "contractName": "InBlock_F_del",
  "abi": [
    {
      "constant": true,
      "inputs": [],
      "name": "ID_expired",
      "outputs": [
        {
          "name": "",
          "type": "int256"
        }
      ],
      "payable": false,
      "stateMutability": "view",
      "type": "function"
    },
    {
      "constant": false,
      "inputs": [
        {
          "name": "addr",
          "type": "address"
        }
      ],
      "name": "changeUserAccount",
      "outputs": [],
      "payable": false,
      "stateMutability": "nonpayable",
      "type": "function"
    },
    {
      "constant": false,
      "inputs": [],
      "name": "circuitBreaker",
      "outputs": [],
      "payable": false,
      "stateMutability": "nonpayable",
      "type": "function"
    },
    {
      "constant": false,
      "inputs": [
        {
          "name": "addr",
          "type": "address"
        }
      ],
      "name": "addSuperUserAccount",
      "outputs": [],
      "payable": false,
      "stateMutability": "nonpayable",
      "type": "function"
    },
    {
      "constant": true,
      "inputs": [],
      "name": "allocation_prefix_mask",
      "outputs": [
        {
          "name": "",
          "type": "uint8"
        }
      ],
      "payable": false,
      "stateMutability": "view",
      "type": "function"
    },
    {
      "constant": true,
      "inputs": [
        {
          "name": "ip_address",
          "type": "bytes16"
        },
        {
          "name": "_mask",
          "type": "uint8"
        }
      ],
      "name": "find",
      "outputs": [
        {
          "name": "",
          "type": "int256"
        }
      ],
      "payable": false,
      "stateMutability": "view",
      "type": "function"
    },
    {
      "constant": true,
      "inputs": [
        {
          "name": "id",
          "type": "int256"
        }
      ],
      "name": "is_expired_id",
      "outputs": [
        {
          "name": "",
          "type": "bool"
        }
      ],
      "payable": false,
      "stateMutability": "view",
      "type": "function"
    },
    {
      "constant": true,
      "inputs": [],
      "name": "max_allocable_blocks",
      "outputs": [
        {
          "name": "",
          "type": "uint256"
        }
      ],
      "payable": false,
      "stateMutability": "view",
      "type": "function"
    },
    {
      "constant": false,
      "inputs": [
        {
          "name": "addr",
          "type": "address"
        }
      ],
      "name": "deleteSuperUserAccount",
      "outputs": [],
      "payable": false,
      "stateMutability": "nonpayable",
      "type": "function"
    },
    {
      "constant": true,
      "inputs": [],
      "name": "ID_Index",
      "outputs": [
        {
          "name": "",
          "type": "int256"
        }
      ],
      "payable": false,
      "stateMutability": "view",
      "type": "function"
    },
    {
      "constant": false,
      "inputs": [],
      "name": "toggleCircuit",
      "outputs": [],
      "payable": false,
      "stateMutability": "nonpayable",
      "type": "function"
    },
    {
      "constant": true,
      "inputs": [],
      "name": "blockprice",
      "outputs": [
        {
          "name": "",
          "type": "uint256"
        }
      ],
      "payable": false,
      "stateMutability": "view",
      "type": "function"
    },
    {
      "constant": false,
      "inputs": [
        {
          "name": "addr",
          "type": "address"
        }
      ],
      "name": "addUserAccount",
      "outputs": [],
      "payable": false,
      "stateMutability": "nonpayable",
      "type": "function"
    },
    {
      "constant": true,
      "inputs": [],
      "name": "base_prefix_mask",
      "outputs": [
        {
          "name": "",
          "type": "uint8"
        }
      ],
      "payable": false,
      "stateMutability": "view",
      "type": "function"
    },
    {
      "constant": true,
      "inputs": [],
      "name": "dollars_price",
      "outputs": [
        {
          "name": "",
          "type": "uint256"
        }
      ],
      "payable": false,
      "stateMutability": "view",
      "type": "function"
    },
    {
      "constant": true,
      "inputs": [],
      "name": "initial_block",
      "outputs": [
        {
          "name": "",
          "type": "bytes16"
        }
      ],
      "payable": false,
      "stateMutability": "view",
      "type": "function"
    },
    {
      "constant": true,
      "inputs": [],
      "name": "stopped",
      "outputs": [
        {
          "name": "",
          "type": "bool"
        }
      ],
      "payable": false,
      "stateMutability": "view",
      "type": "function"
    },
    {
      "constant": true,
      "inputs": [],
      "name": "seed",
      "outputs": [
        {
          "name": "",
          "type": "uint256"
        }
      ],
      "payable": false,
      "stateMutability": "view",
      "type": "function"
    },
    {
      "constant": true,
      "inputs": [],
      "name": "owner",
      "outputs": [
        {
          "name": "",
          "type": "address"
        }
      ],
      "payable": false,
      "stateMutability": "view",
      "type": "function"
    },
    {
      "constant": true,
      "inputs": [
        {
          "name": "addr",
          "type": "address"
        }
      ],
      "name": "getUserPrivilege",
      "outputs": [
        {
          "name": "",
          "type": "int256"
        }
      ],
      "payable": false,
      "stateMutability": "view",
      "type": "function"
    },
    {
      "constant": true,
      "inputs": [],
      "name": "price",
      "outputs": [
        {
          "name": "",
          "type": "uint256"
        }
      ],
      "payable": false,
      "stateMutability": "view",
      "type": "function"
    },
    {
      "constant": true,
      "inputs": [],
      "name": "ID",
      "outputs": [
        {
          "name": "",
          "type": "int256"
        }
      ],
      "payable": false,
      "stateMutability": "view",
      "type": "function"
    },
    {
      "constant": false,
      "inputs": [
        {
          "name": "addr",
          "type": "address"
        }
      ],
      "name": "changeSuperUserAccount",
      "outputs": [],
      "payable": false,
      "stateMutability": "nonpayable",
      "type": "function"
    },
    {
      "constant": true,
      "inputs": [],
      "name": "max_del",
      "outputs": [
        {
          "name": "",
          "type": "uint8"
        }
      ],
      "payable": false,
      "stateMutability": "view",
      "type": "function"
    },
    {
      "constant": true,
      "inputs": [],
      "name": "askPriceCost",
      "outputs": [
        {
          "name": "",
          "type": "uint256"
        }
      ],
      "payable": false,
      "stateMutability": "view",
      "type": "function"
    },
    {
      "constant": false,
      "inputs": [
        {
          "name": "addr",
          "type": "address"
        }
      ],
      "name": "deleteUserAccount",
      "outputs": [],
      "payable": false,
      "stateMutability": "nonpayable",
      "type": "function"
    },
    {
      "constant": true,
      "inputs": [
        {
          "name": "addr",
          "type": "address"
        }
      ],
      "name": "getSuperUserPrivilege",
      "outputs": [
        {
          "name": "",
          "type": "int256"
        }
      ],
      "payable": false,
      "stateMutability": "view",
      "type": "function"
    },
    {
      "constant": false,
      "inputs": [
        {
          "name": "_parent_ip",
          "type": "bytes16"
        },
        {
          "name": "del_ip",
          "type": "bytes16"
        },
        {
          "name": "bar",
          "type": "uint8"
        },
        {
          "name": "delegated_address",
          "type": "address"
        }
      ],
      "name": "delegate_block",
      "outputs": [],
      "payable": false,
      "stateMutability": "nonpayable",
      "type": "function"
    },
    {
      "constant": false,
      "inputs": [
        {
          "name": "parent_ip",
          "type": "bytes16"
        },
        {
          "name": "del_ip",
          "type": "bytes16"
        },
        {
          "name": "mask",
          "type": "uint8"
        }
      ],
      "name": "revoke_delegation",
      "outputs": [],
      "payable": false,
      "stateMutability": "nonpayable",
      "type": "function"
    },
    {
      "constant": true,
      "inputs": [
        {
          "name": "ip",
          "type": "bytes16"
        },
        {
          "name": "ip2",
          "type": "bytes16"
        },
        {
          "name": "_mask",
          "type": "uint8"
        }
      ],
      "name": "del_find",
      "outputs": [
        {
          "name": "",
          "type": "int256"
        }
      ],
      "payable": false,
      "stateMutability": "view",
      "type": "function"
    },
    {
      "constant": true,
      "inputs": [
        {
          "name": "id",
          "type": "int256"
        },
        {
          "name": "id2",
          "type": "int256"
        }
      ],
      "name": "get_del_Block_id",
      "outputs": [
        {
          "name": "",
          "type": "bytes16"
        },
        {
          "name": "",
          "type": "address"
        },
        {
          "name": "",
          "type": "uint8"
        },
        {
          "name": "",
          "type": "int256"
        },
        {
          "name": "",
          "type": "int256"
        },
        {
          "name": "",
          "type": "int256"
        }
      ],
      "payable": false,
      "stateMutability": "view",
      "type": "function"
    },
    {
      "constant": true,
      "inputs": [
        {
          "name": "ip",
          "type": "bytes16"
        },
        {
          "name": "start",
          "type": "int256"
        },
        {
          "name": "stop",
          "type": "int256"
        }
      ],
      "name": "getIDs_del_Blocks",
      "outputs": [
        {
          "name": "result",
          "type": "uint256[]"
        }
      ],
      "payable": false,
      "stateMutability": "view",
      "type": "function"
    },
    {
      "constant": false,
      "inputs": [
        {
          "name": "ip_parent",
          "type": "bytes16"
        },
        {
          "name": "ip",
          "type": "bytes16"
        },
        {
          "name": "mask",
          "type": "uint8"
        },
        {
          "name": "uri",
          "type": "bytes"
        },
        {
          "name": "hashFunction",
          "type": "bytes"
        },
        {
          "name": "hash",
          "type": "bytes"
        }
      ],
      "name": "setInfo_del_Block",
      "outputs": [],
      "payable": false,
      "stateMutability": "nonpayable",
      "type": "function"
    },
    {
      "constant": false,
      "inputs": [
        {
          "name": "ip_parent",
          "type": "bytes16"
        },
        {
          "name": "ip",
          "type": "bytes16"
        },
        {
          "name": "mask",
          "type": "uint8"
        },
        {
          "name": "ASes",
          "type": "bytes"
        }
      ],
      "name": "setRoa_del_Block",
      "outputs": [],
      "payable": false,
      "stateMutability": "nonpayable",
      "type": "function"
    },
    {
      "constant": true,
      "inputs": [
        {
          "name": "ip_parent",
          "type": "bytes16"
        },
        {
          "name": "ip",
          "type": "bytes16"
        },
        {
          "name": "mask",
          "type": "uint8"
        }
      ],
      "name": "get_del_BlockASes",
      "outputs": [
        {
          "name": "",
          "type": "bytes"
        }
      ],
      "payable": false,
      "stateMutability": "view",
      "type": "function"
    }
  ],
  "bytecode": "0x608060405234801561001057600080fd5b50612e8b806100206000396000f3006080604052600436106101b65763ffffffff7c010000000000000000000000000000000000000000000000000000000060003504166306cd8b7581146101bb5780630731137c146101e257806316efd94114610205578063198a20cd1461021a5780631a7f57ad1461023b5780631b25b81d146102665780631bc200501461028e5780632059b40d146102ba57806327597925146102cf578063310c3fd8146103725780633ae5e307146103935780634551c83b146103a8578063496218511461041b578063568dabfb146104305780635881db901461045e578063591dbfea1461047357806364a6a287146104eb578063702335e61461050c578063706c3eae1461053a578063715edd5b1461054f578063743d9ff81461056457806375f12b21146105965780637d94792a146105ab5780638da5cb5b146105c0578063941f1bbd146105f15780639d27c40e14610612578063a035b1fe14610675578063b3cea2171461068a578063bb28b17c1461069f578063c5ba2bd4146106c0578063cd0db350146106d5578063d0b6d75e1461070f578063dcba957f14610724578063ddc41c5f14610745578063e07bc76314610766575b600080fd5b3480156101c757600080fd5b506101d0610855565b60408051918252519081900360200190f35b3480156101ee57600080fd5b50610203600160a060020a036004351661085b565b005b34801561021157600080fd5b506102036108dc565b34801561022657600080fd5b50610203600160a060020a0360043516610913565b34801561024757600080fd5b50610250610953565b6040805160ff9092168252519081900360200190f35b34801561027257600080fd5b506101d06001608060020a03196004351660ff60243516610963565b34801561029a57600080fd5b506102a6600435610a70565b604080519115158252519081900360200190f35b3480156102c657600080fd5b506101d0610abd565b3480156102db57600080fd5b506102fd6001608060020a03196004358116906024351660ff60443516610ac3565b6040805160208082528351818301528351919283929083019185019080838360005b8381101561033757818101518382015260200161031f565b50505050905090810190601f1680156103645780820380516001836020036101000a031916815260200191505b509250505060405180910390f35b34801561037e57600080fd5b50610203600160a060020a0360043516610be2565b34801561039f57600080fd5b506101d0610c3d565b3480156103b457600080fd5b50604080516020601f606435600481810135928301849004840285018401909552818452610203946001608060020a03198135811695602480359092169560ff6044351695369560849401918190840183828082843750949750610c439650505050505050565b34801561042757600080fd5b50610203610d50565b34801561043c57600080fd5b506102036001608060020a03196004358116906024351660ff60443516610d99565b34801561046a57600080fd5b506101d0611237565b34801561047f57600080fd5b5061049b6001608060020a03196004351660243560443561123d565b60408051602080825283518183015283519192839290830191858101910280838360005b838110156104d75781810151838201526020016104bf565b505050509050019250505060405180910390f35b3480156104f757600080fd5b50610203600160a060020a0360043516611337565b34801561051857600080fd5b506101d06001608060020a03196004358116906024351660ff604435166113af565b34801561054657600080fd5b50610250611537565b34801561055b57600080fd5b506101d0611547565b34801561057057600080fd5b5061057961154d565b604080516001608060020a03199092168252519081900360200190f35b3480156105a257600080fd5b506102a6611559565b3480156105b757600080fd5b506101d0611569565b3480156105cc57600080fd5b506105d561156f565b60408051600160a060020a039092168252519081900360200190f35b3480156105fd57600080fd5b506101d0600160a060020a036004351661157e565b34801561061e57600080fd5b5061062d600435602435611599565b604080516001608060020a03199097168752600160a060020a03909516602087015260ff909316858501526060850191909152608084015260a0830152519081900360c00190f35b34801561068157600080fd5b506101d0611615565b34801561069657600080fd5b506101d061161b565b3480156106ab57600080fd5b50610203600160a060020a0360043516611621565b3480156106cc57600080fd5b506102506116a2565b3480156106e157600080fd5b506102036001608060020a03196004358116906024351660ff60443516600160a060020a03606435166116c4565b34801561071b57600080fd5b506101d0611a5c565b34801561073057600080fd5b50610203600160a060020a0360043516611a62565b34801561075157600080fd5b506101d0600160a060020a0360043516611ad9565b34801561077257600080fd5b50604080516020601f606435600481810135928301849004840285018401909552818452610203946001608060020a03198135811695602480359092169560ff604435169536956084940191819084018382808284375050604080516020601f89358b018035918201839004830284018301909452808352979a99988101979196509182019450925082915084018382808284375050604080516020601f89358b018035918201839004830284018301909452808352979a999881019791965091820194509250829150840183828082843750949750611af49650505050505050565b60075481565b3360009081526020819052604090205460031461087757600080fd5b33600081815260208190526040808220828155600160a060020a03851683529082206003905591905260019081015460ff16151514156108d95760006020819052600160a060020a0382168152604090206001908101805460ff191690911790555b50565b600a54600160a060020a031633146108f357600080fd5b600a805474ff000000000000000000000000000000000000000019169055565b600a54600160a060020a0316331461092a57600080fd5b600160a060020a031660009081526001602081905260409091206002815501805460ff19169055565b600a5460b060020a900460ff1681565b60008080805b600954600a54600160ff608060020a909304831660b060020a9092048316919091030116821215610a53576000838152600f60205260409020546001608060020a0319878116608060020a909202161480156109e257506000838152600f602052604090206001015460ff86811660a060020a90920416145b156109f35760019050829350610a67565b610a148683600960109054906101000a900460ff1601600101608003611c31565b1515610a33576000928352600f60205260409092206004015491610a48565b6000928352600f602052604090922060050154915b816001019150610969565b8015610a6157829350610a67565b60001993505b50505092915050565b6000818152600f60205260408120600201546301e13380014210801590610aa757506000828152600f602052604090206002015415155b15610ab457506001610ab8565b5060005b919050565b600c5481565b6060600080610ae186600a60169054906101000a900460ff16610963565b9150600019821415610af257600080fd5b610afb82610a70565b15610b0557600080fd5b610b108686866113af565b90508060001914158015610b2657508060011914155b1515610b3157600080fd5b6000828152600f60209081526040808320848452600a0182529182902060080180548351601f600260001961010060018616150201909316929092049182018490048402810184019094528084529091830182828015610bd25780601f10610ba757610100808354040283529160200191610bd2565b820191906000526020600020905b815481529060010190602001808311610bb557829003601f168201915b5050505050925050509392505050565b600a54600160a060020a03163314610bf957600080fd5b600160a060020a0381166000908152600160208190526040909120015460ff1615610c2357600080fd5b600160a060020a0316600090815260016020526040812055565b60065481565b336000818152600160205260408120549091829160021480610c6f5750600a54600160a060020a031633145b1515610c7a57600080fd5b600a54610c9290889060b060020a900460ff16610963565b9250600019831415610ca357600080fd5b610cac83610a70565b15610cb657600080fd5b610cc18787876113af565b91508160001914158015610cd757508160011914155b1515610ce257600080fd5b6000838152600f60209081526040808320858452600a01909152902060010154600160a060020a03163314610d1657600080fd5b6000838152600f60209081526040808320858452600a0182529091208551610d4692600890920191870190612dc4565b5050505050505050565b600a54600160a060020a03163314610d6757600080fd5b600a805474ff000000000000000000000000000000000000000019811660a060020a9182900460ff1615909102179055565b6000806000806000600a60149054906101000a900460ff1615610dbb57600080fd5b3360008181526020819052604090205460031480610df15750600160a060020a0381166000908152600160205260409020546002145b80610e065750600a54600160a060020a031633145b1515610e1157600080fd5b600a54610e29908a9060b060020a900460ff16610963565b9550600019861415610e3a57600080fd5b610e4386610a70565b15610e4d57600080fd5b6000868152600f6020526040902060010154600160a060020a03163314610ebe576040805160e560020a62461bcd02815260206004820152601a60248201527f4f7065726174696f6e206e6f7420417574686f72697a65642121000000000000604482015290519081900360640190fd5b610ec98989896113af565b94508460001914158015610edf57508460011914155b1515610eea57600080fd5b6000868152600f60209081526040808320888452600a0180835281842080546001608060020a031916815560018101805474ffffffffffffffffffffffffffffffffffffffffff19169055825180850193849052858152948a905292529151610f599260089092019190612dc4565b5060408051602081810180845260008084528a8152600f83528481208a8252600a019092529290209051610f939260059092019190612dc4565b5060408051602081810180845260008084528a8152600f83528481208a8252600a019092529290209051610fcd9260069092019190612dc4565b5060408051602081810180845260008084528a8152600f83528481208a8252600a0190925292902090516110079260079092019190612dc4565b50849350849250600091505b600a54600160ff60b060020a90920482168903011682121561122c576000868152600f60209081526040808320878452600a01909152902060020154939250611063886080899003849003611c31565b1515611162576000868152600f60209081526040808320878452600a01909152902060040154156110f8576000868152600f60209081526040808320878452600a019091528082206004015482529020546110c390608060020a02611c5a565b156110f3576000868152600f60209081526040808320878452600a01909152902080546001608060020a03191690555b61115d565b6000868152600f60209081526040808320878452600a0190915280822060030154825290205461112d90608060020a02611c5a565b1561115d576000868152600f60209081526040808320878452600a01909152902080546001608060020a03191690555b611221565b6000868152600f60209081526040808320878452600a01909152902060030154156111bc576000868152600f60209081526040808320878452600a0190915280822060030154825290205461112d90608060020a02611c5a565b6000868152600f60209081526040808320878452600a019091528082206004015482529020546111f190608060020a02611c5a565b15611221576000868152600f60209081526040808320878452600a01909152902080546001608060020a03191690555b600190910190611013565b505050505050505050565b60085481565b606060008060008061125e88600a60169054906101000a900460ff16610963565b935061126b888888611cff565b925082604051908082528060200260200182016040528015611297578160200160208202803883390190505b509450600091508690505b8560010181121561132c576000848152600f60209081526040808320848452600b81018352818420548452600a0190915290206001015460a060020a900460ff1615611324576000848152600f60209081526040808320848452600b01909152902054855186908490811061131357fe5b602090810290910101526001909101905b6001016112a2565b505050509392505050565b336000818152600160205260409020546002148061135f5750600a54600160a060020a031633145b151561136a57600080fd5b3360009081526001602052604090205460021461138657600080fd5b50600160a060020a0316600090815260208190526040902060038155600101805460ff19169055565b60008060008060006113d088600a60169054906101000a900460ff16610963565b93508360001914156113e657600019945061132c565b6113ef84610a70565b156113fe57600019945061132c565b5060009150819050805b600a54600160ff60b060020a90920482168803011682121561151f576000848152600f60209081526040808320868452600a019091529020546001608060020a0319888116608060020a9092021614801561148e57506000848152600f60209081526040808320868452600a0190915290206001015460ff87811660a060020a90920416145b1561149f576001905082945061132c565b6114c08783600a60169054906101000a900460ff1601600101608003611c31565b15156114ef576000848152600f60209081526040808320958352600a9095019052929092206003015491611514565b6000848152600f60209081526040808320958352600a90950190529290922060040154915b816001019150611408565b801561152d5782945061132c565b600119945061132c565b600954608060020a900460ff1681565b60045481565b600954608060020a0281565b600a5460a060020a900460ff1681565b600b5481565b600a54600160a060020a031681565b600160a060020a031660009081526020819052604090205490565b6000806000806000806115ab88610a70565b156115b557600080fd5b50505060009485525050600f60209081526040808520938552600a90930190525090208054600182015460028301546003840154600490940154608060020a90930294600160a060020a0383169460a060020a90930460ff169391929190565b60035481565b60055481565b3360009081526001602052604090205460021461163d57600080fd5b336000818152600160208190526040808320838155600160a060020a038616845290832060029055929091529081015460ff16151514156108d95760016020819052600160a060020a0382166000908152604090208101805460ff1916909117905550565b600a547501000000000000000000000000000000000000000000900460ff1681565b600a54600090819060a060020a900460ff16156116e057600080fd5b33600081815260208190526040902054600314806117165750600160a060020a0381166000908152600160205260409020546002145b8061172b5750600a54600160a060020a031633145b151561173657600080fd5b600a5460ff75010000000000000000000000000000000000000000009091048116908616111561176557600080fd5b600a5461177f90889060b060020a900460ff168888611da3565b15156117d5576040805160e560020a62461bcd02815260206004820152601e60248201527f54686520656e7465726564206970206973206f7574206f662072616e67650000604482015290519081900360640190fd5b600a546117ed90889060b060020a900460ff16610963565b6000818152600f6020526040902060010154909350600160a060020a03163314611861576040805160e560020a62461bcd02815260206004820152601960248201527f4f7065726174696f6e206e6f7420617574686f72697a65642100000000000000604482015290519081900360640190fd5b61186c878787611e05565b15156118e8576040805160e560020a62461bcd02815260206004820152603360248201527f54686520656e746572656420626c6f636b2069732070617274206f6620616e6f60448201527f74686572206578697374696e6720626c6f636b00000000000000000000000000606482015290519081900360840190fd5b6118f38787876113af565b9150816000191415801561190957508160011914155b156119b35761191a87878787612212565b600160a060020a0384166000908152602081905260409020546003141561196457600160a060020a03841660009081526020819052604090206001908101805460ff191690911790555b600160a060020a038416600090815260016020526040902054600214156119ae57600160a060020a03841660009081526001602081905260409091208101805460ff191690911790555b611a53565b6119bf87878787612212565b600160a060020a03841660009081526020819052604090205460031415611a0957600160a060020a03841660009081526020819052604090206001908101805460ff191690911790555b600160a060020a03841660009081526001602052604090205460021415611a5357600160a060020a03841660009081526001602081905260409091208101805460ff191690911790555b50505050505050565b60025481565b3360008181526001602052604090205460021480611a8a5750600a54600160a060020a031633145b1515611a9557600080fd5b600160a060020a03821660009081526020819052604090206001015460ff1615611abe57600080fd5b50600160a060020a0316600090815260208190526040812055565b600160a060020a031660009081526001602052604090205490565b336000818152600160205260408120549091829160021480611b205750600a54600160a060020a031633145b1515611b2b57600080fd5b600a54611b43908a9060b060020a900460ff16610963565b9250600019831415611b5457600080fd5b611b5d83610a70565b15611b6757600080fd5b611b728989896113af565b91508160001914158015611b8857508160011914155b1515611b9357600080fd5b6000838152600f60209081526040808320858452600a0182529091208751611bc392600590920191890190612dc4565b506000838152600f60209081526040808320858452600a0182529091208651611bf492600690920191880190612dc4565b506000838152600f60209081526040808320858452600a0182529091208551611c2592600790920191870190612dc4565b50505050505050505050565b6000611c44608060020a60ff8416612d87565b929092166001608060020a031916151592915050565b6000805b6010811015611cf457828160108110611c7357fe5b1a7f0100000000000000000000000000000000000000000000000000000000000000027effffffffffffffffffffffffffffffffffffffffffffffffffffffffffffff191660007f010000000000000000000000000000000000000000000000000000000000000002141515611cec5760009150611cf9565b600101611c5e565b600191505b50919050565b600080600080600080611d2189600a60169054906101000a900460ff16610963565b9450600093508792505b86600101831215611d965750506000838152600f60209081526040808320848452600b8101835281842054808552600a9091019092529091208054600190910154608060020a9091029060a060020a900460ff1615611d8b578360010193505b600190920191611d2b565b5091979650505050505050565b6000806000611db5878760ff16612d98565b9150611dc4858760ff16612d98565b90506001608060020a0319828116908216148015611de857508360ff168660ff1611155b15611df65760019250611dfb565b600092505b5050949350505050565b6000806000806000806000611e298a600a60169054906101000a900460ff16610963565b9550600019861415611e3a57600080fd5b611e4386610a70565b15611e4d57600080fd5b5060009350839250829150819050805b600a54600160ff60b060020a830481167501000000000000000000000000000000000000000000909304811692909203011683128015611e9b575081155b156121f157611ec18984600a60169054906101000a900460ff1601600101608003611c31565b151561205957600a54939450849360ff60b060020a9091048116890360010116831415611f98576000868152600f60209081526040808320888452600a01909152902054611f1490608060020a02611c5a565b1580611f5257506000868152600f60209081526040808320888452600a01909152808220600301548252902054611f5090608060020a02611c5a565b155b80611f8f57506000868152600f60209081526040808320888452600a01909152808220600401548252902054611f8d90608060020a02611c5a565b155b15611f98575060015b6000868152600f60209081526040808320888452600a01909152902054611fc490608060020a02611c5a565b158015611ff957506000868152600f60209081526040808320888452600a0190915290206001015460a060020a900460ff1615155b15612002575060015b6000868152600f60209081526040808320888452600a0190915290206003015415156120315760019150612054565b6000868152600f60209081526040808320888452600a0190915290206003015493505b6121e6565b600a54939450849360ff60b060020a909104811689036001011683141561212a576000868152600f60209081526040808320888452600a019091529020546120a690608060020a02611c5a565b15806120e457506000868152600f60209081526040808320888452600a019091528082206003015482529020546120e290608060020a02611c5a565b155b8061212157506000868152600f60209081526040808320888452600a0190915280822060040154825290205461211f90608060020a02611c5a565b155b1561212a575060015b6000868152600f60209081526040808320888452600a0190915290205461215690608060020a02611c5a565b15801561218b57506000868152600f60209081526040808320888452600a0190915290206001015460a060020a900460ff1615155b15612194575060015b6000868152600f60209081526040808320888452600a0190915290206004015415156121c357600191506121e6565b6000868152600f60209081526040808320888452600a0190915290206004015493505b826001019250611e5d565b80156122005760009650612205565b600196505b5050505050509392505050565b6000806000806000806122348a600a60169054906101000a900460ff16610963565b955060001986141561224557600080fd5b61224e86610a70565b1561225857600080fd5b6000868152600f6020526040902060010154600160a060020a0316331461227e57600080fd5b6000945060009350600092505b600a5460001960ff60b060020a90920482168a03011683121561252757600a546122c8908a90600160ff60b060020a909204821687010116612d98565b91506122eb8984600a60169054906101000a900460ff1601600101608003611c31565b1515612409576000868152600f60209081526040808320878452600a019091529020600301549394508493151561237d576000868152600f60208181526040808420600d810180548b8752600a909201845282862080546001608060020a031916608060020a8a041781556003018290558186529185206002018a9055938a9052919052805460010190559350612404565b6000868152600f60209081526040808320878452600a019091529020546123a990608060020a02611c5a565b156123e1576000868152600f60209081526040808320878452600a01909152902080546001608060020a031916608060020a84041790555b6000868152600f60209081526040808320888452600a0190915290206003015493505b61251c565b6000868152600f60209081526040808320878452600a0190915290206004015493945084931515612495576000868152600f60208181526040808420600d810180548b8752600a909201845282862080546001608060020a031916608060020a8a041781556004018290558186529185206002018a9055938a905291905280546001019055935061251c565b6000868152600f60209081526040808320878452600a019091529020546124c190608060020a02611c5a565b156124f9576000868152600f60209081526040808320878452600a01909152902080546001608060020a031916608060020a84041790555b6000868152600f60209081526040808320888452600a0190915290206004015493505b82600101925061228b565b6125348989608003611c31565b15156129c857612547898960ff16612d98565b6000878152600f60209081526040808320600c8101548452600b81018352818420898552600a909101909252909120600301549596508695919350915015156127f4576000868152600f60209081526040808320888452600a0190915290206004015415156125e3576000868152600f60209081526040808320888452600a01909152902080546001608060020a031916608060020a84041790555b600f6000878152602001908152602001600020600d0154935083600f6000888152602001908152602001600020600a0160008781526020019081526020016000206003018190555084600f6000888152602001908152602001600020600a01600086815260200190815260200160002060020181905550600f6000878152602001908152602001600020600d0154600101600f6000888152602001908152602001600020600d018190555088600f6000888152602001908152602001600020600a01600086815260200190815260200160002060000160006101000a8154816fffffffffffffffffffffffffffffffff0219169083608060020a9004021790555086600f6000888152602001908152602001600020600a01600086815260200190815260200160002060010160006101000a815481600160a060020a030219169083600160a060020a0316021790555087600f6000888152602001908152602001600020600a01600086815260200190815260200160002060010160146101000a81548160ff021916908360ff16021790555083600f6000888152602001908152602001600020600b016000600f60008a8152602001908152602001600020600c0154815260200190815260200160002060000181905550600f6000878152602001908152602001600020600c0154600101600f6000888152602001908152602001600020600c01819055506129c3565b6000868152600f60209081526040808320888452600a0190915290206003810154905490945061282990608060020a02611c5a565b15612861576000868152600f60209081526040808320888452600a01909152902080546001608060020a031916608060020a84041790555b88600f6000888152602001908152602001600020600a01600086815260200190815260200160002060000160006101000a8154816fffffffffffffffffffffffffffffffff0219169083608060020a9004021790555086600f6000888152602001908152602001600020600a01600086815260200190815260200160002060010160006101000a815481600160a060020a030219169083600160a060020a0316021790555087600f6000888152602001908152602001600020600a01600086815260200190815260200160002060010160146101000a81548160ff021916908360ff16021790555083600f6000888152602001908152602001600020600b016000600f60008a8152602001908152602001600020600c0154815260200190815260200160002060000181905550600f6000878152602001908152602001600020600c0154600101600f6000888152602001908152602001600020600c01819055505b611c25565b6000868152600f60209081526040808320878452600a0190915290206004015493945084931515612c5d576000868152600f60209081526040808320888452600a019091529020600301541515612a4c576000868152600f60209081526040808320888452600a01909152902080546001608060020a031916608060020a84041790555b600f6000878152602001908152602001600020600d0154935083600f6000888152602001908152602001600020600a0160008781526020019081526020016000206004018190555084600f6000888152602001908152602001600020600a01600086815260200190815260200160002060020181905550600f6000878152602001908152602001600020600d0154600101600f6000888152602001908152602001600020600d018190555088600f6000888152602001908152602001600020600a01600086815260200190815260200160002060000160006101000a8154816fffffffffffffffffffffffffffffffff0219169083608060020a9004021790555086600f6000888152602001908152602001600020600a01600086815260200190815260200160002060010160006101000a815481600160a060020a030219169083600160a060020a0316021790555087600f6000888152602001908152602001600020600a01600086815260200190815260200160002060010160146101000a81548160ff021916908360ff16021790555083600f6000888152602001908152602001600020600b016000600f60008a8152602001908152602001600020600c0154815260200190815260200160002060000181905550600f6000878152602001908152602001600020600c0154600101600f6000888152602001908152602001600020600c0181905550611c25565b6000868152600f60209081526040808320888452600a01909152902060048101549054909450612c9290608060020a02611c5a565b15612cca576000868152600f60209081526040808320888452600a01909152902080546001608060020a031916608060020a84041790555b5050506000838152600f60208181526040808420858552600a8101835281852080546001608060020a031916608060020a909c049b909b178b5560019a8b01805473ffffffffffffffffffffffffffffffffffffffff1916600160a060020a039a909a169990991774ff0000000000000000000000000000000000000000191660a060020a60ff9b909b169a909a0299909917909755600c880180548452600b909801815295822092909255929092525090528054909101905550565b60020a608060020a91829004020290565b6000608060020a600019600284900a010281612db8826080869003612d87565b94909416949350505050565b828054600181600116156101000203166002900490600052602060002090601f016020900481019282601f10612e0557805160ff1916838001178555612e32565b82800160010185558215612e32579182015b82811115612e32578251825591602001919060010190612e17565b50612e3e929150612e42565b5090565b612e5c91905b80821115612e3e5760008155600101612e48565b905600a165627a7a723058208161c6a26a20da1671973bda6bc6cef4c1ce0c13cf6f23a065ad8c7a163fe78f0029",
  "source": "pragma solidity ^0.4.24;\r\n\r\nimport \"./InBlock_Data.sol\";\r\n\r\ncontract InBlock_F_del is InBlock_Data{\r\n\r\n//******************************************************* DELEGATION FUNCTIONS *******************************************************\r\n\r\n \r\n//To perform a delegation. NB the sender of the transaction has to be the owner of the parent_ip \r\nfunction delegate_block(bytes16 _parent_ip, bytes16 del_ip, uint8 bar, address delegated_address) notStopped() onlyUsersOrSuper(msg.sender) public {\r\n\t\r\n\trequire(bar<=max_del);\r\n\trequire(IsIncluded(_parent_ip, allocation_prefix_mask, del_ip, bar), \"The entered ip is out of range\");\r\n\tint id=find(_parent_ip,allocation_prefix_mask);\r\n\trequire(msg.sender==blocks[id].o_addr, \"Operation not authorized!\");\r\n\trequire(is_consistent(_parent_ip, del_ip, bar), \"The entered block is part of another existing block\");\r\n\tint id2=del_find(_parent_ip,del_ip,bar);\r\n\t\r\n\tif(id2!=-1 && id2!=-2){ \r\n\t\t\tset_del_Block(_parent_ip, del_ip, bar, delegated_address);\r\n\t\t\tif(Users[delegated_address].privilege==3){\r\n\t\t\t\tUsers[delegated_address].holding=true;\r\n\t\t\t}\r\n\t\t\tif(SuperUsers[delegated_address].privilege==2){\r\n\t\t\t\tSuperUsers[delegated_address].holding=true;\r\n\t\t\t}\r\n\t}else{\r\n\t\t\tset_del_Block(_parent_ip, del_ip, bar, delegated_address);\r\n\t\t\tif(Users[delegated_address].privilege==3){\r\n\t\t\t\tUsers[delegated_address].holding=true;\r\n\t\t\t}\r\n\t\t\tif(SuperUsers[delegated_address].privilege==2){\r\n\t\t\t\tSuperUsers[delegated_address].holding=true;\r\n\t\t\t}\r\n\t\t}\r\n\r\n}\r\n\r\n//function to delete the revoked entry. It can only be performed by the owner of the parent block\r\n\r\nfunction revoke_delegation(bytes16 parent_ip, bytes16 del_ip,uint8 mask) notStopped() onlyUsersOrSuper(msg.sender) public {\t\r\n\t\t\t\r\n\t\t\tint id=find(parent_ip,allocation_prefix_mask);\r\n\t\t\trequire(id!=-1);\r\n\t\t\trequire(!is_expired_id(id));\r\n\t\t\trequire(msg.sender==blocks[id].o_addr, \"Operation not Authorized!!\");\r\n\t\t\tint id2=del_find(parent_ip,del_ip,mask);\r\n\t\t\trequire(id2!=-1 && id2!=-2);\r\n\t\t\tblocks[id].del_blocks[id2].ip_address=0x00;\r\n\t\t\tblocks[id].del_blocks[id2].o_addr=0x00;\r\n\t\t\tblocks[id].del_blocks[id2].mask=0;\r\n\t\t\tblocks[id].del_blocks[id2].Roa=\"\";\r\n\t\t\tblocks[id].del_blocks[id2].info.uri=\"\";\r\n\t\t\tblocks[id].del_blocks[id2].info.hashFunction=\"\";\r\n\t\t\tblocks[id].del_blocks[id2].info.hash=\"\";\r\n\t\t\t\r\n\t\t\tint idNext=id2;\r\n\t\t\tint idCurrent=id2;\r\n\t\t\r\n\t\t\t\r\n\t\t\tfor(int i=0; i<mask-allocation_prefix_mask+1; i++){\r\n\t\t\t\tidCurrent=idNext;\r\n\t\t\t\tidNext=blocks[id].del_blocks[idCurrent].parent;\r\n\t\t\t\tif(!getBit(del_ip,128-mask-uint8(i))){\r\n\t\t\t\t\t\tif(blocks[id].del_blocks[idNext].right!=0){\r\n\t\t\t\t\t\t\t\tif(PrefCmpZ(blocks[id].del_blocks[blocks[id].del_blocks[idNext].right].ip_address)){\r\n\t\t\t\t\t\t\t\t\t\tblocks[id].del_blocks[idNext].ip_address=0x00;\r\n\t\t\t\t\t\t\t\t}\r\n\t\t\t\t\t\t}else{\r\n\t\t\t\t\t\t\t\tif(PrefCmpZ(blocks[id].del_blocks[blocks[id].del_blocks[idNext].left].ip_address)){blocks[id].del_blocks[idNext].ip_address=0x00;}\r\n\t\t\t\t\t\t\t}\r\n\t\t\t\t}else{\r\n\t\t\t\t\t\tif(blocks[id].del_blocks[idNext].left!=0){\r\n\t\t\t\t\t\t\t\tif(PrefCmpZ(blocks[id].del_blocks[blocks[id].del_blocks[idNext].left].ip_address)){\r\n\t\t\t\t\t\t\t\t\t\tblocks[id].del_blocks[idNext].ip_address=0x00;\r\n\t\t\t\t\t\t\t\t}\r\n\t\t\t\t\t\t}else{\r\n\t\t\t\t\t\t\t\tif(PrefCmpZ(blocks[id].del_blocks[blocks[id].del_blocks[idNext].right].ip_address)){blocks[id].del_blocks[idNext].ip_address=0x00;}\r\n\t\t\t\t\t\t\t}\t\t\t\t\r\n\t\t\t\t\t}\t\t\r\n\t\t\t}\t\t\t\r\n}\r\n\r\n\t\t\t\t\t\t\t\r\n//To check the consistance of delegate_blocks\r\n\r\nfunction is_consistent(bytes16 ip_parent, bytes16 ip, uint8 mask) view internal returns(bool){\r\n\t\r\n\tint id=find(ip_parent,allocation_prefix_mask);\r\n\trequire(id!=-1);\r\n\trequire(!is_expired_id(id));\r\n\t\t\r\n\tint idCurrent=0;\r\n\tint idNext=0;\r\n\tint i=0;\r\n\tbool exit=false;\r\n\tbool ok=false;\r\n\t\twhile(i<(max_del-allocation_prefix_mask)+1 && exit==false){\r\n\t\t\t\tif(!getBit(ip,(128-(allocation_prefix_mask+uint8(i)+1)))){\r\n\t\t\t\t\t\tidCurrent=idNext;\r\n\t\t\t\t\t\tif(1+mask-allocation_prefix_mask==i){\r\n\t\t\t\t\t\t\t\tif(!PrefCmpZ(blocks[id].del_blocks[idCurrent].ip_address) || !PrefCmpZ(blocks[id].del_blocks[blocks[id].del_blocks[idCurrent].left].ip_address) || !PrefCmpZ(blocks[id].del_blocks[blocks[id].del_blocks[idCurrent].right].ip_address))ok=true;\r\n\t\t\t\t\t\t}\r\n\t\t\t\t\t\tif(!PrefCmpZ(blocks[id].del_blocks[idCurrent].ip_address) && blocks[id].del_blocks[idCurrent].mask!=0)ok=true;\r\n\t\t\t\t\t\tif(blocks[id].del_blocks[idCurrent].left==0){\r\n\t\t\t\t\t\t\t\texit=true;\r\n\t\t\t\t\t\t}else{\r\n\t\t\t\t\t\t\t\tidNext=blocks[id].del_blocks[idCurrent].left;\r\n\t\t\t\t\t\t\t}\r\n\t\t\t\t}else{\r\n\t\t\t\t\t\tidCurrent=idNext;\r\n\t\t\t\t\t\tif(1+mask-allocation_prefix_mask==i){\r\n\t\t\t\t\t\t\t\tif(!PrefCmpZ(blocks[id].del_blocks[idCurrent].ip_address) || !PrefCmpZ(blocks[id].del_blocks[blocks[id].del_blocks[idCurrent].left].ip_address) || !PrefCmpZ(blocks[id].del_blocks[blocks[id].del_blocks[idCurrent].right].ip_address))ok=true;\r\n\t\t\t\t\t\t}\r\n\t\t\t\t\t\tif(!PrefCmpZ(blocks[id].del_blocks[idCurrent].ip_address) && blocks[id].del_blocks[idCurrent].mask!=0)ok=true;\r\n\t\t\t\t\t\tif(blocks[id].del_blocks[idCurrent].right==0){\r\n\t\t\t\t\t\t\texit=true;\r\n\t\t\t\t\t\t}else{\r\n\t\t\t\t\t\t\t\tidNext=blocks[id].del_blocks[idCurrent].right;\r\n\t\t\t\t\t\t\t}\t\t\r\n\t\t\t\t\t}\r\n\t\r\n\t\ti=i+1;\r\n\t\t}\r\n\tif(ok)return false;\r\n\telse return true;\r\n}\r\n\r\n\r\n//*****************************************************DELEGATED BLOCKS SETTER*************************************************************\r\n\r\nfunction set_del_Block(bytes16 ip, bytes16 ip2, uint8 mask,address delegated)internal{\r\n\t\r\n\tint id=find(ip,allocation_prefix_mask);\r\n\trequire(id!=-1);\r\n\trequire(!is_expired_id(id));\r\n\trequire(msg.sender==blocks[id].o_addr);\r\n\tint idCurrent=0;\r\n\tint idNext=0;\r\n\tint i=0;\r\n\t\r\n\t\twhile(i<mask-allocation_prefix_mask-1){\r\n\t\t\tbytes16 app=getFirstN(ip2,allocation_prefix_mask+uint8(i)+1);\r\n\t\t\t\tif(!getBit(ip2,(128-(allocation_prefix_mask+uint8(i)+1)))){\r\n\t\t\t\t\t\tidCurrent=idNext;\r\n\t\t\t\t\t\tif(blocks[id].del_blocks[idCurrent].left==0){\r\n\t\t\t\t\t\t\t\tidNext=blocks[id].ID_delegated;\r\n\t\t\t\t\t\t\t\tblocks[id].del_blocks[idCurrent].ip_address=app;\r\n\t\t\t\t\t\t\t\tblocks[id].del_blocks[idCurrent].left=idNext;\r\n\t\t\t\t\t\t\t\tblocks[id].del_blocks[idNext].parent=idCurrent;\r\n\t\t\t\t\t\t\t\tblocks[id].ID_delegated=blocks[id].ID_delegated+1;\r\n\t\t\t\t\t\t}else{\r\n\t\t\t\t\t\t\t\tif(PrefCmpZ(blocks[id].del_blocks[idNext].ip_address)){blocks[id].del_blocks[idNext].ip_address=app;}\r\n\t\t\t\t\t\t\t\tidNext=blocks[id].del_blocks[idCurrent].left;\r\n\t\t\t\t\t\r\n\t\t\t\t\t\t\t}\r\n\t\t\t\t}else{\r\n\t\t\t\t\t\tidCurrent=idNext;\r\n\t\t\t\t\t\tif(blocks[id].del_blocks[idCurrent].right==0){\r\n\t\t\t\t\t\t\t\tidNext=blocks[id].ID_delegated;\r\n\t\t\t\t\t\t\t\tblocks[id].del_blocks[idCurrent].ip_address=app;\r\n\t\t\t\t\t\t\t\tblocks[id].del_blocks[idCurrent].right=idNext;\r\n\t\t\t\t\t\t\t\tblocks[id].del_blocks[idNext].parent=idCurrent;\r\n\t\t\t\t\t\t\t\tblocks[id].ID_delegated=blocks[id].ID_delegated+1;\r\n\t\t\t\t\t\t}else{\r\n\t\t\t\t\t\t\t\tif(PrefCmpZ(blocks[id].del_blocks[idNext].ip_address)){blocks[id].del_blocks[idNext].ip_address=app;}\r\n\t\t\t\t\t\t\t\tidNext=blocks[id].del_blocks[idCurrent].right;\r\n\t\t\t\t\t}\r\n\t\t\t\t}\r\n\t\r\n\t\ti=i+1;\r\n\t\t}\r\n\r\n\t\tif(!getBit(ip2,128-mask)){\r\n\t\t\t\tapp=getFirstN(ip2,mask);\r\n\t\t\t\tvar ind=blocks[id].del_array_index[blocks[id].del_ID_Index];\t\t\r\n\t\t\t\tidCurrent=idNext;\r\n\t\t\t\t\tif(blocks[id].del_blocks[idCurrent].left==0){\r\n\t\t\t\t\t\t\tif(blocks[id].del_blocks[idCurrent].right==0){\r\n\t\t\t\t\t\t\t\t\tblocks[id].del_blocks[idCurrent].ip_address=app;\r\n\t\t\t\t\t\t\t}\r\n\t\t\t\t\t\t\tidNext=blocks[id].ID_delegated;\r\n\t\t\t\t\t\t\tblocks[id].del_blocks[idCurrent].left=idNext;\r\n\t\t\t\t\t\t\tblocks[id].del_blocks[idNext].parent=idCurrent;\r\n\t\t\t\t\t\t\tblocks[id].ID_delegated=blocks[id].ID_delegated+1;\r\n\t\t\t\t\t\t\tblocks[id].del_blocks[idNext].ip_address=ip2;\r\n\t\t\t\t\t\t\tblocks[id].del_blocks[idNext].o_addr=delegated;\r\n\t\t\t\t\t\t\tblocks[id].del_blocks[idNext].mask=mask;\r\n\t\t\t\t\t\t\tblocks[id].del_array_index[blocks[id].del_ID_Index].ind=idNext;\r\n\t\t\t\t\t\t\tblocks[id].del_ID_Index=blocks[id].del_ID_Index+1;\r\n\t\t\t\t\t}else{\r\n\t\t\t\t\t\tidNext=blocks[id].del_blocks[idCurrent].left;\r\n\t\t\t\t\t\tif(PrefCmpZ(blocks[id].del_blocks[idCurrent].ip_address)){ blocks[id].del_blocks[idCurrent].ip_address=app;}\r\n\t\t\t\t\t\tblocks[id].del_blocks[idNext].ip_address=ip2;\r\n\t\t\t\t\t\tblocks[id].del_blocks[idNext].o_addr=delegated;\r\n\t\t\t\t\t\tblocks[id].del_blocks[idNext].mask=mask;\r\n\t\t\t\t\t\tblocks[id].del_array_index[blocks[id].del_ID_Index].ind=idNext;\r\n\t\t\t\t\t\tblocks[id].del_ID_Index=blocks[id].del_ID_Index+1;\r\n\t\t\t\t\t}\r\n\t\t\t\t\t}else{\r\n\t\t\t\t\t\t\tidCurrent=idNext;\r\n\t\t\t\t\t\t\tif(blocks[id].del_blocks[idCurrent].right==0){\r\n\t\t\t\t\t\t\t\t\tif(blocks[id].del_blocks[idCurrent].left==0){\r\n\t\t\t\t\t\t\t\t\tblocks[id].del_blocks[idCurrent].ip_address=app;\r\n\t\t\t\t\t\t\t\t\t}\r\n\t\t\t\t\t\t\tidNext=blocks[id].ID_delegated;\r\n\t\t\t\t\t\t\tblocks[id].del_blocks[idCurrent].right=idNext;\r\n\t\t\t\t\t\t\tblocks[id].del_blocks[idNext].parent=idCurrent;\r\n\t\t\t\t\t\t\tblocks[id].ID_delegated=blocks[id].ID_delegated+1;\r\n\t\t\t\t\t\t\tblocks[id].del_blocks[idNext].ip_address=ip2;\r\n\t\t\t\t\t\t\tblocks[id].del_blocks[idNext].o_addr=delegated;\r\n\t\t\t\t\t\t\tblocks[id].del_blocks[idNext].mask=mask;\r\n\t\t\t\t\r\n\t\t\t\t\t\t\tblocks[id].del_array_index[blocks[id].del_ID_Index].ind=idNext;\r\n\t\t\t\t\t\t\tblocks[id].del_ID_Index=blocks[id].del_ID_Index+1;\r\n\t\t\t\t\t\t\t}else{\r\n\t\t\t\t\t\t\t\t\tidNext=blocks[id].del_blocks[idCurrent].right;\r\n\t\t\t\t\t\t\t\t\tif(PrefCmpZ(blocks[id].del_blocks[idCurrent].ip_address)){ blocks[id].del_blocks[idCurrent].ip_address=app;}\r\n\t\t\t\t\t\t\t\t\tblocks[id].del_blocks[idNext].ip_address=ip2;\r\n\t\t\t\t\t\t\t\t\tblocks[id].del_blocks[idNext].o_addr=delegated;\r\n\t\t\t\t\t\t\t\t\tblocks[id].del_blocks[idNext].mask=mask;\r\n\t\t\t\t\t\t\t\t\tblocks[id].del_array_index[blocks[id].del_ID_Index].ind=idNext;\r\n\t\t\t\t\t\t\t\t\tblocks[id].del_ID_Index=blocks[id].del_ID_Index+1;\r\n\t\t\t\t\t\t\t\t}\r\n\t\t\t\t\t\t}\r\n}\r\n\r\n\r\n\r\nfunction del_find(bytes16 ip, bytes16 ip2, uint8 _mask) public view returns (int) {\r\n\t\t\r\n\t\tint id=find(ip,allocation_prefix_mask);\r\n\t\tif(id==-1)return -1;\r\n\t\tif(is_expired_id(id))return -1;\t\r\n\t\tint id1 = 0;\r\n\t\tint i=0;\r\n\t\tbool ok=false;\r\n       \r\n      \r\n\t\twhile (i<(_mask-allocation_prefix_mask)+1) {\r\n\t\t\t\tif (ip2 == blocks[id].del_blocks[id1].ip_address && _mask==blocks[id].del_blocks[id1].mask) {\r\n\t\t\t\t\t\tok=true;\r\n\t\t\t\t\t\treturn id1;\r\n\t\t\t\t}\r\n       \r\n\t\t\t\tif(!getBit(ip2,(128-(allocation_prefix_mask+uint8(i)+1)))){\r\n\t\t\t\t\t\tid1 = blocks[id].del_blocks[id1].left;\r\n\t\t\t\t}else{\r\n\t\t\t\t\t\tid1 = blocks[id].del_blocks[id1].right;\r\n\t\t\t\t\t}\r\n\t\t\ti=i+1;\r\n\t\t}\r\n\t\tif(ok)return id1; \r\n\t\telse return -2;\r\n}\r\n\r\n\r\n//***********************************************GETTER DELEGATED BLOCK FUNCTIONS *******************************************************************************\r\n\r\n\r\nfunction get_del_Block_id(int id, int id2) view public returns(bytes16, address,uint8,int,int,int){\r\n\t\r\n\trequire(!is_expired_id(id));\r\n\treturn(blocks[id].del_blocks[id2].ip_address,blocks[id].del_blocks[id2].o_addr,blocks[id].del_blocks[id2].mask,blocks[id].del_blocks[id2].parent,blocks[id].del_blocks[id2].left,blocks[id].del_blocks[id2].right);\r\n}\r\n\r\nfunction count_del_Block(bytes16 ip, int start, int stop)view internal returns(uint){\r\n\tint id=find(ip,allocation_prefix_mask);\r\n\tuint count=0;\r\n\tfor(int i=start; i<stop+1; i++){\r\n\t\t\tint a=blocks[id].del_array_index[i].ind;\r\n\t\t\tbytes16 test= blocks[id].del_blocks[a].ip_address;\r\n\t\t\tif(blocks[id].del_blocks[a].mask!=0){\r\n\t\t\t\tcount=count+1;\r\n\t\t\t}\r\n\t}\r\n\treturn count;\r\n\r\n}\r\n\r\n\r\nfunction getIDs_del_Blocks(bytes16 ip, int start, int stop)view public returns(uint[]result){\r\n\t\r\n\tint id=find(ip,allocation_prefix_mask);\r\n\tuint count=count_del_Block(ip,start,stop);\r\n\tresult = new uint[] (count);\r\n\tuint counter=0;\r\n\t\r\n\tfor(int i=start;i<stop+1;i++){\r\n\t\t\tif(blocks[id].del_blocks[blocks[id].del_array_index[i].ind].mask!=0){\r\n\t\t\t\tresult[counter]=uint(blocks[id].del_array_index[i].ind);\r\n\t\t\t\tcounter=counter+1;\r\n\t\t\t}\r\n\t}\r\n\treturn result; \r\n\r\n}\r\n\r\n//******************************************************************************INFO AND ROA FUNCTIONS ******************************************************************************************************\r\nfunction setInfo_del_Block(bytes16 ip_parent, bytes16 ip, uint8 mask, bytes uri, bytes hashFunction, bytes hash) onlySuperUsers(msg.sender) public {\r\n\t\t\t\r\n\t\t\tint id= find(ip_parent,allocation_prefix_mask);\r\n\t\t\trequire(id!=-1);\r\n\t\t\trequire(!is_expired_id(id));\r\n\t\t\tint id2= del_find(ip_parent, ip, mask);\r\n\t\t\trequire(id2!=-1 && id2!=-2);\r\n\t\t\tblocks[id].del_blocks[id2].info.uri=uri;\r\n\t\t\tblocks[id].del_blocks[id2].info.hashFunction=hashFunction;\r\n\t\t\tblocks[id].del_blocks[id2].info.hash=hash;\r\n}\r\n\r\n\r\nfunction setRoa_del_Block(bytes16 ip_parent, bytes16 ip, uint8 mask, bytes ASes) onlySuperUsers(msg.sender) public {\r\n\t\t\t\r\n\t\t\tint id= find(ip_parent,allocation_prefix_mask);\r\n\t\t\trequire(id!=-1);\r\n\t\t\trequire(!is_expired_id(id));\r\n\t\t\tint id2= del_find(ip_parent, ip, mask);\r\n\t\t\trequire(id2!=-1 && id2!=-2);\r\n\t\t\trequire(msg.sender==blocks[id].del_blocks[id2].o_addr);\r\n\t\t\tblocks[id].del_blocks[id2].Roa=ASes;\r\n\t\t\t}\r\n\r\n\r\nfunction get_del_BlockASes(bytes16 ip_parent, bytes16 ip, uint8 mask)view public returns(bytes){\r\n\t\r\n\t\t\tint id= find(ip_parent,allocation_prefix_mask);\r\n\t\t\trequire(id!=-1);\r\n\t\t\trequire(!is_expired_id(id));\r\n\t\t\tint id2= del_find(ip_parent, ip, mask);\r\n\t\t\trequire(id2!=-1 && id2!=-2);\r\n\t\t\treturn blocks[id].del_blocks[id2].Roa;\r\n\t\r\n\r\n}\r\n\r\n\r\n\r\n}//END\r\n\r\n\r\n",
  "sourcePath": "C:\\Users\\User\\Desktop\\Latest Release InBlock\\InBlock_v1.1\\InBlock_v1.1\\InBlock_v1.1\\contracts\\InBlock_F_del.sol",
  "compiler": {
    "name": "solc",
    "version": "0.4.24+commit.e67f0147.Emscripten.clang"
  },
  "schemaVersion": "2.0.1",
  "updatedAt": "2018-09-17T15:56:10.336Z"
}