{
  "contractName": "InBlock",
  "abi": [
    {
      "constant": true,
      "inputs": [],
      "name": "ID_expired",
      "outputs": [
        {
          "name": "",
          "type": "int256"
        }
      ],
      "payable": false,
      "stateMutability": "view",
      "type": "function"
    },
    {
      "constant": false,
      "inputs": [
        {
          "name": "addr",
          "type": "address"
        }
      ],
      "name": "changeUserAccount",
      "outputs": [],
      "payable": false,
      "stateMutability": "nonpayable",
      "type": "function"
    },
    {
      "constant": false,
      "inputs": [],
      "name": "circuitBreaker",
      "outputs": [],
      "payable": false,
      "stateMutability": "nonpayable",
      "type": "function"
    },
    {
      "constant": false,
      "inputs": [
        {
          "name": "addr",
          "type": "address"
        }
      ],
      "name": "addSuperUserAccount",
      "outputs": [],
      "payable": false,
      "stateMutability": "nonpayable",
      "type": "function"
    },
    {
      "constant": true,
      "inputs": [],
      "name": "allocation_prefix_mask",
      "outputs": [
        {
          "name": "",
          "type": "uint8"
        }
      ],
      "payable": false,
      "stateMutability": "view",
      "type": "function"
    },
    {
      "constant": true,
      "inputs": [
        {
          "name": "ip_address",
          "type": "bytes16"
        },
        {
          "name": "_mask",
          "type": "uint8"
        }
      ],
      "name": "find",
      "outputs": [
        {
          "name": "",
          "type": "int256"
        }
      ],
      "payable": false,
      "stateMutability": "view",
      "type": "function"
    },
    {
      "constant": true,
      "inputs": [
        {
          "name": "id",
          "type": "int256"
        }
      ],
      "name": "is_expired_id",
      "outputs": [
        {
          "name": "",
          "type": "bool"
        }
      ],
      "payable": false,
      "stateMutability": "view",
      "type": "function"
    },
    {
      "constant": true,
      "inputs": [],
      "name": "max_allocable_blocks",
      "outputs": [
        {
          "name": "",
          "type": "uint256"
        }
      ],
      "payable": false,
      "stateMutability": "view",
      "type": "function"
    },
    {
      "constant": true,
      "inputs": [
        {
          "name": "ip_parent",
          "type": "bytes16"
        },
        {
          "name": "ip",
          "type": "bytes16"
        },
        {
          "name": "mask",
          "type": "uint8"
        }
      ],
      "name": "get_del_BlockASes",
      "outputs": [
        {
          "name": "",
          "type": "bytes"
        }
      ],
      "payable": false,
      "stateMutability": "view",
      "type": "function"
    },
    {
      "constant": false,
      "inputs": [
        {
          "name": "id",
          "type": "int256"
        }
      ],
      "name": "recover_expired_block",
      "outputs": [],
      "payable": false,
      "stateMutability": "nonpayable",
      "type": "function"
    },
    {
      "constant": false,
      "inputs": [
        {
          "name": "addr",
          "type": "address"
        }
      ],
      "name": "deleteSuperUserAccount",
      "outputs": [],
      "payable": false,
      "stateMutability": "nonpayable",
      "type": "function"
    },
    {
      "constant": true,
      "inputs": [],
      "name": "getRecovered",
      "outputs": [
        {
          "name": "result",
          "type": "uint256[]"
        }
      ],
      "payable": false,
      "stateMutability": "view",
      "type": "function"
    },
    {
      "constant": true,
      "inputs": [],
      "name": "ID_Index",
      "outputs": [
        {
          "name": "",
          "type": "int256"
        }
      ],
      "payable": false,
      "stateMutability": "view",
      "type": "function"
    },
    {
      "constant": true,
      "inputs": [
        {
          "name": "a",
          "type": "address"
        },
        {
          "name": "start",
          "type": "int256"
        },
        {
          "name": "stop",
          "type": "int256"
        }
      ],
      "name": "getIDsBlocks_address",
      "outputs": [
        {
          "name": "result",
          "type": "uint256[]"
        }
      ],
      "payable": false,
      "stateMutability": "view",
      "type": "function"
    },
    {
      "constant": false,
      "inputs": [
        {
          "name": "ip_parent",
          "type": "bytes16"
        },
        {
          "name": "ip",
          "type": "bytes16"
        },
        {
          "name": "mask",
          "type": "uint8"
        },
        {
          "name": "ASes",
          "type": "bytes"
        }
      ],
      "name": "setRoa_del_Block",
      "outputs": [],
      "payable": false,
      "stateMutability": "nonpayable",
      "type": "function"
    },
    {
      "constant": false,
      "inputs": [],
      "name": "toggleCircuit",
      "outputs": [],
      "payable": false,
      "stateMutability": "nonpayable",
      "type": "function"
    },
    {
      "constant": true,
      "inputs": [
        {
          "name": "start",
          "type": "int256"
        },
        {
          "name": "stop",
          "type": "int256"
        }
      ],
      "name": "getIDsBlocks_expired",
      "outputs": [
        {
          "name": "result",
          "type": "uint256[]"
        }
      ],
      "payable": false,
      "stateMutability": "view",
      "type": "function"
    },
    {
      "constant": false,
      "inputs": [
        {
          "name": "parent_ip",
          "type": "bytes16"
        },
        {
          "name": "del_ip",
          "type": "bytes16"
        },
        {
          "name": "mask",
          "type": "uint8"
        }
      ],
      "name": "revoke_delegation",
      "outputs": [],
      "payable": false,
      "stateMutability": "nonpayable",
      "type": "function"
    },
    {
      "constant": true,
      "inputs": [
        {
          "name": "ip",
          "type": "bytes16"
        }
      ],
      "name": "getBlockASes",
      "outputs": [
        {
          "name": "",
          "type": "bytes"
        }
      ],
      "payable": false,
      "stateMutability": "view",
      "type": "function"
    },
    {
      "constant": true,
      "inputs": [],
      "name": "blockprice",
      "outputs": [
        {
          "name": "",
          "type": "uint256"
        }
      ],
      "payable": false,
      "stateMutability": "view",
      "type": "function"
    },
    {
      "constant": true,
      "inputs": [
        {
          "name": "ip",
          "type": "bytes16"
        },
        {
          "name": "start",
          "type": "int256"
        },
        {
          "name": "stop",
          "type": "int256"
        }
      ],
      "name": "getIDs_del_Blocks",
      "outputs": [
        {
          "name": "result",
          "type": "uint256[]"
        }
      ],
      "payable": false,
      "stateMutability": "view",
      "type": "function"
    },
    {
      "constant": false,
      "inputs": [
        {
          "name": "ip",
          "type": "bytes16"
        },
        {
          "name": "ASes",
          "type": "bytes"
        }
      ],
      "name": "setRoaBlock",
      "outputs": [],
      "payable": false,
      "stateMutability": "nonpayable",
      "type": "function"
    },
    {
      "constant": false,
      "inputs": [
        {
          "name": "addr",
          "type": "address"
        }
      ],
      "name": "addUserAccount",
      "outputs": [],
      "payable": false,
      "stateMutability": "nonpayable",
      "type": "function"
    },
    {
      "constant": false,
      "inputs": [
        {
          "name": "ip",
          "type": "bytes16"
        }
      ],
      "name": "Renew_Block",
      "outputs": [
        {
          "name": "",
          "type": "bool"
        },
        {
          "name": "",
          "type": "uint256"
        }
      ],
      "payable": true,
      "stateMutability": "payable",
      "type": "function"
    },
    {
      "constant": true,
      "inputs": [
        {
          "name": "id",
          "type": "int256"
        }
      ],
      "name": "getItem",
      "outputs": [
        {
          "name": "ip",
          "type": "bytes16"
        },
        {
          "name": "o",
          "type": "address"
        },
        {
          "name": "mask",
          "type": "uint8"
        },
        {
          "name": "parent",
          "type": "int256"
        },
        {
          "name": "left",
          "type": "int256"
        },
        {
          "name": "right",
          "type": "int256"
        },
        {
          "name": "_date",
          "type": "uint256"
        },
        {
          "name": "a",
          "type": "bytes"
        },
        {
          "name": "b",
          "type": "bytes"
        },
        {
          "name": "c",
          "type": "bytes"
        },
        {
          "name": "d",
          "type": "bytes"
        }
      ],
      "payable": false,
      "stateMutability": "view",
      "type": "function"
    },
    {
      "constant": true,
      "inputs": [
        {
          "name": "ip",
          "type": "bytes16"
        },
        {
          "name": "ip2",
          "type": "bytes16"
        },
        {
          "name": "_mask",
          "type": "uint8"
        }
      ],
      "name": "del_find",
      "outputs": [
        {
          "name": "",
          "type": "int256"
        }
      ],
      "payable": false,
      "stateMutability": "view",
      "type": "function"
    },
    {
      "constant": true,
      "inputs": [],
      "name": "base_prefix_mask",
      "outputs": [
        {
          "name": "",
          "type": "uint8"
        }
      ],
      "payable": false,
      "stateMutability": "view",
      "type": "function"
    },
    {
      "constant": true,
      "inputs": [],
      "name": "dollars_price",
      "outputs": [
        {
          "name": "",
          "type": "uint256"
        }
      ],
      "payable": false,
      "stateMutability": "view",
      "type": "function"
    },
    {
      "constant": false,
      "inputs": [
        {
          "name": "ip",
          "type": "bytes16"
        }
      ],
      "name": "sequent_allocation",
      "outputs": [
        {
          "name": "",
          "type": "bool"
        }
      ],
      "payable": true,
      "stateMutability": "payable",
      "type": "function"
    },
    {
      "constant": true,
      "inputs": [],
      "name": "initial_block",
      "outputs": [
        {
          "name": "",
          "type": "bytes16"
        }
      ],
      "payable": false,
      "stateMutability": "view",
      "type": "function"
    },
    {
      "constant": true,
      "inputs": [],
      "name": "stopped",
      "outputs": [
        {
          "name": "",
          "type": "bool"
        }
      ],
      "payable": false,
      "stateMutability": "view",
      "type": "function"
    },
    {
      "constant": true,
      "inputs": [],
      "name": "seed",
      "outputs": [
        {
          "name": "",
          "type": "uint256"
        }
      ],
      "payable": false,
      "stateMutability": "view",
      "type": "function"
    },
    {
      "constant": true,
      "inputs": [],
      "name": "owner",
      "outputs": [
        {
          "name": "",
          "type": "address"
        }
      ],
      "payable": false,
      "stateMutability": "view",
      "type": "function"
    },
    {
      "constant": true,
      "inputs": [
        {
          "name": "addr",
          "type": "address"
        }
      ],
      "name": "getUserPrivilege",
      "outputs": [
        {
          "name": "",
          "type": "int256"
        }
      ],
      "payable": false,
      "stateMutability": "view",
      "type": "function"
    },
    {
      "constant": true,
      "inputs": [
        {
          "name": "id",
          "type": "int256"
        },
        {
          "name": "id2",
          "type": "int256"
        }
      ],
      "name": "get_del_Block_id",
      "outputs": [
        {
          "name": "",
          "type": "bytes16"
        },
        {
          "name": "",
          "type": "address"
        },
        {
          "name": "",
          "type": "uint8"
        },
        {
          "name": "",
          "type": "int256"
        },
        {
          "name": "",
          "type": "int256"
        },
        {
          "name": "",
          "type": "int256"
        }
      ],
      "payable": false,
      "stateMutability": "view",
      "type": "function"
    },
    {
      "constant": true,
      "inputs": [],
      "name": "price",
      "outputs": [
        {
          "name": "",
          "type": "uint256"
        }
      ],
      "payable": false,
      "stateMutability": "view",
      "type": "function"
    },
    {
      "constant": true,
      "inputs": [],
      "name": "ID",
      "outputs": [
        {
          "name": "",
          "type": "int256"
        }
      ],
      "payable": false,
      "stateMutability": "view",
      "type": "function"
    },
    {
      "constant": false,
      "inputs": [
        {
          "name": "addr",
          "type": "address"
        }
      ],
      "name": "changeSuperUserAccount",
      "outputs": [],
      "payable": false,
      "stateMutability": "nonpayable",
      "type": "function"
    },
    {
      "constant": true,
      "inputs": [],
      "name": "max_del",
      "outputs": [
        {
          "name": "",
          "type": "uint8"
        }
      ],
      "payable": false,
      "stateMutability": "view",
      "type": "function"
    },
    {
      "constant": false,
      "inputs": [
        {
          "name": "_parent_ip",
          "type": "bytes16"
        },
        {
          "name": "del_ip",
          "type": "bytes16"
        },
        {
          "name": "bar",
          "type": "uint8"
        },
        {
          "name": "delegated_address",
          "type": "address"
        }
      ],
      "name": "delegate_block",
      "outputs": [],
      "payable": false,
      "stateMutability": "nonpayable",
      "type": "function"
    },
    {
      "constant": true,
      "inputs": [],
      "name": "askPriceCost",
      "outputs": [
        {
          "name": "",
          "type": "uint256"
        }
      ],
      "payable": false,
      "stateMutability": "view",
      "type": "function"
    },
    {
      "constant": true,
      "inputs": [
        {
          "name": "start",
          "type": "int256"
        },
        {
          "name": "stop",
          "type": "int256"
        }
      ],
      "name": "getIDsBlocks",
      "outputs": [
        {
          "name": "result",
          "type": "uint256[]"
        }
      ],
      "payable": false,
      "stateMutability": "view",
      "type": "function"
    },
    {
      "constant": false,
      "inputs": [
        {
          "name": "addr",
          "type": "address"
        }
      ],
      "name": "deleteUserAccount",
      "outputs": [],
      "payable": false,
      "stateMutability": "nonpayable",
      "type": "function"
    },
    {
      "constant": true,
      "inputs": [
        {
          "name": "addr",
          "type": "address"
        }
      ],
      "name": "getSuperUserPrivilege",
      "outputs": [
        {
          "name": "",
          "type": "int256"
        }
      ],
      "payable": false,
      "stateMutability": "view",
      "type": "function"
    },
    {
      "constant": false,
      "inputs": [
        {
          "name": "ip_parent",
          "type": "bytes16"
        },
        {
          "name": "ip",
          "type": "bytes16"
        },
        {
          "name": "mask",
          "type": "uint8"
        },
        {
          "name": "uri",
          "type": "bytes"
        },
        {
          "name": "hashFunction",
          "type": "bytes"
        },
        {
          "name": "hash",
          "type": "bytes"
        }
      ],
      "name": "setInfo_del_Block",
      "outputs": [],
      "payable": false,
      "stateMutability": "nonpayable",
      "type": "function"
    },
    {
      "constant": false,
      "inputs": [],
      "name": "sparse_allocation",
      "outputs": [
        {
          "name": "",
          "type": "bool"
        }
      ],
      "payable": true,
      "stateMutability": "payable",
      "type": "function"
    },
    {
      "constant": false,
      "inputs": [
        {
          "name": "ip",
          "type": "bytes16"
        },
        {
          "name": "uri",
          "type": "bytes"
        },
        {
          "name": "hashFunction",
          "type": "bytes"
        },
        {
          "name": "hash",
          "type": "bytes"
        }
      ],
      "name": "setInfoBlock",
      "outputs": [],
      "payable": false,
      "stateMutability": "nonpayable",
      "type": "function"
    },
    {
      "inputs": [],
      "payable": false,
      "stateMutability": "nonpayable",
      "type": "constructor"
    },
    {
      "anonymous": false,
      "inputs": [
        {
          "indexed": false,
          "name": "text",
          "type": "string"
        }
      ],
      "name": "Log",
      "type": "event"
    },
    {
      "constant": false,
      "inputs": [
        {
          "name": "id",
          "type": "int256"
        }
      ],
      "name": "expire",
      "outputs": [],
      "payable": false,
      "stateMutability": "nonpayable",
      "type": "function"
    },
    {
      "constant": false,
      "inputs": [
        {
          "name": "id",
          "type": "int256"
        }
      ],
      "name": "setID",
      "outputs": [],
      "payable": false,
      "stateMutability": "nonpayable",
      "type": "function"
    },
    {
      "constant": false,
      "inputs": [
        {
          "name": "i",
          "type": "int256"
        }
      ],
      "name": "test",
      "outputs": [
        {
          "name": "",
          "type": "int256"
        }
      ],
      "payable": false,
      "stateMutability": "nonpayable",
      "type": "function"
    },
    {
      "constant": false,
      "inputs": [],
      "name": "stub",
      "outputs": [],
      "payable": false,
      "stateMutability": "nonpayable",
      "type": "function"
    },
    {
      "constant": false,
      "inputs": [],
      "name": "stub2",
      "outputs": [],
      "payable": false,
      "stateMutability": "nonpayable",
      "type": "function"
    },
    {
      "constant": false,
      "inputs": [
        {
          "name": "i",
          "type": "int256"
        }
      ],
      "name": "setID_index",
      "outputs": [],
      "payable": false,
      "stateMutability": "nonpayable",
      "type": "function"
    },
    {
      "constant": false,
      "inputs": [
        {
          "name": "ip",
          "type": "bytes16"
        },
        {
          "name": "_base_prefix_mask",
          "type": "uint8"
        },
        {
          "name": "_allocation_prefix_mask",
          "type": "uint8"
        }
      ],
      "name": "InitInBlock",
      "outputs": [],
      "payable": false,
      "stateMutability": "nonpayable",
      "type": "function"
    },
    {
      "constant": false,
      "inputs": [
        {
          "name": "a",
          "type": "uint256"
        }
      ],
      "name": "setDollarsPrice",
      "outputs": [],
      "payable": false,
      "stateMutability": "nonpayable",
      "type": "function"
    },
    {
      "constant": false,
      "inputs": [],
      "name": "askPrice",
      "outputs": [],
      "payable": true,
      "stateMutability": "payable",
      "type": "function"
    },
    {
      "constant": false,
      "inputs": [
        {
          "name": "myid",
          "type": "bytes32"
        },
        {
          "name": "result",
          "type": "string"
        },
        {
          "name": "proof",
          "type": "bytes"
        }
      ],
      "name": "__callback",
      "outputs": [],
      "payable": false,
      "stateMutability": "nonpayable",
      "type": "function"
    },
    {
      "constant": false,
      "inputs": [
        {
          "name": "_myid",
          "type": "bytes32"
        },
        {
          "name": "_result",
          "type": "string"
        }
      ],
      "name": "__callback",
      "outputs": [],
      "payable": false,
      "stateMutability": "nonpayable",
      "type": "function"
    },
    {
      "constant": false,
      "inputs": [
        {
          "name": "new_owner",
          "type": "address"
        }
      ],
      "name": "changeOwner",
      "outputs": [],
      "payable": false,
      "stateMutability": "nonpayable",
      "type": "function"
    },
    {
      "constant": false,
      "inputs": [
        {
          "name": "ip",
          "type": "bytes16"
        },
        {
          "name": "new_owner",
          "type": "address"
        }
      ],
      "name": "transferOwnership",
      "outputs": [],
      "payable": false,
      "stateMutability": "nonpayable",
      "type": "function"
    },
    {
      "constant": false,
      "inputs": [],
      "name": "pay",
      "outputs": [],
      "payable": true,
      "stateMutability": "payable",
      "type": "function"
    }
  ],
  "bytecode": "0x608060405234801561001057600080fd5b50600a80546000600b81905560055560a060020a60ff0219600160a060020a03199182163317167401000000000000000000000000000000000000000017909155660e4f2bfbc3080060025560108054909116736f485c8bf6fc43ea212e93bbf8ce046c7f1cb475179055674563918244f40000600855615f6b80620000976000396000f3006080604052600436106102bb5763ffffffff60e060020a60003504166306cd8b7581146102c05780630731137c146102e757806316efd9411461030a578063198a20cd1461031f5780631a7f57ad146103405780631b25b81d1461036b5780631b9265b8146103935780631bc200501461039b5780632059b40d146103c757806325f62210146103dc578063275979251461040a57806327dc297e146104ad57806327dd37d31461050b578063310c3fd81461052357806337c454e91461054457806338bbfa50146105a957806339b17f45146106455780633ae5e3071461065d578063414366a41461067257806343f90ac11461068a5780634551c83b146106b157806349621851146107245780634c219e1a146107395780634dfaeeab14610754578063517a5e8514610769578063568dabfb1461078157806358416ae4146107af5780635881db90146107d1578063591dbfea146107e65780635a0e0c711461080e57806364a6a2871461087657806368a80e68146108975780636e53d065146108c7578063702335e614610af8578063706c3eae14610b26578063715edd5b14610b3b578063716e22e614610b50578063743d9ff814610b6557806375f12b2114610b975780637d94792a14610bac578063813564de14610bc157806385f13a7914610bc95780638da5cb5b14610be1578063941f1bbd14610c1257806396dbab8114610c335780639b22c05d14610c485780639c7ce74314610c605780639d27c40e14610c8e578063a035b1fe14610cf1578063a6f9dae114610d06578063b3cea21714610d27578063bb28b17c14610d3c578063c5ba2bd414610d5d578063cd0db35014610d72578063d0b6d75e14610dac578063d69fc48b14610dc1578063dcba957f14610ddc578063ddc41c5f14610dfd578063e07bc76314610e1e578063e18e9cdc14610f0d578063eec9543914610f15575b600080fd5b3480156102cc57600080fd5b506102d5610ff9565b60408051918252519081900360200190f35b3480156102f357600080fd5b50610308600160a060020a0360043516610fff565b005b34801561031657600080fd5b50610308611080565b34801561032b57600080fd5b50610308600160a060020a03600435166110a9565b34801561034c57600080fd5b506103556110e9565b6040805160ff9092168252519081900360200190f35b34801561037757600080fd5b506102d56001608060020a03196004351660ff602435166110f9565b610308611206565b3480156103a757600080fd5b506103b3600435611208565b604080519115158252519081900360200190f35b3480156103d357600080fd5b506102d5611255565b3480156103e857600080fd5b506103086001608060020a031960043516600160a060020a036024351661125b565b34801561041657600080fd5b506104386001608060020a03196004358116906024351660ff60443516611350565b6040805160208082528351818301528351919283929083019185019080838360005b8381101561047257818101518382015260200161045a565b50505050905090810190601f16801561049f5780820380516001836020036101000a031916815260200191505b509250505060405180910390f35b3480156104b957600080fd5b5060408051602060046024803582810135601f810185900485028601850190965285855261030895833595369560449491939091019190819084018382808284375094975061146f9650505050505050565b34801561051757600080fd5b50610308600435611551565b34801561052f57600080fd5b50610308600160a060020a0360043516611687565b34801561055057600080fd5b506105596116e2565b60408051602080825283518183015283519192839290830191858101910280838360005b8381101561059557818101518382015260200161057d565b505050509050019250505060405180910390f35b3480156105b557600080fd5b5060408051602060046024803582810135601f810185900485028601850190965285855261030895833595369560449491939091019190819084018382808284375050604080516020601f89358b018035918201839004830284018301909452808352979a9998810197919650918201945092508291508401838280828437509497506117679650505050505050565b34801561065157600080fd5b5061030860043561176c565b34801561066957600080fd5b506102d561178a565b34801561067e57600080fd5b50610308600435611790565b34801561069657600080fd5b50610559600160a060020a0360043516602435604435611795565b3480156106bd57600080fd5b50604080516020601f606435600481810135928301849004840285018401909552818452610308946001608060020a03198135811695602480359092169560ff604435169536956084940191819084018382808284375094975061187c9650505050505050565b34801561073057600080fd5b50610308611989565b34801561074557600080fd5b506105596004356024356119c4565b34801561076057600080fd5b50610308611a67565b34801561077557600080fd5b50610308600435611a84565b34801561078d57600080fd5b506103086001608060020a03196004358116906024351660ff60443516611a89565b3480156107bb57600080fd5b506104386001608060020a031960043516611f27565b3480156107dd57600080fd5b506102d561200c565b3480156107f257600080fd5b506105596001608060020a031960043516602435604435612012565b34801561081a57600080fd5b5060408051602060046024803582810135601f81018590048502860185019096528585526103089583356001608060020a03191695369560449491939091019190819084018382808284375094975061210c9650505050505050565b34801561088257600080fd5b50610308600160a060020a03600435166121d0565b6108ac6001608060020a031960043516612248565b60408051921515835260208301919091528051918290030190f35b3480156108d357600080fd5b506108df60043561246d565b604051808c6fffffffffffffffffffffffffffffffff19166fffffffffffffffffffffffffffffffff191681526020018b600160a060020a0316600160a060020a031681526020018a60ff1660ff16815260200189815260200188815260200187815260200186815260200180602001806020018060200180602001858103855289818151815260200191508051906020019080838360005b83811015610990578181015183820152602001610978565b50505050905090810190601f1680156109bd5780820380516001836020036101000a031916815260200191505b5085810384528851815288516020918201918a019080838360005b838110156109f05781810151838201526020016109d8565b50505050905090810190601f168015610a1d5780820380516001836020036101000a031916815260200191505b50858103835287518152875160209182019189019080838360005b83811015610a50578181015183820152602001610a38565b50505050905090810190601f168015610a7d5780820380516001836020036101000a031916815260200191505b50858103825286518152865160209182019188019080838360005b83811015610ab0578181015183820152602001610a98565b50505050905090810190601f168015610add5780820380516001836020036101000a031916815260200191505b509f5050505050505050505050505050505060405180910390f35b348015610b0457600080fd5b506102d56001608060020a03196004358116906024351660ff60443516612739565b348015610b3257600080fd5b506103556128c1565b348015610b4757600080fd5b506102d56128d1565b6103b36001608060020a0319600435166128d7565b348015610b7157600080fd5b50610b7a612d11565b604080516001608060020a03199092168252519081900360200190f35b348015610ba357600080fd5b506103b3612d1d565b348015610bb857600080fd5b506102d5612d2d565b610308612d33565b348015610bd557600080fd5b50610308600435612e4d565b348015610bed57600080fd5b50610bf6612e69565b60408051600160a060020a039092168252519081900360200190f35b348015610c1e57600080fd5b506102d5600160a060020a0360043516612e78565b348015610c3f57600080fd5b50610308612e93565b348015610c5457600080fd5b506102d5600435612eb0565b348015610c6c57600080fd5b506103086001608060020a03196004351660ff60243581169060443516612ec2565b348015610c9a57600080fd5b50610ca9600435602435613019565b604080516001608060020a03199097168752600160a060020a03909516602087015260ff909316858501526060850191909152608084015260a0830152519081900360c00190f35b348015610cfd57600080fd5b506102d5613095565b348015610d1257600080fd5b50610308600160a060020a036004351661309b565b348015610d3357600080fd5b506102d56130d4565b348015610d4857600080fd5b50610308600160a060020a03600435166130da565b348015610d6957600080fd5b5061035561315b565b348015610d7e57600080fd5b506103086001608060020a03196004358116906024351660ff60443516600160a060020a036064351661317d565b348015610db857600080fd5b506102d5613515565b348015610dcd57600080fd5b5061055960043560243561351b565b348015610de857600080fd5b50610308600160a060020a03600435166135f6565b348015610e0957600080fd5b506102d5600160a060020a036004351661366d565b348015610e2a57600080fd5b50604080516020601f606435600481810135928301849004840285018401909552818452610308946001608060020a03198135811695602480359092169560ff604435169536956084940191819084018382808284375050604080516020601f89358b018035918201839004830284018301909452808352979a99988101979196509182019450925082915084018382808284375050604080516020601f89358b018035918201839004830284018301909452808352979a9998810197919650918201945092508291508401838280828437509497506136889650505050505050565b6103b36137c5565b348015610f2157600080fd5b5060408051602060046024803582810135601f81018590048502860185019096528585526103089583356001608060020a03191695369560449491939091019190819084018382808284375050604080516020601f89358b018035918201839004830284018301909452808352979a99988101979196509182019450925082915084018382808284375050604080516020601f89358b018035918201839004830284018301909452808352979a999881019791965091820194509250829150840183828082843750949750613b159650505050505050565b60075481565b3360009081526020819052604090205460031461101b57600080fd5b33600081815260208190526040808220828155600160a060020a03851683529082206003905591905260019081015460ff161515141561107d5760006020819052600160a060020a0382168152604090206001908101805460ff191690911790555b50565b600a54600160a060020a0316331461109757600080fd5b600a805460a060020a60ff0219169055565b600a54600160a060020a031633146110c057600080fd5b600160a060020a031660009081526001602081905260409091206002815501805460ff19169055565b600a5460b060020a900460ff1681565b60008080805b600954600a54600160ff608060020a909304831660b060020a90920483169190910301168212156111e9576000838152600f60205260409020546001608060020a0319878116608060020a9092021614801561117857506000838152600f602052604090206001015460ff86811660a060020a90920416145b1561118957600190508293506111fd565b6111aa8683600960109054906101000a900460ff1601600101608003613bf8565b15156111c9576000928352600f602052604090922060040154916111de565b6000928352600f602052604090922060050154915b8160010191506110ff565b80156111f7578293506111fd565b60001993505b50505092915050565b565b6000818152600f60205260408120600201546301e1338001421080159061123f57506000828152600f602052604090206002015415155b1561124c57506001611250565b5060005b919050565b600c5481565b600061127683600a60169054906101000a900460ff166110f9565b905060001981141561128757600080fd5b6000818152600f6020526040902060010154600160a060020a0316331461131e576040805160e560020a62461bcd02815260206004820152602260248201527f596f7520617265206e6f7420746865206f776e6572206f662074686520626c6f60448201527f636b000000000000000000000000000000000000000000000000000000000000606482015290519081900360840190fd5b6000908152600f602052604090206001018054600160a060020a031916600160a060020a039290921691909117905550565b606060008061136e86600a60169054906101000a900460ff166110f9565b915060001982141561137f57600080fd5b61138882611208565b1561139257600080fd5b61139d868686612739565b905080600019141580156113b357508060011914155b15156113be57600080fd5b6000828152600f60209081526040808320848452600a0182529182902060080180548351601f60026000196101006001861615020190931692909204918201849004840281018401909452808452909183018282801561145f5780601f106114345761010080835404028352916020019161145f565b820191906000526020600020905b81548152906001019060200180831161144257829003601f168201915b5050505050925050509392505050565b611477613c21565b600160a060020a0316331461148b57600080fd5b7fcf34ef537ac33ee1ac626ca1587a0a7e8e51561e5514f8cb36afa1c5102b3bab816040518080602001828103825283818151815260200191508051906020019080838360005b838110156114ea5781810151838201526020016114d2565b50505050905090810190601f1680156115175780820380516001836020036101000a031916815260200191505b509250505060405180910390a161152f816002613e17565b6003819055600454611542916005613f89565b6509184e72a000026008555050565b600a54600160a060020a0316331461156857600080fd5b61157181611208565b151561157c57600080fd5b6000818152600f6020818152604080842060018101805474ffffffffffffffffffffffffffffffffffffffffff1916905560028101859055815180840192839052858152948690529290915291516115da9260069092019190615ea7565b506040805160208181018084526000808452858152600f90925292902090516116099260079092019190615ea7565b506040805160208181018084526000808452858152600f90925292902090516116389260089092019190615ea7565b506040805160208181018084526000808452858152600f90925292902090516116679260099092019190615ea7565b50600780546000908152600e602052604090209190915580546001019055565b600a54600160a060020a0316331461169e57600080fd5b600160a060020a0381166000908152600160208190526040909120015460ff16156116c857600080fd5b600160a060020a0316600090815260016020526040812055565b60606000806000600754925082604051908082528060200260200182016040528015611718578160200160208202803883390190505b50935060009150600090505b600754811215611761576000818152600e6020526040902054845185908490811061174b57fe5b6020908102909101015260019182019101611724565b50505090565b505050565b6000908152600f60205260409020600201805463020f57ff19019055565b60065481565b600655565b606060008060006117a7878787613fbe565b9250826040519080825280602002602001820160405280156117d3578160200160208202803883390190505b509350600091508590505b84600101811215611872576000818152600d60209081526040808320548352600f909152902060010154600160a060020a03888116911614801561183757506000818152600d602052604090205461183590611208565b155b1561186a576000818152600d6020526040902054845185908490811061185957fe5b602090810290910101526001909101905b6001016117de565b5050509392505050565b3360008181526001602052604081205490918291600214806118a85750600a54600160a060020a031633145b15156118b357600080fd5b600a546118cb90889060b060020a900460ff166110f9565b92506000198314156118dc57600080fd5b6118e583611208565b156118ef57600080fd5b6118fa878787612739565b9150816000191415801561191057508160011914155b151561191b57600080fd5b6000838152600f60209081526040808320858452600a01909152902060010154600160a060020a0316331461194f57600080fd5b6000838152600f60209081526040808320858452600a018252909120855161197f92600890920191870190615ea7565b5050505050505050565b600a54600160a060020a031633146119a057600080fd5b600a805460a060020a60ff0219811660a060020a9182900460ff1615909102179055565b606060008060006119d58686614039565b925082604051908082528060200260200182016040528015611a01578160200160208202803883390190505b509350600091508590505b848112156111fd576000818152600d6020526040902054611a2c90611208565b15611a5f576000818152600d60205260409020548451859084908110611a4e57fe5b602090810290910101526001909101905b600101611a0c565b60005b601981121561107d57611a7b6137c5565b50600101611a6a565b600555565b6000806000806000600a60149054906101000a900460ff1615611aab57600080fd5b3360008181526020819052604090205460031480611ae15750600160a060020a0381166000908152600160205260409020546002145b80611af65750600a54600160a060020a031633145b1515611b0157600080fd5b600a54611b19908a9060b060020a900460ff166110f9565b9550600019861415611b2a57600080fd5b611b3386611208565b15611b3d57600080fd5b6000868152600f6020526040902060010154600160a060020a03163314611bae576040805160e560020a62461bcd02815260206004820152601a60248201527f4f7065726174696f6e206e6f7420417574686f72697a65642121000000000000604482015290519081900360640190fd5b611bb9898989612739565b94508460001914158015611bcf57508460011914155b1515611bda57600080fd5b6000868152600f60209081526040808320888452600a0180835281842080546001608060020a031916815560018101805474ffffffffffffffffffffffffffffffffffffffffff19169055825180850193849052858152948a905292529151611c499260089092019190615ea7565b5060408051602081810180845260008084528a8152600f83528481208a8252600a019092529290209051611c839260059092019190615ea7565b5060408051602081810180845260008084528a8152600f83528481208a8252600a019092529290209051611cbd9260069092019190615ea7565b5060408051602081810180845260008084528a8152600f83528481208a8252600a019092529290209051611cf79260079092019190615ea7565b50849350849250600091505b600a54600160ff60b060020a909204821689030116821215611f1c576000868152600f60209081526040808320878452600a01909152902060020154939250611d53886080899003849003613bf8565b1515611e52576000868152600f60209081526040808320878452600a0190915290206004015415611de8576000868152600f60209081526040808320878452600a01909152808220600401548252902054611db390608060020a0261407a565b15611de3576000868152600f60209081526040808320878452600a01909152902080546001608060020a03191690555b611e4d565b6000868152600f60209081526040808320878452600a01909152808220600301548252902054611e1d90608060020a0261407a565b15611e4d576000868152600f60209081526040808320878452600a01909152902080546001608060020a03191690555b611f11565b6000868152600f60209081526040808320878452600a0190915290206003015415611eac576000868152600f60209081526040808320878452600a01909152808220600301548252902054611e1d90608060020a0261407a565b6000868152600f60209081526040808320878452600a01909152808220600401548252902054611ee190608060020a0261407a565b15611f11576000868152600f60209081526040808320878452600a01909152902080546001608060020a03191690555b600190910190611d03565b505050505050505050565b60606000611f4483600a60169054906101000a900460ff166110f9565b9050600019811415611f5557600080fd5b611f5e81611208565b15611f6857600080fd5b6000818152600f602090815260409182902060090180548351601f600260001961010060018616150201909316929092049182018490048402810184019094528084529091830182828015611ffe5780601f10611fd357610100808354040283529160200191611ffe565b820191906000526020600020905b815481529060010190602001808311611fe157829003601f168201915b505050505091505b50919050565b60085481565b606060008060008061203388600a60169054906101000a900460ff166110f9565b93506120408888886140cd565b92508260405190808252806020026020018201604052801561206c578160200160208202803883390190505b509450600091508690505b85600101811215612101576000848152600f60209081526040808320848452600b81018352818420548452600a0190915290206001015460a060020a900460ff16156120f9576000848152600f60209081526040808320848452600b0190915290205485518690849081106120e857fe5b602090810290910101526001909101905b600101612077565b505050509392505050565b33600081815260016020526040812054909190600214806121375750600a54600160a060020a031633145b151561214257600080fd5b600a5461215a90859060b060020a900460ff166110f9565b915060001982141561216b57600080fd5b61217482611208565b1561217e57600080fd5b6000828152600f6020526040902060010154600160a060020a031633146121a457600080fd5b6000828152600f6020908152604090912084516121c992600990920191860190615ea7565b5050505050565b33600081815260016020526040902054600214806121f85750600a54600160a060020a031633145b151561220357600080fd5b3360009081526001602052604090205460021461221f57600080fd5b50600160a060020a0316600090815260208190526040902060038155600101805460ff19169055565b600080600080600a60149054906101000a900460ff161561226857600080fd5b336000818152602081905260409020546003148061229e5750600160a060020a0381166000908152600160205260409020546002145b806122b35750600a54600160a060020a031633145b15156122be57600080fd5b6008543414612317576040805160e560020a62461bcd02815260206004820152600c60248201527f5072696365204572726f722e0000000000000000000000000000000000000000604482015290519081900360640190fd5b600a5461232f90879060b060020a900460ff166110f9565b925060001983141561234057600080fd5b61234983611208565b1561235357600080fd5b6000838152600f6020526040902060010154600160a060020a031633146123ea576040805160e560020a62461bcd02815260206004820152602260248201527f596f7520617265206e6f7420746865206f776e6572206f662074686520626c6f60448201527f636b000000000000000000000000000000000000000000000000000000000000606482015290519081900360840190fd5b6000838152600f6020526040808220600201805442908190039081016301e13380908101909255600a54925191019450600160a060020a03909116913480156108fc02929091818181858888f1935050505015801561244d573d6000803e3d6000fd5b5050506000908152600f6020526040902060020154600194909350915050565b6000818152600f60209081526040918290206003810154600482015460058301548354600180860154600280880154600690980180548b516101009582161595909502600019011691909104601f81018a90048a0284018a01909a52898352608060020a90930298600160a060020a0382169860a060020a90920460ff169793606093849384938493918301828280156125485780601f1061251d57610100808354040283529160200191612548565b820191906000526020600020905b81548152906001019060200180831161252b57829003601f168201915b50505060008f8152600f60209081526040918290206008018054835160026001831615610100026000190190921691909104601f810184900484028201840190945283815295995093509091508301828280156125e65780601f106125bb576101008083540402835291602001916125e6565b820191906000526020600020905b8154815290600101906020018083116125c957829003601f168201915b50505060008f8152600f60209081526040918290206007018054835160026001831615610100026000190190921691909104601f810184900484028201840190945283815295985093509091508301828280156126845780601f1061265957610100808354040283529160200191612684565b820191906000526020600020905b81548152906001019060200180831161266757829003601f168201915b50505060008f8152600f60209081526040918290206009018054835160026001831615610100026000190190921691909104601f810184900484028201840190945283815295975093509091508301828280156127225780601f106126f757610100808354040283529160200191612722565b820191906000526020600020905b81548152906001019060200180831161270557829003601f168201915b509394505050505091939597999b90929496989a50565b600080600080600061275a88600a60169054906101000a900460ff166110f9565b9350836000191415612770576000199450612101565b61277984611208565b15612788576000199450612101565b5060009150819050805b600a54600160ff60b060020a9092048216880301168212156128a9576000848152600f60209081526040808320868452600a019091529020546001608060020a0319888116608060020a9092021614801561281857506000848152600f60209081526040808320868452600a0190915290206001015460ff87811660a060020a90920416145b156128295760019050829450612101565b61284a8783600a60169054906101000a900460ff1601600101608003613bf8565b1515612879576000848152600f60209081526040808320958352600a909501905292909220600301549161289e565b6000848152600f60209081526040808320958352600a90950190529290922060040154915b816001019150612792565b80156128b757829450612101565b6001199450612101565b600954608060020a900460ff1681565b60045481565b600080600080600a60149054906101000a900460ff16156128f757600080fd5b336000818152602081905260409020546003148061292d5750600160a060020a0381166000908152600160205260409020546002145b806129425750600a54600160a060020a031633145b151561294d57600080fd5b6006546110001361295d57600080fd5b346672a57c275dc8006008540311158061298257506008546672a57c275dc800013411155b15156129d8576040805160e560020a62461bcd02815260206004820152600b60248201527f5072696365206572726f72000000000000000000000000000000000000000000604482015290519081900360640190fd5b600a546129f090879060b060020a900460ff166110f9565b9350600019841415612a4c576040805160e560020a62461bcd02815260206004820152601760248201527f54686520626c6f636b20646f65736e2774206578697374000000000000000000604482015290519081900360640190fd5b612a5584611208565b15612a5f57600080fd5b6000848152600f6020526040902060010154600160a060020a03163314612ad0576040805160e560020a62461bcd02815260206004820152601660248201527f596f7520617265206e6f7420417574686f72697a656400000000000000000000604482015290519081900360640190fd5b600a54612aeb90879060b060020a900460ff16608003613bf8565b1515612b1357600a54612b0c90879060b060020a900460ff16608003614171565b9550612bf0565b600a54612b2e90879060b060020a900460ff1660800361418d565b9550600192505b600954600a5460ff608060020a909204821660b060020a90910482160381169084161015612bf057612b7b8684600a60169054906101000a900460ff1603608003613bf8565b15612bab57612b9e8684600a60169054906101000a900460ff160360800361418d565b9550600190920191612beb565b612bc98684600a60169054906101000a900460ff1603608003614171565b600954600a5491975060ff608060020a909104811660b060020a909204160392505b612b35565b600a54612c0890879060b060020a900460ff166110f9565b91508160001914158015612c205750612c2084611208565b15612ce257612c2f86836141b8565b3360009081526020819052604090205460031415612c67573360009081526020819052604090206001908101805460ff191690911790555b3360009081526001602052604090205460021415612c9f573360009081526001602081905260409091208101805460ff191690911790555b600a54604051600160a060020a03909116903480156108fc02916000818181858888f19350505050158015612cd8573d6000803e3d6000fd5b5060019450612d08565b6000198214612cf057600080fd5b600a54612c2f90879060b060020a900460ff166142d2565b50505050919050565b600954608060020a0281565b600a5460a060020a900460ff1681565b600b5481565b6002543414612d8c576040805160e560020a62461bcd02815260206004820152600b60248201527f5072696365204572726f72000000000000000000000000000000000000000000604482015290519081900360640190fd5b61107d6040805190810160405280600381526020017f55524c0000000000000000000000000000000000000000000000000000000000815250608060405190810160405280604981526020017f6a736f6e2868747470733a2f2f6d696e2d6170692e63727970746f636f6d706181526020017f72652e636f6d2f646174612f70726963653f6673796d3d455448267473796d7381526020017f3d555344292e55534400000000000000000000000000000000000000000000008152506146c3565b600a54600160a060020a03163314612e6457600080fd5b600455565b600a54600160a060020a031681565b600160a060020a031660009081526020819052604090205490565b60005b600f81121561107d57612ea76137c5565b50600101612e96565b6000908152600d602052604090205490565b600a54600160a060020a03163314612ed957600080fd5b60098054600a8054608060020a70ff000000000000000000000000000000001990931660ff9687168402178381048716808703881660020a600c5560016005556000808052600f6020527ff4803e074bd026baaf6ed2e288c9515f68c72fb7216eebdd7cae1718a53ec37580546001608060020a031990811697909b0496871790557ff4803e074bd026baaf6ed2e288c9515f68c72fb7216eebdd7cae1718a53ec376805433600160a060020a03199091161760a060020a60ff021990811660a060020a9094029390931790559890911690931790935560069590955576ff000000000000000000000000000000000000000000001990911660b060020a92909316919091029190911775ff0000000000000000000000000000000000000000001916753000000000000000000000000000000000000000000017169055565b60008060008060008061302b88611208565b1561303557600080fd5b50505060009485525050600f60209081526040808520938552600a90930190525090208054600182015460028301546003840154600490940154608060020a90930294600160a060020a0383169460a060020a90930460ff169391929190565b60035481565b600a54600160a060020a031633146130b257600080fd5b600a8054600160a060020a031916600160a060020a0392909216919091179055565b60055481565b336000908152600160205260409020546002146130f657600080fd5b336000818152600160208190526040808320838155600160a060020a038616845290832060029055929091529081015460ff161515141561107d5760016020819052600160a060020a0382166000908152604090208101805460ff1916909117905550565b600a547501000000000000000000000000000000000000000000900460ff1681565b600a54600090819060a060020a900460ff161561319957600080fd5b33600081815260208190526040902054600314806131cf5750600160a060020a0381166000908152600160205260409020546002145b806131e45750600a54600160a060020a031633145b15156131ef57600080fd5b600a5460ff75010000000000000000000000000000000000000000009091048116908616111561321e57600080fd5b600a5461323890889060b060020a900460ff168888614ab8565b151561328e576040805160e560020a62461bcd02815260206004820152601e60248201527f54686520656e7465726564206970206973206f7574206f662072616e67650000604482015290519081900360640190fd5b600a546132a690889060b060020a900460ff166110f9565b6000818152600f6020526040902060010154909350600160a060020a0316331461331a576040805160e560020a62461bcd02815260206004820152601960248201527f4f7065726174696f6e206e6f7420617574686f72697a65642100000000000000604482015290519081900360640190fd5b613325878787614b1a565b15156133a1576040805160e560020a62461bcd02815260206004820152603360248201527f54686520656e746572656420626c6f636b2069732070617274206f6620616e6f60448201527f74686572206578697374696e6720626c6f636b00000000000000000000000000606482015290519081900360840190fd5b6133ac878787612739565b915081600019141580156133c257508160011914155b1561346c576133d387878787614f27565b600160a060020a0384166000908152602081905260409020546003141561341d57600160a060020a03841660009081526020819052604090206001908101805460ff191690911790555b600160a060020a0384166000908152600160205260409020546002141561346757600160a060020a03841660009081526001602081905260409091208101805460ff191690911790555b61350c565b61347887878787614f27565b600160a060020a038416600090815260208190526040902054600314156134c257600160a060020a03841660009081526020819052604090206001908101805460ff191690911790555b600160a060020a0384166000908152600160205260409020546002141561350c57600160a060020a03841660009081526001602081905260409091208101805460ff191690911790555b50505050505050565b60025481565b6060600080600061352c8686615a81565b925082604051908082528060200260200182016040528015613558578160200160208202803883390190505b509350600091508590505b846001018112156111fd576000818152600d60209081526040808320548352600f90915290205461359990608060020a0261407a565b1580156135bb57506000818152600d60205260409020546135b990611208565b155b156135ee576000818152600d602052604090205484518590849081106135dd57fe5b602090810290910101526001909101905b600101613563565b336000818152600160205260409020546002148061361e5750600a54600160a060020a031633145b151561362957600080fd5b600160a060020a03821660009081526020819052604090206001015460ff161561365257600080fd5b50600160a060020a0316600090815260208190526040812055565b600160a060020a031660009081526001602052604090205490565b3360008181526001602052604081205490918291600214806136b45750600a54600160a060020a031633145b15156136bf57600080fd5b600a546136d7908a9060b060020a900460ff166110f9565b92506000198314156136e857600080fd5b6136f183611208565b156136fb57600080fd5b613706898989612739565b9150816000191415801561371c57508160011914155b151561372757600080fd5b6000838152600f60209081526040808320858452600a018252909120875161375792600590920191890190615ea7565b506000838152600f60209081526040808320858452600a018252909120865161378892600690920191880190615ea7565b506000838152600f60209081526040808320858452600a01825290912085516137b992600790920191870190615ea7565b50505050505050505050565b33600081815260208190526040812054909182918291829182918291600314806138075750600160a060020a0381166000908152600160205260409020546002145b8061381c5750600a54600160a060020a031633145b151561382757600080fd5b346672a57c275dc8006008540311158061384c57506008546672a57c275dc800013411155b15156138a2576040805160e560020a62461bcd02815260206004820152600b60248201527f5072696365206572726f72000000000000000000000000000000000000000000604482015290519081900360640190fd5b60009550600654611000141561397e5760075415156138c057600080fd5b600754600019016000908152600e6020908152604080832054808452600f90925290912054909550608060020a0293506138fa84866141b8565b3360009081526020819052604090205460031415613932573360009081526020819052604090206001908101805460ff191690911790555b336000908152600160205260409020546002141561396a573360009081526001602081905260409091208101805460ff191690911790555b613972615af2565b60019550859650613b0c565b600954600b54608060020a9091029350600116156139b8576139b583600960109054906101000a900460ff16600101608003614171565b92505b600191505b600954600a5460ff608060020a909204821660b060020a90910482160381169083161015613a395760028260ff1660020a600b548115156139fa57fe5b04811515613a0457fe5b0615613a2e57613a2b8383600960109054906101000a900460ff1660010101608003614171565b92505b6001909101906139bd565b600a54613a5190849060b060020a900460ff166142d2565b3360009081526020819052604090205460031415613a89573360009081526020819052604090206001908101805460ff191690911790555b3360009081526001602052604090205460021415613ac1573360009081526001602081905260409091208101805460ff191690911790555b600b80546001019055600a54604051600160a060020a03909116903480156108fc02916000818181858888f19350505050158015613b03573d6000803e3d6000fd5b50600195508596505b50505050505090565b3360008181526001602052604081205490919060021480613b405750600a54600160a060020a031633145b1515613b4b57600080fd5b600a54613b6390879060b060020a900460ff166110f9565b9150600019821415613b7457600080fd5b613b7d82611208565b15613b8757600080fd5b6000828152600f602090815260409091208651613bac92600690920191880190615ea7565b506000828152600f602090815260409091208551613bd292600790920191870190615ea7565b506000828152600f60209081526040909120845161350c92600890920191860190615ea7565b6000613c0b608060020a60ff8416615b0f565b929092166001608060020a031916151592915050565b601054600090600160a060020a03161580613c4e5750601054613c4c90600160a060020a0316615b20565b155b15613c5f57613c5d6000615b24565b505b601060009054906101000a9004600160a060020a0316600160a060020a03166338cc48316040518163ffffffff1660e060020a028152600401602060405180830381600087803b158015613cb257600080fd5b505af1158015613cc6573d6000803e3d6000fd5b505050506040513d6020811015613cdc57600080fd5b5051601154600160a060020a03908116911614613d9257601060009054906101000a9004600160a060020a0316600160a060020a03166338cc48316040518163ffffffff1660e060020a028152600401602060405180830381600087803b158015613d4657600080fd5b505af1158015613d5a573d6000803e3d6000fd5b505050506040513d6020811015613d7057600080fd5b505160118054600160a060020a031916600160a060020a039092169190911790555b601160009054906101000a9004600160a060020a0316600160a060020a031663c281d19e6040518163ffffffff1660e060020a028152600401602060405180830381600087803b158015613de557600080fd5b505af1158015613df9573d6000803e3d6000fd5b505050506040513d6020811015613e0f57600080fd5b505190505b90565b6000828180805b8351811015613f6c5783517f300000000000000000000000000000000000000000000000000000000000000090859083908110613e5757fe5b90602001015160f860020a900460f860020a02600160f860020a03191610158015613ecd575083517f390000000000000000000000000000000000000000000000000000000000000090859083908110613ead57fe5b90602001015160f860020a900460f860020a02600160f860020a03191611155b15613f26578115613eec57851515613ee457613f6c565b600019909501945b600a8302925060308482815181101515613f0257fe5b90602001015160f860020a900460f860020a0260f860020a90040383019250613f64565b8381815181101515613f3457fe5b90602001015160f860020a900460f860020a02600160f860020a031916602e60f860020a021415613f6457600191505b600101613e1e565b6000861115613f7e5785600a0a830292505b509095945050505050565b600080600083600101600a0a86029150600a8583811515613fa657fe5b04600501811515613fb357fe5b049695505050505050565b600080835b83600101811215614030576000818152600d60209081526040808320548352600f909152902060010154600160a060020a03878116911614801561401c57506000818152600d602052604090205461401a90611208565b155b15614028578160010191505b600101613fc3565b50949350505050565b600080835b83811215614072576000818152600d602052604090205461405e90611208565b1561406a578160010191505b60010161403e565b509392505050565b6000805b60108110156140c45782816010811061409357fe5b1a60f860020a02600160f860020a031916600060f860020a021415156140bc5760009150612006565b60010161407e565b50600192915050565b6000806000806000806140ef89600a60169054906101000a900460ff166110f9565b9450600093508792505b866001018312156141645750506000838152600f60209081526040808320848452600b8101835281842054808552600a9091019092529091208054600190910154608060020a9091029060a060020a900460ff1615614159578360010193505b6001909201916140f9565b5091979650505050505050565b6000614184608060020a60ff8416615b0f565b90921792915050565b6000806141a96141a4608060020a60ff8616615b0f565b615e46565b905080841691505b5092915050565b6000818152600f6020818152604080842080546001608060020a031916608060020a880417815560018101805433600160a060020a031990911617808255600a5460a060020a60ff021990911660b060020a90910460ff1660a060020a02179055426002820155815180840192839052858152948690529290915291516142459260099092019190615ea7565b506040805160208181018084526000808452858152600f90925292902090516142749260069092019190615ea7565b506040805160208181018084526000808452858152600f90925292902090516142a39260079092019190615ea7565b506040805160208181018084526000808452858152600f90925292902090516117679260089092019190615ea7565b60008080805b600954600a5460001960ff608060020a909304831660b060020a9092048316919091030116821215614404576143258683600960109054906101000a900460ff1601600101608003613bf8565b1515614395576000838152600f60205260409020600401549293508392151561437b57600580546000868152600f6020526040808220600401839055828252902060030186905581546001019091559250614390565b6000848152600f602052604090206004015492505b6143f9565b6000838152600f6020526040902060050154929350839215156143e457600580546000868152600f602052604080822084018390558282529020600301869055815460010190915592506143f9565b6000848152600f602052604090206005015492505b8160010191506142d8565b600a5461441f90879060b060020a900460ff16608003613bf8565b151561457c57506006546000908152600d60209081526040808320858452600f90925290912060040154929350839215156144f157600580546000868152600f60209081526040808320600401849055838352808320600381018a90558554600190810190965580546001608060020a031916608060020a8d04178155858101805433600160a060020a03199091161760a060020a60ff02191660a060020a60ff8e1602179055426002820155600d908101869055600680548552925290912082905580549092019091559250614577565b6000848152600f602090815260408083206004015480845281842080546001608060020a031916608060020a8c041781556001808201805433600160a060020a03199091161760a060020a60ff02191660a060020a60ff8e1602179055426002830155600d91820181905560068054875291909452919093208390558054909101905592505b6146bb565b6000838152600f60205260409020600501549293508392151561463557600580546000868152600f602090815260408083208501849055838352808320600381018a90558554600190810190965580546001608060020a031916608060020a8d04178155858101805433600160a060020a03199091161760a060020a60ff02191660a060020a60ff8e1602179055426002820155600d9081018690556006805485529252909120829055805490920190915592506146bb565b6000848152600f602090815260408083206005015480845281842080546001608060020a031916608060020a8c041781556001808201805433600160a060020a03199091161760a060020a60ff02191660a060020a60ff8e1602179055426002830155600d91820181905560068054875291909452919093208390558054909101905592505b505050505050565b6010546000908190600160a060020a031615806146f257506010546146f090600160a060020a0316615b20565b155b15614703576147016000615b24565b505b601060009054906101000a9004600160a060020a0316600160a060020a03166338cc48316040518163ffffffff1660e060020a028152600401602060405180830381600087803b15801561475657600080fd5b505af115801561476a573d6000803e3d6000fd5b505050506040513d602081101561478057600080fd5b5051601154600160a060020a0390811691161461483657601060009054906101000a9004600160a060020a0316600160a060020a03166338cc48316040518163ffffffff1660e060020a028152600401602060405180830381600087803b1580156147ea57600080fd5b505af11580156147fe573d6000803e3d6000fd5b505050506040513d602081101561481457600080fd5b505160118054600160a060020a031916600160a060020a039092169190911790555b6011546040517f524f3889000000000000000000000000000000000000000000000000000000008152602060048201818152875160248401528751600160a060020a039094169363524f388993899383926044909201919085019080838360005b838110156148af578181015183820152602001614897565b50505050905090810190601f1680156148dc5780820380516001836020036101000a031916815260200191505b5092505050602060405180830381600087803b1580156148fb57600080fd5b505af115801561490f573d6000803e3d6000fd5b505050506040513d602081101561492557600080fd5b50519050670de0b6b3a764000062030d403a020181111561494957600091506141b1565b6011546040517fadf59f99000000000000000000000000000000000000000000000000000000008152600060048201818152606060248401908152885160648501528851600160a060020a039095169463adf59f99948794938b938b939192909160448201916084019060208701908083838b5b838110156149d55781810151838201526020016149bd565b50505050905090810190601f168015614a025780820380516001836020036101000a031916815260200191505b50838103825284518152845160209182019186019080838360005b83811015614a35578181015183820152602001614a1d565b50505050905090810190601f168015614a625780820380516001836020036101000a031916815260200191505b50955050505050506020604051808303818588803b158015614a8357600080fd5b505af1158015614a97573d6000803e3d6000fd5b50505050506040513d6020811015614aae57600080fd5b5051949350505050565b6000806000614aca878760ff16615e58565b9150614ad9858760ff16615e58565b90506001608060020a0319828116908216148015614afd57508360ff168660ff1611155b15614b0b5760019250614b10565b600092505b5050949350505050565b6000806000806000806000614b3e8a600a60169054906101000a900460ff166110f9565b9550600019861415614b4f57600080fd5b614b5886611208565b15614b6257600080fd5b5060009350839250829150819050805b600a54600160ff60b060020a830481167501000000000000000000000000000000000000000000909304811692909203011683128015614bb0575081155b15614f0657614bd68984600a60169054906101000a900460ff1601600101608003613bf8565b1515614d6e57600a54939450849360ff60b060020a9091048116890360010116831415614cad576000868152600f60209081526040808320888452600a01909152902054614c2990608060020a0261407a565b1580614c6757506000868152600f60209081526040808320888452600a01909152808220600301548252902054614c6590608060020a0261407a565b155b80614ca457506000868152600f60209081526040808320888452600a01909152808220600401548252902054614ca290608060020a0261407a565b155b15614cad575060015b6000868152600f60209081526040808320888452600a01909152902054614cd990608060020a0261407a565b158015614d0e57506000868152600f60209081526040808320888452600a0190915290206001015460a060020a900460ff1615155b15614d17575060015b6000868152600f60209081526040808320888452600a019091529020600301541515614d465760019150614d69565b6000868152600f60209081526040808320888452600a0190915290206003015493505b614efb565b600a54939450849360ff60b060020a9091048116890360010116831415614e3f576000868152600f60209081526040808320888452600a01909152902054614dbb90608060020a0261407a565b1580614df957506000868152600f60209081526040808320888452600a01909152808220600301548252902054614df790608060020a0261407a565b155b80614e3657506000868152600f60209081526040808320888452600a01909152808220600401548252902054614e3490608060020a0261407a565b155b15614e3f575060015b6000868152600f60209081526040808320888452600a01909152902054614e6b90608060020a0261407a565b158015614ea057506000868152600f60209081526040808320888452600a0190915290206001015460a060020a900460ff1615155b15614ea9575060015b6000868152600f60209081526040808320888452600a019091529020600401541515614ed85760019150614efb565b6000868152600f60209081526040808320888452600a0190915290206004015493505b826001019250614b72565b8015614f155760009650614f1a565b600196505b5050505050509392505050565b600080600080600080614f498a600a60169054906101000a900460ff166110f9565b9550600019861415614f5a57600080fd5b614f6386611208565b15614f6d57600080fd5b6000868152600f6020526040902060010154600160a060020a03163314614f9357600080fd5b6000945060009350600092505b600a5460001960ff60b060020a90920482168a03011683121561523c57600a54614fdd908a90600160ff60b060020a909204821687010116615e58565b91506150008984600a60169054906101000a900460ff1601600101608003613bf8565b151561511e576000868152600f60209081526040808320878452600a0190915290206003015493945084931515615092576000868152600f60208181526040808420600d810180548b8752600a909201845282862080546001608060020a031916608060020a8a041781556003018290558186529185206002018a9055938a9052919052805460010190559350615119565b6000868152600f60209081526040808320878452600a019091529020546150be90608060020a0261407a565b156150f6576000868152600f60209081526040808320878452600a01909152902080546001608060020a031916608060020a84041790555b6000868152600f60209081526040808320888452600a0190915290206003015493505b615231565b6000868152600f60209081526040808320878452600a01909152902060040154939450849315156151aa576000868152600f60208181526040808420600d810180548b8752600a909201845282862080546001608060020a031916608060020a8a041781556004018290558186529185206002018a9055938a9052919052805460010190559350615231565b6000868152600f60209081526040808320878452600a019091529020546151d690608060020a0261407a565b1561520e576000868152600f60209081526040808320878452600a01909152902080546001608060020a031916608060020a84041790555b6000868152600f60209081526040808320888452600a0190915290206004015493505b826001019250614fa0565b6152498989608003613bf8565b15156156dd5761525c898960ff16615e58565b6000878152600f60209081526040808320600c8101548452600b81018352818420898552600a90910190925290912060030154959650869591935091501515615509576000868152600f60209081526040808320888452600a0190915290206004015415156152f8576000868152600f60209081526040808320888452600a01909152902080546001608060020a031916608060020a84041790555b600f6000878152602001908152602001600020600d0154935083600f6000888152602001908152602001600020600a0160008781526020019081526020016000206003018190555084600f6000888152602001908152602001600020600a01600086815260200190815260200160002060020181905550600f6000878152602001908152602001600020600d0154600101600f6000888152602001908152602001600020600d018190555088600f6000888152602001908152602001600020600a01600086815260200190815260200160002060000160006101000a8154816fffffffffffffffffffffffffffffffff0219169083608060020a9004021790555086600f6000888152602001908152602001600020600a01600086815260200190815260200160002060010160006101000a815481600160a060020a030219169083600160a060020a0316021790555087600f6000888152602001908152602001600020600a01600086815260200190815260200160002060010160146101000a81548160ff021916908360ff16021790555083600f6000888152602001908152602001600020600b016000600f60008a8152602001908152602001600020600c0154815260200190815260200160002060000181905550600f6000878152602001908152602001600020600c0154600101600f6000888152602001908152602001600020600c01819055506156d8565b6000868152600f60209081526040808320888452600a0190915290206003810154905490945061553e90608060020a0261407a565b15615576576000868152600f60209081526040808320888452600a01909152902080546001608060020a031916608060020a84041790555b88600f6000888152602001908152602001600020600a01600086815260200190815260200160002060000160006101000a8154816fffffffffffffffffffffffffffffffff0219169083608060020a9004021790555086600f6000888152602001908152602001600020600a01600086815260200190815260200160002060010160006101000a815481600160a060020a030219169083600160a060020a0316021790555087600f6000888152602001908152602001600020600a01600086815260200190815260200160002060010160146101000a81548160ff021916908360ff16021790555083600f6000888152602001908152602001600020600b016000600f60008a8152602001908152602001600020600c0154815260200190815260200160002060000181905550600f6000878152602001908152602001600020600c0154600101600f6000888152602001908152602001600020600c01819055505b6137b9565b6000868152600f60209081526040808320878452600a0190915290206004015493945084931515615972576000868152600f60209081526040808320888452600a019091529020600301541515615761576000868152600f60209081526040808320888452600a01909152902080546001608060020a031916608060020a84041790555b600f6000878152602001908152602001600020600d0154935083600f6000888152602001908152602001600020600a0160008781526020019081526020016000206004018190555084600f6000888152602001908152602001600020600a01600086815260200190815260200160002060020181905550600f6000878152602001908152602001600020600d0154600101600f6000888152602001908152602001600020600d018190555088600f6000888152602001908152602001600020600a01600086815260200190815260200160002060000160006101000a8154816fffffffffffffffffffffffffffffffff0219169083608060020a9004021790555086600f6000888152602001908152602001600020600a01600086815260200190815260200160002060010160006101000a815481600160a060020a030219169083600160a060020a0316021790555087600f6000888152602001908152602001600020600a01600086815260200190815260200160002060010160146101000a81548160ff021916908360ff16021790555083600f6000888152602001908152602001600020600b016000600f60008a8152602001908152602001600020600c0154815260200190815260200160002060000181905550600f6000878152602001908152602001600020600c0154600101600f6000888152602001908152602001600020600c01819055506137b9565b6000868152600f60209081526040808320888452600a019091529020600481015490549094506159a790608060020a0261407a565b156159df576000868152600f60209081526040808320888452600a01909152902080546001608060020a031916608060020a84041790555b5050506000838152600f60208181526040808420858552600a8101835281852080546001608060020a031916608060020a909c049b909b178b5560019a8b018054600160a060020a031916600160a060020a039a909a169990991760a060020a60ff02191660a060020a60ff9b909b169a909a0299909917909755600c880180548452600b909801815295822092909255929092525090528054909101905550565b600080835b83600101811215614072576000818152600d60209081526040808320548352600f909152902054615abc90608060020a0261407a565b158015615ade57506000818152600d6020526040902054615adc90611208565b155b15615aea578160010191505b600101615a86565b600780546000908152600e60205260408120558054600019019055565b60020a608060020a91829004020290565b3b90565b600080615b44731d3b2638a7cc9f2cb3d298a3da7a90b67e5506ed615b20565b1115615bb55760108054600160a060020a031916731d3b2638a7cc9f2cb3d298a3da7a90b67e5506ed17905560408051808201909152600b81527f6574685f6d61696e6e65740000000000000000000000000000000000000000006020820152615bad90615e84565b506001611250565b6000615bd473c03a2615d5efaf5f49f60b7bb6583eaec212fdf1615b20565b1115615c3d5760108054600160a060020a03191673c03a2615d5efaf5f49f60b7bb6583eaec212fdf117905560408051808201909152600c81527f6574685f726f707374656e3300000000000000000000000000000000000000006020820152615bad90615e84565b6000615c5c73b7a07bcf2ba2f2703b24c0691b5278999c59ac7e615b20565b1115615cc55760108054600160a060020a03191673b7a07bcf2ba2f2703b24c0691b5278999c59ac7e17905560408051808201909152600981527f6574685f6b6f76616e00000000000000000000000000000000000000000000006020820152615bad90615e84565b6000615ce473146500cfd35b22e4a392fe0adc06de1a1368ed48615b20565b1115615d4d5760108054600160a060020a03191673146500cfd35b22e4a392fe0adc06de1a1368ed4817905560408051808201909152600b81527f6574685f72696e6b6562790000000000000000000000000000000000000000006020820152615bad90615e84565b6000615d6c736f485c8bf6fc43ea212e93bbf8ce046c7f1cb475615b20565b1115615da0575060108054600160a060020a031916736f485c8bf6fc43ea212e93bbf8ce046c7f1cb4751790556001611250565b6000615dbf7320e12a1f859b3feae5fb2a0a32c18f5a65555bbf615b20565b1115615df3575060108054600160a060020a0319167320e12a1f859b3feae5fb2a0a32c18f5a65555bbf1790556001611250565b6000615e127351efaf4c8b3c9afbd5ab9f4bbc82784ab6ef8faa615b20565b111561124c575060108054600160a060020a0319167351efaf4c8b3c9afbd5ab9f4bbc82784ab6ef8faa1790556001611250565b6000615e50615e9b565b909118919050565b6000608060020a600019600284900a010281615e78826080869003615b0f565b94909416949350505050565b8051615e97906012906020840190615ea7565b5050565b6001608060020a031990565b828054600181600116156101000203166002900490600052602060002090601f016020900481019282601f10615ee857805160ff1916838001178555615f15565b82800160010185558215615f15579182015b82811115615f15578251825591602001919060010190615efa565b50615f21929150615f25565b5090565b613e1491905b80821115615f215760008155600101615f2b5600a165627a7a7230582081b101251b01a5bc5d0176abde9f16cd0a42140769c62013c046fc13ae0fcccb0029",
  "source": "pragma solidity ^0.4.24;\r\n\r\nimport \"./InBlock_F.sol\";\r\nimport \"./InBlock_F_del.sol\";\r\nimport \"./usingOraclize.sol\";\r\n\r\ncontract InBlock is InBlock_F, InBlock_F_del, usingOraclize{\r\n\r\n\r\n//test functions \r\nfunction expire(int id)public{\r\n\r\nblocks[id].date=blocks[id].date-400* 1 days;\r\n}\r\n\r\nfunction setID(int id)public{\r\nID=id;\r\n}\r\n\t\r\nfunction test(int i)public returns (int) {\r\nreturn array_index[i].ind;\r\n}\r\n\r\nfunction stub()public{\r\n\r\nfor(int i=0; i<15; i++){\r\nsparse_allocation();\r\n}\r\n}\r\n\r\nfunction stub2()public{\r\n\r\nfor(int i=0; i<25; i++){\r\nsparse_allocation();\r\n}\r\n}\r\n\r\n\r\nfunction setID_index(int i)public { \r\n\r\nID_Index=i;\r\n}\r\n\r\n//******************************************************* FUNCTIONS TO BE CALLED TO INITIALIZE THE CONTRACT *******************************************************\r\n\r\n//Constructor\r\n\r\nconstructor() public{\r\n\towner=msg.sender;  \r\n\tseed=0;\r\n\tID=0;\r\n\tstopped=true;\r\n\taskPriceCost=4027700000000000;\r\n\tOAR = OraclizeAddrResolverI(0x6f485C8BF6fc43eA212E93BBF8ce046C7f1cb475);\r\n\tblockprice=5000000000000000000; //SECURITY UTILITY. EVERYONE HAS TO ASK FOR THE RIGHT PRICE FIRST. \r\n  }\r\n\r\n//To Set the Initial Block  \r\n function InitInBlock(bytes16 ip,uint8 _base_prefix_mask, uint8 _allocation_prefix_mask) onlyOwner() public {\r\n\tbase_prefix_mask=_base_prefix_mask;\r\n\tallocation_prefix_mask=_allocation_prefix_mask;\r\n\tmax_del=48;\r\n\tmax_allocable_blocks=(2**uint(_allocation_prefix_mask-base_prefix_mask));\r\n\tID=1;\r\n\tblocks[0].ip_address=ip;\r\n\tblocks[0].o_addr=msg.sender;\r\n\tblocks[0].mask=base_prefix_mask;\r\n\tinitial_block=ip;\r\n\tID_Index=0;\r\n\tstopped=false;\r\n}\r\n\t\r\n\r\n//EXAMPLE: IF WE WANT TO SET A PRICE OF 1800.00 $ WE HAVE TO CALL THIS FUNCTION IN THAT WAY setDollarsPrice(180000) \r\nfunction setDollarsPrice(uint a) onlyOwner(){\r\n\tdollars_price=a;\r\n}\r\n\t\r\n//******************************************************* ORACLE FUNCTIONS *******************************************************\r\n\r\nevent Log(string text);\r\n\r\nfunction askPrice() public payable{\r\n\trequire(msg.value==askPriceCost, \"Price Error\");\r\n\t oraclize_query(\"URL\",\"json(https://min-api.cryptocompare.com/data/price?fsym=ETH&tsyms=USD).USD\");\r\n\t }\r\n\t \r\nfunction __callback(bytes32 _myid, string _result) {\r\n\t\trequire (msg.sender == oraclize_cbAddress());\r\n\t\tLog(_result);\r\n        price = parseInt(_result, 2);\r\n\t\tblockprice=(divide(dollars_price,price,5))*(10**13);\r\n\t}\r\n\r\n//******************************************************* KEY ROLLOVER FUNCTIONS *******************************************************\r\n\r\n\r\n//Function to permit the change of the owner (the ones who recive the funds) \t\r\nfunction changeOwner(address new_owner)onlyOwner(){\r\n\towner=new_owner;\r\n\t}\r\n\r\n//Function to permit the transfer of the ownership of a specific block \r\nfunction transferOwnership(bytes16 ip,address new_owner) public {\r\n\t\t\r\n\t\tint id= find(ip,allocation_prefix_mask);\r\n\t\trequire(id!=-1);\r\n\t\trequire(msg.sender==blocks[id].o_addr, \"You are not the owner of the block\");\r\n\t\tblocks[id].o_addr=new_owner;\r\n\r\n}\r\n\t\t  \r\n//******************************************************* CONTRACT BALANCE FUNCTIONS *******************************************************\r\n\r\n\r\n//fallback function to permit everyone to give ether to the contract\r\nfunction pay () payable{}\r\n\r\n\r\n}",
  "sourcePath": "C:\\Users\\User\\Desktop\\Latest Release InBlock\\InBlock_v1.1\\InBlock_v1.1\\InBlock_v1.1\\contracts\\InBlock.sol",
  "compiler": {
    "name": "solc",
    "version": "0.4.24+commit.e67f0147.Emscripten.clang"
  },
  "schemaVersion": "2.0.1",
  "updatedAt": "2018-09-17T15:56:10.218Z"
}