{
  "contractName": "InBlock_Data",
  "abi": [
    {
      "constant": true,
      "inputs": [],
      "name": "ID_expired",
      "outputs": [
        {
          "name": "",
          "type": "int256"
        }
      ],
      "payable": false,
      "stateMutability": "view",
      "type": "function"
    },
    {
      "constant": true,
      "inputs": [],
      "name": "allocation_prefix_mask",
      "outputs": [
        {
          "name": "",
          "type": "uint8"
        }
      ],
      "payable": false,
      "stateMutability": "view",
      "type": "function"
    },
    {
      "constant": true,
      "inputs": [],
      "name": "max_allocable_blocks",
      "outputs": [
        {
          "name": "",
          "type": "uint256"
        }
      ],
      "payable": false,
      "stateMutability": "view",
      "type": "function"
    },
    {
      "constant": true,
      "inputs": [],
      "name": "ID_Index",
      "outputs": [
        {
          "name": "",
          "type": "int256"
        }
      ],
      "payable": false,
      "stateMutability": "view",
      "type": "function"
    },
    {
      "constant": true,
      "inputs": [],
      "name": "blockprice",
      "outputs": [
        {
          "name": "",
          "type": "uint256"
        }
      ],
      "payable": false,
      "stateMutability": "view",
      "type": "function"
    },
    {
      "constant": true,
      "inputs": [],
      "name": "base_prefix_mask",
      "outputs": [
        {
          "name": "",
          "type": "uint8"
        }
      ],
      "payable": false,
      "stateMutability": "view",
      "type": "function"
    },
    {
      "constant": true,
      "inputs": [],
      "name": "dollars_price",
      "outputs": [
        {
          "name": "",
          "type": "uint256"
        }
      ],
      "payable": false,
      "stateMutability": "view",
      "type": "function"
    },
    {
      "constant": true,
      "inputs": [],
      "name": "initial_block",
      "outputs": [
        {
          "name": "",
          "type": "bytes16"
        }
      ],
      "payable": false,
      "stateMutability": "view",
      "type": "function"
    },
    {
      "constant": true,
      "inputs": [],
      "name": "stopped",
      "outputs": [
        {
          "name": "",
          "type": "bool"
        }
      ],
      "payable": false,
      "stateMutability": "view",
      "type": "function"
    },
    {
      "constant": true,
      "inputs": [],
      "name": "seed",
      "outputs": [
        {
          "name": "",
          "type": "uint256"
        }
      ],
      "payable": false,
      "stateMutability": "view",
      "type": "function"
    },
    {
      "constant": true,
      "inputs": [],
      "name": "owner",
      "outputs": [
        {
          "name": "",
          "type": "address"
        }
      ],
      "payable": false,
      "stateMutability": "view",
      "type": "function"
    },
    {
      "constant": true,
      "inputs": [],
      "name": "price",
      "outputs": [
        {
          "name": "",
          "type": "uint256"
        }
      ],
      "payable": false,
      "stateMutability": "view",
      "type": "function"
    },
    {
      "constant": true,
      "inputs": [],
      "name": "ID",
      "outputs": [
        {
          "name": "",
          "type": "int256"
        }
      ],
      "payable": false,
      "stateMutability": "view",
      "type": "function"
    },
    {
      "constant": true,
      "inputs": [],
      "name": "max_del",
      "outputs": [
        {
          "name": "",
          "type": "uint8"
        }
      ],
      "payable": false,
      "stateMutability": "view",
      "type": "function"
    },
    {
      "constant": true,
      "inputs": [],
      "name": "askPriceCost",
      "outputs": [
        {
          "name": "",
          "type": "uint256"
        }
      ],
      "payable": false,
      "stateMutability": "view",
      "type": "function"
    },
    {
      "constant": false,
      "inputs": [],
      "name": "circuitBreaker",
      "outputs": [],
      "payable": false,
      "stateMutability": "nonpayable",
      "type": "function"
    },
    {
      "constant": false,
      "inputs": [],
      "name": "toggleCircuit",
      "outputs": [],
      "payable": false,
      "stateMutability": "nonpayable",
      "type": "function"
    },
    {
      "constant": false,
      "inputs": [
        {
          "name": "addr",
          "type": "address"
        }
      ],
      "name": "addSuperUserAccount",
      "outputs": [],
      "payable": false,
      "stateMutability": "nonpayable",
      "type": "function"
    },
    {
      "constant": false,
      "inputs": [
        {
          "name": "addr",
          "type": "address"
        }
      ],
      "name": "addUserAccount",
      "outputs": [],
      "payable": false,
      "stateMutability": "nonpayable",
      "type": "function"
    },
    {
      "constant": false,
      "inputs": [
        {
          "name": "addr",
          "type": "address"
        }
      ],
      "name": "deleteSuperUserAccount",
      "outputs": [],
      "payable": false,
      "stateMutability": "nonpayable",
      "type": "function"
    },
    {
      "constant": false,
      "inputs": [
        {
          "name": "addr",
          "type": "address"
        }
      ],
      "name": "deleteUserAccount",
      "outputs": [],
      "payable": false,
      "stateMutability": "nonpayable",
      "type": "function"
    },
    {
      "constant": false,
      "inputs": [
        {
          "name": "addr",
          "type": "address"
        }
      ],
      "name": "changeUserAccount",
      "outputs": [],
      "payable": false,
      "stateMutability": "nonpayable",
      "type": "function"
    },
    {
      "constant": false,
      "inputs": [
        {
          "name": "addr",
          "type": "address"
        }
      ],
      "name": "changeSuperUserAccount",
      "outputs": [],
      "payable": false,
      "stateMutability": "nonpayable",
      "type": "function"
    },
    {
      "constant": true,
      "inputs": [
        {
          "name": "addr",
          "type": "address"
        }
      ],
      "name": "getUserPrivilege",
      "outputs": [
        {
          "name": "",
          "type": "int256"
        }
      ],
      "payable": false,
      "stateMutability": "view",
      "type": "function"
    },
    {
      "constant": true,
      "inputs": [
        {
          "name": "addr",
          "type": "address"
        }
      ],
      "name": "getSuperUserPrivilege",
      "outputs": [
        {
          "name": "",
          "type": "int256"
        }
      ],
      "payable": false,
      "stateMutability": "view",
      "type": "function"
    },
    {
      "constant": true,
      "inputs": [
        {
          "name": "ip_address",
          "type": "bytes16"
        },
        {
          "name": "_mask",
          "type": "uint8"
        }
      ],
      "name": "find",
      "outputs": [
        {
          "name": "",
          "type": "int256"
        }
      ],
      "payable": false,
      "stateMutability": "view",
      "type": "function"
    },
    {
      "constant": true,
      "inputs": [
        {
          "name": "id",
          "type": "int256"
        }
      ],
      "name": "is_expired_id",
      "outputs": [
        {
          "name": "",
          "type": "bool"
        }
      ],
      "payable": false,
      "stateMutability": "view",
      "type": "function"
    }
  ],
  "bytecode": "0x608060405234801561001057600080fd5b50610aa9806100206000396000f30060806040526004361061015e5763ffffffff7c010000000000000000000000000000000000000000000000000000000060003504166306cd8b7581146101635780630731137c1461018a57806316efd941146101ad578063198a20cd146101c25780631a7f57ad146101e35780631b25b81d1461020e5780631bc200501461023f5780632059b40d1461026b578063310c3fd8146102805780633ae5e307146102a157806349621851146102b65780635881db90146102cb57806364a6a287146102e0578063706c3eae14610301578063715edd5b14610316578063743d9ff81461032b57806375f12b21146103665780637d94792a1461037b5780638da5cb5b14610390578063941f1bbd146103c1578063a035b1fe146103e2578063b3cea217146103f7578063bb28b17c1461040c578063c5ba2bd41461042d578063d0b6d75e14610442578063dcba957f14610457578063ddc41c5f14610478575b600080fd5b34801561016f57600080fd5b50610178610499565b60408051918252519081900360200190f35b34801561019657600080fd5b506101ab600160a060020a036004351661049f565b005b3480156101b957600080fd5b506101ab610520565b3480156101ce57600080fd5b506101ab600160a060020a0360043516610557565b3480156101ef57600080fd5b506101f8610597565b6040805160ff9092168252519081900360200190f35b34801561021a57600080fd5b506101786fffffffffffffffffffffffffffffffff196004351660ff602435166105ba565b34801561024b57600080fd5b506102576004356106f4565b604080519115158252519081900360200190f35b34801561027757600080fd5b50610178610741565b34801561028c57600080fd5b506101ab600160a060020a0360043516610747565b3480156102ad57600080fd5b506101786107a2565b3480156102c257600080fd5b506101ab6107a8565b3480156102d757600080fd5b50610178610802565b3480156102ec57600080fd5b506101ab600160a060020a0360043516610808565b34801561030d57600080fd5b506101f8610880565b34801561032257600080fd5b50610178610890565b34801561033757600080fd5b50610340610896565b604080516fffffffffffffffffffffffffffffffff199092168252519081900360200190f35b34801561037257600080fd5b506102576108a2565b34801561038757600080fd5b506101786108c3565b34801561039c57600080fd5b506103a56108c9565b60408051600160a060020a039092168252519081900360200190f35b3480156103cd57600080fd5b50610178600160a060020a03600435166108d8565b3480156103ee57600080fd5b506101786108f3565b34801561040357600080fd5b506101786108f9565b34801561041857600080fd5b506101ab600160a060020a03600435166108ff565b34801561043957600080fd5b506101f8610980565b34801561044e57600080fd5b506101786109a2565b34801561046357600080fd5b506101ab600160a060020a03600435166109a8565b34801561048457600080fd5b50610178600160a060020a0360043516610a1f565b60075481565b336000908152602081905260409020546003146104bb57600080fd5b33600081815260208190526040808220828155600160a060020a03851683529082206003905591905260019081015460ff161515141561051d5760006020819052600160a060020a0382168152604090206001908101805460ff191690911790555b50565b600a54600160a060020a0316331461053757600080fd5b600a805474ff000000000000000000000000000000000000000019169055565b600a54600160a060020a0316331461056e57600080fd5b600160a060020a031660009081526001602081905260409091206002815501805460ff19169055565b600a54760100000000000000000000000000000000000000000000900460ff1681565b60008080805b600954600a54600160ff608060020a909304831676010000000000000000000000000000000000000000000090920483169190910301168212156106d7576000838152600f60205260409020546fffffffffffffffffffffffffffffffff19878116608060020a9092021614801561066657506000838152600f602052604090206001015460ff8681167401000000000000000000000000000000000000000090920416145b1561067757600190508293506106eb565b6106988683600960109054906101000a900460ff1601600101608003610a3a565b15156106b7576000928352600f602052604090922060040154916106cc565b6000928352600f602052604090922060050154915b8160010191506105c0565b80156106e5578293506106eb565b60001993505b50505092915050565b6000818152600f60205260408120600201546301e1338001421080159061072b57506000828152600f602052604090206002015415155b156107385750600161073c565b5060005b919050565b600c5481565b600a54600160a060020a0316331461075e57600080fd5b600160a060020a0381166000908152600160208190526040909120015460ff161561078857600080fd5b600160a060020a0316600090815260016020526040812055565b60065481565b600a54600160a060020a031633146107bf57600080fd5b600a805474ff0000000000000000000000000000000000000000198116740100000000000000000000000000000000000000009182900460ff1615909102179055565b60085481565b33600081815260016020526040902054600214806108305750600a54600160a060020a031633145b151561083b57600080fd5b3360009081526001602052604090205460021461085757600080fd5b50600160a060020a0316600090815260208190526040902060038155600101805460ff19169055565b600954608060020a900460ff1681565b60045481565b600954608060020a0281565b600a5474010000000000000000000000000000000000000000900460ff1681565b600b5481565b600a54600160a060020a031681565b600160a060020a031660009081526020819052604090205490565b60035481565b60055481565b3360009081526001602052604090205460021461091b57600080fd5b336000818152600160208190526040808320838155600160a060020a038616845290832060029055929091529081015460ff161515141561051d5760016020819052600160a060020a0382166000908152604090208101805460ff1916909117905550565b600a547501000000000000000000000000000000000000000000900460ff1681565b60025481565b33600081815260016020526040902054600214806109d05750600a54600160a060020a031633145b15156109db57600080fd5b600160a060020a03821660009081526020819052604090206001015460ff1615610a0457600080fd5b50600160a060020a0316600090815260208190526040812055565b600160a060020a031660009081526001602052604090205490565b6000610a4d608060020a60ff8416610a6c565b929092166fffffffffffffffffffffffffffffffff1916151592915050565b60020a608060020a918290040202905600a165627a7a723058200a0c5813ad5fd5cd0e179092405e0f8eaadb70215324b6029be0d747708f9a8f0029",
  "source": "pragma solidity ^0.4.24;\r\n\r\nimport \"./Utility.sol\";\r\n\r\ncontract InBlock_Data is Utility{\r\n\r\n//******************************************************* MODIFIERS AND RELATED FUNCTION *******************************************************\r\n\r\n\r\n//FOR START AND STOP PARADIGM\r\n\r\nfunction circuitBreaker() onlyOwner() public{\r\n\tstopped=false;\r\n} \r\n\r\nmodifier notStopped(){\r\n\tif(stopped)throw;\r\n\t_;\r\n}\r\n\r\nfunction toggleCircuit() onlyOwner() public{\r\n\tstopped=!stopped;\r\n}\r\n\r\n\r\n//************************************************************ Users Privileges ********************************************************************************\r\n\r\nmodifier onlyOwner(){\r\n   require (msg.sender == owner);\r\n        _;\r\n}\r\n\r\n\r\n\r\nstruct User{\r\nint privilege;\r\nbool holding;\r\n}\r\n\r\nmapping(address=>User) Users;\r\n\r\nmapping(address=>User) SuperUsers;\r\n\r\n\r\nfunction addSuperUserAccount(address addr) public onlyOwner{\r\n       SuperUsers[addr].privilege=2;\r\n\t   SuperUsers[addr].holding=false;\r\n}\r\n\r\nfunction addUserAccount(address addr) public onlySuperUsers(msg.sender){\r\n        require(SuperUsers[msg.sender].privilege==2);\r\n\t\tUsers[addr].privilege=3;\r\n\t\tUsers[addr].holding=false;\r\n\t\t}\r\n\r\nfunction deleteSuperUserAccount(address addr) public onlyOwner(){\r\n\trequire(!SuperUsers[addr].holding);\r\n\tSuperUsers[addr].privilege=0;\r\n}\r\n\r\nfunction deleteUserAccount(address addr) public onlySuperUsers(msg.sender){\r\n\trequire(!Users[addr].holding);\r\n\tUsers[addr].privilege=0;\r\n}\r\n\r\nfunction changeUserAccount(address addr) public {\r\n\r\n\trequire(Users[msg.sender].privilege==3);\r\n\t\tUsers[msg.sender].privilege=0;\r\n\t\tUsers[addr].privilege=3;\r\n\tif(Users[msg.sender].holding==true){\r\n\t\tUsers[msg.sender].holding==false;\r\n\t\tUsers[addr].holding=true;\r\n\t}\r\n\t\r\n}\r\n\r\nfunction changeSuperUserAccount(address addr) public {\r\n\r\n\trequire(SuperUsers[msg.sender].privilege==2);\r\n\t\tSuperUsers[msg.sender].privilege=0;\r\n\t\tSuperUsers[addr].privilege=2;\r\n\tif(SuperUsers[msg.sender].holding==true){\r\n\t\tSuperUsers[msg.sender].holding==false;\r\n\t\tSuperUsers[addr].holding=true;\r\n\t}\r\n\t\r\n}\r\n\r\n\r\nfunction getUserPrivilege(address addr) public view returns (int) {\r\n    return Users[addr].privilege;\r\n}\r\n\r\nfunction getSuperUserPrivilege(address addr) public view returns(int){\r\n\treturn SuperUsers[addr].privilege;\r\n}\r\n\r\nmodifier onlySuperUsers(address addr){\r\n\trequire(SuperUsers[addr].privilege==2 || msg.sender==owner);\r\n\t_;\r\n}\r\n\r\n\r\nmodifier onlyUsersOrSuper(address addr){\r\n\trequire(Users[addr].privilege==3 || SuperUsers[addr].privilege==2 || msg.sender==owner);\r\n\t_;\r\n}\r\n\r\n\r\n//******************************************************* DATA STRUCTURE DEFINITION *******************************************************\r\n\r\n\r\nuint public askPriceCost;\r\nuint public price; \r\nuint public dollars_price;\r\nint public ID;\r\nint public ID_Index;\r\nint public ID_expired;\r\n\r\n//To store the price expressed in Wei (it is the common form). NB:  1 ether = 1000000000000000000 wei  \r\n\tuint public blockprice;\r\n\r\n//To store the initial_block\r\n\tbytes16 public initial_block;\r\n\tuint8 public base_prefix_mask;\r\n\t\r\n\t\r\n//The owner address \r\n\taddress public owner;\r\n\r\n//For Start and Stop paradigm\t\r\nbool public stopped; \t\r\n\t\r\n//To manage allocation and delegation\r\n\tuint8 public max_del;\r\n\tuint8 public allocation_prefix_mask;\r\n\tuint public seed;\r\n\tuint public max_allocable_blocks;\r\n\r\nstruct index{\r\nint ind;\r\n}\r\n\r\n\t\r\n\r\nstruct Info{\r\n\tbytes uri; \r\n\tbytes hashFunction;\r\n\tbytes hash;\r\n}\r\n\r\nstruct Block{\r\n\tbytes16 ip_address;\r\n\taddress o_addr;\r\n\tuint8 mask;\r\n\tuint date;\r\n\tint parent;\r\n\tint left;\r\n\tint right;\r\n\tInfo info;\r\n\tbytes Roa;\r\n\tmapping(int=>del_Block) del_blocks;\r\n\tmapping(int=>index) del_array_index;\r\n\tint del_ID_Index;\r\n\tint ID_delegated;\r\n}\r\n\r\nstruct del_Block{\r\n\tbytes16 ip_address;\r\n\taddress o_addr;\r\n\tuint8 mask;\r\n\tint parent;\r\n\tint left;\r\n\tint right;\r\n\tInfo info;\r\n\tbytes Roa;\r\n\t\r\n}\r\n\r\n\r\nmapping(int =>index) array_index;\r\nmapping(int =>index) expired_array_index;\r\n\r\nmapping(int=>Block) blocks;\r\n\r\n\r\n//******************************************************** COMMON FUNCTION ***********************************************************************\r\nfunction find(bytes16 ip_address, uint8 _mask) public view returns (int) {\r\n\t\tint id = 0;\r\n\t\tint i=0;\r\n\t\tbool ok=false;\r\n       \r\n        while (i<(allocation_prefix_mask-base_prefix_mask)+1) {\r\n            if (ip_address == blocks[id].ip_address && _mask==blocks[id].mask) {\r\n\t\t\t\tok=true;\r\n\t\t\t\treturn id;\r\n            }\r\n       \r\n           if(!getBit(ip_address,(128-(base_prefix_mask+uint8(i)+1)))){\r\n\t\t\t    id = blocks[id].left;\r\n            } else {\r\n                id = blocks[id].right;\r\n            }\r\n        i=i+1;\r\n\t\t}\r\n\t\tif(ok)return id; \r\n\t\telse return -1;\r\n    }\r\n\r\n\t  \r\n  function is_expired_id(int id) view public returns (bool){\r\n\t\r\n\tif(now >= (blocks[id].date + 365* 1 days) && blocks[id].date!=0 ){\r\n\t\treturn true;\r\n\t\t}else return false; \r\n}\r\n\r\n}// END OF THE CONTRACT",
  "sourcePath": "C:\\Users\\User\\Desktop\\Latest Release InBlock\\InBlock_v1.1\\InBlock_v1.1\\InBlock_v1.1\\contracts\\InBlock_Data.sol",
  "compiler": {
    "name": "solc",
    "version": "0.4.24+commit.e67f0147.Emscripten.clang"
  },
  "schemaVersion": "2.0.1",
  "updatedAt": "2018-09-17T15:56:10.200Z"
}