{
  "contractName": "InBlock_Data",
  "abi": [
    {
      "constant": true,
      "inputs": [],
      "name": "ID_expired",
      "outputs": [
        {
          "name": "",
          "type": "int256"
        }
      ],
      "payable": false,
      "stateMutability": "view",
      "type": "function"
    },
    {
      "constant": true,
      "inputs": [],
      "name": "allocation_prefix_mask",
      "outputs": [
        {
          "name": "",
          "type": "uint8"
        }
      ],
      "payable": false,
      "stateMutability": "view",
      "type": "function"
    },
    {
      "constant": true,
      "inputs": [],
      "name": "max_allocable_blocks",
      "outputs": [
        {
          "name": "",
          "type": "uint256"
        }
      ],
      "payable": false,
      "stateMutability": "view",
      "type": "function"
    },
    {
      "constant": true,
      "inputs": [],
      "name": "prefixPrice3",
      "outputs": [
        {
          "name": "",
          "type": "uint256"
        }
      ],
      "payable": false,
      "stateMutability": "view",
      "type": "function"
    },
    {
      "constant": true,
      "inputs": [],
      "name": "ID_Index",
      "outputs": [
        {
          "name": "",
          "type": "int256"
        }
      ],
      "payable": false,
      "stateMutability": "view",
      "type": "function"
    },
    {
      "constant": true,
      "inputs": [],
      "name": "base_prefix_mask",
      "outputs": [
        {
          "name": "",
          "type": "uint8"
        }
      ],
      "payable": false,
      "stateMutability": "view",
      "type": "function"
    },
    {
      "constant": true,
      "inputs": [],
      "name": "initial_block",
      "outputs": [
        {
          "name": "",
          "type": "bytes16"
        }
      ],
      "payable": false,
      "stateMutability": "view",
      "type": "function"
    },
    {
      "constant": true,
      "inputs": [],
      "name": "stopped",
      "outputs": [
        {
          "name": "",
          "type": "bool"
        }
      ],
      "payable": false,
      "stateMutability": "view",
      "type": "function"
    },
    {
      "constant": true,
      "inputs": [],
      "name": "seed",
      "outputs": [
        {
          "name": "",
          "type": "uint256"
        }
      ],
      "payable": false,
      "stateMutability": "view",
      "type": "function"
    },
    {
      "constant": true,
      "inputs": [],
      "name": "securityPrice",
      "outputs": [
        {
          "name": "",
          "type": "uint256"
        }
      ],
      "payable": false,
      "stateMutability": "view",
      "type": "function"
    },
    {
      "constant": true,
      "inputs": [],
      "name": "owner",
      "outputs": [
        {
          "name": "",
          "type": "address"
        }
      ],
      "payable": false,
      "stateMutability": "view",
      "type": "function"
    },
    {
      "constant": true,
      "inputs": [],
      "name": "oraclesValidity",
      "outputs": [
        {
          "name": "",
          "type": "uint256"
        }
      ],
      "payable": false,
      "stateMutability": "view",
      "type": "function"
    },
    {
      "constant": true,
      "inputs": [],
      "name": "price",
      "outputs": [
        {
          "name": "",
          "type": "uint256"
        }
      ],
      "payable": false,
      "stateMutability": "view",
      "type": "function"
    },
    {
      "constant": true,
      "inputs": [],
      "name": "ID",
      "outputs": [
        {
          "name": "",
          "type": "int256"
        }
      ],
      "payable": false,
      "stateMutability": "view",
      "type": "function"
    },
    {
      "constant": true,
      "inputs": [],
      "name": "dollarsPrice",
      "outputs": [
        {
          "name": "",
          "type": "uint256"
        }
      ],
      "payable": false,
      "stateMutability": "view",
      "type": "function"
    },
    {
      "constant": true,
      "inputs": [],
      "name": "max_del",
      "outputs": [
        {
          "name": "",
          "type": "uint8"
        }
      ],
      "payable": false,
      "stateMutability": "view",
      "type": "function"
    },
    {
      "constant": true,
      "inputs": [],
      "name": "prefixPrice1",
      "outputs": [
        {
          "name": "",
          "type": "uint256"
        }
      ],
      "payable": false,
      "stateMutability": "view",
      "type": "function"
    },
    {
      "constant": true,
      "inputs": [],
      "name": "prefixPrice2",
      "outputs": [
        {
          "name": "",
          "type": "uint256"
        }
      ],
      "payable": false,
      "stateMutability": "view",
      "type": "function"
    },
    {
      "constant": false,
      "inputs": [],
      "name": "prefixAllocationStop",
      "outputs": [],
      "payable": false,
      "stateMutability": "nonpayable",
      "type": "function"
    },
    {
      "constant": false,
      "inputs": [],
      "name": "prefixAllocationResume",
      "outputs": [],
      "payable": false,
      "stateMutability": "nonpayable",
      "type": "function"
    },
    {
      "constant": true,
      "inputs": [
        {
          "name": "input",
          "type": "bytes16"
        }
      ],
      "name": "reverseSparse",
      "outputs": [
        {
          "name": "num",
          "type": "uint256"
        }
      ],
      "payable": false,
      "stateMutability": "view",
      "type": "function"
    },
    {
      "constant": true,
      "inputs": [
        {
          "name": "id",
          "type": "uint256"
        }
      ],
      "name": "sparse",
      "outputs": [
        {
          "name": "",
          "type": "bytes16"
        }
      ],
      "payable": false,
      "stateMutability": "view",
      "type": "function"
    },
    {
      "constant": true,
      "inputs": [
        {
          "name": "id",
          "type": "int256"
        }
      ],
      "name": "isAllocatedPrefixExpired",
      "outputs": [
        {
          "name": "",
          "type": "bool"
        }
      ],
      "payable": false,
      "stateMutability": "view",
      "type": "function"
    },
    {
      "constant": true,
      "inputs": [
        {
          "name": "id",
          "type": "int256"
        }
      ],
      "name": "isPrefixInUse",
      "outputs": [
        {
          "name": "",
          "type": "bool"
        }
      ],
      "payable": false,
      "stateMutability": "view",
      "type": "function"
    }
  ],
  "bytecode": "0x608060405234801561001057600080fd5b50610a2a806100206000396000f30060806040526004361061013d5763ffffffff7c010000000000000000000000000000000000000000000000000000000060003504166306cd8b7581146101425780631a7f57ad146101695780632059b40d14610194578063233f9756146101a957806325b2d85e146101d557806334725c76146101ed5780633734c43b146102025780633ae5e30714610219578063706c3eae1461022e578063743d9ff81461024357806375f12b211461027e578063778193a1146102935780637d94792a146102be5780637f6d784b146102d35780637fe68b31146102e85780638da5cb5b146102fd5780638fceb6181461033b578063a035b1fe14610350578063b3cea21714610365578063b5820d751461037a578063c5ba2bd41461038f578063d0db65ce146103a4578063ecafa252146103bc578063f68d2d5b146103d1575b600080fd5b34801561014e57600080fd5b506101576103e6565b60408051918252519081900360200190f35b34801561017557600080fd5b5061017e6103ec565b6040805160ff9092168252519081900360200190f35b3480156101a057600080fd5b5061015761040f565b3480156101b557600080fd5b506101c1600435610415565b604080519115158252519081900360200190f35b3480156101e157600080fd5b506101c1600435610462565b3480156101f957600080fd5b506101576104b9565b34801561020e57600080fd5b506102176104bf565b005b34801561022557600080fd5b50610157610526565b34801561023a57600080fd5b5061017e61052c565b34801561024f57600080fd5b5061025861053c565b604080516fffffffffffffffffffffffffffffffff199092168252519081900360200190f35b34801561028a57600080fd5b506101c1610548565b34801561029f57600080fd5b506101576fffffffffffffffffffffffffffffffff1960043516610569565b3480156102ca57600080fd5b506101576107c0565b3480156102df57600080fd5b506101576107c6565b3480156102f457600080fd5b506102176107cc565b34801561030957600080fd5b50610312610810565b6040805173ffffffffffffffffffffffffffffffffffffffff9092168252519081900360200190f35b34801561034757600080fd5b5061015761082c565b34801561035c57600080fd5b50610157610832565b34801561037157600080fd5b50610157610838565b34801561038657600080fd5b5061015761083e565b34801561039b57600080fd5b5061017e610844565b3480156103b057600080fd5b50610258600435610866565b3480156103c857600080fd5b50610157610933565b3480156103dd57600080fd5b50610157610939565b60095481565b600c54760100000000000000000000000000000000000000000000900460ff1681565b600e5481565b6000818152601160205260408120600201546301e1338001421080159061044c575060008281526011602052604090206002015415155b156104595750600161045d565b5060005b919050565b600061046d82610415565b151561047b5750600161045d565b600082815260116020526040902054608060020a026fffffffffffffffffffffffffffffffff191615156104b15750600061045d565b506001919050565b60025481565b600c5473ffffffffffffffffffffffffffffffffffffffff1633146104e357600080fd5b600c805474ff0000000000000000000000000000000000000000198116740100000000000000000000000000000000000000009182900460ff1615909102179055565b60085481565b600b54608060020a900460ff1681565b600b54608060020a0281565b600c5474010000000000000000000000000000000000000000900460ff1681565b600080808080808080808080805b600b54600160ff608060020a909204821601811690831610156105c1576105a18d8360800361093f565b156105b6576105b38d83608003610971565b9c505b600190910190610577565b5060005b600b54600c5460ff608060020a909204821676010000000000000000000000000000000000000000000090910482160381169082161015610772576106218d82600b60109054906101000a900460ff166001010160800361093f565b15610756578060ff1660001115801561063e575060038160ff1611155b1561064c578260020a8b019a505b8060ff16600411158015610664575060078160ff1611155b15610672578260020a8a0199505b8060ff1660081115801561068a5750600b8160ff1611155b15610698578260020a890198505b8060ff16600c111580156106b05750600f8160ff1611155b156106be578260020a880197505b8060ff166010111580156106d6575060138160ff1611155b156106e4578260020a870196505b8060ff166014111580156106fc575060178160ff1611155b1561070a578260020a860195505b8060ff166018111580156107225750601b8160ff1611155b15610730578260020a850194505b8060ff16601c111580156107485750601f8160ff1611155b15610756578260020a840193505b826001019250826004141561076a57600092505b6001016105c5565b50506001631000000090920263010000009093026210000090940262010000909502611000909602610100909702601090980298909801969096019490940192909201010101019392505050565b600d5481565b60045481565b600c5473ffffffffffffffffffffffffffffffffffffffff1633146107f057600080fd5b600c805474ff000000000000000000000000000000000000000019169055565b600c5473ffffffffffffffffffffffffffffffffffffffff1681565b60035481565b60055481565b60075481565b60065481565b600c547501000000000000000000000000000000000000000000900460ff1681565b600b54600090608060020a0281600284061561089e5761089b82600b60109054906101000a900460ff16600101608003610998565b91505b5060015b600b54600c5460ff608060020a90920482167601000000000000000000000000000000000000000000009091048216038116908216101561092c5760028160ff1660020a858115156108f057fe5b048115156108fa57fe5b0615610924576109218282600b60109054906101000a900460ff1660010101608003610998565b91505b6001016108a2565b5092915050565b60005481565b60015481565b6000610952608060020a60ff84166109b4565b929092166fffffffffffffffffffffffffffffffff1916151592915050565b60008061098d610988608060020a60ff86166109b4565b6109d7565b939093169392505050565b60006109ab608060020a60ff84166109b4565b90921792915050565b6fffffffffffffffffffffffffffffffff1660020a608060020a91829004020290565b60006109e16109e9565b909118919050565b6fffffffffffffffffffffffffffffffff19905600a165627a7a72305820b79122e8f7564bae321a3369ade088affd7900c485a9058bb424242877ca0b2c0029",
  "source": "pragma solidity ^0.4.24;\r\n\r\nimport \"./Utility.sol\";\r\n\r\ncontract InBlock_Data is Utility{\r\n\r\n//******************************************************* MODIFIERS AND RELATED FUNCTION *******************************************************\r\n\r\n\r\n//FOR START AND STOP PARADIGM\r\n\r\nfunction prefixAllocationStop() onlyOwner() public{\r\n\tstopped=false;\r\n} \r\n\r\nmodifier notStopped(){\r\n\tif(stopped)throw;\r\n\t_;\r\n}\r\n\r\nfunction prefixAllocationResume() onlyOwner() public{\r\n\tstopped=!stopped;\r\n}\r\n\r\n\r\n\r\nmodifier onlyOwner(){\r\n   require (msg.sender == owner);\r\n        _;\r\n}\r\n\r\n\r\n/*function setSeed(uint a)public {\r\nseed=a;\r\n}*/\r\n\r\n\r\n//******************************************************* DATA STRUCTURE DEFINITION *******************************************************\r\n\r\nuint public prefixPrice1;\r\nuint public prefixPrice2;\r\nuint public prefixPrice3;\r\nuint public oraclesValidity;\r\nuint public securityPrice;\r\n//uint public askOracleCost;\r\nuint public price; \r\nuint public dollarsPrice;\r\nint public ID;\r\nint public ID_Index;\r\nint public ID_expired;\r\n\r\n//To store the price expressed in Wei (it is the common form). NB:  1 ether = 1000000000000000000 wei  \r\n\r\nstruct userPrefixPrice{\r\nuint prefixPrice;\r\nuint validity;\r\n}\r\n\r\n\r\nmapping(address=>userPrefixPrice) userPrefixPrices;\r\n\r\n//To store the initial_block\r\nbytes16 public initial_block;\r\nuint8 public base_prefix_mask;\r\n\t\r\n\t\r\n//The owner address \r\naddress public owner;\r\n\r\n//For Start and Stop paradigm\t\r\nbool public stopped; \t\r\n\t\r\n//To manage allocation and delegation\r\nuint8 public max_del;\r\nuint8 public allocation_prefix_mask;\r\nuint public seed;\r\nuint public max_allocable_blocks;\r\n\r\nstruct index{\r\nint ind;\r\n}\r\n\r\nstruct dIndex{\r\nint counter;\r\nmapping(int=>int) del_ID_List;\r\n}\r\n\r\nstruct Info{\r\n\tbytes uri; \r\n\tbytes hashFunction;\r\n\tbytes hash;\r\n}\r\n\r\nstruct Block{\r\n\tbytes16 ip_address;\r\n\taddress o_addr;\r\n\tuint8 mask;\r\n\tuint date;\r\n\tInfo info;\r\n\tbytes Roa;\r\n\tmapping(int=>del_Block) del_blocks;\r\n\tmapping(int=>index) del_array_index; \r\n\tdIndex dindex;\r\n\tint del_ID_Index;\r\n\tint ID_delegated;\r\n}\r\n\r\nstruct del_Block{\r\n\tbytes16 ip_address;\r\n\taddress o_addr;\r\n\tuint8 mask;\r\n\tint parent;\r\n\tint left;\r\n\tint right;\r\n\tInfo info;\r\n\tbytes Roa;\r\n\t\r\n}\r\n\r\n\r\nmapping(int =>index) array_index;\r\nmapping(int =>index) expired_array_index;\r\n\r\nmapping(int=>Block) blocks;\r\n\r\n\r\n//******************************************************** COMMON FUNCTION ***********************************************************************\r\n\t  \r\n\t function reverseSparse(bytes16 input) public view returns (uint num) {\r\n        uint256 n = 0;\r\n        uint256 n0=0;\r\n\t\tuint256 n1=0;\r\n\t\tuint256 n2=0;\r\n\t\tuint256 n3=0;\r\n\t\tuint256 n4=0;\r\n\t\tuint256 n5=0;\r\n\t\tuint256 n6=0;\r\n\t\tuint256 w=0;\r\n\t\tfor(uint8 j=0; j<base_prefix_mask+1;j++){\r\n\t\t\tif(getBit(input,128-j)){\r\n\t\t\t\tinput=clearBit(input, 128-j);\r\n\t\t\t}\r\n\t\t\r\n\t\t}\r\n\t\t\r\n\t\tfor (uint8 i = 0; i < allocation_prefix_mask-base_prefix_mask; i++) {\r\n            if (getBit(input,128-(base_prefix_mask+1+i))){\r\n\t\t\t\tif(0<=i && i<=3){\r\n\t\t\t\tn=n+2**w;\r\n\t\t\t\t}\r\n\t\t\t\tif(4<=i && i<=7){\r\n\t\t\t\tn0= n0+ 2**w;\r\n\t\t\t\t}\r\n\t\t\t\tif(8<=i && i<=11){\r\n\t\t\t\tn1= n1+2**w;\r\n\t\t\t\t}\r\n\t\t\t\tif(12<=i && i<=15){\r\n\t\t\t\tn2= n2+2**w;\r\n\t\t\t\t}\r\n\t\t\t\tif(16<=i && i<=19){\r\n\t\t\t\tn3= n3+2**w;\r\n\t\t\t\t}\r\n\t\t\t\tif(20<=i && i<=23){\r\n\t\t\t\tn4= n4+2**w;\r\n\t\t\t\t}\r\n\t\t\t\tif(24<=i && i<=27){\r\n\t\t\t\tn5= n5+2**w;\r\n\t\t\t\t}\r\n\t\t\t\tif(28<=i && i<=31){\r\n\t\t\t\tn6= n6+2**w;\r\n\t\t\t\t}\r\n\t\t\t\t\r\n\t\t\t\t\r\n            }\r\n\t\t\tw=w+1;\r\n\t\t\tif(w==4){\r\n\t\t\tw=0;\r\n\t\t\t}\r\n        }\r\n\t\t\r\n\t\t\tn=n+16*n0;\r\n\t\t\tn=n+16*16*n1; \r\n\t\t\tn=n+16*16*16*n2;\r\n\t\t\tn=n+16*16*16*16*n3;\r\n\t\t\tn=n+16*16*16*16*16*n4;\r\n\t\t\tn=n+16*16*16*16*16*16*n5;\r\n\t\t\tn=n+16*16*16*16*16*16*16*n6;\r\n        return (n+1);\r\n    } \r\n\t  \r\n\r\nfunction sparse(uint id) public view returns(bytes16){\r\n\r\n\tbytes16 app = initial_block;\r\n\tif(id%2 !=0) app=setBit(app,128-(base_prefix_mask+1));  \r\n\tfor(uint8 j=1; j<(allocation_prefix_mask-base_prefix_mask); j++){\r\n\t\tif((id/(2**(uint(j))))%2!=0) app=setBit(app,128- (base_prefix_mask+1+j));\r\n\t\t}\r\n\treturn app;\r\n}\r\n\r\n\r\n  function isAllocatedPrefixExpired(int id) view public returns (bool){\r\n\t\r\n\tif(now >= (blocks[id].date + 365* 1 days) && blocks[id].date!=0 ){\r\n\t\treturn true;\r\n\t\t}else return false; \r\n\t}\r\n\r\n\t/*function isPrefixInUseIP(bytes16 ip) view public returns(bool){\r\n\tint id=int(reverseSparse(ip));\r\n\t\tif(!isAllocatedPrefixExpired(id)){\r\n\t\t\treturn true;\r\n\t\t}\r\n\t\telse if(blocks[id].ip_address==\"\"){\r\n\t\t\treturn false; \r\n\t\t\t}\r\n\t\treturn true;\r\n\t}*/\r\n\t\r\n\tfunction isPrefixInUse(int id) view public returns(bool){\r\n\t\tif(!isAllocatedPrefixExpired(id)){\r\n\t\t\treturn true;\r\n\t\t}\r\n\t\telse if(blocks[id].ip_address==\"\"){\r\n\t\t\treturn false; \r\n\t\t\t}\r\n\t\treturn true;\r\n\t}\r\n\r\n  /*function expire_id(int id) public returns (bool){\r\n\t\r\n\tif(blocks[id].date!=0 ){\r\n\t    blocks[id].date=blocks[id].date - 365* 1 days;\r\n\t\treturn true;\r\n\t\t}else return false; \r\n\t}*/\r\n\r\n\r\n}// END OF THE CONTRACT",
  "sourcePath": "C:\\Users\\User\\Desktop\\Opt_inblock_code\\InBlock\\contracts\\InBlock_Data.sol",
  "compiler": {
    "name": "solc",
    "version": "0.4.25+commit.59dbf8f1.Emscripten.clang"
  },
  "schemaVersion": "2.0.2",
  "updatedAt": "2020-02-06T15:11:09.672Z"
}