{
  "contractName": "InBlock_F_del",
  "abi": [
    {
      "constant": true,
      "inputs": [],
      "name": "ID_expired",
      "outputs": [
        {
          "name": "",
          "type": "int256"
        }
      ],
      "payable": false,
      "stateMutability": "view",
      "type": "function"
    },
    {
      "constant": false,
      "inputs": [],
      "name": "circuitBreaker",
      "outputs": [],
      "payable": false,
      "stateMutability": "nonpayable",
      "type": "function"
    },
    {
      "constant": true,
      "inputs": [],
      "name": "allocation_prefix_mask",
      "outputs": [
        {
          "name": "",
          "type": "uint8"
        }
      ],
      "payable": false,
      "stateMutability": "view",
      "type": "function"
    },
    {
      "constant": true,
      "inputs": [],
      "name": "max_allocable_blocks",
      "outputs": [
        {
          "name": "",
          "type": "uint256"
        }
      ],
      "payable": false,
      "stateMutability": "view",
      "type": "function"
    },
    {
      "constant": true,
      "inputs": [
        {
          "name": "id",
          "type": "int256"
        }
      ],
      "name": "isAllocatedPrefixExpired",
      "outputs": [
        {
          "name": "",
          "type": "bool"
        }
      ],
      "payable": false,
      "stateMutability": "view",
      "type": "function"
    },
    {
      "constant": true,
      "inputs": [
        {
          "name": "id",
          "type": "int256"
        }
      ],
      "name": "isPrefixInUse",
      "outputs": [
        {
          "name": "",
          "type": "bool"
        }
      ],
      "payable": false,
      "stateMutability": "view",
      "type": "function"
    },
    {
      "constant": true,
      "inputs": [],
      "name": "prefixPrice3",
      "outputs": [
        {
          "name": "",
          "type": "uint256"
        }
      ],
      "payable": false,
      "stateMutability": "view",
      "type": "function"
    },
    {
      "constant": true,
      "inputs": [],
      "name": "ID_Index",
      "outputs": [
        {
          "name": "",
          "type": "int256"
        }
      ],
      "payable": false,
      "stateMutability": "view",
      "type": "function"
    },
    {
      "constant": false,
      "inputs": [],
      "name": "toggleCircuit",
      "outputs": [],
      "payable": false,
      "stateMutability": "nonpayable",
      "type": "function"
    },
    {
      "constant": true,
      "inputs": [],
      "name": "base_prefix_mask",
      "outputs": [
        {
          "name": "",
          "type": "uint8"
        }
      ],
      "payable": false,
      "stateMutability": "view",
      "type": "function"
    },
    {
      "constant": true,
      "inputs": [],
      "name": "initial_block",
      "outputs": [
        {
          "name": "",
          "type": "bytes16"
        }
      ],
      "payable": false,
      "stateMutability": "view",
      "type": "function"
    },
    {
      "constant": true,
      "inputs": [],
      "name": "stopped",
      "outputs": [
        {
          "name": "",
          "type": "bool"
        }
      ],
      "payable": false,
      "stateMutability": "view",
      "type": "function"
    },
    {
      "constant": true,
      "inputs": [
        {
          "name": "input",
          "type": "bytes16"
        }
      ],
      "name": "reverseSparse",
      "outputs": [
        {
          "name": "num",
          "type": "uint256"
        }
      ],
      "payable": false,
      "stateMutability": "view",
      "type": "function"
    },
    {
      "constant": true,
      "inputs": [],
      "name": "seed",
      "outputs": [
        {
          "name": "",
          "type": "uint256"
        }
      ],
      "payable": false,
      "stateMutability": "view",
      "type": "function"
    },
    {
      "constant": true,
      "inputs": [],
      "name": "securityPrice",
      "outputs": [
        {
          "name": "",
          "type": "uint256"
        }
      ],
      "payable": false,
      "stateMutability": "view",
      "type": "function"
    },
    {
      "constant": true,
      "inputs": [],
      "name": "owner",
      "outputs": [
        {
          "name": "",
          "type": "address"
        }
      ],
      "payable": false,
      "stateMutability": "view",
      "type": "function"
    },
    {
      "constant": true,
      "inputs": [],
      "name": "oraclesValidity",
      "outputs": [
        {
          "name": "",
          "type": "uint256"
        }
      ],
      "payable": false,
      "stateMutability": "view",
      "type": "function"
    },
    {
      "constant": true,
      "inputs": [],
      "name": "price",
      "outputs": [
        {
          "name": "",
          "type": "uint256"
        }
      ],
      "payable": false,
      "stateMutability": "view",
      "type": "function"
    },
    {
      "constant": true,
      "inputs": [],
      "name": "ID",
      "outputs": [
        {
          "name": "",
          "type": "int256"
        }
      ],
      "payable": false,
      "stateMutability": "view",
      "type": "function"
    },
    {
      "constant": true,
      "inputs": [],
      "name": "dollarsPrice",
      "outputs": [
        {
          "name": "",
          "type": "uint256"
        }
      ],
      "payable": false,
      "stateMutability": "view",
      "type": "function"
    },
    {
      "constant": true,
      "inputs": [],
      "name": "max_del",
      "outputs": [
        {
          "name": "",
          "type": "uint8"
        }
      ],
      "payable": false,
      "stateMutability": "view",
      "type": "function"
    },
    {
      "constant": true,
      "inputs": [
        {
          "name": "id",
          "type": "uint256"
        }
      ],
      "name": "sparse",
      "outputs": [
        {
          "name": "",
          "type": "bytes16"
        }
      ],
      "payable": false,
      "stateMutability": "view",
      "type": "function"
    },
    {
      "constant": true,
      "inputs": [],
      "name": "prefixPrice1",
      "outputs": [
        {
          "name": "",
          "type": "uint256"
        }
      ],
      "payable": false,
      "stateMutability": "view",
      "type": "function"
    },
    {
      "constant": true,
      "inputs": [],
      "name": "prefixPrice2",
      "outputs": [
        {
          "name": "",
          "type": "uint256"
        }
      ],
      "payable": false,
      "stateMutability": "view",
      "type": "function"
    },
    {
      "anonymous": false,
      "inputs": [
        {
          "indexed": true,
          "name": "_from",
          "type": "address"
        },
        {
          "indexed": false,
          "name": "_value",
          "type": "uint256"
        },
        {
          "indexed": false,
          "name": "id1",
          "type": "int256"
        },
        {
          "indexed": false,
          "name": "id2",
          "type": "int256"
        }
      ],
      "name": "delegatedPrefixRoaEvent",
      "type": "event"
    },
    {
      "constant": false,
      "inputs": [
        {
          "name": "_parent_ip",
          "type": "bytes16"
        },
        {
          "name": "del_ip",
          "type": "bytes16"
        },
        {
          "name": "bar",
          "type": "uint8"
        },
        {
          "name": "delegated_address",
          "type": "address"
        }
      ],
      "name": "delegatePrefix",
      "outputs": [],
      "payable": false,
      "stateMutability": "nonpayable",
      "type": "function"
    },
    {
      "constant": false,
      "inputs": [
        {
          "name": "parent_ip",
          "type": "bytes16"
        },
        {
          "name": "del_ip",
          "type": "bytes16"
        },
        {
          "name": "mask",
          "type": "uint8"
        }
      ],
      "name": "revokeDelegatedPrefix",
      "outputs": [],
      "payable": false,
      "stateMutability": "nonpayable",
      "type": "function"
    },
    {
      "constant": true,
      "inputs": [
        {
          "name": "ip",
          "type": "bytes16"
        },
        {
          "name": "ip2",
          "type": "bytes16"
        },
        {
          "name": "_mask",
          "type": "uint8"
        }
      ],
      "name": "del_find",
      "outputs": [
        {
          "name": "",
          "type": "int256"
        }
      ],
      "payable": false,
      "stateMutability": "view",
      "type": "function"
    },
    {
      "constant": true,
      "inputs": [
        {
          "name": "id",
          "type": "int256"
        },
        {
          "name": "id2",
          "type": "int256"
        }
      ],
      "name": "getDelBlockID",
      "outputs": [
        {
          "name": "",
          "type": "bytes16"
        },
        {
          "name": "",
          "type": "address"
        },
        {
          "name": "",
          "type": "uint8"
        },
        {
          "name": "",
          "type": "int256"
        },
        {
          "name": "",
          "type": "int256"
        },
        {
          "name": "",
          "type": "int256"
        }
      ],
      "payable": false,
      "stateMutability": "view",
      "type": "function"
    },
    {
      "constant": true,
      "inputs": [
        {
          "name": "ip",
          "type": "bytes16"
        },
        {
          "name": "start",
          "type": "int256"
        },
        {
          "name": "stop",
          "type": "int256"
        }
      ],
      "name": "getIDsDelBlocks",
      "outputs": [
        {
          "name": "result",
          "type": "uint256[]"
        }
      ],
      "payable": false,
      "stateMutability": "view",
      "type": "function"
    },
    {
      "constant": true,
      "inputs": [
        {
          "name": "id",
          "type": "int256"
        }
      ],
      "name": "getIDsDelBlocksID2",
      "outputs": [
        {
          "name": "result",
          "type": "uint256[]"
        }
      ],
      "payable": false,
      "stateMutability": "view",
      "type": "function"
    },
    {
      "constant": true,
      "inputs": [
        {
          "name": "id",
          "type": "int256"
        },
        {
          "name": "start",
          "type": "int256"
        },
        {
          "name": "stop",
          "type": "int256"
        }
      ],
      "name": "getIDsDelBlocksID",
      "outputs": [
        {
          "name": "result",
          "type": "uint256[]"
        }
      ],
      "payable": false,
      "stateMutability": "view",
      "type": "function"
    },
    {
      "constant": false,
      "inputs": [
        {
          "name": "ip_parent",
          "type": "bytes16"
        },
        {
          "name": "ip",
          "type": "bytes16"
        },
        {
          "name": "mask",
          "type": "uint8"
        },
        {
          "name": "uri",
          "type": "bytes"
        },
        {
          "name": "hashFunction",
          "type": "bytes"
        },
        {
          "name": "hash",
          "type": "bytes"
        }
      ],
      "name": "setDelegatedPrefixPolicyURI",
      "outputs": [],
      "payable": false,
      "stateMutability": "nonpayable",
      "type": "function"
    },
    {
      "constant": false,
      "inputs": [
        {
          "name": "ip_parent",
          "type": "bytes16"
        },
        {
          "name": "ip",
          "type": "bytes16"
        },
        {
          "name": "mask",
          "type": "uint8"
        },
        {
          "name": "ASes",
          "type": "bytes"
        }
      ],
      "name": "setDelegatedPrefixRoA",
      "outputs": [],
      "payable": false,
      "stateMutability": "nonpayable",
      "type": "function"
    },
    {
      "constant": false,
      "inputs": [
        {
          "name": "id1",
          "type": "int256"
        },
        {
          "name": "id2",
          "type": "int256"
        },
        {
          "name": "ASes",
          "type": "bytes"
        }
      ],
      "name": "setDelegatedPrefixRoAID",
      "outputs": [],
      "payable": false,
      "stateMutability": "nonpayable",
      "type": "function"
    },
    {
      "constant": true,
      "inputs": [
        {
          "name": "ip_parent",
          "type": "bytes16"
        },
        {
          "name": "ip",
          "type": "bytes16"
        },
        {
          "name": "mask",
          "type": "uint8"
        }
      ],
      "name": "getDelegatedPrefixRoA",
      "outputs": [
        {
          "name": "",
          "type": "bytes"
        }
      ],
      "payable": false,
      "stateMutability": "view",
      "type": "function"
    },
    {
      "constant": true,
      "inputs": [
        {
          "name": "ip_parent",
          "type": "bytes16"
        },
        {
          "name": "ip",
          "type": "bytes16"
        },
        {
          "name": "mask",
          "type": "uint8"
        }
      ],
      "name": "getDelegatedPrefixPolicyURI",
      "outputs": [
        {
          "name": "",
          "type": "bytes"
        },
        {
          "name": "",
          "type": "bytes"
        },
        {
          "name": "",
          "type": "bytes"
        }
      ],
      "payable": false,
      "stateMutability": "view",
      "type": "function"
    },
    {
      "constant": true,
      "inputs": [
        {
          "name": "id",
          "type": "int256"
        },
        {
          "name": "id2",
          "type": "int256"
        }
      ],
      "name": "getDelegatedPrefixRoAID",
      "outputs": [
        {
          "name": "",
          "type": "bytes16"
        },
        {
          "name": "",
          "type": "bytes"
        },
        {
          "name": "",
          "type": "uint8"
        }
      ],
      "payable": false,
      "stateMutability": "view",
      "type": "function"
    }
  ],
  "bytecode": "0x608060405234801561001057600080fd5b50613679806100206000396000f3006080604052600436106101cc5763ffffffff7c010000000000000000000000000000000000000000000000000000000060003504166306cd8b7581146101d15780630c93e05f146101f857806316efd941146102e95780631a7f57ad146102fe5780632059b40d146103295780632129b23b1461033e578063233f9756146103b657806325b2d85e146103e25780632e53c121146103fa57806334725c76146104345780633ae5e307146104495780633cf4d0391461045e57806349621851146105015780634be4926f146105165780635c6d2bc914610544578063702335e614610562578063706c3eae1461059057806371d0fb94146105a5578063743d9ff81461065457806375f12b2114610686578063778193a11461069b5780637c08049b146106bd5780637d94792a146106d55780637f6d784b146106ea5780638da5cb5b146106ff5780638fceb61814610730578063983abe5a146107455780639c68daeb146107b8578063a035b1fe1461092a578063b3cea2171461093f578063b5820d7514610954578063c5ba2bd414610969578063d0db65ce1461097e578063ecafa25214610996578063f31a6df8146109ab578063f68d2d5b14610a0b578063fe68628314610a20575b600080fd5b3480156101dd57600080fd5b506101e6610a83565b60408051918252519081900360200190f35b34801561020457600080fd5b50604080516020601f6064356004818101359283018490048402850184019095528184526102e7946001608060020a03198135811695602480359092169560ff604435169536956084940191819084018382808284375050604080516020601f89358b018035918201839004830284018301909452808352979a99988101979196509182019450925082915084018382808284375050604080516020601f89358b018035918201839004830284018301909452808352979a999881019791965091820194509250829150840183828082843750949750610a899650505050505050565b005b3480156102f557600080fd5b506102e7610b74565b34801561030a57600080fd5b50610313610bab565b6040805160ff9092168252519081900360200190f35b34801561033557600080fd5b506101e6610bbb565b34801561034a57600080fd5b506103666001608060020a031960043516602435604435610bc1565b60408051602080825283518183015283519192839290830191858101910280838360005b838110156103a257818101518382015260200161038a565b505050509050019250505060405180910390f35b3480156103c257600080fd5b506103ce600435610cab565b604080519115158252519081900360200190f35b3480156103ee57600080fd5b506103ce600435610cf8565b34801561040657600080fd5b506102e76001608060020a03196004358116906024351660ff60443516600160a060020a0360643516610d46565b34801561044057600080fd5b506101e6610f50565b34801561045557600080fd5b506101e6610f56565b34801561046a57600080fd5b5061048c6001608060020a03196004358116906024351660ff60443516610f5c565b6040805160208082528351818301528351919283929083019185019080838360005b838110156104c65781810151838201526020016104ae565b50505050905090810190601f1680156104f35780820380516001836020036101000a031916815260200191505b509250505060405180910390f35b34801561050d57600080fd5b506102e761105d565b34801561052257600080fd5b506102e76001608060020a03196004358116906024351660ff604435166110a6565b34801561055057600080fd5b506103666004356024356044356114cf565b34801561056e57600080fd5b506101e66001608060020a03196004358116906024351660ff604435166115ac565b34801561059c57600080fd5b50610313611711565b3480156105b157600080fd5b506105c0600435602435611721565b604080516001608060020a03198516815260ff831691810191909152606060208083018281528551928401929092528451608084019186019080838360005b838110156106175781810151838201526020016105ff565b50505050905090810190601f1680156106445780820380516001836020036101000a031916815260200191505b5094505050505060405180910390f35b34801561066057600080fd5b50610669611833565b604080516001608060020a03199092168252519081900360200190f35b34801561069257600080fd5b506103ce61183f565b3480156106a757600080fd5b506101e66001608060020a03196004351661184f565b3480156106c957600080fd5b50610366600435611a93565b3480156106e157600080fd5b506101e6611b48565b3480156106f657600080fd5b506101e6611b4e565b34801561070b57600080fd5b50610714611b54565b60408051600160a060020a039092168252519081900360200190f35b34801561073c57600080fd5b506101e6611b63565b34801561075157600080fd5b50604080516020601f6064356004818101359283018490048402850184019095528184526102e7946001608060020a03198135811695602480359092169560ff6044351695369560849401918190840183828082843750949750611b699650505050505050565b3480156107c457600080fd5b506107e66001608060020a03196004358116906024351660ff60443516611c24565b60405180806020018060200180602001848103845287818151815260200191508051906020019080838360005b8381101561082b578181015183820152602001610813565b50505050905090810190601f1680156108585780820380516001836020036101000a031916815260200191505b50848103835286518152865160209182019188019080838360005b8381101561088b578181015183820152602001610873565b50505050905090810190601f1680156108b85780820380516001836020036101000a031916815260200191505b50848103825285518152855160209182019187019080838360005b838110156108eb5781810151838201526020016108d3565b50505050905090810190601f1680156109185780820380516001836020036101000a031916815260200191505b50965050505050505060405180910390f35b34801561093657600080fd5b506101e6611e5c565b34801561094b57600080fd5b506101e6611e62565b34801561096057600080fd5b506101e6611e68565b34801561097557600080fd5b50610313611e6e565b34801561098a57600080fd5b50610669600435611e90565b3480156109a257600080fd5b506101e6611f4a565b3480156109b757600080fd5b50604080516020600460443581810135601f81018490048402850184019095528484526102e7948235946024803595369594606494920191908190840183828082843750949750611f509650505050505050565b348015610a1757600080fd5b506101e6612030565b348015610a2c57600080fd5b50610a3b600435602435612036565b604080516001608060020a03199097168752600160a060020a03909516602087015260ff909316858501526060850191909152608084015260a0830152519081900360c00190f35b60095481565b600080610a958861184f565b9150610aa082610cf8565b1515610aab57600080fd5b610ab68888886115ac565b90508060001914158015610acc57508060011914155b1515610ad757600080fd5b600082815260116020908152604080832084845260070182529091208651610b07926005909201918801906135b5565b50600082815260116020908152604080832084845260070182529091208551610b38926006909201918701906135b5565b5060008281526011602090815260408083208484526007908101835292208551610b699391909101918601906135b5565b505050505050505050565b600c54600160a060020a03163314610b8b57600080fd5b600c805474ff000000000000000000000000000000000000000019169055565b600c5460b060020a900460ff1681565b600e5481565b6060600080600080610bd28861184f565b9350610bdf8888886120b2565b925082604051908082528060200260200182016040528015610c0b578160200160208202803883390190505b509450600091508690505b85600101811215610ca057600084815260116020908152604080832084845260088101835281842054845260070190915290206001015460a060020a900460ff1615610c985760008481526011602090815260408083208484526008019091529020548551869084908110610c8757fe5b602090810290910101526001909101905b600101610c16565b505050509392505050565b6000818152601160205260408120600201546301e13380014210801590610ce2575060008281526011602052604090206002015415155b15610cef57506001610cf3565b5060005b919050565b6000610d0382610cab565b1515610d1157506001610cf3565b600082815260116020526040902054608060020a026001608060020a0319161515610d3e57506000610cf3565b506001919050565b600c54600090819060a060020a900460ff1615610d6257600080fd5b600c5460ff750100000000000000000000000000000000000000000090910481169085161115610d9157600080fd5b600c54610dab90879060b060020a900460ff168787612146565b1515610e01576040805160e560020a62461bcd02815260206004820152601e60248201527f54686520656e7465726564206970206973206f7574206f662072616e67650000604482015290519081900360640190fd5b610e0a8661184f565b600081815260116020526040902060010154909250600160a060020a03163314610e7e576040805160e560020a62461bcd02815260206004820152601960248201527f4f7065726174696f6e206e6f7420617574686f72697a65642100000000000000604482015290519081900360640190fd5b610e898686866121a8565b1515610f05576040805160e560020a62461bcd02815260206004820152603360248201527f54686520656e746572656420626c6f636b2069732070617274206f6620616e6f60448201527f74686572206578697374696e6720626c6f636b00000000000000000000000000606482015290519081900360840190fd5b610f108686866115ac565b90508060001914158015610f2657508060011914155b15610f3c57610f3786868686612597565b610f48565b610f4886868686612597565b505050505050565b60025481565b60085481565b6060600080610f6a8661184f565b9150610f7582610cf8565b1515610f8057600080fd5b610f8b8686866115ac565b90508060001914158015610fa157508060011914155b1515610fac57600080fd5b600082815260116020908152604080832084845260070182529182902060080180548351601f60026000196101006001861615020190931692909204918201849004840281018401909452808452909183018282801561104d5780601f106110225761010080835404028352916020019161104d565b820191906000526020600020905b81548152906001019060200180831161103057829003601f168201915b5050505050925050509392505050565b600c54600160a060020a0316331461107457600080fd5b600c805474ff000000000000000000000000000000000000000019811660a060020a9182900460ff1615909102179055565b6000806000806000600c60149054906101000a900460ff16156110c857600080fd5b6110d18861184f565b94506110dc85610cf8565b15156110e757600080fd5b600085815260116020526040902060010154600160a060020a03163314611158576040805160e560020a62461bcd02815260206004820152601a60248201527f4f7065726174696f6e206e6f7420417574686f72697a65642121000000000000604482015290519081900360640190fd5b6111638888886115ac565b9350836000191415801561117957508360011914155b151561118457600080fd5b600085815260116020908152604080832087845260070180835281842080546001608060020a031916815560018101805474ffffffffffffffffffffffffffffffffffffffffff1916905582518085019384905285815294899052925291516111f392600890920191906135b5565b50604080516020818101808452600080845289815260118352848120898252600701909252929020905161122d92600590920191906135b5565b50604080516020818101808452600080845289815260118352848120898252600701909252929020905161126792600690920191906135b5565b5060408051602081810180845260008084528981526011835284812089825260079081019093529390932091516112a3939290910191906135b5565b50839250839150600090505b600c54600160ff60b060020a9092048216880301168112156114c55760008581526011602090815260408083208684526007019091529020600201549291506112ff8760808890038390036133a7565b15156113fe5760008581526011602090815260408083208684526007019091529020600401541561139457600085815260116020908152604080832086845260070190915280822060040154825290205461135f90608060020a026133d0565b1561138f576000858152601160209081526040808320868452600701909152902080546001608060020a03191690555b6113f9565b60008581526011602090815260408083208684526007019091528082206003015482529020546113c990608060020a026133d0565b156113f9576000858152601160209081526040808320868452600701909152902080546001608060020a03191690555b6114bd565b6000858152601160209081526040808320868452600701909152902060030154156114585760008581526011602090815260408083208684526007019091528082206003015482529020546113c990608060020a026133d0565b600085815260116020908152604080832086845260070190915280822060040154825290205461148d90608060020a026133d0565b156114bd576000858152601160209081526040808320868452600701909152902080546001608060020a03191690555b6001016112af565b5050505050505050565b606060008060006114e1878787613475565b92508260405190808252806020026020018201604052801561150d578160200160208202803883390190505b509350600091508590505b846001018112156115a257600087815260116020908152604080832084845260088101835281842054845260070190915290206001015460a060020a900460ff161561159a576000878152601160209081526040808320848452600801909152902054845185908490811061158957fe5b602090810290910101526001909101905b600101611518565b5050509392505050565b60008060008060006115bd8861184f565b93506115c884610cf8565b15156115d8576000199450610ca0565b5060009150819050805b600c54600160ff60b060020a9092048216880301168212156116f95760008481526011602090815260408083208684526007019091529020546001608060020a0319888116608060020a909202161480156116685750600084815260116020908152604080832086845260070190915290206001015460ff87811660a060020a90920416145b156116795760019050829450610ca0565b61169a8783600c60169054906101000a900460ff16016001016080036133a7565b15156116c9576000848152601160209081526040808320958352600790950190529290922060030154916116ee565b6000848152601160209081526040808320958352600790950190529290922060040154915b8160010191506115e2565b801561170757829450610ca0565b6001199450610ca0565b600b54608060020a900460ff1681565b60006060600061173085610cf8565b151561173b57600080fd5b836000191415801561174f57508360011914155b151561175a57600080fd5b60008581526011602090815260408083208784526007018252918290208054600180830154600890930180548651600261010094831615949094026000190190911692909204601f8101869004860283018601909652858252608060020a90920294919360a060020a90930460ff16929091849183018282801561181f5780601f106117f45761010080835404028352916020019161181f565b820191906000526020600020905b81548152906001019060200180831161180257829003601f168201915b505050505091509250925092509250925092565b600b54608060020a0281565b600c5460a060020a900460ff1681565b600080808080808080808080805b600b54600160ff608060020a909204821601811690831610156118a7576118878d836080036133a7565b1561189c576118998d836080036134f3565b9c505b60019091019061185d565b5060005b600b54600c5460ff608060020a909204821660b060020a90910482160381169082161015611a45576118f48d82600b60109054906101000a900460ff16600101016080036133a7565b15611a29578060ff16600011158015611911575060038160ff1611155b1561191f578260020a8b019a505b8060ff16600411158015611937575060078160ff1611155b15611945578260020a8a0199505b8060ff1660081115801561195d5750600b8160ff1611155b1561196b578260020a890198505b8060ff16600c111580156119835750600f8160ff1611155b15611991578260020a880197505b8060ff166010111580156119a9575060138160ff1611155b156119b7578260020a870196505b8060ff166014111580156119cf575060178160ff1611155b156119dd578260020a860195505b8060ff166018111580156119f55750601b8160ff1611155b15611a03578260020a850194505b8060ff16601c11158015611a1b5750601f8160ff1611155b15611a29578260020a840193505b8260010192508260041415611a3d57600092505b6001016118ab565b50506001631000000090920263010000009093026210000090940262010000909502611000909602610100909702601090980298909801969096019490940192909201010101019392505050565b60606000806011600085815260200190815260200160002060090160000154604051908082528060200260200182016040528015611adb578160200160208202803883390190505b50925060009150600090505b600084815260116020526040902060090154811215611b41576000848152601160209081526040808320848452600a019091529020548351849084908110611b2b57fe5b6020908102909101015260019182019101611ae7565b5050919050565b600d5481565b60045481565b600c54600160a060020a031681565b60035481565b600080611b758661184f565b9150611b8082610cf8565b1515611b8b57600080fd5b611b968686866115ac565b90508060001914158015611bac57508060011914155b1515611bb757600080fd5b6000828152601160209081526040808320848452600701909152902060010154600160a060020a03163314611beb57600080fd5b600082815260116020908152604080832084845260070182529091208451611c1b926008909201918601906135b5565b50505050505050565b6060806060600080611c358861184f565b9150611c4082610cf8565b1515611c4b57600080fd5b611c568888886115ac565b90508060001914158015611c6c57508060011914155b1515611c7757600080fd5b60008281526011602090815260408083208484526007908101835292819020600581018054835160026001831615610100026000190190921691909104601f810186900486028201860190945283815290948201936006909201929091859190830182828015611d285780601f10611cfd57610100808354040283529160200191611d28565b820191906000526020600020905b815481529060010190602001808311611d0b57829003601f168201915b5050855460408051602060026001851615610100026000190190941693909304601f810184900484028201840190925281815295985087945092508401905082828015611db65780601f10611d8b57610100808354040283529160200191611db6565b820191906000526020600020905b815481529060010190602001808311611d9957829003601f168201915b5050845460408051602060026001851615610100026000190190941693909304601f810184900484028201840190925281815295975086945092508401905082828015611e445780601f10611e1957610100808354040283529160200191611e44565b820191906000526020600020905b815481529060010190602001808311611e2757829003601f168201915b50505050509050945094509450505093509350939050565b60055481565b60075481565b60065481565b600c547501000000000000000000000000000000000000000000900460ff1681565b600b54600090608060020a02816002840615611ec857611ec582600b60109054906101000a900460ff1660010160800361351a565b91505b5060015b600b54600c5460ff608060020a909204821660b060020a90910482160381169082161015611f435760028160ff1660020a85811515611f0757fe5b04811515611f1157fe5b0615611f3b57611f388282600b60109054906101000a900460ff166001010160800361351a565b91505b600101611ecc565b5092915050565b60005481565b611f5983610cf8565b1515611f6457600080fd5b8160001914158015611f7857508160011914155b1515611f8357600080fd5b6000838152601160209081526040808320858452600701909152902060010154600160a060020a03163314611fb757600080fd5b600083815260116020908152604080832085845260070182529091208251611fe7926008909201918401906135b5565b506040805134815260208101859052808201849052905133917f76f177494013f6f04926cae4726a97377143eebf3ec7b7a5ba7e418454eb77d3919081900360600190a2505050565b60015481565b60008060008060008061204888610cab565b1561205257600080fd5b50505060009485525050601160209081526040808520938552600790930190525090208054600182015460028301546003840154600490940154608060020a90930294600160a060020a0383169460a060020a90930460ff169391929190565b6000806000806000806120c48961184f565b9450600093508792505b8660010183121561213957505060008381526011602090815260408083208484526008810183528184205480855260079091019092529091208054600190910154608060020a9091029060a060020a900460ff161561212e578360010193505b6001909201916120ce565b5091979650505050505050565b6000806000612158878760ff16613536565b9150612167858760ff16613536565b90506001608060020a031982811690821614801561218b57508360ff168660ff1611155b15612199576001925061219e565b600092505b5050949350505050565b60008060008060008060006121bc8a61184f565b95506121c786610cf8565b15156121d257600080fd5b5060009350839250829150819050805b600c54600160ff60b060020a830481167501000000000000000000000000000000000000000000909304811692909203011683128015612220575081155b15612576576122468984600c60169054906101000a900460ff16016001016080036133a7565b15156123de57600c54939450849360ff60b060020a909104811689036001011683141561231d57600086815260116020908152604080832088845260070190915290205461229990608060020a026133d0565b15806122d7575060008681526011602090815260408083208884526007019091528082206003015482529020546122d590608060020a026133d0565b155b806123145750600086815260116020908152604080832088845260070190915280822060040154825290205461231290608060020a026133d0565b155b1561231d575060015b600086815260116020908152604080832088845260070190915290205461234990608060020a026133d0565b15801561237e5750600086815260116020908152604080832088845260070190915290206001015460a060020a900460ff1615155b15612387575060015b600086815260116020908152604080832088845260070190915290206003015415156123b657600191506123d9565b600086815260116020908152604080832088845260070190915290206003015493505b61256b565b600c54939450849360ff60b060020a90910481168903600101168314156124af57600086815260116020908152604080832088845260070190915290205461242b90608060020a026133d0565b15806124695750600086815260116020908152604080832088845260070190915280822060030154825290205461246790608060020a026133d0565b155b806124a6575060008681526011602090815260408083208884526007019091528082206004015482529020546124a490608060020a026133d0565b155b156124af575060015b60008681526011602090815260408083208884526007019091529020546124db90608060020a026133d0565b1580156125105750600086815260116020908152604080832088845260070190915290206001015460a060020a900460ff1615155b15612519575060015b60008681526011602090815260408083208884526007019091529020600401541515612548576001915061256b565b600086815260116020908152604080832088845260070190915290206004015493505b8260010192506121e2565b8015612585576000965061258a565b600196505b5050505050509392505050565b6000806000806000806125a98a61184f565b95506125b486610cf8565b15156125bf57600080fd5b600086815260116020526040902060010154600160a060020a031633146125e557600080fd5b6000945060009350600092505b600c5460001960ff60b060020a90920482168a03011683121561288e57600c5461262f908a90600160ff60b060020a909204821687010116613536565b91506126528984600c60169054906101000a900460ff16016001016080036133a7565b1515612770576000868152601160209081526040808320878452600701909152902060030154939450849315156126e4576000868152601160208181526040808420600c810180548b87526007909201845282862080546001608060020a031916608060020a8a041781556003018290558186529185206002018a9055938a905291905280546001019055935061276b565b600086815260116020908152604080832087845260070190915290205461271090608060020a026133d0565b15612748576000868152601160209081526040808320878452600701909152902080546001608060020a031916608060020a84041790555b600086815260116020908152604080832088845260070190915290206003015493505b612883565b6000868152601160209081526040808320878452600701909152902060040154939450849315156127fc576000868152601160208181526040808420600c810180548b87526007909201845282862080546001608060020a031916608060020a8a041781556004018290558186529185206002018a9055938a9052919052805460010190559350612883565b600086815260116020908152604080832087845260070190915290205461282890608060020a026133d0565b15612860576000868152601160209081526040808320878452600701909152902080546001608060020a031916608060020a84041790555b600086815260116020908152604080832088845260070190915290206004015493505b8260010192506125f2565b61289b89896080036133a7565b1515612e33576128ae898960ff16613536565b6000878152601160209081526040808320600b8101548452600881018352818420898552600790910190925290912060030154959650869591935091501515612bdd576000868152601160209081526040808320888452600701909152902060040154151561294a576000868152601160209081526040808320888452600701909152902080546001608060020a031916608060020a84041790555b60116000878152602001908152602001600020600c015493508360116000888152602001908152602001600020600701600087815260200190815260200160002060030181905550846011600088815260200190815260200160002060070160008681526020019081526020016000206002018190555060116000878152602001908152602001600020600c015460010160116000888152602001908152602001600020600c01819055508860116000888152602001908152602001600020600701600086815260200190815260200160002060000160006101000a8154816fffffffffffffffffffffffffffffffff0219169083608060020a9004021790555083601160008881526020019081526020016000206009016001016000601160008a815260200190815260200160002060090160000154815260200190815260200160002081905550601160008781526020019081526020016000206009016000015460010160116000888152602001908152602001600020600901600001819055508660116000888152602001908152602001600020600701600086815260200190815260200160002060010160006101000a815481600160a060020a030219169083600160a060020a031602179055508760116000888152602001908152602001600020600701600086815260200190815260200160002060010160146101000a81548160ff021916908360ff16021790555083601160008881526020019081526020016000206008016000601160008a8152602001908152602001600020600b015481526020019081526020016000206000018190555060116000878152602001908152602001600020600b015460010160116000888152602001908152602001600020600b0181905550612e2e565b6000868152601160209081526040808320888452600701909152902060038101549054909450612c1290608060020a026133d0565b15612c4a576000868152601160209081526040808320888452600701909152902080546001608060020a031916608060020a84041790555b8860116000888152602001908152602001600020600701600086815260200190815260200160002060000160006101000a8154816fffffffffffffffffffffffffffffffff0219169083608060020a9004021790555083601160008881526020019081526020016000206009016001016000601160008a815260200190815260200160002060090160000154815260200190815260200160002081905550601160008781526020019081526020016000206009016000015460010160116000888152602001908152602001600020600901600001819055508660116000888152602001908152602001600020600701600086815260200190815260200160002060010160006101000a815481600160a060020a030219169083600160a060020a031602179055508760116000888152602001908152602001600020600701600086815260200190815260200160002060010160146101000a81548160ff021916908360ff16021790555083601160008881526020019081526020016000206008016000601160008a8152602001908152602001600020600b015481526020019081526020016000206000018190555060116000878152602001908152602001600020600b015460010160116000888152602001908152602001600020600b01819055505b61339b565b60008681526011602090815260408083208784526007019091529020600401549394508493151561314a5760008681526011602090815260408083208884526007019091529020600301541515612eb7576000868152601160209081526040808320888452600701909152902080546001608060020a031916608060020a84041790555b60116000878152602001908152602001600020600c015493508360116000888152602001908152602001600020600701600087815260200190815260200160002060040181905550846011600088815260200190815260200160002060070160008681526020019081526020016000206002018190555060116000878152602001908152602001600020600c015460010160116000888152602001908152602001600020600c01819055508860116000888152602001908152602001600020600701600086815260200190815260200160002060000160006101000a8154816fffffffffffffffffffffffffffffffff0219169083608060020a9004021790555083601160008881526020019081526020016000206009016001016000601160008a815260200190815260200160002060090160000154815260200190815260200160002081905550601160008781526020019081526020016000206009016000015460010160116000888152602001908152602001600020600901600001819055508660116000888152602001908152602001600020600701600086815260200190815260200160002060010160006101000a815481600160a060020a030219169083600160a060020a031602179055508760116000888152602001908152602001600020600701600086815260200190815260200160002060010160146101000a81548160ff021916908360ff16021790555083601160008881526020019081526020016000206008016000601160008a8152602001908152602001600020600b015481526020019081526020016000206000018190555060116000878152602001908152602001600020600b015460010160116000888152602001908152602001600020600b018190555061339b565b600086815260116020908152604080832088845260070190915290206004810154905490945061317f90608060020a026133d0565b156131b7576000868152601160209081526040808320888452600701909152902080546001608060020a031916608060020a84041790555b8860116000888152602001908152602001600020600701600086815260200190815260200160002060000160006101000a8154816fffffffffffffffffffffffffffffffff0219169083608060020a9004021790555083601160008881526020019081526020016000206009016001016000601160008a815260200190815260200160002060090160000154815260200190815260200160002081905550601160008781526020019081526020016000206009016000015460010160116000888152602001908152602001600020600901600001819055508660116000888152602001908152602001600020600701600086815260200190815260200160002060010160006101000a815481600160a060020a030219169083600160a060020a031602179055508760116000888152602001908152602001600020600701600086815260200190815260200160002060010160146101000a81548160ff021916908360ff16021790555083601160008881526020019081526020016000206008016000601160008a8152602001908152602001600020600b015481526020019081526020016000206000018190555060116000878152602001908152602001600020600b015460010160116000888152602001908152602001600020600b01819055505b50505050505050505050565b60006133ba608060020a60ff8416613573565b929092166001608060020a031916151592915050565b6000805b601081101561346a578281601081106133e957fe5b1a7f0100000000000000000000000000000000000000000000000000000000000000027effffffffffffffffffffffffffffffffffffffffffffffffffffffffffffff191660007f010000000000000000000000000000000000000000000000000000000000000002141515613462576000915061346f565b6001016133d4565b600191505b50919050565b6000808381805b856001018312156134e757505060008681526011602090815260408083208484526008810183528184205480855260079091019092529091208054600190910154608060020a9091029060a060020a900460ff16156134dc578360010193505b60019092019161347c565b50919695505050505050565b60008061350f61350a608060020a60ff8616613573565b613596565b939093169392505050565b600061352d608060020a60ff8416613573565b90921792915050565b6000608060020a6000196fffffffffffffffffffffffffffffffff841660020a010281613567826080869003613573565b94909416949350505050565b6fffffffffffffffffffffffffffffffff1660020a608060020a91829004020290565b60006135a06135a8565b909118919050565b6001608060020a03195b90565b828054600181600116156101000203166002900490600052602060002090601f016020900481019282601f106135f657805160ff1916838001178555613623565b82800160010185558215613623579182015b82811115613623578251825591602001919060010190613608565b5061362f929150613633565b5090565b6135b291905b8082111561362f57600081556001016136395600a165627a7a723058206188a3393172b47fa7225dd44df9074ab48724241e203c26af2a95c5a6ce81510029",
  "source": "pragma solidity ^0.4.24;\r\n\r\nimport \"./InBlock_Data.sol\";\r\n\r\ncontract InBlock_F_del is InBlock_Data{\r\n\r\n//******************************************************* DELEGATION FUNCTIONS *******************************************************\r\n\r\n\r\n\r\n \r\n//To perform a delegation. NB the sender of the transaction has to be the owner of the parent_ip \r\nfunction delegatePrefix(bytes16 _parent_ip, bytes16 del_ip, uint8 bar, address delegated_address) notStopped() public {\r\n\t\r\n\trequire(bar<=max_del);\r\n\trequire(IsIncluded(_parent_ip, allocation_prefix_mask, del_ip, bar), \"The entered ip is out of range\");\r\n\tint id=int(reverseSparse(_parent_ip));\r\n\trequire(msg.sender==blocks[id].o_addr, \"Operation not authorized!\");\r\n\trequire(is_consistent(_parent_ip, del_ip, bar), \"The entered block is part of another existing block\");\r\n\tint id2=del_find(_parent_ip,del_ip,bar);\r\n\t\r\n\tif(id2!=-1 && id2!=-2){ \r\n\t\t\tset_del_Block(_parent_ip, del_ip, bar, delegated_address);\r\n\t\t\t\r\n\t}else{\r\n\t\t\tset_del_Block(_parent_ip, del_ip, bar, delegated_address);\r\n\t\t\t\r\n\t\t}\r\n\r\n}\r\n\r\n//function to delete the revoked entry. It can only be performed by the owner of the parent block\r\n\r\nfunction revokeDelegatedPrefix(bytes16 parent_ip, bytes16 del_ip,uint8 mask) notStopped() public {\t\r\n\t\t\t\r\n\t\t\tint id=int(reverseSparse(parent_ip));\r\n\t\t\trequire(isPrefixInUse(id));\r\n\t\t\trequire(msg.sender==blocks[id].o_addr, \"Operation not Authorized!!\");\r\n\t\t\tint id2=del_find(parent_ip,del_ip,mask);\r\n\t\t\trequire(id2!=-1 && id2!=-2);\r\n\t\t\tblocks[id].del_blocks[id2].ip_address=0x00;\r\n\t\t\tblocks[id].del_blocks[id2].o_addr=0x00;\r\n\t\t\tblocks[id].del_blocks[id2].mask=0;\r\n\t\t\tblocks[id].del_blocks[id2].Roa=\"\";\r\n\t\t\tblocks[id].del_blocks[id2].info.uri=\"\";\r\n\t\t\tblocks[id].del_blocks[id2].info.hashFunction=\"\";\r\n\t\t\tblocks[id].del_blocks[id2].info.hash=\"\";\r\n\t\t\t\r\n\t\t\tint idNext=id2;\r\n\t\t\tint idCurrent=id2;\r\n\t\t\r\n\t\t\t\r\n\t\t\tfor(int i=0; i<mask-allocation_prefix_mask+1; i++){\r\n\t\t\t\tidCurrent=idNext;\r\n\t\t\t\tidNext=blocks[id].del_blocks[idCurrent].parent;\r\n\t\t\t\tif(!getBit(del_ip,128-mask-uint8(i))){\r\n\t\t\t\t\t\tif(blocks[id].del_blocks[idNext].right!=0){\r\n\t\t\t\t\t\t\t\tif(PrefCmpZ(blocks[id].del_blocks[blocks[id].del_blocks[idNext].right].ip_address)){\r\n\t\t\t\t\t\t\t\t\t\tblocks[id].del_blocks[idNext].ip_address=0x00;\r\n\t\t\t\t\t\t\t\t}\r\n\t\t\t\t\t\t}else{\r\n\t\t\t\t\t\t\t\tif(PrefCmpZ(blocks[id].del_blocks[blocks[id].del_blocks[idNext].left].ip_address)){blocks[id].del_blocks[idNext].ip_address=0x00;}\r\n\t\t\t\t\t\t\t}\r\n\t\t\t\t}else{\r\n\t\t\t\t\t\tif(blocks[id].del_blocks[idNext].left!=0){\r\n\t\t\t\t\t\t\t\tif(PrefCmpZ(blocks[id].del_blocks[blocks[id].del_blocks[idNext].left].ip_address)){\r\n\t\t\t\t\t\t\t\t\t\tblocks[id].del_blocks[idNext].ip_address=0x00;\r\n\t\t\t\t\t\t\t\t}\r\n\t\t\t\t\t\t}else{\r\n\t\t\t\t\t\t\t\tif(PrefCmpZ(blocks[id].del_blocks[blocks[id].del_blocks[idNext].right].ip_address)){blocks[id].del_blocks[idNext].ip_address=0x00;}\r\n\t\t\t\t\t\t\t}\t\t\t\t\r\n\t\t\t\t\t}\t\t\r\n\t\t\t}\t\t\t\r\n}\r\n\r\n\t\t\t\t\t\t\t\r\n//To check the consistance of delegatePrefixs\r\n\r\nfunction is_consistent(bytes16 ip_parent, bytes16 ip, uint8 mask) view internal returns(bool){\r\n\t\r\n\tint id=int(reverseSparse(ip_parent));\r\n\trequire(isPrefixInUse(id));\t\r\n\tint idCurrent=0;\r\n\tint idNext=0;\r\n\tint i=0;\r\n\tbool exit=false;\r\n\tbool ok=false;\r\n\t\twhile(i<(max_del-allocation_prefix_mask)+1 && exit==false){\r\n\t\t\t\tif(!getBit(ip,(128-(allocation_prefix_mask+uint8(i)+1)))){\r\n\t\t\t\t\t\tidCurrent=idNext;\r\n\t\t\t\t\t\tif(1+mask-allocation_prefix_mask==i){\r\n\t\t\t\t\t\t\t\tif(!PrefCmpZ(blocks[id].del_blocks[idCurrent].ip_address) || !PrefCmpZ(blocks[id].del_blocks[blocks[id].del_blocks[idCurrent].left].ip_address) || !PrefCmpZ(blocks[id].del_blocks[blocks[id].del_blocks[idCurrent].right].ip_address))ok=true;\r\n\t\t\t\t\t\t}\r\n\t\t\t\t\t\tif(!PrefCmpZ(blocks[id].del_blocks[idCurrent].ip_address) && blocks[id].del_blocks[idCurrent].mask!=0)ok=true;\r\n\t\t\t\t\t\tif(blocks[id].del_blocks[idCurrent].left==0){\r\n\t\t\t\t\t\t\t\texit=true;\r\n\t\t\t\t\t\t}else{\r\n\t\t\t\t\t\t\t\tidNext=blocks[id].del_blocks[idCurrent].left;\r\n\t\t\t\t\t\t\t}\r\n\t\t\t\t}else{\r\n\t\t\t\t\t\tidCurrent=idNext;\r\n\t\t\t\t\t\tif(1+mask-allocation_prefix_mask==i){\r\n\t\t\t\t\t\t\t\tif(!PrefCmpZ(blocks[id].del_blocks[idCurrent].ip_address) || !PrefCmpZ(blocks[id].del_blocks[blocks[id].del_blocks[idCurrent].left].ip_address) || !PrefCmpZ(blocks[id].del_blocks[blocks[id].del_blocks[idCurrent].right].ip_address))ok=true;\r\n\t\t\t\t\t\t}\r\n\t\t\t\t\t\tif(!PrefCmpZ(blocks[id].del_blocks[idCurrent].ip_address) && blocks[id].del_blocks[idCurrent].mask!=0)ok=true;\r\n\t\t\t\t\t\tif(blocks[id].del_blocks[idCurrent].right==0){\r\n\t\t\t\t\t\t\texit=true;\r\n\t\t\t\t\t\t}else{\r\n\t\t\t\t\t\t\t\tidNext=blocks[id].del_blocks[idCurrent].right;\r\n\t\t\t\t\t\t\t}\t\t\r\n\t\t\t\t\t}\r\n\t\r\n\t\ti=i+1;\r\n\t\t}\r\n\tif(ok)return false;\r\n\telse return true;\r\n}\r\n\r\n\r\n//*****************************************************DELEGATED BLOCKS SETTER*************************************************************\r\n\r\nfunction set_del_Block(bytes16 ip, bytes16 ip2, uint8 mask,address delegated)internal{\r\n\t\r\n\tint id=int(reverseSparse(ip));\r\n\trequire(isPrefixInUse(id));\r\n\trequire(msg.sender==blocks[id].o_addr);\r\n\tint idCurrent=0;\r\n\tint idNext=0;\r\n\tint i=0;\r\n\t\r\n\t\twhile(i<mask-allocation_prefix_mask-1){\r\n\t\t\tbytes16 app=getFirstN(ip2,allocation_prefix_mask+uint8(i)+1);\r\n\t\t\t\tif(!getBit(ip2,(128-(allocation_prefix_mask+uint8(i)+1)))){\r\n\t\t\t\t\t\tidCurrent=idNext;\r\n\t\t\t\t\t\tif(blocks[id].del_blocks[idCurrent].left==0){\r\n\t\t\t\t\t\t\t\tidNext=blocks[id].ID_delegated;\r\n\t\t\t\t\t\t\t\tblocks[id].del_blocks[idCurrent].ip_address=app;\r\n\t\t\t\t\t\t\t\t//blocks[id].dindex.del_ID_List[blocks[id].dindex.counter]=idCurrent;\r\n\t\t\t\t\t\t\t\t//\tblocks[id].dindex.counter=blocks[id].dindex.counter+1;\r\n\t\t\t\t\t\t\t\tblocks[id].del_blocks[idCurrent].left=idNext;\r\n\t\t\t\t\t\t\t\tblocks[id].del_blocks[idNext].parent=idCurrent;\r\n\t\t\t\t\t\t\t\tblocks[id].ID_delegated=blocks[id].ID_delegated+1;\r\n\t\t\t\t\t\t}else{\r\n\t\t\t\t\t\t\t\tif(PrefCmpZ(blocks[id].del_blocks[idNext].ip_address)){blocks[id].del_blocks[idNext].ip_address=app;}\r\n\t\t\t\t\t\t\t\tidNext=blocks[id].del_blocks[idCurrent].left;\r\n\t\t\t\t\t\r\n\t\t\t\t\t\t\t}\r\n\t\t\t\t}else{\r\n\t\t\t\t\t\tidCurrent=idNext;\r\n\t\t\t\t\t\tif(blocks[id].del_blocks[idCurrent].right==0){\r\n\t\t\t\t\t\t\t\tidNext=blocks[id].ID_delegated;\r\n\t\t\t\t\t\t\t\tblocks[id].del_blocks[idCurrent].ip_address=app;\r\n\t\t\t\t\t\t\t\t//\t\t\t\t\t\t\t\t\tblocks[id].dindex.del_ID_List[blocks[id].dindex.counter]=idCurrent;\r\n\t\t\t\t\t\t\t\t//\tblocks[id].dindex.counter=blocks[id].dindex.counter+1;\r\n\r\n\t\t\t\t\t\t\t\tblocks[id].del_blocks[idCurrent].right=idNext;\r\n\t\t\t\t\t\t\t\tblocks[id].del_blocks[idNext].parent=idCurrent;\r\n\t\t\t\t\t\t\t\tblocks[id].ID_delegated=blocks[id].ID_delegated+1;\r\n\t\t\t\t\t\t}else{\r\n\t\t\t\t\t\t\t\tif(PrefCmpZ(blocks[id].del_blocks[idNext].ip_address)){blocks[id].del_blocks[idNext].ip_address=app;}\r\n\t\t\t\t\t\t\t\tidNext=blocks[id].del_blocks[idCurrent].right;\r\n\t\t\t\t\t}\r\n\t\t\t\t}\r\n\t\r\n\t\ti=i+1;\r\n\t\t}\r\n\r\n\t\tif(!getBit(ip2,128-mask)){\r\n\t\t\t\tapp=getFirstN(ip2,mask);\r\n\t\t\t\tvar ind=blocks[id].del_array_index[blocks[id].del_ID_Index];\t\t\r\n\t\t\t\tidCurrent=idNext;\r\n\t\t\t\t\tif(blocks[id].del_blocks[idCurrent].left==0){\r\n\t\t\t\t\t\t\tif(blocks[id].del_blocks[idCurrent].right==0){\r\n\t\t\t\t\t\t\t\t\tblocks[id].del_blocks[idCurrent].ip_address=app;\r\n\t\t\t\t\t\t\t\t\r\n\t\t\t\t\t\t\t}\r\n\t\t\t\t\t\t\tidNext=blocks[id].ID_delegated;\r\n\t\t\t\t\t\t\tblocks[id].del_blocks[idCurrent].left=idNext;\r\n\t\t\t\t\t\t\tblocks[id].del_blocks[idNext].parent=idCurrent;\r\n\t\t\t\t\t\t\tblocks[id].ID_delegated=blocks[id].ID_delegated+1;\r\n\t\t\t\t\t\t\tblocks[id].del_blocks[idNext].ip_address=ip2;\r\n\t\t\t\t\t\t\t\t\tblocks[id].dindex.del_ID_List[blocks[id].dindex.counter]=idNext;\r\n\t\t\t\t\t\t\t\t\tblocks[id].dindex.counter=blocks[id].dindex.counter+1;\r\n\t\r\n\t\t\t\t\t\t\tblocks[id].del_blocks[idNext].o_addr=delegated;\r\n\t\t\t\t\t\t\tblocks[id].del_blocks[idNext].mask=mask;\r\n\t\t\t\t\t\t\tblocks[id].del_array_index[blocks[id].del_ID_Index].ind=idNext;\r\n\t\t\t\t\t\t\tblocks[id].del_ID_Index=blocks[id].del_ID_Index+1;\r\n\t\t\t\t\t}else{\r\n\t\t\t\t\t\tidNext=blocks[id].del_blocks[idCurrent].left;\r\n\t\t\t\t\t\tif(PrefCmpZ(blocks[id].del_blocks[idCurrent].ip_address)){ blocks[id].del_blocks[idCurrent].ip_address=app;}\r\n\t\t\t\t\t\tblocks[id].del_blocks[idNext].ip_address=ip2;\r\n\t\t\t\t\t\t\t\t\tblocks[id].dindex.del_ID_List[blocks[id].dindex.counter]=idNext;\r\n\t\t\t\t\t\t\t\t\tblocks[id].dindex.counter=blocks[id].dindex.counter+1;\r\n\r\n\t\t\t\t\t\t\t\t\r\n\t\t\t\t\t\tblocks[id].del_blocks[idNext].o_addr=delegated;\r\n\t\t\t\t\t\tblocks[id].del_blocks[idNext].mask=mask;\r\n\t\t\t\t\t\tblocks[id].del_array_index[blocks[id].del_ID_Index].ind=idNext;\r\n\t\t\t\t\t\tblocks[id].del_ID_Index=blocks[id].del_ID_Index+1;\r\n\t\t\t\t\t}\r\n\t\t\t\t\t}else{\r\n\t\t\t\t\t\t\tidCurrent=idNext;\r\n\t\t\t\t\t\t\tif(blocks[id].del_blocks[idCurrent].right==0){\r\n\t\t\t\t\t\t\t\t\tif(blocks[id].del_blocks[idCurrent].left==0){\r\n\t\t\t\t\t\t\t\t\tblocks[id].del_blocks[idCurrent].ip_address=app;\r\n\t\t\t\t\t\t\t\t\t\r\n\t\t\t\t\t\t\t\t\r\n\t\t\t\t\t\t\t\t\t}\r\n\t\t\t\t\t\t\tidNext=blocks[id].ID_delegated;\r\n\t\t\t\t\t\t\tblocks[id].del_blocks[idCurrent].right=idNext;\r\n\t\t\t\t\t\t\tblocks[id].del_blocks[idNext].parent=idCurrent;\r\n\t\t\t\t\t\t\tblocks[id].ID_delegated=blocks[id].ID_delegated+1;\r\n\t\t\t\t\t\t\tblocks[id].del_blocks[idNext].ip_address=ip2;\r\n\t\t\t\t\t\t\tblocks[id].dindex.del_ID_List[blocks[id].dindex.counter]=idNext;\r\n\t\t\t\t\t\t\tblocks[id].dindex.counter=blocks[id].dindex.counter+1;\r\n\r\n\t\t\t\t\t\t\t\t\r\n\t\t\t\t\t\t\tblocks[id].del_blocks[idNext].o_addr=delegated;\r\n\t\t\t\t\t\t\tblocks[id].del_blocks[idNext].mask=mask;\r\n\t\t\t\t\r\n\t\t\t\t\t\t\tblocks[id].del_array_index[blocks[id].del_ID_Index].ind=idNext;\r\n\t\t\t\t\t\t\tblocks[id].del_ID_Index=blocks[id].del_ID_Index+1;\r\n\t\t\t\t\t\t\t}else{\r\n\t\t\t\t\t\t\t\t\tidNext=blocks[id].del_blocks[idCurrent].right;\r\n\t\t\t\t\t\t\t\t\tif(PrefCmpZ(blocks[id].del_blocks[idCurrent].ip_address)){ blocks[id].del_blocks[idCurrent].ip_address=app;}\r\n\t\t\t\t\t\t\t\t\tblocks[id].del_blocks[idNext].ip_address=ip2;\r\n\t\t\t\t\t\t\t\t\tblocks[id].dindex.del_ID_List[blocks[id].dindex.counter]=idNext;\r\n\t\t\t\t\t\t\t\t\tblocks[id].dindex.counter=blocks[id].dindex.counter+1;\r\n\t\t\t\t\t\t\t\t\tblocks[id].del_blocks[idNext].o_addr=delegated;\r\n\t\t\t\t\t\t\t\t\tblocks[id].del_blocks[idNext].mask=mask;\r\n\t\t\t\t\t\t\t\t\tblocks[id].del_array_index[blocks[id].del_ID_Index].ind=idNext;\r\n\t\t\t\t\t\t\t\t\tblocks[id].del_ID_Index=blocks[id].del_ID_Index+1;\r\n\t\t\t\t\t\t\t\t}\r\n\t\t\t\t\t\t}\r\n}\r\n\r\n\r\n\r\nfunction del_find(bytes16 ip, bytes16 ip2, uint8 _mask) public view returns (int) {\r\n\t\t\r\n\t\tint id=int(reverseSparse(ip));\r\n\t\tif(!isPrefixInUse(id)) return -1;\t\r\n\t\tint id1 = 0;\r\n\t\tint i=0;\r\n\t\tbool ok=false;\r\n       \r\n      \r\n\t\twhile (i<(_mask-allocation_prefix_mask)+1) {\r\n\t\t\t\tif (ip2 == blocks[id].del_blocks[id1].ip_address && _mask==blocks[id].del_blocks[id1].mask) {\r\n\t\t\t\t\t\tok=true;\r\n\t\t\t\t\t\treturn id1;\r\n\t\t\t\t}\r\n       \r\n\t\t\t\tif(!getBit(ip2,(128-(allocation_prefix_mask+uint8(i)+1)))){\r\n\t\t\t\t\t\tid1 = blocks[id].del_blocks[id1].left;\r\n\t\t\t\t}else{\r\n\t\t\t\t\t\tid1 = blocks[id].del_blocks[id1].right;\r\n\t\t\t\t\t}\r\n\t\t\ti=i+1;\r\n\t\t}\r\n\t\tif(ok)return id1; \r\n\t\telse return -2;\r\n}\r\n\r\n\r\n//***********************************************GETTER DELEGATED BLOCK FUNCTIONS *******************************************************************************\r\n\r\n\r\nfunction getDelBlockID(int id, int id2) view public returns(bytes16, address,uint8,int,int,int){\r\n\t\r\n\trequire(!isAllocatedPrefixExpired(id));\r\n\treturn(blocks[id].del_blocks[id2].ip_address,blocks[id].del_blocks[id2].o_addr,blocks[id].del_blocks[id2].mask,blocks[id].del_blocks[id2].parent,blocks[id].del_blocks[id2].left,blocks[id].del_blocks[id2].right);\r\n}\r\n\r\nfunction count_del_Block(bytes16 ip, int start, int stop)view internal returns(uint){\r\n\tint id=int(reverseSparse(ip));\r\n\tuint count=0;\r\n\tfor(int i=start; i<stop+1; i++){\r\n\t\t\tint a=blocks[id].del_array_index[i].ind;\r\n\t\t\tbytes16 test= blocks[id].del_blocks[a].ip_address;\r\n\t\t\tif(blocks[id].del_blocks[a].mask!=0){\r\n\t\t\t\tcount=count+1;\r\n\t\t\t}\r\n\t}\r\n\treturn count;\r\n\r\n}\r\n\r\n\r\nfunction getIDsDelBlocks(bytes16 ip, int start, int stop)view public returns(uint[]result){\r\n\t\r\n\tint id=int(reverseSparse(ip));\r\n\tuint count=count_del_Block(ip,start,stop);\r\n\tresult = new uint[] (count);\r\n\tuint counter=0;\r\n\t\r\n\tfor(int i=start;i<stop+1;i++){\r\n\t\t\tif(blocks[id].del_blocks[blocks[id].del_array_index[i].ind].mask!=0){\r\n\t\t\t\tresult[counter]=uint(blocks[id].del_array_index[i].ind);\r\n\t\t\t\tcounter=counter+1;\r\n\t\t\t}\r\n\t}\r\n\treturn result; \r\n\r\n}\r\n\r\n\r\n\r\nfunction getIDsDelBlocksID2(int id)view public returns(uint[]result){\r\n\t\r\n\t\r\n\tresult = new uint[] (uint(blocks[id].dindex.counter));\r\n\tuint counter=0;\r\n\t\r\n\tfor(int i=0;i<blocks[id].dindex.counter;i++){\r\n\t\t\t\r\n\t\t\t\tresult[counter]=uint(blocks[id].dindex.del_ID_List[i]);\r\n\t\t\t\tcounter=counter+1;\r\n\t\t\t\r\n\t}\r\n\treturn result; \r\n\r\n}\r\n\r\n\r\n\r\n\r\n\r\n\r\nfunction count_del_BlockID(int id, int start, int stop)view internal returns(uint){\r\n\tuint count=0;\r\n\tfor(int i=start; i<stop+1; i++){\r\n\t\t\tint a=blocks[id].del_array_index[i].ind;\r\n\t\t\tbytes16 test= blocks[id].del_blocks[a].ip_address;\r\n\t\t\tif(blocks[id].del_blocks[a].mask!=0){\r\n\t\t\t\tcount=count+1;\r\n\t\t\t}\r\n\t}\r\n\treturn count;\r\n\r\n}\r\n\r\n\r\nfunction getIDsDelBlocksID(int id, int start, int stop)view public returns(uint[]result){\r\n\t\r\n\t\r\n\tuint count=count_del_BlockID(id,start,stop);\r\n\tresult = new uint[] (count);\r\n\tuint counter=0;\r\n\t\r\n\tfor(int i=start;i<stop+1;i++){\r\n\t\t\tif(blocks[id].del_blocks[blocks[id].del_array_index[i].ind].mask!=0){\r\n\t\t\t\tresult[counter]=uint(blocks[id].del_array_index[i].ind);\r\n\t\t\t\tcounter=counter+1;\r\n\t\t\t}\r\n\t}\r\n\treturn result; \r\n\r\n}\r\n\r\n//******************************************************************************INFO AND ROA FUNCTIONS ******************************************************************************************************\r\nfunction setDelegatedPrefixPolicyURI(bytes16 ip_parent, bytes16 ip, uint8 mask, bytes uri, bytes hashFunction, bytes hash) public {\r\n\t\t\t\r\n\t\t\tint id= int(reverseSparse(ip_parent));\r\n\t\t\trequire(isPrefixInUse(id));\r\n\t\t\tint id2= del_find(ip_parent, ip, mask);\r\n\t\t\trequire(id2!=-1 && id2!=-2);\r\n\t\t\tblocks[id].del_blocks[id2].info.uri=uri;\r\n\t\t\tblocks[id].del_blocks[id2].info.hashFunction=hashFunction;\r\n\t\t\tblocks[id].del_blocks[id2].info.hash=hash;\r\n}\r\n\r\n\r\n\r\n\r\nfunction setDelegatedPrefixRoA(bytes16 ip_parent, bytes16 ip, uint8 mask, bytes ASes) public {\r\n\t\t\t\r\n\t\t\tint id= int(reverseSparse(ip_parent));\r\n\t\t\trequire(isPrefixInUse(id));\r\n\t\t\tint id2= del_find(ip_parent, ip, mask);\r\n\t\t\trequire(id2!=-1 && id2!=-2);\r\n\t\t\trequire(msg.sender==blocks[id].del_blocks[id2].o_addr);\r\n\t\t\tblocks[id].del_blocks[id2].Roa=ASes;\r\n\t\t\t}\r\n\t\t\t\r\nevent delegatedPrefixRoaEvent(address indexed _from, uint _value, int id1,int id2);\r\nfunction setDelegatedPrefixRoAID(int id1, int id2, bytes ASes) public {\r\n\t\t\t\r\n\t\t\trequire(isPrefixInUse(id1));\r\n\t\t\trequire(id2!=-1 && id2!=-2);\r\n\t\t\trequire(msg.sender==blocks[id1].del_blocks[id2].o_addr);\r\n\t\t\tblocks[id1].del_blocks[id2].Roa=ASes;\r\n\t\t\temit delegatedPrefixRoaEvent(msg.sender,msg.value,id1,id2);\r\n\t\t\t}\r\n\r\nfunction getDelegatedPrefixRoA(bytes16 ip_parent, bytes16 ip, uint8 mask)view public returns(bytes){\r\n\t\r\n\t\t\tint id= int(reverseSparse(ip_parent));\r\n\t\t\trequire(isPrefixInUse(id));\r\n\t\t\tint id2= del_find(ip_parent, ip, mask);\r\n\t\t\trequire(id2!=-1 && id2!=-2);\r\n\t\t\treturn blocks[id].del_blocks[id2].Roa;\r\n\t\r\n\r\n}\r\n\r\nfunction getDelegatedPrefixPolicyURI(bytes16 ip_parent, bytes16 ip, uint8 mask)view public returns(bytes,bytes,bytes){\r\n\t\r\n\t\t\tint id= int(reverseSparse(ip_parent));\r\n\t\t\trequire(isPrefixInUse(id));\r\n\t\t\tint id2= del_find(ip_parent, ip, mask);\r\n\t\t\trequire(id2!=-1 && id2!=-2);\r\n\t\t\treturn (blocks[id].del_blocks[id2].info.uri,blocks[id].del_blocks[id2].info.hash,blocks[id].del_blocks[id2].info.hashFunction);\r\n\t\r\n\r\n}\r\n\r\nfunction getDelegatedPrefixRoAID(int id, int id2)view public returns(bytes16,bytes,uint8){\r\n\t\r\n\t\t\trequire(isPrefixInUse(id));\r\n\t\t\trequire(id2!=-1 && id2!=-2);\r\n\t\t\treturn (blocks[id].del_blocks[id2].ip_address,blocks[id].del_blocks[id2].Roa,blocks[id].del_blocks[id2].mask);\r\n\t\r\n\r\n}\r\n\r\n\r\n}//END\r\n\r\n\r\n",
  "sourcePath": "C:\\Users\\User\\Desktop\\Opt_inblock_code\\InBlock\\contracts\\InBlock_F_del.sol",
  "compiler": {
    "name": "solc",
    "version": "0.4.25+commit.59dbf8f1.Emscripten.clang"
  },
  "schemaVersion": "2.0.2",
  "updatedAt": "2020-01-31T11:42:30.587Z"
}