{
  "contractName": "InBlock_F_del",
  "abi": [
    {
      "constant": true,
      "inputs": [],
      "name": "ID_expired",
      "outputs": [
        {
          "name": "",
          "type": "int256"
        }
      ],
      "payable": false,
      "stateMutability": "view",
      "type": "function"
    },
    {
      "constant": false,
      "inputs": [
        {
          "name": "id",
          "type": "int256"
        }
      ],
      "name": "expire_id",
      "outputs": [
        {
          "name": "",
          "type": "bool"
        }
      ],
      "payable": false,
      "stateMutability": "nonpayable",
      "type": "function"
    },
    {
      "constant": false,
      "inputs": [],
      "name": "circuitBreaker",
      "outputs": [],
      "payable": false,
      "stateMutability": "nonpayable",
      "type": "function"
    },
    {
      "constant": true,
      "inputs": [],
      "name": "allocation_prefix_mask",
      "outputs": [
        {
          "name": "",
          "type": "uint8"
        }
      ],
      "payable": false,
      "stateMutability": "view",
      "type": "function"
    },
    {
      "constant": true,
      "inputs": [],
      "name": "max_allocable_blocks",
      "outputs": [
        {
          "name": "",
          "type": "uint256"
        }
      ],
      "payable": false,
      "stateMutability": "view",
      "type": "function"
    },
    {
      "constant": true,
      "inputs": [
        {
          "name": "id",
          "type": "int256"
        }
      ],
      "name": "isAllocatedPrefixExpired",
      "outputs": [
        {
          "name": "",
          "type": "bool"
        }
      ],
      "payable": false,
      "stateMutability": "view",
      "type": "function"
    },
    {
      "constant": true,
      "inputs": [
        {
          "name": "id",
          "type": "int256"
        }
      ],
      "name": "isPrefixInUse",
      "outputs": [
        {
          "name": "",
          "type": "bool"
        }
      ],
      "payable": false,
      "stateMutability": "view",
      "type": "function"
    },
    {
      "constant": true,
      "inputs": [],
      "name": "prefixPrice3",
      "outputs": [
        {
          "name": "",
          "type": "uint256"
        }
      ],
      "payable": false,
      "stateMutability": "view",
      "type": "function"
    },
    {
      "constant": true,
      "inputs": [],
      "name": "ID_Index",
      "outputs": [
        {
          "name": "",
          "type": "int256"
        }
      ],
      "payable": false,
      "stateMutability": "view",
      "type": "function"
    },
    {
      "constant": false,
      "inputs": [],
      "name": "toggleCircuit",
      "outputs": [],
      "payable": false,
      "stateMutability": "nonpayable",
      "type": "function"
    },
    {
      "constant": true,
      "inputs": [],
      "name": "base_prefix_mask",
      "outputs": [
        {
          "name": "",
          "type": "uint8"
        }
      ],
      "payable": false,
      "stateMutability": "view",
      "type": "function"
    },
    {
      "constant": true,
      "inputs": [],
      "name": "initial_block",
      "outputs": [
        {
          "name": "",
          "type": "bytes16"
        }
      ],
      "payable": false,
      "stateMutability": "view",
      "type": "function"
    },
    {
      "constant": true,
      "inputs": [],
      "name": "stopped",
      "outputs": [
        {
          "name": "",
          "type": "bool"
        }
      ],
      "payable": false,
      "stateMutability": "view",
      "type": "function"
    },
    {
      "constant": true,
      "inputs": [
        {
          "name": "input",
          "type": "bytes16"
        }
      ],
      "name": "reverseSparse",
      "outputs": [
        {
          "name": "num",
          "type": "uint256"
        }
      ],
      "payable": false,
      "stateMutability": "view",
      "type": "function"
    },
    {
      "constant": true,
      "inputs": [],
      "name": "seed",
      "outputs": [
        {
          "name": "",
          "type": "uint256"
        }
      ],
      "payable": false,
      "stateMutability": "view",
      "type": "function"
    },
    {
      "constant": true,
      "inputs": [
        {
          "name": "ip",
          "type": "bytes16"
        }
      ],
      "name": "isPrefixInUseIP",
      "outputs": [
        {
          "name": "",
          "type": "bool"
        }
      ],
      "payable": false,
      "stateMutability": "view",
      "type": "function"
    },
    {
      "constant": true,
      "inputs": [],
      "name": "askOracleCost",
      "outputs": [
        {
          "name": "",
          "type": "uint256"
        }
      ],
      "payable": false,
      "stateMutability": "view",
      "type": "function"
    },
    {
      "constant": true,
      "inputs": [],
      "name": "owner",
      "outputs": [
        {
          "name": "",
          "type": "address"
        }
      ],
      "payable": false,
      "stateMutability": "view",
      "type": "function"
    },
    {
      "constant": true,
      "inputs": [],
      "name": "price",
      "outputs": [
        {
          "name": "",
          "type": "uint256"
        }
      ],
      "payable": false,
      "stateMutability": "view",
      "type": "function"
    },
    {
      "constant": true,
      "inputs": [],
      "name": "ID",
      "outputs": [
        {
          "name": "",
          "type": "int256"
        }
      ],
      "payable": false,
      "stateMutability": "view",
      "type": "function"
    },
    {
      "constant": true,
      "inputs": [],
      "name": "dollarsPrice",
      "outputs": [
        {
          "name": "",
          "type": "uint256"
        }
      ],
      "payable": false,
      "stateMutability": "view",
      "type": "function"
    },
    {
      "constant": true,
      "inputs": [],
      "name": "max_del",
      "outputs": [
        {
          "name": "",
          "type": "uint8"
        }
      ],
      "payable": false,
      "stateMutability": "view",
      "type": "function"
    },
    {
      "constant": true,
      "inputs": [
        {
          "name": "id",
          "type": "uint256"
        }
      ],
      "name": "sparse",
      "outputs": [
        {
          "name": "",
          "type": "bytes16"
        }
      ],
      "payable": false,
      "stateMutability": "view",
      "type": "function"
    },
    {
      "constant": true,
      "inputs": [],
      "name": "prefixPrice1",
      "outputs": [
        {
          "name": "",
          "type": "uint256"
        }
      ],
      "payable": false,
      "stateMutability": "view",
      "type": "function"
    },
    {
      "constant": true,
      "inputs": [],
      "name": "prefixPrice2",
      "outputs": [
        {
          "name": "",
          "type": "uint256"
        }
      ],
      "payable": false,
      "stateMutability": "view",
      "type": "function"
    },
    {
      "constant": true,
      "inputs": [],
      "name": "prefixPrice",
      "outputs": [
        {
          "name": "",
          "type": "uint256"
        }
      ],
      "payable": false,
      "stateMutability": "view",
      "type": "function"
    },
    {
      "constant": false,
      "inputs": [
        {
          "name": "_parent_ip",
          "type": "bytes16"
        },
        {
          "name": "del_ip",
          "type": "bytes16"
        },
        {
          "name": "bar",
          "type": "uint8"
        },
        {
          "name": "delegated_address",
          "type": "address"
        }
      ],
      "name": "delegatePrefix",
      "outputs": [],
      "payable": false,
      "stateMutability": "nonpayable",
      "type": "function"
    },
    {
      "constant": false,
      "inputs": [
        {
          "name": "parent_ip",
          "type": "bytes16"
        },
        {
          "name": "del_ip",
          "type": "bytes16"
        },
        {
          "name": "mask",
          "type": "uint8"
        }
      ],
      "name": "revokeDelegatedPrefix",
      "outputs": [],
      "payable": false,
      "stateMutability": "nonpayable",
      "type": "function"
    },
    {
      "constant": true,
      "inputs": [
        {
          "name": "ip",
          "type": "bytes16"
        },
        {
          "name": "ip2",
          "type": "bytes16"
        },
        {
          "name": "_mask",
          "type": "uint8"
        }
      ],
      "name": "del_find",
      "outputs": [
        {
          "name": "",
          "type": "int256"
        }
      ],
      "payable": false,
      "stateMutability": "view",
      "type": "function"
    },
    {
      "constant": true,
      "inputs": [
        {
          "name": "id",
          "type": "int256"
        },
        {
          "name": "id2",
          "type": "int256"
        }
      ],
      "name": "getDelBlockID",
      "outputs": [
        {
          "name": "",
          "type": "bytes16"
        },
        {
          "name": "",
          "type": "address"
        },
        {
          "name": "",
          "type": "uint8"
        },
        {
          "name": "",
          "type": "int256"
        },
        {
          "name": "",
          "type": "int256"
        },
        {
          "name": "",
          "type": "int256"
        }
      ],
      "payable": false,
      "stateMutability": "view",
      "type": "function"
    },
    {
      "constant": true,
      "inputs": [
        {
          "name": "ip",
          "type": "bytes16"
        },
        {
          "name": "start",
          "type": "int256"
        },
        {
          "name": "stop",
          "type": "int256"
        }
      ],
      "name": "getIDsDelBlocks",
      "outputs": [
        {
          "name": "result",
          "type": "uint256[]"
        }
      ],
      "payable": false,
      "stateMutability": "view",
      "type": "function"
    },
    {
      "constant": false,
      "inputs": [
        {
          "name": "ip_parent",
          "type": "bytes16"
        },
        {
          "name": "ip",
          "type": "bytes16"
        },
        {
          "name": "mask",
          "type": "uint8"
        },
        {
          "name": "uri",
          "type": "bytes"
        },
        {
          "name": "hashFunction",
          "type": "bytes"
        },
        {
          "name": "hash",
          "type": "bytes"
        }
      ],
      "name": "setDelegatedPrefixPolicyURI",
      "outputs": [],
      "payable": false,
      "stateMutability": "nonpayable",
      "type": "function"
    },
    {
      "constant": false,
      "inputs": [
        {
          "name": "ip_parent",
          "type": "bytes16"
        },
        {
          "name": "ip",
          "type": "bytes16"
        },
        {
          "name": "mask",
          "type": "uint8"
        },
        {
          "name": "ASes",
          "type": "bytes"
        }
      ],
      "name": "setDelegatedPrefixRoA",
      "outputs": [],
      "payable": false,
      "stateMutability": "nonpayable",
      "type": "function"
    },
    {
      "constant": true,
      "inputs": [
        {
          "name": "ip_parent",
          "type": "bytes16"
        },
        {
          "name": "ip",
          "type": "bytes16"
        },
        {
          "name": "mask",
          "type": "uint8"
        }
      ],
      "name": "getDelegatedPrefixRoA",
      "outputs": [
        {
          "name": "",
          "type": "bytes"
        }
      ],
      "payable": false,
      "stateMutability": "view",
      "type": "function"
    },
    {
      "constant": true,
      "inputs": [
        {
          "name": "ip_parent",
          "type": "bytes16"
        },
        {
          "name": "ip",
          "type": "bytes16"
        },
        {
          "name": "mask",
          "type": "uint8"
        }
      ],
      "name": "getDelegatedPrefixPolicyURI",
      "outputs": [
        {
          "name": "",
          "type": "bytes"
        },
        {
          "name": "",
          "type": "bytes"
        },
        {
          "name": "",
          "type": "bytes"
        }
      ],
      "payable": false,
      "stateMutability": "view",
      "type": "function"
    }
  ],
  "bytecode": "0x608060405234801561001057600080fd5b50612fdd806100206000396000f3006080604052600436106101b65763ffffffff7c010000000000000000000000000000000000000000000000000000000060003504166306cd8b7581146101bb5780630bf59cc1146101e25780630c93e05f1461020e57806316efd941146102ff5780631a7f57ad146103145780632059b40d1461033f5780632129b23b14610354578063233f9756146103cc57806325b2d85e146103e45780632e53c121146103fc57806334725c76146104365780633ae5e3071461044b5780633cf4d0391461046057806349621851146105035780634be4926f14610518578063702335e614610546578063706c3eae14610574578063743d9ff81461058957806375f12b21146105bb578063778193a1146105d05780637d94792a146105f257806389dd4023146106075780638c2a8c10146106295780638da5cb5b1461063e578063983abe5a1461066f5780639c68daeb146106e2578063a035b1fe14610854578063b3cea21714610869578063b5820d751461087e578063c5ba2bd414610893578063d0db65ce146108a8578063ecafa252146108c0578063f68d2d5b146108d5578063fe686283146108ea578063ff6e3c311461094d575b600080fd5b3480156101c757600080fd5b506101d0610962565b60408051918252519081900360200190f35b3480156101ee57600080fd5b506101fa600435610968565b604080519115158252519081900360200190f35b34801561021a57600080fd5b50604080516020601f6064356004818101359283018490048402850184019095528184526102fd946001608060020a03198135811695602480359092169560ff604435169536956084940191819084018382808284375050604080516020601f89358b018035918201839004830284018301909452808352979a99988101979196509182019450925082915084018382808284375050604080516020601f89358b018035918201839004830284018301909452808352979a9998810197919650918201945092508291508401838280828437509497506109ac9650505050505050565b005b34801561030b57600080fd5b506102fd610a97565b34801561032057600080fd5b50610329610ace565b6040805160ff9092168252519081900360200190f35b34801561034b57600080fd5b506101d0610ade565b34801561036057600080fd5b5061037c6001608060020a031960043516602435604435610ae4565b60408051602080825283518183015283519192839290830191858101910280838360005b838110156103b85781810151838201526020016103a0565b505050509050019250505060405180910390f35b3480156103d857600080fd5b506101fa600435610bce565b3480156103f057600080fd5b506101fa600435610c12565b34801561040857600080fd5b506102fd6001608060020a03196004358116906024351660ff60443516600160a060020a0360643516610c60565b34801561044257600080fd5b506101d0610e6a565b34801561045757600080fd5b506101d0610e70565b34801561046c57600080fd5b5061048e6001608060020a03196004358116906024351660ff60443516610e76565b6040805160208082528351818301528351919283929083019185019080838360005b838110156104c85781810151838201526020016104b0565b50505050905090810190601f1680156104f55780820380516001836020036101000a031916815260200191505b509250505060405180910390f35b34801561050f57600080fd5b506102fd610f77565b34801561052457600080fd5b506102fd6001608060020a03196004358116906024351660ff60443516610fc0565b34801561055257600080fd5b506101d06001608060020a03196004358116906024351660ff604435166113e9565b34801561058057600080fd5b5061032961154e565b34801561059557600080fd5b5061059e61155e565b604080516001608060020a03199092168252519081900360200190f35b3480156105c757600080fd5b506101fa61156a565b3480156105dc57600080fd5b506101d06001608060020a03196004351661157a565b3480156105fe57600080fd5b506101d06117be565b34801561061357600080fd5b506101fa6001608060020a0319600435166117c4565b34801561063557600080fd5b506101d0611823565b34801561064a57600080fd5b50610653611829565b60408051600160a060020a039092168252519081900360200190f35b34801561067b57600080fd5b50604080516020601f6064356004818101359283018490048402850184019095528184526102fd946001608060020a03198135811695602480359092169560ff60443516953695608494019181908401838280828437509497506118389650505050505050565b3480156106ee57600080fd5b506107106001608060020a03196004358116906024351660ff604435166118f3565b60405180806020018060200180602001848103845287818151815260200191508051906020019080838360005b8381101561075557818101518382015260200161073d565b50505050905090810190601f1680156107825780820380516001836020036101000a031916815260200191505b50848103835286518152865160209182019188019080838360005b838110156107b557818101518382015260200161079d565b50505050905090810190601f1680156107e25780820380516001836020036101000a031916815260200191505b50848103825285518152855160209182019187019080838360005b838110156108155781810151838201526020016107fd565b50505050905090810190601f1680156108425780820380516001836020036101000a031916815260200191505b50965050505050505060405180910390f35b34801561086057600080fd5b506101d0611b2b565b34801561087557600080fd5b506101d0611b31565b34801561088a57600080fd5b506101d0611b37565b34801561089f57600080fd5b50610329611b3d565b3480156108b457600080fd5b5061059e600435611b5f565b3480156108cc57600080fd5b506101d0611c19565b3480156108e157600080fd5b506101d0611c1f565b3480156108f657600080fd5b50610905600435602435611c25565b604080516001608060020a03199097168752600160a060020a03909516602087015260ff909316858501526060850191909152608084015260a0830152519081900360c00190f35b34801561095957600080fd5b506101d0611ca1565b60085481565b600081815260106020526040812060020154156109a35750600081815260106020526040902060020180546301e1337f1901905560016109a7565b5060005b919050565b6000806109b88861157a565b91506109c382610c12565b15156109ce57600080fd5b6109d98888886113e9565b905080600019141580156109ef57508060011914155b15156109fa57600080fd5b600082815260106020908152604080832084845260070182529091208651610a2a92600590920191880190612f19565b50600082815260106020908152604080832084845260070182529091208551610a5b92600690920191870190612f19565b5060008281526010602090815260408083208484526007908101835292208551610a8c939190910191860190612f19565b505050505050505050565b600b54600160a060020a03163314610aae57600080fd5b600b805474ff000000000000000000000000000000000000000019169055565b600b5460b060020a900460ff1681565b600d5481565b6060600080600080610af58861157a565b9350610b02888888611ca7565b925082604051908082528060200260200182016040528015610b2e578160200160208202803883390190505b509450600091508690505b85600101811215610bc357600084815260106020908152604080832084845260088101835281842054845260070190915290206001015460a060020a900460ff1615610bbb5760008481526010602090815260408083208484526008019091529020548551869084908110610baa57fe5b602090810290910101526001909101905b600101610b39565b505050509392505050565b6000818152601060205260408120600201546301e13380014210801590610c05575060008281526010602052604090206002015415155b156109a3575060016109a7565b6000610c1d82610bce565b1515610c2b575060016109a7565b600082815260106020526040902054608060020a026001608060020a0319161515610c58575060006109a7565b506001919050565b600b54600090819060a060020a900460ff1615610c7c57600080fd5b600b5460ff750100000000000000000000000000000000000000000090910481169085161115610cab57600080fd5b600b54610cc590879060b060020a900460ff168787611d3b565b1515610d1b576040805160e560020a62461bcd02815260206004820152601e60248201527f54686520656e7465726564206970206973206f7574206f662072616e67650000604482015290519081900360640190fd5b610d248661157a565b600081815260106020526040902060010154909250600160a060020a03163314610d98576040805160e560020a62461bcd02815260206004820152601960248201527f4f7065726174696f6e206e6f7420617574686f72697a65642100000000000000604482015290519081900360640190fd5b610da3868686611d9d565b1515610e1f576040805160e560020a62461bcd02815260206004820152603360248201527f54686520656e746572656420626c6f636b2069732070617274206f6620616e6f60448201527f74686572206578697374696e6720626c6f636b00000000000000000000000000606482015290519081900360840190fd5b610e2a8686866113e9565b90508060001914158015610e4057508060011914155b15610e5657610e518686868661218c565b610e62565b610e628686868661218c565b505050505050565b60025481565b60075481565b6060600080610e848661157a565b9150610e8f82610c12565b1515610e9a57600080fd5b610ea58686866113e9565b90508060001914158015610ebb57508060011914155b1515610ec657600080fd5b600082815260106020908152604080832084845260070182529182902060080180548351601f600260001961010060018616150201909316929092049182018490048402810184019094528084529091830182828015610f675780601f10610f3c57610100808354040283529160200191610f67565b820191906000526020600020905b815481529060010190602001808311610f4a57829003601f168201915b5050505050925050509392505050565b600b54600160a060020a03163314610f8e57600080fd5b600b805474ff000000000000000000000000000000000000000019811660a060020a9182900460ff1615909102179055565b6000806000806000600b60149054906101000a900460ff1615610fe257600080fd5b610feb8861157a565b9450610ff685610c12565b151561100157600080fd5b600085815260106020526040902060010154600160a060020a03163314611072576040805160e560020a62461bcd02815260206004820152601a60248201527f4f7065726174696f6e206e6f7420417574686f72697a65642121000000000000604482015290519081900360640190fd5b61107d8888886113e9565b9350836000191415801561109357508360011914155b151561109e57600080fd5b600085815260106020908152604080832087845260070180835281842080546001608060020a031916815560018101805474ffffffffffffffffffffffffffffffffffffffffff19169055825180850193849052858152948990529252915161110d9260089092019190612f19565b5060408051602081810180845260008084528981526010835284812089825260070190925292902090516111479260059092019190612f19565b5060408051602081810180845260008084528981526010835284812089825260070190925292902090516111819260069092019190612f19565b5060408051602081810180845260008084528981526010835284812089825260079081019093529390932091516111bd93929091019190612f19565b50839250839150600090505b600b54600160ff60b060020a9092048216880301168112156113df576000858152601060209081526040808320868452600701909152902060020154929150611219876080889003839003612d94565b1515611318576000858152601060209081526040808320868452600701909152902060040154156112ae57600085815260106020908152604080832086845260070190915280822060040154825290205461127990608060020a02612dbd565b156112a9576000858152601060209081526040808320868452600701909152902080546001608060020a03191690555b611313565b60008581526010602090815260408083208684526007019091528082206003015482529020546112e390608060020a02612dbd565b15611313576000858152601060209081526040808320868452600701909152902080546001608060020a03191690555b6113d7565b6000858152601060209081526040808320868452600701909152902060030154156113725760008581526010602090815260408083208684526007019091528082206003015482529020546112e390608060020a02612dbd565b60008581526010602090815260408083208684526007019091528082206004015482529020546113a790608060020a02612dbd565b156113d7576000858152601060209081526040808320868452600701909152902080546001608060020a03191690555b6001016111c9565b5050505050505050565b60008060008060006113fa8861157a565b935061140584610c12565b1515611415576000199450610bc3565b5060009150819050805b600b54600160ff60b060020a9092048216880301168212156115365760008481526010602090815260408083208684526007019091529020546001608060020a0319888116608060020a909202161480156114a55750600084815260106020908152604080832086845260070190915290206001015460ff87811660a060020a90920416145b156114b65760019050829450610bc3565b6114d78783600b60169054906101000a900460ff1601600101608003612d94565b15156115065760008481526010602090815260408083209583526007909501905292909220600301549161152b565b6000848152601060209081526040808320958352600790950190529290922060040154915b81600101915061141f565b801561154457829450610bc3565b6001199450610bc3565b600a54608060020a900460ff1681565b600a54608060020a0281565b600b5460a060020a900460ff1681565b600080808080808080808080805b600a54600160ff608060020a909204821601811690831610156115d2576115b28d83608003612d94565b156115c7576115c48d83608003612e57565b9c505b600190910190611588565b5060005b600a54600b5460ff608060020a909204821660b060020a909104821603811690821610156117705761161f8d82600a60109054906101000a900460ff1660010101608003612d94565b15611754578060ff1660001115801561163c575060038160ff1611155b1561164a578260020a8b019a505b8060ff16600411158015611662575060078160ff1611155b15611670578260020a8a0199505b8060ff166008111580156116885750600b8160ff1611155b15611696578260020a890198505b8060ff16600c111580156116ae5750600f8160ff1611155b156116bc578260020a880197505b8060ff166010111580156116d4575060138160ff1611155b156116e2578260020a870196505b8060ff166014111580156116fa575060178160ff1611155b15611708578260020a860195505b8060ff166018111580156117205750601b8160ff1611155b1561172e578260020a850194505b8060ff16601c111580156117465750601f8160ff1611155b15611754578260020a840193505b826001019250826004141561176857600092505b6001016115d6565b50506001631000000090920263010000009093026210000090940262010000909502611000909602610100909702601090980298909801969096019490940192909201010101019392505050565b600c5481565b6000806117d08361157a565b90506117db81610bce565b15156117ea576001915061181d565b600081815260106020526040902054608060020a026001608060020a0319161515611818576000915061181d565b600191505b50919050565b60035481565b600b54600160a060020a031681565b6000806118448661157a565b915061184f82610c12565b151561185a57600080fd5b6118658686866113e9565b9050806000191415801561187b57508060011914155b151561188657600080fd5b6000828152601060209081526040808320848452600701909152902060010154600160a060020a031633146118ba57600080fd5b6000828152601060209081526040808320848452600701825290912084516118ea92600890920191860190612f19565b50505050505050565b60608060606000806119048861157a565b915061190f82610c12565b151561191a57600080fd5b6119258888886113e9565b9050806000191415801561193b57508060011914155b151561194657600080fd5b60008281526010602090815260408083208484526007908101835292819020600581018054835160026001831615610100026000190190921691909104601f8101869004860282018601909452838152909482019360069092019290918591908301828280156119f75780601f106119cc576101008083540402835291602001916119f7565b820191906000526020600020905b8154815290600101906020018083116119da57829003601f168201915b5050855460408051602060026001851615610100026000190190941693909304601f810184900484028201840190925281815295985087945092508401905082828015611a855780601f10611a5a57610100808354040283529160200191611a85565b820191906000526020600020905b815481529060010190602001808311611a6857829003601f168201915b5050845460408051602060026001851615610100026000190190941693909304601f810184900484028201840190925281815295975086945092508401905082828015611b135780601f10611ae857610100808354040283529160200191611b13565b820191906000526020600020905b815481529060010190602001808311611af657829003601f168201915b50505050509050945094509450505093509350939050565b60045481565b60065481565b60055481565b600b547501000000000000000000000000000000000000000000900460ff1681565b600a54600090608060020a02816002840615611b9757611b9482600a60109054906101000a900460ff16600101608003612e7e565b91505b5060015b600a54600b5460ff608060020a909204821660b060020a90910482160381169082161015611c125760028160ff1660020a85811515611bd657fe5b04811515611be057fe5b0615611c0a57611c078282600a60109054906101000a900460ff1660010101608003612e7e565b91505b600101611b9b565b5092915050565b60005481565b60015481565b600080600080600080611c3788610bce565b15611c4157600080fd5b50505060009485525050601060209081526040808520938552600790930190525090208054600182015460028301546003840154600490940154608060020a90930294600160a060020a0383169460a060020a90930460ff169391929190565b60095481565b600080600080600080611cb98961157a565b9450600093508792505b86600101831215611d2e57505060008381526010602090815260408083208484526008810183528184205480855260079091019092529091208054600190910154608060020a9091029060a060020a900460ff1615611d23578360010193505b600190920191611cc3565b5091979650505050505050565b6000806000611d4d878760ff16612e9a565b9150611d5c858760ff16612e9a565b90506001608060020a0319828116908216148015611d8057508360ff168660ff1611155b15611d8e5760019250611d93565b600092505b5050949350505050565b6000806000806000806000611db18a61157a565b9550611dbc86610c12565b1515611dc757600080fd5b5060009350839250829150819050805b600b54600160ff60b060020a830481167501000000000000000000000000000000000000000000909304811692909203011683128015611e15575081155b1561216b57611e3b8984600b60169054906101000a900460ff1601600101608003612d94565b1515611fd357600b54939450849360ff60b060020a9091048116890360010116831415611f12576000868152601060209081526040808320888452600701909152902054611e8e90608060020a02612dbd565b1580611ecc57506000868152601060209081526040808320888452600701909152808220600301548252902054611eca90608060020a02612dbd565b155b80611f0957506000868152601060209081526040808320888452600701909152808220600401548252902054611f0790608060020a02612dbd565b155b15611f12575060015b6000868152601060209081526040808320888452600701909152902054611f3e90608060020a02612dbd565b158015611f735750600086815260106020908152604080832088845260070190915290206001015460a060020a900460ff1615155b15611f7c575060015b60008681526010602090815260408083208884526007019091529020600301541515611fab5760019150611fce565b600086815260106020908152604080832088845260070190915290206003015493505b612160565b600b54939450849360ff60b060020a90910481168903600101168314156120a457600086815260106020908152604080832088845260070190915290205461202090608060020a02612dbd565b158061205e5750600086815260106020908152604080832088845260070190915280822060030154825290205461205c90608060020a02612dbd565b155b8061209b5750600086815260106020908152604080832088845260070190915280822060040154825290205461209990608060020a02612dbd565b155b156120a4575060015b60008681526010602090815260408083208884526007019091529020546120d090608060020a02612dbd565b1580156121055750600086815260106020908152604080832088845260070190915290206001015460a060020a900460ff1615155b1561210e575060015b6000868152601060209081526040808320888452600701909152902060040154151561213d5760019150612160565b600086815260106020908152604080832088845260070190915290206004015493505b826001019250611dd7565b801561217a576000965061217f565b600196505b5050505050509392505050565b60008060008060008061219e8a61157a565b95506121a986610c12565b15156121b457600080fd5b600086815260106020526040902060010154600160a060020a031633146121da57600080fd5b6000945060009350600092505b600b5460001960ff60b060020a90920482168a03011683121561248357600b54612224908a90600160ff60b060020a909204821687010116612e9a565b91506122478984600b60169054906101000a900460ff1601600101608003612d94565b1515612365576000868152601060209081526040808320878452600701909152902060030154939450849315156122d9576000868152601060208181526040808420600a810180548b87526007909201845282862080546001608060020a031916608060020a8a041781556003018290558186529185206002018a9055938a9052919052805460010190559350612360565b600086815260106020908152604080832087845260070190915290205461230590608060020a02612dbd565b1561233d576000868152601060209081526040808320878452600701909152902080546001608060020a031916608060020a84041790555b600086815260106020908152604080832088845260070190915290206003015493505b612478565b6000868152601060209081526040808320878452600701909152902060040154939450849315156123f1576000868152601060208181526040808420600a810180548b87526007909201845282862080546001608060020a031916608060020a8a041781556004018290558186529185206002018a9055938a9052919052805460010190559350612478565b600086815260106020908152604080832087845260070190915290205461241d90608060020a02612dbd565b15612455576000868152601060209081526040808320878452600701909152902080546001608060020a031916608060020a84041790555b600086815260106020908152604080832088845260070190915290206004015493505b8260010192506121e7565b6124908989608003612d94565b1515612924576124a3898960ff16612e9a565b600087815260106020908152604080832060098101548452600881018352818420898552600790910190925290912060030154959650869591935091501515612750576000868152601060209081526040808320888452600701909152902060040154151561253f576000868152601060209081526040808320888452600701909152902080546001608060020a031916608060020a84041790555b60106000878152602001908152602001600020600a015493508360106000888152602001908152602001600020600701600087815260200190815260200160002060030181905550846010600088815260200190815260200160002060070160008681526020019081526020016000206002018190555060106000878152602001908152602001600020600a015460010160106000888152602001908152602001600020600a01819055508860106000888152602001908152602001600020600701600086815260200190815260200160002060000160006101000a8154816fffffffffffffffffffffffffffffffff0219169083608060020a900402179055508660106000888152602001908152602001600020600701600086815260200190815260200160002060010160006101000a815481600160a060020a030219169083600160a060020a031602179055508760106000888152602001908152602001600020600701600086815260200190815260200160002060010160146101000a81548160ff021916908360ff16021790555083601060008881526020019081526020016000206008016000601060008a8152602001908152602001600020600901548152602001908152602001600020600001819055506010600087815260200190815260200160002060090154600101601060008881526020019081526020016000206009018190555061291f565b600086815260106020908152604080832088845260070190915290206003810154905490945061278590608060020a02612dbd565b156127bd576000868152601060209081526040808320888452600701909152902080546001608060020a031916608060020a84041790555b8860106000888152602001908152602001600020600701600086815260200190815260200160002060000160006101000a8154816fffffffffffffffffffffffffffffffff0219169083608060020a900402179055508660106000888152602001908152602001600020600701600086815260200190815260200160002060010160006101000a815481600160a060020a030219169083600160a060020a031602179055508760106000888152602001908152602001600020600701600086815260200190815260200160002060010160146101000a81548160ff021916908360ff16021790555083601060008881526020019081526020016000206008016000601060008a815260200190815260200160002060090154815260200190815260200160002060000181905550601060008781526020019081526020016000206009015460010160106000888152602001908152602001600020600901819055505b612d88565b600086815260106020908152604080832087845260070190915290206004015493945084931515612bb957600086815260106020908152604080832088845260070190915290206003015415156129a8576000868152601060209081526040808320888452600701909152902080546001608060020a031916608060020a84041790555b60106000878152602001908152602001600020600a015493508360106000888152602001908152602001600020600701600087815260200190815260200160002060040181905550846010600088815260200190815260200160002060070160008681526020019081526020016000206002018190555060106000878152602001908152602001600020600a015460010160106000888152602001908152602001600020600a01819055508860106000888152602001908152602001600020600701600086815260200190815260200160002060000160006101000a8154816fffffffffffffffffffffffffffffffff0219169083608060020a900402179055508660106000888152602001908152602001600020600701600086815260200190815260200160002060010160006101000a815481600160a060020a030219169083600160a060020a031602179055508760106000888152602001908152602001600020600701600086815260200190815260200160002060010160146101000a81548160ff021916908360ff16021790555083601060008881526020019081526020016000206008016000601060008a81526020019081526020016000206009015481526020019081526020016000206000018190555060106000878152602001908152602001600020600901546001016010600088815260200190815260200160002060090181905550612d88565b6000868152601060209081526040808320888452600701909152902060048101549054909450612bee90608060020a02612dbd565b15612c26576000868152601060209081526040808320888452600701909152902080546001608060020a031916608060020a84041790555b8860106000888152602001908152602001600020600701600086815260200190815260200160002060000160006101000a8154816fffffffffffffffffffffffffffffffff0219169083608060020a900402179055508660106000888152602001908152602001600020600701600086815260200190815260200160002060010160006101000a815481600160a060020a030219169083600160a060020a031602179055508760106000888152602001908152602001600020600701600086815260200190815260200160002060010160146101000a81548160ff021916908360ff16021790555083601060008881526020019081526020016000206008016000601060008a815260200190815260200160002060090154815260200190815260200160002060000181905550601060008781526020019081526020016000206009015460010160106000888152602001908152602001600020600901819055505b50505050505050505050565b6000612da7608060020a60ff8416612ed7565b929092166001608060020a031916151592915050565b6000805b601081101561181857828160108110612dd657fe5b1a7f0100000000000000000000000000000000000000000000000000000000000000027effffffffffffffffffffffffffffffffffffffffffffffffffffffffffffff191660007f010000000000000000000000000000000000000000000000000000000000000002141515612e4f576000915061181d565b600101612dc1565b600080612e73612e6e608060020a60ff8616612ed7565b612efa565b939093169392505050565b6000612e91608060020a60ff8416612ed7565b90921792915050565b6000608060020a6000196fffffffffffffffffffffffffffffffff841660020a010281612ecb826080869003612ed7565b94909416949350505050565b6fffffffffffffffffffffffffffffffff1660020a608060020a91829004020290565b6000612f04612f0c565b909118919050565b6001608060020a03195b90565b828054600181600116156101000203166002900490600052602060002090601f016020900481019282601f10612f5a57805160ff1916838001178555612f87565b82800160010185558215612f87579182015b82811115612f87578251825591602001919060010190612f6c565b50612f93929150612f97565b5090565b612f1691905b80821115612f935760008155600101612f9d5600a165627a7a72305820396fc5f09cc55b3f4e69142c865599bd9cc6c0c7ab633f5f9ae66af44c6ac03f0029",
  "source": "pragma solidity ^0.4.24;\r\n\r\nimport \"./InBlock_Data.sol\";\r\n\r\ncontract InBlock_F_del is InBlock_Data{\r\n\r\n//******************************************************* DELEGATION FUNCTIONS *******************************************************\r\n\r\n \r\n//To perform a delegation. NB the sender of the transaction has to be the owner of the parent_ip \r\nfunction delegatePrefix(bytes16 _parent_ip, bytes16 del_ip, uint8 bar, address delegated_address) notStopped() public {\r\n\t\r\n\trequire(bar<=max_del);\r\n\trequire(IsIncluded(_parent_ip, allocation_prefix_mask, del_ip, bar), \"The entered ip is out of range\");\r\n\tint id=int(reverseSparse(_parent_ip));\r\n\trequire(msg.sender==blocks[id].o_addr, \"Operation not authorized!\");\r\n\trequire(is_consistent(_parent_ip, del_ip, bar), \"The entered block is part of another existing block\");\r\n\tint id2=del_find(_parent_ip,del_ip,bar);\r\n\t\r\n\tif(id2!=-1 && id2!=-2){ \r\n\t\t\tset_del_Block(_parent_ip, del_ip, bar, delegated_address);\r\n\t\t\t\r\n\t}else{\r\n\t\t\tset_del_Block(_parent_ip, del_ip, bar, delegated_address);\r\n\t\t\t\r\n\t\t}\r\n\r\n}\r\n\r\n//function to delete the revoked entry. It can only be performed by the owner of the parent block\r\n\r\nfunction revokeDelegatedPrefix(bytes16 parent_ip, bytes16 del_ip,uint8 mask) notStopped() public {\t\r\n\t\t\t\r\n\t\t\tint id=int(reverseSparse(parent_ip));\r\n\t\t\trequire(isPrefixInUse(id));\r\n\t\t\trequire(msg.sender==blocks[id].o_addr, \"Operation not Authorized!!\");\r\n\t\t\tint id2=del_find(parent_ip,del_ip,mask);\r\n\t\t\trequire(id2!=-1 && id2!=-2);\r\n\t\t\tblocks[id].del_blocks[id2].ip_address=0x00;\r\n\t\t\tblocks[id].del_blocks[id2].o_addr=0x00;\r\n\t\t\tblocks[id].del_blocks[id2].mask=0;\r\n\t\t\tblocks[id].del_blocks[id2].Roa=\"\";\r\n\t\t\tblocks[id].del_blocks[id2].info.uri=\"\";\r\n\t\t\tblocks[id].del_blocks[id2].info.hashFunction=\"\";\r\n\t\t\tblocks[id].del_blocks[id2].info.hash=\"\";\r\n\t\t\t\r\n\t\t\tint idNext=id2;\r\n\t\t\tint idCurrent=id2;\r\n\t\t\r\n\t\t\t\r\n\t\t\tfor(int i=0; i<mask-allocation_prefix_mask+1; i++){\r\n\t\t\t\tidCurrent=idNext;\r\n\t\t\t\tidNext=blocks[id].del_blocks[idCurrent].parent;\r\n\t\t\t\tif(!getBit(del_ip,128-mask-uint8(i))){\r\n\t\t\t\t\t\tif(blocks[id].del_blocks[idNext].right!=0){\r\n\t\t\t\t\t\t\t\tif(PrefCmpZ(blocks[id].del_blocks[blocks[id].del_blocks[idNext].right].ip_address)){\r\n\t\t\t\t\t\t\t\t\t\tblocks[id].del_blocks[idNext].ip_address=0x00;\r\n\t\t\t\t\t\t\t\t}\r\n\t\t\t\t\t\t}else{\r\n\t\t\t\t\t\t\t\tif(PrefCmpZ(blocks[id].del_blocks[blocks[id].del_blocks[idNext].left].ip_address)){blocks[id].del_blocks[idNext].ip_address=0x00;}\r\n\t\t\t\t\t\t\t}\r\n\t\t\t\t}else{\r\n\t\t\t\t\t\tif(blocks[id].del_blocks[idNext].left!=0){\r\n\t\t\t\t\t\t\t\tif(PrefCmpZ(blocks[id].del_blocks[blocks[id].del_blocks[idNext].left].ip_address)){\r\n\t\t\t\t\t\t\t\t\t\tblocks[id].del_blocks[idNext].ip_address=0x00;\r\n\t\t\t\t\t\t\t\t}\r\n\t\t\t\t\t\t}else{\r\n\t\t\t\t\t\t\t\tif(PrefCmpZ(blocks[id].del_blocks[blocks[id].del_blocks[idNext].right].ip_address)){blocks[id].del_blocks[idNext].ip_address=0x00;}\r\n\t\t\t\t\t\t\t}\t\t\t\t\r\n\t\t\t\t\t}\t\t\r\n\t\t\t}\t\t\t\r\n}\r\n\r\n\t\t\t\t\t\t\t\r\n//To check the consistance of delegatePrefixs\r\n\r\nfunction is_consistent(bytes16 ip_parent, bytes16 ip, uint8 mask) view internal returns(bool){\r\n\t\r\n\tint id=int(reverseSparse(ip_parent));\r\n\trequire(isPrefixInUse(id));\t\r\n\tint idCurrent=0;\r\n\tint idNext=0;\r\n\tint i=0;\r\n\tbool exit=false;\r\n\tbool ok=false;\r\n\t\twhile(i<(max_del-allocation_prefix_mask)+1 && exit==false){\r\n\t\t\t\tif(!getBit(ip,(128-(allocation_prefix_mask+uint8(i)+1)))){\r\n\t\t\t\t\t\tidCurrent=idNext;\r\n\t\t\t\t\t\tif(1+mask-allocation_prefix_mask==i){\r\n\t\t\t\t\t\t\t\tif(!PrefCmpZ(blocks[id].del_blocks[idCurrent].ip_address) || !PrefCmpZ(blocks[id].del_blocks[blocks[id].del_blocks[idCurrent].left].ip_address) || !PrefCmpZ(blocks[id].del_blocks[blocks[id].del_blocks[idCurrent].right].ip_address))ok=true;\r\n\t\t\t\t\t\t}\r\n\t\t\t\t\t\tif(!PrefCmpZ(blocks[id].del_blocks[idCurrent].ip_address) && blocks[id].del_blocks[idCurrent].mask!=0)ok=true;\r\n\t\t\t\t\t\tif(blocks[id].del_blocks[idCurrent].left==0){\r\n\t\t\t\t\t\t\t\texit=true;\r\n\t\t\t\t\t\t}else{\r\n\t\t\t\t\t\t\t\tidNext=blocks[id].del_blocks[idCurrent].left;\r\n\t\t\t\t\t\t\t}\r\n\t\t\t\t}else{\r\n\t\t\t\t\t\tidCurrent=idNext;\r\n\t\t\t\t\t\tif(1+mask-allocation_prefix_mask==i){\r\n\t\t\t\t\t\t\t\tif(!PrefCmpZ(blocks[id].del_blocks[idCurrent].ip_address) || !PrefCmpZ(blocks[id].del_blocks[blocks[id].del_blocks[idCurrent].left].ip_address) || !PrefCmpZ(blocks[id].del_blocks[blocks[id].del_blocks[idCurrent].right].ip_address))ok=true;\r\n\t\t\t\t\t\t}\r\n\t\t\t\t\t\tif(!PrefCmpZ(blocks[id].del_blocks[idCurrent].ip_address) && blocks[id].del_blocks[idCurrent].mask!=0)ok=true;\r\n\t\t\t\t\t\tif(blocks[id].del_blocks[idCurrent].right==0){\r\n\t\t\t\t\t\t\texit=true;\r\n\t\t\t\t\t\t}else{\r\n\t\t\t\t\t\t\t\tidNext=blocks[id].del_blocks[idCurrent].right;\r\n\t\t\t\t\t\t\t}\t\t\r\n\t\t\t\t\t}\r\n\t\r\n\t\ti=i+1;\r\n\t\t}\r\n\tif(ok)return false;\r\n\telse return true;\r\n}\r\n\r\n\r\n//*****************************************************DELEGATED BLOCKS SETTER*************************************************************\r\n\r\nfunction set_del_Block(bytes16 ip, bytes16 ip2, uint8 mask,address delegated)internal{\r\n\t\r\n\tint id=int(reverseSparse(ip));\r\n\trequire(isPrefixInUse(id));\r\n\trequire(msg.sender==blocks[id].o_addr);\r\n\tint idCurrent=0;\r\n\tint idNext=0;\r\n\tint i=0;\r\n\t\r\n\t\twhile(i<mask-allocation_prefix_mask-1){\r\n\t\t\tbytes16 app=getFirstN(ip2,allocation_prefix_mask+uint8(i)+1);\r\n\t\t\t\tif(!getBit(ip2,(128-(allocation_prefix_mask+uint8(i)+1)))){\r\n\t\t\t\t\t\tidCurrent=idNext;\r\n\t\t\t\t\t\tif(blocks[id].del_blocks[idCurrent].left==0){\r\n\t\t\t\t\t\t\t\tidNext=blocks[id].ID_delegated;\r\n\t\t\t\t\t\t\t\tblocks[id].del_blocks[idCurrent].ip_address=app;\r\n\t\t\t\t\t\t\t\tblocks[id].del_blocks[idCurrent].left=idNext;\r\n\t\t\t\t\t\t\t\tblocks[id].del_blocks[idNext].parent=idCurrent;\r\n\t\t\t\t\t\t\t\tblocks[id].ID_delegated=blocks[id].ID_delegated+1;\r\n\t\t\t\t\t\t}else{\r\n\t\t\t\t\t\t\t\tif(PrefCmpZ(blocks[id].del_blocks[idNext].ip_address)){blocks[id].del_blocks[idNext].ip_address=app;}\r\n\t\t\t\t\t\t\t\tidNext=blocks[id].del_blocks[idCurrent].left;\r\n\t\t\t\t\t\r\n\t\t\t\t\t\t\t}\r\n\t\t\t\t}else{\r\n\t\t\t\t\t\tidCurrent=idNext;\r\n\t\t\t\t\t\tif(blocks[id].del_blocks[idCurrent].right==0){\r\n\t\t\t\t\t\t\t\tidNext=blocks[id].ID_delegated;\r\n\t\t\t\t\t\t\t\tblocks[id].del_blocks[idCurrent].ip_address=app;\r\n\t\t\t\t\t\t\t\tblocks[id].del_blocks[idCurrent].right=idNext;\r\n\t\t\t\t\t\t\t\tblocks[id].del_blocks[idNext].parent=idCurrent;\r\n\t\t\t\t\t\t\t\tblocks[id].ID_delegated=blocks[id].ID_delegated+1;\r\n\t\t\t\t\t\t}else{\r\n\t\t\t\t\t\t\t\tif(PrefCmpZ(blocks[id].del_blocks[idNext].ip_address)){blocks[id].del_blocks[idNext].ip_address=app;}\r\n\t\t\t\t\t\t\t\tidNext=blocks[id].del_blocks[idCurrent].right;\r\n\t\t\t\t\t}\r\n\t\t\t\t}\r\n\t\r\n\t\ti=i+1;\r\n\t\t}\r\n\r\n\t\tif(!getBit(ip2,128-mask)){\r\n\t\t\t\tapp=getFirstN(ip2,mask);\r\n\t\t\t\tvar ind=blocks[id].del_array_index[blocks[id].del_ID_Index];\t\t\r\n\t\t\t\tidCurrent=idNext;\r\n\t\t\t\t\tif(blocks[id].del_blocks[idCurrent].left==0){\r\n\t\t\t\t\t\t\tif(blocks[id].del_blocks[idCurrent].right==0){\r\n\t\t\t\t\t\t\t\t\tblocks[id].del_blocks[idCurrent].ip_address=app;\r\n\t\t\t\t\t\t\t}\r\n\t\t\t\t\t\t\tidNext=blocks[id].ID_delegated;\r\n\t\t\t\t\t\t\tblocks[id].del_blocks[idCurrent].left=idNext;\r\n\t\t\t\t\t\t\tblocks[id].del_blocks[idNext].parent=idCurrent;\r\n\t\t\t\t\t\t\tblocks[id].ID_delegated=blocks[id].ID_delegated+1;\r\n\t\t\t\t\t\t\tblocks[id].del_blocks[idNext].ip_address=ip2;\r\n\t\t\t\t\t\t\tblocks[id].del_blocks[idNext].o_addr=delegated;\r\n\t\t\t\t\t\t\tblocks[id].del_blocks[idNext].mask=mask;\r\n\t\t\t\t\t\t\tblocks[id].del_array_index[blocks[id].del_ID_Index].ind=idNext;\r\n\t\t\t\t\t\t\tblocks[id].del_ID_Index=blocks[id].del_ID_Index+1;\r\n\t\t\t\t\t}else{\r\n\t\t\t\t\t\tidNext=blocks[id].del_blocks[idCurrent].left;\r\n\t\t\t\t\t\tif(PrefCmpZ(blocks[id].del_blocks[idCurrent].ip_address)){ blocks[id].del_blocks[idCurrent].ip_address=app;}\r\n\t\t\t\t\t\tblocks[id].del_blocks[idNext].ip_address=ip2;\r\n\t\t\t\t\t\tblocks[id].del_blocks[idNext].o_addr=delegated;\r\n\t\t\t\t\t\tblocks[id].del_blocks[idNext].mask=mask;\r\n\t\t\t\t\t\tblocks[id].del_array_index[blocks[id].del_ID_Index].ind=idNext;\r\n\t\t\t\t\t\tblocks[id].del_ID_Index=blocks[id].del_ID_Index+1;\r\n\t\t\t\t\t}\r\n\t\t\t\t\t}else{\r\n\t\t\t\t\t\t\tidCurrent=idNext;\r\n\t\t\t\t\t\t\tif(blocks[id].del_blocks[idCurrent].right==0){\r\n\t\t\t\t\t\t\t\t\tif(blocks[id].del_blocks[idCurrent].left==0){\r\n\t\t\t\t\t\t\t\t\tblocks[id].del_blocks[idCurrent].ip_address=app;\r\n\t\t\t\t\t\t\t\t\t}\r\n\t\t\t\t\t\t\tidNext=blocks[id].ID_delegated;\r\n\t\t\t\t\t\t\tblocks[id].del_blocks[idCurrent].right=idNext;\r\n\t\t\t\t\t\t\tblocks[id].del_blocks[idNext].parent=idCurrent;\r\n\t\t\t\t\t\t\tblocks[id].ID_delegated=blocks[id].ID_delegated+1;\r\n\t\t\t\t\t\t\tblocks[id].del_blocks[idNext].ip_address=ip2;\r\n\t\t\t\t\t\t\tblocks[id].del_blocks[idNext].o_addr=delegated;\r\n\t\t\t\t\t\t\tblocks[id].del_blocks[idNext].mask=mask;\r\n\t\t\t\t\r\n\t\t\t\t\t\t\tblocks[id].del_array_index[blocks[id].del_ID_Index].ind=idNext;\r\n\t\t\t\t\t\t\tblocks[id].del_ID_Index=blocks[id].del_ID_Index+1;\r\n\t\t\t\t\t\t\t}else{\r\n\t\t\t\t\t\t\t\t\tidNext=blocks[id].del_blocks[idCurrent].right;\r\n\t\t\t\t\t\t\t\t\tif(PrefCmpZ(blocks[id].del_blocks[idCurrent].ip_address)){ blocks[id].del_blocks[idCurrent].ip_address=app;}\r\n\t\t\t\t\t\t\t\t\tblocks[id].del_blocks[idNext].ip_address=ip2;\r\n\t\t\t\t\t\t\t\t\tblocks[id].del_blocks[idNext].o_addr=delegated;\r\n\t\t\t\t\t\t\t\t\tblocks[id].del_blocks[idNext].mask=mask;\r\n\t\t\t\t\t\t\t\t\tblocks[id].del_array_index[blocks[id].del_ID_Index].ind=idNext;\r\n\t\t\t\t\t\t\t\t\tblocks[id].del_ID_Index=blocks[id].del_ID_Index+1;\r\n\t\t\t\t\t\t\t\t}\r\n\t\t\t\t\t\t}\r\n}\r\n\r\n\r\n\r\nfunction del_find(bytes16 ip, bytes16 ip2, uint8 _mask) public view returns (int) {\r\n\t\t\r\n\t\tint id=int(reverseSparse(ip));\r\n\t\tif(!isPrefixInUse(id)) return -1;\t\r\n\t\tint id1 = 0;\r\n\t\tint i=0;\r\n\t\tbool ok=false;\r\n       \r\n      \r\n\t\twhile (i<(_mask-allocation_prefix_mask)+1) {\r\n\t\t\t\tif (ip2 == blocks[id].del_blocks[id1].ip_address && _mask==blocks[id].del_blocks[id1].mask) {\r\n\t\t\t\t\t\tok=true;\r\n\t\t\t\t\t\treturn id1;\r\n\t\t\t\t}\r\n       \r\n\t\t\t\tif(!getBit(ip2,(128-(allocation_prefix_mask+uint8(i)+1)))){\r\n\t\t\t\t\t\tid1 = blocks[id].del_blocks[id1].left;\r\n\t\t\t\t}else{\r\n\t\t\t\t\t\tid1 = blocks[id].del_blocks[id1].right;\r\n\t\t\t\t\t}\r\n\t\t\ti=i+1;\r\n\t\t}\r\n\t\tif(ok)return id1; \r\n\t\telse return -2;\r\n}\r\n\r\n\r\n//***********************************************GETTER DELEGATED BLOCK FUNCTIONS *******************************************************************************\r\n\r\n\r\nfunction getDelBlockID(int id, int id2) view public returns(bytes16, address,uint8,int,int,int){\r\n\t\r\n\trequire(!isAllocatedPrefixExpired(id));\r\n\treturn(blocks[id].del_blocks[id2].ip_address,blocks[id].del_blocks[id2].o_addr,blocks[id].del_blocks[id2].mask,blocks[id].del_blocks[id2].parent,blocks[id].del_blocks[id2].left,blocks[id].del_blocks[id2].right);\r\n}\r\n\r\nfunction count_del_Block(bytes16 ip, int start, int stop)view internal returns(uint){\r\n\tint id=int(reverseSparse(ip));\r\n\tuint count=0;\r\n\tfor(int i=start; i<stop+1; i++){\r\n\t\t\tint a=blocks[id].del_array_index[i].ind;\r\n\t\t\tbytes16 test= blocks[id].del_blocks[a].ip_address;\r\n\t\t\tif(blocks[id].del_blocks[a].mask!=0){\r\n\t\t\t\tcount=count+1;\r\n\t\t\t}\r\n\t}\r\n\treturn count;\r\n\r\n}\r\n\r\n\r\nfunction getIDsDelBlocks(bytes16 ip, int start, int stop)view public returns(uint[]result){\r\n\t\r\n\tint id=int(reverseSparse(ip));\r\n\tuint count=count_del_Block(ip,start,stop);\r\n\tresult = new uint[] (count);\r\n\tuint counter=0;\r\n\t\r\n\tfor(int i=start;i<stop+1;i++){\r\n\t\t\tif(blocks[id].del_blocks[blocks[id].del_array_index[i].ind].mask!=0){\r\n\t\t\t\tresult[counter]=uint(blocks[id].del_array_index[i].ind);\r\n\t\t\t\tcounter=counter+1;\r\n\t\t\t}\r\n\t}\r\n\treturn result; \r\n\r\n}\r\n\r\n//******************************************************************************INFO AND ROA FUNCTIONS ******************************************************************************************************\r\nfunction setDelegatedPrefixPolicyURI(bytes16 ip_parent, bytes16 ip, uint8 mask, bytes uri, bytes hashFunction, bytes hash) public {\r\n\t\t\t\r\n\t\t\tint id= int(reverseSparse(ip_parent));\r\n\t\t\trequire(isPrefixInUse(id));\r\n\t\t\tint id2= del_find(ip_parent, ip, mask);\r\n\t\t\trequire(id2!=-1 && id2!=-2);\r\n\t\t\tblocks[id].del_blocks[id2].info.uri=uri;\r\n\t\t\tblocks[id].del_blocks[id2].info.hashFunction=hashFunction;\r\n\t\t\tblocks[id].del_blocks[id2].info.hash=hash;\r\n}\r\n\r\n\r\nfunction setDelegatedPrefixRoA(bytes16 ip_parent, bytes16 ip, uint8 mask, bytes ASes) public {\r\n\t\t\t\r\n\t\t\tint id= int(reverseSparse(ip_parent));\r\n\t\t\trequire(isPrefixInUse(id));\r\n\t\t\tint id2= del_find(ip_parent, ip, mask);\r\n\t\t\trequire(id2!=-1 && id2!=-2);\r\n\t\t\trequire(msg.sender==blocks[id].del_blocks[id2].o_addr);\r\n\t\t\tblocks[id].del_blocks[id2].Roa=ASes;\r\n\t\t\t}\r\n\r\n\r\nfunction getDelegatedPrefixRoA(bytes16 ip_parent, bytes16 ip, uint8 mask)view public returns(bytes){\r\n\t\r\n\t\t\tint id= int(reverseSparse(ip_parent));\r\n\t\t\trequire(isPrefixInUse(id));\r\n\t\t\tint id2= del_find(ip_parent, ip, mask);\r\n\t\t\trequire(id2!=-1 && id2!=-2);\r\n\t\t\treturn blocks[id].del_blocks[id2].Roa;\r\n\t\r\n\r\n}\r\n\r\nfunction getDelegatedPrefixPolicyURI(bytes16 ip_parent, bytes16 ip, uint8 mask)view public returns(bytes,bytes,bytes){\r\n\t\r\n\t\t\tint id= int(reverseSparse(ip_parent));\r\n\t\t\trequire(isPrefixInUse(id));\r\n\t\t\tint id2= del_find(ip_parent, ip, mask);\r\n\t\t\trequire(id2!=-1 && id2!=-2);\r\n\t\t\treturn (blocks[id].del_blocks[id2].info.uri,blocks[id].del_blocks[id2].info.hash,blocks[id].del_blocks[id2].info.hashFunction);\r\n\t\r\n\r\n}\r\n\r\n}//END\r\n\r\n\r\n",
  "sourcePath": "C:\\Users\\User\\Desktop\\InBlock_Code-\\InBlock\\contracts\\InBlock_F_del.sol",
  "compiler": {
    "name": "solc",
    "version": "0.4.25+commit.59dbf8f1.Emscripten.clang"
  },
  "schemaVersion": "2.0.2",
  "updatedAt": "2019-05-29T13:59:14.359Z"
}