{
  "contractName": "InBlock",
  "abi": [
    {
      "constant": true,
      "inputs": [],
      "name": "ID_expired",
      "outputs": [
        {
          "name": "",
          "type": "int256"
        }
      ],
      "payable": false,
      "stateMutability": "view",
      "type": "function"
    },
    {
      "constant": false,
      "inputs": [
        {
          "name": "ip_parent",
          "type": "bytes16"
        },
        {
          "name": "ip",
          "type": "bytes16"
        },
        {
          "name": "mask",
          "type": "uint8"
        },
        {
          "name": "uri",
          "type": "bytes"
        },
        {
          "name": "hashFunction",
          "type": "bytes"
        },
        {
          "name": "hash",
          "type": "bytes"
        }
      ],
      "name": "setDelegatedPrefixPolicyURI",
      "outputs": [],
      "payable": false,
      "stateMutability": "nonpayable",
      "type": "function"
    },
    {
      "constant": false,
      "inputs": [],
      "name": "circuitBreaker",
      "outputs": [],
      "payable": false,
      "stateMutability": "nonpayable",
      "type": "function"
    },
    {
      "constant": true,
      "inputs": [],
      "name": "allocation_prefix_mask",
      "outputs": [
        {
          "name": "",
          "type": "uint8"
        }
      ],
      "payable": false,
      "stateMutability": "view",
      "type": "function"
    },
    {
      "constant": true,
      "inputs": [],
      "name": "max_allocable_blocks",
      "outputs": [
        {
          "name": "",
          "type": "uint256"
        }
      ],
      "payable": false,
      "stateMutability": "view",
      "type": "function"
    },
    {
      "constant": true,
      "inputs": [
        {
          "name": "ip",
          "type": "bytes16"
        },
        {
          "name": "start",
          "type": "int256"
        },
        {
          "name": "stop",
          "type": "int256"
        }
      ],
      "name": "getIDsDelBlocks",
      "outputs": [
        {
          "name": "result",
          "type": "uint256[]"
        }
      ],
      "payable": false,
      "stateMutability": "view",
      "type": "function"
    },
    {
      "constant": true,
      "inputs": [
        {
          "name": "id",
          "type": "int256"
        }
      ],
      "name": "isAllocatedPrefixExpired",
      "outputs": [
        {
          "name": "",
          "type": "bool"
        }
      ],
      "payable": false,
      "stateMutability": "view",
      "type": "function"
    },
    {
      "constant": true,
      "inputs": [
        {
          "name": "id",
          "type": "int256"
        }
      ],
      "name": "isPrefixInUse",
      "outputs": [
        {
          "name": "",
          "type": "bool"
        }
      ],
      "payable": false,
      "stateMutability": "view",
      "type": "function"
    },
    {
      "constant": false,
      "inputs": [
        {
          "name": "id",
          "type": "int256"
        },
        {
          "name": "uri",
          "type": "bytes"
        },
        {
          "name": "hashFunction",
          "type": "bytes"
        },
        {
          "name": "hash",
          "type": "bytes"
        }
      ],
      "name": "setPolicyURIiD",
      "outputs": [],
      "payable": false,
      "stateMutability": "nonpayable",
      "type": "function"
    },
    {
      "constant": false,
      "inputs": [
        {
          "name": "_parent_ip",
          "type": "bytes16"
        },
        {
          "name": "del_ip",
          "type": "bytes16"
        },
        {
          "name": "bar",
          "type": "uint8"
        },
        {
          "name": "delegated_address",
          "type": "address"
        }
      ],
      "name": "delegatePrefix",
      "outputs": [],
      "payable": false,
      "stateMutability": "nonpayable",
      "type": "function"
    },
    {
      "constant": true,
      "inputs": [],
      "name": "prefixPrice3",
      "outputs": [
        {
          "name": "",
          "type": "uint256"
        }
      ],
      "payable": false,
      "stateMutability": "view",
      "type": "function"
    },
    {
      "constant": true,
      "inputs": [],
      "name": "getRecovered",
      "outputs": [
        {
          "name": "result",
          "type": "uint256[]"
        }
      ],
      "payable": false,
      "stateMutability": "view",
      "type": "function"
    },
    {
      "constant": true,
      "inputs": [],
      "name": "ID_Index",
      "outputs": [
        {
          "name": "",
          "type": "int256"
        }
      ],
      "payable": false,
      "stateMutability": "view",
      "type": "function"
    },
    {
      "constant": false,
      "inputs": [
        {
          "name": "id",
          "type": "int256"
        }
      ],
      "name": "recoverExpiredBlock",
      "outputs": [],
      "payable": false,
      "stateMutability": "nonpayable",
      "type": "function"
    },
    {
      "constant": true,
      "inputs": [
        {
          "name": "ip_parent",
          "type": "bytes16"
        },
        {
          "name": "ip",
          "type": "bytes16"
        },
        {
          "name": "mask",
          "type": "uint8"
        }
      ],
      "name": "getDelegatedPrefixRoA",
      "outputs": [
        {
          "name": "",
          "type": "bytes"
        }
      ],
      "payable": false,
      "stateMutability": "view",
      "type": "function"
    },
    {
      "constant": true,
      "inputs": [
        {
          "name": "id",
          "type": "int256"
        }
      ],
      "name": "getRoA",
      "outputs": [
        {
          "name": "",
          "type": "bytes16"
        },
        {
          "name": "",
          "type": "bytes"
        },
        {
          "name": "",
          "type": "uint8"
        }
      ],
      "payable": false,
      "stateMutability": "view",
      "type": "function"
    },
    {
      "constant": false,
      "inputs": [],
      "name": "toggleCircuit",
      "outputs": [],
      "payable": false,
      "stateMutability": "nonpayable",
      "type": "function"
    },
    {
      "constant": false,
      "inputs": [
        {
          "name": "parent_ip",
          "type": "bytes16"
        },
        {
          "name": "del_ip",
          "type": "bytes16"
        },
        {
          "name": "mask",
          "type": "uint8"
        }
      ],
      "name": "revokeDelegatedPrefix",
      "outputs": [],
      "payable": false,
      "stateMutability": "nonpayable",
      "type": "function"
    },
    {
      "constant": false,
      "inputs": [
        {
          "name": "id",
          "type": "int256"
        },
        {
          "name": "ASes",
          "type": "bytes"
        }
      ],
      "name": "setRoAID",
      "outputs": [
        {
          "name": "",
          "type": "int256"
        }
      ],
      "payable": false,
      "stateMutability": "nonpayable",
      "type": "function"
    },
    {
      "constant": true,
      "inputs": [
        {
          "name": "id",
          "type": "int256"
        },
        {
          "name": "start",
          "type": "int256"
        },
        {
          "name": "stop",
          "type": "int256"
        }
      ],
      "name": "getIDsDelBlocksID",
      "outputs": [
        {
          "name": "result",
          "type": "uint256[]"
        }
      ],
      "payable": false,
      "stateMutability": "view",
      "type": "function"
    },
    {
      "constant": false,
      "inputs": [
        {
          "name": "ip",
          "type": "bytes16"
        }
      ],
      "name": "sequentialAllocationPrefixRequest",
      "outputs": [
        {
          "name": "",
          "type": "bool"
        }
      ],
      "payable": true,
      "stateMutability": "payable",
      "type": "function"
    },
    {
      "constant": true,
      "inputs": [
        {
          "name": "id",
          "type": "int256"
        }
      ],
      "name": "getItem",
      "outputs": [
        {
          "name": "ip",
          "type": "bytes16"
        },
        {
          "name": "o",
          "type": "address"
        },
        {
          "name": "mask",
          "type": "uint8"
        },
        {
          "name": "_date",
          "type": "uint256"
        },
        {
          "name": "a",
          "type": "bytes"
        },
        {
          "name": "b",
          "type": "bytes"
        },
        {
          "name": "c",
          "type": "bytes"
        },
        {
          "name": "d",
          "type": "bytes"
        }
      ],
      "payable": false,
      "stateMutability": "view",
      "type": "function"
    },
    {
      "constant": true,
      "inputs": [
        {
          "name": "ip",
          "type": "bytes16"
        },
        {
          "name": "ip2",
          "type": "bytes16"
        },
        {
          "name": "_mask",
          "type": "uint8"
        }
      ],
      "name": "del_find",
      "outputs": [
        {
          "name": "",
          "type": "int256"
        }
      ],
      "payable": false,
      "stateMutability": "view",
      "type": "function"
    },
    {
      "constant": true,
      "inputs": [],
      "name": "base_prefix_mask",
      "outputs": [
        {
          "name": "",
          "type": "uint8"
        }
      ],
      "payable": false,
      "stateMutability": "view",
      "type": "function"
    },
    {
      "constant": true,
      "inputs": [
        {
          "name": "id",
          "type": "int256"
        },
        {
          "name": "id2",
          "type": "int256"
        }
      ],
      "name": "getDelegatedPrefixRoAID",
      "outputs": [
        {
          "name": "",
          "type": "bytes16"
        },
        {
          "name": "",
          "type": "bytes"
        },
        {
          "name": "",
          "type": "uint8"
        }
      ],
      "payable": false,
      "stateMutability": "view",
      "type": "function"
    },
    {
      "constant": true,
      "inputs": [],
      "name": "initial_block",
      "outputs": [
        {
          "name": "",
          "type": "bytes16"
        }
      ],
      "payable": false,
      "stateMutability": "view",
      "type": "function"
    },
    {
      "constant": true,
      "inputs": [],
      "name": "stopped",
      "outputs": [
        {
          "name": "",
          "type": "bool"
        }
      ],
      "payable": false,
      "stateMutability": "view",
      "type": "function"
    },
    {
      "constant": true,
      "inputs": [
        {
          "name": "input",
          "type": "bytes16"
        }
      ],
      "name": "reverseSparse",
      "outputs": [
        {
          "name": "num",
          "type": "uint256"
        }
      ],
      "payable": false,
      "stateMutability": "view",
      "type": "function"
    },
    {
      "constant": true,
      "inputs": [
        {
          "name": "id",
          "type": "int256"
        }
      ],
      "name": "getIDsDelBlocksID2",
      "outputs": [
        {
          "name": "result",
          "type": "uint256[]"
        }
      ],
      "payable": false,
      "stateMutability": "view",
      "type": "function"
    },
    {
      "constant": true,
      "inputs": [],
      "name": "seed",
      "outputs": [
        {
          "name": "",
          "type": "uint256"
        }
      ],
      "payable": false,
      "stateMutability": "view",
      "type": "function"
    },
    {
      "constant": true,
      "inputs": [],
      "name": "securityPrice",
      "outputs": [
        {
          "name": "",
          "type": "uint256"
        }
      ],
      "payable": false,
      "stateMutability": "view",
      "type": "function"
    },
    {
      "constant": true,
      "inputs": [
        {
          "name": "a",
          "type": "address"
        },
        {
          "name": "start",
          "type": "int256"
        },
        {
          "name": "stop",
          "type": "int256"
        }
      ],
      "name": "getIDsBlocksAddress",
      "outputs": [
        {
          "name": "result",
          "type": "uint256[]"
        }
      ],
      "payable": false,
      "stateMutability": "view",
      "type": "function"
    },
    {
      "constant": true,
      "inputs": [],
      "name": "owner",
      "outputs": [
        {
          "name": "",
          "type": "address"
        }
      ],
      "payable": false,
      "stateMutability": "view",
      "type": "function"
    },
    {
      "constant": true,
      "inputs": [],
      "name": "oraclesValidity",
      "outputs": [
        {
          "name": "",
          "type": "uint256"
        }
      ],
      "payable": false,
      "stateMutability": "view",
      "type": "function"
    },
    {
      "constant": false,
      "inputs": [
        {
          "name": "ip_parent",
          "type": "bytes16"
        },
        {
          "name": "ip",
          "type": "bytes16"
        },
        {
          "name": "mask",
          "type": "uint8"
        },
        {
          "name": "ASes",
          "type": "bytes"
        }
      ],
      "name": "setDelegatedPrefixRoA",
      "outputs": [],
      "payable": false,
      "stateMutability": "nonpayable",
      "type": "function"
    },
    {
      "constant": true,
      "inputs": [
        {
          "name": "ip_parent",
          "type": "bytes16"
        },
        {
          "name": "ip",
          "type": "bytes16"
        },
        {
          "name": "mask",
          "type": "uint8"
        }
      ],
      "name": "getDelegatedPrefixPolicyURI",
      "outputs": [
        {
          "name": "",
          "type": "bytes"
        },
        {
          "name": "",
          "type": "bytes"
        },
        {
          "name": "",
          "type": "bytes"
        }
      ],
      "payable": false,
      "stateMutability": "view",
      "type": "function"
    },
    {
      "constant": true,
      "inputs": [],
      "name": "price",
      "outputs": [
        {
          "name": "",
          "type": "uint256"
        }
      ],
      "payable": false,
      "stateMutability": "view",
      "type": "function"
    },
    {
      "constant": true,
      "inputs": [
        {
          "name": "start",
          "type": "int256"
        },
        {
          "name": "stop",
          "type": "int256"
        }
      ],
      "name": "getIDsPrefixExpired",
      "outputs": [
        {
          "name": "result",
          "type": "uint256[]"
        }
      ],
      "payable": false,
      "stateMutability": "view",
      "type": "function"
    },
    {
      "constant": false,
      "inputs": [
        {
          "name": "id",
          "type": "int256"
        }
      ],
      "name": "prefixRenewID",
      "outputs": [
        {
          "name": "",
          "type": "bool"
        },
        {
          "name": "",
          "type": "uint256"
        }
      ],
      "payable": true,
      "stateMutability": "payable",
      "type": "function"
    },
    {
      "constant": false,
      "inputs": [
        {
          "name": "ip",
          "type": "bytes16"
        }
      ],
      "name": "getPolicyURI",
      "outputs": [
        {
          "name": "",
          "type": "bytes"
        },
        {
          "name": "",
          "type": "bytes"
        },
        {
          "name": "",
          "type": "bytes"
        }
      ],
      "payable": false,
      "stateMutability": "nonpayable",
      "type": "function"
    },
    {
      "constant": false,
      "inputs": [],
      "name": "prefixRequest",
      "outputs": [
        {
          "name": "",
          "type": "bool"
        }
      ],
      "payable": true,
      "stateMutability": "payable",
      "type": "function"
    },
    {
      "constant": true,
      "inputs": [],
      "name": "ID",
      "outputs": [
        {
          "name": "",
          "type": "int256"
        }
      ],
      "payable": false,
      "stateMutability": "view",
      "type": "function"
    },
    {
      "constant": true,
      "inputs": [],
      "name": "dollarsPrice",
      "outputs": [
        {
          "name": "",
          "type": "uint256"
        }
      ],
      "payable": false,
      "stateMutability": "view",
      "type": "function"
    },
    {
      "constant": true,
      "inputs": [],
      "name": "getPrefixCost",
      "outputs": [
        {
          "name": "",
          "type": "uint256"
        }
      ],
      "payable": false,
      "stateMutability": "view",
      "type": "function"
    },
    {
      "constant": true,
      "inputs": [
        {
          "name": "start",
          "type": "int256"
        },
        {
          "name": "stop",
          "type": "int256"
        }
      ],
      "name": "getIDsAssignedBlocks",
      "outputs": [
        {
          "name": "result",
          "type": "uint256[]"
        }
      ],
      "payable": false,
      "stateMutability": "view",
      "type": "function"
    },
    {
      "constant": true,
      "inputs": [],
      "name": "max_del",
      "outputs": [
        {
          "name": "",
          "type": "uint8"
        }
      ],
      "payable": false,
      "stateMutability": "view",
      "type": "function"
    },
    {
      "constant": true,
      "inputs": [
        {
          "name": "id",
          "type": "uint256"
        }
      ],
      "name": "sparse",
      "outputs": [
        {
          "name": "",
          "type": "bytes16"
        }
      ],
      "payable": false,
      "stateMutability": "view",
      "type": "function"
    },
    {
      "constant": true,
      "inputs": [],
      "name": "prefixPrice1",
      "outputs": [
        {
          "name": "",
          "type": "uint256"
        }
      ],
      "payable": false,
      "stateMutability": "view",
      "type": "function"
    },
    {
      "constant": false,
      "inputs": [
        {
          "name": "id1",
          "type": "int256"
        },
        {
          "name": "id2",
          "type": "int256"
        },
        {
          "name": "ASes",
          "type": "bytes"
        }
      ],
      "name": "setDelegatedPrefixRoAID",
      "outputs": [],
      "payable": false,
      "stateMutability": "nonpayable",
      "type": "function"
    },
    {
      "constant": true,
      "inputs": [],
      "name": "prefixPrice2",
      "outputs": [
        {
          "name": "",
          "type": "uint256"
        }
      ],
      "payable": false,
      "stateMutability": "view",
      "type": "function"
    },
    {
      "constant": true,
      "inputs": [
        {
          "name": "ip",
          "type": "bytes16"
        }
      ],
      "name": "getRoA",
      "outputs": [
        {
          "name": "",
          "type": "bytes"
        }
      ],
      "payable": false,
      "stateMutability": "view",
      "type": "function"
    },
    {
      "constant": true,
      "inputs": [
        {
          "name": "id",
          "type": "int256"
        },
        {
          "name": "id2",
          "type": "int256"
        }
      ],
      "name": "getDelBlockID",
      "outputs": [
        {
          "name": "",
          "type": "bytes16"
        },
        {
          "name": "",
          "type": "address"
        },
        {
          "name": "",
          "type": "uint8"
        },
        {
          "name": "",
          "type": "int256"
        },
        {
          "name": "",
          "type": "int256"
        },
        {
          "name": "",
          "type": "int256"
        }
      ],
      "payable": false,
      "stateMutability": "view",
      "type": "function"
    },
    {
      "inputs": [],
      "payable": false,
      "stateMutability": "nonpayable",
      "type": "constructor"
    },
    {
      "anonymous": false,
      "inputs": [
        {
          "indexed": false,
          "name": "text",
          "type": "string"
        }
      ],
      "name": "Log",
      "type": "event"
    },
    {
      "anonymous": false,
      "inputs": [
        {
          "indexed": true,
          "name": "_from",
          "type": "address"
        },
        {
          "indexed": false,
          "name": "_value",
          "type": "uint256"
        },
        {
          "indexed": false,
          "name": "id1",
          "type": "int256"
        },
        {
          "indexed": false,
          "name": "id2",
          "type": "int256"
        }
      ],
      "name": "delegatedPrefixRoaEvent",
      "type": "event"
    },
    {
      "anonymous": false,
      "inputs": [
        {
          "indexed": true,
          "name": "_from",
          "type": "address"
        },
        {
          "indexed": false,
          "name": "_value",
          "type": "uint256"
        },
        {
          "indexed": false,
          "name": "id",
          "type": "int256"
        }
      ],
      "name": "setRoaEvent",
      "type": "event"
    },
    {
      "constant": false,
      "inputs": [
        {
          "name": "ip",
          "type": "bytes16"
        },
        {
          "name": "_base_prefix_mask",
          "type": "uint8"
        },
        {
          "name": "_allocation_prefix_mask",
          "type": "uint8"
        },
        {
          "name": "price_local",
          "type": "uint256"
        }
      ],
      "name": "activateInBlock",
      "outputs": [],
      "payable": false,
      "stateMutability": "nonpayable",
      "type": "function"
    },
    {
      "constant": true,
      "inputs": [],
      "name": "askOracleCost",
      "outputs": [
        {
          "name": "",
          "type": "uint256"
        }
      ],
      "payable": false,
      "stateMutability": "view",
      "type": "function"
    },
    {
      "constant": false,
      "inputs": [],
      "name": "getOracleCurrencyConversion",
      "outputs": [],
      "payable": true,
      "stateMutability": "payable",
      "type": "function"
    },
    {
      "constant": false,
      "inputs": [
        {
          "name": "_myid",
          "type": "bytes32"
        },
        {
          "name": "_result",
          "type": "string"
        }
      ],
      "name": "__callback",
      "outputs": [],
      "payable": false,
      "stateMutability": "nonpayable",
      "type": "function"
    },
    {
      "constant": false,
      "inputs": [
        {
          "name": "myid",
          "type": "bytes32"
        },
        {
          "name": "result",
          "type": "string"
        },
        {
          "name": "proof",
          "type": "bytes"
        }
      ],
      "name": "__callback",
      "outputs": [],
      "payable": false,
      "stateMutability": "nonpayable",
      "type": "function"
    },
    {
      "constant": false,
      "inputs": [],
      "name": "computePrefixCost",
      "outputs": [],
      "payable": false,
      "stateMutability": "nonpayable",
      "type": "function"
    },
    {
      "constant": false,
      "inputs": [
        {
          "name": "new_owner",
          "type": "address"
        }
      ],
      "name": "transferInBlockControl",
      "outputs": [],
      "payable": false,
      "stateMutability": "nonpayable",
      "type": "function"
    },
    {
      "constant": false,
      "inputs": [
        {
          "name": "ip",
          "type": "bytes16"
        },
        {
          "name": "new_owner",
          "type": "address"
        }
      ],
      "name": "transferAllocatedPrefixControl",
      "outputs": [],
      "payable": false,
      "stateMutability": "nonpayable",
      "type": "function"
    },
    {
      "constant": false,
      "inputs": [
        {
          "name": "ip",
          "type": "bytes16"
        },
        {
          "name": "ip2",
          "type": "bytes16"
        },
        {
          "name": "mask",
          "type": "uint8"
        },
        {
          "name": "new_owner",
          "type": "address"
        }
      ],
      "name": "transferDelegatedPrefixControl",
      "outputs": [],
      "payable": false,
      "stateMutability": "nonpayable",
      "type": "function"
    },
    {
      "constant": false,
      "inputs": [],
      "name": "pay",
      "outputs": [],
      "payable": true,
      "stateMutability": "payable",
      "type": "function"
    }
  ],
  "bytecode": "0x608060405234801561001057600080fd5b50600c80546000600d81905560075560a060020a60ff0219600160a060020a0319918216331716740100000000000000000000000000000000000000001790915560128054909116736f485c8bf6fc43ea212e93bbf8ce046c7f1cb475179055616ba180620000806000396000f3006080604052600436106102c65763ffffffff60e060020a60003504166306cd8b7581146102cb57806308250c51146102f25780630c93e05f146102fc57806315ec41e7146103eb57806316efd9411461040c5780631a7f57ad146104215780631b9265b81461044c5780632059b40d146104545780632129b23b14610469578063233f9756146104e157806325b2d85e1461050d57806327dc297e146105255780632d993acf146105835780632e53c1211461065d57806334725c761461069757806337c454e9146106ac57806338bbfa50146106c15780633ae5e3071461075d5780633b2d563a146107725780633cf4d0391461078a57806348f183ac1461082d57806349621851146108d95780634be4926f146108ee578063585df8221461091c5780635c6d2bc91461097a57806361d2f70a146109985780636e53d065146109ad578063702335e614610bc9578063706c3eae14610bf757806371d0fb9414610c0c578063743d9ff814610c2757806375f12b2114610c59578063778193a114610c6e5780637c08049b14610c905780637d94792a14610ca85780637f6d784b14610cbd57806380f90eda14610cd25780638b8f238714610cf95780638c2a8c1014610d2a5780638da5cb5b14610d3f5780638fceb61814610d70578063983abe5a14610d855780639c68daeb14610df8578063a035b1fe14610f6a578063a09cc3ed14610f7f578063ab4a560414610f9a578063aea6197414610fc0578063af16e99014610fe2578063b2d3d0b414611010578063b3cea21714611018578063b5820d751461102d578063b70c546e14611042578063be90e17014611057578063c5ba2bd414611072578063cbc3bec014611087578063d0db65ce1461109c578063ecafa252146110b4578063f31a6df8146110c9578063f68d2d5b14611129578063f9bd3e521461113e578063fced003014611178578063fe6862831461119a575b600080fd5b3480156102d757600080fd5b506102e06111fd565b60408051918252519081900360200190f35b6102fa611203565b005b34801561030857600080fd5b50604080516020601f6064356004818101359283018490048402850184019095528184526102fa946001608060020a03198135811695602480359092169560ff604435169536956084940191819084018382808284375050604080516020601f89358b018035918201839004830284018301909452808352979a99988101979196509182019450925082915084018382808284375050604080516020601f89358b018035918201839004830284018301909452808352979a9998810197919650918201945092508291508401838280828437509497506114789650505050505050565b3480156103f757600080fd5b506102fa600160a060020a0360043516611563565b34801561041857600080fd5b506102fa61159c565b34801561042d57600080fd5b506104366115d3565b6040805160ff9092168252519081900360200190f35b6102fa6115e3565b34801561046057600080fd5b506102e06115e5565b34801561047557600080fd5b506104916001608060020a0319600435166024356044356115eb565b60408051602080825283518183015283519192839290830191858101910280838360005b838110156104cd5781810151838201526020016104b5565b505050509050019250505060405180910390f35b3480156104ed57600080fd5b506104f96004356116d5565b604080519115158252519081900360200190f35b34801561051957600080fd5b506104f9600435611722565b34801561053157600080fd5b5060408051602060046024803582810135601f81018590048502860185019096528585526102fa9583359536956044949193909101919081908401838280828437509497506117709650505050505050565b34801561058f57600080fd5b5060408051602060046024803582810135601f81018590048502860185019096528585526102fa95833595369560449491939091019190819084018382808284375050604080516020601f89358b018035918201839004830284018301909452808352979a99988101979196509182019450925082915084018382808284375050604080516020601f89358b018035918201839004830284018301909452808352979a9998810197919650918201945092508291508401838280828437509497506119c19650505050505050565b34801561066957600080fd5b506102fa6001608060020a03196004358116906024351660ff60443516600160a060020a0360643516611a4d565b3480156106a357600080fd5b506102e0611c57565b3480156106b857600080fd5b50610491611c5d565b3480156106cd57600080fd5b5060408051602060046024803582810135601f81018590048502860185019096528585526102fa95833595369560449491939091019190819084018382808284375050604080516020601f89358b018035918201839004830284018301909452808352979a999881019791965091820194509250829150840183828082843750949750611ce29650505050505050565b34801561076957600080fd5b506102e0611ce7565b34801561077e57600080fd5b506102fa600435611ced565b34801561079657600080fd5b506107b86001608060020a03196004358116906024351660ff60443516611e31565b6040805160208082528351818301528351919283929083019185019080838360005b838110156107f25781810151838201526020016107da565b50505050905090810190601f16801561081f5780820380516001836020036101000a031916815260200191505b509250505060405180910390f35b34801561083957600080fd5b50610845600435611f32565b604080516001608060020a03198516815260ff831691810191909152606060208083018281528551928401929092528451608084019186019080838360005b8381101561089c578181015183820152602001610884565b50505050905090810190601f1680156108c95780820380516001836020036101000a031916815260200191505b5094505050505060405180910390f35b3480156108e557600080fd5b506102fa61201a565b3480156108fa57600080fd5b506102fa6001608060020a03196004358116906024351660ff60443516612063565b34801561092857600080fd5b5060408051602060046024803582810135601f81018590048502860185019096528585526102e095833595369560449491939091019190819084018382808284375094975061248c9650505050505050565b34801561098657600080fd5b5061049160043560243560443561252f565b6104f96001608060020a03196004351661260c565b3480156109b957600080fd5b506109c5600435612974565b60405180896fffffffffffffffffffffffffffffffff19166fffffffffffffffffffffffffffffffff1916815260200188600160a060020a0316600160a060020a031681526020018760ff1660ff16815260200186815260200180602001806020018060200180602001858103855289818151815260200191508051906020019080838360005b83811015610a64578181015183820152602001610a4c565b50505050905090810190601f168015610a915780820380516001836020036101000a031916815260200191505b5085810384528851815288516020918201918a019080838360005b83811015610ac4578181015183820152602001610aac565b50505050905090810190601f168015610af15780820380516001836020036101000a031916815260200191505b50858103835287518152875160209182019189019080838360005b83811015610b24578181015183820152602001610b0c565b50505050905090810190601f168015610b515780820380516001836020036101000a031916815260200191505b50858103825286518152865160209182019188019080838360005b83811015610b84578181015183820152602001610b6c565b50505050905090810190601f168015610bb15780820380516001836020036101000a031916815260200191505b509c5050505050505050505050505060405180910390f35b348015610bd557600080fd5b506102e06001608060020a03196004358116906024351660ff60443516612c2d565b348015610c0357600080fd5b50610436612d92565b348015610c1857600080fd5b50610845600435602435612da2565b348015610c3357600080fd5b50610c3c612eb4565b604080516001608060020a03199092168252519081900360200190f35b348015610c6557600080fd5b506104f9612ec0565b348015610c7a57600080fd5b506102e06001608060020a031960043516612ed0565b348015610c9c57600080fd5b50610491600435613114565b348015610cb457600080fd5b506102e06131c9565b348015610cc957600080fd5b506102e06131cf565b348015610cde57600080fd5b50610491600160a060020a03600435166024356044356131d5565b348015610d0557600080fd5b506102fa6001608060020a03196004351660ff60243581169060443516606435613288565b348015610d3657600080fd5b506102e06133fe565b348015610d4b57600080fd5b50610d54613430565b60408051600160a060020a039092168252519081900360200190f35b348015610d7c57600080fd5b506102e061343f565b348015610d9157600080fd5b50604080516020601f6064356004818101359283018490048402850184019095528184526102fa946001608060020a03198135811695602480359092169560ff60443516953695608494019181908401838280828437509497506134459650505050505050565b348015610e0457600080fd5b50610e266001608060020a03196004358116906024351660ff60443516613500565b60405180806020018060200180602001848103845287818151815260200191508051906020019080838360005b83811015610e6b578181015183820152602001610e53565b50505050905090810190601f168015610e985780820380516001836020036101000a031916815260200191505b50848103835286518152865160209182019188019080838360005b83811015610ecb578181015183820152602001610eb3565b50505050905090810190601f168015610ef85780820380516001836020036101000a031916815260200191505b50848103825285518152855160209182019187019080838360005b83811015610f2b578181015183820152602001610f13565b50505050905090810190601f168015610f585780820380516001836020036101000a031916815260200191505b50965050505050505060405180910390f35b348015610f7657600080fd5b506102e0613738565b348015610f8b57600080fd5b5061049160043560243561373e565b610fa56004356137cd565b60408051921515835260208301919091528051918290030190f35b348015610fcc57600080fd5b50610e266001608060020a031960043516613a0b565b348015610fee57600080fd5b506102fa6001608060020a031960043516600160a060020a0360243516613c06565b6104f9613d07565b34801561102457600080fd5b506102e0613e58565b34801561103957600080fd5b506102e0613e5e565b34801561104e57600080fd5b506102e0613e64565b34801561106357600080fd5b50610491600435602435613f08565b34801561107e57600080fd5b50610436613fb7565b34801561109357600080fd5b506102fa613fd9565b3480156110a857600080fd5b50610c3c600435614208565b3480156110c057600080fd5b506102e06142c2565b3480156110d557600080fd5b50604080516020600460443581810135601f81018490048402850184019095528484526102fa9482359460248035953695946064949201919081908401838280828437509497506142c89650505050505050565b34801561113557600080fd5b506102e06143a8565b34801561114a57600080fd5b506102fa6001608060020a03196004358116906024351660ff60443516600160a060020a03606435166143ae565b34801561118457600080fd5b506107b86001608060020a0319600435166144e3565b3480156111a657600080fd5b506111b56004356024356145aa565b604080516001608060020a03199097168752600160a060020a03909516602087015260ff909316858501526060850191909152608084015260a0830152519081900360c00190f35b60095481565b61120b6133fe565b3414611261576040805160e560020a62461bcd02815260206004820152600b60248201527f5072696365204572726f72000000000000000000000000000000000000000000604482015290519081900360640190fd5b61130b60408051908101604052806003815260200160ea60020a6215549302815250608060405190810160405280604981526020017f6a736f6e2868747470733a2f2f6d696e2d6170692e63727970746f636f6d706181526020017f72652e636f6d2f646174612f70726963653f6673796d3d455448267473796d7381526020017f3d555344292e5553440000000000000000000000000000000000000000000000815250614626565b601781600019169055506113bf60408051908101604052806003815260200160ea60020a6215549302815250608060405190810160405280604c81526020017f6a736f6e2868747470733a2f2f6170692e6b72616b656e2e636f6d2f302f707581526020017f626c69632f5469636b65723f706169723d455448555344292e726573756c742e81526020017f584554485a5553442e632e300000000000000000000000000000000000000000815250614626565b6018816000191690555061147360408051908101604052806003815260200160ea60020a6215549302815250608060405190810160405280604381526020017f6a736f6e2868747470733a2f2f6170692e636f696e6d61726b65746361702e6381526020017f6f6d2f76312f7469636b65722f657468657265756d2f292e302e70726963655f81526020017f7573640000000000000000000000000000000000000000000000000000000000815250614626565b601955565b60008061148488612ed0565b915061148f82611722565b151561149a57600080fd5b6114a5888888612c2d565b905080600019141580156114bb57508060011914155b15156114c657600080fd5b6000828152601160209081526040808320848452600701825290912086516114f692600590920191880190616add565b5060008281526011602090815260408083208484526007018252909120855161152792600690920191870190616add565b5060008281526011602090815260408083208484526007908101835292208551611558939190910191860190616add565b505050505050505050565b600c54600160a060020a0316331461157a57600080fd5b600c8054600160a060020a031916600160a060020a0392909216919091179055565b600c54600160a060020a031633146115b357600080fd5b600c805474ff000000000000000000000000000000000000000019169055565b600c5460b060020a900460ff1681565b565b600e5481565b60606000806000806115fc88612ed0565b9350611609888888614a1b565b925082604051908082528060200260200182016040528015611635578160200160208202803883390190505b509450600091508690505b856001018112156116ca57600084815260116020908152604080832084845260088101835281842054845260070190915290206001015460a060020a900460ff16156116c257600084815260116020908152604080832084845260080190915290205485518690849081106116b157fe5b602090810290910101526001909101905b600101611640565b505050509392505050565b6000818152601160205260408120600201546301e1338001421080159061170c575060008281526011602052604090206002015415155b156117195750600161171d565b5060005b919050565b600061172d826116d5565b151561173b5750600161171d565b600082815260116020526040902054608060020a026001608060020a03191615156117685750600061171d565b506001919050565b611778614aaf565b600160a060020a0316331461178c57600080fd5b601754821415611847577fcf34ef537ac33ee1ac626ca1587a0a7e8e51561e5514f8cb36afa1c5102b3bab816040518080602001828103825283818151815260200191508051906020019080838360005b838110156117f55781810151838201526020016117dd565b50505050905090810190601f1680156118225780820380516001836020036101000a031916815260200191505b509250505060405180910390a161183a816002614ca4565b6000556201518042016003555b601854821415611902577fcf34ef537ac33ee1ac626ca1587a0a7e8e51561e5514f8cb36afa1c5102b3bab816040518080602001828103825283818151815260200191508051906020019080838360005b838110156118b0578181015183820152602001611898565b50505050905090810190601f1680156118dd5780820380516001836020036101000a031916815260200191505b509250505060405180910390a16118f5816002614ca4565b6001556201518042016003555b6019548214156119bd577fcf34ef537ac33ee1ac626ca1587a0a7e8e51561e5514f8cb36afa1c5102b3bab816040518080602001828103825283818151815260200191508051906020019080838360005b8381101561196b578181015183820152602001611953565b50505050905090810190601f1680156119985780820380516001836020036101000a031916815260200191505b509250505060405180910390a16119b0816002614ca4565b6002556201518042016003555b5050565b6119ca84611722565b15156119d557600080fd5b600084815260116020908152604090912084516119fa92600390920191860190616add565b5060008481526011602090815260409091208351611a2092600490920191850190616add565b5060008481526011602090815260409091208251611a4692600590920191840190616add565b5050505050565b600c54600090819060a060020a900460ff1615611a6957600080fd5b600c5460ff750100000000000000000000000000000000000000000090910481169085161115611a9857600080fd5b600c54611ab290879060b060020a900460ff168787614e16565b1515611b08576040805160e560020a62461bcd02815260206004820152601e60248201527f54686520656e7465726564206970206973206f7574206f662072616e67650000604482015290519081900360640190fd5b611b1186612ed0565b600081815260116020526040902060010154909250600160a060020a03163314611b85576040805160e560020a62461bcd02815260206004820152601960248201527f4f7065726174696f6e206e6f7420617574686f72697a65642100000000000000604482015290519081900360640190fd5b611b90868686614e78565b1515611c0c576040805160e560020a62461bcd02815260206004820152603360248201527f54686520656e746572656420626c6f636b2069732070617274206f6620616e6f60448201527f74686572206578697374696e6720626c6f636b00000000000000000000000000606482015290519081900360840190fd5b611c17868686612c2d565b90508060001914158015611c2d57508060011914155b15611c4357611c3e86868686615267565b611c4f565b611c4f86868686615267565b505050505050565b60025481565b60606000806000600954925082604051908082528060200260200182016040528015611c93578160200160208202803883390190505b50935060009150600090505b600954811215611cdc576000818152601060205260409020548451859084908110611cc657fe5b6020908102909101015260019182019101611c9f565b50505090565b505050565b60085481565b600c54600160a060020a03163314611d0457600080fd5b611d0d816116d5565b1515611d1857600080fd5b600081815260116020818152604080842080546001608060020a031916815560018101805474ffffffffffffffffffffffffffffffffffffffffff191690556002810185905581518084019283905285815294869052929091529151611d849260039092019190616add565b50604080516020818101808452600080845285815260119092529290209051611db39260049092019190616add565b50604080516020818101808452600080845285815260119092529290209051611de29260059092019190616add565b50604080516020818101808452600080845285815260119092529290209051611e119260069092019190616add565b506009805460009081526010602052604090209190915580546001019055565b6060600080611e3f86612ed0565b9150611e4a82611722565b1515611e5557600080fd5b611e60868686612c2d565b90508060001914158015611e7657508060011914155b1515611e8157600080fd5b600082815260116020908152604080832084845260070182529182902060080180548351601f600260001961010060018616150201909316929092049182018490048402810184019094528084529091830182828015611f225780601f10611ef757610100808354040283529160200191611f22565b820191906000526020600020905b815481529060010190602001808311611f0557829003601f168201915b5050505050925050509392505050565b600060606000611f4184611722565b1515611f4c57600080fd5b6000848152601160209081526040918290208054600180830154600690930180548651600261010094831615949094026000190190911692909204601f8101869004860283018601909652858252608060020a90920294919360a060020a90930460ff1692909184918301828280156120065780601f10611fdb57610100808354040283529160200191612006565b820191906000526020600020905b815481529060010190602001808311611fe957829003601f168201915b505050505091509250925092509193909250565b600c54600160a060020a0316331461203157600080fd5b600c805474ff000000000000000000000000000000000000000019811660a060020a9182900460ff1615909102179055565b6000806000806000600c60149054906101000a900460ff161561208557600080fd5b61208e88612ed0565b945061209985611722565b15156120a457600080fd5b600085815260116020526040902060010154600160a060020a03163314612115576040805160e560020a62461bcd02815260206004820152601a60248201527f4f7065726174696f6e206e6f7420417574686f72697a65642121000000000000604482015290519081900360640190fd5b612120888888612c2d565b9350836000191415801561213657508360011914155b151561214157600080fd5b600085815260116020908152604080832087845260070180835281842080546001608060020a031916815560018101805474ffffffffffffffffffffffffffffffffffffffffff1916905582518085019384905285815294899052925291516121b09260089092019190616add565b5060408051602081810180845260008084528981526011835284812089825260070190925292902090516121ea9260059092019190616add565b5060408051602081810180845260008084528981526011835284812089825260070190925292902090516122249260069092019190616add565b50604080516020818101808452600080845289815260118352848120898252600790810190935293909320915161226093929091019190616add565b50839250839150600090505b600c54600160ff60b060020a9092048216880301168112156124825760008581526011602090815260408083208684526007019091529020600201549291506122bc876080889003839003616077565b15156123bb5760008581526011602090815260408083208684526007019091529020600401541561235157600085815260116020908152604080832086845260070190915280822060040154825290205461231c90608060020a026160a0565b1561234c576000858152601160209081526040808320868452600701909152902080546001608060020a03191690555b6123b6565b600085815260116020908152604080832086845260070190915280822060030154825290205461238690608060020a026160a0565b156123b6576000858152601160209081526040808320868452600701909152902080546001608060020a03191690555b61247a565b60008581526011602090815260408083208684526007019091529020600301541561241557600085815260116020908152604080832086845260070190915280822060030154825290205461238690608060020a026160a0565b600085815260116020908152604080832086845260070190915280822060040154825290205461244a90608060020a026160a0565b1561247a576000858152601160209081526040808320868452600701909152902080546001608060020a03191690555b60010161226c565b5050505050505050565b600061249783611722565b15156124a257600080fd5b600083815260116020526040902060010154600160a060020a031633146124c857600080fd5b600083815260116020908152604090912083516124ed92600690920191850190616add565b506040805134815260208101859052815133927f68721feff6514b546442504e17553541c8ffe7e962d7da191c3fa3c1c7406169928290030190a25090919050565b606060008060006125418787876160f3565b92508260405190808252806020026020018201604052801561256d578160200160208202803883390190505b509350600091508590505b8460010181121561260257600087815260116020908152604080832084845260088101835281842054845260070190915290206001015460a060020a900460ff16156125fa57600087815260116020908152604080832084845260080190915290205484518590849081106125e957fe5b602090810290910101526001909101905b600101612578565b5050509392505050565b600080600080600c60149054906101000a900460ff161561262c57600080fd5b600e546008541261263c57600080fd5b336000908152600a60205260409020600101544211156126cc576040805160e560020a62461bcd02815260206004820152603460248201527f507269636520457870697265642c20706c65617365207265717565737420616760448201527f61696e2074686520707265666978207072696365000000000000000000000000606482015290519081900360840190fd5b336000908152600a60205260409020543414612732576040805160e560020a62461bcd02815260206004820152600b60248201527f5072696365206572726f72000000000000000000000000000000000000000000604482015290519081900360640190fd5b61273b85612ed0565b925061274683611722565b151561275157600080fd5b600083815260116020526040902060010154600160a060020a031633146127c2576040805160e560020a62461bcd02815260206004820152601660248201527f596f7520617265206e6f7420417574686f72697a656400000000000000000000604482015290519081900360640190fd5b600c546127dd90869060b060020a900460ff16608003616077565b151561280557600c546127fe90869060b060020a900460ff16608003616171565b94506128e2565b600c5461282090869060b060020a900460ff1660800361618d565b9450600191505b600b54600c5460ff608060020a909204821660b060020a909104821603811690831610156128e25761286d8583600c60169054906101000a900460ff1603608003616077565b1561289d576128908583600c60169054906101000a900460ff160360800361618d565b94506001909101906128dd565b6128bb8583600c60169054906101000a900460ff1603608003616171565b600b54600c5491965060ff608060020a909104811660b060020a909204160391505b612827565b6128eb85612ed0565b600081815260116020526040902054909150608060020a026001608060020a0319161561291757600080fd5b600c5461292f90869060b060020a900460ff166161b4565b600c54604051600160a060020a03909116903480156108fc02916000818181858888f19350505050158015612968573d6000803e3d6000fd5b50600195945050505050565b60008181526011602090815260409182902080546001808301546002808501546003909501805488516101009582161595909502600019011691909104601f8101879004870284018701909752868352608060020a90930295600160a060020a0382169560a060020a90920460ff16949360609384938493849391830182828015612a405780601f10612a1557610100808354040283529160200191612a40565b820191906000526020600020905b815481529060010190602001808311612a2357829003601f168201915b50505060008c8152601160209081526040918290206005018054835160026001831615610100026000190190921691909104601f81018490048402820184019094528381529599509350909150830182828015612ade5780601f10612ab357610100808354040283529160200191612ade565b820191906000526020600020905b815481529060010190602001808311612ac157829003601f168201915b50505060008c8152601160209081526040918290206004018054835160026001831615610100026000190190921691909104601f81018490048402820184019094528381529598509350909150830182828015612b7c5780601f10612b5157610100808354040283529160200191612b7c565b820191906000526020600020905b815481529060010190602001808311612b5f57829003601f168201915b50505060008c8152601160209081526040918290206006018054835160026001831615610100026000190190921691909104601f81018490048402820184019094528381529597509350909150830182828015612c1a5780601f10612bef57610100808354040283529160200191612c1a565b820191906000526020600020905b815481529060010190602001808311612bfd57829003601f168201915b5093945050505050919395975091939597565b6000806000806000612c3e88612ed0565b9350612c4984611722565b1515612c595760001994506116ca565b5060009150819050805b600c54600160ff60b060020a909204821688030116821215612d7a5760008481526011602090815260408083208684526007019091529020546001608060020a0319888116608060020a90920216148015612ce95750600084815260116020908152604080832086845260070190915290206001015460ff87811660a060020a90920416145b15612cfa57600190508294506116ca565b612d1b8783600c60169054906101000a900460ff1601600101608003616077565b1515612d4a57600084815260116020908152604080832095835260079095019052929092206003015491612d6f565b6000848152601160209081526040808320958352600790950190529290922060040154915b816001019150612c63565b8015612d88578294506116ca565b60011994506116ca565b600b54608060020a900460ff1681565b600060606000612db185611722565b1515612dbc57600080fd5b8360001914158015612dd057508360011914155b1515612ddb57600080fd5b60008581526011602090815260408083208784526007018252918290208054600180830154600890930180548651600261010094831615949094026000190190911692909204601f8101869004860283018601909652858252608060020a90920294919360a060020a90930460ff169290918491830182828015612ea05780601f10612e7557610100808354040283529160200191612ea0565b820191906000526020600020905b815481529060010190602001808311612e8357829003601f168201915b505050505091509250925092509250925092565b600b54608060020a0281565b600c5460a060020a900460ff1681565b600080808080808080808080805b600b54600160ff608060020a90920482160181169083161015612f2857612f088d83608003616077565b15612f1d57612f1a8d8360800361618d565b9c505b600190910190612ede565b5060005b600b54600c5460ff608060020a909204821660b060020a909104821603811690821610156130c657612f758d82600b60109054906101000a900460ff1660010101608003616077565b156130aa578060ff16600011158015612f92575060038160ff1611155b15612fa0578260020a8b019a505b8060ff16600411158015612fb8575060078160ff1611155b15612fc6578260020a8a0199505b8060ff16600811158015612fde5750600b8160ff1611155b15612fec578260020a890198505b8060ff16600c111580156130045750600f8160ff1611155b15613012578260020a880197505b8060ff1660101115801561302a575060138160ff1611155b15613038578260020a870196505b8060ff16601411158015613050575060178160ff1611155b1561305e578260020a860195505b8060ff166018111580156130765750601b8160ff1611155b15613084578260020a850194505b8060ff16601c1115801561309c5750601f8160ff1611155b156130aa578260020a840193505b82600101925082600414156130be57600092505b600101612f2c565b50506001631000000090920263010000009093026210000090940262010000909502611000909602610100909702601090980298909801969096019490940192909201010101019392505050565b6060600080601160008581526020019081526020016000206009016000015460405190808252806020026020018201604052801561315c578160200160208202803883390190505b50925060009150600090505b6000848152601160205260409020600901548112156131c2576000848152601160209081526040808320848452600a0190915290205483518490849081106131ac57fe5b6020908102909101015260019182019101613168565b5050919050565b600d5481565b60045481565b606060008060006131e7878787616244565b925082604051908082528060200260200182016040528015613213578160200160208202803883390190505b509350600091508590505b8460010181121561260257600081815260116020526040902060010154600160a060020a03888116911614801561325b5750613259816116d5565b155b156132805780848381518110151561326f57fe5b602090810290910101526001909101905b60010161321e565b600c54600160a060020a0316331461329f57600080fd5b600b8054600c805460ff878703811660020a600e556001600755600080805260116020527f4ad3b33220dddc71b994a52d72c06b10862965f7d926534c05c00fb7e819e7b780546001608060020a0319908116608060020a9c8d90049081179092557f4ad3b33220dddc71b994a52d72c06b10862965f7d926534c05c00fb7e819e7b8805433600160a060020a03199091161774ff00000000000000000000000000000000000000001990811670ff00000000000000000000000000000000199099169c86168e029c909c179c8d04851660a060020a02979097179096559990941690981790935560089190915560069290925568410d586a20a4c0000060045576ff00000000000000000000000000000000000000000000191660b060020a94909216939093021775ff0000000000000000000000000000000000000000001916753000000000000000000000000000000000000000000017169055565b600061342760408051908101604052806003815260200160ea60020a62155493028152506162a3565b60030290505b90565b600c54600160a060020a031681565b60035481565b60008061345186612ed0565b915061345c82611722565b151561346757600080fd5b613472868686612c2d565b9050806000191415801561348857508060011914155b151561349357600080fd5b6000828152601160209081526040808320848452600701909152902060010154600160a060020a031633146134c757600080fd5b6000828152601160209081526040808320848452600701825290912084516134f792600890920191860190616add565b50505050505050565b606080606060008061351188612ed0565b915061351c82611722565b151561352757600080fd5b613532888888612c2d565b9050806000191415801561354857508060011914155b151561355357600080fd5b60008281526011602090815260408083208484526007908101835292819020600581018054835160026001831615610100026000190190921691909104601f8101869004860282018601909452838152909482019360069092019290918591908301828280156136045780601f106135d957610100808354040283529160200191613604565b820191906000526020600020905b8154815290600101906020018083116135e757829003601f168201915b5050855460408051602060026001851615610100026000190190941693909304601f8101849004840282018401909252818152959850879450925084019050828280156136925780601f1061366757610100808354040283529160200191613692565b820191906000526020600020905b81548152906001019060200180831161367557829003601f168201915b5050845460408051602060026001851615610100026000190190941693909304601f8101849004840282018401909252818152959750869450925084019050828280156137205780601f106136f557610100808354040283529160200191613720565b820191906000526020600020905b81548152906001019060200180831161370357829003601f168201915b50505050509050945094509450505093509350939050565b60055481565b6060600080600061374f868661650b565b92508260405190808252806020026020018201604052801561377b578160200160208202803883390190505b509350600091508590505b848112156137c457613797816116d5565b156137bc578084838151811015156137ab57fe5b602090810290910101526001909101905b600101613786565b50505092915050565b6000806000600c60149054906101000a900460ff16156137ec57600080fd5b336000908152600a602052604090206001015442111561387c576040805160e560020a62461bcd02815260206004820152603460248201527f507269636520457870697265642c20706c65617365207265717565737420616760448201527f61696e2074686520707265666978207072696365000000000000000000000000606482015290519081900360840190fd5b336000908152600a602052604090205434146138e2576040805160e560020a62461bcd02815260206004820152600b60248201527f5072696365206572726f72000000000000000000000000000000000000000000604482015290519081900360640190fd5b6138eb84611722565b15156138f657600080fd5b600084815260116020526040902060010154600160a060020a0316331461398d576040805160e560020a62461bcd02815260206004820152602260248201527f596f7520617265206e6f7420746865206f776e6572206f662074686520626c6f60448201527f636b000000000000000000000000000000000000000000000000000000000000606482015290519081900360840190fd5b50600083815260116020526040808220600201805442908190039081016301e13380908101909255600c549251910192600160a060020a03909216913480156108fc02929091818181858888f193505050501580156139f0573d6000803e3d6000fd5b50505060009182525060116020526040902060020154600191565b60608060606000613a1b85612ed0565b9050613a2681611722565b1515613a3157600080fd5b600081815260116020908152604091829020600381018054845160026001831615610100026000190190921691909104601f810185900485028201850190955284815290936004830193600590930192859190830182828015613ad55780601f10613aaa57610100808354040283529160200191613ad5565b820191906000526020600020905b815481529060010190602001808311613ab857829003601f168201915b5050855460408051602060026001851615610100026000190190941693909304601f810184900484028201840190925281815295985087945092508401905082828015613b635780601f10613b3857610100808354040283529160200191613b63565b820191906000526020600020905b815481529060010190602001808311613b4657829003601f168201915b5050845460408051602060026001851615610100026000190190941693909304601f810184900484028201840190925281815295975086945092508401905082828015613bf15780601f10613bc657610100808354040283529160200191613bf1565b820191906000526020600020905b815481529060010190602001808311613bd457829003601f168201915b50505050509050935093509350509193909250565b6000613c1183612ed0565b600081815260116020526040902054909150608060020a026001608060020a0319161515613c3e57600080fd5b600081815260116020526040902060010154600160a060020a03163314613cd5576040805160e560020a62461bcd02815260206004820152602260248201527f596f7520617265206e6f7420746865206f776e6572206f662074686520626c6f60448201527f636b000000000000000000000000000000000000000000000000000000000000606482015290519081900360840190fd5b60009081526011602052604090206001018054600160a060020a031916600160a060020a039290921691909117905550565b600080600080600080600c60149054906101000a900460ff1615613d2a57600080fd5b600094505b8415156102c657600e546008541415613d9d576009541515613d5057600080fd5b60095460001901600090815260106020908152604080832054808452601190925290912054909450608060020a029250613d898361653d565b613d91616681565b60019450849550613e50565b613da8600d54614208565b9150613db382612ed0565b600081815260116020526040902054909150608060020a026001608060020a0319161515613e4257600c54613df390839060b060020a900460ff166161b4565b600d80546001019055600c54604051600160a060020a03909116903480156108fc02916000818181858888f19350505050158015613e35573d6000803e3d6000fd5b5060019450849550613e50565b600d80546001019055613d2f565b505050505090565b60075481565b60065481565b336000908152600a6020526040812060010154421115613ef4576040805160e560020a62461bcd02815260206004820152603460248201527f507269636520457870697265642c20706c65617365207265717565737420616760448201527f61696e2074686520707265666978207072696365000000000000000000000000606482015290519081900360840190fd5b50336000908152600a602052604090205490565b60606000806000613f19868661669e565b925082604051908082528060200260200182016040528015613f45578160200160208202803883390190505b509350600091508590505b846001018112156137c457600081815260116020526040902060010154600160a060020a031615801590613f8a5750613f88816116d5565b155b15613faf57808483815181101515613f9e57fe5b602090810290910101526001909101905b600101613f50565b600c547501000000000000000000000000000000000000000000900460ff1681565b6000806000806003544211151515614061576040805160e560020a62461bcd02815260206004820152603860248201527f5072696365204e6f742056616c696420616e796d6f72652c20706c656173652060448201527f6d616b6520616e6f74686572206f7261636c652063616c6c0000000000000000606482015290519081900360840190fd5b5060008054156140765760019350830161407b565b600093505b6001541561408e57600192508201614093565b600092505b600254156140a6576001915081016140ab565b600091505b8060ff1660031415614143576001546000541180156140cd5750600254600054115b806140e957506001546000541080156140e95750600254600054105b1561413c576000546001541180156141045750600254600154115b8061412057506000546001541080156141205750600254600154105b1561413057600254600555614137565b6001546005555b614143565b6000546005555b60ff81161515614154576004546005555b8060ff1660011415614167576004546005555b8060ff16600214156141ca5783801561417d5750825b15614192576001546000546002909104016005555b83801561419c5750815b156141ae576002805460005401046005555b8180156141b85750825b156141ca576002805460015401046005555b6141da60065460055460056166f1565b336000908152600a602052604090206509184e72a00091909102815562015180420160019091015550505050565b600b54600090608060020a028160028406156142405761423d82600b60109054906101000a900460ff16600101608003616171565b91505b5060015b600b54600c5460ff608060020a909204821660b060020a909104821603811690821610156142bb5760028160ff1660020a8581151561427f57fe5b0481151561428957fe5b06156142b3576142b08282600b60109054906101000a900460ff1660010101608003616171565b91505b600101614244565b5092915050565b60005481565b6142d183611722565b15156142dc57600080fd5b81600019141580156142f057508160011914155b15156142fb57600080fd5b6000838152601160209081526040808320858452600701909152902060010154600160a060020a0316331461432f57600080fd5b60008381526011602090815260408083208584526007018252909120825161435f92600890920191840190616add565b506040805134815260208101859052808201849052905133917f76f177494013f6f04926cae4726a97377143eebf3ec7b7a5ba7e418454eb77d3919081900360600190a2505050565b60015481565b6000806143ba86612ed0565b91506143c582611722565b156143cf57600080fd5b6143da868686612c2d565b905080600019141580156143f057508060011914155b15156143fb57600080fd5b6000828152601160209081526040808320848452600701909152902060010154600160a060020a031633146144a0576040805160e560020a62461bcd02815260206004820152602260248201527f596f7520617265206e6f7420746865206f776e6572206f662074686520626c6f60448201527f636b000000000000000000000000000000000000000000000000000000000000606482015290519081900360840190fd5b60009182526011602090815260408084209284526007909201905290206001018054600160a060020a031916600160a060020a0392909216919091179055505050565b606060006144f083612ed0565b90506144fb81611722565b151561450657600080fd5b60008181526011602090815260409182902060060180548351601f60026000196101006001861615020190931692909204918201849004840281018401909452808452909183018282801561459c5780601f106145715761010080835404028352916020019161459c565b820191906000526020600020905b81548152906001019060200180831161457f57829003601f168201915b505050505091505b50919050565b6000806000806000806145bc886116d5565b156145c657600080fd5b50505060009485525050601160209081526040808520938552600790930190525090208054600182015460028301546003840154600490940154608060020a90930294600160a060020a0383169460a060020a90930460ff169391929190565b6012546000908190600160a060020a03161580614655575060125461465390600160a060020a0316616726565b155b1561466657614664600061672a565b505b601260009054906101000a9004600160a060020a0316600160a060020a03166338cc48316040518163ffffffff1660e060020a028152600401602060405180830381600087803b1580156146b957600080fd5b505af11580156146cd573d6000803e3d6000fd5b505050506040513d60208110156146e357600080fd5b5051601354600160a060020a0390811691161461479957601260009054906101000a9004600160a060020a0316600160a060020a03166338cc48316040518163ffffffff1660e060020a028152600401602060405180830381600087803b15801561474d57600080fd5b505af1158015614761573d6000803e3d6000fd5b505050506040513d602081101561477757600080fd5b505160138054600160a060020a031916600160a060020a039092169190911790555b6013546040517f524f3889000000000000000000000000000000000000000000000000000000008152602060048201818152875160248401528751600160a060020a039094169363524f388993899383926044909201919085019080838360005b838110156148125781810151838201526020016147fa565b50505050905090810190601f16801561483f5780820380516001836020036101000a031916815260200191505b5092505050602060405180830381600087803b15801561485e57600080fd5b505af1158015614872573d6000803e3d6000fd5b505050506040513d602081101561488857600080fd5b50519050670de0b6b3a764000062030d403a02018111156148ac57600091506142bb565b6013546040517fadf59f99000000000000000000000000000000000000000000000000000000008152600060048201818152606060248401908152885160648501528851600160a060020a039095169463adf59f99948794938b938b939192909160448201916084019060208701908083838b5b83811015614938578181015183820152602001614920565b50505050905090810190601f1680156149655780820380516001836020036101000a031916815260200191505b50838103825284518152845160209182019186019080838360005b83811015614998578181015183820152602001614980565b50505050905090810190601f1680156149c55780820380516001836020036101000a031916815260200191505b50955050505050506020604051808303818588803b1580156149e657600080fd5b505af11580156149fa573d6000803e3d6000fd5b50505050506040513d6020811015614a1157600080fd5b5051949350505050565b600080600080600080614a2d89612ed0565b9450600093508792505b86600101831215614aa257505060008381526011602090815260408083208484526008810183528184205480855260079091019092529091208054600190910154608060020a9091029060a060020a900460ff1615614a97578360010193505b600190920191614a37565b5091979650505050505050565b601254600090600160a060020a03161580614adc5750601254614ada90600160a060020a0316616726565b155b15614aed57614aeb600061672a565b505b601260009054906101000a9004600160a060020a0316600160a060020a03166338cc48316040518163ffffffff1660e060020a028152600401602060405180830381600087803b158015614b4057600080fd5b505af1158015614b54573d6000803e3d6000fd5b505050506040513d6020811015614b6a57600080fd5b5051601354600160a060020a03908116911614614c2057601260009054906101000a9004600160a060020a0316600160a060020a03166338cc48316040518163ffffffff1660e060020a028152600401602060405180830381600087803b158015614bd457600080fd5b505af1158015614be8573d6000803e3d6000fd5b505050506040513d6020811015614bfe57600080fd5b505160138054600160a060020a031916600160a060020a039092169190911790555b601360009054906101000a9004600160a060020a0316600160a060020a031663c281d19e6040518163ffffffff1660e060020a028152600401602060405180830381600087803b158015614c7357600080fd5b505af1158015614c87573d6000803e3d6000fd5b505050506040513d6020811015614c9d57600080fd5b5051905090565b6000828180805b8351811015614df95783517f300000000000000000000000000000000000000000000000000000000000000090859083908110614ce457fe5b90602001015160f860020a900460f860020a02600160f860020a03191610158015614d5a575083517f390000000000000000000000000000000000000000000000000000000000000090859083908110614d3a57fe5b90602001015160f860020a900460f860020a02600160f860020a03191611155b15614db3578115614d7957851515614d7157614df9565b600019909501945b600a8302925060308482815181101515614d8f57fe5b90602001015160f860020a900460f860020a0260f860020a90040383019250614df1565b8381815181101515614dc157fe5b90602001015160f860020a900460f860020a02600160f860020a031916602e60f860020a021415614df157600191505b600101614cab565b6000861115614e0b5785600a0a830292505b509095945050505050565b6000806000614e28878760ff16616a4c565b9150614e37858760ff16616a4c565b90506001608060020a0319828116908216148015614e5b57508360ff168660ff1611155b15614e695760019250614e6e565b600092505b5050949350505050565b6000806000806000806000614e8c8a612ed0565b9550614e9786611722565b1515614ea257600080fd5b5060009350839250829150819050805b600c54600160ff60b060020a830481167501000000000000000000000000000000000000000000909304811692909203011683128015614ef0575081155b1561524657614f168984600c60169054906101000a900460ff1601600101608003616077565b15156150ae57600c54939450849360ff60b060020a9091048116890360010116831415614fed576000868152601160209081526040808320888452600701909152902054614f6990608060020a026160a0565b1580614fa757506000868152601160209081526040808320888452600701909152808220600301548252902054614fa590608060020a026160a0565b155b80614fe457506000868152601160209081526040808320888452600701909152808220600401548252902054614fe290608060020a026160a0565b155b15614fed575060015b600086815260116020908152604080832088845260070190915290205461501990608060020a026160a0565b15801561504e5750600086815260116020908152604080832088845260070190915290206001015460a060020a900460ff1615155b15615057575060015b6000868152601160209081526040808320888452600701909152902060030154151561508657600191506150a9565b600086815260116020908152604080832088845260070190915290206003015493505b61523b565b600c54939450849360ff60b060020a909104811689036001011683141561517f5760008681526011602090815260408083208884526007019091529020546150fb90608060020a026160a0565b15806151395750600086815260116020908152604080832088845260070190915280822060030154825290205461513790608060020a026160a0565b155b806151765750600086815260116020908152604080832088845260070190915280822060040154825290205461517490608060020a026160a0565b155b1561517f575060015b60008681526011602090815260408083208884526007019091529020546151ab90608060020a026160a0565b1580156151e05750600086815260116020908152604080832088845260070190915290206001015460a060020a900460ff1615155b156151e9575060015b60008681526011602090815260408083208884526007019091529020600401541515615218576001915061523b565b600086815260116020908152604080832088845260070190915290206004015493505b826001019250614eb2565b8015615255576000965061525a565b600196505b5050505050509392505050565b6000806000806000806152798a612ed0565b955061528486611722565b151561528f57600080fd5b600086815260116020526040902060010154600160a060020a031633146152b557600080fd5b6000945060009350600092505b600c5460001960ff60b060020a90920482168a03011683121561555e57600c546152ff908a90600160ff60b060020a909204821687010116616a4c565b91506153228984600c60169054906101000a900460ff1601600101608003616077565b1515615440576000868152601160209081526040808320878452600701909152902060030154939450849315156153b4576000868152601160208181526040808420600c810180548b87526007909201845282862080546001608060020a031916608060020a8a041781556003018290558186529185206002018a9055938a905291905280546001019055935061543b565b60008681526011602090815260408083208784526007019091529020546153e090608060020a026160a0565b15615418576000868152601160209081526040808320878452600701909152902080546001608060020a031916608060020a84041790555b600086815260116020908152604080832088845260070190915290206003015493505b615553565b6000868152601160209081526040808320878452600701909152902060040154939450849315156154cc576000868152601160208181526040808420600c810180548b87526007909201845282862080546001608060020a031916608060020a8a041781556004018290558186529185206002018a9055938a9052919052805460010190559350615553565b60008681526011602090815260408083208784526007019091529020546154f890608060020a026160a0565b15615530576000868152601160209081526040808320878452600701909152902080546001608060020a031916608060020a84041790555b600086815260116020908152604080832088845260070190915290206004015493505b8260010192506152c2565b61556b8989608003616077565b1515615b035761557e898960ff16616a4c565b6000878152601160209081526040808320600b81015484526008810183528184208985526007909101909252909120600301549596508695919350915015156158ad576000868152601160209081526040808320888452600701909152902060040154151561561a576000868152601160209081526040808320888452600701909152902080546001608060020a031916608060020a84041790555b60116000878152602001908152602001600020600c015493508360116000888152602001908152602001600020600701600087815260200190815260200160002060030181905550846011600088815260200190815260200160002060070160008681526020019081526020016000206002018190555060116000878152602001908152602001600020600c015460010160116000888152602001908152602001600020600c01819055508860116000888152602001908152602001600020600701600086815260200190815260200160002060000160006101000a8154816fffffffffffffffffffffffffffffffff0219169083608060020a9004021790555083601160008881526020019081526020016000206009016001016000601160008a815260200190815260200160002060090160000154815260200190815260200160002081905550601160008781526020019081526020016000206009016000015460010160116000888152602001908152602001600020600901600001819055508660116000888152602001908152602001600020600701600086815260200190815260200160002060010160006101000a815481600160a060020a030219169083600160a060020a031602179055508760116000888152602001908152602001600020600701600086815260200190815260200160002060010160146101000a81548160ff021916908360ff16021790555083601160008881526020019081526020016000206008016000601160008a8152602001908152602001600020600b015481526020019081526020016000206000018190555060116000878152602001908152602001600020600b015460010160116000888152602001908152602001600020600b0181905550615afe565b60008681526011602090815260408083208884526007019091529020600381015490549094506158e290608060020a026160a0565b1561591a576000868152601160209081526040808320888452600701909152902080546001608060020a031916608060020a84041790555b8860116000888152602001908152602001600020600701600086815260200190815260200160002060000160006101000a8154816fffffffffffffffffffffffffffffffff0219169083608060020a9004021790555083601160008881526020019081526020016000206009016001016000601160008a815260200190815260200160002060090160000154815260200190815260200160002081905550601160008781526020019081526020016000206009016000015460010160116000888152602001908152602001600020600901600001819055508660116000888152602001908152602001600020600701600086815260200190815260200160002060010160006101000a815481600160a060020a030219169083600160a060020a031602179055508760116000888152602001908152602001600020600701600086815260200190815260200160002060010160146101000a81548160ff021916908360ff16021790555083601160008881526020019081526020016000206008016000601160008a8152602001908152602001600020600b015481526020019081526020016000206000018190555060116000878152602001908152602001600020600b015460010160116000888152602001908152602001600020600b01819055505b61606b565b600086815260116020908152604080832087845260070190915290206004015493945084931515615e1a5760008681526011602090815260408083208884526007019091529020600301541515615b87576000868152601160209081526040808320888452600701909152902080546001608060020a031916608060020a84041790555b60116000878152602001908152602001600020600c015493508360116000888152602001908152602001600020600701600087815260200190815260200160002060040181905550846011600088815260200190815260200160002060070160008681526020019081526020016000206002018190555060116000878152602001908152602001600020600c015460010160116000888152602001908152602001600020600c01819055508860116000888152602001908152602001600020600701600086815260200190815260200160002060000160006101000a8154816fffffffffffffffffffffffffffffffff0219169083608060020a9004021790555083601160008881526020019081526020016000206009016001016000601160008a815260200190815260200160002060090160000154815260200190815260200160002081905550601160008781526020019081526020016000206009016000015460010160116000888152602001908152602001600020600901600001819055508660116000888152602001908152602001600020600701600086815260200190815260200160002060010160006101000a815481600160a060020a030219169083600160a060020a031602179055508760116000888152602001908152602001600020600701600086815260200190815260200160002060010160146101000a81548160ff021916908360ff16021790555083601160008881526020019081526020016000206008016000601160008a8152602001908152602001600020600b015481526020019081526020016000206000018190555060116000878152602001908152602001600020600b015460010160116000888152602001908152602001600020600b018190555061606b565b6000868152601160209081526040808320888452600701909152902060048101549054909450615e4f90608060020a026160a0565b15615e87576000868152601160209081526040808320888452600701909152902080546001608060020a031916608060020a84041790555b8860116000888152602001908152602001600020600701600086815260200190815260200160002060000160006101000a8154816fffffffffffffffffffffffffffffffff0219169083608060020a9004021790555083601160008881526020019081526020016000206009016001016000601160008a815260200190815260200160002060090160000154815260200190815260200160002081905550601160008781526020019081526020016000206009016000015460010160116000888152602001908152602001600020600901600001819055508660116000888152602001908152602001600020600701600086815260200190815260200160002060010160006101000a815481600160a060020a030219169083600160a060020a031602179055508760116000888152602001908152602001600020600701600086815260200190815260200160002060010160146101000a81548160ff021916908360ff16021790555083601160008881526020019081526020016000206008016000601160008a8152602001908152602001600020600b015481526020019081526020016000206000018190555060116000878152602001908152602001600020600b015460010160116000888152602001908152602001600020600b01819055505b50505050505050505050565b600061608a608060020a60ff8416616a89565b929092166001608060020a031916151592915050565b6000805b60108110156160ea578281601081106160b957fe5b1a60f860020a02600160f860020a031916600060f860020a021415156160e257600091506145a4565b6001016160a4565b50600192915050565b6000808381805b8560010183121561616557505060008681526011602090815260408083208484526008810183528184205480855260079091019092529091208054600190910154608060020a9091029060a060020a900460ff161561615a578360010193505b6001909201916160fa565b50919695505050505050565b6000616184608060020a60ff8416616a89565b90921792915050565b6000806161a96161a4608060020a60ff8616616a89565b616aac565b939093169392505050565b60006161bf83612ed0565b600090815260116020526040902080546001608060020a031916608060020a909404939093178355506001808301805433600160a060020a03199091161774ff0000000000000000000000000000000000000000191660a060020a60ff949094169390930292909217909155426002830155600c909101819055600880549091019055565b600080835b8360010181121561629a57600081815260116020526040902060010154600160a060020a0387811691161480156162865750616284816116d5565b155b15616292578160010191505b600101616249565b50949350505050565b601254600090600160a060020a031615806162d057506012546162ce90600160a060020a0316616726565b155b156162e1576162df600061672a565b505b601260009054906101000a9004600160a060020a0316600160a060020a03166338cc48316040518163ffffffff1660e060020a028152600401602060405180830381600087803b15801561633457600080fd5b505af1158015616348573d6000803e3d6000fd5b505050506040513d602081101561635e57600080fd5b5051601354600160a060020a0390811691161461641457601260009054906101000a9004600160a060020a0316600160a060020a03166338cc48316040518163ffffffff1660e060020a028152600401602060405180830381600087803b1580156163c857600080fd5b505af11580156163dc573d6000803e3d6000fd5b505050506040513d60208110156163f257600080fd5b505160138054600160a060020a031916600160a060020a039092169190911790555b6013546040517f524f3889000000000000000000000000000000000000000000000000000000008152602060048201818152855160248401528551600160a060020a039094169363524f388993879383926044909201919085019080838360005b8381101561648d578181015183820152602001616475565b50505050905090810190601f1680156164ba5780820380516001836020036101000a031916815260200191505b5092505050602060405180830381600087803b1580156164d957600080fd5b505af11580156164ed573d6000803e3d6000fd5b505050506040513d602081101561650357600080fd5b505192915050565b600080835b8381121561653557616521816116d5565b1561652d578160010191505b600101616510565b509392505050565b600061654882612ed0565b600081815260116020818152604080842080546001608060020a031916608060020a890417815560018101805433600160a060020a031990911617808255600c5474ff00000000000000000000000000000000000000001990911660b060020a90910460ff1660a060020a02179055426002820155815180840192839052858152948690529290915291519293506165e69260069091019190616add565b506040805160208181018084526000808452858152601190925292902090516166159260039092019190616add565b506040805160208181018084526000808452858152601190925292902090516166449260049092019190616add565b506040805160208181018084526000808452858152601190925292902090516166739260059092019190616add565b505060088054600101905550565b600980546000908152601060205260408120558054600019019055565b600080835b8360010181121561653557600081815260116020526040902060010154600160a060020a0316158015906166dd57506166db816116d5565b155b156166e9578160010191505b6001016166a3565b600080600083600101600a0a86029150600a858381151561670e57fe5b0460050181151561671b57fe5b049695505050505050565b3b90565b60008061674a731d3b2638a7cc9f2cb3d298a3da7a90b67e5506ed616726565b11156167bb5760128054600160a060020a031916731d3b2638a7cc9f2cb3d298a3da7a90b67e5506ed17905560408051808201909152600b81527f6574685f6d61696e6e657400000000000000000000000000000000000000000060208201526167b390616abe565b50600161171d565b60006167da73c03a2615d5efaf5f49f60b7bb6583eaec212fdf1616726565b11156168435760128054600160a060020a03191673c03a2615d5efaf5f49f60b7bb6583eaec212fdf117905560408051808201909152600c81527f6574685f726f707374656e33000000000000000000000000000000000000000060208201526167b390616abe565b600061686273b7a07bcf2ba2f2703b24c0691b5278999c59ac7e616726565b11156168cb5760128054600160a060020a03191673b7a07bcf2ba2f2703b24c0691b5278999c59ac7e17905560408051808201909152600981527f6574685f6b6f76616e000000000000000000000000000000000000000000000060208201526167b390616abe565b60006168ea73146500cfd35b22e4a392fe0adc06de1a1368ed48616726565b11156169535760128054600160a060020a03191673146500cfd35b22e4a392fe0adc06de1a1368ed4817905560408051808201909152600b81527f6574685f72696e6b65627900000000000000000000000000000000000000000060208201526167b390616abe565b6000616972736f485c8bf6fc43ea212e93bbf8ce046c7f1cb475616726565b11156169a6575060128054600160a060020a031916736f485c8bf6fc43ea212e93bbf8ce046c7f1cb475179055600161171d565b60006169c57320e12a1f859b3feae5fb2a0a32c18f5a65555bbf616726565b11156169f9575060128054600160a060020a0319167320e12a1f859b3feae5fb2a0a32c18f5a65555bbf179055600161171d565b6000616a187351efaf4c8b3c9afbd5ab9f4bbc82784ab6ef8faa616726565b1115611719575060128054600160a060020a0319167351efaf4c8b3c9afbd5ab9f4bbc82784ab6ef8faa179055600161171d565b6000608060020a6000196fffffffffffffffffffffffffffffffff841660020a010281616a7d826080869003616a89565b94909416949350505050565b6fffffffffffffffffffffffffffffffff1660020a608060020a91829004020290565b6000616ab6616ad1565b909118919050565b80516119bd906014906020840190616add565b6001608060020a031990565b828054600181600116156101000203166002900490600052602060002090601f016020900481019282601f10616b1e57805160ff1916838001178555616b4b565b82800160010185558215616b4b579182015b82811115616b4b578251825591602001919060010190616b30565b50616b57929150616b5b565b5090565b61342d91905b80821115616b575760008155600101616b615600a165627a7a72305820bfe2bf8aa20913908bc9fc9f7ec6729b898adc94440f7b0e88702b16ee12e2ab0029",
  "source": "pragma solidity ^0.4.24;\r\n\r\nimport \"./InBlock_F.sol\";\r\nimport \"./InBlock_F_del.sol\";\r\nimport \"./usingOraclize.sol\";\r\n\r\ncontract InBlock is InBlock_F, InBlock_F_del, usingOraclize{\r\n\r\n\r\n//******************************************************* FUNCTIONS TO BE CALLED TO INITIALIZE THE CONTRACT *******************************************************\r\n\r\n//Constructor\r\n\r\nconstructor() public{\r\n\towner=msg.sender;  \r\n\tseed=0;\r\n\tID=0;\r\n\tstopped=true; \r\n\t//askOracleCost=12000000000000000;\r\n\tOAR = OraclizeAddrResolverI(0x6f485C8BF6fc43eA212E93BBF8ce046C7f1cb475); //Testrpc\r\n\t//OAR = OraclizeAddrResolverI(0xc03A2615D5efaf5F49F60B7BB6583eaec212fdf1); //Ropsten\r\n\t//OAR = OraclizeAddrResolverI(0x1d3B2638a7cC9f2CB3D298A3DA7a90B67E5506ed);\t//mainnnet \r\n  }\r\n\r\n\r\n//To Set the Initial Block  \r\n function activateInBlock(bytes16 ip,uint8 _base_prefix_mask, uint8 _allocation_prefix_mask, uint price_local) onlyOwner() public {\r\n\tbase_prefix_mask=_base_prefix_mask;\r\n\tallocation_prefix_mask=_allocation_prefix_mask;\r\n\tmax_del=48;\r\n\tmax_allocable_blocks=(2**uint(_allocation_prefix_mask-_base_prefix_mask));\r\n\tID=1;\r\n\tblocks[0].ip_address=ip;\r\n\tblocks[0].o_addr=msg.sender;\r\n\tblocks[0].mask=base_prefix_mask;\r\n\tinitial_block=ip;\r\n\tID_Index=0;\r\n\tdollarsPrice=price_local;\r\n\tsecurityPrice=1200000000000000000000;\r\n\tstopped=false;\r\n\r\n}\r\n\t\r\n//******************************************************* ORACLE FUNCTIONS *******************************************************\r\n\r\nbytes32 queryID1;\r\nbytes32 queryID2;\r\nbytes32 queryID3;\r\nevent Log(string text);\r\n\r\n\r\nfunction askOracleCost()public view returns(uint){\r\nreturn(3*oraclize_getPrice(\"URL\"));\r\n}\r\n\r\n\r\nfunction getOracleCurrencyConversion() public payable{\r\n\t require(msg.value==askOracleCost(), \"Price Error\");\r\n\t queryID1=oraclize_query(\"URL\",\"json(https://min-api.cryptocompare.com/data/price?fsym=ETH&tsyms=USD).USD\");\r\n\t queryID2=oraclize_query(\"URL\", \"json(https://api.kraken.com/0/public/Ticker?pair=ETHUSD).result.XETHZUSD.c.0\");\r\n\t queryID3=oraclize_query(\"URL\", \"json(https://api.coinmarketcap.com/v1/ticker/ethereum/).0.price_usd\");\r\n\t }\r\n\r\nfunction __callback(bytes32 _myid, string _result) {\r\n     require (msg.sender == oraclize_cbAddress());\r\n             if (_myid==queryID1) {\r\n                        emit   Log(_result);\r\n\t\tprefixPrice1 = parseInt(_result, 2);\r\n        oraclesValidity=now+ 1 days;\r\n                   \r\n              }\r\n              if(_myid==queryID2) {\r\n                      emit     Log(_result);\r\n\t\tprefixPrice2 = parseInt(_result, 2);\r\n        oraclesValidity=now+ 1 days;\r\n                   \r\n        \r\n\t\t             }\r\n\t\t\t if(_myid==queryID3) {\r\n                    emit       Log(_result);\r\n\t\tprefixPrice3 = parseInt(_result, 2);\r\n\t\toraclesValidity=now+ 1 days;\r\n                   \r\n             }\r\n\r\n}\r\n\r\n\r\n\r\nfunction computePrefixCost()public{\r\nrequire(now<=oraclesValidity, \"Price Not Valid anymore, please make another oracle call\");\r\nbool a;\r\nbool b;\r\nbool c;\r\nuint8 count=0;\r\nif(prefixPrice1!=0) {a=true; count=count+1;} else a=false;\r\nif(prefixPrice2!=0) {b=true; count=count+1;} else b=false;\r\nif(prefixPrice3!=0) {c=true; count=count+1;} else c=false;\r\n\r\nif(count==3){\r\n    if((prefixPrice1>prefixPrice2 && prefixPrice1>prefixPrice3) || (prefixPrice1<prefixPrice2 && prefixPrice1<prefixPrice3)){\r\n\r\n\t    if((prefixPrice2>prefixPrice1 && prefixPrice2>prefixPrice3) || (prefixPrice2<prefixPrice1 && prefixPrice2<prefixPrice3)){\r\n\t\t    price=prefixPrice3;\r\n\t    }\r\n\t\telse price=prefixPrice2;\r\n    }\r\n\telse price=prefixPrice1;\r\n}\r\nif(count==0)price=securityPrice;\r\nif(count==1)price=securityPrice;\r\nif(count==2){ if(a && b) price=(prefixPrice1+prefixPrice2/2); if(a && c) price=(prefixPrice1+prefixPrice3)/2; if(c && b) price=(prefixPrice2+prefixPrice3)/2;} \r\n\r\nuserPrefixPrices[msg.sender].prefixPrice=(divide(dollarsPrice,price,5))*(10**13);\r\nuserPrefixPrices[msg.sender].validity=now+ 1 days;\r\n\r\n}\r\n\r\n//******************************************************* KEY ROLLOVER FUNCTIONS *******************************************************\r\n\r\n//Function to permit the change of the owner (the ones who recive the funds) \t\r\nfunction transferInBlockControl(address new_owner)onlyOwner(){\r\n\towner=new_owner;\r\n\t}\r\n\r\n//Function to permit the transfer of the ownership of a specific block \r\nfunction transferAllocatedPrefixControl(bytes16 ip,address new_owner) public {\r\n\t\t\r\n\t\tint id= int(reverseSparse(ip));\r\n\t\trequire(blocks[id].ip_address!=\"\");\r\n\t\trequire(msg.sender==blocks[id].o_addr, \"You are not the owner of the block\");\r\n\t\tblocks[id].o_addr=new_owner;\r\n\r\n}\r\n\r\nfunction transferDelegatedPrefixControl(bytes16 ip, bytes16 ip2, uint8 mask, address new_owner) public {\r\n\t\t\r\n\t\tint id= int(reverseSparse(ip));\r\n\t\trequire(!isPrefixInUse(id));\r\n\t\tint id2= del_find(ip, ip2, mask);\r\n\t\trequire(id2!=-1 && id2!=-2);\r\n\t\trequire(msg.sender==blocks[id].del_blocks[id2].o_addr, \"You are not the owner of the block\");\r\n\t\tblocks[id].del_blocks[id2].o_addr=new_owner;\r\n\r\n}\r\n\r\n//******************************************************* CONTRACT BALANCE FUNCTIONS *******************************************************\r\n\r\n\r\n//fallback function to permit everyone to give ether to the contract\r\nfunction pay () payable{}\r\n\r\n\r\n}",
  "sourcePath": "C:\\Users\\User\\Desktop\\Opt_inblock_code\\InBlock\\contracts\\InBlock.sol",
  "compiler": {
    "name": "solc",
    "version": "0.4.25+commit.59dbf8f1.Emscripten.clang"
  },
  "schemaVersion": "2.0.2",
  "updatedAt": "2020-01-31T11:42:30.554Z"
}