{
  "contractName": "InBlock_F",
  "abi": [
    {
      "constant": true,
      "inputs": [],
      "name": "ID_expired",
      "outputs": [
        {
          "name": "",
          "type": "int256"
        }
      ],
      "payable": false,
      "stateMutability": "view",
      "type": "function"
    },
    {
      "constant": false,
      "inputs": [],
      "name": "circuitBreaker",
      "outputs": [],
      "payable": false,
      "stateMutability": "nonpayable",
      "type": "function"
    },
    {
      "constant": true,
      "inputs": [],
      "name": "allocation_prefix_mask",
      "outputs": [
        {
          "name": "",
          "type": "uint8"
        }
      ],
      "payable": false,
      "stateMutability": "view",
      "type": "function"
    },
    {
      "constant": true,
      "inputs": [],
      "name": "max_allocable_blocks",
      "outputs": [
        {
          "name": "",
          "type": "uint256"
        }
      ],
      "payable": false,
      "stateMutability": "view",
      "type": "function"
    },
    {
      "constant": true,
      "inputs": [
        {
          "name": "id",
          "type": "int256"
        }
      ],
      "name": "isAllocatedPrefixExpired",
      "outputs": [
        {
          "name": "",
          "type": "bool"
        }
      ],
      "payable": false,
      "stateMutability": "view",
      "type": "function"
    },
    {
      "constant": true,
      "inputs": [
        {
          "name": "id",
          "type": "int256"
        }
      ],
      "name": "isPrefixInUse",
      "outputs": [
        {
          "name": "",
          "type": "bool"
        }
      ],
      "payable": false,
      "stateMutability": "view",
      "type": "function"
    },
    {
      "constant": true,
      "inputs": [],
      "name": "prefixPrice3",
      "outputs": [
        {
          "name": "",
          "type": "uint256"
        }
      ],
      "payable": false,
      "stateMutability": "view",
      "type": "function"
    },
    {
      "constant": true,
      "inputs": [],
      "name": "ID_Index",
      "outputs": [
        {
          "name": "",
          "type": "int256"
        }
      ],
      "payable": false,
      "stateMutability": "view",
      "type": "function"
    },
    {
      "constant": false,
      "inputs": [],
      "name": "toggleCircuit",
      "outputs": [],
      "payable": false,
      "stateMutability": "nonpayable",
      "type": "function"
    },
    {
      "constant": true,
      "inputs": [],
      "name": "base_prefix_mask",
      "outputs": [
        {
          "name": "",
          "type": "uint8"
        }
      ],
      "payable": false,
      "stateMutability": "view",
      "type": "function"
    },
    {
      "constant": true,
      "inputs": [],
      "name": "initial_block",
      "outputs": [
        {
          "name": "",
          "type": "bytes16"
        }
      ],
      "payable": false,
      "stateMutability": "view",
      "type": "function"
    },
    {
      "constant": true,
      "inputs": [],
      "name": "stopped",
      "outputs": [
        {
          "name": "",
          "type": "bool"
        }
      ],
      "payable": false,
      "stateMutability": "view",
      "type": "function"
    },
    {
      "constant": true,
      "inputs": [
        {
          "name": "input",
          "type": "bytes16"
        }
      ],
      "name": "reverseSparse",
      "outputs": [
        {
          "name": "num",
          "type": "uint256"
        }
      ],
      "payable": false,
      "stateMutability": "view",
      "type": "function"
    },
    {
      "constant": true,
      "inputs": [],
      "name": "seed",
      "outputs": [
        {
          "name": "",
          "type": "uint256"
        }
      ],
      "payable": false,
      "stateMutability": "view",
      "type": "function"
    },
    {
      "constant": true,
      "inputs": [],
      "name": "securityPrice",
      "outputs": [
        {
          "name": "",
          "type": "uint256"
        }
      ],
      "payable": false,
      "stateMutability": "view",
      "type": "function"
    },
    {
      "constant": true,
      "inputs": [],
      "name": "owner",
      "outputs": [
        {
          "name": "",
          "type": "address"
        }
      ],
      "payable": false,
      "stateMutability": "view",
      "type": "function"
    },
    {
      "constant": true,
      "inputs": [],
      "name": "oraclesValidity",
      "outputs": [
        {
          "name": "",
          "type": "uint256"
        }
      ],
      "payable": false,
      "stateMutability": "view",
      "type": "function"
    },
    {
      "constant": true,
      "inputs": [],
      "name": "price",
      "outputs": [
        {
          "name": "",
          "type": "uint256"
        }
      ],
      "payable": false,
      "stateMutability": "view",
      "type": "function"
    },
    {
      "constant": true,
      "inputs": [],
      "name": "ID",
      "outputs": [
        {
          "name": "",
          "type": "int256"
        }
      ],
      "payable": false,
      "stateMutability": "view",
      "type": "function"
    },
    {
      "constant": true,
      "inputs": [],
      "name": "dollarsPrice",
      "outputs": [
        {
          "name": "",
          "type": "uint256"
        }
      ],
      "payable": false,
      "stateMutability": "view",
      "type": "function"
    },
    {
      "constant": true,
      "inputs": [],
      "name": "max_del",
      "outputs": [
        {
          "name": "",
          "type": "uint8"
        }
      ],
      "payable": false,
      "stateMutability": "view",
      "type": "function"
    },
    {
      "constant": true,
      "inputs": [
        {
          "name": "id",
          "type": "uint256"
        }
      ],
      "name": "sparse",
      "outputs": [
        {
          "name": "",
          "type": "bytes16"
        }
      ],
      "payable": false,
      "stateMutability": "view",
      "type": "function"
    },
    {
      "constant": true,
      "inputs": [],
      "name": "prefixPrice1",
      "outputs": [
        {
          "name": "",
          "type": "uint256"
        }
      ],
      "payable": false,
      "stateMutability": "view",
      "type": "function"
    },
    {
      "constant": true,
      "inputs": [],
      "name": "prefixPrice2",
      "outputs": [
        {
          "name": "",
          "type": "uint256"
        }
      ],
      "payable": false,
      "stateMutability": "view",
      "type": "function"
    },
    {
      "anonymous": false,
      "inputs": [
        {
          "indexed": true,
          "name": "_from",
          "type": "address"
        },
        {
          "indexed": false,
          "name": "_value",
          "type": "uint256"
        },
        {
          "indexed": false,
          "name": "id",
          "type": "int256"
        }
      ],
      "name": "setRoaEvent",
      "type": "event"
    },
    {
      "constant": true,
      "inputs": [
        {
          "name": "id",
          "type": "int256"
        }
      ],
      "name": "getItem",
      "outputs": [
        {
          "name": "ip",
          "type": "bytes16"
        },
        {
          "name": "o",
          "type": "address"
        },
        {
          "name": "mask",
          "type": "uint8"
        },
        {
          "name": "_date",
          "type": "uint256"
        },
        {
          "name": "a",
          "type": "bytes"
        },
        {
          "name": "b",
          "type": "bytes"
        },
        {
          "name": "c",
          "type": "bytes"
        },
        {
          "name": "d",
          "type": "bytes"
        }
      ],
      "payable": false,
      "stateMutability": "view",
      "type": "function"
    },
    {
      "constant": true,
      "inputs": [
        {
          "name": "a",
          "type": "address"
        },
        {
          "name": "start",
          "type": "int256"
        },
        {
          "name": "stop",
          "type": "int256"
        }
      ],
      "name": "getIDsBlocksAddress",
      "outputs": [
        {
          "name": "result",
          "type": "uint256[]"
        }
      ],
      "payable": false,
      "stateMutability": "view",
      "type": "function"
    },
    {
      "constant": true,
      "inputs": [
        {
          "name": "start",
          "type": "int256"
        },
        {
          "name": "stop",
          "type": "int256"
        }
      ],
      "name": "getIDsAssignedBlocks",
      "outputs": [
        {
          "name": "result",
          "type": "uint256[]"
        }
      ],
      "payable": false,
      "stateMutability": "view",
      "type": "function"
    },
    {
      "constant": true,
      "inputs": [],
      "name": "getPrefixCost",
      "outputs": [
        {
          "name": "",
          "type": "uint256"
        }
      ],
      "payable": false,
      "stateMutability": "view",
      "type": "function"
    },
    {
      "constant": false,
      "inputs": [],
      "name": "prefixRequest",
      "outputs": [
        {
          "name": "",
          "type": "bool"
        }
      ],
      "payable": true,
      "stateMutability": "payable",
      "type": "function"
    },
    {
      "constant": false,
      "inputs": [
        {
          "name": "ip",
          "type": "bytes16"
        }
      ],
      "name": "sequentialAllocationPrefixRequest",
      "outputs": [
        {
          "name": "",
          "type": "bool"
        }
      ],
      "payable": true,
      "stateMutability": "payable",
      "type": "function"
    },
    {
      "constant": false,
      "inputs": [
        {
          "name": "id",
          "type": "int256"
        }
      ],
      "name": "prefixRenewID",
      "outputs": [
        {
          "name": "",
          "type": "bool"
        },
        {
          "name": "",
          "type": "uint256"
        }
      ],
      "payable": true,
      "stateMutability": "payable",
      "type": "function"
    },
    {
      "constant": true,
      "inputs": [
        {
          "name": "start",
          "type": "int256"
        },
        {
          "name": "stop",
          "type": "int256"
        }
      ],
      "name": "getIDsPrefixExpired",
      "outputs": [
        {
          "name": "result",
          "type": "uint256[]"
        }
      ],
      "payable": false,
      "stateMutability": "view",
      "type": "function"
    },
    {
      "constant": false,
      "inputs": [
        {
          "name": "id",
          "type": "int256"
        }
      ],
      "name": "recoverExpiredBlock",
      "outputs": [],
      "payable": false,
      "stateMutability": "nonpayable",
      "type": "function"
    },
    {
      "constant": true,
      "inputs": [],
      "name": "getRecovered",
      "outputs": [
        {
          "name": "result",
          "type": "uint256[]"
        }
      ],
      "payable": false,
      "stateMutability": "view",
      "type": "function"
    },
    {
      "constant": false,
      "inputs": [
        {
          "name": "id",
          "type": "int256"
        },
        {
          "name": "uri",
          "type": "bytes"
        },
        {
          "name": "hashFunction",
          "type": "bytes"
        },
        {
          "name": "hash",
          "type": "bytes"
        }
      ],
      "name": "setPolicyURIiD",
      "outputs": [],
      "payable": false,
      "stateMutability": "nonpayable",
      "type": "function"
    },
    {
      "constant": false,
      "inputs": [
        {
          "name": "ip",
          "type": "bytes16"
        }
      ],
      "name": "getPolicyURI",
      "outputs": [
        {
          "name": "",
          "type": "bytes"
        },
        {
          "name": "",
          "type": "bytes"
        },
        {
          "name": "",
          "type": "bytes"
        }
      ],
      "payable": false,
      "stateMutability": "nonpayable",
      "type": "function"
    },
    {
      "constant": false,
      "inputs": [
        {
          "name": "id",
          "type": "int256"
        },
        {
          "name": "ASes",
          "type": "bytes"
        }
      ],
      "name": "setRoAID",
      "outputs": [
        {
          "name": "",
          "type": "int256"
        }
      ],
      "payable": false,
      "stateMutability": "nonpayable",
      "type": "function"
    },
    {
      "constant": true,
      "inputs": [
        {
          "name": "id",
          "type": "int256"
        }
      ],
      "name": "getRoA",
      "outputs": [
        {
          "name": "",
          "type": "bytes16"
        },
        {
          "name": "",
          "type": "bytes"
        },
        {
          "name": "",
          "type": "uint8"
        }
      ],
      "payable": false,
      "stateMutability": "view",
      "type": "function"
    },
    {
      "constant": true,
      "inputs": [
        {
          "name": "ip",
          "type": "bytes16"
        }
      ],
      "name": "getRoA",
      "outputs": [
        {
          "name": "",
          "type": "bytes"
        }
      ],
      "payable": false,
      "stateMutability": "view",
      "type": "function"
    }
  ],
  "bytecode": "0x608060405234801561001057600080fd5b506127ba806100206000396000f3006080604052600436106101e25763ffffffff7c010000000000000000000000000000000000000000000000000000000060003504166306cd8b7581146101e757806316efd9411461020e5780631a7f57ad146102255780632059b40d14610250578063233f97561461026557806325b2d85e146102915780632d993acf146102a957806334725c761461038357806337c454e9146103985780633ae5e307146103fd5780633b2d563a1461041257806348f183ac1461042a57806349621851146104d6578063585df822146104eb57806361d2f70a146105495780636e53d0651461055e578063706c3eae1461077a578063743d9ff81461078f57806375f12b21146107c1578063778193a1146107d65780637d94792a146107f85780637f6d784b1461080d57806380f90eda146108225780638da5cb5b146108495780638fceb6181461087a578063a035b1fe1461088f578063a09cc3ed146108a4578063ab4a5604146108bf578063aea61974146108e5578063b2d3d0b414610a4b578063b3cea21714610a53578063b5820d7514610a68578063b70c546e14610a7d578063be90e17014610a92578063c5ba2bd414610aad578063d0db65ce14610ac2578063ecafa25214610ada578063f68d2d5b14610aef578063fced003014610b04575b600080fd5b3480156101f357600080fd5b506101fc610b9b565b60408051918252519081900360200190f35b34801561021a57600080fd5b50610223610ba1565b005b34801561023157600080fd5b5061023a610bd8565b6040805160ff9092168252519081900360200190f35b34801561025c57600080fd5b506101fc610be8565b34801561027157600080fd5b5061027d600435610bee565b604080519115158252519081900360200190f35b34801561029d57600080fd5b5061027d600435610c3b565b3480156102b557600080fd5b5060408051602060046024803582810135601f810185900485028601850190965285855261022395833595369560449491939091019190819084018382808284375050604080516020601f89358b018035918201839004830284018301909452808352979a99988101979196509182019450925082915084018382808284375050604080516020601f89358b018035918201839004830284018301909452808352979a999881019791965091820194509250829150840183828082843750949750610c899650505050505050565b34801561038f57600080fd5b506101fc610d15565b3480156103a457600080fd5b506103ad610d1b565b60408051602080825283518183015283519192839290830191858101910280838360005b838110156103e95781810151838201526020016103d1565b505050509050019250505060405180910390f35b34801561040957600080fd5b506101fc610da0565b34801561041e57600080fd5b50610223600435610da6565b34801561043657600080fd5b50610442600435610eea565b604080516001608060020a03198516815260ff831691810191909152606060208083018281528551928401929092528451608084019186019080838360005b83811015610499578181015183820152602001610481565b50505050905090810190601f1680156104c65780820380516001836020036101000a031916815260200191505b5094505050505060405180910390f35b3480156104e257600080fd5b50610223610fd2565b3480156104f757600080fd5b5060408051602060046024803582810135601f81018590048502860185019096528585526101fc95833595369560449491939091019190819084018382808284375094975061101b9650505050505050565b61027d6001608060020a0319600435166110be565b34801561056a57600080fd5b50610576600435611426565b60405180896fffffffffffffffffffffffffffffffff19166fffffffffffffffffffffffffffffffff1916815260200188600160a060020a0316600160a060020a031681526020018760ff1660ff16815260200186815260200180602001806020018060200180602001858103855289818151815260200191508051906020019080838360005b838110156106155781810151838201526020016105fd565b50505050905090810190601f1680156106425780820380516001836020036101000a031916815260200191505b5085810384528851815288516020918201918a019080838360005b8381101561067557818101518382015260200161065d565b50505050905090810190601f1680156106a25780820380516001836020036101000a031916815260200191505b50858103835287518152875160209182019189019080838360005b838110156106d55781810151838201526020016106bd565b50505050905090810190601f1680156107025780820380516001836020036101000a031916815260200191505b50858103825286518152865160209182019188019080838360005b8381101561073557818101518382015260200161071d565b50505050905090810190601f1680156107625780820380516001836020036101000a031916815260200191505b509c5050505050505050505050505060405180910390f35b34801561078657600080fd5b5061023a6116df565b34801561079b57600080fd5b506107a46116ef565b604080516001608060020a03199092168252519081900360200190f35b3480156107cd57600080fd5b5061027d6116fb565b3480156107e257600080fd5b506101fc6001608060020a03196004351661170b565b34801561080457600080fd5b506101fc61194f565b34801561081957600080fd5b506101fc611955565b34801561082e57600080fd5b506103ad600160a060020a036004351660243560443561195b565b34801561085557600080fd5b5061085e611a18565b60408051600160a060020a039092168252519081900360200190f35b34801561088657600080fd5b506101fc611a27565b34801561089b57600080fd5b506101fc611a2d565b3480156108b057600080fd5b506103ad600435602435611a33565b6108ca600435611ac2565b60408051921515835260208301919091528051918290030190f35b3480156108f157600080fd5b506109076001608060020a031960043516611d00565b60405180806020018060200180602001848103845287818151815260200191508051906020019080838360005b8381101561094c578181015183820152602001610934565b50505050905090810190601f1680156109795780820380516001836020036101000a031916815260200191505b50848103835286518152865160209182019188019080838360005b838110156109ac578181015183820152602001610994565b50505050905090810190601f1680156109d95780820380516001836020036101000a031916815260200191505b50848103825285518152855160209182019187019080838360005b83811015610a0c5781810151838201526020016109f4565b50505050905090810190601f168015610a395780820380516001836020036101000a031916815260200191505b50965050505050505060405180910390f35b61027d611efb565b348015610a5f57600080fd5b506101fc61204c565b348015610a7457600080fd5b506101fc612052565b348015610a8957600080fd5b506101fc612058565b348015610a9e57600080fd5b506103ad6004356024356120fd565b348015610ab957600080fd5b5061023a6121ac565b348015610ace57600080fd5b506107a46004356121ce565b348015610ae657600080fd5b506101fc612288565b348015610afb57600080fd5b506101fc61228e565b348015610b1057600080fd5b50610b266001608060020a031960043516612294565b6040805160208082528351818301528351919283929083019185019080838360005b83811015610b60578181015183820152602001610b48565b50505050905090810190601f168015610b8d5780820380516001836020036101000a031916815260200191505b509250505060405180910390f35b60095481565b600c54600160a060020a03163314610bb857600080fd5b600c805474ff000000000000000000000000000000000000000019169055565b600c5460b060020a900460ff1681565b600e5481565b6000818152601160205260408120600201546301e13380014210801590610c25575060008281526011602052604090206002015415155b15610c3257506001610c36565b5060005b919050565b6000610c4682610bee565b1515610c5457506001610c36565b600082815260116020526040902054608060020a026001608060020a0319161515610c8157506000610c36565b506001919050565b610c9284610c3b565b1515610c9d57600080fd5b60008481526011602090815260409091208451610cc2926003909201918601906126f6565b5060008481526011602090815260409091208351610ce8926004909201918501906126f6565b5060008481526011602090815260409091208251610d0e926005909201918401906126f6565b5050505050565b60025481565b60606000806000600954925082604051908082528060200260200182016040528015610d51578160200160208202803883390190505b50935060009150600090505b600954811215610d9a576000818152601060205260409020548451859084908110610d8457fe5b6020908102909101015260019182019101610d5d565b50505090565b60085481565b600c54600160a060020a03163314610dbd57600080fd5b610dc681610bee565b1515610dd157600080fd5b600081815260116020818152604080842080546001608060020a031916815560018101805474ffffffffffffffffffffffffffffffffffffffffff191690556002810185905581518084019283905285815294869052929091529151610e3d92600390920191906126f6565b50604080516020818101808452600080845285815260119092529290209051610e6c92600490920191906126f6565b50604080516020818101808452600080845285815260119092529290209051610e9b92600590920191906126f6565b50604080516020818101808452600080845285815260119092529290209051610eca92600690920191906126f6565b506009805460009081526010602052604090209190915580546001019055565b600060606000610ef984610c3b565b1515610f0457600080fd5b6000848152601160209081526040918290208054600180830154600690930180548651600261010094831615949094026000190190911692909204601f8101869004860283018601909652858252608060020a90920294919360a060020a90930460ff169290918491830182828015610fbe5780601f10610f9357610100808354040283529160200191610fbe565b820191906000526020600020905b815481529060010190602001808311610fa157829003601f168201915b505050505091509250925092509193909250565b600c54600160a060020a03163314610fe957600080fd5b600c805474ff000000000000000000000000000000000000000019811660a060020a9182900460ff1615909102179055565b600061102683610c3b565b151561103157600080fd5b600083815260116020526040902060010154600160a060020a0316331461105757600080fd5b6000838152601160209081526040909120835161107c926006909201918501906126f6565b506040805134815260208101859052815133927f68721feff6514b546442504e17553541c8ffe7e962d7da191c3fa3c1c7406169928290030190a25090919050565b600080600080600c60149054906101000a900460ff16156110de57600080fd5b600e54600854126110ee57600080fd5b336000908152600a602052604090206001015442111561117e576040805160e560020a62461bcd02815260206004820152603460248201527f507269636520457870697265642c20706c65617365207265717565737420616760448201527f61696e2074686520707265666978207072696365000000000000000000000000606482015290519081900360840190fd5b336000908152600a602052604090205434146111e4576040805160e560020a62461bcd02815260206004820152600b60248201527f5072696365206572726f72000000000000000000000000000000000000000000604482015290519081900360640190fd5b6111ed8561170b565b92506111f883610c3b565b151561120357600080fd5b600083815260116020526040902060010154600160a060020a03163314611274576040805160e560020a62461bcd02815260206004820152601660248201527f596f7520617265206e6f7420417574686f72697a656400000000000000000000604482015290519081900360640190fd5b600c5461128f90869060b060020a900460ff1660800361235a565b15156112b757600c546112b090869060b060020a900460ff16608003612383565b9450611394565b600c546112d290869060b060020a900460ff1660800361239f565b9450600191505b600b54600c5460ff608060020a909204821660b060020a909104821603811690831610156113945761131f8583600c60169054906101000a900460ff160360800361235a565b1561134f576113428583600c60169054906101000a900460ff160360800361239f565b945060019091019061138f565b61136d8583600c60169054906101000a900460ff1603608003612383565b600b54600c5491965060ff608060020a909104811660b060020a909204160391505b6112d9565b61139d8561170b565b600081815260116020526040902054909150608060020a026001608060020a031916156113c957600080fd5b600c546113e190869060b060020a900460ff166123c6565b600c54604051600160a060020a03909116903480156108fc02916000818181858888f1935050505015801561141a573d6000803e3d6000fd5b50600195945050505050565b60008181526011602090815260409182902080546001808301546002808501546003909501805488516101009582161595909502600019011691909104601f8101879004870284018701909752868352608060020a90930295600160a060020a0382169560a060020a90920460ff169493606093849384938493918301828280156114f25780601f106114c7576101008083540402835291602001916114f2565b820191906000526020600020905b8154815290600101906020018083116114d557829003601f168201915b50505060008c8152601160209081526040918290206005018054835160026001831615610100026000190190921691909104601f810184900484028201840190945283815295995093509091508301828280156115905780601f1061156557610100808354040283529160200191611590565b820191906000526020600020905b81548152906001019060200180831161157357829003601f168201915b50505060008c8152601160209081526040918290206004018054835160026001831615610100026000190190921691909104601f8101849004840282018401909452838152959850935090915083018282801561162e5780601f106116035761010080835404028352916020019161162e565b820191906000526020600020905b81548152906001019060200180831161161157829003601f168201915b50505060008c8152601160209081526040918290206006018054835160026001831615610100026000190190921691909104601f810184900484028201840190945283815295975093509091508301828280156116cc5780601f106116a1576101008083540402835291602001916116cc565b820191906000526020600020905b8154815290600101906020018083116116af57829003601f168201915b5093945050505050919395975091939597565b600b54608060020a900460ff1681565b600b54608060020a0281565b600c5460a060020a900460ff1681565b600080808080808080808080805b600b54600160ff608060020a90920482160181169083161015611763576117438d8360800361235a565b15611758576117558d8360800361239f565b9c505b600190910190611719565b5060005b600b54600c5460ff608060020a909204821660b060020a90910482160381169082161015611901576117b08d82600b60109054906101000a900460ff166001010160800361235a565b156118e5578060ff166000111580156117cd575060038160ff1611155b156117db578260020a8b019a505b8060ff166004111580156117f3575060078160ff1611155b15611801578260020a8a0199505b8060ff166008111580156118195750600b8160ff1611155b15611827578260020a890198505b8060ff16600c1115801561183f5750600f8160ff1611155b1561184d578260020a880197505b8060ff16601011158015611865575060138160ff1611155b15611873578260020a870196505b8060ff1660141115801561188b575060178160ff1611155b15611899578260020a860195505b8060ff166018111580156118b15750601b8160ff1611155b156118bf578260020a850194505b8060ff16601c111580156118d75750601f8160ff1611155b156118e5578260020a840193505b82600101925082600414156118f957600092505b600101611767565b50506001631000000090920263010000009093026210000090940262010000909502611000909602610100909702601090980298909801969096019490940192909201010101019392505050565b600d5481565b60045481565b6060600080600061196d878787612463565b925082604051908082528060200260200182016040528015611999578160200160208202803883390190505b509350600091508590505b84600101811215611a0e57600081815260116020526040902060010154600160a060020a0388811691161480156119e157506119df81610bee565b155b15611a06578084838151811015156119f557fe5b602090810290910101526001909101905b6001016119a4565b5050509392505050565b600c54600160a060020a031681565b60035481565b60055481565b60606000806000611a4486866124c2565b925082604051908082528060200260200182016040528015611a70578160200160208202803883390190505b509350600091508590505b84811215611ab957611a8c81610bee565b15611ab157808483815181101515611aa057fe5b602090810290910101526001909101905b600101611a7b565b50505092915050565b6000806000600c60149054906101000a900460ff1615611ae157600080fd5b336000908152600a6020526040902060010154421115611b71576040805160e560020a62461bcd02815260206004820152603460248201527f507269636520457870697265642c20706c65617365207265717565737420616760448201527f61696e2074686520707265666978207072696365000000000000000000000000606482015290519081900360840190fd5b336000908152600a60205260409020543414611bd7576040805160e560020a62461bcd02815260206004820152600b60248201527f5072696365206572726f72000000000000000000000000000000000000000000604482015290519081900360640190fd5b611be084610c3b565b1515611beb57600080fd5b600084815260116020526040902060010154600160a060020a03163314611c82576040805160e560020a62461bcd02815260206004820152602260248201527f596f7520617265206e6f7420746865206f776e6572206f662074686520626c6f60448201527f636b000000000000000000000000000000000000000000000000000000000000606482015290519081900360840190fd5b50600083815260116020526040808220600201805442908190039081016301e13380908101909255600c549251910192600160a060020a03909216913480156108fc02929091818181858888f19350505050158015611ce5573d6000803e3d6000fd5b50505060009182525060116020526040902060020154600191565b60608060606000611d108561170b565b9050611d1b81610c3b565b1515611d2657600080fd5b600081815260116020908152604091829020600381018054845160026001831615610100026000190190921691909104601f810185900485028201850190955284815290936004830193600590930192859190830182828015611dca5780601f10611d9f57610100808354040283529160200191611dca565b820191906000526020600020905b815481529060010190602001808311611dad57829003601f168201915b5050855460408051602060026001851615610100026000190190941693909304601f810184900484028201840190925281815295985087945092508401905082828015611e585780601f10611e2d57610100808354040283529160200191611e58565b820191906000526020600020905b815481529060010190602001808311611e3b57829003601f168201915b5050845460408051602060026001851615610100026000190190941693909304601f810184900484028201840190925281815295975086945092508401905082828015611ee65780601f10611ebb57610100808354040283529160200191611ee6565b820191906000526020600020905b815481529060010190602001808311611ec957829003601f168201915b50505050509050935093509350509193909250565b600080600080600080600c60149054906101000a900460ff1615611f1e57600080fd5b600094505b8415156101e257600e546008541415611f91576009541515611f4457600080fd5b60095460001901600090815260106020908152604080832054808452601190925290912054909450608060020a029250611f7d836124f4565b611f85612645565b60019450849550612044565b611f9c600d546121ce565b9150611fa78261170b565b600081815260116020526040902054909150608060020a026001608060020a031916151561203657600c54611fe790839060b060020a900460ff166123c6565b600d80546001019055600c54604051600160a060020a03909116903480156108fc02916000818181858888f19350505050158015612029573d6000803e3d6000fd5b5060019450849550612044565b600d80546001019055611f23565b505050505090565b60075481565b60065481565b336000908152600a60205260408120600101544211156120e8576040805160e560020a62461bcd02815260206004820152603460248201527f507269636520457870697265642c20706c65617365207265717565737420616760448201527f61696e2074686520707265666978207072696365000000000000000000000000606482015290519081900360840190fd5b50336000908152600a60205260409020545b90565b6060600080600061210e8686612662565b92508260405190808252806020026020018201604052801561213a578160200160208202803883390190505b509350600091508590505b84600101811215611ab957600081815260116020526040902060010154600160a060020a03161580159061217f575061217d81610bee565b155b156121a45780848381518110151561219357fe5b602090810290910101526001909101905b600101612145565b600c547501000000000000000000000000000000000000000000900460ff1681565b600b54600090608060020a028160028406156122065761220382600b60109054906101000a900460ff16600101608003612383565b91505b5060015b600b54600c5460ff608060020a909204821660b060020a909104821603811690821610156122815760028160ff1660020a8581151561224557fe5b0481151561224f57fe5b0615612279576122768282600b60109054906101000a900460ff1660010101608003612383565b91505b60010161220a565b5092915050565b60005481565b60015481565b606060006122a18361170b565b90506122ac81610c3b565b15156122b757600080fd5b60008181526011602090815260409182902060060180548351601f60026000196101006001861615020190931692909204918201849004840281018401909452808452909183018282801561234d5780601f106123225761010080835404028352916020019161234d565b820191906000526020600020905b81548152906001019060200180831161233057829003601f168201915b5050505050915050919050565b600061236d608060020a60ff84166126b5565b929092166001608060020a031916151592915050565b6000612396608060020a60ff84166126b5565b90921792915050565b6000806123bb6123b6608060020a60ff86166126b5565b6126d8565b939093169392505050565b60006123d18361170b565b600090815260116020526040902080546001608060020a031916608060020a90940493909317835550600180830180543373ffffffffffffffffffffffffffffffffffffffff199091161774ff0000000000000000000000000000000000000000191660a060020a60ff949094169390930292909217909155426002830155600c909101819055600880549091019055565b600080835b836001018112156124b957600081815260116020526040902060010154600160a060020a0387811691161480156124a557506124a381610bee565b155b156124b1578160010191505b600101612468565b50949350505050565b600080835b838112156124ec576124d881610bee565b156124e4578160010191505b6001016124c7565b509392505050565b60006124ff8261170b565b600081815260116020818152604080842080546001608060020a031916608060020a89041781556001810180543373ffffffffffffffffffffffffffffffffffffffff1990911617808255600c5474ff00000000000000000000000000000000000000001990911660b060020a90910460ff1660a060020a02179055426002820155815180840192839052858152948690529290915291519293506125aa92600690910191906126f6565b506040805160208181018084526000808452858152601190925292902090516125d992600390920191906126f6565b5060408051602081810180845260008084528581526011909252929020905161260892600490920191906126f6565b5060408051602081810180845260008084528581526011909252929020905161263792600590920191906126f6565b505060088054600101905550565b600980546000908152601060205260408120558054600019019055565b600080835b836001018112156124ec57600081815260116020526040902060010154600160a060020a0316158015906126a1575061269f81610bee565b155b156126ad578160010191505b600101612667565b6fffffffffffffffffffffffffffffffff1660020a608060020a91829004020290565b60006126e26126ea565b909118919050565b6001608060020a031990565b828054600181600116156101000203166002900490600052602060002090601f016020900481019282601f1061273757805160ff1916838001178555612764565b82800160010185558215612764579182015b82811115612764578251825591602001919060010190612749565b50612770929150612774565b5090565b6120fa91905b80821115612770576000815560010161277a5600a165627a7a72305820b0c8b9fa07c23feec2f920c7a7aad5b3e7c45b4141e49dea9b4ee9e6f864f0ed0029",
  "source": "pragma solidity ^0.4.24;\r\n\r\nimport \"./InBlock_Data.sol\";\r\n\r\ncontract InBlock_F is InBlock_Data{\r\n\r\n//*************************************************** GETTER BLOCK FUNCTIONS ****************************************************************************\r\n\r\nfunction getItem(int id) public view returns (bytes16 ip, address o, uint8 mask,uint _date, bytes a, bytes b, bytes c, bytes d){\r\n\t\t\r\n\t\tip = blocks[id].ip_address;\r\n        o = blocks[id].o_addr;\r\n\t\tmask= blocks[id].mask;\r\n\t\t_date= blocks[id].date;\r\n\t\ta=blocks[id].info.uri;\r\n\t\tb=blocks[id].info.hash;\r\n\t\tc=blocks[id].info.hashFunction;\r\n\t\td=blocks[id].Roa;\r\n\t\treturn(ip,o,mask,_date,a,b,c,d);\r\n\r\n}\r\n\r\n/*\r\nfunction getAddressID(int id) public view returns (bytes16 ip){\r\n\t\t\r\n\t\tip = blocks[id].ip_address;\r\n        return(ip);\r\n\r\n}*/\r\n\r\n\t\r\nfunction countBlockAddress(address a, int start, int stop)view internal returns(uint){\r\nuint count=0;\r\nfor(int i=start; i<stop+1; i++){\r\n\t\tif(blocks[i].o_addr==a && !isAllocatedPrefixExpired(i)){\r\n\t\tcount=count+1;\r\n\t\t}\r\n\t\t}\r\n\treturn count;\r\n\r\n}\r\n\r\nfunction getIDsBlocksAddress(address a,int start, int stop)view public returns(uint[]result){\r\n\r\n\tuint count=countBlockAddress(a,start,stop);\r\n\tresult = new uint[] (count);\r\n\tuint counter=0;\r\n\t\r\n\tfor(int i=start;i<stop+1;i++){\r\n\t\tif(blocks[i].o_addr==a && !isAllocatedPrefixExpired(i)){\r\n\t\tresult[counter]=uint(i);\r\n\t\tcounter=counter+1;\r\n\t\t}\r\n\t}\r\n\treturn result; \r\n\r\n}\r\n\r\n\r\n\r\nfunction countAssignedBlock(int start, int stop)view internal returns(uint){\r\nuint count=0;\r\nfor(int i=start; i<stop+1; i++){\r\n\t\tif(blocks[i].o_addr!=0x00 && !isAllocatedPrefixExpired(i)){\r\n\t\tcount=count+1;\r\n\t\t}\r\n\t\t}\r\n\treturn count;\r\n}\r\n\r\nfunction getIDsAssignedBlocks(int start, int stop)view public returns(uint[]result){\r\n\r\n\tuint count=countAssignedBlock(start,stop);\r\n\tresult = new uint[] (count);\r\n\tuint counter=0;\r\n\t\r\n\tfor(int i=start;i<stop+1;i++){\r\n\t\tif(blocks[i].o_addr!=0x00 && !isAllocatedPrefixExpired(i)){\r\n\t\tresult[counter]=uint(i);\r\n\t\tcounter=counter+1;\r\n\t\t}\r\n\t}\r\n\treturn result; \r\n}\r\n\r\nfunction getPrefixCost()public view returns(uint){\r\n\trequire(now<=userPrefixPrices[msg.sender].validity, \"Price Expired, please request again the prefix price\");\r\n\treturn(userPrefixPrices[msg.sender].prefixPrice);\r\n}\r\n\r\n//******************************************************* FIXED SIZE BLOCK REQUEST FUNCTIONS *******************************************************\r\n\r\n//Declare an Event\r\n//event prefixRequestEvent(address indexed _from, uint _value);\r\n\r\n\r\n//PrefixRequest With sparse allocation for /32\t NB there is a fixed limit of /32 available blocks.\r\nfunction prefixRequest() notStopped() payable public returns(bool){\r\n\t\t\r\n\t//require(now<=userPrefixPrices[msg.sender].validity, \"Price Expired, please request again the prefix price\");\r\n\t//require(userPrefixPrices[msg.sender].prefixPrice==msg.value , \"Price error\");\r\n\t\r\n\tbool ok=false;\r\n\twhile(!ok){\r\n\t\t\r\n\t\tif(ID_Index==int(max_allocable_blocks)){\r\n\t\t\trequire(ID_expired!=0);\r\n\t\t\tint idapp=expired_array_index[ID_expired-1].ind;\r\n\t\t\tbytes16 app2=blocks[idapp].ip_address;\r\n\t\t\tsetBlockExpired(app2);\r\n\t\t\tdelete_expired();\r\n\t\t\tok=true;\r\n\t\t\t//Emit an event\r\n\t//\t\temit prefixRequestEvent(msg.sender,msg.value);\r\n\t\t\treturn ok;\r\n\t\t}else{\r\n\t\t\t\r\n\t\t\t\tbytes16 app=sparse(seed);\r\n\t\t\t\tint appID=int(reverseSparse(app));\r\n\t\t\tif(blocks[appID].ip_address==\"\"){\r\n\t\t\t\tsetBlock(app,allocation_prefix_mask);\r\n\t\t\t\tseed=seed+1;\r\n\t\t\t\towner.transfer(msg.value);\r\n\t\t\t\tok=true;\r\n                //Emit an event\r\n\t\t//\t\temit prefixRequestEvent(msg.sender,msg.value);\r\n\t\t\t\treturn ok;\r\n\t\t\t}\r\n\t\t\telse {\r\n\t\t\t\tseed=seed+1;\r\n\t\t\t\r\n\t\t\t}\r\n\t\t}\r\n\t}\r\n\trevert();\r\n}\r\n\r\n\r\n \r\n//function to perform a sequent allocation if an user already has a block and want the contiguos one \r\nfunction sequentialAllocationPrefixRequest(bytes16 ip) notStopped() payable public returns (bool){\r\n\t\r\n\trequire(ID_Index<int(max_allocable_blocks));\r\n\t//require((prefixPrice - 32270100000000000)<=msg.value || msg.value<=(prefixPrice + 32270100000000000) , \"Price error\");\r\n\trequire(now<=userPrefixPrices[msg.sender].validity, \"Price Expired, please request again the prefix price\");\r\n\trequire(userPrefixPrices[msg.sender].prefixPrice==msg.value , \"Price error\");\r\n    int id= int(reverseSparse(ip));\r\n\trequire(isPrefixInUse(id));\r\n\trequire(msg.sender==blocks[id].o_addr, \"You are not Authorized\");\r\n\t\t\r\n\t\tif(!getBit(ip,128-allocation_prefix_mask)){\r\n\t\t\t\tip=setBit(ip,128-allocation_prefix_mask);\r\n\t\t}else{\t\r\n\t\t\t\tip=clearBit(ip,128-allocation_prefix_mask);\r\n\t\t\t\tuint8 i=1;\r\n\t\t\t\twhile(i<allocation_prefix_mask-base_prefix_mask){\r\n\t\t\t\t\t\r\n\t\t\t\t\t\tif(getBit(ip,128-(allocation_prefix_mask-i))){\r\n\t\t\t\t\t\t\t\tip=clearBit(ip,128-(allocation_prefix_mask-i));\r\n\t\t\t\t\t\t\t\ti++;\r\n\t\t\t\t\t\t}else{\r\n\t\t\t\t\t\t\t\tip=setBit(ip,128-(allocation_prefix_mask-i));\r\n\t\t\t\t\t\t\t\ti=allocation_prefix_mask-base_prefix_mask;\r\n\t\t\t\t\t\t\t}\r\n\t\t\t\t\t\t}\r\n\t\t\t  }\r\n\t\t\t  \r\n\t\t\r\n\t\tint id1= int(reverseSparse(ip));\r\n\t\trequire(blocks[id1].ip_address==\"\");\r\n\t\t\r\n\t\t\tsetBlock(ip,allocation_prefix_mask);\r\n\t\t\towner.transfer(msg.value);\r\n\t\t\treturn true;\r\n\t\t\r\n\t\t\trevert();\r\n}\r\n\r\n//******************************************************* BLOCK RENEWAL FUNCTION *******************************************************\r\n\r\n/*\r\nfunction prefixRenew(bytes16 ip) notStopped() payable public returns (bool,uint){\r\n\t\r\n\t//require(msg.value==prefixPrice, \"Price Error.\");\r\n\trequire(now<=userPrefixPrices[msg.sender].validity, \"Price Expired, please request again the prefix price\");\r\n\trequire(userPrefixPrices[msg.sender].prefixPrice==msg.value , \"Price error\");\r\n\tint id=int(reverseSparse(ip));\r\n\trequire(isPrefixInUse(id));\r\n\trequire(msg.sender==blocks[id].o_addr, \"You are not the owner of the block\");\r\n\tuint app1= (blocks[id].date+365* 1 days)-now;\r\n\tblocks[id].date=now+app1;\t\r\n\towner.transfer(msg.value);\r\n\treturn(true,blocks[id].date);\r\n}*/\r\n\r\n\r\nfunction prefixRenewID(int id) notStopped() payable public returns (bool,uint){\r\n\t\r\n\t//require(msg.value==prefixPrice, \"Price Error.\");\r\n    require(now<=userPrefixPrices[msg.sender].validity, \"Price Expired, please request again the prefix price\");\r\n\trequire(userPrefixPrices[msg.sender].prefixPrice==msg.value , \"Price error\");\r\n\trequire(isPrefixInUse(id));\r\n\trequire(msg.sender==blocks[id].o_addr, \"You are not the owner of the block\");\r\n\tuint app1= (blocks[id].date+365* 1 days)-now;\r\n\tblocks[id].date=now+app1;\t\r\n\towner.transfer(msg.value);\r\n\treturn(true,blocks[id].date);\r\n}\r\n\r\n\r\n//******************************************************* BLOCK RECOVER FUNCTION *******************************************************\r\n\r\nfunction countBlockExpired(int start, int stop)view internal returns(uint){\r\nuint count=0;\r\nfor(int i=start; i<stop; i++){\r\n\t\tif(isAllocatedPrefixExpired(i)){\r\n\t\tcount=count+1;\r\n\t\t}\r\n\t\t}\r\n\treturn count;\r\n\r\n}\r\n\r\nfunction getIDsPrefixExpired(int start, int stop)view public returns(uint[]result){\r\n\r\n\tuint count=countBlockExpired(start,stop);\r\n\tresult = new uint[] (count);\r\n\tuint counter=0;\r\n\t\r\n\tfor(int i=start;i<stop;i++){\r\n\t\tif(isAllocatedPrefixExpired(i)){\r\n\t\tresult[counter]=uint(i);\r\n\t\tcounter=counter+1;\r\n\t\t}\r\n\t}\r\n\treturn result; \r\n\r\n}\r\n\r\n\r\nfunction recoverExpiredBlock(int id)onlyOwner()public {\r\n\r\n\trequire(isAllocatedPrefixExpired(id));\r\n\tblocks[id].ip_address=\"\";\r\n\tblocks[id].mask=0;\r\n\tblocks[id].o_addr=0x00;\r\n\tblocks[id].date=0;\r\n\tblocks[id].info.uri=\"\";\r\n\tblocks[id].info.hashFunction=\"\";\r\n\tblocks[id].info.hash=\"\";\r\n\tblocks[id].Roa=\"\";\r\n\r\n\texpired_array_index[ID_expired].ind=id;\r\n\tID_expired=ID_expired+1;\r\n\r\n}\r\n\r\n\r\nfunction getRecovered()view public returns(uint[]result){\r\n\r\n\tuint count=uint(ID_expired);\r\n\tresult = new uint[] (count);\r\n\tuint counter=0;\r\n\t\r\n\tfor(int i=0;i<ID_expired;i++){\r\n\t\t\tresult[counter]=uint(expired_array_index[i].ind);\r\n\t\t\tcounter=counter+1;\r\n\t\t}\r\n\t\r\n\treturn result; \r\n\r\n}\r\n\r\nfunction delete_expired()internal{\r\n\r\n\tdelete expired_array_index[ID_expired];\r\n\tID_expired=ID_expired-1;\r\n\r\n}\r\n\r\n//******************************************************* POLICY FUNCTIONS *******************************************************\r\n/*function setPolicyURI(bytes16 ip, bytes uri, bytes hashFunction, bytes hash) public {\r\n\t\r\n\tint id=int(reverseSparse(ip));\r\n\trequire(isPrefixInUse(id));\r\n\tblocks[id].info.uri=uri;\r\n\tblocks[id].info.hashFunction=hashFunction;\r\n\tblocks[id].info.hash=hash;\r\n\t\t\t\r\n}*/\r\n\r\nfunction setPolicyURIiD(int id, bytes uri, bytes hashFunction, bytes hash) public {\r\n\t\r\n\trequire(isPrefixInUse(id));\r\n\tblocks[id].info.uri=uri;\r\n\tblocks[id].info.hashFunction=hashFunction;\r\n\tblocks[id].info.hash=hash;\r\n\t\t\t\r\n}\r\n\r\n\r\nfunction getPolicyURI(bytes16 ip) public returns(bytes, bytes, bytes ) {\r\n\t\r\n\tint id=int(reverseSparse(ip));\r\n\trequire(isPrefixInUse(id));\r\n\treturn(blocks[id].info.uri,blocks[id].info.hashFunction,blocks[id].info.hash);\r\n\t\r\n\t\r\n\t\t\t\r\n}\r\n\r\n//******************************************************* ASes FUNCTIONS *******************************************************\r\n\r\nfunction getRoA(bytes16 ip)view public returns(bytes){\r\n\t\r\n\tint id=int(reverseSparse(ip));\r\n\trequire(isPrefixInUse(id));\r\n\treturn blocks[id].Roa;\r\n}\r\n\r\n/*\r\nfunction setRoA(bytes16 ip, bytes ASes) public {\r\n\t\t\t\t\t\r\n\tint id=int(reverseSparse(ip));\r\n\trequire(isPrefixInUse(id));\r\n\trequire(msg.sender==blocks[id].o_addr);\r\n\tblocks[id].Roa=ASes;\r\n}*/\r\n\r\n\r\nevent setRoaEvent(address indexed _from, uint _value, int id);\r\n\r\nfunction setRoAID(int id, bytes ASes) public returns(int ){\r\n\r\n\trequire(isPrefixInUse(id));\r\n\trequire(msg.sender==blocks[id].o_addr);\r\n\tblocks[id].Roa=ASes;\r\n    emit setRoaEvent(msg.sender, msg.value, id);\r\n    return id;\r\n}\r\n\r\nfunction getRoA(int id)view public returns(bytes16,bytes,uint8){\r\n\trequire(isPrefixInUse(id));\r\n\treturn (blocks[id].ip_address,blocks[id].Roa,blocks[id].mask);\r\n}\r\n\r\n\r\n//*****************************************************BLOCKS SETTER*************************************************************\r\n\t\r\nfunction setBlock(bytes16 ip,uint8 mask)internal {\r\n\r\nint id=int(reverseSparse(ip));\r\nblocks[id].ip_address=ip;\r\nblocks[id].o_addr=msg.sender;\r\nblocks[id].mask=mask;\r\nblocks[id].date=now;\r\nblocks[id].ID_delegated=1;\r\nID_Index=ID_Index+1;\r\n}\r\n\r\n\r\n \r\nfunction setBlockExpired(bytes16 ip) internal {\r\n\tint id=int(reverseSparse(ip));\t\r\n\tblocks[id].ip_address=ip;\r\n\tblocks[id].o_addr=msg.sender;\r\n\tblocks[id].mask=allocation_prefix_mask;\r\n\tblocks[id].date=now;\r\n\tblocks[id].Roa=\"\";\r\n\tblocks[id].info.uri=\"\";\r\n\tblocks[id].info.hashFunction=\"\";\r\n\tblocks[id].info.hash=\"\";\r\n\tID_Index=ID_Index+1;\r\n}\r\n\r\n\r\n}//END ",
  "sourcePath": "C:\\Users\\User\\Desktop\\Opt_inblock_code\\InBlock\\contracts\\InBlock_F.sol",
  "compiler": {
    "name": "solc",
    "version": "0.4.25+commit.59dbf8f1.Emscripten.clang"
  },
  "schemaVersion": "2.0.2",
  "updatedAt": "2020-01-31T11:42:30.652Z"
}