{
  "contractName": "InBlock",
  "abi": [
    {
      "constant": true,
      "inputs": [],
      "name": "ID_expired",
      "outputs": [
        {
          "name": "",
          "type": "int256"
        }
      ],
      "payable": false,
      "stateMutability": "view",
      "type": "function"
    },
    {
      "constant": false,
      "inputs": [
        {
          "name": "id",
          "type": "int256"
        }
      ],
      "name": "expire_id",
      "outputs": [
        {
          "name": "",
          "type": "bool"
        }
      ],
      "payable": false,
      "stateMutability": "nonpayable",
      "type": "function"
    },
    {
      "constant": false,
      "inputs": [
        {
          "name": "ip_parent",
          "type": "bytes16"
        },
        {
          "name": "ip",
          "type": "bytes16"
        },
        {
          "name": "mask",
          "type": "uint8"
        },
        {
          "name": "uri",
          "type": "bytes"
        },
        {
          "name": "hashFunction",
          "type": "bytes"
        },
        {
          "name": "hash",
          "type": "bytes"
        }
      ],
      "name": "setDelegatedPrefixPolicyURI",
      "outputs": [],
      "payable": false,
      "stateMutability": "nonpayable",
      "type": "function"
    },
    {
      "constant": false,
      "inputs": [],
      "name": "circuitBreaker",
      "outputs": [],
      "payable": false,
      "stateMutability": "nonpayable",
      "type": "function"
    },
    {
      "constant": true,
      "inputs": [
        {
          "name": "id",
          "type": "int256"
        }
      ],
      "name": "getAddressID",
      "outputs": [
        {
          "name": "ip",
          "type": "bytes16"
        }
      ],
      "payable": false,
      "stateMutability": "view",
      "type": "function"
    },
    {
      "constant": true,
      "inputs": [],
      "name": "allocation_prefix_mask",
      "outputs": [
        {
          "name": "",
          "type": "uint8"
        }
      ],
      "payable": false,
      "stateMutability": "view",
      "type": "function"
    },
    {
      "constant": true,
      "inputs": [],
      "name": "max_allocable_blocks",
      "outputs": [
        {
          "name": "",
          "type": "uint256"
        }
      ],
      "payable": false,
      "stateMutability": "view",
      "type": "function"
    },
    {
      "constant": true,
      "inputs": [
        {
          "name": "ip",
          "type": "bytes16"
        },
        {
          "name": "start",
          "type": "int256"
        },
        {
          "name": "stop",
          "type": "int256"
        }
      ],
      "name": "getIDsDelBlocks",
      "outputs": [
        {
          "name": "result",
          "type": "uint256[]"
        }
      ],
      "payable": false,
      "stateMutability": "view",
      "type": "function"
    },
    {
      "constant": true,
      "inputs": [
        {
          "name": "id",
          "type": "int256"
        }
      ],
      "name": "isAllocatedPrefixExpired",
      "outputs": [
        {
          "name": "",
          "type": "bool"
        }
      ],
      "payable": false,
      "stateMutability": "view",
      "type": "function"
    },
    {
      "constant": true,
      "inputs": [
        {
          "name": "id",
          "type": "int256"
        }
      ],
      "name": "isPrefixInUse",
      "outputs": [
        {
          "name": "",
          "type": "bool"
        }
      ],
      "payable": false,
      "stateMutability": "view",
      "type": "function"
    },
    {
      "constant": false,
      "inputs": [
        {
          "name": "ip",
          "type": "bytes16"
        },
        {
          "name": "ASes",
          "type": "bytes"
        }
      ],
      "name": "setRoA",
      "outputs": [],
      "payable": false,
      "stateMutability": "nonpayable",
      "type": "function"
    },
    {
      "constant": false,
      "inputs": [
        {
          "name": "id",
          "type": "int256"
        },
        {
          "name": "uri",
          "type": "bytes"
        },
        {
          "name": "hashFunction",
          "type": "bytes"
        },
        {
          "name": "hash",
          "type": "bytes"
        }
      ],
      "name": "setPolicyURIiD",
      "outputs": [],
      "payable": false,
      "stateMutability": "nonpayable",
      "type": "function"
    },
    {
      "constant": false,
      "inputs": [
        {
          "name": "_parent_ip",
          "type": "bytes16"
        },
        {
          "name": "del_ip",
          "type": "bytes16"
        },
        {
          "name": "bar",
          "type": "uint8"
        },
        {
          "name": "delegated_address",
          "type": "address"
        }
      ],
      "name": "delegatePrefix",
      "outputs": [],
      "payable": false,
      "stateMutability": "nonpayable",
      "type": "function"
    },
    {
      "constant": true,
      "inputs": [],
      "name": "prefixPrice3",
      "outputs": [
        {
          "name": "",
          "type": "uint256"
        }
      ],
      "payable": false,
      "stateMutability": "view",
      "type": "function"
    },
    {
      "constant": true,
      "inputs": [],
      "name": "getRecovered",
      "outputs": [
        {
          "name": "result",
          "type": "uint256[]"
        }
      ],
      "payable": false,
      "stateMutability": "view",
      "type": "function"
    },
    {
      "constant": true,
      "inputs": [],
      "name": "ID_Index",
      "outputs": [
        {
          "name": "",
          "type": "int256"
        }
      ],
      "payable": false,
      "stateMutability": "view",
      "type": "function"
    },
    {
      "constant": false,
      "inputs": [
        {
          "name": "id",
          "type": "int256"
        }
      ],
      "name": "recoverExpiredBlock",
      "outputs": [],
      "payable": false,
      "stateMutability": "nonpayable",
      "type": "function"
    },
    {
      "constant": true,
      "inputs": [
        {
          "name": "ip_parent",
          "type": "bytes16"
        },
        {
          "name": "ip",
          "type": "bytes16"
        },
        {
          "name": "mask",
          "type": "uint8"
        }
      ],
      "name": "getDelegatedPrefixRoA",
      "outputs": [
        {
          "name": "",
          "type": "bytes"
        }
      ],
      "payable": false,
      "stateMutability": "view",
      "type": "function"
    },
    {
      "constant": false,
      "inputs": [],
      "name": "toggleCircuit",
      "outputs": [],
      "payable": false,
      "stateMutability": "nonpayable",
      "type": "function"
    },
    {
      "constant": false,
      "inputs": [
        {
          "name": "parent_ip",
          "type": "bytes16"
        },
        {
          "name": "del_ip",
          "type": "bytes16"
        },
        {
          "name": "mask",
          "type": "uint8"
        }
      ],
      "name": "revokeDelegatedPrefix",
      "outputs": [],
      "payable": false,
      "stateMutability": "nonpayable",
      "type": "function"
    },
    {
      "constant": false,
      "inputs": [
        {
          "name": "id",
          "type": "int256"
        },
        {
          "name": "ASes",
          "type": "bytes"
        }
      ],
      "name": "setRoAID",
      "outputs": [],
      "payable": false,
      "stateMutability": "nonpayable",
      "type": "function"
    },
    {
      "constant": false,
      "inputs": [
        {
          "name": "ip",
          "type": "bytes16"
        }
      ],
      "name": "sequentialAllocationPrefixRequest",
      "outputs": [
        {
          "name": "",
          "type": "bool"
        }
      ],
      "payable": true,
      "stateMutability": "payable",
      "type": "function"
    },
    {
      "constant": true,
      "inputs": [
        {
          "name": "id",
          "type": "int256"
        }
      ],
      "name": "getItem",
      "outputs": [
        {
          "name": "ip",
          "type": "bytes16"
        },
        {
          "name": "o",
          "type": "address"
        },
        {
          "name": "mask",
          "type": "uint8"
        },
        {
          "name": "_date",
          "type": "uint256"
        },
        {
          "name": "a",
          "type": "bytes"
        },
        {
          "name": "b",
          "type": "bytes"
        },
        {
          "name": "c",
          "type": "bytes"
        },
        {
          "name": "d",
          "type": "bytes"
        }
      ],
      "payable": false,
      "stateMutability": "view",
      "type": "function"
    },
    {
      "constant": true,
      "inputs": [
        {
          "name": "ip",
          "type": "bytes16"
        },
        {
          "name": "ip2",
          "type": "bytes16"
        },
        {
          "name": "_mask",
          "type": "uint8"
        }
      ],
      "name": "del_find",
      "outputs": [
        {
          "name": "",
          "type": "int256"
        }
      ],
      "payable": false,
      "stateMutability": "view",
      "type": "function"
    },
    {
      "constant": true,
      "inputs": [],
      "name": "base_prefix_mask",
      "outputs": [
        {
          "name": "",
          "type": "uint8"
        }
      ],
      "payable": false,
      "stateMutability": "view",
      "type": "function"
    },
    {
      "constant": true,
      "inputs": [],
      "name": "initial_block",
      "outputs": [
        {
          "name": "",
          "type": "bytes16"
        }
      ],
      "payable": false,
      "stateMutability": "view",
      "type": "function"
    },
    {
      "constant": true,
      "inputs": [],
      "name": "stopped",
      "outputs": [
        {
          "name": "",
          "type": "bool"
        }
      ],
      "payable": false,
      "stateMutability": "view",
      "type": "function"
    },
    {
      "constant": true,
      "inputs": [
        {
          "name": "input",
          "type": "bytes16"
        }
      ],
      "name": "reverseSparse",
      "outputs": [
        {
          "name": "num",
          "type": "uint256"
        }
      ],
      "payable": false,
      "stateMutability": "view",
      "type": "function"
    },
    {
      "constant": true,
      "inputs": [],
      "name": "seed",
      "outputs": [
        {
          "name": "",
          "type": "uint256"
        }
      ],
      "payable": false,
      "stateMutability": "view",
      "type": "function"
    },
    {
      "constant": true,
      "inputs": [
        {
          "name": "a",
          "type": "address"
        },
        {
          "name": "start",
          "type": "int256"
        },
        {
          "name": "stop",
          "type": "int256"
        }
      ],
      "name": "getIDsBlocksAddress",
      "outputs": [
        {
          "name": "result",
          "type": "uint256[]"
        }
      ],
      "payable": false,
      "stateMutability": "view",
      "type": "function"
    },
    {
      "constant": false,
      "inputs": [
        {
          "name": "ip",
          "type": "bytes16"
        },
        {
          "name": "uri",
          "type": "bytes"
        },
        {
          "name": "hashFunction",
          "type": "bytes"
        },
        {
          "name": "hash",
          "type": "bytes"
        }
      ],
      "name": "setPolicyURI",
      "outputs": [],
      "payable": false,
      "stateMutability": "nonpayable",
      "type": "function"
    },
    {
      "constant": true,
      "inputs": [
        {
          "name": "ip",
          "type": "bytes16"
        }
      ],
      "name": "isPrefixInUseIP",
      "outputs": [
        {
          "name": "",
          "type": "bool"
        }
      ],
      "payable": false,
      "stateMutability": "view",
      "type": "function"
    },
    {
      "constant": true,
      "inputs": [],
      "name": "askOracleCost",
      "outputs": [
        {
          "name": "",
          "type": "uint256"
        }
      ],
      "payable": false,
      "stateMutability": "view",
      "type": "function"
    },
    {
      "constant": true,
      "inputs": [],
      "name": "owner",
      "outputs": [
        {
          "name": "",
          "type": "address"
        }
      ],
      "payable": false,
      "stateMutability": "view",
      "type": "function"
    },
    {
      "constant": false,
      "inputs": [
        {
          "name": "ip_parent",
          "type": "bytes16"
        },
        {
          "name": "ip",
          "type": "bytes16"
        },
        {
          "name": "mask",
          "type": "uint8"
        },
        {
          "name": "ASes",
          "type": "bytes"
        }
      ],
      "name": "setDelegatedPrefixRoA",
      "outputs": [],
      "payable": false,
      "stateMutability": "nonpayable",
      "type": "function"
    },
    {
      "constant": true,
      "inputs": [
        {
          "name": "ip_parent",
          "type": "bytes16"
        },
        {
          "name": "ip",
          "type": "bytes16"
        },
        {
          "name": "mask",
          "type": "uint8"
        }
      ],
      "name": "getDelegatedPrefixPolicyURI",
      "outputs": [
        {
          "name": "",
          "type": "bytes"
        },
        {
          "name": "",
          "type": "bytes"
        },
        {
          "name": "",
          "type": "bytes"
        }
      ],
      "payable": false,
      "stateMutability": "view",
      "type": "function"
    },
    {
      "constant": true,
      "inputs": [],
      "name": "price",
      "outputs": [
        {
          "name": "",
          "type": "uint256"
        }
      ],
      "payable": false,
      "stateMutability": "view",
      "type": "function"
    },
    {
      "constant": true,
      "inputs": [
        {
          "name": "start",
          "type": "int256"
        },
        {
          "name": "stop",
          "type": "int256"
        }
      ],
      "name": "getIDsPrefixExpired",
      "outputs": [
        {
          "name": "result",
          "type": "uint256[]"
        }
      ],
      "payable": false,
      "stateMutability": "view",
      "type": "function"
    },
    {
      "constant": false,
      "inputs": [
        {
          "name": "id",
          "type": "int256"
        }
      ],
      "name": "prefixRenewID",
      "outputs": [
        {
          "name": "",
          "type": "bool"
        },
        {
          "name": "",
          "type": "uint256"
        }
      ],
      "payable": true,
      "stateMutability": "payable",
      "type": "function"
    },
    {
      "constant": false,
      "inputs": [
        {
          "name": "ip",
          "type": "bytes16"
        }
      ],
      "name": "getPolicyURI",
      "outputs": [
        {
          "name": "",
          "type": "bytes"
        },
        {
          "name": "",
          "type": "bytes"
        },
        {
          "name": "",
          "type": "bytes"
        }
      ],
      "payable": false,
      "stateMutability": "nonpayable",
      "type": "function"
    },
    {
      "constant": false,
      "inputs": [],
      "name": "prefixRequest",
      "outputs": [
        {
          "name": "",
          "type": "bool"
        }
      ],
      "payable": true,
      "stateMutability": "payable",
      "type": "function"
    },
    {
      "constant": true,
      "inputs": [],
      "name": "ID",
      "outputs": [
        {
          "name": "",
          "type": "int256"
        }
      ],
      "payable": false,
      "stateMutability": "view",
      "type": "function"
    },
    {
      "constant": true,
      "inputs": [],
      "name": "dollarsPrice",
      "outputs": [
        {
          "name": "",
          "type": "uint256"
        }
      ],
      "payable": false,
      "stateMutability": "view",
      "type": "function"
    },
    {
      "constant": true,
      "inputs": [],
      "name": "max_del",
      "outputs": [
        {
          "name": "",
          "type": "uint8"
        }
      ],
      "payable": false,
      "stateMutability": "view",
      "type": "function"
    },
    {
      "constant": true,
      "inputs": [
        {
          "name": "id",
          "type": "uint256"
        }
      ],
      "name": "sparse",
      "outputs": [
        {
          "name": "",
          "type": "bytes16"
        }
      ],
      "payable": false,
      "stateMutability": "view",
      "type": "function"
    },
    {
      "constant": true,
      "inputs": [],
      "name": "prefixPrice1",
      "outputs": [
        {
          "name": "",
          "type": "uint256"
        }
      ],
      "payable": false,
      "stateMutability": "view",
      "type": "function"
    },
    {
      "constant": true,
      "inputs": [],
      "name": "prefixPrice2",
      "outputs": [
        {
          "name": "",
          "type": "uint256"
        }
      ],
      "payable": false,
      "stateMutability": "view",
      "type": "function"
    },
    {
      "constant": true,
      "inputs": [
        {
          "name": "ip",
          "type": "bytes16"
        }
      ],
      "name": "getRoA",
      "outputs": [
        {
          "name": "",
          "type": "bytes"
        }
      ],
      "payable": false,
      "stateMutability": "view",
      "type": "function"
    },
    {
      "constant": true,
      "inputs": [
        {
          "name": "id",
          "type": "int256"
        },
        {
          "name": "id2",
          "type": "int256"
        }
      ],
      "name": "getDelBlockID",
      "outputs": [
        {
          "name": "",
          "type": "bytes16"
        },
        {
          "name": "",
          "type": "address"
        },
        {
          "name": "",
          "type": "uint8"
        },
        {
          "name": "",
          "type": "int256"
        },
        {
          "name": "",
          "type": "int256"
        },
        {
          "name": "",
          "type": "int256"
        }
      ],
      "payable": false,
      "stateMutability": "view",
      "type": "function"
    },
    {
      "constant": true,
      "inputs": [],
      "name": "prefixPrice",
      "outputs": [
        {
          "name": "",
          "type": "uint256"
        }
      ],
      "payable": false,
      "stateMutability": "view",
      "type": "function"
    },
    {
      "inputs": [],
      "payable": false,
      "stateMutability": "nonpayable",
      "type": "constructor"
    },
    {
      "anonymous": false,
      "inputs": [
        {
          "indexed": false,
          "name": "text",
          "type": "string"
        }
      ],
      "name": "Log",
      "type": "event"
    },
    {
      "constant": false,
      "inputs": [
        {
          "name": "ip",
          "type": "bytes16"
        },
        {
          "name": "_base_prefix_mask",
          "type": "uint8"
        },
        {
          "name": "_allocation_prefix_mask",
          "type": "uint8"
        },
        {
          "name": "price",
          "type": "uint256"
        }
      ],
      "name": "activateInBlock",
      "outputs": [],
      "payable": false,
      "stateMutability": "nonpayable",
      "type": "function"
    },
    {
      "constant": false,
      "inputs": [],
      "name": "getOracleCurrencyConversion",
      "outputs": [],
      "payable": true,
      "stateMutability": "payable",
      "type": "function"
    },
    {
      "constant": false,
      "inputs": [
        {
          "name": "_myid",
          "type": "bytes32"
        },
        {
          "name": "_result",
          "type": "string"
        }
      ],
      "name": "__callback",
      "outputs": [],
      "payable": false,
      "stateMutability": "nonpayable",
      "type": "function"
    },
    {
      "constant": false,
      "inputs": [
        {
          "name": "myid",
          "type": "bytes32"
        },
        {
          "name": "result",
          "type": "string"
        },
        {
          "name": "proof",
          "type": "bytes"
        }
      ],
      "name": "__callback",
      "outputs": [],
      "payable": false,
      "stateMutability": "nonpayable",
      "type": "function"
    },
    {
      "constant": false,
      "inputs": [],
      "name": "getPrefixCost",
      "outputs": [],
      "payable": false,
      "stateMutability": "nonpayable",
      "type": "function"
    },
    {
      "constant": false,
      "inputs": [
        {
          "name": "new_owner",
          "type": "address"
        }
      ],
      "name": "transferInBlockControl",
      "outputs": [],
      "payable": false,
      "stateMutability": "nonpayable",
      "type": "function"
    },
    {
      "constant": false,
      "inputs": [
        {
          "name": "ip",
          "type": "bytes16"
        },
        {
          "name": "new_owner",
          "type": "address"
        }
      ],
      "name": "transferAllocatedPrefixControl",
      "outputs": [],
      "payable": false,
      "stateMutability": "nonpayable",
      "type": "function"
    },
    {
      "constant": false,
      "inputs": [
        {
          "name": "ip",
          "type": "bytes16"
        },
        {
          "name": "ip2",
          "type": "bytes16"
        },
        {
          "name": "mask",
          "type": "uint8"
        },
        {
          "name": "new_owner",
          "type": "address"
        }
      ],
      "name": "transferDelegatedPrefixControl",
      "outputs": [],
      "payable": false,
      "stateMutability": "nonpayable",
      "type": "function"
    },
    {
      "constant": false,
      "inputs": [],
      "name": "pay",
      "outputs": [],
      "payable": true,
      "stateMutability": "payable",
      "type": "function"
    }
  ],
  "bytecode": "0x608060405234801561001057600080fd5b50600b80546000600c81905560065560a060020a60ff0219600160a060020a03199182163317167401000000000000000000000000000000000000000017909155662aa1efb94e000060035560118054909116731d3b2638a7cc9f2cb3d298a3da7a90b67e5506ed17905569021e19e0c9bab2400000600955615f3f80620000996000396000f3006080604052600436106102a55763ffffffff60e060020a60003504166306cd8b7581146102aa57806308250c51146102d15780630bf59cc1146102db5780630c93e05f1461030757806315ec41e7146103f657806316efd941146104175780631877ef5e1461042c5780631a7f57ad146104615780631b9265b81461048c5780632059b40d146104945780632129b23b146104a9578063233f97561461052157806325b2d85e1461053957806327dc297e146105515780632a238879146105af5780632d993acf146106175780632e53c121146106f157806334725c761461072b57806337c454e91461074057806338bbfa50146107555780633ae5e307146107f15780633b2d563a146108065780633cf4d0391461081e57806349621851146108c15780634be4926f146108d6578063585df8221461090457806361d2f70a146109625780636e53d06514610977578063702335e614610b93578063706c3eae14610bc1578063743d9ff814610bd657806375f12b2114610beb578063778193a114610c005780637d94792a14610c2257806380f90eda14610c37578063872fa4c914610c5e57806389dd402314610d425780638b8f238714610d645780638c2a8c1014610d955780638da5cb5b14610daa578063983abe5a14610ddb5780639c68daeb14610e4e578063a035b1fe14610fc0578063a09cc3ed14610fd5578063ab4a560414610ff0578063aea6197414611016578063af16e99014611038578063b2d3d0b414611066578063b3cea2171461106e578063b5820d7514611083578063b70c546e14611098578063c5ba2bd4146110ad578063d0db65ce146110c2578063ecafa252146110da578063f68d2d5b146110ef578063f9bd3e5214611104578063fced00301461113e578063fe68628314611160578063ff6e3c31146111c3575b600080fd5b3480156102b657600080fd5b506102bf6111d8565b60408051918252519081900360200190f35b6102d96111de565b005b3480156102e757600080fd5b506102f360043561143a565b604080519115158252519081900360200190f35b34801561031357600080fd5b50604080516020601f6064356004818101359283018490048402850184019095528184526102d9946001608060020a03198135811695602480359092169560ff604435169536956084940191819084018382808284375050604080516020601f89358b018035918201839004830284018301909452808352979a99988101979196509182019450925082915084018382808284375050604080516020601f89358b018035918201839004830284018301909452808352979a99988101979196509182019450925082915084018382808284375094975061147e9650505050505050565b34801561040257600080fd5b506102d9600160a060020a0360043516611569565b34801561042357600080fd5b506102d96115a2565b34801561043857600080fd5b506104446004356115d9565b604080516001608060020a03199092168252519081900360200190f35b34801561046d57600080fd5b506104766115f1565b6040805160ff9092168252519081900360200190f35b6102d9611601565b3480156104a057600080fd5b506102bf611603565b3480156104b557600080fd5b506104d16001608060020a031960043516602435604435611609565b60408051602080825283518183015283519192839290830191858101910280838360005b8381101561050d5781810151838201526020016104f5565b505050509050019250505060405180910390f35b34801561052d57600080fd5b506102f36004356116f3565b34801561054557600080fd5b506102f3600435611737565b34801561055d57600080fd5b5060408051602060046024803582810135601f81018590048502860185019096528585526102d99583359536956044949193909101919081908401838280828437509497506117859650505050505050565b3480156105bb57600080fd5b5060408051602060046024803582810135601f81018590048502860185019096528585526102d99583356001608060020a0319169536956044949193909101919081908401838280828437509497506119bb9650505050505050565b34801561062357600080fd5b5060408051602060046024803582810135601f81018590048502860185019096528585526102d995833595369560449491939091019190819084018382808284375050604080516020601f89358b018035918201839004830284018301909452808352979a99988101979196509182019450925082915084018382808284375050604080516020601f89358b018035918201839004830284018301909452808352979a999881019791965091820194509250829150840183828082843750949750611a2d9650505050505050565b3480156106fd57600080fd5b506102d96001608060020a03196004358116906024351660ff60443516600160a060020a0360643516611ab9565b34801561073757600080fd5b506102bf611cc3565b34801561074c57600080fd5b506104d1611cc9565b34801561076157600080fd5b5060408051602060046024803582810135601f81018590048502860185019096528585526102d995833595369560449491939091019190819084018382808284375050604080516020601f89358b018035918201839004830284018301909452808352979a999881019791965091820194509250829150840183828082843750949750611d4e9650505050505050565b3480156107fd57600080fd5b506102bf611d53565b34801561081257600080fd5b506102d9600435611d59565b34801561082a57600080fd5b5061084c6001608060020a03196004358116906024351660ff60443516611e9d565b6040805160208082528351818301528351919283929083019185019080838360005b8381101561088657818101518382015260200161086e565b50505050905090810190601f1680156108b35780820380516001836020036101000a031916815260200191505b509250505060405180910390f35b3480156108cd57600080fd5b506102d9611f9e565b3480156108e257600080fd5b506102d96001608060020a03196004358116906024351660ff60443516611fe7565b34801561091057600080fd5b5060408051602060046024803582810135601f81018590048502860185019096528585526102d99583359536956044949193909101919081908401838280828437509497506124109650505050505050565b6102f36001608060020a03196004351661246f565b34801561098357600080fd5b5061098f60043561275c565b60405180896fffffffffffffffffffffffffffffffff19166fffffffffffffffffffffffffffffffff1916815260200188600160a060020a0316600160a060020a031681526020018760ff1660ff16815260200186815260200180602001806020018060200180602001858103855289818151815260200191508051906020019080838360005b83811015610a2e578181015183820152602001610a16565b50505050905090810190601f168015610a5b5780820380516001836020036101000a031916815260200191505b5085810384528851815288516020918201918a019080838360005b83811015610a8e578181015183820152602001610a76565b50505050905090810190601f168015610abb5780820380516001836020036101000a031916815260200191505b50858103835287518152875160209182019189019080838360005b83811015610aee578181015183820152602001610ad6565b50505050905090810190601f168015610b1b5780820380516001836020036101000a031916815260200191505b50858103825286518152865160209182019188019080838360005b83811015610b4e578181015183820152602001610b36565b50505050905090810190601f168015610b7b5780820380516001836020036101000a031916815260200191505b509c5050505050505050505050505060405180910390f35b348015610b9f57600080fd5b506102bf6001608060020a03196004358116906024351660ff60443516612a15565b348015610bcd57600080fd5b50610476612b7a565b348015610be257600080fd5b50610444612b8a565b348015610bf757600080fd5b506102f3612b96565b348015610c0c57600080fd5b506102bf6001608060020a031960043516612ba6565b348015610c2e57600080fd5b506102bf612dea565b348015610c4357600080fd5b506104d1600160a060020a0360043516602435604435612df0565b348015610c6a57600080fd5b5060408051602060046024803582810135601f81018590048502860185019096528585526102d99583356001608060020a03191695369560449491939091019190819084018382808284375050604080516020601f89358b018035918201839004830284018301909452808352979a99988101979196509182019450925082915084018382808284375050604080516020601f89358b018035918201839004830284018301909452808352979a999881019791965091820194509250829150840183828082843750949750612ead9650505050505050565b348015610d4e57600080fd5b506102f36001608060020a031960043516612f3f565b348015610d7057600080fd5b506102d96001608060020a03196004351660ff60243581169060443516606435612f9e565b348015610da157600080fd5b506102bf613107565b348015610db657600080fd5b50610dbf61310d565b60408051600160a060020a039092168252519081900360200190f35b348015610de757600080fd5b50604080516020601f6064356004818101359283018490048402850184019095528184526102d9946001608060020a03198135811695602480359092169560ff604435169536956084940191819084018382808284375094975061311c9650505050505050565b348015610e5a57600080fd5b50610e7c6001608060020a03196004358116906024351660ff604435166131d7565b60405180806020018060200180602001848103845287818151815260200191508051906020019080838360005b83811015610ec1578181015183820152602001610ea9565b50505050905090810190601f168015610eee5780820380516001836020036101000a031916815260200191505b50848103835286518152865160209182019188019080838360005b83811015610f21578181015183820152602001610f09565b50505050905090810190601f168015610f4e5780820380516001836020036101000a031916815260200191505b50848103825285518152855160209182019187019080838360005b83811015610f81578181015183820152602001610f69565b50505050905090810190601f168015610fae5780820380516001836020036101000a031916815260200191505b50965050505050505060405180910390f35b348015610fcc57600080fd5b506102bf61340f565b348015610fe157600080fd5b506104d1600435602435613415565b610ffb6004356134a4565b60408051921515835260208301919091528051918290030190f35b34801561102257600080fd5b50610e7c6001608060020a031960043516613645565b34801561104457600080fd5b506102d96001608060020a031960043516600160a060020a0360243516613840565b6102f3613941565b34801561107a57600080fd5b506102bf613af3565b34801561108f57600080fd5b506102bf613af9565b3480156110a457600080fd5b506102d9613aff565b3480156110b957600080fd5b50610476613ba8565b3480156110ce57600080fd5b50610444600435613bca565b3480156110e657600080fd5b506102bf613c84565b3480156110fb57600080fd5b506102bf613c8a565b34801561111057600080fd5b506102d96001608060020a03196004358116906024351660ff60443516600160a060020a0360643516613c90565b34801561114a57600080fd5b5061084c6001608060020a031960043516613dc5565b34801561116c57600080fd5b5061117b600435602435613e8b565b604080516001608060020a03199097168752600160a060020a03909516602087015260ff909316858501526060850191909152608084015260a0830152519081900360c00190f35b3480156111cf57600080fd5b506102bf613f07565b60085481565b61129f6040805190810160405280600381526020017f55524c0000000000000000000000000000000000000000000000000000000000815250608060405190810160405280604981526020017f6a736f6e2868747470733a2f2f6d696e2d6170692e63727970746f636f6d706181526020017f72652e636f6d2f646174612f70726963653f6673796d3d455448267473796d7381526020017f3d555344292e5553440000000000000000000000000000000000000000000000815250613f0d565b6016816000191690555061136a6040805190810160405280600381526020017f55524c0000000000000000000000000000000000000000000000000000000000815250608060405190810160405280604c81526020017f6a736f6e2868747470733a2f2f6170692e6b72616b656e2e636f6d2f302f707581526020017f626c69632f5469636b65723f706169723d455448555344292e726573756c742e81526020017f584554485a5553442e632e300000000000000000000000000000000000000000815250613f0d565b601781600019169055506114356040805190810160405280600381526020017f55524c0000000000000000000000000000000000000000000000000000000000815250608060405190810160405280604381526020017f6a736f6e2868747470733a2f2f6170692e636f696e6d61726b65746361702e6381526020017f6f6d2f76312f7469636b65722f657468657265756d2f292e302e70726963655f81526020017f7573640000000000000000000000000000000000000000000000000000000000815250613f0d565b601855565b600081815260106020526040812060020154156114755750600081815260106020526040902060020180546301e1337f190190556001611479565b5060005b919050565b60008061148a88612ba6565b915061149582611737565b15156114a057600080fd5b6114ab888888612a15565b905080600019141580156114c157508060011914155b15156114cc57600080fd5b6000828152601060209081526040808320848452600701825290912086516114fc92600590920191880190615e7b565b5060008281526010602090815260408083208484526007018252909120855161152d92600690920191870190615e7b565b506000828152601060209081526040808320848452600790810183529220855161155e939190910191860190615e7b565b505050505050505050565b600b54600160a060020a0316331461158057600080fd5b600b8054600160a060020a031916600160a060020a0392909216919091179055565b600b54600160a060020a031633146115b957600080fd5b600b805474ff000000000000000000000000000000000000000019169055565b600090815260106020526040902054608060020a0290565b600b5460b060020a900460ff1681565b565b600d5481565b606060008060008061161a88612ba6565b9350611627888888614302565b925082604051908082528060200260200182016040528015611653578160200160208202803883390190505b509450600091508690505b856001018112156116e857600084815260106020908152604080832084845260088101835281842054845260070190915290206001015460a060020a900460ff16156116e057600084815260106020908152604080832084845260080190915290205485518690849081106116cf57fe5b602090810290910101526001909101905b60010161165e565b505050509392505050565b6000818152601060205260408120600201546301e1338001421080159061172a575060008281526010602052604090206002015415155b1561147557506001611479565b6000611742826116f3565b151561175057506001611479565b600082815260106020526040902054608060020a026001608060020a031916151561177d57506000611479565b506001919050565b61178d614396565b600160a060020a031633146117a157600080fd5b601654821415611853577fcf34ef537ac33ee1ac626ca1587a0a7e8e51561e5514f8cb36afa1c5102b3bab816040518080602001828103825283818151815260200191508051906020019080838360005b8381101561180a5781810151838201526020016117f2565b50505050905090810190601f1680156118375780820380516001836020036101000a031916815260200191505b509250505060405180910390a161184f81600261458c565b6000555b601754821415611905577fcf34ef537ac33ee1ac626ca1587a0a7e8e51561e5514f8cb36afa1c5102b3bab816040518080602001828103825283818151815260200191508051906020019080838360005b838110156118bc5781810151838201526020016118a4565b50505050905090810190601f1680156118e95780820380516001836020036101000a031916815260200191505b509250505060405180910390a161190181600261458c565b6001555b6018548214156119b7577fcf34ef537ac33ee1ac626ca1587a0a7e8e51561e5514f8cb36afa1c5102b3bab816040518080602001828103825283818151815260200191508051906020019080838360005b8381101561196e578181015183820152602001611956565b50505050905090810190601f16801561199b5780820380516001836020036101000a031916815260200191505b509250505060405180910390a16119b381600261458c565b6002555b5050565b60006119c683612ba6565b90506119d181611737565b15156119dc57600080fd5b600081815260106020526040902060010154600160a060020a03163314611a0257600080fd5b60008181526010602090815260409091208351611a2792600690920191850190615e7b565b50505050565b611a3684611737565b1515611a4157600080fd5b60008481526010602090815260409091208451611a6692600390920191860190615e7b565b5060008481526010602090815260409091208351611a8c92600490920191850190615e7b565b5060008481526010602090815260409091208251611ab292600590920191840190615e7b565b5050505050565b600b54600090819060a060020a900460ff1615611ad557600080fd5b600b5460ff750100000000000000000000000000000000000000000090910481169085161115611b0457600080fd5b600b54611b1e90879060b060020a900460ff1687876146fe565b1515611b74576040805160e560020a62461bcd02815260206004820152601e60248201527f54686520656e7465726564206970206973206f7574206f662072616e67650000604482015290519081900360640190fd5b611b7d86612ba6565b600081815260106020526040902060010154909250600160a060020a03163314611bf1576040805160e560020a62461bcd02815260206004820152601960248201527f4f7065726174696f6e206e6f7420617574686f72697a65642100000000000000604482015290519081900360640190fd5b611bfc868686614760565b1515611c78576040805160e560020a62461bcd02815260206004820152603360248201527f54686520656e746572656420626c6f636b2069732070617274206f6620616e6f60448201527f74686572206578697374696e6720626c6f636b00000000000000000000000000606482015290519081900360840190fd5b611c83868686612a15565b90508060001914158015611c9957508060011914155b15611caf57611caa86868686614b4f565b611cbb565b611cbb86868686614b4f565b505050505050565b60025481565b60606000806000600854925082604051908082528060200260200182016040528015611cff578160200160208202803883390190505b50935060009150600090505b600854811215611d48576000818152600f60205260409020548451859084908110611d3257fe5b6020908102909101015260019182019101611d0b565b50505090565b505050565b60075481565b600b54600160a060020a03163314611d7057600080fd5b611d79816116f3565b1515611d8457600080fd5b600081815260106020818152604080842080546001608060020a031916815560018101805474ffffffffffffffffffffffffffffffffffffffffff191690556002810185905581518084019283905285815294869052929091529151611df09260039092019190615e7b565b50604080516020818101808452600080845285815260109092529290209051611e1f9260049092019190615e7b565b50604080516020818101808452600080845285815260109092529290209051611e4e9260059092019190615e7b565b50604080516020818101808452600080845285815260109092529290209051611e7d9260069092019190615e7b565b50600880546000908152600f602052604090209190915580546001019055565b6060600080611eab86612ba6565b9150611eb682611737565b1515611ec157600080fd5b611ecc868686612a15565b90508060001914158015611ee257508060011914155b1515611eed57600080fd5b600082815260106020908152604080832084845260070182529182902060080180548351601f600260001961010060018616150201909316929092049182018490048402810184019094528084529091830182828015611f8e5780601f10611f6357610100808354040283529160200191611f8e565b820191906000526020600020905b815481529060010190602001808311611f7157829003601f168201915b5050505050925050509392505050565b600b54600160a060020a03163314611fb557600080fd5b600b805474ff000000000000000000000000000000000000000019811660a060020a9182900460ff1615909102179055565b6000806000806000600b60149054906101000a900460ff161561200957600080fd5b61201288612ba6565b945061201d85611737565b151561202857600080fd5b600085815260106020526040902060010154600160a060020a03163314612099576040805160e560020a62461bcd02815260206004820152601a60248201527f4f7065726174696f6e206e6f7420417574686f72697a65642121000000000000604482015290519081900360640190fd5b6120a4888888612a15565b935083600019141580156120ba57508360011914155b15156120c557600080fd5b600085815260106020908152604080832087845260070180835281842080546001608060020a031916815560018101805474ffffffffffffffffffffffffffffffffffffffffff1916905582518085019384905285815294899052925291516121349260089092019190615e7b565b50604080516020818101808452600080845289815260108352848120898252600701909252929020905161216e9260059092019190615e7b565b5060408051602081810180845260008084528981526010835284812089825260070190925292902090516121a89260069092019190615e7b565b5060408051602081810180845260008084528981526010835284812089825260079081019093529390932091516121e493929091019190615e7b565b50839250839150600090505b600b54600160ff60b060020a909204821688030116811215612406576000858152601060209081526040808320868452600701909152902060020154929150612240876080889003839003615757565b151561233f576000858152601060209081526040808320868452600701909152902060040154156122d55760008581526010602090815260408083208684526007019091528082206004015482529020546122a090608060020a02615780565b156122d0576000858152601060209081526040808320868452600701909152902080546001608060020a03191690555b61233a565b600085815260106020908152604080832086845260070190915280822060030154825290205461230a90608060020a02615780565b1561233a576000858152601060209081526040808320868452600701909152902080546001608060020a03191690555b6123fe565b60008581526010602090815260408083208684526007019091529020600301541561239957600085815260106020908152604080832086845260070190915280822060030154825290205461230a90608060020a02615780565b60008581526010602090815260408083208684526007019091528082206004015482529020546123ce90608060020a02615780565b156123fe576000858152601060209081526040808320868452600701909152902080546001608060020a03191690555b6001016121f0565b5050505050505050565b61241982611737565b151561242457600080fd5b600082815260106020526040902060010154600160a060020a0316331461244a57600080fd5b60008281526010602090815260409091208251611d4e92600690920191840190615e7b565b600080600080600b60149054906101000a900460ff161561248f57600080fd5b600d546007541261249f57600080fd5b346672a57c275dc800600954031115806124c457506009546672a57c275dc800013411155b151561251a576040805160e560020a62461bcd02815260206004820152600b60248201527f5072696365206572726f72000000000000000000000000000000000000000000604482015290519081900360640190fd5b61252385612ba6565b925061252e83611737565b151561253957600080fd5b600083815260106020526040902060010154600160a060020a031633146125aa576040805160e560020a62461bcd02815260206004820152601660248201527f596f7520617265206e6f7420417574686f72697a656400000000000000000000604482015290519081900360640190fd5b600b546125c590869060b060020a900460ff16608003615757565b15156125ed57600b546125e690869060b060020a900460ff166080036157ca565b94506126ca565b600b5461260890869060b060020a900460ff166080036157e6565b9450600191505b600a54600b5460ff608060020a909204821660b060020a909104821603811690831610156126ca576126558583600b60169054906101000a900460ff1603608003615757565b15612685576126788583600b60169054906101000a900460ff16036080036157e6565b94506001909101906126c5565b6126a38583600b60169054906101000a900460ff16036080036157ca565b600a54600b5491965060ff608060020a909104811660b060020a909204160391505b61260f565b6126d385612ba6565b600081815260106020526040902054909150608060020a026001608060020a031916156126ff57600080fd5b600b5461271790869060b060020a900460ff1661580d565b600b54604051600160a060020a03909116903480156108fc02916000818181858888f19350505050158015612750573d6000803e3d6000fd5b50600195945050505050565b60008181526010602090815260409182902080546001808301546002808501546003909501805488516101009582161595909502600019011691909104601f8101879004870284018701909752868352608060020a90930295600160a060020a0382169560a060020a90920460ff169493606093849384938493918301828280156128285780601f106127fd57610100808354040283529160200191612828565b820191906000526020600020905b81548152906001019060200180831161280b57829003601f168201915b50505060008c8152601060209081526040918290206005018054835160026001831615610100026000190190921691909104601f810184900484028201840190945283815295995093509091508301828280156128c65780601f1061289b576101008083540402835291602001916128c6565b820191906000526020600020905b8154815290600101906020018083116128a957829003601f168201915b50505060008c8152601060209081526040918290206004018054835160026001831615610100026000190190921691909104601f810184900484028201840190945283815295985093509091508301828280156129645780601f1061293957610100808354040283529160200191612964565b820191906000526020600020905b81548152906001019060200180831161294757829003601f168201915b50505060008c8152601060209081526040918290206006018054835160026001831615610100026000190190921691909104601f81018490048402820184019094528381529597509350909150830182828015612a025780601f106129d757610100808354040283529160200191612a02565b820191906000526020600020905b8154815290600101906020018083116129e557829003601f168201915b5093945050505050919395975091939597565b6000806000806000612a2688612ba6565b9350612a3184611737565b1515612a415760001994506116e8565b5060009150819050805b600b54600160ff60b060020a909204821688030116821215612b625760008481526010602090815260408083208684526007019091529020546001608060020a0319888116608060020a90920216148015612ad15750600084815260106020908152604080832086845260070190915290206001015460ff87811660a060020a90920416145b15612ae257600190508294506116e8565b612b038783600b60169054906101000a900460ff1601600101608003615757565b1515612b3257600084815260106020908152604080832095835260079095019052929092206003015491612b57565b6000848152601060209081526040808320958352600790950190529290922060040154915b816001019150612a4b565b8015612b70578294506116e8565b60011994506116e8565b600a54608060020a900460ff1681565b600a54608060020a0281565b600b5460a060020a900460ff1681565b600080808080808080808080805b600a54600160ff608060020a90920482160181169083161015612bfe57612bde8d83608003615757565b15612bf357612bf08d836080036157e6565b9c505b600190910190612bb4565b5060005b600a54600b5460ff608060020a909204821660b060020a90910482160381169082161015612d9c57612c4b8d82600a60109054906101000a900460ff1660010101608003615757565b15612d80578060ff16600011158015612c68575060038160ff1611155b15612c76578260020a8b019a505b8060ff16600411158015612c8e575060078160ff1611155b15612c9c578260020a8a0199505b8060ff16600811158015612cb45750600b8160ff1611155b15612cc2578260020a890198505b8060ff16600c11158015612cda5750600f8160ff1611155b15612ce8578260020a880197505b8060ff16601011158015612d00575060138160ff1611155b15612d0e578260020a870196505b8060ff16601411158015612d26575060178160ff1611155b15612d34578260020a860195505b8060ff16601811158015612d4c5750601b8160ff1611155b15612d5a578260020a850194505b8060ff16601c11158015612d725750601f8160ff1611155b15612d80578260020a840193505b8260010192508260041415612d9457600092505b600101612c02565b50506001631000000090920263010000009093026210000090940262010000909502611000909602610100909702601090980298909801969096019490940192909201010101019392505050565b600c5481565b60606000806000612e0287878761589d565b925082604051908082528060200260200182016040528015612e2e578160200160208202803883390190505b509350600091508590505b84600101811215612ea357600081815260106020526040902060010154600160a060020a038881169116148015612e765750612e74816116f3565b155b15612e9b57808483815181101515612e8a57fe5b602090810290910101526001909101905b600101612e39565b5050509392505050565b6000612eb885612ba6565b9050612ec381611737565b1515612ece57600080fd5b60008181526010602090815260409091208551612ef392600390920191870190615e7b565b5060008181526010602090815260409091208451612f1992600490920191860190615e7b565b5060008181526010602090815260409091208351611cbb92600590920191850190615e7b565b600080612f4b83612ba6565b9050612f56816116f3565b1515612f655760019150612f98565b600081815260106020526040902054608060020a026001608060020a0319161515612f935760009150612f98565b600191505b50919050565b600b54600160a060020a03163314612fb557600080fd5b600a8054600b805460ff878703811660020a600d556001600655600080805260106020527f6e0956cda88cad152e89927e53611735b61a5c762d1428573c6931b0a5efcb0180546001608060020a0319908116608060020a9c8d90049081179092557f6e0956cda88cad152e89927e53611735b61a5c762d1428573c6931b0a5efcb02805433600160a060020a03199091161774ff00000000000000000000000000000000000000001990811670ff00000000000000000000000000000000199099169c86168e029c909c179c8d04851660a060020a02979097179096559990941690981790935560079190915560059290925576ff00000000000000000000000000000000000000000000191660b060020a94909216939093021775ff0000000000000000000000000000000000000000001916753000000000000000000000000000000000000000000017169055565b60035481565b600b54600160a060020a031681565b60008061312886612ba6565b915061313382611737565b151561313e57600080fd5b613149868686612a15565b9050806000191415801561315f57508060011914155b151561316a57600080fd5b6000828152601060209081526040808320848452600701909152902060010154600160a060020a0316331461319e57600080fd5b6000828152601060209081526040808320848452600701825290912084516131ce92600890920191860190615e7b565b50505050505050565b60608060606000806131e888612ba6565b91506131f382611737565b15156131fe57600080fd5b613209888888612a15565b9050806000191415801561321f57508060011914155b151561322a57600080fd5b60008281526010602090815260408083208484526007908101835292819020600581018054835160026001831615610100026000190190921691909104601f8101869004860282018601909452838152909482019360069092019290918591908301828280156132db5780601f106132b0576101008083540402835291602001916132db565b820191906000526020600020905b8154815290600101906020018083116132be57829003601f168201915b5050855460408051602060026001851615610100026000190190941693909304601f8101849004840282018401909252818152959850879450925084019050828280156133695780601f1061333e57610100808354040283529160200191613369565b820191906000526020600020905b81548152906001019060200180831161334c57829003601f168201915b5050845460408051602060026001851615610100026000190190941693909304601f8101849004840282018401909252818152959750869450925084019050828280156133f75780601f106133cc576101008083540402835291602001916133f7565b820191906000526020600020905b8154815290600101906020018083116133da57829003601f168201915b50505050509050945094509450505093509350939050565b60045481565b6060600080600061342686866158fc565b925082604051908082528060200260200182016040528015613452578160200160208202803883390190505b509350600091508590505b8481121561349b5761346e816116f3565b156134935780848381518110151561348257fe5b602090810290910101526001909101905b60010161345d565b50505092915050565b6000806000600b60149054906101000a900460ff16156134c357600080fd5b600954341461351c576040805160e560020a62461bcd02815260206004820152600c60248201527f5072696365204572726f722e0000000000000000000000000000000000000000604482015290519081900360640190fd5b61352584611737565b151561353057600080fd5b600084815260106020526040902060010154600160a060020a031633146135c7576040805160e560020a62461bcd02815260206004820152602260248201527f596f7520617265206e6f7420746865206f776e6572206f662074686520626c6f60448201527f636b000000000000000000000000000000000000000000000000000000000000606482015290519081900360840190fd5b50600083815260106020526040808220600201805442908190039081016301e13380908101909255600b549251910192600160a060020a03909216913480156108fc02929091818181858888f1935050505015801561362a573d6000803e3d6000fd5b50505060009182525060106020526040902060020154600191565b6060806060600061365585612ba6565b905061366081611737565b151561366b57600080fd5b600081815260106020908152604091829020600381018054845160026001831615610100026000190190921691909104601f81018590048502820185019095528481529093600483019360059093019285919083018282801561370f5780601f106136e45761010080835404028352916020019161370f565b820191906000526020600020905b8154815290600101906020018083116136f257829003601f168201915b5050855460408051602060026001851615610100026000190190941693909304601f81018490048402820184019092528181529598508794509250840190508282801561379d5780601f106137725761010080835404028352916020019161379d565b820191906000526020600020905b81548152906001019060200180831161378057829003601f168201915b5050845460408051602060026001851615610100026000190190941693909304601f81018490048402820184019092528181529597508694509250840190508282801561382b5780601f106138005761010080835404028352916020019161382b565b820191906000526020600020905b81548152906001019060200180831161380e57829003601f168201915b50505050509050935093509350509193909250565b600061384b83612ba6565b600081815260106020526040902054909150608060020a026001608060020a031916151561387857600080fd5b600081815260106020526040902060010154600160a060020a0316331461390f576040805160e560020a62461bcd02815260206004820152602260248201527f596f7520617265206e6f7420746865206f776e6572206f662074686520626c6f60448201527f636b000000000000000000000000000000000000000000000000000000000000606482015290519081900360840190fd5b60009081526010602052604090206001018054600160a060020a031916600160a060020a039290921691909117905550565b600080600080600080346672a57c275dc8006009540311158061396f57506009546672a57c275dc800013411155b15156139c5576040805160e560020a62461bcd02815260206004820152600b60248201527f5072696365206572726f72000000000000000000000000000000000000000000604482015290519081900360640190fd5b600094505b8415156102a557600d546007541415613a385760085415156139eb57600080fd5b600854600019016000908152600f6020908152604080832054808452601090925290912054909450608060020a029250613a248361592e565b613a2c615a72565b60019450849550613aeb565b613a43600c54613bca565b9150613a4e82612ba6565b600081815260106020526040902054909150608060020a026001608060020a0319161515613add57600b54613a8e90839060b060020a900460ff1661580d565b600c80546001019055600b54604051600160a060020a03909116903480156108fc02916000818181858888f19350505050158015613ad0573d6000803e3d6000fd5b5060019450849550613aeb565b600c805460010190556139ca565b505050505090565b60065481565b60055481565b600154600054118015613b155750600254600054115b80613b315750600154600054108015613b315750600254600054105b15613b8457600054600154118015613b4c5750600254600154115b80613b685750600054600154108015613b685750600254600154105b15613b7857600254600455613b7f565b6001546004555b613b8b565b6000546004555b613b9b6005546004546005615a8f565b6509184e72a00002600955565b600b547501000000000000000000000000000000000000000000900460ff1681565b600a54600090608060020a02816002840615613c0257613bff82600a60109054906101000a900460ff166001016080036157ca565b91505b5060015b600a54600b5460ff608060020a909204821660b060020a90910482160381169082161015613c7d5760028160ff1660020a85811515613c4157fe5b04811515613c4b57fe5b0615613c7557613c728282600a60109054906101000a900460ff16600101016080036157ca565b91505b600101613c06565b5092915050565b60005481565b60015481565b600080613c9c86612ba6565b9150613ca782611737565b15613cb157600080fd5b613cbc868686612a15565b90508060001914158015613cd257508060011914155b1515613cdd57600080fd5b6000828152601060209081526040808320848452600701909152902060010154600160a060020a03163314613d82576040805160e560020a62461bcd02815260206004820152602260248201527f596f7520617265206e6f7420746865206f776e6572206f662074686520626c6f60448201527f636b000000000000000000000000000000000000000000000000000000000000606482015290519081900360840190fd5b60009182526010602090815260408084209284526007909201905290206001018054600160a060020a031916600160a060020a0392909216919091179055505050565b60606000613dd283612ba6565b9050613ddd81611737565b1515613de857600080fd5b60008181526010602090815260409182902060060180548351601f600260001961010060018616150201909316929092049182018490048402810184019094528084529091830182828015613e7e5780601f10613e5357610100808354040283529160200191613e7e565b820191906000526020600020905b815481529060010190602001808311613e6157829003601f168201915b5050505050915050919050565b600080600080600080613e9d886116f3565b15613ea757600080fd5b50505060009485525050601060209081526040808520938552600790930190525090208054600182015460028301546003840154600490940154608060020a90930294600160a060020a0383169460a060020a90930460ff169391929190565b60095481565b6011546000908190600160a060020a03161580613f3c5750601154613f3a90600160a060020a0316615ac4565b155b15613f4d57613f4b6000615ac8565b505b601160009054906101000a9004600160a060020a0316600160a060020a03166338cc48316040518163ffffffff1660e060020a028152600401602060405180830381600087803b158015613fa057600080fd5b505af1158015613fb4573d6000803e3d6000fd5b505050506040513d6020811015613fca57600080fd5b5051601254600160a060020a0390811691161461408057601160009054906101000a9004600160a060020a0316600160a060020a03166338cc48316040518163ffffffff1660e060020a028152600401602060405180830381600087803b15801561403457600080fd5b505af1158015614048573d6000803e3d6000fd5b505050506040513d602081101561405e57600080fd5b505160128054600160a060020a031916600160a060020a039092169190911790555b6012546040517f524f3889000000000000000000000000000000000000000000000000000000008152602060048201818152875160248401528751600160a060020a039094169363524f388993899383926044909201919085019080838360005b838110156140f95781810151838201526020016140e1565b50505050905090810190601f1680156141265780820380516001836020036101000a031916815260200191505b5092505050602060405180830381600087803b15801561414557600080fd5b505af1158015614159573d6000803e3d6000fd5b505050506040513d602081101561416f57600080fd5b50519050670de0b6b3a764000062030d403a02018111156141935760009150613c7d565b6012546040517fadf59f99000000000000000000000000000000000000000000000000000000008152600060048201818152606060248401908152885160648501528851600160a060020a039095169463adf59f99948794938b938b939192909160448201916084019060208701908083838b5b8381101561421f578181015183820152602001614207565b50505050905090810190601f16801561424c5780820380516001836020036101000a031916815260200191505b50838103825284518152845160209182019186019080838360005b8381101561427f578181015183820152602001614267565b50505050905090810190601f1680156142ac5780820380516001836020036101000a031916815260200191505b50955050505050506020604051808303818588803b1580156142cd57600080fd5b505af11580156142e1573d6000803e3d6000fd5b50505050506040513d60208110156142f857600080fd5b5051949350505050565b60008060008060008061431489612ba6565b9450600093508792505b8660010183121561438957505060008381526010602090815260408083208484526008810183528184205480855260079091019092529091208054600190910154608060020a9091029060a060020a900460ff161561437e578360010193505b60019092019161431e565b5091979650505050505050565b601154600090600160a060020a031615806143c357506011546143c190600160a060020a0316615ac4565b155b156143d4576143d26000615ac8565b505b601160009054906101000a9004600160a060020a0316600160a060020a03166338cc48316040518163ffffffff1660e060020a028152600401602060405180830381600087803b15801561442757600080fd5b505af115801561443b573d6000803e3d6000fd5b505050506040513d602081101561445157600080fd5b5051601254600160a060020a0390811691161461450757601160009054906101000a9004600160a060020a0316600160a060020a03166338cc48316040518163ffffffff1660e060020a028152600401602060405180830381600087803b1580156144bb57600080fd5b505af11580156144cf573d6000803e3d6000fd5b505050506040513d60208110156144e557600080fd5b505160128054600160a060020a031916600160a060020a039092169190911790555b601260009054906101000a9004600160a060020a0316600160a060020a031663c281d19e6040518163ffffffff1660e060020a028152600401602060405180830381600087803b15801561455a57600080fd5b505af115801561456e573d6000803e3d6000fd5b505050506040513d602081101561458457600080fd5b505190505b90565b6000828180805b83518110156146e15783517f3000000000000000000000000000000000000000000000000000000000000000908590839081106145cc57fe5b90602001015160f860020a900460f860020a02600160f860020a03191610158015614642575083517f39000000000000000000000000000000000000000000000000000000000000009085908390811061462257fe5b90602001015160f860020a900460f860020a02600160f860020a03191611155b1561469b57811561466157851515614659576146e1565b600019909501945b600a830292506030848281518110151561467757fe5b90602001015160f860020a900460f860020a0260f860020a900403830192506146d9565b83818151811015156146a957fe5b90602001015160f860020a900460f860020a02600160f860020a031916602e60f860020a0214156146d957600191505b600101614593565b60008611156146f35785600a0a830292505b509095945050505050565b6000806000614710878760ff16615dea565b915061471f858760ff16615dea565b90506001608060020a031982811690821614801561474357508360ff168660ff1611155b156147515760019250614756565b600092505b5050949350505050565b60008060008060008060006147748a612ba6565b955061477f86611737565b151561478a57600080fd5b5060009350839250829150819050805b600b54600160ff60b060020a8304811675010000000000000000000000000000000000000000009093048116929092030116831280156147d8575081155b15614b2e576147fe8984600b60169054906101000a900460ff1601600101608003615757565b151561499657600b54939450849360ff60b060020a90910481168903600101168314156148d557600086815260106020908152604080832088845260070190915290205461485190608060020a02615780565b158061488f5750600086815260106020908152604080832088845260070190915280822060030154825290205461488d90608060020a02615780565b155b806148cc575060008681526010602090815260408083208884526007019091528082206004015482529020546148ca90608060020a02615780565b155b156148d5575060015b600086815260106020908152604080832088845260070190915290205461490190608060020a02615780565b1580156149365750600086815260106020908152604080832088845260070190915290206001015460a060020a900460ff1615155b1561493f575060015b6000868152601060209081526040808320888452600701909152902060030154151561496e5760019150614991565b600086815260106020908152604080832088845260070190915290206003015493505b614b23565b600b54939450849360ff60b060020a9091048116890360010116831415614a675760008681526010602090815260408083208884526007019091529020546149e390608060020a02615780565b1580614a2157506000868152601060209081526040808320888452600701909152808220600301548252902054614a1f90608060020a02615780565b155b80614a5e57506000868152601060209081526040808320888452600701909152808220600401548252902054614a5c90608060020a02615780565b155b15614a67575060015b6000868152601060209081526040808320888452600701909152902054614a9390608060020a02615780565b158015614ac85750600086815260106020908152604080832088845260070190915290206001015460a060020a900460ff1615155b15614ad1575060015b60008681526010602090815260408083208884526007019091529020600401541515614b005760019150614b23565b600086815260106020908152604080832088845260070190915290206004015493505b82600101925061479a565b8015614b3d5760009650614b42565b600196505b5050505050509392505050565b600080600080600080614b618a612ba6565b9550614b6c86611737565b1515614b7757600080fd5b600086815260106020526040902060010154600160a060020a03163314614b9d57600080fd5b6000945060009350600092505b600b5460001960ff60b060020a90920482168a030116831215614e4657600b54614be7908a90600160ff60b060020a909204821687010116615dea565b9150614c0a8984600b60169054906101000a900460ff1601600101608003615757565b1515614d2857600086815260106020908152604080832087845260070190915290206003015493945084931515614c9c576000868152601060208181526040808420600a810180548b87526007909201845282862080546001608060020a031916608060020a8a041781556003018290558186529185206002018a9055938a9052919052805460010190559350614d23565b6000868152601060209081526040808320878452600701909152902054614cc890608060020a02615780565b15614d00576000868152601060209081526040808320878452600701909152902080546001608060020a031916608060020a84041790555b600086815260106020908152604080832088845260070190915290206003015493505b614e3b565b600086815260106020908152604080832087845260070190915290206004015493945084931515614db4576000868152601060208181526040808420600a810180548b87526007909201845282862080546001608060020a031916608060020a8a041781556004018290558186529185206002018a9055938a9052919052805460010190559350614e3b565b6000868152601060209081526040808320878452600701909152902054614de090608060020a02615780565b15614e18576000868152601060209081526040808320878452600701909152902080546001608060020a031916608060020a84041790555b600086815260106020908152604080832088845260070190915290206004015493505b826001019250614baa565b614e538989608003615757565b15156152e757614e66898960ff16615dea565b6000878152601060209081526040808320600981015484526008810183528184208985526007909101909252909120600301549596508695919350915015156151135760008681526010602090815260408083208884526007019091529020600401541515614f02576000868152601060209081526040808320888452600701909152902080546001608060020a031916608060020a84041790555b60106000878152602001908152602001600020600a015493508360106000888152602001908152602001600020600701600087815260200190815260200160002060030181905550846010600088815260200190815260200160002060070160008681526020019081526020016000206002018190555060106000878152602001908152602001600020600a015460010160106000888152602001908152602001600020600a01819055508860106000888152602001908152602001600020600701600086815260200190815260200160002060000160006101000a8154816fffffffffffffffffffffffffffffffff0219169083608060020a900402179055508660106000888152602001908152602001600020600701600086815260200190815260200160002060010160006101000a815481600160a060020a030219169083600160a060020a031602179055508760106000888152602001908152602001600020600701600086815260200190815260200160002060010160146101000a81548160ff021916908360ff16021790555083601060008881526020019081526020016000206008016000601060008a815260200190815260200160002060090154815260200190815260200160002060000181905550601060008781526020019081526020016000206009015460010160106000888152602001908152602001600020600901819055506152e2565b600086815260106020908152604080832088845260070190915290206003810154905490945061514890608060020a02615780565b15615180576000868152601060209081526040808320888452600701909152902080546001608060020a031916608060020a84041790555b8860106000888152602001908152602001600020600701600086815260200190815260200160002060000160006101000a8154816fffffffffffffffffffffffffffffffff0219169083608060020a900402179055508660106000888152602001908152602001600020600701600086815260200190815260200160002060010160006101000a815481600160a060020a030219169083600160a060020a031602179055508760106000888152602001908152602001600020600701600086815260200190815260200160002060010160146101000a81548160ff021916908360ff16021790555083601060008881526020019081526020016000206008016000601060008a815260200190815260200160002060090154815260200190815260200160002060000181905550601060008781526020019081526020016000206009015460010160106000888152602001908152602001600020600901819055505b61574b565b60008681526010602090815260408083208784526007019091529020600401549394508493151561557c576000868152601060209081526040808320888452600701909152902060030154151561536b576000868152601060209081526040808320888452600701909152902080546001608060020a031916608060020a84041790555b60106000878152602001908152602001600020600a015493508360106000888152602001908152602001600020600701600087815260200190815260200160002060040181905550846010600088815260200190815260200160002060070160008681526020019081526020016000206002018190555060106000878152602001908152602001600020600a015460010160106000888152602001908152602001600020600a01819055508860106000888152602001908152602001600020600701600086815260200190815260200160002060000160006101000a8154816fffffffffffffffffffffffffffffffff0219169083608060020a900402179055508660106000888152602001908152602001600020600701600086815260200190815260200160002060010160006101000a815481600160a060020a030219169083600160a060020a031602179055508760106000888152602001908152602001600020600701600086815260200190815260200160002060010160146101000a81548160ff021916908360ff16021790555083601060008881526020019081526020016000206008016000601060008a8152602001908152602001600020600901548152602001908152602001600020600001819055506010600087815260200190815260200160002060090154600101601060008881526020019081526020016000206009018190555061574b565b60008681526010602090815260408083208884526007019091529020600481015490549094506155b190608060020a02615780565b156155e9576000868152601060209081526040808320888452600701909152902080546001608060020a031916608060020a84041790555b8860106000888152602001908152602001600020600701600086815260200190815260200160002060000160006101000a8154816fffffffffffffffffffffffffffffffff0219169083608060020a900402179055508660106000888152602001908152602001600020600701600086815260200190815260200160002060010160006101000a815481600160a060020a030219169083600160a060020a031602179055508760106000888152602001908152602001600020600701600086815260200190815260200160002060010160146101000a81548160ff021916908360ff16021790555083601060008881526020019081526020016000206008016000601060008a815260200190815260200160002060090154815260200190815260200160002060000181905550601060008781526020019081526020016000206009015460010160106000888152602001908152602001600020600901819055505b50505050505050505050565b600061576a608060020a60ff8416615e27565b929092166001608060020a031916151592915050565b6000805b6010811015612f935782816010811061579957fe5b1a60f860020a02600160f860020a031916600060f860020a021415156157c25760009150612f98565b600101615784565b60006157dd608060020a60ff8416615e27565b90921792915050565b6000806158026157fd608060020a60ff8616615e27565b615e4a565b939093169392505050565b600061581883612ba6565b600090815260106020526040902080546001608060020a031916608060020a909404939093178355506001808301805433600160a060020a03199091161774ff0000000000000000000000000000000000000000191660a060020a60ff949094169390930292909217909155426002830155600a909101819055600780549091019055565b600080835b836001018112156158f357600081815260106020526040902060010154600160a060020a0387811691161480156158df57506158dd816116f3565b155b156158eb578160010191505b6001016158a2565b50949350505050565b600080835b8381121561592657615912816116f3565b1561591e578160010191505b600101615901565b509392505050565b600061593982612ba6565b600081815260106020818152604080842080546001608060020a031916608060020a890417815560018101805433600160a060020a031990911617808255600b5474ff00000000000000000000000000000000000000001990911660b060020a90910460ff1660a060020a02179055426002820155815180840192839052858152948690529290915291519293506159d79260069091019190615e7b565b50604080516020818101808452600080845285815260109092529290209051615a069260039092019190615e7b565b50604080516020818101808452600080845285815260109092529290209051615a359260049092019190615e7b565b50604080516020818101808452600080845285815260109092529290209051615a649260059092019190615e7b565b505060078054600101905550565b600880546000908152600f60205260408120558054600019019055565b600080600083600101600a0a86029150600a8583811515615aac57fe5b04600501811515615ab957fe5b049695505050505050565b3b90565b600080615ae8731d3b2638a7cc9f2cb3d298a3da7a90b67e5506ed615ac4565b1115615b595760118054600160a060020a031916731d3b2638a7cc9f2cb3d298a3da7a90b67e5506ed17905560408051808201909152600b81527f6574685f6d61696e6e65740000000000000000000000000000000000000000006020820152615b5190615e5c565b506001611479565b6000615b7873c03a2615d5efaf5f49f60b7bb6583eaec212fdf1615ac4565b1115615be15760118054600160a060020a03191673c03a2615d5efaf5f49f60b7bb6583eaec212fdf117905560408051808201909152600c81527f6574685f726f707374656e3300000000000000000000000000000000000000006020820152615b5190615e5c565b6000615c0073b7a07bcf2ba2f2703b24c0691b5278999c59ac7e615ac4565b1115615c695760118054600160a060020a03191673b7a07bcf2ba2f2703b24c0691b5278999c59ac7e17905560408051808201909152600981527f6574685f6b6f76616e00000000000000000000000000000000000000000000006020820152615b5190615e5c565b6000615c8873146500cfd35b22e4a392fe0adc06de1a1368ed48615ac4565b1115615cf15760118054600160a060020a03191673146500cfd35b22e4a392fe0adc06de1a1368ed4817905560408051808201909152600b81527f6574685f72696e6b6562790000000000000000000000000000000000000000006020820152615b5190615e5c565b6000615d10736f485c8bf6fc43ea212e93bbf8ce046c7f1cb475615ac4565b1115615d44575060118054600160a060020a031916736f485c8bf6fc43ea212e93bbf8ce046c7f1cb4751790556001611479565b6000615d637320e12a1f859b3feae5fb2a0a32c18f5a65555bbf615ac4565b1115615d97575060118054600160a060020a0319167320e12a1f859b3feae5fb2a0a32c18f5a65555bbf1790556001611479565b6000615db67351efaf4c8b3c9afbd5ab9f4bbc82784ab6ef8faa615ac4565b1115611475575060118054600160a060020a0319167351efaf4c8b3c9afbd5ab9f4bbc82784ab6ef8faa1790556001611479565b6000608060020a6000196fffffffffffffffffffffffffffffffff841660020a010281615e1b826080869003615e27565b94909416949350505050565b6fffffffffffffffffffffffffffffffff1660020a608060020a91829004020290565b6000615e54615e6f565b909118919050565b80516119b7906013906020840190615e7b565b6001608060020a031990565b828054600181600116156101000203166002900490600052602060002090601f016020900481019282601f10615ebc57805160ff1916838001178555615ee9565b82800160010185558215615ee9579182015b82811115615ee9578251825591602001919060010190615ece565b50615ef5929150615ef9565b5090565b61458991905b80821115615ef55760008155600101615eff5600a165627a7a7230582026224d05d048a4ce9461171d5b960e531fad02f34d138617a8d3f7b3623757ea0029",
  "source": "pragma solidity ^0.4.24;\r\n\r\nimport \"./InBlock_F.sol\";\r\nimport \"./InBlock_F_del.sol\";\r\nimport \"./usingOraclize.sol\";\r\n\r\ncontract InBlock is InBlock_F, InBlock_F_del, usingOraclize{\r\n\r\n\r\n//******************************************************* FUNCTIONS TO BE CALLED TO INITIALIZE THE CONTRACT *******************************************************\r\n\r\n//Constructor\r\n\r\nconstructor() public{\r\n\towner=msg.sender;  \r\n\tseed=0;\r\n\tID=0;\r\n\tstopped=true; \r\n\taskOracleCost=12000000000000000;\r\n\t//OAR = OraclizeAddrResolverI(0x6f485C8BF6fc43eA212E93BBF8ce046C7f1cb475); //Testrpc\r\n\t//OAR = OraclizeAddrResolverI(0xc03A2615D5efaf5F49F60B7BB6583eaec212fdf1); //Ropsten\r\n\tOAR = OraclizeAddrResolverI(0x1d3B2638a7cC9f2CB3D298A3DA7a90B67E5506ed);\t//mainnnet\r\n\tprefixPrice=10000000000000000000000; //SECURITY UTILITY. EVERYONE HAS TO ASK FOR THE RIGHT PRICE FIRST. \r\n  }\r\n\r\n\r\n//To Set the Initial Block  \r\n function activateInBlock(bytes16 ip,uint8 _base_prefix_mask, uint8 _allocation_prefix_mask, uint price) onlyOwner() public {\r\n\tbase_prefix_mask=_base_prefix_mask;\r\n\tallocation_prefix_mask=_allocation_prefix_mask;\r\n\tmax_del=48;\r\n\tmax_allocable_blocks=(2**uint(_allocation_prefix_mask-_base_prefix_mask));\r\n\tID=1;\r\n\tblocks[0].ip_address=ip;\r\n\tblocks[0].o_addr=msg.sender;\r\n\tblocks[0].mask=base_prefix_mask;\r\n\tinitial_block=ip;\r\n\tID_Index=0;\r\n\tdollarsPrice=price;\r\n\tstopped=false;\r\n\r\n}\r\n\t\r\n//******************************************************* ORACLE FUNCTIONS *******************************************************\r\n\r\nbytes32 queryID1;\r\nbytes32 queryID2;\r\nbytes32 queryID3;\r\nevent Log(string text);\r\n\r\nfunction getOracleCurrencyConversion() public payable{\r\n\t //require(msg.value==askOracleCost, \"Price Error\");\r\n\t queryID1=oraclize_query(\"URL\",\"json(https://min-api.cryptocompare.com/data/price?fsym=ETH&tsyms=USD).USD\");\r\n\t queryID2=oraclize_query(\"URL\", \"json(https://api.kraken.com/0/public/Ticker?pair=ETHUSD).result.XETHZUSD.c.0\");\r\n\t queryID3=oraclize_query(\"URL\", \"json(https://api.coinmarketcap.com/v1/ticker/ethereum/).0.price_usd\");\r\n\t }\r\n\r\nfunction __callback(bytes32 _myid, string _result) {\r\n     require (msg.sender == oraclize_cbAddress());\r\n             if (_myid==queryID1) {\r\n                           Log(_result);\r\n        prefixPrice1 = parseInt(_result, 2);\r\n              }\r\n              if(_myid==queryID2) {\r\n                           Log(_result);\r\n        prefixPrice2 = parseInt(_result, 2);\r\n\t\t             }\r\n\t\t\t if(_myid==queryID3) {\r\n                           Log(_result);\r\n        prefixPrice3 = parseInt(_result, 2);   \r\n             }\r\n}\r\n\r\nfunction getPrefixCost()public{\r\n\r\nif((prefixPrice1>prefixPrice2 && prefixPrice1>prefixPrice3) || (prefixPrice1<prefixPrice2 && prefixPrice1<prefixPrice3)){\r\n\tif((prefixPrice2>prefixPrice1 && prefixPrice2>prefixPrice3) || (prefixPrice2<prefixPrice1 && prefixPrice2<prefixPrice3)){\r\n\t\tprice=prefixPrice3;\r\n\t}else price=prefixPrice2;\r\n}else price=prefixPrice1;\r\n\r\nprefixPrice=(divide(dollarsPrice,price,5))*(10**13);\r\n}\r\n\r\n//******************************************************* KEY ROLLOVER FUNCTIONS *******************************************************\r\n\r\n\r\n//Function to permit the change of the owner (the ones who recive the funds) \t\r\nfunction transferInBlockControl(address new_owner)onlyOwner(){\r\n\towner=new_owner;\r\n\t}\r\n\r\n//Function to permit the transfer of the ownership of a specific block \r\nfunction transferAllocatedPrefixControl(bytes16 ip,address new_owner) public {\r\n\t\t\r\n\t\tint id= int(reverseSparse(ip));\r\n\t\trequire(blocks[id].ip_address!=\"\");\r\n\t\trequire(msg.sender==blocks[id].o_addr, \"You are not the owner of the block\");\r\n\t\tblocks[id].o_addr=new_owner;\r\n\r\n}\r\n\r\nfunction transferDelegatedPrefixControl(bytes16 ip, bytes16 ip2, uint8 mask, address new_owner) public {\r\n\t\t\r\n\t\tint id= int(reverseSparse(ip));\r\n\t\trequire(!isPrefixInUse(id));\r\n\t\tint id2= del_find(ip, ip2, mask);\r\n\t\trequire(id2!=-1 && id2!=-2);\r\n\t\trequire(msg.sender==blocks[id].del_blocks[id2].o_addr, \"You are not the owner of the block\");\r\n\t\tblocks[id].del_blocks[id2].o_addr=new_owner;\r\n\r\n}\r\n\r\n//******************************************************* CONTRACT BALANCE FUNCTIONS *******************************************************\r\n\r\n\r\n//fallback function to permit everyone to give ether to the contract\r\nfunction pay () payable{}\r\n\r\n\r\n}",
  "sourcePath": "C:\\Users\\User\\Desktop\\InBlock_Code-\\InBlock\\contracts\\InBlock.sol",
  "compiler": {
    "name": "solc",
    "version": "0.4.25+commit.59dbf8f1.Emscripten.clang"
  },
  "schemaVersion": "2.0.2",
  "updatedAt": "2019-05-29T13:59:14.326Z"
}