{
  "contractName": "InBlock",
  "abi": [
    {
      "constant": true,
      "inputs": [],
      "name": "ID_expired",
      "outputs": [
        {
          "name": "",
          "type": "int256"
        }
      ],
      "payable": false,
      "stateMutability": "view",
      "type": "function"
    },
    {
      "constant": false,
      "inputs": [
        {
          "name": "id",
          "type": "int256"
        }
      ],
      "name": "expire_id",
      "outputs": [
        {
          "name": "",
          "type": "bool"
        }
      ],
      "payable": false,
      "stateMutability": "nonpayable",
      "type": "function"
    },
    {
      "constant": false,
      "inputs": [
        {
          "name": "ip_parent",
          "type": "bytes16"
        },
        {
          "name": "ip",
          "type": "bytes16"
        },
        {
          "name": "mask",
          "type": "uint8"
        },
        {
          "name": "uri",
          "type": "bytes"
        },
        {
          "name": "hashFunction",
          "type": "bytes"
        },
        {
          "name": "hash",
          "type": "bytes"
        }
      ],
      "name": "setDelegatedPrefixPolicyURI",
      "outputs": [],
      "payable": false,
      "stateMutability": "nonpayable",
      "type": "function"
    },
    {
      "constant": false,
      "inputs": [],
      "name": "circuitBreaker",
      "outputs": [],
      "payable": false,
      "stateMutability": "nonpayable",
      "type": "function"
    },
    {
      "constant": true,
      "inputs": [
        {
          "name": "id",
          "type": "int256"
        }
      ],
      "name": "getAddressID",
      "outputs": [
        {
          "name": "ip",
          "type": "bytes16"
        }
      ],
      "payable": false,
      "stateMutability": "view",
      "type": "function"
    },
    {
      "constant": true,
      "inputs": [],
      "name": "allocation_prefix_mask",
      "outputs": [
        {
          "name": "",
          "type": "uint8"
        }
      ],
      "payable": false,
      "stateMutability": "view",
      "type": "function"
    },
    {
      "constant": true,
      "inputs": [],
      "name": "max_allocable_blocks",
      "outputs": [
        {
          "name": "",
          "type": "uint256"
        }
      ],
      "payable": false,
      "stateMutability": "view",
      "type": "function"
    },
    {
      "constant": true,
      "inputs": [
        {
          "name": "ip",
          "type": "bytes16"
        },
        {
          "name": "start",
          "type": "int256"
        },
        {
          "name": "stop",
          "type": "int256"
        }
      ],
      "name": "getIDsDelBlocks",
      "outputs": [
        {
          "name": "result",
          "type": "uint256[]"
        }
      ],
      "payable": false,
      "stateMutability": "view",
      "type": "function"
    },
    {
      "constant": true,
      "inputs": [
        {
          "name": "id",
          "type": "int256"
        }
      ],
      "name": "isAllocatedPrefixExpired",
      "outputs": [
        {
          "name": "",
          "type": "bool"
        }
      ],
      "payable": false,
      "stateMutability": "view",
      "type": "function"
    },
    {
      "constant": true,
      "inputs": [
        {
          "name": "id",
          "type": "int256"
        }
      ],
      "name": "isPrefixInUse",
      "outputs": [
        {
          "name": "",
          "type": "bool"
        }
      ],
      "payable": false,
      "stateMutability": "view",
      "type": "function"
    },
    {
      "constant": false,
      "inputs": [
        {
          "name": "ip",
          "type": "bytes16"
        },
        {
          "name": "ASes",
          "type": "bytes"
        }
      ],
      "name": "setRoA",
      "outputs": [],
      "payable": false,
      "stateMutability": "nonpayable",
      "type": "function"
    },
    {
      "constant": false,
      "inputs": [
        {
          "name": "id",
          "type": "int256"
        },
        {
          "name": "uri",
          "type": "bytes"
        },
        {
          "name": "hashFunction",
          "type": "bytes"
        },
        {
          "name": "hash",
          "type": "bytes"
        }
      ],
      "name": "setPolicyURIiD",
      "outputs": [],
      "payable": false,
      "stateMutability": "nonpayable",
      "type": "function"
    },
    {
      "constant": true,
      "inputs": [],
      "name": "prefixPrice3",
      "outputs": [
        {
          "name": "",
          "type": "uint256"
        }
      ],
      "payable": false,
      "stateMutability": "view",
      "type": "function"
    },
    {
      "constant": true,
      "inputs": [],
      "name": "getRecovered",
      "outputs": [
        {
          "name": "result",
          "type": "uint256[]"
        }
      ],
      "payable": false,
      "stateMutability": "view",
      "type": "function"
    },
    {
      "constant": true,
      "inputs": [],
      "name": "ID_Index",
      "outputs": [
        {
          "name": "",
          "type": "int256"
        }
      ],
      "payable": false,
      "stateMutability": "view",
      "type": "function"
    },
    {
      "constant": false,
      "inputs": [
        {
          "name": "id",
          "type": "int256"
        }
      ],
      "name": "recoverExpiredBlock",
      "outputs": [],
      "payable": false,
      "stateMutability": "nonpayable",
      "type": "function"
    },
    {
      "constant": true,
      "inputs": [
        {
          "name": "ip_parent",
          "type": "bytes16"
        },
        {
          "name": "ip",
          "type": "bytes16"
        },
        {
          "name": "mask",
          "type": "uint8"
        }
      ],
      "name": "getDelegatedPrefixRoA",
      "outputs": [
        {
          "name": "",
          "type": "bytes"
        }
      ],
      "payable": false,
      "stateMutability": "view",
      "type": "function"
    },
    {
      "constant": true,
      "inputs": [
        {
          "name": "start",
          "type": "int256"
        },
        {
          "name": "stop",
          "type": "int256"
        }
      ],
      "name": "getIDsBlocksExpired",
      "outputs": [
        {
          "name": "result",
          "type": "uint256[]"
        }
      ],
      "payable": false,
      "stateMutability": "view",
      "type": "function"
    },
    {
      "constant": false,
      "inputs": [],
      "name": "toggleCircuit",
      "outputs": [],
      "payable": false,
      "stateMutability": "nonpayable",
      "type": "function"
    },
    {
      "constant": false,
      "inputs": [
        {
          "name": "id",
          "type": "int256"
        },
        {
          "name": "ASes",
          "type": "bytes"
        }
      ],
      "name": "setRoAID",
      "outputs": [],
      "payable": false,
      "stateMutability": "nonpayable",
      "type": "function"
    },
    {
      "constant": false,
      "inputs": [
        {
          "name": "_parent_ip",
          "type": "bytes16"
        },
        {
          "name": "del_ip",
          "type": "bytes16"
        },
        {
          "name": "bar",
          "type": "uint8"
        },
        {
          "name": "delegated_address",
          "type": "address"
        }
      ],
      "name": "delegateBlock",
      "outputs": [],
      "payable": false,
      "stateMutability": "nonpayable",
      "type": "function"
    },
    {
      "constant": false,
      "inputs": [
        {
          "name": "ip",
          "type": "bytes16"
        }
      ],
      "name": "sequentialAllocationPrefixRequest",
      "outputs": [
        {
          "name": "",
          "type": "bool"
        }
      ],
      "payable": true,
      "stateMutability": "payable",
      "type": "function"
    },
    {
      "constant": true,
      "inputs": [
        {
          "name": "id",
          "type": "int256"
        }
      ],
      "name": "getItem",
      "outputs": [
        {
          "name": "ip",
          "type": "bytes16"
        },
        {
          "name": "o",
          "type": "address"
        },
        {
          "name": "mask",
          "type": "uint8"
        },
        {
          "name": "_date",
          "type": "uint256"
        },
        {
          "name": "a",
          "type": "bytes"
        },
        {
          "name": "b",
          "type": "bytes"
        },
        {
          "name": "c",
          "type": "bytes"
        },
        {
          "name": "d",
          "type": "bytes"
        }
      ],
      "payable": false,
      "stateMutability": "view",
      "type": "function"
    },
    {
      "constant": true,
      "inputs": [
        {
          "name": "ip",
          "type": "bytes16"
        },
        {
          "name": "ip2",
          "type": "bytes16"
        },
        {
          "name": "_mask",
          "type": "uint8"
        }
      ],
      "name": "del_find",
      "outputs": [
        {
          "name": "",
          "type": "int256"
        }
      ],
      "payable": false,
      "stateMutability": "view",
      "type": "function"
    },
    {
      "constant": true,
      "inputs": [],
      "name": "base_prefix_mask",
      "outputs": [
        {
          "name": "",
          "type": "uint8"
        }
      ],
      "payable": false,
      "stateMutability": "view",
      "type": "function"
    },
    {
      "constant": true,
      "inputs": [],
      "name": "initial_block",
      "outputs": [
        {
          "name": "",
          "type": "bytes16"
        }
      ],
      "payable": false,
      "stateMutability": "view",
      "type": "function"
    },
    {
      "constant": true,
      "inputs": [],
      "name": "stopped",
      "outputs": [
        {
          "name": "",
          "type": "bool"
        }
      ],
      "payable": false,
      "stateMutability": "view",
      "type": "function"
    },
    {
      "constant": true,
      "inputs": [
        {
          "name": "input",
          "type": "bytes16"
        }
      ],
      "name": "reverseSparse",
      "outputs": [
        {
          "name": "num",
          "type": "uint256"
        }
      ],
      "payable": false,
      "stateMutability": "view",
      "type": "function"
    },
    {
      "constant": true,
      "inputs": [],
      "name": "seed",
      "outputs": [
        {
          "name": "",
          "type": "uint256"
        }
      ],
      "payable": false,
      "stateMutability": "view",
      "type": "function"
    },
    {
      "constant": true,
      "inputs": [
        {
          "name": "a",
          "type": "address"
        },
        {
          "name": "start",
          "type": "int256"
        },
        {
          "name": "stop",
          "type": "int256"
        }
      ],
      "name": "getIDsBlocksAddress",
      "outputs": [
        {
          "name": "result",
          "type": "uint256[]"
        }
      ],
      "payable": false,
      "stateMutability": "view",
      "type": "function"
    },
    {
      "constant": false,
      "inputs": [
        {
          "name": "ip",
          "type": "bytes16"
        },
        {
          "name": "uri",
          "type": "bytes"
        },
        {
          "name": "hashFunction",
          "type": "bytes"
        },
        {
          "name": "hash",
          "type": "bytes"
        }
      ],
      "name": "setPolicyURI",
      "outputs": [],
      "payable": false,
      "stateMutability": "nonpayable",
      "type": "function"
    },
    {
      "constant": false,
      "inputs": [
        {
          "name": "parent_ip",
          "type": "bytes16"
        },
        {
          "name": "del_ip",
          "type": "bytes16"
        },
        {
          "name": "mask",
          "type": "uint8"
        }
      ],
      "name": "revokeDelegation",
      "outputs": [],
      "payable": false,
      "stateMutability": "nonpayable",
      "type": "function"
    },
    {
      "constant": true,
      "inputs": [
        {
          "name": "ip",
          "type": "bytes16"
        }
      ],
      "name": "isPrefixInUseIP",
      "outputs": [
        {
          "name": "",
          "type": "bool"
        }
      ],
      "payable": false,
      "stateMutability": "view",
      "type": "function"
    },
    {
      "constant": true,
      "inputs": [],
      "name": "askOracleCost",
      "outputs": [
        {
          "name": "",
          "type": "uint256"
        }
      ],
      "payable": false,
      "stateMutability": "view",
      "type": "function"
    },
    {
      "constant": true,
      "inputs": [],
      "name": "owner",
      "outputs": [
        {
          "name": "",
          "type": "address"
        }
      ],
      "payable": false,
      "stateMutability": "view",
      "type": "function"
    },
    {
      "constant": false,
      "inputs": [
        {
          "name": "ip_parent",
          "type": "bytes16"
        },
        {
          "name": "ip",
          "type": "bytes16"
        },
        {
          "name": "mask",
          "type": "uint8"
        },
        {
          "name": "ASes",
          "type": "bytes"
        }
      ],
      "name": "setDelegatedPrefixRoA",
      "outputs": [],
      "payable": false,
      "stateMutability": "nonpayable",
      "type": "function"
    },
    {
      "constant": true,
      "inputs": [
        {
          "name": "ip_parent",
          "type": "bytes16"
        },
        {
          "name": "ip",
          "type": "bytes16"
        },
        {
          "name": "mask",
          "type": "uint8"
        }
      ],
      "name": "getDelegatedPrefixPolicyURI",
      "outputs": [
        {
          "name": "",
          "type": "bytes"
        },
        {
          "name": "",
          "type": "bytes"
        },
        {
          "name": "",
          "type": "bytes"
        }
      ],
      "payable": false,
      "stateMutability": "view",
      "type": "function"
    },
    {
      "constant": true,
      "inputs": [],
      "name": "price",
      "outputs": [
        {
          "name": "",
          "type": "uint256"
        }
      ],
      "payable": false,
      "stateMutability": "view",
      "type": "function"
    },
    {
      "constant": false,
      "inputs": [
        {
          "name": "id",
          "type": "int256"
        }
      ],
      "name": "prefixRenewID",
      "outputs": [
        {
          "name": "",
          "type": "bool"
        },
        {
          "name": "",
          "type": "uint256"
        }
      ],
      "payable": true,
      "stateMutability": "payable",
      "type": "function"
    },
    {
      "constant": false,
      "inputs": [
        {
          "name": "ip",
          "type": "bytes16"
        }
      ],
      "name": "getPolicyURI",
      "outputs": [
        {
          "name": "",
          "type": "bytes"
        },
        {
          "name": "",
          "type": "bytes"
        },
        {
          "name": "",
          "type": "bytes"
        }
      ],
      "payable": false,
      "stateMutability": "nonpayable",
      "type": "function"
    },
    {
      "constant": false,
      "inputs": [],
      "name": "prefixRequest",
      "outputs": [
        {
          "name": "",
          "type": "bool"
        }
      ],
      "payable": true,
      "stateMutability": "payable",
      "type": "function"
    },
    {
      "constant": true,
      "inputs": [],
      "name": "ID",
      "outputs": [
        {
          "name": "",
          "type": "int256"
        }
      ],
      "payable": false,
      "stateMutability": "view",
      "type": "function"
    },
    {
      "constant": true,
      "inputs": [],
      "name": "dollarsPrice",
      "outputs": [
        {
          "name": "",
          "type": "uint256"
        }
      ],
      "payable": false,
      "stateMutability": "view",
      "type": "function"
    },
    {
      "constant": true,
      "inputs": [],
      "name": "max_del",
      "outputs": [
        {
          "name": "",
          "type": "uint8"
        }
      ],
      "payable": false,
      "stateMutability": "view",
      "type": "function"
    },
    {
      "constant": true,
      "inputs": [
        {
          "name": "id",
          "type": "uint256"
        }
      ],
      "name": "sparse",
      "outputs": [
        {
          "name": "",
          "type": "bytes16"
        }
      ],
      "payable": false,
      "stateMutability": "view",
      "type": "function"
    },
    {
      "constant": true,
      "inputs": [],
      "name": "prefixPrice1",
      "outputs": [
        {
          "name": "",
          "type": "uint256"
        }
      ],
      "payable": false,
      "stateMutability": "view",
      "type": "function"
    },
    {
      "constant": true,
      "inputs": [],
      "name": "prefixPrice2",
      "outputs": [
        {
          "name": "",
          "type": "uint256"
        }
      ],
      "payable": false,
      "stateMutability": "view",
      "type": "function"
    },
    {
      "constant": true,
      "inputs": [
        {
          "name": "ip",
          "type": "bytes16"
        }
      ],
      "name": "getRoA",
      "outputs": [
        {
          "name": "",
          "type": "bytes"
        }
      ],
      "payable": false,
      "stateMutability": "view",
      "type": "function"
    },
    {
      "constant": true,
      "inputs": [
        {
          "name": "id",
          "type": "int256"
        },
        {
          "name": "id2",
          "type": "int256"
        }
      ],
      "name": "getDelBlockID",
      "outputs": [
        {
          "name": "",
          "type": "bytes16"
        },
        {
          "name": "",
          "type": "address"
        },
        {
          "name": "",
          "type": "uint8"
        },
        {
          "name": "",
          "type": "int256"
        },
        {
          "name": "",
          "type": "int256"
        },
        {
          "name": "",
          "type": "int256"
        }
      ],
      "payable": false,
      "stateMutability": "view",
      "type": "function"
    },
    {
      "constant": true,
      "inputs": [],
      "name": "prefixPrice",
      "outputs": [
        {
          "name": "",
          "type": "uint256"
        }
      ],
      "payable": false,
      "stateMutability": "view",
      "type": "function"
    },
    {
      "inputs": [],
      "payable": false,
      "stateMutability": "nonpayable",
      "type": "constructor"
    },
    {
      "anonymous": false,
      "inputs": [
        {
          "indexed": false,
          "name": "text",
          "type": "string"
        }
      ],
      "name": "Log",
      "type": "event"
    },
    {
      "constant": false,
      "inputs": [
        {
          "name": "ip",
          "type": "bytes16"
        },
        {
          "name": "_base_prefix_mask",
          "type": "uint8"
        },
        {
          "name": "_allocation_prefix_mask",
          "type": "uint8"
        },
        {
          "name": "price",
          "type": "uint256"
        }
      ],
      "name": "activateInBlock",
      "outputs": [],
      "payable": false,
      "stateMutability": "nonpayable",
      "type": "function"
    },
    {
      "constant": false,
      "inputs": [],
      "name": "getOracleCurrencyConversion",
      "outputs": [],
      "payable": true,
      "stateMutability": "payable",
      "type": "function"
    },
    {
      "constant": false,
      "inputs": [
        {
          "name": "_myid",
          "type": "bytes32"
        },
        {
          "name": "_result",
          "type": "string"
        }
      ],
      "name": "__callback",
      "outputs": [],
      "payable": false,
      "stateMutability": "nonpayable",
      "type": "function"
    },
    {
      "constant": false,
      "inputs": [
        {
          "name": "myid",
          "type": "bytes32"
        },
        {
          "name": "result",
          "type": "string"
        },
        {
          "name": "proof",
          "type": "bytes"
        }
      ],
      "name": "__callback",
      "outputs": [],
      "payable": false,
      "stateMutability": "nonpayable",
      "type": "function"
    },
    {
      "constant": false,
      "inputs": [],
      "name": "getPrefixCost",
      "outputs": [],
      "payable": false,
      "stateMutability": "nonpayable",
      "type": "function"
    },
    {
      "constant": false,
      "inputs": [
        {
          "name": "new_owner",
          "type": "address"
        }
      ],
      "name": "transferInBlockControl",
      "outputs": [],
      "payable": false,
      "stateMutability": "nonpayable",
      "type": "function"
    },
    {
      "constant": false,
      "inputs": [
        {
          "name": "ip",
          "type": "bytes16"
        },
        {
          "name": "new_owner",
          "type": "address"
        }
      ],
      "name": "transferAllocatedPrefixControl",
      "outputs": [],
      "payable": false,
      "stateMutability": "nonpayable",
      "type": "function"
    },
    {
      "constant": false,
      "inputs": [
        {
          "name": "ip",
          "type": "bytes16"
        },
        {
          "name": "ip2",
          "type": "bytes16"
        },
        {
          "name": "mask",
          "type": "uint8"
        },
        {
          "name": "new_owner",
          "type": "address"
        }
      ],
      "name": "transferDelegatedPrefixControl",
      "outputs": [],
      "payable": false,
      "stateMutability": "nonpayable",
      "type": "function"
    },
    {
      "constant": false,
      "inputs": [],
      "name": "pay",
      "outputs": [],
      "payable": true,
      "stateMutability": "payable",
      "type": "function"
    }
  ],
  "bytecode": "0x608060405234801561001057600080fd5b50600b80546000600c81905560065560a060020a60ff0219600160a060020a03199182163317167401000000000000000000000000000000000000000017909155660f8a803af1500060035560118054909116731d3b2638a7cc9f2cb3d298a3da7a90b67e5506ed1790556001600955615f1c80620000906000396000f3006080604052600436106102a55763ffffffff60e060020a60003504166306cd8b7581146102aa57806308250c51146102d15780630bf59cc1146102db5780630c93e05f1461030757806315ec41e7146103f657806316efd941146104175780631877ef5e1461042c5780631a7f57ad146104615780631b9265b81461048c5780632059b40d146104945780632129b23b146104a9578063233f97561461052157806325b2d85e1461053957806327dc297e146105515780632a238879146105af5780632d993acf1461061757806334725c76146106f157806337c454e91461070657806338bbfa501461071b5780633ae5e307146107b75780633b2d563a146107cc5780633cf4d039146107e4578063460e6c001461088757806349621851146108a2578063585df822146108b7578063604341a41461091557806361d2f70a1461094f5780636e53d06514610964578063702335e614610b80578063706c3eae14610bae578063743d9ff814610bc357806375f12b2114610bd8578063778193a114610bed5780637d94792a14610c0f57806380f90eda14610c24578063872fa4c914610c4b57806388012c4b14610d2f57806389dd402314610d5d5780638b8f238714610d7f5780638c2a8c1014610db05780638da5cb5b14610dc5578063983abe5a14610df65780639c68daeb14610e69578063a035b1fe14610fdb578063ab4a560414610ff0578063aea6197414611016578063af16e99014611038578063b2d3d0b414611066578063b3cea2171461106e578063b5820d7514611083578063b70c546e14611098578063c5ba2bd4146110ad578063d0db65ce146110c2578063ecafa252146110da578063f68d2d5b146110ef578063f9bd3e5214611104578063fced00301461113e578063fe68628314611160578063ff6e3c31146111c3575b600080fd5b3480156102b657600080fd5b506102bf6111d8565b60408051918252519081900360200190f35b6102d96111de565b005b3480156102e757600080fd5b506102f360043561143a565b604080519115158252519081900360200190f35b34801561031357600080fd5b50604080516020601f6064356004818101359283018490048402850184019095528184526102d9946001608060020a03198135811695602480359092169560ff604435169536956084940191819084018382808284375050604080516020601f89358b018035918201839004830284018301909452808352979a99988101979196509182019450925082915084018382808284375050604080516020601f89358b018035918201839004830284018301909452808352979a99988101979196509182019450925082915084018382808284375094975061147e9650505050505050565b34801561040257600080fd5b506102d9600160a060020a0360043516611569565b34801561042357600080fd5b506102d96115a2565b34801561043857600080fd5b506104446004356115d9565b604080516001608060020a03199092168252519081900360200190f35b34801561046d57600080fd5b506104766115f1565b6040805160ff9092168252519081900360200190f35b6102d9611601565b3480156104a057600080fd5b506102bf611603565b3480156104b557600080fd5b506104d16001608060020a031960043516602435604435611609565b60408051602080825283518183015283519192839290830191858101910280838360005b8381101561050d5781810151838201526020016104f5565b505050509050019250505060405180910390f35b34801561052d57600080fd5b506102f36004356116f3565b34801561054557600080fd5b506102f3600435611737565b34801561055d57600080fd5b5060408051602060046024803582810135601f81018590048502860185019096528585526102d99583359536956044949193909101919081908401838280828437509497506117859650505050505050565b3480156105bb57600080fd5b5060408051602060046024803582810135601f81018590048502860185019096528585526102d99583356001608060020a0319169536956044949193909101919081908401838280828437509497506119bb9650505050505050565b34801561062357600080fd5b5060408051602060046024803582810135601f81018590048502860185019096528585526102d995833595369560449491939091019190819084018382808284375050604080516020601f89358b018035918201839004830284018301909452808352979a99988101979196509182019450925082915084018382808284375050604080516020601f89358b018035918201839004830284018301909452808352979a999881019791965091820194509250829150840183828082843750949750611a2d9650505050505050565b3480156106fd57600080fd5b506102bf611ab9565b34801561071257600080fd5b506104d1611abf565b34801561072757600080fd5b5060408051602060046024803582810135601f81018590048502860185019096528585526102d995833595369560449491939091019190819084018382808284375050604080516020601f89358b018035918201839004830284018301909452808352979a999881019791965091820194509250829150840183828082843750949750611b449650505050505050565b3480156107c357600080fd5b506102bf611b49565b3480156107d857600080fd5b506102d9600435611b4f565b3480156107f057600080fd5b506108126001608060020a03196004358116906024351660ff60443516611c93565b6040805160208082528351818301528351919283929083019185019080838360005b8381101561084c578181015183820152602001610834565b50505050905090810190601f1680156108795780820380516001836020036101000a031916815260200191505b509250505060405180910390f35b34801561089357600080fd5b506104d1600435602435611d94565b3480156108ae57600080fd5b506102d9611e23565b3480156108c357600080fd5b5060408051602060046024803582810135601f81018590048502860185019096528585526102d9958335953695604494919390910191908190840183828082843750949750611e6c9650505050505050565b34801561092157600080fd5b506102d96001608060020a03196004358116906024351660ff60443516600160a060020a0360643516611ecb565b6102f36001608060020a0319600435166120d5565b34801561097057600080fd5b5061097c6004356123c2565b60405180896fffffffffffffffffffffffffffffffff19166fffffffffffffffffffffffffffffffff1916815260200188600160a060020a0316600160a060020a031681526020018760ff1660ff16815260200186815260200180602001806020018060200180602001858103855289818151815260200191508051906020019080838360005b83811015610a1b578181015183820152602001610a03565b50505050905090810190601f168015610a485780820380516001836020036101000a031916815260200191505b5085810384528851815288516020918201918a019080838360005b83811015610a7b578181015183820152602001610a63565b50505050905090810190601f168015610aa85780820380516001836020036101000a031916815260200191505b50858103835287518152875160209182019189019080838360005b83811015610adb578181015183820152602001610ac3565b50505050905090810190601f168015610b085780820380516001836020036101000a031916815260200191505b50858103825286518152865160209182019188019080838360005b83811015610b3b578181015183820152602001610b23565b50505050905090810190601f168015610b685780820380516001836020036101000a031916815260200191505b509c5050505050505050505050505060405180910390f35b348015610b8c57600080fd5b506102bf6001608060020a03196004358116906024351660ff6044351661267b565b348015610bba57600080fd5b506104766127e0565b348015610bcf57600080fd5b506104446127f0565b348015610be457600080fd5b506102f36127fc565b348015610bf957600080fd5b506102bf6001608060020a03196004351661280c565b348015610c1b57600080fd5b506102bf612a50565b348015610c3057600080fd5b506104d1600160a060020a0360043516602435604435612a56565b348015610c5757600080fd5b5060408051602060046024803582810135601f81018590048502860185019096528585526102d99583356001608060020a03191695369560449491939091019190819084018382808284375050604080516020601f89358b018035918201839004830284018301909452808352979a99988101979196509182019450925082915084018382808284375050604080516020601f89358b018035918201839004830284018301909452808352979a999881019791965091820194509250829150840183828082843750949750612b139650505050505050565b348015610d3b57600080fd5b506102d96001608060020a03196004358116906024351660ff60443516612ba5565b348015610d6957600080fd5b506102f36001608060020a031960043516612fce565b348015610d8b57600080fd5b506102d96001608060020a03196004351660ff6024358116906044351660643561302d565b348015610dbc57600080fd5b506102bf613196565b348015610dd157600080fd5b50610dda61319c565b60408051600160a060020a039092168252519081900360200190f35b348015610e0257600080fd5b50604080516020601f6064356004818101359283018490048402850184019095528184526102d9946001608060020a03198135811695602480359092169560ff60443516953695608494019181908401838280828437509497506131ab9650505050505050565b348015610e7557600080fd5b50610e976001608060020a03196004358116906024351660ff60443516613266565b60405180806020018060200180602001848103845287818151815260200191508051906020019080838360005b83811015610edc578181015183820152602001610ec4565b50505050905090810190601f168015610f095780820380516001836020036101000a031916815260200191505b50848103835286518152865160209182019188019080838360005b83811015610f3c578181015183820152602001610f24565b50505050905090810190601f168015610f695780820380516001836020036101000a031916815260200191505b50848103825285518152855160209182019187019080838360005b83811015610f9c578181015183820152602001610f84565b50505050905090810190601f168015610fc95780820380516001836020036101000a031916815260200191505b50965050505050505060405180910390f35b348015610fe757600080fd5b506102bf61349e565b610ffb6004356134a4565b60408051921515835260208301919091528051918290030190f35b34801561102257600080fd5b50610e976001608060020a031960043516613645565b34801561104457600080fd5b506102d96001608060020a031960043516600160a060020a0360243516613840565b6102f3613941565b34801561107a57600080fd5b506102bf613af3565b34801561108f57600080fd5b506102bf613af9565b3480156110a457600080fd5b506102d9613aff565b3480156110b957600080fd5b50610476613ba8565b3480156110ce57600080fd5b50610444600435613bca565b3480156110e657600080fd5b506102bf613c84565b3480156110fb57600080fd5b506102bf613c8a565b34801561111057600080fd5b506102d96001608060020a03196004358116906024351660ff60443516600160a060020a0360643516613c90565b34801561114a57600080fd5b506108126001608060020a031960043516613dc5565b34801561116c57600080fd5b5061117b600435602435613e8b565b604080516001608060020a03199097168752600160a060020a03909516602087015260ff909316858501526060850191909152608084015260a0830152519081900360c00190f35b3480156111cf57600080fd5b506102bf613f07565b60085481565b61129f6040805190810160405280600381526020017f55524c0000000000000000000000000000000000000000000000000000000000815250608060405190810160405280604981526020017f6a736f6e2868747470733a2f2f6d696e2d6170692e63727970746f636f6d706181526020017f72652e636f6d2f646174612f70726963653f6673796d3d455448267473796d7381526020017f3d555344292e5553440000000000000000000000000000000000000000000000815250613f0d565b6016816000191690555061136a6040805190810160405280600381526020017f55524c0000000000000000000000000000000000000000000000000000000000815250608060405190810160405280604c81526020017f6a736f6e2868747470733a2f2f6170692e6b72616b656e2e636f6d2f302f707581526020017f626c69632f5469636b65723f706169723d455448555344292e726573756c742e81526020017f584554485a5553442e632e300000000000000000000000000000000000000000815250613f0d565b601781600019169055506114356040805190810160405280600381526020017f55524c0000000000000000000000000000000000000000000000000000000000815250608060405190810160405280604381526020017f6a736f6e2868747470733a2f2f6170692e636f696e6d61726b65746361702e6381526020017f6f6d2f76312f7469636b65722f657468657265756d2f292e302e70726963655f81526020017f7573640000000000000000000000000000000000000000000000000000000000815250613f0d565b601855565b600081815260106020526040812060020154156114755750600081815260106020526040902060020180546301e1337f190190556001611479565b5060005b919050565b60008061148a8861280c565b915061149582611737565b15156114a057600080fd5b6114ab88888861267b565b905080600019141580156114c157508060011914155b15156114cc57600080fd5b6000828152601060209081526040808320848452600701825290912086516114fc92600590920191880190615e58565b5060008281526010602090815260408083208484526007018252909120855161152d92600690920191870190615e58565b506000828152601060209081526040808320848452600790810183529220855161155e939190910191860190615e58565b505050505050505050565b600b54600160a060020a0316331461158057600080fd5b600b8054600160a060020a031916600160a060020a0392909216919091179055565b600b54600160a060020a031633146115b957600080fd5b600b805474ff000000000000000000000000000000000000000019169055565b600090815260106020526040902054608060020a0290565b600b5460b060020a900460ff1681565b565b600d5481565b606060008060008061161a8861280c565b9350611627888888614302565b925082604051908082528060200260200182016040528015611653578160200160208202803883390190505b509450600091508690505b856001018112156116e857600084815260106020908152604080832084845260088101835281842054845260070190915290206001015460a060020a900460ff16156116e057600084815260106020908152604080832084845260080190915290205485518690849081106116cf57fe5b602090810290910101526001909101905b60010161165e565b505050509392505050565b6000818152601060205260408120600201546301e1338001421080159061172a575060008281526010602052604090206002015415155b1561147557506001611479565b6000611742826116f3565b151561175057506001611479565b600082815260106020526040902054608060020a026001608060020a031916151561177d57506000611479565b506001919050565b61178d614396565b600160a060020a031633146117a157600080fd5b601654821415611853577fcf34ef537ac33ee1ac626ca1587a0a7e8e51561e5514f8cb36afa1c5102b3bab816040518080602001828103825283818151815260200191508051906020019080838360005b8381101561180a5781810151838201526020016117f2565b50505050905090810190601f1680156118375780820380516001836020036101000a031916815260200191505b509250505060405180910390a161184f81600261458c565b6000555b601754821415611905577fcf34ef537ac33ee1ac626ca1587a0a7e8e51561e5514f8cb36afa1c5102b3bab816040518080602001828103825283818151815260200191508051906020019080838360005b838110156118bc5781810151838201526020016118a4565b50505050905090810190601f1680156118e95780820380516001836020036101000a031916815260200191505b509250505060405180910390a161190181600261458c565b6001555b6018548214156119b7577fcf34ef537ac33ee1ac626ca1587a0a7e8e51561e5514f8cb36afa1c5102b3bab816040518080602001828103825283818151815260200191508051906020019080838360005b8381101561196e578181015183820152602001611956565b50505050905090810190601f16801561199b5780820380516001836020036101000a031916815260200191505b509250505060405180910390a16119b381600261458c565b6002555b5050565b60006119c68361280c565b90506119d181611737565b15156119dc57600080fd5b600081815260106020526040902060010154600160a060020a03163314611a0257600080fd5b60008181526010602090815260409091208351611a2792600690920191850190615e58565b50505050565b611a3684611737565b1515611a4157600080fd5b60008481526010602090815260409091208451611a6692600390920191860190615e58565b5060008481526010602090815260409091208351611a8c92600490920191850190615e58565b5060008481526010602090815260409091208251611ab292600590920191840190615e58565b5050505050565b60025481565b60606000806000600854925082604051908082528060200260200182016040528015611af5578160200160208202803883390190505b50935060009150600090505b600854811215611b3e576000818152600f60205260409020548451859084908110611b2857fe5b6020908102909101015260019182019101611b01565b50505090565b505050565b60075481565b600b54600160a060020a03163314611b6657600080fd5b611b6f816116f3565b1515611b7a57600080fd5b600081815260106020818152604080842080546001608060020a031916815560018101805474ffffffffffffffffffffffffffffffffffffffffff191690556002810185905581518084019283905285815294869052929091529151611be69260039092019190615e58565b50604080516020818101808452600080845285815260109092529290209051611c159260049092019190615e58565b50604080516020818101808452600080845285815260109092529290209051611c449260059092019190615e58565b50604080516020818101808452600080845285815260109092529290209051611c739260069092019190615e58565b50600880546000908152600f602052604090209190915580546001019055565b6060600080611ca18661280c565b9150611cac82611737565b1515611cb757600080fd5b611cc286868661267b565b90508060001914158015611cd857508060011914155b1515611ce357600080fd5b600082815260106020908152604080832084845260070182529182902060080180548351601f600260001961010060018616150201909316929092049182018490048402810184019094528084529091830182828015611d845780601f10611d5957610100808354040283529160200191611d84565b820191906000526020600020905b815481529060010190602001808311611d6757829003601f168201915b5050505050925050509392505050565b60606000806000611da586866146fe565b925082604051908082528060200260200182016040528015611dd1578160200160208202803883390190505b509350600091508590505b84811215611e1a57611ded816116f3565b15611e1257808483815181101515611e0157fe5b602090810290910101526001909101905b600101611ddc565b50505092915050565b600b54600160a060020a03163314611e3a57600080fd5b600b805474ff000000000000000000000000000000000000000019811660a060020a9182900460ff1615909102179055565b611e7582611737565b1515611e8057600080fd5b600082815260106020526040902060010154600160a060020a03163314611ea657600080fd5b60008281526010602090815260409091208251611b4492600690920191840190615e58565b600b54600090819060a060020a900460ff1615611ee757600080fd5b600b5460ff750100000000000000000000000000000000000000000090910481169085161115611f1657600080fd5b600b54611f3090879060b060020a900460ff168787614730565b1515611f86576040805160e560020a62461bcd02815260206004820152601e60248201527f54686520656e7465726564206970206973206f7574206f662072616e67650000604482015290519081900360640190fd5b611f8f8661280c565b600081815260106020526040902060010154909250600160a060020a03163314612003576040805160e560020a62461bcd02815260206004820152601960248201527f4f7065726174696f6e206e6f7420617574686f72697a65642100000000000000604482015290519081900360640190fd5b61200e868686614792565b151561208a576040805160e560020a62461bcd02815260206004820152603360248201527f54686520656e746572656420626c6f636b2069732070617274206f6620616e6f60448201527f74686572206578697374696e6720626c6f636b00000000000000000000000000606482015290519081900360840190fd5b61209586868661267b565b905080600019141580156120ab57508060011914155b156120c1576120bc86868686614b81565b6120cd565b6120cd86868686614b81565b505050505050565b600080600080600b60149054906101000a900460ff16156120f557600080fd5b600d546007541261210557600080fd5b346672a57c275dc8006009540311158061212a57506009546672a57c275dc800013411155b1515612180576040805160e560020a62461bcd02815260206004820152600b60248201527f5072696365206572726f72000000000000000000000000000000000000000000604482015290519081900360640190fd5b6121898561280c565b925061219483611737565b151561219f57600080fd5b600083815260106020526040902060010154600160a060020a03163314612210576040805160e560020a62461bcd02815260206004820152601660248201527f596f7520617265206e6f7420417574686f72697a656400000000000000000000604482015290519081900360640190fd5b600b5461222b90869060b060020a900460ff16608003615789565b151561225357600b5461224c90869060b060020a900460ff166080036157b2565b9450612330565b600b5461226e90869060b060020a900460ff166080036157ce565b9450600191505b600a54600b5460ff608060020a909204821660b060020a90910482160381169083161015612330576122bb8583600b60169054906101000a900460ff1603608003615789565b156122eb576122de8583600b60169054906101000a900460ff16036080036157ce565b945060019091019061232b565b6123098583600b60169054906101000a900460ff16036080036157b2565b600a54600b5491965060ff608060020a909104811660b060020a909204160391505b612275565b6123398561280c565b600081815260106020526040902054909150608060020a026001608060020a0319161561236557600080fd5b600b5461237d90869060b060020a900460ff166157f5565b600b54604051600160a060020a03909116903480156108fc02916000818181858888f193505050501580156123b6573d6000803e3d6000fd5b50600195945050505050565b60008181526010602090815260409182902080546001808301546002808501546003909501805488516101009582161595909502600019011691909104601f8101879004870284018701909752868352608060020a90930295600160a060020a0382169560a060020a90920460ff1694936060938493849384939183018282801561248e5780601f106124635761010080835404028352916020019161248e565b820191906000526020600020905b81548152906001019060200180831161247157829003601f168201915b50505060008c8152601060209081526040918290206005018054835160026001831615610100026000190190921691909104601f8101849004840282018401909452838152959950935090915083018282801561252c5780601f106125015761010080835404028352916020019161252c565b820191906000526020600020905b81548152906001019060200180831161250f57829003601f168201915b50505060008c8152601060209081526040918290206004018054835160026001831615610100026000190190921691909104601f810184900484028201840190945283815295985093509091508301828280156125ca5780601f1061259f576101008083540402835291602001916125ca565b820191906000526020600020905b8154815290600101906020018083116125ad57829003601f168201915b50505060008c8152601060209081526040918290206006018054835160026001831615610100026000190190921691909104601f810184900484028201840190945283815295975093509091508301828280156126685780601f1061263d57610100808354040283529160200191612668565b820191906000526020600020905b81548152906001019060200180831161264b57829003601f168201915b5093945050505050919395975091939597565b600080600080600061268c8861280c565b935061269784611737565b15156126a75760001994506116e8565b5060009150819050805b600b54600160ff60b060020a9092048216880301168212156127c85760008481526010602090815260408083208684526007019091529020546001608060020a0319888116608060020a909202161480156127375750600084815260106020908152604080832086845260070190915290206001015460ff87811660a060020a90920416145b1561274857600190508294506116e8565b6127698783600b60169054906101000a900460ff1601600101608003615789565b1515612798576000848152601060209081526040808320958352600790950190529290922060030154916127bd565b6000848152601060209081526040808320958352600790950190529290922060040154915b8160010191506126b1565b80156127d6578294506116e8565b60011994506116e8565b600a54608060020a900460ff1681565b600a54608060020a0281565b600b5460a060020a900460ff1681565b600080808080808080808080805b600a54600160ff608060020a90920482160181169083161015612864576128448d83608003615789565b15612859576128568d836080036157ce565b9c505b60019091019061281a565b5060005b600a54600b5460ff608060020a909204821660b060020a90910482160381169082161015612a02576128b18d82600a60109054906101000a900460ff1660010101608003615789565b156129e6578060ff166000111580156128ce575060038160ff1611155b156128dc578260020a8b019a505b8060ff166004111580156128f4575060078160ff1611155b15612902578260020a8a0199505b8060ff1660081115801561291a5750600b8160ff1611155b15612928578260020a890198505b8060ff16600c111580156129405750600f8160ff1611155b1561294e578260020a880197505b8060ff16601011158015612966575060138160ff1611155b15612974578260020a870196505b8060ff1660141115801561298c575060178160ff1611155b1561299a578260020a860195505b8060ff166018111580156129b25750601b8160ff1611155b156129c0578260020a850194505b8060ff16601c111580156129d85750601f8160ff1611155b156129e6578260020a840193505b82600101925082600414156129fa57600092505b600101612868565b50506001631000000090920263010000009093026210000090940262010000909502611000909602610100909702601090980298909801969096019490940192909201010101019392505050565b600c5481565b60606000806000612a68878787615885565b925082604051908082528060200260200182016040528015612a94578160200160208202803883390190505b509350600091508590505b84600101811215612b0957600081815260106020526040902060010154600160a060020a038881169116148015612adc5750612ada816116f3565b155b15612b0157808483815181101515612af057fe5b602090810290910101526001909101905b600101612a9f565b5050509392505050565b6000612b1e8561280c565b9050612b2981611737565b1515612b3457600080fd5b60008181526010602090815260409091208551612b5992600390920191870190615e58565b5060008181526010602090815260409091208451612b7f92600490920191860190615e58565b50600081815260106020908152604090912083516120cd92600590920191850190615e58565b6000806000806000600b60149054906101000a900460ff1615612bc757600080fd5b612bd08861280c565b9450612bdb85611737565b1515612be657600080fd5b600085815260106020526040902060010154600160a060020a03163314612c57576040805160e560020a62461bcd02815260206004820152601a60248201527f4f7065726174696f6e206e6f7420417574686f72697a65642121000000000000604482015290519081900360640190fd5b612c6288888861267b565b93508360001914158015612c7857508360011914155b1515612c8357600080fd5b600085815260106020908152604080832087845260070180835281842080546001608060020a031916815560018101805474ffffffffffffffffffffffffffffffffffffffffff191690558251808501938490528581529489905292529151612cf29260089092019190615e58565b506040805160208181018084526000808452898152601083528481208982526007019092529290209051612d2c9260059092019190615e58565b506040805160208181018084526000808452898152601083528481208982526007019092529290209051612d669260069092019190615e58565b506040805160208181018084526000808452898152601083528481208982526007908101909352939093209151612da293929091019190615e58565b50839250839150600090505b600b54600160ff60b060020a909204821688030116811215612fc4576000858152601060209081526040808320868452600701909152902060020154929150612dfe876080889003839003615789565b1515612efd57600085815260106020908152604080832086845260070190915290206004015415612e93576000858152601060209081526040808320868452600701909152808220600401548252902054612e5e90608060020a026158e4565b15612e8e576000858152601060209081526040808320868452600701909152902080546001608060020a03191690555b612ef8565b6000858152601060209081526040808320868452600701909152808220600301548252902054612ec890608060020a026158e4565b15612ef8576000858152601060209081526040808320868452600701909152902080546001608060020a03191690555b612fbc565b600085815260106020908152604080832086845260070190915290206003015415612f57576000858152601060209081526040808320868452600701909152808220600301548252902054612ec890608060020a026158e4565b6000858152601060209081526040808320868452600701909152808220600401548252902054612f8c90608060020a026158e4565b15612fbc576000858152601060209081526040808320868452600701909152902080546001608060020a03191690555b600101612dae565b5050505050505050565b600080612fda8361280c565b9050612fe5816116f3565b1515612ff45760019150613027565b600081815260106020526040902054608060020a026001608060020a03191615156130225760009150613027565b600191505b50919050565b600b54600160a060020a0316331461304457600080fd5b600a8054600b805460ff878703811660020a600d556001600655600080805260106020527f6e0956cda88cad152e89927e53611735b61a5c762d1428573c6931b0a5efcb0180546001608060020a0319908116608060020a9c8d90049081179092557f6e0956cda88cad152e89927e53611735b61a5c762d1428573c6931b0a5efcb02805433600160a060020a03199091161774ff00000000000000000000000000000000000000001990811670ff00000000000000000000000000000000199099169c86168e029c909c179c8d04851660a060020a02979097179096559990941690981790935560079190915560059290925576ff00000000000000000000000000000000000000000000191660b060020a94909216939093021775ff0000000000000000000000000000000000000000001916753000000000000000000000000000000000000000000017169055565b60035481565b600b54600160a060020a031681565b6000806131b78661280c565b91506131c282611737565b15156131cd57600080fd5b6131d886868661267b565b905080600019141580156131ee57508060011914155b15156131f957600080fd5b6000828152601060209081526040808320848452600701909152902060010154600160a060020a0316331461322d57600080fd5b60008281526010602090815260408083208484526007018252909120845161325d92600890920191860190615e58565b50505050505050565b60608060606000806132778861280c565b915061328282611737565b151561328d57600080fd5b61329888888861267b565b905080600019141580156132ae57508060011914155b15156132b957600080fd5b60008281526010602090815260408083208484526007908101835292819020600581018054835160026001831615610100026000190190921691909104601f81018690048602820186019094528381529094820193600690920192909185919083018282801561336a5780601f1061333f5761010080835404028352916020019161336a565b820191906000526020600020905b81548152906001019060200180831161334d57829003601f168201915b5050855460408051602060026001851615610100026000190190941693909304601f8101849004840282018401909252818152959850879450925084019050828280156133f85780601f106133cd576101008083540402835291602001916133f8565b820191906000526020600020905b8154815290600101906020018083116133db57829003601f168201915b5050845460408051602060026001851615610100026000190190941693909304601f8101849004840282018401909252818152959750869450925084019050828280156134865780601f1061345b57610100808354040283529160200191613486565b820191906000526020600020905b81548152906001019060200180831161346957829003601f168201915b50505050509050945094509450505093509350939050565b60045481565b6000806000600b60149054906101000a900460ff16156134c357600080fd5b600954341461351c576040805160e560020a62461bcd02815260206004820152600c60248201527f5072696365204572726f722e0000000000000000000000000000000000000000604482015290519081900360640190fd5b61352584611737565b151561353057600080fd5b600084815260106020526040902060010154600160a060020a031633146135c7576040805160e560020a62461bcd02815260206004820152602260248201527f596f7520617265206e6f7420746865206f776e6572206f662074686520626c6f60448201527f636b000000000000000000000000000000000000000000000000000000000000606482015290519081900360840190fd5b50600083815260106020526040808220600201805442908190039081016301e13380908101909255600b549251910192600160a060020a03909216913480156108fc02929091818181858888f1935050505015801561362a573d6000803e3d6000fd5b50505060009182525060106020526040902060020154600191565b606080606060006136558561280c565b905061366081611737565b151561366b57600080fd5b600081815260106020908152604091829020600381018054845160026001831615610100026000190190921691909104601f81018590048502820185019095528481529093600483019360059093019285919083018282801561370f5780601f106136e45761010080835404028352916020019161370f565b820191906000526020600020905b8154815290600101906020018083116136f257829003601f168201915b5050855460408051602060026001851615610100026000190190941693909304601f81018490048402820184019092528181529598508794509250840190508282801561379d5780601f106137725761010080835404028352916020019161379d565b820191906000526020600020905b81548152906001019060200180831161378057829003601f168201915b5050845460408051602060026001851615610100026000190190941693909304601f81018490048402820184019092528181529597508694509250840190508282801561382b5780601f106138005761010080835404028352916020019161382b565b820191906000526020600020905b81548152906001019060200180831161380e57829003601f168201915b50505050509050935093509350509193909250565b600061384b8361280c565b600081815260106020526040902054909150608060020a026001608060020a031916151561387857600080fd5b600081815260106020526040902060010154600160a060020a0316331461390f576040805160e560020a62461bcd02815260206004820152602260248201527f596f7520617265206e6f7420746865206f776e6572206f662074686520626c6f60448201527f636b000000000000000000000000000000000000000000000000000000000000606482015290519081900360840190fd5b60009081526010602052604090206001018054600160a060020a031916600160a060020a039290921691909117905550565b600080600080600080346672a57c275dc8006009540311158061396f57506009546672a57c275dc800013411155b15156139c5576040805160e560020a62461bcd02815260206004820152600b60248201527f5072696365206572726f72000000000000000000000000000000000000000000604482015290519081900360640190fd5b600094505b8415156102a557600d546007541415613a385760085415156139eb57600080fd5b600854600019016000908152600f6020908152604080832054808452601090925290912054909450608060020a029250613a248361592e565b613a2c615a72565b60019450849550613aeb565b613a43600c54613bca565b9150613a4e8261280c565b600081815260106020526040902054909150608060020a026001608060020a0319161515613add57600b54613a8e90839060b060020a900460ff166157f5565b600c80546001019055600b54604051600160a060020a03909116903480156108fc02916000818181858888f19350505050158015613ad0573d6000803e3d6000fd5b5060019450849550613aeb565b600c805460010190556139ca565b505050505090565b60065481565b60055481565b600154600054118015613b155750600254600054115b80613b315750600154600054108015613b315750600254600054105b15613b8457600054600154118015613b4c5750600254600154115b80613b685750600054600154108015613b685750600254600154105b15613b7857600254600455613b7f565b6001546004555b613b8b565b6000546004555b613b9b6005546004546005615a8f565b6509184e72a00002600955565b600b547501000000000000000000000000000000000000000000900460ff1681565b600a54600090608060020a02816002840615613c0257613bff82600a60109054906101000a900460ff166001016080036157b2565b91505b5060015b600a54600b5460ff608060020a909204821660b060020a90910482160381169082161015613c7d5760028160ff1660020a85811515613c4157fe5b04811515613c4b57fe5b0615613c7557613c728282600a60109054906101000a900460ff16600101016080036157b2565b91505b600101613c06565b5092915050565b60005481565b60015481565b600080613c9c8661280c565b9150613ca782611737565b15613cb157600080fd5b613cbc86868661267b565b90508060001914158015613cd257508060011914155b1515613cdd57600080fd5b6000828152601060209081526040808320848452600701909152902060010154600160a060020a03163314613d82576040805160e560020a62461bcd02815260206004820152602260248201527f596f7520617265206e6f7420746865206f776e6572206f662074686520626c6f60448201527f636b000000000000000000000000000000000000000000000000000000000000606482015290519081900360840190fd5b60009182526010602090815260408084209284526007909201905290206001018054600160a060020a031916600160a060020a0392909216919091179055505050565b60606000613dd28361280c565b9050613ddd81611737565b1515613de857600080fd5b60008181526010602090815260409182902060060180548351601f600260001961010060018616150201909316929092049182018490048402810184019094528084529091830182828015613e7e5780601f10613e5357610100808354040283529160200191613e7e565b820191906000526020600020905b815481529060010190602001808311613e6157829003601f168201915b5050505050915050919050565b600080600080600080613e9d886116f3565b15613ea757600080fd5b50505060009485525050601060209081526040808520938552600790930190525090208054600182015460028301546003840154600490940154608060020a90930294600160a060020a0383169460a060020a90930460ff169391929190565b60095481565b6011546000908190600160a060020a03161580613f3c5750601154613f3a90600160a060020a0316615ac4565b155b15613f4d57613f4b6000615ac8565b505b601160009054906101000a9004600160a060020a0316600160a060020a03166338cc48316040518163ffffffff1660e060020a028152600401602060405180830381600087803b158015613fa057600080fd5b505af1158015613fb4573d6000803e3d6000fd5b505050506040513d6020811015613fca57600080fd5b5051601254600160a060020a0390811691161461408057601160009054906101000a9004600160a060020a0316600160a060020a03166338cc48316040518163ffffffff1660e060020a028152600401602060405180830381600087803b15801561403457600080fd5b505af1158015614048573d6000803e3d6000fd5b505050506040513d602081101561405e57600080fd5b505160128054600160a060020a031916600160a060020a039092169190911790555b6012546040517f524f3889000000000000000000000000000000000000000000000000000000008152602060048201818152875160248401528751600160a060020a039094169363524f388993899383926044909201919085019080838360005b838110156140f95781810151838201526020016140e1565b50505050905090810190601f1680156141265780820380516001836020036101000a031916815260200191505b5092505050602060405180830381600087803b15801561414557600080fd5b505af1158015614159573d6000803e3d6000fd5b505050506040513d602081101561416f57600080fd5b50519050670de0b6b3a764000062030d403a02018111156141935760009150613c7d565b6012546040517fadf59f99000000000000000000000000000000000000000000000000000000008152600060048201818152606060248401908152885160648501528851600160a060020a039095169463adf59f99948794938b938b939192909160448201916084019060208701908083838b5b8381101561421f578181015183820152602001614207565b50505050905090810190601f16801561424c5780820380516001836020036101000a031916815260200191505b50838103825284518152845160209182019186019080838360005b8381101561427f578181015183820152602001614267565b50505050905090810190601f1680156142ac5780820380516001836020036101000a031916815260200191505b50955050505050506020604051808303818588803b1580156142cd57600080fd5b505af11580156142e1573d6000803e3d6000fd5b50505050506040513d60208110156142f857600080fd5b5051949350505050565b6000806000806000806143148961280c565b9450600093508792505b8660010183121561438957505060008381526010602090815260408083208484526008810183528184205480855260079091019092529091208054600190910154608060020a9091029060a060020a900460ff161561437e578360010193505b60019092019161431e565b5091979650505050505050565b601154600090600160a060020a031615806143c357506011546143c190600160a060020a0316615ac4565b155b156143d4576143d26000615ac8565b505b601160009054906101000a9004600160a060020a0316600160a060020a03166338cc48316040518163ffffffff1660e060020a028152600401602060405180830381600087803b15801561442757600080fd5b505af115801561443b573d6000803e3d6000fd5b505050506040513d602081101561445157600080fd5b5051601254600160a060020a0390811691161461450757601160009054906101000a9004600160a060020a0316600160a060020a03166338cc48316040518163ffffffff1660e060020a028152600401602060405180830381600087803b1580156144bb57600080fd5b505af11580156144cf573d6000803e3d6000fd5b505050506040513d60208110156144e557600080fd5b505160128054600160a060020a031916600160a060020a039092169190911790555b601260009054906101000a9004600160a060020a0316600160a060020a031663c281d19e6040518163ffffffff1660e060020a028152600401602060405180830381600087803b15801561455a57600080fd5b505af115801561456e573d6000803e3d6000fd5b505050506040513d602081101561458457600080fd5b505190505b90565b6000828180805b83518110156146e15783517f3000000000000000000000000000000000000000000000000000000000000000908590839081106145cc57fe5b90602001015160f860020a900460f860020a02600160f860020a03191610158015614642575083517f39000000000000000000000000000000000000000000000000000000000000009085908390811061462257fe5b90602001015160f860020a900460f860020a02600160f860020a03191611155b1561469b57811561466157851515614659576146e1565b600019909501945b600a830292506030848281518110151561467757fe5b90602001015160f860020a900460f860020a0260f860020a900403830192506146d9565b83818151811015156146a957fe5b90602001015160f860020a900460f860020a02600160f860020a031916602e60f860020a0214156146d957600191505b600101614593565b60008611156146f35785600a0a830292505b509095945050505050565b600080835b8381121561472857614714816116f3565b15614720578160010191505b600101614703565b509392505050565b6000806000614742878760ff16615dea565b9150614751858760ff16615dea565b90506001608060020a031982811690821614801561477557508360ff168660ff1611155b156147835760019250614788565b600092505b5050949350505050565b60008060008060008060006147a68a61280c565b95506147b186611737565b15156147bc57600080fd5b5060009350839250829150819050805b600b54600160ff60b060020a83048116750100000000000000000000000000000000000000000090930481169290920301168312801561480a575081155b15614b60576148308984600b60169054906101000a900460ff1601600101608003615789565b15156149c857600b54939450849360ff60b060020a909104811689036001011683141561490757600086815260106020908152604080832088845260070190915290205461488390608060020a026158e4565b15806148c1575060008681526010602090815260408083208884526007019091528082206003015482529020546148bf90608060020a026158e4565b155b806148fe575060008681526010602090815260408083208884526007019091528082206004015482529020546148fc90608060020a026158e4565b155b15614907575060015b600086815260106020908152604080832088845260070190915290205461493390608060020a026158e4565b1580156149685750600086815260106020908152604080832088845260070190915290206001015460a060020a900460ff1615155b15614971575060015b600086815260106020908152604080832088845260070190915290206003015415156149a057600191506149c3565b600086815260106020908152604080832088845260070190915290206003015493505b614b55565b600b54939450849360ff60b060020a9091048116890360010116831415614a99576000868152601060209081526040808320888452600701909152902054614a1590608060020a026158e4565b1580614a5357506000868152601060209081526040808320888452600701909152808220600301548252902054614a5190608060020a026158e4565b155b80614a9057506000868152601060209081526040808320888452600701909152808220600401548252902054614a8e90608060020a026158e4565b155b15614a99575060015b6000868152601060209081526040808320888452600701909152902054614ac590608060020a026158e4565b158015614afa5750600086815260106020908152604080832088845260070190915290206001015460a060020a900460ff1615155b15614b03575060015b60008681526010602090815260408083208884526007019091529020600401541515614b325760019150614b55565b600086815260106020908152604080832088845260070190915290206004015493505b8260010192506147cc565b8015614b6f5760009650614b74565b600196505b5050505050509392505050565b600080600080600080614b938a61280c565b9550614b9e86611737565b1515614ba957600080fd5b600086815260106020526040902060010154600160a060020a03163314614bcf57600080fd5b6000945060009350600092505b600b5460001960ff60b060020a90920482168a030116831215614e7857600b54614c19908a90600160ff60b060020a909204821687010116615dea565b9150614c3c8984600b60169054906101000a900460ff1601600101608003615789565b1515614d5a57600086815260106020908152604080832087845260070190915290206003015493945084931515614cce576000868152601060208181526040808420600a810180548b87526007909201845282862080546001608060020a031916608060020a8a041781556003018290558186529185206002018a9055938a9052919052805460010190559350614d55565b6000868152601060209081526040808320878452600701909152902054614cfa90608060020a026158e4565b15614d32576000868152601060209081526040808320878452600701909152902080546001608060020a031916608060020a84041790555b600086815260106020908152604080832088845260070190915290206003015493505b614e6d565b600086815260106020908152604080832087845260070190915290206004015493945084931515614de6576000868152601060208181526040808420600a810180548b87526007909201845282862080546001608060020a031916608060020a8a041781556004018290558186529185206002018a9055938a9052919052805460010190559350614e6d565b6000868152601060209081526040808320878452600701909152902054614e1290608060020a026158e4565b15614e4a576000868152601060209081526040808320878452600701909152902080546001608060020a031916608060020a84041790555b600086815260106020908152604080832088845260070190915290206004015493505b826001019250614bdc565b614e858989608003615789565b151561531957614e98898960ff16615dea565b6000878152601060209081526040808320600981015484526008810183528184208985526007909101909252909120600301549596508695919350915015156151455760008681526010602090815260408083208884526007019091529020600401541515614f34576000868152601060209081526040808320888452600701909152902080546001608060020a031916608060020a84041790555b60106000878152602001908152602001600020600a015493508360106000888152602001908152602001600020600701600087815260200190815260200160002060030181905550846010600088815260200190815260200160002060070160008681526020019081526020016000206002018190555060106000878152602001908152602001600020600a015460010160106000888152602001908152602001600020600a01819055508860106000888152602001908152602001600020600701600086815260200190815260200160002060000160006101000a8154816fffffffffffffffffffffffffffffffff0219169083608060020a900402179055508660106000888152602001908152602001600020600701600086815260200190815260200160002060010160006101000a815481600160a060020a030219169083600160a060020a031602179055508760106000888152602001908152602001600020600701600086815260200190815260200160002060010160146101000a81548160ff021916908360ff16021790555083601060008881526020019081526020016000206008016000601060008a81526020019081526020016000206009015481526020019081526020016000206000018190555060106000878152602001908152602001600020600901546001016010600088815260200190815260200160002060090181905550615314565b600086815260106020908152604080832088845260070190915290206003810154905490945061517a90608060020a026158e4565b156151b2576000868152601060209081526040808320888452600701909152902080546001608060020a031916608060020a84041790555b8860106000888152602001908152602001600020600701600086815260200190815260200160002060000160006101000a8154816fffffffffffffffffffffffffffffffff0219169083608060020a900402179055508660106000888152602001908152602001600020600701600086815260200190815260200160002060010160006101000a815481600160a060020a030219169083600160a060020a031602179055508760106000888152602001908152602001600020600701600086815260200190815260200160002060010160146101000a81548160ff021916908360ff16021790555083601060008881526020019081526020016000206008016000601060008a815260200190815260200160002060090154815260200190815260200160002060000181905550601060008781526020019081526020016000206009015460010160106000888152602001908152602001600020600901819055505b61577d565b6000868152601060209081526040808320878452600701909152902060040154939450849315156155ae576000868152601060209081526040808320888452600701909152902060030154151561539d576000868152601060209081526040808320888452600701909152902080546001608060020a031916608060020a84041790555b60106000878152602001908152602001600020600a015493508360106000888152602001908152602001600020600701600087815260200190815260200160002060040181905550846010600088815260200190815260200160002060070160008681526020019081526020016000206002018190555060106000878152602001908152602001600020600a015460010160106000888152602001908152602001600020600a01819055508860106000888152602001908152602001600020600701600086815260200190815260200160002060000160006101000a8154816fffffffffffffffffffffffffffffffff0219169083608060020a900402179055508660106000888152602001908152602001600020600701600086815260200190815260200160002060010160006101000a815481600160a060020a030219169083600160a060020a031602179055508760106000888152602001908152602001600020600701600086815260200190815260200160002060010160146101000a81548160ff021916908360ff16021790555083601060008881526020019081526020016000206008016000601060008a8152602001908152602001600020600901548152602001908152602001600020600001819055506010600087815260200190815260200160002060090154600101601060008881526020019081526020016000206009018190555061577d565b60008681526010602090815260408083208884526007019091529020600481015490549094506155e390608060020a026158e4565b1561561b576000868152601060209081526040808320888452600701909152902080546001608060020a031916608060020a84041790555b8860106000888152602001908152602001600020600701600086815260200190815260200160002060000160006101000a8154816fffffffffffffffffffffffffffffffff0219169083608060020a900402179055508660106000888152602001908152602001600020600701600086815260200190815260200160002060010160006101000a815481600160a060020a030219169083600160a060020a031602179055508760106000888152602001908152602001600020600701600086815260200190815260200160002060010160146101000a81548160ff021916908360ff16021790555083601060008881526020019081526020016000206008016000601060008a815260200190815260200160002060090154815260200190815260200160002060000181905550601060008781526020019081526020016000206009015460010160106000888152602001908152602001600020600901819055505b50505050505050505050565b600061579c608060020a60ff8416615e16565b929092166001608060020a031916151592915050565b60006157c5608060020a60ff8416615e16565b90921792915050565b6000806157ea6157e5608060020a60ff8616615e16565b615e27565b939093169392505050565b60006158008361280c565b600090815260106020526040902080546001608060020a031916608060020a909404939093178355506001808301805433600160a060020a03199091161774ff0000000000000000000000000000000000000000191660a060020a60ff949094169390930292909217909155426002830155600a909101819055600780549091019055565b600080835b836001018112156158db57600081815260106020526040902060010154600160a060020a0387811691161480156158c757506158c5816116f3565b155b156158d3578160010191505b60010161588a565b50949350505050565b6000805b6010811015613022578281601081106158fd57fe5b1a60f860020a02600160f860020a031916600060f860020a021415156159265760009150613027565b6001016158e8565b60006159398261280c565b600081815260106020818152604080842080546001608060020a031916608060020a890417815560018101805433600160a060020a031990911617808255600b5474ff00000000000000000000000000000000000000001990911660b060020a90910460ff1660a060020a02179055426002820155815180840192839052858152948690529290915291519293506159d79260069091019190615e58565b50604080516020818101808452600080845285815260109092529290209051615a069260039092019190615e58565b50604080516020818101808452600080845285815260109092529290209051615a359260049092019190615e58565b50604080516020818101808452600080845285815260109092529290209051615a649260059092019190615e58565b505060078054600101905550565b600880546000908152600f60205260408120558054600019019055565b600080600083600101600a0a86029150600a8583811515615aac57fe5b04600501811515615ab957fe5b049695505050505050565b3b90565b600080615ae8731d3b2638a7cc9f2cb3d298a3da7a90b67e5506ed615ac4565b1115615b595760118054600160a060020a031916731d3b2638a7cc9f2cb3d298a3da7a90b67e5506ed17905560408051808201909152600b81527f6574685f6d61696e6e65740000000000000000000000000000000000000000006020820152615b5190615e39565b506001611479565b6000615b7873c03a2615d5efaf5f49f60b7bb6583eaec212fdf1615ac4565b1115615be15760118054600160a060020a03191673c03a2615d5efaf5f49f60b7bb6583eaec212fdf117905560408051808201909152600c81527f6574685f726f707374656e3300000000000000000000000000000000000000006020820152615b5190615e39565b6000615c0073b7a07bcf2ba2f2703b24c0691b5278999c59ac7e615ac4565b1115615c695760118054600160a060020a03191673b7a07bcf2ba2f2703b24c0691b5278999c59ac7e17905560408051808201909152600981527f6574685f6b6f76616e00000000000000000000000000000000000000000000006020820152615b5190615e39565b6000615c8873146500cfd35b22e4a392fe0adc06de1a1368ed48615ac4565b1115615cf15760118054600160a060020a03191673146500cfd35b22e4a392fe0adc06de1a1368ed4817905560408051808201909152600b81527f6574685f72696e6b6562790000000000000000000000000000000000000000006020820152615b5190615e39565b6000615d10736f485c8bf6fc43ea212e93bbf8ce046c7f1cb475615ac4565b1115615d44575060118054600160a060020a031916736f485c8bf6fc43ea212e93bbf8ce046c7f1cb4751790556001611479565b6000615d637320e12a1f859b3feae5fb2a0a32c18f5a65555bbf615ac4565b1115615d97575060118054600160a060020a0319167320e12a1f859b3feae5fb2a0a32c18f5a65555bbf1790556001611479565b6000615db67351efaf4c8b3c9afbd5ab9f4bbc82784ab6ef8faa615ac4565b1115611475575060118054600160a060020a0319167351efaf4c8b3c9afbd5ab9f4bbc82784ab6ef8faa1790556001611479565b6000608060020a600019600284900a010281615e0a826080869003615e16565b94909416949350505050565b60020a608060020a91829004020290565b6000615e31615e4c565b909118919050565b80516119b7906013906020840190615e58565b6001608060020a031990565b828054600181600116156101000203166002900490600052602060002090601f016020900481019282601f10615e9957805160ff1916838001178555615ec6565b82800160010185558215615ec6579182015b82811115615ec6578251825591602001919060010190615eab565b50615ed2929150615ed6565b5090565b61458991905b80821115615ed25760008155600101615edc5600a165627a7a72305820d0a8c59da598fb4dd8bd5f665bfcb9785b2cbd5baf1afc5ff85603a45f810b480029",
  "source": "pragma solidity ^0.4.24;\r\n\r\nimport \"./InBlock_F.sol\";\r\nimport \"./InBlock_F_del.sol\";\r\nimport \"./usingOraclize.sol\";\r\n\r\ncontract InBlock is InBlock_F, InBlock_F_del, usingOraclize{\r\n\r\n\r\n//******************************************************* FUNCTIONS TO BE CALLED TO INITIALIZE THE CONTRACT *******************************************************\r\n\r\n//Constructor\r\n\r\nconstructor() public{\r\n\towner=msg.sender;  \r\n\tseed=0;\r\n\tID=0;\r\n\tstopped=true; \r\n\taskOracleCost=4374408000000000;\r\n\t//OAR = OraclizeAddrResolverI(0x6f485C8BF6fc43eA212E93BBF8ce046C7f1cb475); Testrpc\r\n\t//OAR = OraclizeAddrResolverI(0xc03A2615D5efaf5F49F60B7BB6583eaec212fdf1); Ropsten\r\n\tOAR = OraclizeAddrResolverI(0x1d3B2638a7cC9f2CB3D298A3DA7a90B67E5506ed);\t//mainnnet\r\n\tprefixPrice=1; //SECURITY UTILITY. EVERYONE HAS TO ASK FOR THE RIGHT PRICE FIRST. \r\n  }\r\n\r\n//x.Activate(\"0x2001d000000000000000000000000000\",20,32,300000)\r\n//To Set the Initial Block  \r\n function activateInBlock(bytes16 ip,uint8 _base_prefix_mask, uint8 _allocation_prefix_mask, uint price) onlyOwner() public {\r\n\tbase_prefix_mask=_base_prefix_mask;\r\n\tallocation_prefix_mask=_allocation_prefix_mask;\r\n\tmax_del=48;\r\n\tmax_allocable_blocks=(2**uint(_allocation_prefix_mask-_base_prefix_mask));\r\n\tID=1;\r\n\tblocks[0].ip_address=ip;\r\n\tblocks[0].o_addr=msg.sender;\r\n\tblocks[0].mask=base_prefix_mask;\r\n\tinitial_block=ip;\r\n\tID_Index=0;\r\n\tdollarsPrice=price;\r\n\tstopped=false;\r\n\r\n}\r\n\t\r\n//******************************************************* ORACLE FUNCTIONS *******************************************************\r\n\r\nbytes32 queryID1;\r\nbytes32 queryID2;\r\nbytes32 queryID3;\r\nevent Log(string text);\r\n\r\nfunction getOracleCurrencyConversion() public payable{\r\n\t//require(msg.value==askPriceCost, \"Price Error\");\r\n\t queryID1=oraclize_query(\"URL\",\"json(https://min-api.cryptocompare.com/data/price?fsym=ETH&tsyms=USD).USD\");\r\n\t queryID2=oraclize_query(\"URL\", \"json(https://api.kraken.com/0/public/Ticker?pair=ETHUSD).result.XETHZUSD.c.0\");\r\n\t queryID3=oraclize_query(\"URL\", \"json(https://api.coinmarketcap.com/v1/ticker/ethereum/).0.price_usd\");\r\n\t }\r\n\r\nfunction __callback(bytes32 _myid, string _result) {\r\n     require (msg.sender == oraclize_cbAddress());\r\n             if (_myid==queryID1) {\r\n                           Log(_result);\r\n        prefixPrice1 = parseInt(_result, 2);\r\n              }\r\n              if(_myid==queryID2) {\r\n                           Log(_result);\r\n        prefixPrice2 = parseInt(_result, 2);\r\n\t\t             }\r\n\t\t\t if(_myid==queryID3) {\r\n                           Log(_result);\r\n        prefixPrice3 = parseInt(_result, 2);   \r\n             }\r\n}\r\n\r\nfunction getPrefixCost()public{\r\n\r\nif((prefixPrice1>prefixPrice2 && prefixPrice1>prefixPrice3) || (prefixPrice1<prefixPrice2 && prefixPrice1<prefixPrice3)){\r\n\tif((prefixPrice2>prefixPrice1 && prefixPrice2>prefixPrice3) || (prefixPrice2<prefixPrice1 && prefixPrice2<prefixPrice3)){\r\n\t\tprice=prefixPrice3;\r\n\t}else price=prefixPrice2;\r\n}else price=prefixPrice1;\r\n\r\nprefixPrice=(divide(dollarsPrice,price,5))*(10**13);\r\n}\r\n\r\n//******************************************************* KEY ROLLOVER FUNCTIONS *******************************************************\r\n\r\n\r\n//Function to permit the change of the owner (the ones who recive the funds) \t\r\nfunction transferInBlockControl(address new_owner)onlyOwner(){\r\n\towner=new_owner;\r\n\t}\r\n\r\n//Function to permit the transfer of the ownership of a specific block \r\nfunction transferAllocatedPrefixControl(bytes16 ip,address new_owner) public {\r\n\t\t\r\n\t\tint id= int(reverseSparse(ip));\r\n\t\trequire(blocks[id].ip_address!=\"\");\r\n\t\trequire(msg.sender==blocks[id].o_addr, \"You are not the owner of the block\");\r\n\t\tblocks[id].o_addr=new_owner;\r\n\r\n}\r\n\r\nfunction transferDelegatedPrefixControl(bytes16 ip, bytes16 ip2, uint8 mask, address new_owner) public {\r\n\t\t\r\n\t\tint id= int(reverseSparse(ip));\r\n\t\trequire(!isPrefixInUse(id));\r\n\t\tint id2= del_find(ip, ip2, mask);\r\n\t\trequire(id2!=-1 && id2!=-2);\r\n\t\trequire(msg.sender==blocks[id].del_blocks[id2].o_addr, \"You are not the owner of the block\");\r\n\t\tblocks[id].del_blocks[id2].o_addr=new_owner;\r\n\r\n}\r\n\r\n//******************************************************* CONTRACT BALANCE FUNCTIONS *******************************************************\r\n\r\n\r\n//fallback function to permit everyone to give ether to the contract\r\nfunction pay () payable{}\r\n\r\n\r\n}",
  "sourcePath": "C:\\Users\\User\\Desktop\\InBlock_vPaper\\InBlock_v1_2\\contracts\\InBlock.sol",
  "compiler": {
    "name": "solc",
    "version": "0.4.24+commit.e67f0147.Emscripten.clang"
  },
  "schemaVersion": "2.0.1",
  "updatedAt": "2019-03-29T15:42:35.582Z"
}