{
  "contractName": "InBlock",
  "abi": [
    {
      "constant": true,
      "inputs": [],
      "name": "getAllocationCost",
      "outputs": [
        {
          "name": "",
          "type": "uint256"
        }
      ],
      "payable": false,
      "stateMutability": "view",
      "type": "function"
    },
    {
      "constant": true,
      "inputs": [],
      "name": "ID_expired",
      "outputs": [
        {
          "name": "",
          "type": "int256"
        }
      ],
      "payable": false,
      "stateMutability": "view",
      "type": "function"
    },
    {
      "constant": false,
      "inputs": [
        {
          "name": "ip_parent",
          "type": "bytes16"
        },
        {
          "name": "ip",
          "type": "bytes16"
        },
        {
          "name": "mask",
          "type": "uint8"
        },
        {
          "name": "uri",
          "type": "bytes"
        },
        {
          "name": "hashFunction",
          "type": "bytes"
        },
        {
          "name": "hash",
          "type": "bytes"
        }
      ],
      "name": "setDelegatedPrefixPolicyURI",
      "outputs": [],
      "payable": false,
      "stateMutability": "nonpayable",
      "type": "function"
    },
    {
      "constant": false,
      "inputs": [],
      "name": "getAllocation",
      "outputs": [
        {
          "name": "",
          "type": "bool"
        }
      ],
      "payable": true,
      "stateMutability": "payable",
      "type": "function"
    },
    {
      "constant": true,
      "inputs": [],
      "name": "allocation_prefix_mask",
      "outputs": [
        {
          "name": "",
          "type": "uint8"
        }
      ],
      "payable": false,
      "stateMutability": "view",
      "type": "function"
    },
    {
      "constant": true,
      "inputs": [],
      "name": "max_allocable_blocks",
      "outputs": [
        {
          "name": "",
          "type": "uint256"
        }
      ],
      "payable": false,
      "stateMutability": "view",
      "type": "function"
    },
    {
      "constant": true,
      "inputs": [
        {
          "name": "ip",
          "type": "bytes16"
        },
        {
          "name": "start",
          "type": "int256"
        },
        {
          "name": "stop",
          "type": "int256"
        }
      ],
      "name": "getIDsDelBlocks",
      "outputs": [
        {
          "name": "result",
          "type": "uint256[]"
        }
      ],
      "payable": false,
      "stateMutability": "view",
      "type": "function"
    },
    {
      "constant": true,
      "inputs": [
        {
          "name": "id",
          "type": "int256"
        }
      ],
      "name": "isAllocatedPrefixExpired",
      "outputs": [
        {
          "name": "",
          "type": "bool"
        }
      ],
      "payable": false,
      "stateMutability": "view",
      "type": "function"
    },
    {
      "constant": true,
      "inputs": [
        {
          "name": "id",
          "type": "int256"
        }
      ],
      "name": "isPrefixInUse",
      "outputs": [
        {
          "name": "",
          "type": "bool"
        }
      ],
      "payable": false,
      "stateMutability": "view",
      "type": "function"
    },
    {
      "constant": false,
      "inputs": [
        {
          "name": "id",
          "type": "int256"
        },
        {
          "name": "uri",
          "type": "bytes"
        },
        {
          "name": "hashFunction",
          "type": "bytes"
        },
        {
          "name": "hash",
          "type": "bytes"
        }
      ],
      "name": "setPolicyURIiD",
      "outputs": [],
      "payable": false,
      "stateMutability": "nonpayable",
      "type": "function"
    },
    {
      "constant": false,
      "inputs": [
        {
          "name": "_parent_ip",
          "type": "bytes16"
        },
        {
          "name": "del_ip",
          "type": "bytes16"
        },
        {
          "name": "bar",
          "type": "uint8"
        },
        {
          "name": "delegated_address",
          "type": "address"
        }
      ],
      "name": "delegatePrefix",
      "outputs": [],
      "payable": false,
      "stateMutability": "nonpayable",
      "type": "function"
    },
    {
      "constant": true,
      "inputs": [
        {
          "name": "id",
          "type": "int256"
        },
        {
          "name": "id2",
          "type": "int256"
        }
      ],
      "name": "getDelegatedPrefixRoaID",
      "outputs": [
        {
          "name": "",
          "type": "bytes16"
        },
        {
          "name": "",
          "type": "bytes"
        },
        {
          "name": "",
          "type": "uint8"
        }
      ],
      "payable": false,
      "stateMutability": "view",
      "type": "function"
    },
    {
      "constant": true,
      "inputs": [],
      "name": "prefixPrice3",
      "outputs": [
        {
          "name": "",
          "type": "uint256"
        }
      ],
      "payable": false,
      "stateMutability": "view",
      "type": "function"
    },
    {
      "constant": false,
      "inputs": [],
      "name": "prefixAllocationResume",
      "outputs": [],
      "payable": false,
      "stateMutability": "nonpayable",
      "type": "function"
    },
    {
      "constant": true,
      "inputs": [],
      "name": "getRecovered",
      "outputs": [
        {
          "name": "result",
          "type": "uint256[]"
        }
      ],
      "payable": false,
      "stateMutability": "view",
      "type": "function"
    },
    {
      "constant": true,
      "inputs": [],
      "name": "ID_Index",
      "outputs": [
        {
          "name": "",
          "type": "int256"
        }
      ],
      "payable": false,
      "stateMutability": "view",
      "type": "function"
    },
    {
      "constant": true,
      "inputs": [
        {
          "name": "ip_parent",
          "type": "bytes16"
        },
        {
          "name": "ip",
          "type": "bytes16"
        },
        {
          "name": "mask",
          "type": "uint8"
        }
      ],
      "name": "getDelegatedPrefixRoa",
      "outputs": [
        {
          "name": "",
          "type": "bytes"
        }
      ],
      "payable": false,
      "stateMutability": "view",
      "type": "function"
    },
    {
      "constant": false,
      "inputs": [
        {
          "name": "parent_ip",
          "type": "bytes16"
        },
        {
          "name": "del_ip",
          "type": "bytes16"
        },
        {
          "name": "mask",
          "type": "uint8"
        }
      ],
      "name": "revokeDelegatedPrefix",
      "outputs": [],
      "payable": false,
      "stateMutability": "nonpayable",
      "type": "function"
    },
    {
      "constant": true,
      "inputs": [
        {
          "name": "id",
          "type": "int256"
        },
        {
          "name": "start",
          "type": "int256"
        },
        {
          "name": "stop",
          "type": "int256"
        }
      ],
      "name": "getIDsDelBlocksID",
      "outputs": [
        {
          "name": "result",
          "type": "uint256[]"
        }
      ],
      "payable": false,
      "stateMutability": "view",
      "type": "function"
    },
    {
      "constant": true,
      "inputs": [
        {
          "name": "id",
          "type": "int256"
        }
      ],
      "name": "getItem",
      "outputs": [
        {
          "name": "ip",
          "type": "bytes16"
        },
        {
          "name": "o",
          "type": "address"
        },
        {
          "name": "mask",
          "type": "uint8"
        },
        {
          "name": "_date",
          "type": "uint256"
        },
        {
          "name": "a",
          "type": "bytes"
        },
        {
          "name": "b",
          "type": "bytes"
        },
        {
          "name": "c",
          "type": "bytes"
        },
        {
          "name": "d",
          "type": "bytes"
        }
      ],
      "payable": false,
      "stateMutability": "view",
      "type": "function"
    },
    {
      "constant": true,
      "inputs": [
        {
          "name": "ip",
          "type": "bytes16"
        },
        {
          "name": "ip2",
          "type": "bytes16"
        },
        {
          "name": "_mask",
          "type": "uint8"
        }
      ],
      "name": "del_find",
      "outputs": [
        {
          "name": "",
          "type": "int256"
        }
      ],
      "payable": false,
      "stateMutability": "view",
      "type": "function"
    },
    {
      "constant": true,
      "inputs": [],
      "name": "base_prefix_mask",
      "outputs": [
        {
          "name": "",
          "type": "uint8"
        }
      ],
      "payable": false,
      "stateMutability": "view",
      "type": "function"
    },
    {
      "constant": false,
      "inputs": [
        {
          "name": "id",
          "type": "int256"
        }
      ],
      "name": "renewAllocationID",
      "outputs": [
        {
          "name": "",
          "type": "bool"
        },
        {
          "name": "",
          "type": "uint256"
        }
      ],
      "payable": true,
      "stateMutability": "payable",
      "type": "function"
    },
    {
      "constant": true,
      "inputs": [],
      "name": "initial_block",
      "outputs": [
        {
          "name": "",
          "type": "bytes16"
        }
      ],
      "payable": false,
      "stateMutability": "view",
      "type": "function"
    },
    {
      "constant": true,
      "inputs": [],
      "name": "stopped",
      "outputs": [
        {
          "name": "",
          "type": "bool"
        }
      ],
      "payable": false,
      "stateMutability": "view",
      "type": "function"
    },
    {
      "constant": true,
      "inputs": [
        {
          "name": "input",
          "type": "bytes16"
        }
      ],
      "name": "reverseSparse",
      "outputs": [
        {
          "name": "num",
          "type": "uint256"
        }
      ],
      "payable": false,
      "stateMutability": "view",
      "type": "function"
    },
    {
      "constant": true,
      "inputs": [
        {
          "name": "id",
          "type": "int256"
        }
      ],
      "name": "getIDsDelBlocksID2",
      "outputs": [
        {
          "name": "result",
          "type": "uint256[]"
        }
      ],
      "payable": false,
      "stateMutability": "view",
      "type": "function"
    },
    {
      "constant": true,
      "inputs": [],
      "name": "seed",
      "outputs": [
        {
          "name": "",
          "type": "uint256"
        }
      ],
      "payable": false,
      "stateMutability": "view",
      "type": "function"
    },
    {
      "constant": true,
      "inputs": [],
      "name": "securityPrice",
      "outputs": [
        {
          "name": "",
          "type": "uint256"
        }
      ],
      "payable": false,
      "stateMutability": "view",
      "type": "function"
    },
    {
      "constant": false,
      "inputs": [],
      "name": "prefixAllocationStop",
      "outputs": [],
      "payable": false,
      "stateMutability": "nonpayable",
      "type": "function"
    },
    {
      "constant": true,
      "inputs": [
        {
          "name": "a",
          "type": "address"
        },
        {
          "name": "start",
          "type": "int256"
        },
        {
          "name": "stop",
          "type": "int256"
        }
      ],
      "name": "getIDsBlocksAddress",
      "outputs": [
        {
          "name": "result",
          "type": "uint256[]"
        }
      ],
      "payable": false,
      "stateMutability": "view",
      "type": "function"
    },
    {
      "constant": false,
      "inputs": [
        {
          "name": "id",
          "type": "int256"
        },
        {
          "name": "ASes",
          "type": "bytes"
        }
      ],
      "name": "setRoaID",
      "outputs": [
        {
          "name": "",
          "type": "int256"
        }
      ],
      "payable": false,
      "stateMutability": "nonpayable",
      "type": "function"
    },
    {
      "constant": true,
      "inputs": [
        {
          "name": "id",
          "type": "int256"
        }
      ],
      "name": "getRoa",
      "outputs": [
        {
          "name": "",
          "type": "bytes16"
        },
        {
          "name": "",
          "type": "bytes"
        },
        {
          "name": "",
          "type": "uint8"
        }
      ],
      "payable": false,
      "stateMutability": "view",
      "type": "function"
    },
    {
      "constant": true,
      "inputs": [],
      "name": "owner",
      "outputs": [
        {
          "name": "",
          "type": "address"
        }
      ],
      "payable": false,
      "stateMutability": "view",
      "type": "function"
    },
    {
      "constant": true,
      "inputs": [
        {
          "name": "ip",
          "type": "bytes16"
        }
      ],
      "name": "getRoa",
      "outputs": [
        {
          "name": "",
          "type": "bytes"
        }
      ],
      "payable": false,
      "stateMutability": "view",
      "type": "function"
    },
    {
      "constant": true,
      "inputs": [],
      "name": "oraclesValidity",
      "outputs": [
        {
          "name": "",
          "type": "uint256"
        }
      ],
      "payable": false,
      "stateMutability": "view",
      "type": "function"
    },
    {
      "constant": true,
      "inputs": [
        {
          "name": "ip_parent",
          "type": "bytes16"
        },
        {
          "name": "ip",
          "type": "bytes16"
        },
        {
          "name": "mask",
          "type": "uint8"
        }
      ],
      "name": "getDelegatedPrefixPolicyURI",
      "outputs": [
        {
          "name": "",
          "type": "bytes"
        },
        {
          "name": "",
          "type": "bytes"
        },
        {
          "name": "",
          "type": "bytes"
        }
      ],
      "payable": false,
      "stateMutability": "view",
      "type": "function"
    },
    {
      "constant": true,
      "inputs": [],
      "name": "price",
      "outputs": [
        {
          "name": "",
          "type": "uint256"
        }
      ],
      "payable": false,
      "stateMutability": "view",
      "type": "function"
    },
    {
      "constant": true,
      "inputs": [
        {
          "name": "start",
          "type": "int256"
        },
        {
          "name": "stop",
          "type": "int256"
        }
      ],
      "name": "getIDsPrefixExpired",
      "outputs": [
        {
          "name": "result",
          "type": "uint256[]"
        }
      ],
      "payable": false,
      "stateMutability": "view",
      "type": "function"
    },
    {
      "constant": false,
      "inputs": [
        {
          "name": "ip",
          "type": "bytes16"
        }
      ],
      "name": "getSequentialAllocation",
      "outputs": [
        {
          "name": "",
          "type": "bool"
        }
      ],
      "payable": true,
      "stateMutability": "payable",
      "type": "function"
    },
    {
      "constant": false,
      "inputs": [
        {
          "name": "ip",
          "type": "bytes16"
        }
      ],
      "name": "getPolicyURI",
      "outputs": [
        {
          "name": "",
          "type": "bytes"
        },
        {
          "name": "",
          "type": "bytes"
        },
        {
          "name": "",
          "type": "bytes"
        }
      ],
      "payable": false,
      "stateMutability": "nonpayable",
      "type": "function"
    },
    {
      "constant": true,
      "inputs": [],
      "name": "ID",
      "outputs": [
        {
          "name": "",
          "type": "int256"
        }
      ],
      "payable": false,
      "stateMutability": "view",
      "type": "function"
    },
    {
      "constant": true,
      "inputs": [],
      "name": "dollarsPrice",
      "outputs": [
        {
          "name": "",
          "type": "uint256"
        }
      ],
      "payable": false,
      "stateMutability": "view",
      "type": "function"
    },
    {
      "constant": true,
      "inputs": [
        {
          "name": "start",
          "type": "int256"
        },
        {
          "name": "stop",
          "type": "int256"
        }
      ],
      "name": "getIDsAssignedBlocks",
      "outputs": [
        {
          "name": "result",
          "type": "uint256[]"
        }
      ],
      "payable": false,
      "stateMutability": "view",
      "type": "function"
    },
    {
      "constant": false,
      "inputs": [
        {
          "name": "ip_parent",
          "type": "bytes16"
        },
        {
          "name": "ip",
          "type": "bytes16"
        },
        {
          "name": "mask",
          "type": "uint8"
        },
        {
          "name": "ASes",
          "type": "bytes"
        }
      ],
      "name": "setDelegatedPrefixRoa",
      "outputs": [],
      "payable": false,
      "stateMutability": "nonpayable",
      "type": "function"
    },
    {
      "constant": true,
      "inputs": [],
      "name": "max_del",
      "outputs": [
        {
          "name": "",
          "type": "uint8"
        }
      ],
      "payable": false,
      "stateMutability": "view",
      "type": "function"
    },
    {
      "constant": true,
      "inputs": [
        {
          "name": "id",
          "type": "uint256"
        }
      ],
      "name": "sparse",
      "outputs": [
        {
          "name": "",
          "type": "bytes16"
        }
      ],
      "payable": false,
      "stateMutability": "view",
      "type": "function"
    },
    {
      "constant": true,
      "inputs": [],
      "name": "prefixPrice1",
      "outputs": [
        {
          "name": "",
          "type": "uint256"
        }
      ],
      "payable": false,
      "stateMutability": "view",
      "type": "function"
    },
    {
      "constant": false,
      "inputs": [
        {
          "name": "id1",
          "type": "int256"
        },
        {
          "name": "id2",
          "type": "int256"
        },
        {
          "name": "ASes",
          "type": "bytes"
        }
      ],
      "name": "setDelegatedPrefixRoAID",
      "outputs": [],
      "payable": false,
      "stateMutability": "nonpayable",
      "type": "function"
    },
    {
      "constant": true,
      "inputs": [],
      "name": "prefixPrice2",
      "outputs": [
        {
          "name": "",
          "type": "uint256"
        }
      ],
      "payable": false,
      "stateMutability": "view",
      "type": "function"
    },
    {
      "constant": true,
      "inputs": [
        {
          "name": "id",
          "type": "int256"
        },
        {
          "name": "id2",
          "type": "int256"
        }
      ],
      "name": "getDelBlockID",
      "outputs": [
        {
          "name": "",
          "type": "bytes16"
        },
        {
          "name": "",
          "type": "address"
        },
        {
          "name": "",
          "type": "uint8"
        },
        {
          "name": "",
          "type": "int256"
        },
        {
          "name": "",
          "type": "int256"
        },
        {
          "name": "",
          "type": "int256"
        }
      ],
      "payable": false,
      "stateMutability": "view",
      "type": "function"
    },
    {
      "constant": false,
      "inputs": [
        {
          "name": "id",
          "type": "int256"
        }
      ],
      "name": "recoverExpiredAllocation",
      "outputs": [],
      "payable": false,
      "stateMutability": "nonpayable",
      "type": "function"
    },
    {
      "inputs": [],
      "payable": false,
      "stateMutability": "nonpayable",
      "type": "constructor"
    },
    {
      "anonymous": false,
      "inputs": [
        {
          "indexed": false,
          "name": "text",
          "type": "string"
        }
      ],
      "name": "Log",
      "type": "event"
    },
    {
      "anonymous": false,
      "inputs": [
        {
          "indexed": true,
          "name": "_from",
          "type": "address"
        },
        {
          "indexed": false,
          "name": "_value",
          "type": "uint256"
        },
        {
          "indexed": false,
          "name": "id1",
          "type": "int256"
        },
        {
          "indexed": false,
          "name": "id2",
          "type": "int256"
        }
      ],
      "name": "delegatedPrefixRoaEvent",
      "type": "event"
    },
    {
      "anonymous": false,
      "inputs": [
        {
          "indexed": true,
          "name": "_from",
          "type": "address"
        },
        {
          "indexed": false,
          "name": "_value",
          "type": "uint256"
        },
        {
          "indexed": false,
          "name": "id",
          "type": "int256"
        }
      ],
      "name": "setRoaEvent",
      "type": "event"
    },
    {
      "constant": false,
      "inputs": [
        {
          "name": "ip",
          "type": "bytes16"
        },
        {
          "name": "_base_prefix_mask",
          "type": "uint8"
        },
        {
          "name": "_allocation_prefix_mask",
          "type": "uint8"
        },
        {
          "name": "price_local",
          "type": "uint256"
        }
      ],
      "name": "activateInBlock",
      "outputs": [],
      "payable": false,
      "stateMutability": "nonpayable",
      "type": "function"
    },
    {
      "constant": true,
      "inputs": [],
      "name": "askOracleCost",
      "outputs": [
        {
          "name": "",
          "type": "uint256"
        }
      ],
      "payable": false,
      "stateMutability": "view",
      "type": "function"
    },
    {
      "constant": false,
      "inputs": [],
      "name": "getOracleCurrencyConversion",
      "outputs": [],
      "payable": true,
      "stateMutability": "payable",
      "type": "function"
    },
    {
      "constant": false,
      "inputs": [
        {
          "name": "_myid",
          "type": "bytes32"
        },
        {
          "name": "_result",
          "type": "string"
        }
      ],
      "name": "__callback",
      "outputs": [],
      "payable": false,
      "stateMutability": "nonpayable",
      "type": "function"
    },
    {
      "constant": false,
      "inputs": [
        {
          "name": "myid",
          "type": "bytes32"
        },
        {
          "name": "result",
          "type": "string"
        },
        {
          "name": "proof",
          "type": "bytes"
        }
      ],
      "name": "__callback",
      "outputs": [],
      "payable": false,
      "stateMutability": "nonpayable",
      "type": "function"
    },
    {
      "constant": false,
      "inputs": [],
      "name": "computeAllocationCost",
      "outputs": [],
      "payable": false,
      "stateMutability": "nonpayable",
      "type": "function"
    },
    {
      "constant": false,
      "inputs": [
        {
          "name": "new_owner",
          "type": "address"
        }
      ],
      "name": "transferInBlockControl",
      "outputs": [],
      "payable": false,
      "stateMutability": "nonpayable",
      "type": "function"
    },
    {
      "constant": false,
      "inputs": [
        {
          "name": "ip",
          "type": "bytes16"
        },
        {
          "name": "new_owner",
          "type": "address"
        }
      ],
      "name": "transferAllocatedPrefixControl",
      "outputs": [],
      "payable": false,
      "stateMutability": "nonpayable",
      "type": "function"
    },
    {
      "constant": false,
      "inputs": [
        {
          "name": "ip",
          "type": "bytes16"
        },
        {
          "name": "ip2",
          "type": "bytes16"
        },
        {
          "name": "mask",
          "type": "uint8"
        },
        {
          "name": "new_owner",
          "type": "address"
        }
      ],
      "name": "transferDelegatedPrefixControl",
      "outputs": [],
      "payable": false,
      "stateMutability": "nonpayable",
      "type": "function"
    },
    {
      "constant": false,
      "inputs": [],
      "name": "pay",
      "outputs": [],
      "payable": true,
      "stateMutability": "payable",
      "type": "function"
    }
  ],
  "bytecode": "0x608060405234801561001057600080fd5b50600c80546000600d81905560075560a060020a60ff0219600160a060020a0319918216331716740100000000000000000000000000000000000000001790915560128054909116736f485c8bf6fc43ea212e93bbf8ce046c7f1cb475179055616c4780620000806000396000f3006080604052600436106102c65763ffffffff60e060020a60003504166304389a0181146102cb57806306cd8b75146102f257806308250c51146103075780630c93e05f146103115780630c9e1e8e1461040057806315ec41e71461041c5780631a7f57ad1461043d5780631b9265b8146104685780631ba66e3a146104705780632059b40d146104855780632129b23b1461049a578063233f97561461051257806325b2d85e1461052a57806327dc297e146105425780632d993acf146105a05780632e53c1211461067a578063301e2853146106b457806334725c76146107635780633734c43b1461077857806337c454e91461078d57806338bbfa50146107a25780633ae5e3071461083e57806346ad54d2146108535780634be4926f146108f65780635c6d2bc9146109245780636e53d06514610942578063702335e614610b5e578063706c3eae14610b8c578063737298d714610ba1578063743d9ff814610bc757806375f12b2114610bf9578063778193a114610c0e5780637c08049b14610c305780637d94792a14610c485780637f6d784b14610c5d5780637fe68b3114610c7257806380f90eda14610c8757806385897ffa14610cae57806387eee75014610d0c5780638b8f238714610d245780638c2a8c1014610d555780638da5cb5b14610d6a5780638e1a9b1314610d9b5780638fceb61814610dbd5780639c68daeb14610dd2578063a035b1fe14610f44578063a09cc3ed14610f59578063aa0af96e14610f74578063aea6197414610f89578063af16e99014610fab578063b3cea21714610fd9578063b5820d7514610fee578063be90e17014611003578063c0c2ce561461101e578063c5ba2bd414611091578063d0db65ce146110a6578063ecafa252146110be578063f31a6df8146110d3578063f68d2d5b14611133578063f9bd3e5214611148578063fe68628314611182578063ffbc9056146111e5575b600080fd5b3480156102d757600080fd5b506102e06111fd565b60408051918252519081900360200190f35b3480156102fe57600080fd5b506102e061127e565b61030f611284565b005b34801561031d57600080fd5b50604080516020601f60643560048181013592830184900484028501840190955281845261030f946001608060020a03198135811695602480359092169560ff604435169536956084940191819084018382808284375050604080516020601f89358b018035918201839004830284018301909452808352979a99988101979196509182019450925082915084018382808284375050604080516020601f89358b018035918201839004830284018301909452808352979a9998810197919650918201945092508291508401838280828437509497506114f99650505050505050565b6104086115e4565b604080519115158252519081900360200190f35b34801561042857600080fd5b5061030f600160a060020a0360043516611807565b34801561044957600080fd5b50610452611840565b6040805160ff9092168252519081900360200190f35b61030f611850565b34801561047c57600080fd5b5061030f611852565b34801561049157600080fd5b506102e0611a81565b3480156104a657600080fd5b506104c26001608060020a031960043516602435604435611a87565b60408051602080825283518183015283519192839290830191858101910280838360005b838110156104fe5781810151838201526020016104e6565b505050509050019250505060405180910390f35b34801561051e57600080fd5b50610408600435611b71565b34801561053657600080fd5b50610408600435611bbe565b34801561054e57600080fd5b5060408051602060046024803582810135601f810185900485028601850190965285855261030f958335953695604494919390910191908190840183828082843750949750611c0c9650505050505050565b3480156105ac57600080fd5b5060408051602060046024803582810135601f810185900485028601850190965285855261030f95833595369560449491939091019190819084018382808284375050604080516020601f89358b018035918201839004830284018301909452808352979a99988101979196509182019450925082915084018382808284375050604080516020601f89358b018035918201839004830284018301909452808352979a999881019791965091820194509250829150840183828082843750949750611e5d9650505050505050565b34801561068657600080fd5b5061030f6001608060020a03196004358116906024351660ff60443516600160a060020a0360643516611ee9565b3480156106c057600080fd5b506106cf6004356024356120f3565b604080516001608060020a03198516815260ff831691810191909152606060208083018281528551928401929092528451608084019186019080838360005b8381101561072657818101518382015260200161070e565b50505050905090810190601f1680156107535780820380516001836020036101000a031916815260200191505b5094505050505060405180910390f35b34801561076f57600080fd5b506102e0612205565b34801561078457600080fd5b5061030f61220b565b34801561079957600080fd5b506104c2612254565b3480156107ae57600080fd5b5060408051602060046024803582810135601f810185900485028601850190965285855261030f95833595369560449491939091019190819084018382808284375050604080516020601f89358b018035918201839004830284018301909452808352979a9998810197919650918201945092508291508401838280828437509497506122d99650505050505050565b34801561084a57600080fd5b506102e06122de565b34801561085f57600080fd5b506108816001608060020a03196004358116906024351660ff604435166122e4565b6040805160208082528351818301528351919283929083019185019080838360005b838110156108bb5781810151838201526020016108a3565b50505050905090810190601f1680156108e85780820380516001836020036101000a031916815260200191505b509250505060405180910390f35b34801561090257600080fd5b5061030f6001608060020a03196004358116906024351660ff604435166123e5565b34801561093057600080fd5b506104c260043560243560443561280e565b34801561094e57600080fd5b5061095a6004356128eb565b60405180896fffffffffffffffffffffffffffffffff19166fffffffffffffffffffffffffffffffff1916815260200188600160a060020a0316600160a060020a031681526020018760ff1660ff16815260200186815260200180602001806020018060200180602001858103855289818151815260200191508051906020019080838360005b838110156109f95781810151838201526020016109e1565b50505050905090810190601f168015610a265780820380516001836020036101000a031916815260200191505b5085810384528851815288516020918201918a019080838360005b83811015610a59578181015183820152602001610a41565b50505050905090810190601f168015610a865780820380516001836020036101000a031916815260200191505b50858103835287518152875160209182019189019080838360005b83811015610ab9578181015183820152602001610aa1565b50505050905090810190601f168015610ae65780820380516001836020036101000a031916815260200191505b50858103825286518152865160209182019188019080838360005b83811015610b19578181015183820152602001610b01565b50505050905090810190601f168015610b465780820380516001836020036101000a031916815260200191505b509c5050505050505050505050505060405180910390f35b348015610b6a57600080fd5b506102e06001608060020a03196004358116906024351660ff60443516612ba4565b348015610b9857600080fd5b50610452612d09565b610bac600435612d19565b60408051921515835260208301919091528051918290030190f35b348015610bd357600080fd5b50610bdc612f33565b604080516001608060020a03199092168252519081900360200190f35b348015610c0557600080fd5b50610408612f3f565b348015610c1a57600080fd5b506102e06001608060020a031960043516612f4f565b348015610c3c57600080fd5b506104c2600435613193565b348015610c5457600080fd5b506102e0613248565b348015610c6957600080fd5b506102e061324e565b348015610c7e57600080fd5b5061030f613254565b348015610c9357600080fd5b506104c2600160a060020a036004351660243560443561328b565b348015610cba57600080fd5b5060408051602060046024803582810135601f81018590048502860185019096528585526102e095833595369560449491939091019190819084018382808284375094975061333e9650505050505050565b348015610d1857600080fd5b506106cf6004356133e1565b348015610d3057600080fd5b5061030f6001608060020a03196004351660ff602435811690604435166064356134c9565b348015610d6157600080fd5b506102e061363f565b348015610d7657600080fd5b50610d7f613670565b60408051600160a060020a039092168252519081900360200190f35b348015610da757600080fd5b506108816001608060020a03196004351661367f565b348015610dc957600080fd5b506102e0613746565b348015610dde57600080fd5b50610e006001608060020a03196004358116906024351660ff6044351661374c565b60405180806020018060200180602001848103845287818151815260200191508051906020019080838360005b83811015610e45578181015183820152602001610e2d565b50505050905090810190601f168015610e725780820380516001836020036101000a031916815260200191505b50848103835286518152865160209182019188019080838360005b83811015610ea5578181015183820152602001610e8d565b50505050905090810190601f168015610ed25780820380516001836020036101000a031916815260200191505b50848103825285518152855160209182019187019080838360005b83811015610f05578181015183820152602001610eed565b50505050905090810190601f168015610f325780820380516001836020036101000a031916815260200191505b50965050505050505060405180910390f35b348015610f5057600080fd5b506102e0613984565b348015610f6557600080fd5b506104c260043560243561398a565b6104086001608060020a031960043516613a19565b348015610f9557600080fd5b50610e006001608060020a031960043516613d5d565b348015610fb757600080fd5b5061030f6001608060020a031960043516600160a060020a0360243516613f58565b348015610fe557600080fd5b506102e0614059565b348015610ffa57600080fd5b506102e061405f565b34801561100f57600080fd5b506104c2600435602435614065565b34801561102a57600080fd5b50604080516020601f60643560048181013592830184900484028501840190955281845261030f946001608060020a03198135811695602480359092169560ff60443516953695608494019181908401838280828437509497506141149650505050505050565b34801561109d57600080fd5b506104526141cf565b3480156110b257600080fd5b50610bdc6004356141f1565b3480156110ca57600080fd5b506102e06142ab565b3480156110df57600080fd5b50604080516020600460443581810135601f810184900484028501840190955284845261030f9482359460248035953695946064949201919081908401838280828437509497506142b19650505050505050565b34801561113f57600080fd5b506102e0614391565b34801561115457600080fd5b5061030f6001608060020a03196004358116906024351660ff60443516600160a060020a0360643516614397565b34801561118e57600080fd5b5061119d6004356024356144cc565b604080516001608060020a03199097168752600160a060020a03909516602087015260ff909316858501526060850191909152608084015260a0830152519081900360c00190f35b3480156111f157600080fd5b5061030f600435614548565b336000908152600a6020526040812060010154421115611269576040805160e560020a62461bcd0281526020600482015260346024820152600080516020616bfc8339815191526044820152600080516020616bdc833981519152606482015290519081900360840190fd5b50336000908152600a60205260409020545b90565b60095481565b61128c61363f565b34146112e2576040805160e560020a62461bcd02815260206004820152600b60248201527f5072696365204572726f72000000000000000000000000000000000000000000604482015290519081900360640190fd5b61138c60408051908101604052806003815260200160ea60020a6215549302815250608060405190810160405280604981526020017f6a736f6e2868747470733a2f2f6d696e2d6170692e63727970746f636f6d706181526020017f72652e636f6d2f646174612f70726963653f6673796d3d455448267473796d7381526020017f3d555344292e555344000000000000000000000000000000000000000000000081525061468c565b6017816000191690555061144060408051908101604052806003815260200160ea60020a6215549302815250608060405190810160405280604c81526020017f6a736f6e2868747470733a2f2f6170692e6b72616b656e2e636f6d2f302f707581526020017f626c69632f5469636b65723f706169723d455448555344292e726573756c742e81526020017f584554485a5553442e632e30000000000000000000000000000000000000000081525061468c565b601881600019169055506114f460408051908101604052806003815260200160ea60020a6215549302815250608060405190810160405280604381526020017f6a736f6e2868747470733a2f2f6170692e636f696e6d61726b65746361702e6381526020017f6f6d2f76312f7469636b65722f657468657265756d2f292e302e70726963655f81526020017f757364000000000000000000000000000000000000000000000000000000000081525061468c565b601955565b60008061150588612f4f565b915061151082611bbe565b151561151b57600080fd5b611526888888612ba4565b9050806000191415801561153c57508060011914155b151561154757600080fd5b60008281526011602090815260408083208484526007018252909120865161157792600590920191880190616b43565b506000828152601160209081526040808320848452600701825290912085516115a892600690920191870190616b43565b50600082815260116020908152604080832084845260079081018352922085516115d9939190910191860190616b43565b505050505050505050565b600080600080600080600c60149054906101000a900460ff161561160757600080fd5b336000908152600a6020526040902060010154421115611673576040805160e560020a62461bcd0281526020600482015260346024820152600080516020616bfc8339815191526044820152600080516020616bdc833981519152606482015290519081900360840190fd5b336000908152600a602052604090205434146116d9576040805160e560020a62461bcd02815260206004820152600b60248201527f5072696365206572726f72000000000000000000000000000000000000000000604482015290519081900360640190fd5b600094505b8415156102c657600e54600854141561174c5760095415156116ff57600080fd5b60095460001901600090815260106020908152604080832054808452601190925290912054909450608060020a02925061173883614a81565b611740614bc5565b600194508495506117ff565b611757600d546141f1565b915061176282612f4f565b600081815260116020526040902054909150608060020a026001608060020a03191615156117f157600c546117a290839060b060020a900460ff16614be2565b600d80546001019055600c54604051600160a060020a03909116903480156108fc02916000818181858888f193505050501580156117e4573d6000803e3d6000fd5b50600194508495506117ff565b600d805460010190556116de565b505050505090565b600c54600160a060020a0316331461181e57600080fd5b600c8054600160a060020a031916600160a060020a0392909216919091179055565b600c5460b060020a900460ff1681565b565b60008060008060035442111515156118da576040805160e560020a62461bcd02815260206004820152603860248201527f5072696365204e6f742056616c696420616e796d6f72652c20706c656173652060448201527f6d616b6520616e6f74686572206f7261636c652063616c6c0000000000000000606482015290519081900360840190fd5b5060008054156118ef576001935083016118f4565b600093505b600154156119075760019250820161190c565b600092505b6002541561191f57600191508101611924565b600091505b8060ff16600314156119bc576001546000541180156119465750600254600054115b8061196257506001546000541080156119625750600254600054105b156119b55760005460015411801561197d5750600254600154115b8061199957506000546001541080156119995750600254600154105b156119a9576002546005556119b0565b6001546005555b6119bc565b6000546005555b60ff811615156119cd576004546005555b8060ff16600114156119e0576004546005555b8060ff1660021415611a43578380156119f65750825b15611a0b576001546000546002909104016005555b838015611a155750815b15611a27576002805460005401046005555b818015611a315750825b15611a43576002805460015401046005555b611a536006546005546005614c72565b336000908152600a602052604090206509184e72a00091909102815562015180420160019091015550505050565b600e5481565b6060600080600080611a9888612f4f565b9350611aa5888888614ca7565b925082604051908082528060200260200182016040528015611ad1578160200160208202803883390190505b509450600091508690505b85600101811215611b6657600084815260116020908152604080832084845260088101835281842054845260070190915290206001015460a060020a900460ff1615611b5e5760008481526011602090815260408083208484526008019091529020548551869084908110611b4d57fe5b602090810290910101526001909101905b600101611adc565b505050509392505050565b6000818152601160205260408120600201546301e13380014210801590611ba8575060008281526011602052604090206002015415155b15611bb557506001611bb9565b5060005b919050565b6000611bc982611b71565b1515611bd757506001611bb9565b600082815260116020526040902054608060020a026001608060020a0319161515611c0457506000611bb9565b506001919050565b611c14614d3b565b600160a060020a03163314611c2857600080fd5b601754821415611ce3577fcf34ef537ac33ee1ac626ca1587a0a7e8e51561e5514f8cb36afa1c5102b3bab816040518080602001828103825283818151815260200191508051906020019080838360005b83811015611c91578181015183820152602001611c79565b50505050905090810190601f168015611cbe5780820380516001836020036101000a031916815260200191505b509250505060405180910390a1611cd6816002614f30565b6000556201518042016003555b601854821415611d9e577fcf34ef537ac33ee1ac626ca1587a0a7e8e51561e5514f8cb36afa1c5102b3bab816040518080602001828103825283818151815260200191508051906020019080838360005b83811015611d4c578181015183820152602001611d34565b50505050905090810190601f168015611d795780820380516001836020036101000a031916815260200191505b509250505060405180910390a1611d91816002614f30565b6001556201518042016003555b601954821415611e59577fcf34ef537ac33ee1ac626ca1587a0a7e8e51561e5514f8cb36afa1c5102b3bab816040518080602001828103825283818151815260200191508051906020019080838360005b83811015611e07578181015183820152602001611def565b50505050905090810190601f168015611e345780820380516001836020036101000a031916815260200191505b509250505060405180910390a1611e4c816002614f30565b6002556201518042016003555b5050565b611e6684611bbe565b1515611e7157600080fd5b60008481526011602090815260409091208451611e9692600390920191860190616b43565b5060008481526011602090815260409091208351611ebc92600490920191850190616b43565b5060008481526011602090815260409091208251611ee292600590920191840190616b43565b5050505050565b600c54600090819060a060020a900460ff1615611f0557600080fd5b600c5460ff750100000000000000000000000000000000000000000090910481169085161115611f3457600080fd5b600c54611f4e90879060b060020a900460ff1687876150a2565b1515611fa4576040805160e560020a62461bcd02815260206004820152601e60248201527f54686520656e7465726564206970206973206f7574206f662072616e67650000604482015290519081900360640190fd5b611fad86612f4f565b600081815260116020526040902060010154909250600160a060020a03163314612021576040805160e560020a62461bcd02815260206004820152601960248201527f4f7065726174696f6e206e6f7420617574686f72697a65642100000000000000604482015290519081900360640190fd5b61202c868686615104565b15156120a8576040805160e560020a62461bcd02815260206004820152603360248201527f54686520656e746572656420626c6f636b2069732070617274206f6620616e6f60448201527f74686572206578697374696e6720626c6f636b00000000000000000000000000606482015290519081900360840190fd5b6120b3868686612ba4565b905080600019141580156120c957508060011914155b156120df576120da868686866154f3565b6120eb565b6120eb868686866154f3565b505050505050565b60006060600061210285611bbe565b151561210d57600080fd5b836000191415801561212157508360011914155b151561212c57600080fd5b60008581526011602090815260408083208784526007018252918290208054600180830154600890930180548651600261010094831615949094026000190190911692909204601f8101869004860283018601909652858252608060020a90920294919360a060020a90930460ff1692909184918301828280156121f15780601f106121c6576101008083540402835291602001916121f1565b820191906000526020600020905b8154815290600101906020018083116121d457829003601f168201915b505050505091509250925092509250925092565b60025481565b600c54600160a060020a0316331461222257600080fd5b600c805474ff000000000000000000000000000000000000000019811660a060020a9182900460ff1615909102179055565b6060600080600060095492508260405190808252806020026020018201604052801561228a578160200160208202803883390190505b50935060009150600090505b6009548112156122d35760008181526010602052604090205484518590849081106122bd57fe5b6020908102909101015260019182019101612296565b50505090565b505050565b60085481565b60606000806122f286612f4f565b91506122fd82611bbe565b151561230857600080fd5b612313868686612ba4565b9050806000191415801561232957508060011914155b151561233457600080fd5b600082815260116020908152604080832084845260070182529182902060080180548351601f6002600019610100600186161502019093169290920491820184900484028101840190945280845290918301828280156123d55780601f106123aa576101008083540402835291602001916123d5565b820191906000526020600020905b8154815290600101906020018083116123b857829003601f168201915b5050505050925050509392505050565b6000806000806000600c60149054906101000a900460ff161561240757600080fd5b61241088612f4f565b945061241b85611bbe565b151561242657600080fd5b600085815260116020526040902060010154600160a060020a03163314612497576040805160e560020a62461bcd02815260206004820152601a60248201527f4f7065726174696f6e206e6f7420417574686f72697a65642121000000000000604482015290519081900360640190fd5b6124a2888888612ba4565b935083600019141580156124b857508360011914155b15156124c357600080fd5b600085815260116020908152604080832087845260070180835281842080546001608060020a031916815560018101805474ffffffffffffffffffffffffffffffffffffffffff1916905582518085019384905285815294899052925291516125329260089092019190616b43565b50604080516020818101808452600080845289815260118352848120898252600701909252929020905161256c9260059092019190616b43565b5060408051602081810180845260008084528981526011835284812089825260070190925292902090516125a69260069092019190616b43565b5060408051602081810180845260008084528981526011835284812089825260079081019093529390932091516125e293929091019190616b43565b50839250839150600090505b600c54600160ff60b060020a90920482168803011681121561280457600085815260116020908152604080832086845260070190915290206002015492915061263e876080889003839003616303565b151561273d576000858152601160209081526040808320868452600701909152902060040154156126d357600085815260116020908152604080832086845260070190915280822060040154825290205461269e90608060020a0261632c565b156126ce576000858152601160209081526040808320868452600701909152902080546001608060020a03191690555b612738565b600085815260116020908152604080832086845260070190915280822060030154825290205461270890608060020a0261632c565b15612738576000858152601160209081526040808320868452600701909152902080546001608060020a03191690555b6127fc565b60008581526011602090815260408083208684526007019091529020600301541561279757600085815260116020908152604080832086845260070190915280822060030154825290205461270890608060020a0261632c565b60008581526011602090815260408083208684526007019091528082206004015482529020546127cc90608060020a0261632c565b156127fc576000858152601160209081526040808320868452600701909152902080546001608060020a03191690555b6001016125ee565b5050505050505050565b6060600080600061282087878761637f565b92508260405190808252806020026020018201604052801561284c578160200160208202803883390190505b509350600091508590505b846001018112156128e157600087815260116020908152604080832084845260088101835281842054845260070190915290206001015460a060020a900460ff16156128d957600087815260116020908152604080832084845260080190915290205484518590849081106128c857fe5b602090810290910101526001909101905b600101612857565b5050509392505050565b60008181526011602090815260409182902080546001808301546002808501546003909501805488516101009582161595909502600019011691909104601f8101879004870284018701909752868352608060020a90930295600160a060020a0382169560a060020a90920460ff169493606093849384938493918301828280156129b75780601f1061298c576101008083540402835291602001916129b7565b820191906000526020600020905b81548152906001019060200180831161299a57829003601f168201915b50505060008c8152601160209081526040918290206005018054835160026001831615610100026000190190921691909104601f81018490048402820184019094528381529599509350909150830182828015612a555780601f10612a2a57610100808354040283529160200191612a55565b820191906000526020600020905b815481529060010190602001808311612a3857829003601f168201915b50505060008c8152601160209081526040918290206004018054835160026001831615610100026000190190921691909104601f81018490048402820184019094528381529598509350909150830182828015612af35780601f10612ac857610100808354040283529160200191612af3565b820191906000526020600020905b815481529060010190602001808311612ad657829003601f168201915b50505060008c8152601160209081526040918290206006018054835160026001831615610100026000190190921691909104601f81018490048402820184019094528381529597509350909150830182828015612b915780601f10612b6657610100808354040283529160200191612b91565b820191906000526020600020905b815481529060010190602001808311612b7457829003601f168201915b5093945050505050919395975091939597565b6000806000806000612bb588612f4f565b9350612bc084611bbe565b1515612bd0576000199450611b66565b5060009150819050805b600c54600160ff60b060020a909204821688030116821215612cf15760008481526011602090815260408083208684526007019091529020546001608060020a0319888116608060020a90920216148015612c605750600084815260116020908152604080832086845260070190915290206001015460ff87811660a060020a90920416145b15612c715760019050829450611b66565b612c928783600c60169054906101000a900460ff1601600101608003616303565b1515612cc157600084815260116020908152604080832095835260079095019052929092206003015491612ce6565b6000848152601160209081526040808320958352600790950190529290922060040154915b816001019150612bda565b8015612cff57829450611b66565b6001199450611b66565b600b54608060020a900460ff1681565b6000806000600c60149054906101000a900460ff1615612d3857600080fd5b336000908152600a6020526040902060010154421115612da4576040805160e560020a62461bcd0281526020600482015260346024820152600080516020616bfc8339815191526044820152600080516020616bdc833981519152606482015290519081900360840190fd5b336000908152600a60205260409020543414612e0a576040805160e560020a62461bcd02815260206004820152600b60248201527f5072696365206572726f72000000000000000000000000000000000000000000604482015290519081900360640190fd5b612e1384611bbe565b1515612e1e57600080fd5b600084815260116020526040902060010154600160a060020a03163314612eb5576040805160e560020a62461bcd02815260206004820152602260248201527f596f7520617265206e6f7420746865206f776e6572206f662074686520626c6f60448201527f636b000000000000000000000000000000000000000000000000000000000000606482015290519081900360840190fd5b50600083815260116020526040808220600201805442908190039081016301e13380908101909255600c549251910192600160a060020a03909216913480156108fc02929091818181858888f19350505050158015612f18573d6000803e3d6000fd5b50505060009182525060116020526040902060020154600191565b600b54608060020a0281565b600c5460a060020a900460ff1681565b600080808080808080808080805b600b54600160ff608060020a90920482160181169083161015612fa757612f878d83608003616303565b15612f9c57612f998d836080036163fd565b9c505b600190910190612f5d565b5060005b600b54600c5460ff608060020a909204821660b060020a9091048216038116908216101561314557612ff48d82600b60109054906101000a900460ff1660010101608003616303565b15613129578060ff16600011158015613011575060038160ff1611155b1561301f578260020a8b019a505b8060ff16600411158015613037575060078160ff1611155b15613045578260020a8a0199505b8060ff1660081115801561305d5750600b8160ff1611155b1561306b578260020a890198505b8060ff16600c111580156130835750600f8160ff1611155b15613091578260020a880197505b8060ff166010111580156130a9575060138160ff1611155b156130b7578260020a870196505b8060ff166014111580156130cf575060178160ff1611155b156130dd578260020a860195505b8060ff166018111580156130f55750601b8160ff1611155b15613103578260020a850194505b8060ff16601c1115801561311b5750601f8160ff1611155b15613129578260020a840193505b826001019250826004141561313d57600092505b600101612fab565b50506001631000000090920263010000009093026210000090940262010000909502611000909602610100909702601090980298909801969096019490940192909201010101019392505050565b606060008060116000858152602001908152602001600020600901600001546040519080825280602002602001820160405280156131db578160200160208202803883390190505b50925060009150600090505b600084815260116020526040902060090154811215613241576000848152601160209081526040808320848452600a01909152902054835184908490811061322b57fe5b60209081029091010152600191820191016131e7565b5050919050565b600d5481565b60045481565b600c54600160a060020a0316331461326b57600080fd5b600c805474ff000000000000000000000000000000000000000019169055565b6060600080600061329d878787616424565b9250826040519080825280602002602001820160405280156132c9578160200160208202803883390190505b509350600091508590505b846001018112156128e157600081815260116020526040902060010154600160a060020a038881169116148015613311575061330f81611b71565b155b156133365780848381518110151561332557fe5b602090810290910101526001909101905b6001016132d4565b600061334983611bbe565b151561335457600080fd5b600083815260116020526040902060010154600160a060020a0316331461337a57600080fd5b6000838152601160209081526040909120835161339f92600690920191850190616b43565b506040805134815260208101859052815133927f68721feff6514b546442504e17553541c8ffe7e962d7da191c3fa3c1c7406169928290030190a25090919050565b6000606060006133f084611bbe565b15156133fb57600080fd5b6000848152601160209081526040918290208054600180830154600690930180548651600261010094831615949094026000190190911692909204601f8101869004860283018601909652858252608060020a90920294919360a060020a90930460ff1692909184918301828280156134b55780601f1061348a576101008083540402835291602001916134b5565b820191906000526020600020905b81548152906001019060200180831161349857829003601f168201915b505050505091509250925092509193909250565b600c54600160a060020a031633146134e057600080fd5b600b8054600c805460ff878703811660020a600e556001600755600080805260116020527f4ad3b33220dddc71b994a52d72c06b10862965f7d926534c05c00fb7e819e7b780546001608060020a0319908116608060020a9c8d90049081179092557f4ad3b33220dddc71b994a52d72c06b10862965f7d926534c05c00fb7e819e7b8805433600160a060020a03199091161774ff00000000000000000000000000000000000000001990811670ff00000000000000000000000000000000199099169c86168e029c909c179c8d04851660a060020a02979097179096559990941690981790935560089190915560069290925568410d586a20a4c0000060045576ff00000000000000000000000000000000000000000000191660b060020a94909216939093021775ff0000000000000000000000000000000000000000001916753000000000000000000000000000000000000000000017169055565b600061366860408051908101604052806003815260200160ea60020a6215549302815250616483565b600302905090565b600c54600160a060020a031681565b6060600061368c83612f4f565b905061369781611bbe565b15156136a257600080fd5b60008181526011602090815260409182902060060180548351601f6002600019610100600186161502019093169290920491820184900484028101840190945280845290918301828280156137385780601f1061370d57610100808354040283529160200191613738565b820191906000526020600020905b81548152906001019060200180831161371b57829003601f168201915b505050505091505b50919050565b60035481565b606080606060008061375d88612f4f565b915061376882611bbe565b151561377357600080fd5b61377e888888612ba4565b9050806000191415801561379457508060011914155b151561379f57600080fd5b60008281526011602090815260408083208484526007908101835292819020600581018054835160026001831615610100026000190190921691909104601f8101869004860282018601909452838152909482019360069092019290918591908301828280156138505780601f1061382557610100808354040283529160200191613850565b820191906000526020600020905b81548152906001019060200180831161383357829003601f168201915b5050855460408051602060026001851615610100026000190190941693909304601f8101849004840282018401909252818152959850879450925084019050828280156138de5780601f106138b3576101008083540402835291602001916138de565b820191906000526020600020905b8154815290600101906020018083116138c157829003601f168201915b5050845460408051602060026001851615610100026000190190941693909304601f81018490048402820184019092528181529597508694509250840190508282801561396c5780601f106139415761010080835404028352916020019161396c565b820191906000526020600020905b81548152906001019060200180831161394f57829003601f168201915b50505050509050945094509450505093509350939050565b60055481565b6060600080600061399b86866166eb565b9250826040519080825280602002602001820160405280156139c7578160200160208202803883390190505b509350600091508590505b84811215613a10576139e381611b71565b15613a08578084838151811015156139f757fe5b602090810290910101526001909101905b6001016139d2565b50505092915050565b600080600080600c60149054906101000a900460ff1615613a3957600080fd5b600e5460085412613a4957600080fd5b336000908152600a6020526040902060010154421115613ab5576040805160e560020a62461bcd0281526020600482015260346024820152600080516020616bfc8339815191526044820152600080516020616bdc833981519152606482015290519081900360840190fd5b336000908152600a60205260409020543414613b1b576040805160e560020a62461bcd02815260206004820152600b60248201527f5072696365206572726f72000000000000000000000000000000000000000000604482015290519081900360640190fd5b613b2485612f4f565b9250613b2f83611bbe565b1515613b3a57600080fd5b600083815260116020526040902060010154600160a060020a03163314613bab576040805160e560020a62461bcd02815260206004820152601660248201527f596f7520617265206e6f7420417574686f72697a656400000000000000000000604482015290519081900360640190fd5b600c54613bc690869060b060020a900460ff16608003616303565b1515613bee57600c54613be790869060b060020a900460ff1660800361671d565b9450613ccb565b600c54613c0990869060b060020a900460ff166080036163fd565b9450600191505b600b54600c5460ff608060020a909204821660b060020a90910482160381169083161015613ccb57613c568583600c60169054906101000a900460ff1603608003616303565b15613c8657613c798583600c60169054906101000a900460ff16036080036163fd565b9450600190910190613cc6565b613ca48583600c60169054906101000a900460ff160360800361671d565b600b54600c5491965060ff608060020a909104811660b060020a909204160391505b613c10565b613cd485612f4f565b600081815260116020526040902054909150608060020a026001608060020a03191615613d0057600080fd5b600c54613d1890869060b060020a900460ff16614be2565b600c54604051600160a060020a03909116903480156108fc02916000818181858888f19350505050158015613d51573d6000803e3d6000fd5b50600195945050505050565b60608060606000613d6d85612f4f565b9050613d7881611bbe565b1515613d8357600080fd5b600081815260116020908152604091829020600381018054845160026001831615610100026000190190921691909104601f810185900485028201850190955284815290936004830193600590930192859190830182828015613e275780601f10613dfc57610100808354040283529160200191613e27565b820191906000526020600020905b815481529060010190602001808311613e0a57829003601f168201915b5050855460408051602060026001851615610100026000190190941693909304601f810184900484028201840190925281815295985087945092508401905082828015613eb55780601f10613e8a57610100808354040283529160200191613eb5565b820191906000526020600020905b815481529060010190602001808311613e9857829003601f168201915b5050845460408051602060026001851615610100026000190190941693909304601f810184900484028201840190925281815295975086945092508401905082828015613f435780601f10613f1857610100808354040283529160200191613f43565b820191906000526020600020905b815481529060010190602001808311613f2657829003601f168201915b50505050509050935093509350509193909250565b6000613f6383612f4f565b600081815260116020526040902054909150608060020a026001608060020a0319161515613f9057600080fd5b600081815260116020526040902060010154600160a060020a03163314614027576040805160e560020a62461bcd02815260206004820152602260248201527f596f7520617265206e6f7420746865206f776e6572206f662074686520626c6f60448201527f636b000000000000000000000000000000000000000000000000000000000000606482015290519081900360840190fd5b60009081526011602052604090206001018054600160a060020a031916600160a060020a039290921691909117905550565b60075481565b60065481565b606060008060006140768686616739565b9250826040519080825280602002602001820160405280156140a2578160200160208202803883390190505b509350600091508590505b84600101811215613a1057600081815260116020526040902060010154600160a060020a0316158015906140e757506140e581611b71565b155b1561410c578084838151811015156140fb57fe5b602090810290910101526001909101905b6001016140ad565b60008061412086612f4f565b915061412b82611bbe565b151561413657600080fd5b614141868686612ba4565b9050806000191415801561415757508060011914155b151561416257600080fd5b6000828152601160209081526040808320848452600701909152902060010154600160a060020a0316331461419657600080fd5b6000828152601160209081526040808320848452600701825290912084516141c692600890920191860190616b43565b50505050505050565b600c547501000000000000000000000000000000000000000000900460ff1681565b600b54600090608060020a028160028406156142295761422682600b60109054906101000a900460ff1660010160800361671d565b91505b5060015b600b54600c5460ff608060020a909204821660b060020a909104821603811690821610156142a45760028160ff1660020a8581151561426857fe5b0481151561427257fe5b061561429c576142998282600b60109054906101000a900460ff166001010160800361671d565b91505b60010161422d565b5092915050565b60005481565b6142ba83611bbe565b15156142c557600080fd5b81600019141580156142d957508160011914155b15156142e457600080fd5b6000838152601160209081526040808320858452600701909152902060010154600160a060020a0316331461431857600080fd5b60008381526011602090815260408083208584526007018252909120825161434892600890920191840190616b43565b506040805134815260208101859052808201849052905133917f76f177494013f6f04926cae4726a97377143eebf3ec7b7a5ba7e418454eb77d3919081900360600190a2505050565b60015481565b6000806143a386612f4f565b91506143ae82611bbe565b156143b857600080fd5b6143c3868686612ba4565b905080600019141580156143d957508060011914155b15156143e457600080fd5b6000828152601160209081526040808320848452600701909152902060010154600160a060020a03163314614489576040805160e560020a62461bcd02815260206004820152602260248201527f596f7520617265206e6f7420746865206f776e6572206f662074686520626c6f60448201527f636b000000000000000000000000000000000000000000000000000000000000606482015290519081900360840190fd5b60009182526011602090815260408084209284526007909201905290206001018054600160a060020a031916600160a060020a0392909216919091179055505050565b6000806000806000806144de88611b71565b156144e857600080fd5b50505060009485525050601160209081526040808520938552600790930190525090208054600182015460028301546003840154600490940154608060020a90930294600160a060020a0383169460a060020a90930460ff169391929190565b600c54600160a060020a0316331461455f57600080fd5b61456881611b71565b151561457357600080fd5b600081815260116020818152604080842080546001608060020a031916815560018101805474ffffffffffffffffffffffffffffffffffffffffff1916905560028101859055815180840192839052858152948690529290915291516145df9260039092019190616b43565b5060408051602081810180845260008084528581526011909252929020905161460e9260049092019190616b43565b5060408051602081810180845260008084528581526011909252929020905161463d9260059092019190616b43565b5060408051602081810180845260008084528581526011909252929020905161466c9260069092019190616b43565b506009805460009081526010602052604090209190915580546001019055565b6012546000908190600160a060020a031615806146bb57506012546146b990600160a060020a031661678c565b155b156146cc576146ca6000616790565b505b601260009054906101000a9004600160a060020a0316600160a060020a03166338cc48316040518163ffffffff1660e060020a028152600401602060405180830381600087803b15801561471f57600080fd5b505af1158015614733573d6000803e3d6000fd5b505050506040513d602081101561474957600080fd5b5051601354600160a060020a039081169116146147ff57601260009054906101000a9004600160a060020a0316600160a060020a03166338cc48316040518163ffffffff1660e060020a028152600401602060405180830381600087803b1580156147b357600080fd5b505af11580156147c7573d6000803e3d6000fd5b505050506040513d60208110156147dd57600080fd5b505160138054600160a060020a031916600160a060020a039092169190911790555b6013546040517f524f3889000000000000000000000000000000000000000000000000000000008152602060048201818152875160248401528751600160a060020a039094169363524f388993899383926044909201919085019080838360005b83811015614878578181015183820152602001614860565b50505050905090810190601f1680156148a55780820380516001836020036101000a031916815260200191505b5092505050602060405180830381600087803b1580156148c457600080fd5b505af11580156148d8573d6000803e3d6000fd5b505050506040513d60208110156148ee57600080fd5b50519050670de0b6b3a764000062030d403a020181111561491257600091506142a4565b6013546040517fadf59f99000000000000000000000000000000000000000000000000000000008152600060048201818152606060248401908152885160648501528851600160a060020a039095169463adf59f99948794938b938b939192909160448201916084019060208701908083838b5b8381101561499e578181015183820152602001614986565b50505050905090810190601f1680156149cb5780820380516001836020036101000a031916815260200191505b50838103825284518152845160209182019186019080838360005b838110156149fe5781810151838201526020016149e6565b50505050905090810190601f168015614a2b5780820380516001836020036101000a031916815260200191505b50955050505050506020604051808303818588803b158015614a4c57600080fd5b505af1158015614a60573d6000803e3d6000fd5b50505050506040513d6020811015614a7757600080fd5b5051949350505050565b6000614a8c82612f4f565b600081815260116020818152604080842080546001608060020a031916608060020a890417815560018101805433600160a060020a031990911617808255600c5474ff00000000000000000000000000000000000000001990911660b060020a90910460ff1660a060020a0217905542600282015581518084019283905285815294869052929091529151929350614b2a9260069091019190616b43565b50604080516020818101808452600080845285815260119092529290209051614b599260039092019190616b43565b50604080516020818101808452600080845285815260119092529290209051614b889260049092019190616b43565b50604080516020818101808452600080845285815260119092529290209051614bb79260059092019190616b43565b505060088054600101905550565b600980546000908152601060205260408120558054600019019055565b6000614bed83612f4f565b600090815260116020526040902080546001608060020a031916608060020a909404939093178355506001808301805433600160a060020a03199091161774ff0000000000000000000000000000000000000000191660a060020a60ff949094169390930292909217909155426002830155600c909101819055600880549091019055565b600080600083600101600a0a86029150600a8583811515614c8f57fe5b04600501811515614c9c57fe5b049695505050505050565b600080600080600080614cb989612f4f565b9450600093508792505b86600101831215614d2e57505060008381526011602090815260408083208484526008810183528184205480855260079091019092529091208054600190910154608060020a9091029060a060020a900460ff1615614d23578360010193505b600190920191614cc3565b5091979650505050505050565b601254600090600160a060020a03161580614d685750601254614d6690600160a060020a031661678c565b155b15614d7957614d776000616790565b505b601260009054906101000a9004600160a060020a0316600160a060020a03166338cc48316040518163ffffffff1660e060020a028152600401602060405180830381600087803b158015614dcc57600080fd5b505af1158015614de0573d6000803e3d6000fd5b505050506040513d6020811015614df657600080fd5b5051601354600160a060020a03908116911614614eac57601260009054906101000a9004600160a060020a0316600160a060020a03166338cc48316040518163ffffffff1660e060020a028152600401602060405180830381600087803b158015614e6057600080fd5b505af1158015614e74573d6000803e3d6000fd5b505050506040513d6020811015614e8a57600080fd5b505160138054600160a060020a031916600160a060020a039092169190911790555b601360009054906101000a9004600160a060020a0316600160a060020a031663c281d19e6040518163ffffffff1660e060020a028152600401602060405180830381600087803b158015614eff57600080fd5b505af1158015614f13573d6000803e3d6000fd5b505050506040513d6020811015614f2957600080fd5b5051905090565b6000828180805b83518110156150855783517f300000000000000000000000000000000000000000000000000000000000000090859083908110614f7057fe5b90602001015160f860020a900460f860020a02600160f860020a03191610158015614fe6575083517f390000000000000000000000000000000000000000000000000000000000000090859083908110614fc657fe5b90602001015160f860020a900460f860020a02600160f860020a03191611155b1561503f57811561500557851515614ffd57615085565b600019909501945b600a830292506030848281518110151561501b57fe5b90602001015160f860020a900460f860020a0260f860020a9004038301925061507d565b838181518110151561504d57fe5b90602001015160f860020a900460f860020a02600160f860020a031916602e60f860020a02141561507d57600191505b600101614f37565b60008611156150975785600a0a830292505b509095945050505050565b60008060006150b4878760ff16616ab2565b91506150c3858760ff16616ab2565b90506001608060020a03198281169082161480156150e757508360ff168660ff1611155b156150f557600192506150fa565b600092505b5050949350505050565b60008060008060008060006151188a612f4f565b955061512386611bbe565b151561512e57600080fd5b5060009350839250829150819050805b600c54600160ff60b060020a83048116750100000000000000000000000000000000000000000090930481169290920301168312801561517c575081155b156154d2576151a28984600c60169054906101000a900460ff1601600101608003616303565b151561533a57600c54939450849360ff60b060020a90910481168903600101168314156152795760008681526011602090815260408083208884526007019091529020546151f590608060020a0261632c565b15806152335750600086815260116020908152604080832088845260070190915280822060030154825290205461523190608060020a0261632c565b155b806152705750600086815260116020908152604080832088845260070190915280822060040154825290205461526e90608060020a0261632c565b155b15615279575060015b60008681526011602090815260408083208884526007019091529020546152a590608060020a0261632c565b1580156152da5750600086815260116020908152604080832088845260070190915290206001015460a060020a900460ff1615155b156152e3575060015b600086815260116020908152604080832088845260070190915290206003015415156153125760019150615335565b600086815260116020908152604080832088845260070190915290206003015493505b6154c7565b600c54939450849360ff60b060020a909104811689036001011683141561540b57600086815260116020908152604080832088845260070190915290205461538790608060020a0261632c565b15806153c5575060008681526011602090815260408083208884526007019091528082206003015482529020546153c390608060020a0261632c565b155b806154025750600086815260116020908152604080832088845260070190915280822060040154825290205461540090608060020a0261632c565b155b1561540b575060015b600086815260116020908152604080832088845260070190915290205461543790608060020a0261632c565b15801561546c5750600086815260116020908152604080832088845260070190915290206001015460a060020a900460ff1615155b15615475575060015b600086815260116020908152604080832088845260070190915290206004015415156154a457600191506154c7565b600086815260116020908152604080832088845260070190915290206004015493505b82600101925061513e565b80156154e157600096506154e6565b600196505b5050505050509392505050565b6000806000806000806155058a612f4f565b955061551086611bbe565b151561551b57600080fd5b600086815260116020526040902060010154600160a060020a0316331461554157600080fd5b6000945060009350600092505b600c5460001960ff60b060020a90920482168a0301168312156157ea57600c5461558b908a90600160ff60b060020a909204821687010116616ab2565b91506155ae8984600c60169054906101000a900460ff1601600101608003616303565b15156156cc57600086815260116020908152604080832087845260070190915290206003015493945084931515615640576000868152601160208181526040808420600c810180548b87526007909201845282862080546001608060020a031916608060020a8a041781556003018290558186529185206002018a9055938a90529190528054600101905593506156c7565b600086815260116020908152604080832087845260070190915290205461566c90608060020a0261632c565b156156a4576000868152601160209081526040808320878452600701909152902080546001608060020a031916608060020a84041790555b600086815260116020908152604080832088845260070190915290206003015493505b6157df565b600086815260116020908152604080832087845260070190915290206004015493945084931515615758576000868152601160208181526040808420600c810180548b87526007909201845282862080546001608060020a031916608060020a8a041781556004018290558186529185206002018a9055938a90529190528054600101905593506157df565b600086815260116020908152604080832087845260070190915290205461578490608060020a0261632c565b156157bc576000868152601160209081526040808320878452600701909152902080546001608060020a031916608060020a84041790555b600086815260116020908152604080832088845260070190915290206004015493505b82600101925061554e565b6157f78989608003616303565b1515615d8f5761580a898960ff16616ab2565b6000878152601160209081526040808320600b8101548452600881018352818420898552600790910190925290912060030154959650869591935091501515615b3957600086815260116020908152604080832088845260070190915290206004015415156158a6576000868152601160209081526040808320888452600701909152902080546001608060020a031916608060020a84041790555b60116000878152602001908152602001600020600c015493508360116000888152602001908152602001600020600701600087815260200190815260200160002060030181905550846011600088815260200190815260200160002060070160008681526020019081526020016000206002018190555060116000878152602001908152602001600020600c015460010160116000888152602001908152602001600020600c01819055508860116000888152602001908152602001600020600701600086815260200190815260200160002060000160006101000a8154816fffffffffffffffffffffffffffffffff0219169083608060020a9004021790555083601160008881526020019081526020016000206009016001016000601160008a815260200190815260200160002060090160000154815260200190815260200160002081905550601160008781526020019081526020016000206009016000015460010160116000888152602001908152602001600020600901600001819055508660116000888152602001908152602001600020600701600086815260200190815260200160002060010160006101000a815481600160a060020a030219169083600160a060020a031602179055508760116000888152602001908152602001600020600701600086815260200190815260200160002060010160146101000a81548160ff021916908360ff16021790555083601160008881526020019081526020016000206008016000601160008a8152602001908152602001600020600b015481526020019081526020016000206000018190555060116000878152602001908152602001600020600b015460010160116000888152602001908152602001600020600b0181905550615d8a565b6000868152601160209081526040808320888452600701909152902060038101549054909450615b6e90608060020a0261632c565b15615ba6576000868152601160209081526040808320888452600701909152902080546001608060020a031916608060020a84041790555b8860116000888152602001908152602001600020600701600086815260200190815260200160002060000160006101000a8154816fffffffffffffffffffffffffffffffff0219169083608060020a9004021790555083601160008881526020019081526020016000206009016001016000601160008a815260200190815260200160002060090160000154815260200190815260200160002081905550601160008781526020019081526020016000206009016000015460010160116000888152602001908152602001600020600901600001819055508660116000888152602001908152602001600020600701600086815260200190815260200160002060010160006101000a815481600160a060020a030219169083600160a060020a031602179055508760116000888152602001908152602001600020600701600086815260200190815260200160002060010160146101000a81548160ff021916908360ff16021790555083601160008881526020019081526020016000206008016000601160008a8152602001908152602001600020600b015481526020019081526020016000206000018190555060116000878152602001908152602001600020600b015460010160116000888152602001908152602001600020600b01819055505b6162f7565b6000868152601160209081526040808320878452600701909152902060040154939450849315156160a65760008681526011602090815260408083208884526007019091529020600301541515615e13576000868152601160209081526040808320888452600701909152902080546001608060020a031916608060020a84041790555b60116000878152602001908152602001600020600c015493508360116000888152602001908152602001600020600701600087815260200190815260200160002060040181905550846011600088815260200190815260200160002060070160008681526020019081526020016000206002018190555060116000878152602001908152602001600020600c015460010160116000888152602001908152602001600020600c01819055508860116000888152602001908152602001600020600701600086815260200190815260200160002060000160006101000a8154816fffffffffffffffffffffffffffffffff0219169083608060020a9004021790555083601160008881526020019081526020016000206009016001016000601160008a815260200190815260200160002060090160000154815260200190815260200160002081905550601160008781526020019081526020016000206009016000015460010160116000888152602001908152602001600020600901600001819055508660116000888152602001908152602001600020600701600086815260200190815260200160002060010160006101000a815481600160a060020a030219169083600160a060020a031602179055508760116000888152602001908152602001600020600701600086815260200190815260200160002060010160146101000a81548160ff021916908360ff16021790555083601160008881526020019081526020016000206008016000601160008a8152602001908152602001600020600b015481526020019081526020016000206000018190555060116000878152602001908152602001600020600b015460010160116000888152602001908152602001600020600b01819055506162f7565b60008681526011602090815260408083208884526007019091529020600481015490549094506160db90608060020a0261632c565b15616113576000868152601160209081526040808320888452600701909152902080546001608060020a031916608060020a84041790555b8860116000888152602001908152602001600020600701600086815260200190815260200160002060000160006101000a8154816fffffffffffffffffffffffffffffffff0219169083608060020a9004021790555083601160008881526020019081526020016000206009016001016000601160008a815260200190815260200160002060090160000154815260200190815260200160002081905550601160008781526020019081526020016000206009016000015460010160116000888152602001908152602001600020600901600001819055508660116000888152602001908152602001600020600701600086815260200190815260200160002060010160006101000a815481600160a060020a030219169083600160a060020a031602179055508760116000888152602001908152602001600020600701600086815260200190815260200160002060010160146101000a81548160ff021916908360ff16021790555083601160008881526020019081526020016000206008016000601160008a8152602001908152602001600020600b015481526020019081526020016000206000018190555060116000878152602001908152602001600020600b015460010160116000888152602001908152602001600020600b01819055505b50505050505050505050565b6000616316608060020a60ff8416616aef565b929092166001608060020a031916151592915050565b6000805b60108110156163765782816010811061634557fe5b1a60f860020a02600160f860020a031916600060f860020a0214151561636e5760009150613740565b600101616330565b50600192915050565b6000808381805b856001018312156163f157505060008681526011602090815260408083208484526008810183528184205480855260079091019092529091208054600190910154608060020a9091029060a060020a900460ff16156163e6578360010193505b600190920191616386565b50919695505050505050565b600080616419616414608060020a60ff8616616aef565b616b12565b939093169392505050565b600080835b8360010181121561647a57600081815260116020526040902060010154600160a060020a038781169116148015616466575061646481611b71565b155b15616472578160010191505b600101616429565b50949350505050565b601254600090600160a060020a031615806164b057506012546164ae90600160a060020a031661678c565b155b156164c1576164bf6000616790565b505b601260009054906101000a9004600160a060020a0316600160a060020a03166338cc48316040518163ffffffff1660e060020a028152600401602060405180830381600087803b15801561651457600080fd5b505af1158015616528573d6000803e3d6000fd5b505050506040513d602081101561653e57600080fd5b5051601354600160a060020a039081169116146165f457601260009054906101000a9004600160a060020a0316600160a060020a03166338cc48316040518163ffffffff1660e060020a028152600401602060405180830381600087803b1580156165a857600080fd5b505af11580156165bc573d6000803e3d6000fd5b505050506040513d60208110156165d257600080fd5b505160138054600160a060020a031916600160a060020a039092169190911790555b6013546040517f524f3889000000000000000000000000000000000000000000000000000000008152602060048201818152855160248401528551600160a060020a039094169363524f388993879383926044909201919085019080838360005b8381101561666d578181015183820152602001616655565b50505050905090810190601f16801561669a5780820380516001836020036101000a031916815260200191505b5092505050602060405180830381600087803b1580156166b957600080fd5b505af11580156166cd573d6000803e3d6000fd5b505050506040513d60208110156166e357600080fd5b505192915050565b600080835b838112156167155761670181611b71565b1561670d578160010191505b6001016166f0565b509392505050565b6000616730608060020a60ff8416616aef565b90921792915050565b600080835b8360010181121561671557600081815260116020526040902060010154600160a060020a031615801590616778575061677681611b71565b155b15616784578160010191505b60010161673e565b3b90565b6000806167b0731d3b2638a7cc9f2cb3d298a3da7a90b67e5506ed61678c565b11156168215760128054600160a060020a031916731d3b2638a7cc9f2cb3d298a3da7a90b67e5506ed17905560408051808201909152600b81527f6574685f6d61696e6e6574000000000000000000000000000000000000000000602082015261681990616b24565b506001611bb9565b600061684073c03a2615d5efaf5f49f60b7bb6583eaec212fdf161678c565b11156168a95760128054600160a060020a03191673c03a2615d5efaf5f49f60b7bb6583eaec212fdf117905560408051808201909152600c81527f6574685f726f707374656e330000000000000000000000000000000000000000602082015261681990616b24565b60006168c873b7a07bcf2ba2f2703b24c0691b5278999c59ac7e61678c565b11156169315760128054600160a060020a03191673b7a07bcf2ba2f2703b24c0691b5278999c59ac7e17905560408051808201909152600981527f6574685f6b6f76616e0000000000000000000000000000000000000000000000602082015261681990616b24565b600061695073146500cfd35b22e4a392fe0adc06de1a1368ed4861678c565b11156169b95760128054600160a060020a03191673146500cfd35b22e4a392fe0adc06de1a1368ed4817905560408051808201909152600b81527f6574685f72696e6b656279000000000000000000000000000000000000000000602082015261681990616b24565b60006169d8736f485c8bf6fc43ea212e93bbf8ce046c7f1cb47561678c565b1115616a0c575060128054600160a060020a031916736f485c8bf6fc43ea212e93bbf8ce046c7f1cb4751790556001611bb9565b6000616a2b7320e12a1f859b3feae5fb2a0a32c18f5a65555bbf61678c565b1115616a5f575060128054600160a060020a0319167320e12a1f859b3feae5fb2a0a32c18f5a65555bbf1790556001611bb9565b6000616a7e7351efaf4c8b3c9afbd5ab9f4bbc82784ab6ef8faa61678c565b1115611bb5575060128054600160a060020a0319167351efaf4c8b3c9afbd5ab9f4bbc82784ab6ef8faa1790556001611bb9565b6000608060020a6000196fffffffffffffffffffffffffffffffff841660020a010281616ae3826080869003616aef565b94909416949350505050565b6fffffffffffffffffffffffffffffffff1660020a608060020a91829004020290565b6000616b1c616b37565b909118919050565b8051611e59906014906020840190616b43565b6001608060020a031990565b828054600181600116156101000203166002900490600052602060002090601f016020900481019282601f10616b8457805160ff1916838001178555616bb1565b82800160010185558215616bb1579182015b82811115616bb1578251825591602001919060010190616b96565b50616bbd929150616bc1565b5090565b61127b91905b80821115616bbd5760008155600101616bc7560061696e2074686520707265666978207072696365000000000000000000000000507269636520457870697265642c20706c656173652072657175657374206167a165627a7a723058206ad9c30147824e51978957e11674619428665f825c670b0056b62978155514fb0029",
  "source": "pragma solidity ^0.4.24;\r\n\r\nimport \"./InBlock_F.sol\";\r\nimport \"./InBlock_F_del.sol\";\r\nimport \"./usingOraclize.sol\";\r\n\r\ncontract InBlock is InBlock_F, InBlock_F_del, usingOraclize{\r\n\r\n\r\n//******************************************************* FUNCTIONS TO BE CALLED TO INITIALIZE THE CONTRACT *******************************************************\r\n\r\n//Constructor\r\n\r\nconstructor() public{\r\n\towner=msg.sender;  \r\n\tseed=0;\r\n\tID=0;\r\n\tstopped=true; \r\n\t//askOracleCost=12000000000000000;\r\n\tOAR = OraclizeAddrResolverI(0x6f485C8BF6fc43eA212E93BBF8ce046C7f1cb475); //Testrpc\r\n\t//OAR = OraclizeAddrResolverI(0xc03A2615D5efaf5F49F60B7BB6583eaec212fdf1); //Ropsten\r\n\t//OAR = OraclizeAddrResolverI(0x1d3B2638a7cC9f2CB3D298A3DA7a90B67E5506ed);\t//mainnnet \r\n  }\r\n\r\n\r\n//To Set the Initial Block  \r\n function activateInBlock(bytes16 ip,uint8 _base_prefix_mask, uint8 _allocation_prefix_mask, uint price_local) onlyOwner() public {\r\n\tbase_prefix_mask=_base_prefix_mask;\r\n\tallocation_prefix_mask=_allocation_prefix_mask;\r\n\tmax_del=48;\r\n\tmax_allocable_blocks=(2**uint(_allocation_prefix_mask-_base_prefix_mask));\r\n\tID=1;\r\n\tblocks[0].ip_address=ip;\r\n\tblocks[0].o_addr=msg.sender;\r\n\tblocks[0].mask=base_prefix_mask;\r\n\tinitial_block=ip;\r\n\tID_Index=0;\r\n\tdollarsPrice=price_local;\r\n\tsecurityPrice=1200000000000000000000;\r\n\tstopped=false;\r\n\r\n}\r\n\t\r\n//******************************************************* ORACLE FUNCTIONS *******************************************************\r\n\r\nbytes32 queryID1;\r\nbytes32 queryID2;\r\nbytes32 queryID3;\r\nevent Log(string text);\r\n\r\n\r\nfunction askOracleCost()public view returns(uint){\r\nreturn(3*oraclize_getPrice(\"URL\"));\r\n}\r\n\r\n\r\nfunction getOracleCurrencyConversion() public payable{\r\n\t require(msg.value==askOracleCost(), \"Price Error\");\r\n\t queryID1=oraclize_query(\"URL\",\"json(https://min-api.cryptocompare.com/data/price?fsym=ETH&tsyms=USD).USD\");\r\n\t queryID2=oraclize_query(\"URL\", \"json(https://api.kraken.com/0/public/Ticker?pair=ETHUSD).result.XETHZUSD.c.0\");\r\n\t queryID3=oraclize_query(\"URL\", \"json(https://api.coinmarketcap.com/v1/ticker/ethereum/).0.price_usd\");\r\n\t }\r\n\r\nfunction __callback(bytes32 _myid, string _result) {\r\n     require (msg.sender == oraclize_cbAddress());\r\n             if (_myid==queryID1) {\r\n                        emit   Log(_result);\r\n\t\tprefixPrice1 = parseInt(_result, 2);\r\n        oraclesValidity=now+ 1 days;\r\n                   \r\n              }\r\n              if(_myid==queryID2) {\r\n                      emit     Log(_result);\r\n\t\tprefixPrice2 = parseInt(_result, 2);\r\n        oraclesValidity=now+ 1 days;\r\n                   \r\n        \r\n\t\t             }\r\n\t\t\t if(_myid==queryID3) {\r\n                    emit       Log(_result);\r\n\t\tprefixPrice3 = parseInt(_result, 2);\r\n\t\toraclesValidity=now+ 1 days;\r\n                   \r\n             }\r\n\r\n}\r\n\r\n\r\n\r\nfunction computeAllocationCost()public{\r\nrequire(now<=oraclesValidity, \"Price Not Valid anymore, please make another oracle call\");\r\nbool a;\r\nbool b;\r\nbool c;\r\nuint8 count=0;\r\nif(prefixPrice1!=0) {a=true; count=count+1;} else a=false;\r\nif(prefixPrice2!=0) {b=true; count=count+1;} else b=false;\r\nif(prefixPrice3!=0) {c=true; count=count+1;} else c=false;\r\n\r\nif(count==3){\r\n    if((prefixPrice1>prefixPrice2 && prefixPrice1>prefixPrice3) || (prefixPrice1<prefixPrice2 && prefixPrice1<prefixPrice3)){\r\n\r\n\t    if((prefixPrice2>prefixPrice1 && prefixPrice2>prefixPrice3) || (prefixPrice2<prefixPrice1 && prefixPrice2<prefixPrice3)){\r\n\t\t    price=prefixPrice3;\r\n\t    }\r\n\t\telse price=prefixPrice2;\r\n    }\r\n\telse price=prefixPrice1;\r\n}\r\nif(count==0)price=securityPrice;\r\nif(count==1)price=securityPrice;\r\nif(count==2){ if(a && b) price=(prefixPrice1+prefixPrice2/2); if(a && c) price=(prefixPrice1+prefixPrice3)/2; if(c && b) price=(prefixPrice2+prefixPrice3)/2;} \r\n\r\nuserPrefixPrices[msg.sender].prefixPrice=(divide(dollarsPrice,price,5))*(10**13);\r\nuserPrefixPrices[msg.sender].validity=now+ 1 days;\r\n\r\n}\r\n\r\n//******************************************************* KEY ROLLOVER FUNCTIONS *******************************************************\r\n\r\n//Function to permit the change of the owner (the ones who recive the funds) \t\r\nfunction transferInBlockControl(address new_owner)onlyOwner(){\r\n\towner=new_owner;\r\n\t}\r\n\r\n//Function to permit the transfer of the ownership of a specific block \r\nfunction transferAllocatedPrefixControl(bytes16 ip,address new_owner) public {\r\n\t\t\r\n\t\tint id= int(reverseSparse(ip));\r\n\t\trequire(blocks[id].ip_address!=\"\");\r\n\t\trequire(msg.sender==blocks[id].o_addr, \"You are not the owner of the block\");\r\n\t\tblocks[id].o_addr=new_owner;\r\n\r\n}\r\n\r\nfunction transferDelegatedPrefixControl(bytes16 ip, bytes16 ip2, uint8 mask, address new_owner) public {\r\n\t\t\r\n\t\tint id= int(reverseSparse(ip));\r\n\t\trequire(!isPrefixInUse(id));\r\n\t\tint id2= del_find(ip, ip2, mask);\r\n\t\trequire(id2!=-1 && id2!=-2);\r\n\t\trequire(msg.sender==blocks[id].del_blocks[id2].o_addr, \"You are not the owner of the block\");\r\n\t\tblocks[id].del_blocks[id2].o_addr=new_owner;\r\n\r\n}\r\n\r\n//******************************************************* CONTRACT BALANCE FUNCTIONS *******************************************************\r\n\r\n\r\n//fallback function to permit everyone to give ether to the contract\r\nfunction pay () payable{}\r\n\r\n\r\n}",
  "sourcePath": "C:\\Users\\User\\Desktop\\Opt_inblock_code\\InBlock\\contracts\\InBlock.sol",
  "compiler": {
    "name": "solc",
    "version": "0.4.25+commit.59dbf8f1.Emscripten.clang"
  },
  "schemaVersion": "2.0.2",
  "updatedAt": "2020-02-06T15:11:09.685Z"
}