{
  "contractName": "InBlock_F",
  "abi": [
    {
      "constant": true,
      "inputs": [],
      "name": "ID_expired",
      "outputs": [
        {
          "name": "",
          "type": "int256"
        }
      ],
      "payable": false,
      "stateMutability": "view",
      "type": "function"
    },
    {
      "constant": false,
      "inputs": [
        {
          "name": "id",
          "type": "int256"
        }
      ],
      "name": "expire_id",
      "outputs": [
        {
          "name": "",
          "type": "bool"
        }
      ],
      "payable": false,
      "stateMutability": "nonpayable",
      "type": "function"
    },
    {
      "constant": false,
      "inputs": [],
      "name": "circuitBreaker",
      "outputs": [],
      "payable": false,
      "stateMutability": "nonpayable",
      "type": "function"
    },
    {
      "constant": true,
      "inputs": [],
      "name": "allocation_prefix_mask",
      "outputs": [
        {
          "name": "",
          "type": "uint8"
        }
      ],
      "payable": false,
      "stateMutability": "view",
      "type": "function"
    },
    {
      "constant": true,
      "inputs": [],
      "name": "max_allocable_blocks",
      "outputs": [
        {
          "name": "",
          "type": "uint256"
        }
      ],
      "payable": false,
      "stateMutability": "view",
      "type": "function"
    },
    {
      "constant": true,
      "inputs": [
        {
          "name": "id",
          "type": "int256"
        }
      ],
      "name": "isAllocatedPrefixExpired",
      "outputs": [
        {
          "name": "",
          "type": "bool"
        }
      ],
      "payable": false,
      "stateMutability": "view",
      "type": "function"
    },
    {
      "constant": true,
      "inputs": [
        {
          "name": "id",
          "type": "int256"
        }
      ],
      "name": "isPrefixInUse",
      "outputs": [
        {
          "name": "",
          "type": "bool"
        }
      ],
      "payable": false,
      "stateMutability": "view",
      "type": "function"
    },
    {
      "constant": true,
      "inputs": [],
      "name": "prefixPrice3",
      "outputs": [
        {
          "name": "",
          "type": "uint256"
        }
      ],
      "payable": false,
      "stateMutability": "view",
      "type": "function"
    },
    {
      "constant": true,
      "inputs": [],
      "name": "ID_Index",
      "outputs": [
        {
          "name": "",
          "type": "int256"
        }
      ],
      "payable": false,
      "stateMutability": "view",
      "type": "function"
    },
    {
      "constant": false,
      "inputs": [],
      "name": "toggleCircuit",
      "outputs": [],
      "payable": false,
      "stateMutability": "nonpayable",
      "type": "function"
    },
    {
      "constant": true,
      "inputs": [],
      "name": "base_prefix_mask",
      "outputs": [
        {
          "name": "",
          "type": "uint8"
        }
      ],
      "payable": false,
      "stateMutability": "view",
      "type": "function"
    },
    {
      "constant": true,
      "inputs": [],
      "name": "initial_block",
      "outputs": [
        {
          "name": "",
          "type": "bytes16"
        }
      ],
      "payable": false,
      "stateMutability": "view",
      "type": "function"
    },
    {
      "constant": true,
      "inputs": [],
      "name": "stopped",
      "outputs": [
        {
          "name": "",
          "type": "bool"
        }
      ],
      "payable": false,
      "stateMutability": "view",
      "type": "function"
    },
    {
      "constant": true,
      "inputs": [
        {
          "name": "input",
          "type": "bytes16"
        }
      ],
      "name": "reverseSparse",
      "outputs": [
        {
          "name": "num",
          "type": "uint256"
        }
      ],
      "payable": false,
      "stateMutability": "view",
      "type": "function"
    },
    {
      "constant": true,
      "inputs": [],
      "name": "seed",
      "outputs": [
        {
          "name": "",
          "type": "uint256"
        }
      ],
      "payable": false,
      "stateMutability": "view",
      "type": "function"
    },
    {
      "constant": true,
      "inputs": [
        {
          "name": "ip",
          "type": "bytes16"
        }
      ],
      "name": "isPrefixInUseIP",
      "outputs": [
        {
          "name": "",
          "type": "bool"
        }
      ],
      "payable": false,
      "stateMutability": "view",
      "type": "function"
    },
    {
      "constant": true,
      "inputs": [],
      "name": "askOracleCost",
      "outputs": [
        {
          "name": "",
          "type": "uint256"
        }
      ],
      "payable": false,
      "stateMutability": "view",
      "type": "function"
    },
    {
      "constant": true,
      "inputs": [],
      "name": "owner",
      "outputs": [
        {
          "name": "",
          "type": "address"
        }
      ],
      "payable": false,
      "stateMutability": "view",
      "type": "function"
    },
    {
      "constant": true,
      "inputs": [],
      "name": "price",
      "outputs": [
        {
          "name": "",
          "type": "uint256"
        }
      ],
      "payable": false,
      "stateMutability": "view",
      "type": "function"
    },
    {
      "constant": true,
      "inputs": [],
      "name": "ID",
      "outputs": [
        {
          "name": "",
          "type": "int256"
        }
      ],
      "payable": false,
      "stateMutability": "view",
      "type": "function"
    },
    {
      "constant": true,
      "inputs": [],
      "name": "dollarsPrice",
      "outputs": [
        {
          "name": "",
          "type": "uint256"
        }
      ],
      "payable": false,
      "stateMutability": "view",
      "type": "function"
    },
    {
      "constant": true,
      "inputs": [],
      "name": "max_del",
      "outputs": [
        {
          "name": "",
          "type": "uint8"
        }
      ],
      "payable": false,
      "stateMutability": "view",
      "type": "function"
    },
    {
      "constant": true,
      "inputs": [
        {
          "name": "id",
          "type": "uint256"
        }
      ],
      "name": "sparse",
      "outputs": [
        {
          "name": "",
          "type": "bytes16"
        }
      ],
      "payable": false,
      "stateMutability": "view",
      "type": "function"
    },
    {
      "constant": true,
      "inputs": [],
      "name": "prefixPrice1",
      "outputs": [
        {
          "name": "",
          "type": "uint256"
        }
      ],
      "payable": false,
      "stateMutability": "view",
      "type": "function"
    },
    {
      "constant": true,
      "inputs": [],
      "name": "prefixPrice2",
      "outputs": [
        {
          "name": "",
          "type": "uint256"
        }
      ],
      "payable": false,
      "stateMutability": "view",
      "type": "function"
    },
    {
      "constant": true,
      "inputs": [],
      "name": "prefixPrice",
      "outputs": [
        {
          "name": "",
          "type": "uint256"
        }
      ],
      "payable": false,
      "stateMutability": "view",
      "type": "function"
    },
    {
      "constant": true,
      "inputs": [
        {
          "name": "id",
          "type": "int256"
        }
      ],
      "name": "getItem",
      "outputs": [
        {
          "name": "ip",
          "type": "bytes16"
        },
        {
          "name": "o",
          "type": "address"
        },
        {
          "name": "mask",
          "type": "uint8"
        },
        {
          "name": "_date",
          "type": "uint256"
        },
        {
          "name": "a",
          "type": "bytes"
        },
        {
          "name": "b",
          "type": "bytes"
        },
        {
          "name": "c",
          "type": "bytes"
        },
        {
          "name": "d",
          "type": "bytes"
        }
      ],
      "payable": false,
      "stateMutability": "view",
      "type": "function"
    },
    {
      "constant": true,
      "inputs": [
        {
          "name": "id",
          "type": "int256"
        }
      ],
      "name": "getAddressID",
      "outputs": [
        {
          "name": "ip",
          "type": "bytes16"
        }
      ],
      "payable": false,
      "stateMutability": "view",
      "type": "function"
    },
    {
      "constant": true,
      "inputs": [
        {
          "name": "a",
          "type": "address"
        },
        {
          "name": "start",
          "type": "int256"
        },
        {
          "name": "stop",
          "type": "int256"
        }
      ],
      "name": "getIDsBlocksAddress",
      "outputs": [
        {
          "name": "result",
          "type": "uint256[]"
        }
      ],
      "payable": false,
      "stateMutability": "view",
      "type": "function"
    },
    {
      "constant": false,
      "inputs": [],
      "name": "prefixRequest",
      "outputs": [
        {
          "name": "",
          "type": "bool"
        }
      ],
      "payable": true,
      "stateMutability": "payable",
      "type": "function"
    },
    {
      "constant": false,
      "inputs": [
        {
          "name": "ip",
          "type": "bytes16"
        }
      ],
      "name": "sequentialAllocationPrefixRequest",
      "outputs": [
        {
          "name": "",
          "type": "bool"
        }
      ],
      "payable": true,
      "stateMutability": "payable",
      "type": "function"
    },
    {
      "constant": false,
      "inputs": [
        {
          "name": "id",
          "type": "int256"
        }
      ],
      "name": "prefixRenewID",
      "outputs": [
        {
          "name": "",
          "type": "bool"
        },
        {
          "name": "",
          "type": "uint256"
        }
      ],
      "payable": true,
      "stateMutability": "payable",
      "type": "function"
    },
    {
      "constant": true,
      "inputs": [
        {
          "name": "start",
          "type": "int256"
        },
        {
          "name": "stop",
          "type": "int256"
        }
      ],
      "name": "getIDsBlocksExpired",
      "outputs": [
        {
          "name": "result",
          "type": "uint256[]"
        }
      ],
      "payable": false,
      "stateMutability": "view",
      "type": "function"
    },
    {
      "constant": false,
      "inputs": [
        {
          "name": "id",
          "type": "int256"
        }
      ],
      "name": "recoverExpiredBlock",
      "outputs": [],
      "payable": false,
      "stateMutability": "nonpayable",
      "type": "function"
    },
    {
      "constant": true,
      "inputs": [],
      "name": "getRecovered",
      "outputs": [
        {
          "name": "result",
          "type": "uint256[]"
        }
      ],
      "payable": false,
      "stateMutability": "view",
      "type": "function"
    },
    {
      "constant": false,
      "inputs": [
        {
          "name": "ip",
          "type": "bytes16"
        },
        {
          "name": "uri",
          "type": "bytes"
        },
        {
          "name": "hashFunction",
          "type": "bytes"
        },
        {
          "name": "hash",
          "type": "bytes"
        }
      ],
      "name": "setPolicyURI",
      "outputs": [],
      "payable": false,
      "stateMutability": "nonpayable",
      "type": "function"
    },
    {
      "constant": false,
      "inputs": [
        {
          "name": "id",
          "type": "int256"
        },
        {
          "name": "uri",
          "type": "bytes"
        },
        {
          "name": "hashFunction",
          "type": "bytes"
        },
        {
          "name": "hash",
          "type": "bytes"
        }
      ],
      "name": "setPolicyURIiD",
      "outputs": [],
      "payable": false,
      "stateMutability": "nonpayable",
      "type": "function"
    },
    {
      "constant": false,
      "inputs": [
        {
          "name": "ip",
          "type": "bytes16"
        }
      ],
      "name": "getPolicyURI",
      "outputs": [
        {
          "name": "",
          "type": "bytes"
        },
        {
          "name": "",
          "type": "bytes"
        },
        {
          "name": "",
          "type": "bytes"
        }
      ],
      "payable": false,
      "stateMutability": "nonpayable",
      "type": "function"
    },
    {
      "constant": true,
      "inputs": [
        {
          "name": "ip",
          "type": "bytes16"
        }
      ],
      "name": "getRoA",
      "outputs": [
        {
          "name": "",
          "type": "bytes"
        }
      ],
      "payable": false,
      "stateMutability": "view",
      "type": "function"
    },
    {
      "constant": false,
      "inputs": [
        {
          "name": "ip",
          "type": "bytes16"
        },
        {
          "name": "ASes",
          "type": "bytes"
        }
      ],
      "name": "setRoA",
      "outputs": [],
      "payable": false,
      "stateMutability": "nonpayable",
      "type": "function"
    },
    {
      "constant": false,
      "inputs": [
        {
          "name": "id",
          "type": "int256"
        },
        {
          "name": "ASes",
          "type": "bytes"
        }
      ],
      "name": "setRoAID",
      "outputs": [],
      "payable": false,
      "stateMutability": "nonpayable",
      "type": "function"
    }
  ],
  "bytecode": "0x608060405234801561001057600080fd5b506126ba806100206000396000f3006080604052600436106101f85763ffffffff7c010000000000000000000000000000000000000000000000000000000060003504166306cd8b7581146101fd5780630bf59cc11461022457806316efd941146102505780631877ef5e146102675780631a7f57ad1461029c5780632059b40d146102c7578063233f9756146102dc57806325b2d85e146102f45780632a2388791461030c5780632d993acf1461037457806334725c761461044e57806337c454e9146104635780633ae5e307146104c85780633b2d563a146104dd578063460e6c00146104f55780634962185114610510578063585df8221461052557806361d2f70a146105835780636e53d06514610598578063706c3eae146107b4578063743d9ff8146107c957806375f12b21146107de578063778193a1146107f35780637d94792a1461081557806380f90eda1461082a578063872fa4c91461085157806389dd4023146109355780638c2a8c10146109575780638da5cb5b1461096c578063a035b1fe1461099d578063ab4a5604146109b2578063aea61974146109d8578063b2d3d0b414610b3e578063b3cea21714610b46578063b5820d7514610b5b578063c5ba2bd414610b70578063d0db65ce14610b85578063ecafa25214610b9d578063f68d2d5b14610bb2578063fced003014610bc7578063ff6e3c3114610c5e575b600080fd5b34801561020957600080fd5b50610212610c73565b60408051918252519081900360200190f35b34801561023057600080fd5b5061023c600435610c79565b604080519115158252519081900360200190f35b34801561025c57600080fd5b50610265610cbd565b005b34801561027357600080fd5b5061027f600435610cf4565b604080516001608060020a03199092168252519081900360200190f35b3480156102a857600080fd5b506102b1610d0c565b6040805160ff9092168252519081900360200190f35b3480156102d357600080fd5b50610212610d1c565b3480156102e857600080fd5b5061023c600435610d22565b34801561030057600080fd5b5061023c600435610d66565b34801561031857600080fd5b5060408051602060046024803582810135601f81018590048502860185019096528585526102659583356001608060020a031916953695604494919390910191908190840183828082843750949750610db49650505050505050565b34801561038057600080fd5b5060408051602060046024803582810135601f810185900485028601850190965285855261026595833595369560449491939091019190819084018382808284375050604080516020601f89358b018035918201839004830284018301909452808352979a99988101979196509182019450925082915084018382808284375050604080516020601f89358b018035918201839004830284018301909452808352979a999881019791965091820194509250829150840183828082843750949750610e269650505050505050565b34801561045a57600080fd5b50610212610eb2565b34801561046f57600080fd5b50610478610eb8565b60408051602080825283518183015283519192839290830191858101910280838360005b838110156104b457818101518382015260200161049c565b505050509050019250505060405180910390f35b3480156104d457600080fd5b50610212610f3d565b3480156104e957600080fd5b50610265600435610f43565b34801561050157600080fd5b50610478600435602435611087565b34801561051c57600080fd5b50610265611116565b34801561053157600080fd5b5060408051602060046024803582810135601f810185900485028601850190965285855261026595833595369560449491939091019190819084018382808284375094975061115f9650505050505050565b61023c6001608060020a0319600435166111c3565b3480156105a457600080fd5b506105b06004356114b0565b60405180896fffffffffffffffffffffffffffffffff19166fffffffffffffffffffffffffffffffff1916815260200188600160a060020a0316600160a060020a031681526020018760ff1660ff16815260200186815260200180602001806020018060200180602001858103855289818151815260200191508051906020019080838360005b8381101561064f578181015183820152602001610637565b50505050905090810190601f16801561067c5780820380516001836020036101000a031916815260200191505b5085810384528851815288516020918201918a019080838360005b838110156106af578181015183820152602001610697565b50505050905090810190601f1680156106dc5780820380516001836020036101000a031916815260200191505b50858103835287518152875160209182019189019080838360005b8381101561070f5781810151838201526020016106f7565b50505050905090810190601f16801561073c5780820380516001836020036101000a031916815260200191505b50858103825286518152865160209182019188019080838360005b8381101561076f578181015183820152602001610757565b50505050905090810190601f16801561079c5780820380516001836020036101000a031916815260200191505b509c5050505050505050505050505060405180910390f35b3480156107c057600080fd5b506102b1611769565b3480156107d557600080fd5b5061027f611779565b3480156107ea57600080fd5b5061023c611785565b3480156107ff57600080fd5b506102126001608060020a031960043516611795565b34801561082157600080fd5b506102126119d9565b34801561083657600080fd5b50610478600160a060020a03600435166024356044356119df565b34801561085d57600080fd5b5060408051602060046024803582810135601f81018590048502860185019096528585526102659583356001608060020a03191695369560449491939091019190819084018382808284375050604080516020601f89358b018035918201839004830284018301909452808352979a99988101979196509182019450925082915084018382808284375050604080516020601f89358b018035918201839004830284018301909452808352979a999881019791965091820194509250829150840183828082843750949750611a9c9650505050505050565b34801561094157600080fd5b5061023c6001608060020a031960043516611b36565b34801561096357600080fd5b50610212611b95565b34801561097857600080fd5b50610981611b9b565b60408051600160a060020a039092168252519081900360200190f35b3480156109a957600080fd5b50610212611baa565b6109bd600435611bb0565b60408051921515835260208301919091528051918290030190f35b3480156109e457600080fd5b506109fa6001608060020a031960043516611d51565b60405180806020018060200180602001848103845287818151815260200191508051906020019080838360005b83811015610a3f578181015183820152602001610a27565b50505050905090810190601f168015610a6c5780820380516001836020036101000a031916815260200191505b50848103835286518152865160209182019188019080838360005b83811015610a9f578181015183820152602001610a87565b50505050905090810190601f168015610acc5780820380516001836020036101000a031916815260200191505b50848103825285518152855160209182019187019080838360005b83811015610aff578181015183820152602001610ae7565b50505050905090810190601f168015610b2c5780820380516001836020036101000a031916815260200191505b50965050505050505060405180910390f35b61023c611f4c565b348015610b5257600080fd5b506102126120fe565b348015610b6757600080fd5b50610212612104565b348015610b7c57600080fd5b506102b161210a565b348015610b9157600080fd5b5061027f60043561212c565b348015610ba957600080fd5b506102126121e6565b348015610bbe57600080fd5b506102126121ec565b348015610bd357600080fd5b50610be96001608060020a0319600435166121f2565b6040805160208082528351818301528351919283929083019185019080838360005b83811015610c23578181015183820152602001610c0b565b50505050905090810190601f168015610c505780820380516001836020036101000a031916815260200191505b509250505060405180910390f35b348015610c6a57600080fd5b506102126122b8565b60085481565b60008181526010602052604081206002015415610cb45750600081815260106020526040902060020180546301e1337f190190556001610cb8565b5060005b919050565b600b54600160a060020a03163314610cd457600080fd5b600b805474ff000000000000000000000000000000000000000019169055565b600090815260106020526040902054608060020a0290565b600b5460b060020a900460ff1681565b600d5481565b6000818152601060205260408120600201546301e13380014210801590610d59575060008281526010602052604090206002015415155b15610cb457506001610cb8565b6000610d7182610d22565b1515610d7f57506001610cb8565b600082815260106020526040902054608060020a026001608060020a0319161515610dac57506000610cb8565b506001919050565b6000610dbf83611795565b9050610dca81610d66565b1515610dd557600080fd5b600081815260106020526040902060010154600160a060020a03163314610dfb57600080fd5b60008181526010602090815260409091208351610e20926006909201918501906125f6565b50505050565b610e2f84610d66565b1515610e3a57600080fd5b60008481526010602090815260409091208451610e5f926003909201918601906125f6565b5060008481526010602090815260409091208351610e85926004909201918501906125f6565b5060008481526010602090815260409091208251610eab926005909201918401906125f6565b5050505050565b60025481565b60606000806000600854925082604051908082528060200260200182016040528015610eee578160200160208202803883390190505b50935060009150600090505b600854811215610f37576000818152600f60205260409020548451859084908110610f2157fe5b6020908102909101015260019182019101610efa565b50505090565b60075481565b600b54600160a060020a03163314610f5a57600080fd5b610f6381610d22565b1515610f6e57600080fd5b600081815260106020818152604080842080546001608060020a031916815560018101805474ffffffffffffffffffffffffffffffffffffffffff191690556002810185905581518084019283905285815294869052929091529151610fda92600390920191906125f6565b5060408051602081810180845260008084528581526010909252929020905161100992600490920191906125f6565b5060408051602081810180845260008084528581526010909252929020905161103892600590920191906125f6565b5060408051602081810180845260008084528581526010909252929020905161106792600690920191906125f6565b50600880546000908152600f602052604090209190915580546001019055565b6060600080600061109886866122be565b9250826040519080825280602002602001820160405280156110c4578160200160208202803883390190505b509350600091508590505b8481121561110d576110e081610d22565b15611105578084838151811015156110f457fe5b602090810290910101526001909101905b6001016110cf565b50505092915050565b600b54600160a060020a0316331461112d57600080fd5b600b805474ff000000000000000000000000000000000000000019811660a060020a9182900460ff1615909102179055565b61116882610d66565b151561117357600080fd5b600082815260106020526040902060010154600160a060020a0316331461119957600080fd5b600082815260106020908152604090912082516111be926006909201918401906125f6565b505050565b600080600080600b60149054906101000a900460ff16156111e357600080fd5b600d54600754126111f357600080fd5b346672a57c275dc8006009540311158061121857506009546672a57c275dc800013411155b151561126e576040805160e560020a62461bcd02815260206004820152600b60248201527f5072696365206572726f72000000000000000000000000000000000000000000604482015290519081900360640190fd5b61127785611795565b925061128283610d66565b151561128d57600080fd5b600083815260106020526040902060010154600160a060020a031633146112fe576040805160e560020a62461bcd02815260206004820152601660248201527f596f7520617265206e6f7420417574686f72697a656400000000000000000000604482015290519081900360640190fd5b600b5461131990869060b060020a900460ff166080036122f0565b151561134157600b5461133a90869060b060020a900460ff16608003612319565b945061141e565b600b5461135c90869060b060020a900460ff16608003612335565b9450600191505b600a54600b5460ff608060020a909204821660b060020a9091048216038116908316101561141e576113a98583600b60169054906101000a900460ff16036080036122f0565b156113d9576113cc8583600b60169054906101000a900460ff1603608003612335565b9450600190910190611419565b6113f78583600b60169054906101000a900460ff1603608003612319565b600a54600b5491965060ff608060020a909104811660b060020a909204160391505b611363565b61142785611795565b600081815260106020526040902054909150608060020a026001608060020a0319161561145357600080fd5b600b5461146b90869060b060020a900460ff1661235c565b600b54604051600160a060020a03909116903480156108fc02916000818181858888f193505050501580156114a4573d6000803e3d6000fd5b50600195945050505050565b60008181526010602090815260409182902080546001808301546002808501546003909501805488516101009582161595909502600019011691909104601f8101879004870284018701909752868352608060020a90930295600160a060020a0382169560a060020a90920460ff1694936060938493849384939183018282801561157c5780601f106115515761010080835404028352916020019161157c565b820191906000526020600020905b81548152906001019060200180831161155f57829003601f168201915b50505060008c8152601060209081526040918290206005018054835160026001831615610100026000190190921691909104601f8101849004840282018401909452838152959950935090915083018282801561161a5780601f106115ef5761010080835404028352916020019161161a565b820191906000526020600020905b8154815290600101906020018083116115fd57829003601f168201915b50505060008c8152601060209081526040918290206004018054835160026001831615610100026000190190921691909104601f810184900484028201840190945283815295985093509091508301828280156116b85780601f1061168d576101008083540402835291602001916116b8565b820191906000526020600020905b81548152906001019060200180831161169b57829003601f168201915b50505060008c8152601060209081526040918290206006018054835160026001831615610100026000190190921691909104601f810184900484028201840190945283815295975093509091508301828280156117565780601f1061172b57610100808354040283529160200191611756565b820191906000526020600020905b81548152906001019060200180831161173957829003601f168201915b5093945050505050919395975091939597565b600a54608060020a900460ff1681565b600a54608060020a0281565b600b5460a060020a900460ff1681565b600080808080808080808080805b600a54600160ff608060020a909204821601811690831610156117ed576117cd8d836080036122f0565b156117e2576117df8d83608003612335565b9c505b6001909101906117a3565b5060005b600a54600b5460ff608060020a909204821660b060020a9091048216038116908216101561198b5761183a8d82600a60109054906101000a900460ff16600101016080036122f0565b1561196f578060ff16600011158015611857575060038160ff1611155b15611865578260020a8b019a505b8060ff1660041115801561187d575060078160ff1611155b1561188b578260020a8a0199505b8060ff166008111580156118a35750600b8160ff1611155b156118b1578260020a890198505b8060ff16600c111580156118c95750600f8160ff1611155b156118d7578260020a880197505b8060ff166010111580156118ef575060138160ff1611155b156118fd578260020a870196505b8060ff16601411158015611915575060178160ff1611155b15611923578260020a860195505b8060ff1660181115801561193b5750601b8160ff1611155b15611949578260020a850194505b8060ff16601c111580156119615750601f8160ff1611155b1561196f578260020a840193505b826001019250826004141561198357600092505b6001016117f1565b50506001631000000090920263010000009093026210000090940262010000909502611000909602610100909702601090980298909801969096019490940192909201010101019392505050565b600c5481565b606060008060006119f18787876123f9565b925082604051908082528060200260200182016040528015611a1d578160200160208202803883390190505b509350600091508590505b84600101811215611a9257600081815260106020526040902060010154600160a060020a038881169116148015611a655750611a6381610d22565b155b15611a8a57808483815181101515611a7957fe5b602090810290910101526001909101905b600101611a28565b5050509392505050565b6000611aa785611795565b9050611ab281610d66565b1515611abd57600080fd5b60008181526010602090815260409091208551611ae2926003909201918701906125f6565b5060008181526010602090815260409091208451611b08926004909201918601906125f6565b5060008181526010602090815260409091208351611b2e926005909201918501906125f6565b505050505050565b600080611b4283611795565b9050611b4d81610d22565b1515611b5c5760019150611b8f565b600081815260106020526040902054608060020a026001608060020a0319161515611b8a5760009150611b8f565b600191505b50919050565b60035481565b600b54600160a060020a031681565b60045481565b6000806000600b60149054906101000a900460ff1615611bcf57600080fd5b6009543414611c28576040805160e560020a62461bcd02815260206004820152600c60248201527f5072696365204572726f722e0000000000000000000000000000000000000000604482015290519081900360640190fd5b611c3184610d66565b1515611c3c57600080fd5b600084815260106020526040902060010154600160a060020a03163314611cd3576040805160e560020a62461bcd02815260206004820152602260248201527f596f7520617265206e6f7420746865206f776e6572206f662074686520626c6f60448201527f636b000000000000000000000000000000000000000000000000000000000000606482015290519081900360840190fd5b50600083815260106020526040808220600201805442908190039081016301e13380908101909255600b549251910192600160a060020a03909216913480156108fc02929091818181858888f19350505050158015611d36573d6000803e3d6000fd5b50505060009182525060106020526040902060020154600191565b60608060606000611d6185611795565b9050611d6c81610d66565b1515611d7757600080fd5b600081815260106020908152604091829020600381018054845160026001831615610100026000190190921691909104601f810185900485028201850190955284815290936004830193600590930192859190830182828015611e1b5780601f10611df057610100808354040283529160200191611e1b565b820191906000526020600020905b815481529060010190602001808311611dfe57829003601f168201915b5050855460408051602060026001851615610100026000190190941693909304601f810184900484028201840190925281815295985087945092508401905082828015611ea95780601f10611e7e57610100808354040283529160200191611ea9565b820191906000526020600020905b815481529060010190602001808311611e8c57829003601f168201915b5050845460408051602060026001851615610100026000190190941693909304601f810184900484028201840190925281815295975086945092508401905082828015611f375780601f10611f0c57610100808354040283529160200191611f37565b820191906000526020600020905b815481529060010190602001808311611f1a57829003601f168201915b50505050509050935093509350509193909250565b600080600080600080346672a57c275dc80060095403111580611f7a57506009546672a57c275dc800013411155b1515611fd0576040805160e560020a62461bcd02815260206004820152600b60248201527f5072696365206572726f72000000000000000000000000000000000000000000604482015290519081900360640190fd5b600094505b8415156101f857600d546007541415612043576008541515611ff657600080fd5b600854600019016000908152600f6020908152604080832054808452601090925290912054909450608060020a02925061202f83612458565b6120376125a9565b600194508495506120f6565b61204e600c5461212c565b915061205982611795565b600081815260106020526040902054909150608060020a026001608060020a03191615156120e857600b5461209990839060b060020a900460ff1661235c565b600c80546001019055600b54604051600160a060020a03909116903480156108fc02916000818181858888f193505050501580156120db573d6000803e3d6000fd5b50600194508495506120f6565b600c80546001019055611fd5565b505050505090565b60065481565b60055481565b600b547501000000000000000000000000000000000000000000900460ff1681565b600a54600090608060020a028160028406156121645761216182600a60109054906101000a900460ff16600101608003612319565b91505b5060015b600a54600b5460ff608060020a909204821660b060020a909104821603811690821610156121df5760028160ff1660020a858115156121a357fe5b048115156121ad57fe5b06156121d7576121d48282600a60109054906101000a900460ff1660010101608003612319565b91505b600101612168565b5092915050565b60005481565b60015481565b606060006121ff83611795565b905061220a81610d66565b151561221557600080fd5b60008181526010602090815260409182902060060180548351601f6002600019610100600186161502019093169290920491820184900484028101840190945280845290918301828280156122ab5780601f10612280576101008083540402835291602001916122ab565b820191906000526020600020905b81548152906001019060200180831161228e57829003601f168201915b5050505050915050919050565b60095481565b600080835b838112156122e8576122d481610d22565b156122e0578160010191505b6001016122c3565b509392505050565b6000612303608060020a60ff84166125c6565b929092166001608060020a031916151592915050565b600061232c608060020a60ff84166125c6565b90921792915050565b60008061235161234c608060020a60ff86166125c6565b6125d7565b939093169392505050565b600061236783611795565b600090815260106020526040902080546001608060020a031916608060020a90940493909317835550600180830180543373ffffffffffffffffffffffffffffffffffffffff199091161774ff0000000000000000000000000000000000000000191660a060020a60ff949094169390930292909217909155426002830155600a909101819055600780549091019055565b600080835b8360010181121561244f57600081815260106020526040902060010154600160a060020a03878116911614801561243b575061243981610d22565b155b15612447578160010191505b6001016123fe565b50949350505050565b600061246382611795565b600081815260106020818152604080842080546001608060020a031916608060020a89041781556001810180543373ffffffffffffffffffffffffffffffffffffffff1990911617808255600b5474ff00000000000000000000000000000000000000001990911660b060020a90910460ff1660a060020a021790554260028201558151808401928390528581529486905292909152915192935061250e92600690910191906125f6565b5060408051602081810180845260008084528581526010909252929020905161253d92600390920191906125f6565b5060408051602081810180845260008084528581526010909252929020905161256c92600490920191906125f6565b5060408051602081810180845260008084528581526010909252929020905161259b92600590920191906125f6565b505060078054600101905550565b600880546000908152600f60205260408120558054600019019055565b60020a608060020a91829004020290565b60006125e16125e9565b909118919050565b6001608060020a03195b90565b828054600181600116156101000203166002900490600052602060002090601f016020900481019282601f1061263757805160ff1916838001178555612664565b82800160010185558215612664579182015b82811115612664578251825591602001919060010190612649565b50612670929150612674565b5090565b6125f391905b80821115612670576000815560010161267a5600a165627a7a72305820e52b195981c023ed55de14546b14139e4f503a1500507e0e2e48c6b21f14f0380029",
  "source": "pragma solidity ^0.4.24;\r\n\r\nimport \"./InBlock_Data.sol\";\r\n\r\ncontract InBlock_F is InBlock_Data{\r\n\r\n//*************************************************** GETTER BLOCK FUNCTIONS ****************************************************************************\r\n\r\nfunction getItem(int id) public view returns (bytes16 ip, address o, uint8 mask,uint _date, bytes a, bytes b, bytes c, bytes d){\r\n\t\t\r\n\t\tip = blocks[id].ip_address;\r\n        o = blocks[id].o_addr;\r\n\t\tmask= blocks[id].mask;\r\n\t\t_date= blocks[id].date;\r\n\t\ta=blocks[id].info.uri;\r\n\t\tb=blocks[id].info.hash;\r\n\t\tc=blocks[id].info.hashFunction;\r\n\t\td=blocks[id].Roa;\r\n\t\treturn(ip,o,mask,_date,a,b,c,d);\r\n\r\n}\r\n\r\nfunction getAddressID(int id) public view returns (bytes16 ip){\r\n\t\t\r\n\t\tip = blocks[id].ip_address;\r\n        return(ip);\r\n\r\n}\r\n\r\n\t\r\nfunction countBlockAddress(address a, int start, int stop)view internal returns(uint){\r\nuint count=0;\r\nfor(int i=start; i<stop+1; i++){\r\n\t\tif(blocks[i].o_addr==a && !isAllocatedPrefixExpired(i)){\r\n\t\tcount=count+1;\r\n\t\t}\r\n\t\t}\r\n\treturn count;\r\n\r\n}\r\n\r\nfunction getIDsBlocksAddress(address a,int start, int stop)view public returns(uint[]result){\r\n\r\n\tuint count=countBlockAddress(a,start,stop);\r\n\tresult = new uint[] (count);\r\n\tuint counter=0;\r\n\t\r\n\tfor(int i=start;i<stop+1;i++){\r\n\t\tif(blocks[i].o_addr==a && !isAllocatedPrefixExpired(i)){\r\n\t\tresult[counter]=uint(i);\r\n\t\tcounter=counter+1;\r\n\t\t}\r\n\t}\r\n\treturn result; \r\n\r\n}\r\n\r\n\r\nfunction countBlock(int start, int stop)view internal returns(uint){\r\nuint count=0;\r\nfor(int i=start; i<stop+1; i++){\r\n\t\tif(!PrefCmpZ(blocks[i].ip_address) && !isAllocatedPrefixExpired(i)){\r\n\t\tcount=count+1;\r\n\t\t}\r\n\t\t}\r\n\treturn count;\r\n\r\n}\r\n\r\n\r\n//******************************************************* FIXED SIZE BLOCK REQUEST FUNCTIONS *******************************************************\r\n\r\n\r\n//PrefixRequest With sparse allocation for /32\t NB there is a fixed limit of /32 available blocks.\r\nfunction prefixRequest() payable public returns(bool){\r\n\t\t\r\n\trequire((prefixPrice - 32270100000000000)<=msg.value|| msg.value<=(prefixPrice + 32270100000000000) , \"Price error\");\r\n\t\r\n\tbool ok=false;\r\n\twhile(!ok){\r\n\t\t\r\n\t\tif(ID_Index==int(max_allocable_blocks)){\r\n\t\t\trequire(ID_expired!=0);\r\n\t\t\tint idapp=expired_array_index[ID_expired-1].ind;\r\n\t\t\tbytes16 app2=blocks[idapp].ip_address;\r\n\t\t\tsetBlockExpired(app2);\r\n\t\t\tdelete_expired();\r\n\t\t\tok=true;\r\n\t\t\treturn ok;\r\n\t\t}else{\r\n\t\t\t\r\n\t\t\t\tbytes16 app=sparse(seed);\r\n\t\t\t\tint appID=int(reverseSparse(app));\r\n\t\t\tif(blocks[appID].ip_address==\"\"){\r\n\t\t\t\tsetBlock(app,allocation_prefix_mask);\r\n\t\t\t\tseed=seed+1;\r\n\t\t\t\towner.transfer(msg.value);\r\n\t\t\t\tok=true;\r\n\t\t\t\treturn ok;\r\n\t\t\t}\r\n\t\t\telse {\r\n\t\t\t\tseed=seed+1;\r\n\t\t\t\r\n\t\t\t}\r\n\t\t}\r\n\t}\r\n\trevert();\r\n}\r\n\r\n\r\n \r\n//function to perform a sequent allocation if an user already has a block and want the contiguos one \r\nfunction sequentialAllocationPrefixRequest(bytes16 ip) notStopped() payable public returns (bool){\r\n\t\r\n\trequire(ID_Index<int(max_allocable_blocks));\r\n\trequire((prefixPrice - 32270100000000000)<=msg.value || msg.value<=(prefixPrice + 32270100000000000) , \"Price error\");\r\n\tint id= int(reverseSparse(ip));\r\n\trequire(isPrefixInUse(id));\r\n\trequire(msg.sender==blocks[id].o_addr, \"You are not Authorized\");\r\n\t\t\r\n\t\tif(!getBit(ip,128-allocation_prefix_mask)){\r\n\t\t\t\tip=setBit(ip,128-allocation_prefix_mask);\r\n\t\t}else{\t\r\n\t\t\t\tip=clearBit(ip,128-allocation_prefix_mask);\r\n\t\t\t\tuint8 i=1;\r\n\t\t\t\twhile(i<allocation_prefix_mask-base_prefix_mask){\r\n\t\t\t\t\t\r\n\t\t\t\t\t\tif(getBit(ip,128-(allocation_prefix_mask-i))){\r\n\t\t\t\t\t\t\t\tip=clearBit(ip,128-(allocation_prefix_mask-i));\r\n\t\t\t\t\t\t\t\ti++;\r\n\t\t\t\t\t\t}else{\r\n\t\t\t\t\t\t\t\tip=setBit(ip,128-(allocation_prefix_mask-i));\r\n\t\t\t\t\t\t\t\ti=allocation_prefix_mask-base_prefix_mask;\r\n\t\t\t\t\t\t\t}\r\n\t\t\t\t\t\t}\r\n\t\t\t  }\r\n\t\t\t  \r\n\t\t\r\n\t\tint id1= int(reverseSparse(ip));\r\n\t\trequire(blocks[id1].ip_address==\"\");\r\n\t\t\r\n\t\t\tsetBlock(ip,allocation_prefix_mask);\r\n\t\t\towner.transfer(msg.value);\r\n\t\t\treturn true;\r\n\t\t\r\n\t\t\trevert();\r\n}\r\n\r\n//******************************************************* BLOCK RENEWAL FUNCTION *******************************************************\r\n\r\n/*\r\nfunction prefixRenew(bytes16 ip) notStopped() payable public returns (bool,uint){\r\n\t\r\n\trequire(msg.value==prefixPrice, \"Price Error.\");\r\n\t\r\n\tint id=int(reverseSparse(ip));\r\n\trequire(isPrefixInUse(id));\r\n\trequire(msg.sender==blocks[id].o_addr, \"You are not the owner of the block\");\r\n\tuint app1= (blocks[id].date+365* 1 days)-now;\r\n\tblocks[id].date=now+app1;\t\r\n\towner.transfer(msg.value);\r\n\treturn(true,blocks[id].date);\r\n}*/\r\n\r\nfunction prefixRenewID(int id) notStopped() payable public returns (bool,uint){\r\n\t\r\n\trequire(msg.value==prefixPrice, \"Price Error.\");\r\n\trequire(isPrefixInUse(id));\r\n\trequire(msg.sender==blocks[id].o_addr, \"You are not the owner of the block\");\r\n\tuint app1= (blocks[id].date+365* 1 days)-now;\r\n\tblocks[id].date=now+app1;\t\r\n\towner.transfer(msg.value);\r\n\treturn(true,blocks[id].date);\r\n}\r\n\r\n//******************************************************* BLOCK RECOVER FUNCTION *******************************************************\r\n\r\nfunction countBlockExpired(int start, int stop)view internal returns(uint){\r\nuint count=0;\r\nfor(int i=start; i<stop; i++){\r\n\t\tif(isAllocatedPrefixExpired(i)){\r\n\t\tcount=count+1;\r\n\t\t}\r\n\t\t}\r\n\treturn count;\r\n\r\n}\r\n\r\nfunction getIDsBlocksExpired(int start, int stop)view public returns(uint[]result){\r\n\r\n\tuint count=countBlockExpired(start,stop);\r\n\tresult = new uint[] (count);\r\n\tuint counter=0;\r\n\t\r\n\tfor(int i=start;i<stop;i++){\r\n\t\tif(isAllocatedPrefixExpired(i)){\r\n\t\tresult[counter]=uint(i);\r\n\t\tcounter=counter+1;\r\n\t\t}\r\n\t}\r\n\treturn result; \r\n\r\n}\r\n\r\n\r\nfunction recoverExpiredBlock(int id)onlyOwner()public {\r\n\r\n\trequire(isAllocatedPrefixExpired(id));\r\n\tblocks[id].ip_address=\"\";\r\n\tblocks[id].mask=0;\r\n\tblocks[id].o_addr=0x00;\r\n\tblocks[id].date=0;\r\n\tblocks[id].info.uri=\"\";\r\n\tblocks[id].info.hashFunction=\"\";\r\n\tblocks[id].info.hash=\"\";\r\n\tblocks[id].Roa=\"\";\r\n\r\n\texpired_array_index[ID_expired].ind=id;\r\n\tID_expired=ID_expired+1;\r\n\r\n}\r\n\r\n\r\nfunction getRecovered()view public returns(uint[]result){\r\n\r\n\tuint count=uint(ID_expired);\r\n\tresult = new uint[] (count);\r\n\tuint counter=0;\r\n\t\r\n\tfor(int i=0;i<ID_expired;i++){\r\n\t\t\tresult[counter]=uint(expired_array_index[i].ind);\r\n\t\t\tcounter=counter+1;\r\n\t\t}\r\n\t\r\n\treturn result; \r\n\r\n}\r\n\r\nfunction delete_expired()internal{\r\n\r\n\tdelete expired_array_index[ID_expired];\r\n\tID_expired=ID_expired-1;\r\n\r\n}\r\n\r\n//******************************************************* POLICY FUNCTIONS *******************************************************\r\nfunction setPolicyURI(bytes16 ip, bytes uri, bytes hashFunction, bytes hash) public {\r\n\t\r\n\tint id=int(reverseSparse(ip));\r\n\trequire(isPrefixInUse(id));\r\n\tblocks[id].info.uri=uri;\r\n\tblocks[id].info.hashFunction=hashFunction;\r\n\tblocks[id].info.hash=hash;\r\n\t\t\t\r\n}\r\n\r\nfunction setPolicyURIiD(int id, bytes uri, bytes hashFunction, bytes hash) public {\r\n\t\r\n\trequire(isPrefixInUse(id));\r\n\tblocks[id].info.uri=uri;\r\n\tblocks[id].info.hashFunction=hashFunction;\r\n\tblocks[id].info.hash=hash;\r\n\t\t\t\r\n}\r\n\r\n\r\nfunction getPolicyURI(bytes16 ip) public returns(bytes, bytes, bytes ) {\r\n\t\r\n\tint id=int(reverseSparse(ip));\r\n\trequire(isPrefixInUse(id));\r\n\treturn(blocks[id].info.uri,blocks[id].info.hashFunction,blocks[id].info.hash);\r\n\t\r\n\t\r\n\t\t\t\r\n}\r\n\r\n//******************************************************* ASes FUNCTIONS *******************************************************\r\n\r\nfunction getRoA(bytes16 ip)view public returns(bytes){\r\n\t\r\n\tint id=int(reverseSparse(ip));\r\n\trequire(isPrefixInUse(id));\r\n\treturn blocks[id].Roa;\r\n}\r\n\r\n\r\nfunction setRoA(bytes16 ip, bytes ASes) public {\r\n\t\t\t\t\t\r\n\tint id=int(reverseSparse(ip));\r\n\trequire(isPrefixInUse(id));\r\n\trequire(msg.sender==blocks[id].o_addr);\r\n\tblocks[id].Roa=ASes;\r\n}\r\n\r\n\r\nfunction setRoAID(int id, bytes ASes) public {\r\n\r\n\trequire(isPrefixInUse(id));\r\n\trequire(msg.sender==blocks[id].o_addr);\r\n\tblocks[id].Roa=ASes;\r\n}\r\n\r\n//*****************************************************BLOCKS SETTER*************************************************************\r\n\t\r\nfunction setBlock(bytes16 ip,uint8 mask)internal {\r\n\r\nint id=int(reverseSparse(ip));\r\nblocks[id].ip_address=ip;\r\nblocks[id].o_addr=msg.sender;\r\nblocks[id].mask=mask;\r\nblocks[id].date=now;\r\nblocks[id].ID_delegated=1;\r\nID_Index=ID_Index+1;\r\n}\r\n\r\n\r\n \r\nfunction setBlockExpired(bytes16 ip) internal {\r\n\tint id=int(reverseSparse(ip));\t\r\n\tblocks[id].ip_address=ip;\r\n\tblocks[id].o_addr=msg.sender;\r\n\tblocks[id].mask=allocation_prefix_mask;\r\n\tblocks[id].date=now;\r\n\tblocks[id].Roa=\"\";\r\n\tblocks[id].info.uri=\"\";\r\n\tblocks[id].info.hashFunction=\"\";\r\n\tblocks[id].info.hash=\"\";\r\n\tID_Index=ID_Index+1;\r\n}\r\n\r\n\r\n}//END ",
  "sourcePath": "C:\\Users\\User\\Desktop\\InBlock_vPaper\\InBlock_v1_2\\contracts\\InBlock_F.sol",
  "compiler": {
    "name": "solc",
    "version": "0.4.24+commit.e67f0147.Emscripten.clang"
  },
  "schemaVersion": "2.0.1",
  "updatedAt": "2019-03-29T15:42:35.643Z"
}