{
  "contractName": "InBlock_F",
  "abi": [
    {
      "constant": true,
      "inputs": [],
      "name": "ID_expired",
      "outputs": [
        {
          "name": "",
          "type": "int256"
        }
      ],
      "payable": false,
      "stateMutability": "view",
      "type": "function"
    },
    {
      "constant": true,
      "inputs": [],
      "name": "allocation_prefix_mask",
      "outputs": [
        {
          "name": "",
          "type": "uint8"
        }
      ],
      "payable": false,
      "stateMutability": "view",
      "type": "function"
    },
    {
      "constant": true,
      "inputs": [],
      "name": "max_allocable_blocks",
      "outputs": [
        {
          "name": "",
          "type": "uint256"
        }
      ],
      "payable": false,
      "stateMutability": "view",
      "type": "function"
    },
    {
      "constant": true,
      "inputs": [
        {
          "name": "id",
          "type": "int256"
        }
      ],
      "name": "isAllocatedPrefixExpired",
      "outputs": [
        {
          "name": "",
          "type": "bool"
        }
      ],
      "payable": false,
      "stateMutability": "view",
      "type": "function"
    },
    {
      "constant": true,
      "inputs": [
        {
          "name": "id",
          "type": "int256"
        }
      ],
      "name": "isPrefixInUse",
      "outputs": [
        {
          "name": "",
          "type": "bool"
        }
      ],
      "payable": false,
      "stateMutability": "view",
      "type": "function"
    },
    {
      "constant": true,
      "inputs": [],
      "name": "prefixPrice3",
      "outputs": [
        {
          "name": "",
          "type": "uint256"
        }
      ],
      "payable": false,
      "stateMutability": "view",
      "type": "function"
    },
    {
      "constant": false,
      "inputs": [],
      "name": "prefixAllocationResume",
      "outputs": [],
      "payable": false,
      "stateMutability": "nonpayable",
      "type": "function"
    },
    {
      "constant": true,
      "inputs": [],
      "name": "ID_Index",
      "outputs": [
        {
          "name": "",
          "type": "int256"
        }
      ],
      "payable": false,
      "stateMutability": "view",
      "type": "function"
    },
    {
      "constant": true,
      "inputs": [],
      "name": "base_prefix_mask",
      "outputs": [
        {
          "name": "",
          "type": "uint8"
        }
      ],
      "payable": false,
      "stateMutability": "view",
      "type": "function"
    },
    {
      "constant": true,
      "inputs": [],
      "name": "initial_block",
      "outputs": [
        {
          "name": "",
          "type": "bytes16"
        }
      ],
      "payable": false,
      "stateMutability": "view",
      "type": "function"
    },
    {
      "constant": true,
      "inputs": [],
      "name": "stopped",
      "outputs": [
        {
          "name": "",
          "type": "bool"
        }
      ],
      "payable": false,
      "stateMutability": "view",
      "type": "function"
    },
    {
      "constant": true,
      "inputs": [
        {
          "name": "input",
          "type": "bytes16"
        }
      ],
      "name": "reverseSparse",
      "outputs": [
        {
          "name": "num",
          "type": "uint256"
        }
      ],
      "payable": false,
      "stateMutability": "view",
      "type": "function"
    },
    {
      "constant": true,
      "inputs": [],
      "name": "seed",
      "outputs": [
        {
          "name": "",
          "type": "uint256"
        }
      ],
      "payable": false,
      "stateMutability": "view",
      "type": "function"
    },
    {
      "constant": true,
      "inputs": [],
      "name": "securityPrice",
      "outputs": [
        {
          "name": "",
          "type": "uint256"
        }
      ],
      "payable": false,
      "stateMutability": "view",
      "type": "function"
    },
    {
      "constant": false,
      "inputs": [],
      "name": "prefixAllocationStop",
      "outputs": [],
      "payable": false,
      "stateMutability": "nonpayable",
      "type": "function"
    },
    {
      "constant": true,
      "inputs": [],
      "name": "owner",
      "outputs": [
        {
          "name": "",
          "type": "address"
        }
      ],
      "payable": false,
      "stateMutability": "view",
      "type": "function"
    },
    {
      "constant": true,
      "inputs": [],
      "name": "oraclesValidity",
      "outputs": [
        {
          "name": "",
          "type": "uint256"
        }
      ],
      "payable": false,
      "stateMutability": "view",
      "type": "function"
    },
    {
      "constant": true,
      "inputs": [],
      "name": "price",
      "outputs": [
        {
          "name": "",
          "type": "uint256"
        }
      ],
      "payable": false,
      "stateMutability": "view",
      "type": "function"
    },
    {
      "constant": true,
      "inputs": [],
      "name": "ID",
      "outputs": [
        {
          "name": "",
          "type": "int256"
        }
      ],
      "payable": false,
      "stateMutability": "view",
      "type": "function"
    },
    {
      "constant": true,
      "inputs": [],
      "name": "dollarsPrice",
      "outputs": [
        {
          "name": "",
          "type": "uint256"
        }
      ],
      "payable": false,
      "stateMutability": "view",
      "type": "function"
    },
    {
      "constant": true,
      "inputs": [],
      "name": "max_del",
      "outputs": [
        {
          "name": "",
          "type": "uint8"
        }
      ],
      "payable": false,
      "stateMutability": "view",
      "type": "function"
    },
    {
      "constant": true,
      "inputs": [
        {
          "name": "id",
          "type": "uint256"
        }
      ],
      "name": "sparse",
      "outputs": [
        {
          "name": "",
          "type": "bytes16"
        }
      ],
      "payable": false,
      "stateMutability": "view",
      "type": "function"
    },
    {
      "constant": true,
      "inputs": [],
      "name": "prefixPrice1",
      "outputs": [
        {
          "name": "",
          "type": "uint256"
        }
      ],
      "payable": false,
      "stateMutability": "view",
      "type": "function"
    },
    {
      "constant": true,
      "inputs": [],
      "name": "prefixPrice2",
      "outputs": [
        {
          "name": "",
          "type": "uint256"
        }
      ],
      "payable": false,
      "stateMutability": "view",
      "type": "function"
    },
    {
      "anonymous": false,
      "inputs": [
        {
          "indexed": true,
          "name": "_from",
          "type": "address"
        },
        {
          "indexed": false,
          "name": "_value",
          "type": "uint256"
        },
        {
          "indexed": false,
          "name": "id",
          "type": "int256"
        }
      ],
      "name": "setRoaEvent",
      "type": "event"
    },
    {
      "constant": true,
      "inputs": [
        {
          "name": "id",
          "type": "int256"
        }
      ],
      "name": "getItem",
      "outputs": [
        {
          "name": "ip",
          "type": "bytes16"
        },
        {
          "name": "o",
          "type": "address"
        },
        {
          "name": "mask",
          "type": "uint8"
        },
        {
          "name": "_date",
          "type": "uint256"
        },
        {
          "name": "a",
          "type": "bytes"
        },
        {
          "name": "b",
          "type": "bytes"
        },
        {
          "name": "c",
          "type": "bytes"
        },
        {
          "name": "d",
          "type": "bytes"
        }
      ],
      "payable": false,
      "stateMutability": "view",
      "type": "function"
    },
    {
      "constant": true,
      "inputs": [
        {
          "name": "a",
          "type": "address"
        },
        {
          "name": "start",
          "type": "int256"
        },
        {
          "name": "stop",
          "type": "int256"
        }
      ],
      "name": "getIDsBlocksAddress",
      "outputs": [
        {
          "name": "result",
          "type": "uint256[]"
        }
      ],
      "payable": false,
      "stateMutability": "view",
      "type": "function"
    },
    {
      "constant": true,
      "inputs": [
        {
          "name": "start",
          "type": "int256"
        },
        {
          "name": "stop",
          "type": "int256"
        }
      ],
      "name": "getIDsAssignedBlocks",
      "outputs": [
        {
          "name": "result",
          "type": "uint256[]"
        }
      ],
      "payable": false,
      "stateMutability": "view",
      "type": "function"
    },
    {
      "constant": true,
      "inputs": [],
      "name": "getAllocationCost",
      "outputs": [
        {
          "name": "",
          "type": "uint256"
        }
      ],
      "payable": false,
      "stateMutability": "view",
      "type": "function"
    },
    {
      "constant": false,
      "inputs": [],
      "name": "getAllocation",
      "outputs": [
        {
          "name": "",
          "type": "bool"
        }
      ],
      "payable": true,
      "stateMutability": "payable",
      "type": "function"
    },
    {
      "constant": false,
      "inputs": [
        {
          "name": "ip",
          "type": "bytes16"
        }
      ],
      "name": "getSequentialAllocation",
      "outputs": [
        {
          "name": "",
          "type": "bool"
        }
      ],
      "payable": true,
      "stateMutability": "payable",
      "type": "function"
    },
    {
      "constant": false,
      "inputs": [
        {
          "name": "id",
          "type": "int256"
        }
      ],
      "name": "renewAllocationID",
      "outputs": [
        {
          "name": "",
          "type": "bool"
        },
        {
          "name": "",
          "type": "uint256"
        }
      ],
      "payable": true,
      "stateMutability": "payable",
      "type": "function"
    },
    {
      "constant": true,
      "inputs": [
        {
          "name": "start",
          "type": "int256"
        },
        {
          "name": "stop",
          "type": "int256"
        }
      ],
      "name": "getIDsPrefixExpired",
      "outputs": [
        {
          "name": "result",
          "type": "uint256[]"
        }
      ],
      "payable": false,
      "stateMutability": "view",
      "type": "function"
    },
    {
      "constant": false,
      "inputs": [
        {
          "name": "id",
          "type": "int256"
        }
      ],
      "name": "recoverExpiredAllocation",
      "outputs": [],
      "payable": false,
      "stateMutability": "nonpayable",
      "type": "function"
    },
    {
      "constant": true,
      "inputs": [],
      "name": "getRecovered",
      "outputs": [
        {
          "name": "result",
          "type": "uint256[]"
        }
      ],
      "payable": false,
      "stateMutability": "view",
      "type": "function"
    },
    {
      "constant": false,
      "inputs": [
        {
          "name": "id",
          "type": "int256"
        },
        {
          "name": "uri",
          "type": "bytes"
        },
        {
          "name": "hashFunction",
          "type": "bytes"
        },
        {
          "name": "hash",
          "type": "bytes"
        }
      ],
      "name": "setPolicyURIiD",
      "outputs": [],
      "payable": false,
      "stateMutability": "nonpayable",
      "type": "function"
    },
    {
      "constant": false,
      "inputs": [
        {
          "name": "ip",
          "type": "bytes16"
        }
      ],
      "name": "getPolicyURI",
      "outputs": [
        {
          "name": "",
          "type": "bytes"
        },
        {
          "name": "",
          "type": "bytes"
        },
        {
          "name": "",
          "type": "bytes"
        }
      ],
      "payable": false,
      "stateMutability": "nonpayable",
      "type": "function"
    },
    {
      "constant": false,
      "inputs": [
        {
          "name": "id",
          "type": "int256"
        },
        {
          "name": "ASes",
          "type": "bytes"
        }
      ],
      "name": "setRoaID",
      "outputs": [
        {
          "name": "",
          "type": "int256"
        }
      ],
      "payable": false,
      "stateMutability": "nonpayable",
      "type": "function"
    },
    {
      "constant": true,
      "inputs": [
        {
          "name": "ip",
          "type": "bytes16"
        }
      ],
      "name": "getRoa",
      "outputs": [
        {
          "name": "",
          "type": "bytes"
        }
      ],
      "payable": false,
      "stateMutability": "view",
      "type": "function"
    },
    {
      "constant": true,
      "inputs": [
        {
          "name": "id",
          "type": "int256"
        }
      ],
      "name": "getRoa",
      "outputs": [
        {
          "name": "",
          "type": "bytes16"
        },
        {
          "name": "",
          "type": "bytes"
        },
        {
          "name": "",
          "type": "uint8"
        }
      ],
      "payable": false,
      "stateMutability": "view",
      "type": "function"
    }
  ],
  "bytecode": "0x608060405234801561001057600080fd5b50612860806100206000396000f3006080604052600436106101e25763ffffffff7c010000000000000000000000000000000000000000000000000000000060003504166304389a0181146101e757806306cd8b751461020e5780630c9e1e8e146102235780631a7f57ad1461023f5780632059b40d1461026a578063233f97561461027f57806325b2d85e146102975780632d993acf146102af57806334725c761461038b5780633734c43b146103a057806337c454e9146103b55780633ae5e3071461041a5780636e53d0651461042f578063706c3eae1461064b578063737298d714610660578063743d9ff81461068657806375f12b21146106b8578063778193a1146106cd5780637d94792a146106ef5780637f6d784b146107045780637fe68b311461071957806380f90eda1461072e57806385897ffa1461075557806387eee750146107b35780638da5cb5b1461085f5780638e1a9b13146108905780638fceb61814610927578063a035b1fe1461093c578063a09cc3ed14610951578063aa0af96e1461096c578063aea6197414610981578063b3cea21714610ae7578063b5820d7514610afc578063be90e17014610b11578063c5ba2bd414610b2c578063d0db65ce14610b41578063ecafa25214610b59578063f68d2d5b14610b6e578063ffbc905614610b83575b600080fd5b3480156101f357600080fd5b506101fc610b9b565b60408051918252519081900360200190f35b34801561021a57600080fd5b506101fc610c1c565b61022b610c22565b604080519115158252519081900360200190f35b34801561024b57600080fd5b50610254610e45565b6040805160ff9092168252519081900360200190f35b34801561027657600080fd5b506101fc610e55565b34801561028b57600080fd5b5061022b600435610e5b565b3480156102a357600080fd5b5061022b600435610ea8565b3480156102bb57600080fd5b5060408051602060046024803582810135601f810185900485028601850190965285855261038995833595369560449491939091019190819084018382808284375050604080516020601f89358b018035918201839004830284018301909452808352979a99988101979196509182019450925082915084018382808284375050604080516020601f89358b018035918201839004830284018301909452808352979a999881019791965091820194509250829150840183828082843750949750610ef69650505050505050565b005b34801561039757600080fd5b506101fc610f82565b3480156103ac57600080fd5b50610389610f88565b3480156103c157600080fd5b506103ca610fd1565b60408051602080825283518183015283519192839290830191858101910280838360005b838110156104065781810151838201526020016103ee565b505050509050019250505060405180910390f35b34801561042657600080fd5b506101fc611056565b34801561043b57600080fd5b5061044760043561105c565b60405180896fffffffffffffffffffffffffffffffff19166fffffffffffffffffffffffffffffffff1916815260200188600160a060020a0316600160a060020a031681526020018760ff1660ff16815260200186815260200180602001806020018060200180602001858103855289818151815260200191508051906020019080838360005b838110156104e65781810151838201526020016104ce565b50505050905090810190601f1680156105135780820380516001836020036101000a031916815260200191505b5085810384528851815288516020918201918a019080838360005b8381101561054657818101518382015260200161052e565b50505050905090810190601f1680156105735780820380516001836020036101000a031916815260200191505b50858103835287518152875160209182019189019080838360005b838110156105a657818101518382015260200161058e565b50505050905090810190601f1680156105d35780820380516001836020036101000a031916815260200191505b50858103825286518152865160209182019188019080838360005b838110156106065781810151838201526020016105ee565b50505050905090810190601f1680156106335780820380516001836020036101000a031916815260200191505b509c5050505050505050505050505060405180910390f35b34801561065757600080fd5b50610254611315565b61066b600435611325565b60408051921515835260208301919091528051918290030190f35b34801561069257600080fd5b5061069b61153f565b604080516001608060020a03199092168252519081900360200190f35b3480156106c457600080fd5b5061022b61154b565b3480156106d957600080fd5b506101fc6001608060020a03196004351661155b565b3480156106fb57600080fd5b506101fc61179f565b34801561071057600080fd5b506101fc6117a5565b34801561072557600080fd5b506103896117ab565b34801561073a57600080fd5b506103ca600160a060020a03600435166024356044356117e2565b34801561076157600080fd5b5060408051602060046024803582810135601f81018590048502860185019096528585526101fc95833595369560449491939091019190819084018382808284375094975061189f9650505050505050565b3480156107bf57600080fd5b506107cb600435611942565b604080516001608060020a03198516815260ff831691810191909152606060208083018281528551928401929092528451608084019186019080838360005b8381101561082257818101518382015260200161080a565b50505050905090810190601f16801561084f5780820380516001836020036101000a031916815260200191505b5094505050505060405180910390f35b34801561086b57600080fd5b50610874611a2a565b60408051600160a060020a039092168252519081900360200190f35b34801561089c57600080fd5b506108b26001608060020a031960043516611a39565b6040805160208082528351818301528351919283929083019185019080838360005b838110156108ec5781810151838201526020016108d4565b50505050905090810190601f1680156109195780820380516001836020036101000a031916815260200191505b509250505060405180910390f35b34801561093357600080fd5b506101fc611aff565b34801561094857600080fd5b506101fc611b05565b34801561095d57600080fd5b506103ca600435602435611b0b565b61022b6001608060020a031960043516611b9a565b34801561098d57600080fd5b506109a36001608060020a031960043516611ede565b60405180806020018060200180602001848103845287818151815260200191508051906020019080838360005b838110156109e85781810151838201526020016109d0565b50505050905090810190601f168015610a155780820380516001836020036101000a031916815260200191505b50848103835286518152865160209182019188019080838360005b83811015610a48578181015183820152602001610a30565b50505050905090810190601f168015610a755780820380516001836020036101000a031916815260200191505b50848103825285518152855160209182019187019080838360005b83811015610aa8578181015183820152602001610a90565b50505050905090810190601f168015610ad55780820380516001836020036101000a031916815260200191505b50965050505050505060405180910390f35b348015610af357600080fd5b506101fc6120d9565b348015610b0857600080fd5b506101fc6120df565b348015610b1d57600080fd5b506103ca6004356024356120e5565b348015610b3857600080fd5b50610254612194565b348015610b4d57600080fd5b5061069b6004356121b6565b348015610b6557600080fd5b506101fc612270565b348015610b7a57600080fd5b506101fc612276565b348015610b8f57600080fd5b5061038960043561227c565b336000908152600a6020526040812060010154421115610c07576040805160e560020a62461bcd028152602060048201526034602482015260008051602061281583398151915260448201526000805160206127f5833981519152606482015290519081900360840190fd5b50336000908152600a60205260409020545b90565b60095481565b600080600080600080600c60149054906101000a900460ff1615610c4557600080fd5b336000908152600a6020526040902060010154421115610cb1576040805160e560020a62461bcd028152602060048201526034602482015260008051602061281583398151915260448201526000805160206127f5833981519152606482015290519081900360840190fd5b336000908152600a60205260409020543414610d17576040805160e560020a62461bcd02815260206004820152600b60248201527f5072696365206572726f72000000000000000000000000000000000000000000604482015290519081900360640190fd5b600094505b8415156101e257600e546008541415610d8a576009541515610d3d57600080fd5b60095460001901600090815260106020908152604080832054808452601190925290912054909450608060020a029250610d76836123c0565b610d7e612511565b60019450849550610e3d565b610d95600d546121b6565b9150610da08261155b565b600081815260116020526040902054909150608060020a026001608060020a0319161515610e2f57600c54610de090839060b060020a900460ff1661252e565b600d80546001019055600c54604051600160a060020a03909116903480156108fc02916000818181858888f19350505050158015610e22573d6000803e3d6000fd5b5060019450849550610e3d565b600d80546001019055610d1c565b505050505090565b600c5460b060020a900460ff1681565b600e5481565b6000818152601160205260408120600201546301e13380014210801590610e92575060008281526011602052604090206002015415155b15610e9f57506001610ea3565b5060005b919050565b6000610eb382610e5b565b1515610ec157506001610ea3565b600082815260116020526040902054608060020a026001608060020a0319161515610eee57506000610ea3565b506001919050565b610eff84610ea8565b1515610f0a57600080fd5b60008481526011602090815260409091208451610f2f9260039092019186019061275c565b5060008481526011602090815260409091208351610f559260049092019185019061275c565b5060008481526011602090815260409091208251610f7b9260059092019184019061275c565b5050505050565b60025481565b600c54600160a060020a03163314610f9f57600080fd5b600c805474ff000000000000000000000000000000000000000019811660a060020a9182900460ff1615909102179055565b60606000806000600954925082604051908082528060200260200182016040528015611007578160200160208202803883390190505b50935060009150600090505b60095481121561105057600081815260106020526040902054845185908490811061103a57fe5b6020908102909101015260019182019101611013565b50505090565b60085481565b60008181526011602090815260409182902080546001808301546002808501546003909501805488516101009582161595909502600019011691909104601f8101879004870284018701909752868352608060020a90930295600160a060020a0382169560a060020a90920460ff169493606093849384938493918301828280156111285780601f106110fd57610100808354040283529160200191611128565b820191906000526020600020905b81548152906001019060200180831161110b57829003601f168201915b50505060008c8152601160209081526040918290206005018054835160026001831615610100026000190190921691909104601f810184900484028201840190945283815295995093509091508301828280156111c65780601f1061119b576101008083540402835291602001916111c6565b820191906000526020600020905b8154815290600101906020018083116111a957829003601f168201915b50505060008c8152601160209081526040918290206004018054835160026001831615610100026000190190921691909104601f810184900484028201840190945283815295985093509091508301828280156112645780601f1061123957610100808354040283529160200191611264565b820191906000526020600020905b81548152906001019060200180831161124757829003601f168201915b50505060008c8152601160209081526040918290206006018054835160026001831615610100026000190190921691909104601f810184900484028201840190945283815295975093509091508301828280156113025780601f106112d757610100808354040283529160200191611302565b820191906000526020600020905b8154815290600101906020018083116112e557829003601f168201915b5093945050505050919395975091939597565b600b54608060020a900460ff1681565b6000806000600c60149054906101000a900460ff161561134457600080fd5b336000908152600a60205260409020600101544211156113b0576040805160e560020a62461bcd028152602060048201526034602482015260008051602061281583398151915260448201526000805160206127f5833981519152606482015290519081900360840190fd5b336000908152600a60205260409020543414611416576040805160e560020a62461bcd02815260206004820152600b60248201527f5072696365206572726f72000000000000000000000000000000000000000000604482015290519081900360640190fd5b61141f84610ea8565b151561142a57600080fd5b600084815260116020526040902060010154600160a060020a031633146114c1576040805160e560020a62461bcd02815260206004820152602260248201527f596f7520617265206e6f7420746865206f776e6572206f662074686520626c6f60448201527f636b000000000000000000000000000000000000000000000000000000000000606482015290519081900360840190fd5b50600083815260116020526040808220600201805442908190039081016301e13380908101909255600c549251910192600160a060020a03909216913480156108fc02929091818181858888f19350505050158015611524573d6000803e3d6000fd5b50505060009182525060116020526040902060020154600191565b600b54608060020a0281565b600c5460a060020a900460ff1681565b600080808080808080808080805b600b54600160ff608060020a909204821601811690831610156115b3576115938d836080036125cb565b156115a8576115a58d836080036125f4565b9c505b600190910190611569565b5060005b600b54600c5460ff608060020a909204821660b060020a90910482160381169082161015611751576116008d82600b60109054906101000a900460ff16600101016080036125cb565b15611735578060ff1660001115801561161d575060038160ff1611155b1561162b578260020a8b019a505b8060ff16600411158015611643575060078160ff1611155b15611651578260020a8a0199505b8060ff166008111580156116695750600b8160ff1611155b15611677578260020a890198505b8060ff16600c1115801561168f5750600f8160ff1611155b1561169d578260020a880197505b8060ff166010111580156116b5575060138160ff1611155b156116c3578260020a870196505b8060ff166014111580156116db575060178160ff1611155b156116e9578260020a860195505b8060ff166018111580156117015750601b8160ff1611155b1561170f578260020a850194505b8060ff16601c111580156117275750601f8160ff1611155b15611735578260020a840193505b826001019250826004141561174957600092505b6001016115b7565b50506001631000000090920263010000009093026210000090940262010000909502611000909602610100909702601090980298909801969096019490940192909201010101019392505050565b600d5481565b60045481565b600c54600160a060020a031633146117c257600080fd5b600c805474ff000000000000000000000000000000000000000019169055565b606060008060006117f487878761261b565b925082604051908082528060200260200182016040528015611820578160200160208202803883390190505b509350600091508590505b8460010181121561189557600081815260116020526040902060010154600160a060020a038881169116148015611868575061186681610e5b565b155b1561188d5780848381518110151561187c57fe5b602090810290910101526001909101905b60010161182b565b5050509392505050565b60006118aa83610ea8565b15156118b557600080fd5b600083815260116020526040902060010154600160a060020a031633146118db57600080fd5b600083815260116020908152604090912083516119009260069092019185019061275c565b506040805134815260208101859052815133927f68721feff6514b546442504e17553541c8ffe7e962d7da191c3fa3c1c7406169928290030190a25090919050565b60006060600061195184610ea8565b151561195c57600080fd5b6000848152601160209081526040918290208054600180830154600690930180548651600261010094831615949094026000190190911692909204601f8101869004860283018601909652858252608060020a90920294919360a060020a90930460ff169290918491830182828015611a165780601f106119eb57610100808354040283529160200191611a16565b820191906000526020600020905b8154815290600101906020018083116119f957829003601f168201915b505050505091509250925092509193909250565b600c54600160a060020a031681565b60606000611a468361155b565b9050611a5181610ea8565b1515611a5c57600080fd5b60008181526011602090815260409182902060060180548351601f600260001961010060018616150201909316929092049182018490048402810184019094528084529091830182828015611af25780601f10611ac757610100808354040283529160200191611af2565b820191906000526020600020905b815481529060010190602001808311611ad557829003601f168201915b5050505050915050919050565b60035481565b60055481565b60606000806000611b1c868661267a565b925082604051908082528060200260200182016040528015611b48578160200160208202803883390190505b509350600091508590505b84811215611b9157611b6481610e5b565b15611b8957808483815181101515611b7857fe5b602090810290910101526001909101905b600101611b53565b50505092915050565b600080600080600c60149054906101000a900460ff1615611bba57600080fd5b600e5460085412611bca57600080fd5b336000908152600a6020526040902060010154421115611c36576040805160e560020a62461bcd028152602060048201526034602482015260008051602061281583398151915260448201526000805160206127f5833981519152606482015290519081900360840190fd5b336000908152600a60205260409020543414611c9c576040805160e560020a62461bcd02815260206004820152600b60248201527f5072696365206572726f72000000000000000000000000000000000000000000604482015290519081900360640190fd5b611ca58561155b565b9250611cb083610ea8565b1515611cbb57600080fd5b600083815260116020526040902060010154600160a060020a03163314611d2c576040805160e560020a62461bcd02815260206004820152601660248201527f596f7520617265206e6f7420417574686f72697a656400000000000000000000604482015290519081900360640190fd5b600c54611d4790869060b060020a900460ff166080036125cb565b1515611d6f57600c54611d6890869060b060020a900460ff166080036126ac565b9450611e4c565b600c54611d8a90869060b060020a900460ff166080036125f4565b9450600191505b600b54600c5460ff608060020a909204821660b060020a90910482160381169083161015611e4c57611dd78583600c60169054906101000a900460ff16036080036125cb565b15611e0757611dfa8583600c60169054906101000a900460ff16036080036125f4565b9450600190910190611e47565b611e258583600c60169054906101000a900460ff16036080036126ac565b600b54600c5491965060ff608060020a909104811660b060020a909204160391505b611d91565b611e558561155b565b600081815260116020526040902054909150608060020a026001608060020a03191615611e8157600080fd5b600c54611e9990869060b060020a900460ff1661252e565b600c54604051600160a060020a03909116903480156108fc02916000818181858888f19350505050158015611ed2573d6000803e3d6000fd5b50600195945050505050565b60608060606000611eee8561155b565b9050611ef981610ea8565b1515611f0457600080fd5b600081815260116020908152604091829020600381018054845160026001831615610100026000190190921691909104601f810185900485028201850190955284815290936004830193600590930192859190830182828015611fa85780601f10611f7d57610100808354040283529160200191611fa8565b820191906000526020600020905b815481529060010190602001808311611f8b57829003601f168201915b5050855460408051602060026001851615610100026000190190941693909304601f8101849004840282018401909252818152959850879450925084019050828280156120365780601f1061200b57610100808354040283529160200191612036565b820191906000526020600020905b81548152906001019060200180831161201957829003601f168201915b5050845460408051602060026001851615610100026000190190941693909304601f8101849004840282018401909252818152959750869450925084019050828280156120c45780601f10612099576101008083540402835291602001916120c4565b820191906000526020600020905b8154815290600101906020018083116120a757829003601f168201915b50505050509050935093509350509193909250565b60075481565b60065481565b606060008060006120f686866126c8565b925082604051908082528060200260200182016040528015612122578160200160208202803883390190505b509350600091508590505b84600101811215611b9157600081815260116020526040902060010154600160a060020a031615801590612167575061216581610e5b565b155b1561218c5780848381518110151561217b57fe5b602090810290910101526001909101905b60010161212d565b600c547501000000000000000000000000000000000000000000900460ff1681565b600b54600090608060020a028160028406156121ee576121eb82600b60109054906101000a900460ff166001016080036126ac565b91505b5060015b600b54600c5460ff608060020a909204821660b060020a909104821603811690821610156122695760028160ff1660020a8581151561222d57fe5b0481151561223757fe5b06156122615761225e8282600b60109054906101000a900460ff16600101016080036126ac565b91505b6001016121f2565b5092915050565b60005481565b60015481565b600c54600160a060020a0316331461229357600080fd5b61229c81610e5b565b15156122a757600080fd5b600081815260116020818152604080842080546001608060020a031916815560018101805474ffffffffffffffffffffffffffffffffffffffffff191690556002810185905581518084019283905285815294869052929091529151612313926003909201919061275c565b50604080516020818101808452600080845285815260119092529290209051612342926004909201919061275c565b50604080516020818101808452600080845285815260119092529290209051612371926005909201919061275c565b506040805160208181018084526000808452858152601190925292902090516123a0926006909201919061275c565b506009805460009081526010602052604090209190915580546001019055565b60006123cb8261155b565b600081815260116020818152604080842080546001608060020a031916608060020a89041781556001810180543373ffffffffffffffffffffffffffffffffffffffff1990911617808255600c5474ff00000000000000000000000000000000000000001990911660b060020a90910460ff1660a060020a0217905542600282015581518084019283905285815294869052929091529151929350612476926006909101919061275c565b506040805160208181018084526000808452858152601190925292902090516124a5926003909201919061275c565b506040805160208181018084526000808452858152601190925292902090516124d4926004909201919061275c565b50604080516020818101808452600080845285815260119092529290209051612503926005909201919061275c565b505060088054600101905550565b600980546000908152601060205260408120558054600019019055565b60006125398361155b565b600090815260116020526040902080546001608060020a031916608060020a90940493909317835550600180830180543373ffffffffffffffffffffffffffffffffffffffff199091161774ff0000000000000000000000000000000000000000191660a060020a60ff949094169390930292909217909155426002830155600c909101819055600880549091019055565b60006125de608060020a60ff841661271b565b929092166001608060020a031916151592915050565b60008061261061260b608060020a60ff861661271b565b61273e565b939093169392505050565b600080835b8360010181121561267157600081815260116020526040902060010154600160a060020a03878116911614801561265d575061265b81610e5b565b155b15612669578160010191505b600101612620565b50949350505050565b600080835b838112156126a45761269081610e5b565b1561269c578160010191505b60010161267f565b509392505050565b60006126bf608060020a60ff841661271b565b90921792915050565b600080835b836001018112156126a457600081815260116020526040902060010154600160a060020a031615801590612707575061270581610e5b565b155b15612713578160010191505b6001016126cd565b6fffffffffffffffffffffffffffffffff1660020a608060020a91829004020290565b6000612748612750565b909118919050565b6001608060020a031990565b828054600181600116156101000203166002900490600052602060002090601f016020900481019282601f1061279d57805160ff19168380011785556127ca565b828001600101855582156127ca579182015b828111156127ca5782518255916020019190600101906127af565b506127d69291506127da565b5090565b610c1991905b808211156127d657600081556001016127e0560061696e2074686520707265666978207072696365000000000000000000000000507269636520457870697265642c20706c656173652072657175657374206167a165627a7a723058200f1dae572815737613ad5a8286886d00da79024aa53101ad76e6101eb309f8e30029",
  "source": "pragma solidity ^0.4.24;\r\n\r\nimport \"./InBlock_Data.sol\";\r\n\r\ncontract InBlock_F is InBlock_Data{\r\n\r\n//*************************************************** GETTER BLOCK FUNCTIONS ****************************************************************************\r\n\r\nfunction getItem(int id) public view returns (bytes16 ip, address o, uint8 mask,uint _date, bytes a, bytes b, bytes c, bytes d){\r\n\t\t\r\n\t\tip = blocks[id].ip_address;\r\n        o = blocks[id].o_addr;\r\n\t\tmask= blocks[id].mask;\r\n\t\t_date= blocks[id].date;\r\n\t\ta=blocks[id].info.uri;\r\n\t\tb=blocks[id].info.hash;\r\n\t\tc=blocks[id].info.hashFunction;\r\n\t\td=blocks[id].Roa;\r\n\t\treturn(ip,o,mask,_date,a,b,c,d);\r\n\r\n}\r\n\r\n/*\r\nfunction getAddressID(int id) public view returns (bytes16 ip){\r\n\t\t\r\n\t\tip = blocks[id].ip_address;\r\n        return(ip);\r\n\r\n}*/\r\n\r\n\t\r\nfunction countBlockAddress(address a, int start, int stop)view internal returns(uint){\r\nuint count=0;\r\nfor(int i=start; i<stop+1; i++){\r\n\t\tif(blocks[i].o_addr==a && !isAllocatedPrefixExpired(i)){\r\n\t\tcount=count+1;\r\n\t\t}\r\n\t\t}\r\n\treturn count;\r\n\r\n}\r\n\r\nfunction getIDsBlocksAddress(address a,int start, int stop)view public returns(uint[]result){\r\n\r\n\tuint count=countBlockAddress(a,start,stop);\r\n\tresult = new uint[] (count);\r\n\tuint counter=0;\r\n\t\r\n\tfor(int i=start;i<stop+1;i++){\r\n\t\tif(blocks[i].o_addr==a && !isAllocatedPrefixExpired(i)){\r\n\t\tresult[counter]=uint(i);\r\n\t\tcounter=counter+1;\r\n\t\t}\r\n\t}\r\n\treturn result; \r\n\r\n}\r\n\r\n\r\n\r\nfunction countAssignedBlock(int start, int stop)view internal returns(uint){\r\nuint count=0;\r\nfor(int i=start; i<stop+1; i++){\r\n\t\tif(blocks[i].o_addr!=0x00 && !isAllocatedPrefixExpired(i)){\r\n\t\tcount=count+1;\r\n\t\t}\r\n\t\t}\r\n\treturn count;\r\n}\r\n\r\nfunction getIDsAssignedBlocks(int start, int stop)view public returns(uint[]result){\r\n\r\n\tuint count=countAssignedBlock(start,stop);\r\n\tresult = new uint[] (count);\r\n\tuint counter=0;\r\n\t\r\n\tfor(int i=start;i<stop+1;i++){\r\n\t\tif(blocks[i].o_addr!=0x00 && !isAllocatedPrefixExpired(i)){\r\n\t\tresult[counter]=uint(i);\r\n\t\tcounter=counter+1;\r\n\t\t}\r\n\t}\r\n\treturn result; \r\n}\r\n\r\nfunction getAllocationCost()public view returns(uint){\r\n\trequire(now<=userPrefixPrices[msg.sender].validity, \"Price Expired, please request again the prefix price\");\r\n\treturn(userPrefixPrices[msg.sender].prefixPrice);\r\n}\r\n\r\n//******************************************************* FIXED SIZE BLOCK REQUEST FUNCTIONS *******************************************************\r\n\r\n//Declare an Event\r\n//event prefixRequestEvent(address indexed _from, uint _value);\r\n\r\n\r\n//PrefixRequest With sparse allocation for /32\t NB there is a fixed limit of /32 available blocks.\r\nfunction getAllocation() notStopped() payable public returns(bool){\r\n\t\t\r\n\trequire(now<=userPrefixPrices[msg.sender].validity, \"Price Expired, please request again the prefix price\");\r\n\trequire(userPrefixPrices[msg.sender].prefixPrice==msg.value , \"Price error\");\r\n\t\r\n\tbool ok=false;\r\n\twhile(!ok){\r\n\t\t\r\n\t\tif(ID_Index==int(max_allocable_blocks)){\r\n\t\t\trequire(ID_expired!=0);\r\n\t\t\tint idapp=expired_array_index[ID_expired-1].ind;\r\n\t\t\tbytes16 app2=blocks[idapp].ip_address;\r\n\t\t\tsetBlockExpired(app2);\r\n\t\t\tdelete_expired();\r\n\t\t\tok=true;\r\n\t\t\t//Emit an event\r\n\t//\t\temit prefixRequestEvent(msg.sender,msg.value);\r\n\t\t\treturn ok;\r\n\t\t}else{\r\n\t\t\t\r\n\t\t\t\tbytes16 app=sparse(seed);\r\n\t\t\t\tint appID=int(reverseSparse(app));\r\n\t\t\tif(blocks[appID].ip_address==\"\"){\r\n\t\t\t\tsetBlock(app,allocation_prefix_mask);\r\n\t\t\t\tseed=seed+1;\r\n\t\t\t\towner.transfer(msg.value);\r\n\t\t\t\tok=true;\r\n                //Emit an event\r\n\t\t//\t\temit prefixRequestEvent(msg.sender,msg.value);\r\n\t\t\t\treturn ok;\r\n\t\t\t}\r\n\t\t\telse {\r\n\t\t\t\tseed=seed+1;\r\n\t\t\t\r\n\t\t\t}\r\n\t\t}\r\n\t}\r\n\trevert();\r\n}\r\n\r\n\r\n \r\n//function to perform a sequent allocation if an user already has a block and want the contiguos one \r\nfunction getSequentialAllocation(bytes16 ip) notStopped() payable public returns (bool){\r\n\t\r\n\trequire(ID_Index<int(max_allocable_blocks));\r\n\trequire(now<=userPrefixPrices[msg.sender].validity, \"Price Expired, please request again the prefix price\");\r\n\trequire(userPrefixPrices[msg.sender].prefixPrice==msg.value , \"Price error\");\r\n    int id= int(reverseSparse(ip));\r\n\trequire(isPrefixInUse(id));\r\n\trequire(msg.sender==blocks[id].o_addr, \"You are not Authorized\");\r\n\t\t\r\n\t\tif(!getBit(ip,128-allocation_prefix_mask)){\r\n\t\t\t\tip=setBit(ip,128-allocation_prefix_mask);\r\n\t\t}else{\t\r\n\t\t\t\tip=clearBit(ip,128-allocation_prefix_mask);\r\n\t\t\t\tuint8 i=1;\r\n\t\t\t\twhile(i<allocation_prefix_mask-base_prefix_mask){\r\n\t\t\t\t\t\r\n\t\t\t\t\t\tif(getBit(ip,128-(allocation_prefix_mask-i))){\r\n\t\t\t\t\t\t\t\tip=clearBit(ip,128-(allocation_prefix_mask-i));\r\n\t\t\t\t\t\t\t\ti++;\r\n\t\t\t\t\t\t}else{\r\n\t\t\t\t\t\t\t\tip=setBit(ip,128-(allocation_prefix_mask-i));\r\n\t\t\t\t\t\t\t\ti=allocation_prefix_mask-base_prefix_mask;\r\n\t\t\t\t\t\t\t}\r\n\t\t\t\t\t\t}\r\n\t\t\t  }\r\n\t\t\t  \r\n\t\t\r\n\t\tint id1= int(reverseSparse(ip));\r\n\t\trequire(blocks[id1].ip_address==\"\");\r\n\t\t\r\n\t\t\tsetBlock(ip,allocation_prefix_mask);\r\n\t\t\towner.transfer(msg.value);\r\n\t\t\treturn true;\r\n\t\t\r\n\t\t\trevert();\r\n}\r\n\r\n//******************************************************* BLOCK RENEWAL FUNCTION *******************************************************\r\n\r\n/*\r\nfunction renewAllocation(bytes16 ip) notStopped() payable public returns (bool,uint){\r\n\t\r\n\t//require(msg.value==prefixPrice, \"Price Error.\");\r\n\trequire(now<=userPrefixPrices[msg.sender].validity, \"Price Expired, please request again the prefix price\");\r\n\trequire(userPrefixPrices[msg.sender].prefixPrice==msg.value , \"Price error\");\r\n\tint id=int(reverseSparse(ip));\r\n\trequire(isPrefixInUse(id));\r\n\trequire(msg.sender==blocks[id].o_addr, \"You are not the owner of the block\");\r\n\tuint app1= (blocks[id].date+365* 1 days)-now;\r\n\tblocks[id].date=now+app1;\t\r\n\towner.transfer(msg.value);\r\n\treturn(true,blocks[id].date);\r\n}*/\r\n\r\n\r\nfunction renewAllocationID(int id) notStopped() payable public returns (bool,uint){\r\n\t\r\n\t//require(msg.value==prefixPrice, \"Price Error.\");\r\n    require(now<=userPrefixPrices[msg.sender].validity, \"Price Expired, please request again the prefix price\");\r\n\trequire(userPrefixPrices[msg.sender].prefixPrice==msg.value , \"Price error\");\r\n\trequire(isPrefixInUse(id));\r\n\trequire(msg.sender==blocks[id].o_addr, \"You are not the owner of the block\");\r\n\tuint app1= (blocks[id].date+365* 1 days)-now;\r\n\tblocks[id].date=now+app1;\t\r\n\towner.transfer(msg.value);\r\n\treturn(true,blocks[id].date);\r\n}\r\n\r\n\r\n//******************************************************* BLOCK RECOVER FUNCTION *******************************************************\r\n\r\nfunction countBlockExpired(int start, int stop)view internal returns(uint){\r\nuint count=0;\r\nfor(int i=start; i<stop; i++){\r\n\t\tif(isAllocatedPrefixExpired(i)){\r\n\t\tcount=count+1;\r\n\t\t}\r\n\t\t}\r\n\treturn count;\r\n\r\n}\r\n\r\nfunction getIDsPrefixExpired(int start, int stop)view public returns(uint[]result){\r\n\r\n\tuint count=countBlockExpired(start,stop);\r\n\tresult = new uint[] (count);\r\n\tuint counter=0;\r\n\t\r\n\tfor(int i=start;i<stop;i++){\r\n\t\tif(isAllocatedPrefixExpired(i)){\r\n\t\tresult[counter]=uint(i);\r\n\t\tcounter=counter+1;\r\n\t\t}\r\n\t}\r\n\treturn result; \r\n\r\n}\r\n\r\n\r\nfunction recoverExpiredAllocation(int id)onlyOwner()public {\r\n\r\n\trequire(isAllocatedPrefixExpired(id));\r\n\tblocks[id].ip_address=\"\";\r\n\tblocks[id].mask=0;\r\n\tblocks[id].o_addr=0x00;\r\n\tblocks[id].date=0;\r\n\tblocks[id].info.uri=\"\";\r\n\tblocks[id].info.hashFunction=\"\";\r\n\tblocks[id].info.hash=\"\";\r\n\tblocks[id].Roa=\"\";\r\n\r\n\texpired_array_index[ID_expired].ind=id;\r\n\tID_expired=ID_expired+1;\r\n\r\n}\r\n\r\n\r\nfunction getRecovered()view public returns(uint[]result){\r\n\r\n\tuint count=uint(ID_expired);\r\n\tresult = new uint[] (count);\r\n\tuint counter=0;\r\n\t\r\n\tfor(int i=0;i<ID_expired;i++){\r\n\t\t\tresult[counter]=uint(expired_array_index[i].ind);\r\n\t\t\tcounter=counter+1;\r\n\t\t}\r\n\t\r\n\treturn result; \r\n\r\n}\r\n\r\nfunction delete_expired()internal{\r\n\r\n\tdelete expired_array_index[ID_expired];\r\n\tID_expired=ID_expired-1;\r\n\r\n}\r\n\r\n//******************************************************* POLICY FUNCTIONS *******************************************************\r\n/*function setPolicyURI(bytes16 ip, bytes uri, bytes hashFunction, bytes hash) public {\r\n\t\r\n\tint id=int(reverseSparse(ip));\r\n\trequire(isPrefixInUse(id));\r\n\tblocks[id].info.uri=uri;\r\n\tblocks[id].info.hashFunction=hashFunction;\r\n\tblocks[id].info.hash=hash;\r\n\t\t\t\r\n}*/\r\n\r\nfunction setPolicyURIiD(int id, bytes uri, bytes hashFunction, bytes hash) public {\r\n\t\r\n\trequire(isPrefixInUse(id));\r\n\tblocks[id].info.uri=uri;\r\n\tblocks[id].info.hashFunction=hashFunction;\r\n\tblocks[id].info.hash=hash;\r\n\t\t\t\r\n}\r\n\r\n\r\nfunction getPolicyURI(bytes16 ip) public returns(bytes, bytes, bytes ) {\r\n\t\r\n\tint id=int(reverseSparse(ip));\r\n\trequire(isPrefixInUse(id));\r\n\treturn(blocks[id].info.uri,blocks[id].info.hashFunction,blocks[id].info.hash);\r\n\t\r\n\t\r\n\t\t\t\r\n}\r\n\r\n//******************************************************* ASes FUNCTIONS *******************************************************\r\n\r\nfunction getRoa(bytes16 ip)view public returns(bytes){\r\n\t\r\n\tint id=int(reverseSparse(ip));\r\n\trequire(isPrefixInUse(id));\r\n\treturn blocks[id].Roa;\r\n}\r\n\r\n/*\r\nfunction setRoa(bytes16 ip, bytes ASes) public {\r\n\t\t\t\t\t\r\n\tint id=int(reverseSparse(ip));\r\n\trequire(isPrefixInUse(id));\r\n\trequire(msg.sender==blocks[id].o_addr);\r\n\tblocks[id].Roa=ASes;\r\n}*/\r\n\r\n\r\nevent setRoaEvent(address indexed _from, uint _value, int id);\r\n\r\nfunction setRoaID(int id, bytes ASes) public returns(int ){\r\n\r\n\trequire(isPrefixInUse(id));\r\n\trequire(msg.sender==blocks[id].o_addr);\r\n\tblocks[id].Roa=ASes;\r\n    emit setRoaEvent(msg.sender, msg.value, id);\r\n    return id;\r\n}\r\n\r\nfunction getRoa(int id)view public returns(bytes16,bytes,uint8){\r\n\trequire(isPrefixInUse(id));\r\n\treturn (blocks[id].ip_address,blocks[id].Roa,blocks[id].mask);\r\n}\r\n\r\n\r\n//*****************************************************BLOCKS SETTER*************************************************************\r\n\t\r\nfunction setBlock(bytes16 ip,uint8 mask)internal {\r\n\r\nint id=int(reverseSparse(ip));\r\nblocks[id].ip_address=ip;\r\nblocks[id].o_addr=msg.sender;\r\nblocks[id].mask=mask;\r\nblocks[id].date=now;\r\nblocks[id].ID_delegated=1;\r\nID_Index=ID_Index+1;\r\n}\r\n\r\n\r\n \r\nfunction setBlockExpired(bytes16 ip) internal {\r\n\tint id=int(reverseSparse(ip));\t\r\n\tblocks[id].ip_address=ip;\r\n\tblocks[id].o_addr=msg.sender;\r\n\tblocks[id].mask=allocation_prefix_mask;\r\n\tblocks[id].date=now;\r\n\tblocks[id].Roa=\"\";\r\n\tblocks[id].info.uri=\"\";\r\n\tblocks[id].info.hashFunction=\"\";\r\n\tblocks[id].info.hash=\"\";\r\n\tID_Index=ID_Index+1;\r\n}\r\n\r\n\r\n}//END ",
  "sourcePath": "C:\\Users\\User\\Desktop\\Opt_inblock_code\\InBlock\\contracts\\InBlock_F.sol",
  "compiler": {
    "name": "solc",
    "version": "0.4.25+commit.59dbf8f1.Emscripten.clang"
  },
  "schemaVersion": "2.0.2",
  "updatedAt": "2020-02-06T15:11:09.710Z"
}