{
  "contractName": "InBlock_Data",
  "abi": [
    {
      "constant": true,
      "inputs": [],
      "name": "ID_expired",
      "outputs": [
        {
          "name": "",
          "type": "int256"
        }
      ],
      "payable": false,
      "stateMutability": "view",
      "type": "function"
    },
    {
      "constant": true,
      "inputs": [],
      "name": "allocation_prefix_mask",
      "outputs": [
        {
          "name": "",
          "type": "uint8"
        }
      ],
      "payable": false,
      "stateMutability": "view",
      "type": "function"
    },
    {
      "constant": true,
      "inputs": [],
      "name": "max_allocable_blocks",
      "outputs": [
        {
          "name": "",
          "type": "uint256"
        }
      ],
      "payable": false,
      "stateMutability": "view",
      "type": "function"
    },
    {
      "constant": true,
      "inputs": [],
      "name": "prefixPrice3",
      "outputs": [
        {
          "name": "",
          "type": "uint256"
        }
      ],
      "payable": false,
      "stateMutability": "view",
      "type": "function"
    },
    {
      "constant": true,
      "inputs": [],
      "name": "ID_Index",
      "outputs": [
        {
          "name": "",
          "type": "int256"
        }
      ],
      "payable": false,
      "stateMutability": "view",
      "type": "function"
    },
    {
      "constant": true,
      "inputs": [],
      "name": "base_prefix_mask",
      "outputs": [
        {
          "name": "",
          "type": "uint8"
        }
      ],
      "payable": false,
      "stateMutability": "view",
      "type": "function"
    },
    {
      "constant": true,
      "inputs": [],
      "name": "initial_block",
      "outputs": [
        {
          "name": "",
          "type": "bytes16"
        }
      ],
      "payable": false,
      "stateMutability": "view",
      "type": "function"
    },
    {
      "constant": true,
      "inputs": [],
      "name": "stopped",
      "outputs": [
        {
          "name": "",
          "type": "bool"
        }
      ],
      "payable": false,
      "stateMutability": "view",
      "type": "function"
    },
    {
      "constant": true,
      "inputs": [],
      "name": "seed",
      "outputs": [
        {
          "name": "",
          "type": "uint256"
        }
      ],
      "payable": false,
      "stateMutability": "view",
      "type": "function"
    },
    {
      "constant": true,
      "inputs": [],
      "name": "askOracleCost",
      "outputs": [
        {
          "name": "",
          "type": "uint256"
        }
      ],
      "payable": false,
      "stateMutability": "view",
      "type": "function"
    },
    {
      "constant": true,
      "inputs": [],
      "name": "owner",
      "outputs": [
        {
          "name": "",
          "type": "address"
        }
      ],
      "payable": false,
      "stateMutability": "view",
      "type": "function"
    },
    {
      "constant": true,
      "inputs": [],
      "name": "price",
      "outputs": [
        {
          "name": "",
          "type": "uint256"
        }
      ],
      "payable": false,
      "stateMutability": "view",
      "type": "function"
    },
    {
      "constant": true,
      "inputs": [],
      "name": "ID",
      "outputs": [
        {
          "name": "",
          "type": "int256"
        }
      ],
      "payable": false,
      "stateMutability": "view",
      "type": "function"
    },
    {
      "constant": true,
      "inputs": [],
      "name": "dollarsPrice",
      "outputs": [
        {
          "name": "",
          "type": "uint256"
        }
      ],
      "payable": false,
      "stateMutability": "view",
      "type": "function"
    },
    {
      "constant": true,
      "inputs": [],
      "name": "max_del",
      "outputs": [
        {
          "name": "",
          "type": "uint8"
        }
      ],
      "payable": false,
      "stateMutability": "view",
      "type": "function"
    },
    {
      "constant": true,
      "inputs": [],
      "name": "prefixPrice1",
      "outputs": [
        {
          "name": "",
          "type": "uint256"
        }
      ],
      "payable": false,
      "stateMutability": "view",
      "type": "function"
    },
    {
      "constant": true,
      "inputs": [],
      "name": "prefixPrice2",
      "outputs": [
        {
          "name": "",
          "type": "uint256"
        }
      ],
      "payable": false,
      "stateMutability": "view",
      "type": "function"
    },
    {
      "constant": true,
      "inputs": [],
      "name": "prefixPrice",
      "outputs": [
        {
          "name": "",
          "type": "uint256"
        }
      ],
      "payable": false,
      "stateMutability": "view",
      "type": "function"
    },
    {
      "constant": false,
      "inputs": [],
      "name": "circuitBreaker",
      "outputs": [],
      "payable": false,
      "stateMutability": "nonpayable",
      "type": "function"
    },
    {
      "constant": false,
      "inputs": [],
      "name": "toggleCircuit",
      "outputs": [],
      "payable": false,
      "stateMutability": "nonpayable",
      "type": "function"
    },
    {
      "constant": true,
      "inputs": [
        {
          "name": "input",
          "type": "bytes16"
        }
      ],
      "name": "reverseSparse",
      "outputs": [
        {
          "name": "num",
          "type": "uint256"
        }
      ],
      "payable": false,
      "stateMutability": "view",
      "type": "function"
    },
    {
      "constant": true,
      "inputs": [
        {
          "name": "id",
          "type": "uint256"
        }
      ],
      "name": "sparse",
      "outputs": [
        {
          "name": "",
          "type": "bytes16"
        }
      ],
      "payable": false,
      "stateMutability": "view",
      "type": "function"
    },
    {
      "constant": true,
      "inputs": [
        {
          "name": "id",
          "type": "int256"
        }
      ],
      "name": "isAllocatedPrefixExpired",
      "outputs": [
        {
          "name": "",
          "type": "bool"
        }
      ],
      "payable": false,
      "stateMutability": "view",
      "type": "function"
    },
    {
      "constant": true,
      "inputs": [
        {
          "name": "ip",
          "type": "bytes16"
        }
      ],
      "name": "isPrefixInUseIP",
      "outputs": [
        {
          "name": "",
          "type": "bool"
        }
      ],
      "payable": false,
      "stateMutability": "view",
      "type": "function"
    },
    {
      "constant": true,
      "inputs": [
        {
          "name": "id",
          "type": "int256"
        }
      ],
      "name": "isPrefixInUse",
      "outputs": [
        {
          "name": "",
          "type": "bool"
        }
      ],
      "payable": false,
      "stateMutability": "view",
      "type": "function"
    },
    {
      "constant": false,
      "inputs": [
        {
          "name": "id",
          "type": "int256"
        }
      ],
      "name": "expire_id",
      "outputs": [
        {
          "name": "",
          "type": "bool"
        }
      ],
      "payable": false,
      "stateMutability": "nonpayable",
      "type": "function"
    }
  ],
  "bytecode": "0x608060405234801561001057600080fd5b50610b14806100206000396000f3006080604052600436106101535763ffffffff7c010000000000000000000000000000000000000000000000000000000060003504166306cd8b7581146101585780630bf59cc11461017f57806316efd941146101ab5780631a7f57ad146101c25780632059b40d146101ed578063233f97561461020257806325b2d85e1461021a57806334725c76146102325780633ae5e30714610247578063496218511461025c578063706c3eae14610271578063743d9ff81461028657806375f12b21146102c1578063778193a1146102d65780637d94792a1461030157806389dd4023146103165780638c2a8c10146103415780638da5cb5b14610356578063a035b1fe14610394578063b3cea217146103a9578063b5820d75146103be578063c5ba2bd4146103d3578063d0db65ce146103e8578063ecafa25214610400578063f68d2d5b14610415578063ff6e3c311461042a575b600080fd5b34801561016457600080fd5b5061016d61043f565b60408051918252519081900360200190f35b34801561018b57600080fd5b50610197600435610445565b604080519115158252519081900360200190f35b3480156101b757600080fd5b506101c0610489565b005b3480156101ce57600080fd5b506101d76104cd565b6040805160ff9092168252519081900360200190f35b3480156101f957600080fd5b5061016d6104f0565b34801561020e57600080fd5b506101976004356104f6565b34801561022657600080fd5b5061019760043561053a565b34801561023e57600080fd5b5061016d610591565b34801561025357600080fd5b5061016d610597565b34801561026857600080fd5b506101c061059d565b34801561027d57600080fd5b506101d7610604565b34801561029257600080fd5b5061029b610614565b604080516fffffffffffffffffffffffffffffffff199092168252519081900360200190f35b3480156102cd57600080fd5b50610197610620565b3480156102e257600080fd5b5061016d6fffffffffffffffffffffffffffffffff1960043516610641565b34801561030d57600080fd5b5061016d610898565b34801561032257600080fd5b506101976fffffffffffffffffffffffffffffffff196004351661089e565b34801561034d57600080fd5b5061016d610906565b34801561036257600080fd5b5061036b61090c565b6040805173ffffffffffffffffffffffffffffffffffffffff9092168252519081900360200190f35b3480156103a057600080fd5b5061016d610928565b3480156103b557600080fd5b5061016d61092e565b3480156103ca57600080fd5b5061016d610934565b3480156103df57600080fd5b506101d761093a565b3480156103f457600080fd5b5061029b60043561095c565b34801561040c57600080fd5b5061016d610a29565b34801561042157600080fd5b5061016d610a2f565b34801561043657600080fd5b5061016d610a35565b60085481565b600081815260106020526040812060020154156104805750600081815260106020526040902060020180546301e1337f190190556001610484565b5060005b919050565b600b5473ffffffffffffffffffffffffffffffffffffffff1633146104ad57600080fd5b600b805474ff000000000000000000000000000000000000000019169055565b600b54760100000000000000000000000000000000000000000000900460ff1681565b600d5481565b6000818152601060205260408120600201546301e1338001421080159061052d575060008281526010602052604090206002015415155b1561048057506001610484565b6000610545826104f6565b151561055357506001610484565b600082815260106020526040902054608060020a026fffffffffffffffffffffffffffffffff1916151561058957506000610484565b506001919050565b60025481565b60075481565b600b5473ffffffffffffffffffffffffffffffffffffffff1633146105c157600080fd5b600b805474ff0000000000000000000000000000000000000000198116740100000000000000000000000000000000000000009182900460ff1615909102179055565b600a54608060020a900460ff1681565b600a54608060020a0281565b600b5474010000000000000000000000000000000000000000900460ff1681565b600080808080808080808080805b600a54600160ff608060020a90920482160181169083161015610699576106798d83608003610a3b565b1561068e5761068b8d83608003610a6d565b9c505b60019091019061064f565b5060005b600a54600b5460ff608060020a90920482167601000000000000000000000000000000000000000000009091048216038116908216101561084a576106f98d82600a60109054906101000a900460ff1660010101608003610a3b565b1561082e578060ff16600011158015610716575060038160ff1611155b15610724578260020a8b019a505b8060ff1660041115801561073c575060078160ff1611155b1561074a578260020a8a0199505b8060ff166008111580156107625750600b8160ff1611155b15610770578260020a890198505b8060ff16600c111580156107885750600f8160ff1611155b15610796578260020a880197505b8060ff166010111580156107ae575060138160ff1611155b156107bc578260020a870196505b8060ff166014111580156107d4575060178160ff1611155b156107e2578260020a860195505b8060ff166018111580156107fa5750601b8160ff1611155b15610808578260020a850194505b8060ff16601c111580156108205750601f8160ff1611155b1561082e578260020a840193505b826001019250826004141561084257600092505b60010161069d565b50506001631000000090920263010000009093026210000090940262010000909502611000909602610100909702601090980298909801969096019490940192909201010101019392505050565b600c5481565b6000806108aa83610641565b90506108b5816104f6565b15156108c45760019150610900565b600081815260106020526040902054608060020a026fffffffffffffffffffffffffffffffff191615156108fb5760009150610900565b600191505b50919050565b60035481565b600b5473ffffffffffffffffffffffffffffffffffffffff1681565b60045481565b60065481565b60055481565b600b547501000000000000000000000000000000000000000000900460ff1681565b600a54600090608060020a028160028406156109945761099182600a60109054906101000a900460ff16600101608003610a94565b91505b5060015b600a54600b5460ff608060020a909204821676010000000000000000000000000000000000000000000090910482160381169082161015610a225760028160ff1660020a858115156109e657fe5b048115156109f057fe5b0615610a1a57610a178282600a60109054906101000a900460ff1660010101608003610a94565b91505b600101610998565b5092915050565b60005481565b60015481565b60095481565b6000610a4e608060020a60ff8416610ab0565b929092166fffffffffffffffffffffffffffffffff1916151592915050565b600080610a89610a84608060020a60ff8616610ab0565b610ac1565b939093169392505050565b6000610aa7608060020a60ff8416610ab0565b90921792915050565b60020a608060020a91829004020290565b6000610acb610ad3565b909118919050565b6fffffffffffffffffffffffffffffffff19905600a165627a7a72305820e047b2910db11c5d47a5c00b69e9fff94d06d80c105ddccd67a91739850816480029",
  "source": "pragma solidity ^0.4.24;\r\n\r\nimport \"./Utility.sol\";\r\n\r\ncontract InBlock_Data is Utility{\r\n\r\n//******************************************************* MODIFIERS AND RELATED FUNCTION *******************************************************\r\n\r\n\r\n//FOR START AND STOP PARADIGM\r\n\r\nfunction circuitBreaker() onlyOwner() public{\r\n\tstopped=false;\r\n} \r\n\r\nmodifier notStopped(){\r\n\tif(stopped)throw;\r\n\t_;\r\n}\r\n\r\nfunction toggleCircuit() onlyOwner() public{\r\n\tstopped=!stopped;\r\n}\r\n\r\n\r\n\r\nmodifier onlyOwner(){\r\n   require (msg.sender == owner);\r\n        _;\r\n}\r\n\r\n\r\n/*function setSeed(uint a)public {\r\nseed=a;\r\n}*/\r\n\r\n\r\n//******************************************************* DATA STRUCTURE DEFINITION *******************************************************\r\n\r\nuint public prefixPrice1;\r\nuint public prefixPrice2;\r\nuint public prefixPrice3;\r\nuint public askOracleCost;\r\nuint public price; \r\nuint public dollarsPrice;\r\nint public ID;\r\nint public ID_Index;\r\nint public ID_expired;\r\n\r\n//To store the price expressed in Wei (it is the common form). NB:  1 ether = 1000000000000000000 wei  \r\nuint public prefixPrice;\r\n\r\n//To store the initial_block\r\nbytes16 public initial_block;\r\nuint8 public base_prefix_mask;\r\n\t\r\n\t\r\n//The owner address \r\naddress public owner;\r\n\r\n//For Start and Stop paradigm\t\r\nbool public stopped; \t\r\n\t\r\n//To manage allocation and delegation\r\nuint8 public max_del;\r\nuint8 public allocation_prefix_mask;\r\nuint public seed;\r\nuint public max_allocable_blocks;\r\n\r\nstruct index{\r\nint ind;\r\n}\r\n\r\n\t\r\n\r\nstruct Info{\r\n\tbytes uri; \r\n\tbytes hashFunction;\r\n\tbytes hash;\r\n}\r\n\r\nstruct Block{\r\n\tbytes16 ip_address;\r\n\taddress o_addr;\r\n\tuint8 mask;\r\n\tuint date;\r\n\tInfo info;\r\n\tbytes Roa;\r\n\tmapping(int=>del_Block) del_blocks;\r\n\tmapping(int=>index) del_array_index;\r\n\tint del_ID_Index;\r\n\tint ID_delegated;\r\n}\r\n\r\nstruct del_Block{\r\n\tbytes16 ip_address;\r\n\taddress o_addr;\r\n\tuint8 mask;\r\n\tint parent;\r\n\tint left;\r\n\tint right;\r\n\tInfo info;\r\n\tbytes Roa;\r\n\t\r\n}\r\n\r\n\r\nmapping(int =>index) array_index;\r\nmapping(int =>index) expired_array_index;\r\n\r\nmapping(int=>Block) blocks;\r\n\r\n\r\n//******************************************************** COMMON FUNCTION ***********************************************************************\r\n\t  \r\n\t function reverseSparse(bytes16 input) public view returns (uint num) {\r\n        uint256 n = 0;\r\n        uint256 n0=0;\r\n\t\tuint256 n1=0;\r\n\t\tuint256 n2=0;\r\n\t\tuint256 n3=0;\r\n\t\tuint256 n4=0;\r\n\t\tuint256 n5=0;\r\n\t\tuint256 n6=0;\r\n\t\tuint256 w=0;\r\n\t\tfor(uint8 j=0; j<base_prefix_mask+1;j++){\r\n\t\t\tif(getBit(input,128-j)){\r\n\t\t\t\tinput=clearBit(input, 128-j);\r\n\t\t\t}\r\n\t\t\r\n\t\t}\r\n\t\t\r\n\t\tfor (uint8 i = 0; i < allocation_prefix_mask-base_prefix_mask; i++) {\r\n            if (getBit(input,128-(base_prefix_mask+1+i))){\r\n\t\t\t\tif(0<=i && i<=3){\r\n\t\t\t\tn=n+2**w;\r\n\t\t\t\t}\r\n\t\t\t\tif(4<=i && i<=7){\r\n\t\t\t\tn0= n0+ 2**w;\r\n\t\t\t\t}\r\n\t\t\t\tif(8<=i && i<=11){\r\n\t\t\t\tn1= n1+2**w;\r\n\t\t\t\t}\r\n\t\t\t\tif(12<=i && i<=15){\r\n\t\t\t\tn2= n2+2**w;\r\n\t\t\t\t}\r\n\t\t\t\tif(16<=i && i<=19){\r\n\t\t\t\tn3= n3+2**w;\r\n\t\t\t\t}\r\n\t\t\t\tif(20<=i && i<=23){\r\n\t\t\t\tn4= n4+2**w;\r\n\t\t\t\t}\r\n\t\t\t\tif(24<=i && i<=27){\r\n\t\t\t\tn5= n5+2**w;\r\n\t\t\t\t}\r\n\t\t\t\tif(28<=i && i<=31){\r\n\t\t\t\tn6= n6+2**w;\r\n\t\t\t\t}\r\n\t\t\t\t\r\n\t\t\t\t\r\n            }\r\n\t\t\tw=w+1;\r\n\t\t\tif(w==4){\r\n\t\t\tw=0;\r\n\t\t\t}\r\n        }\r\n\t\t\r\n\t\t\tn=n+16*n0;\r\n\t\t\tn=n+16*16*n1; \r\n\t\t\tn=n+16*16*16*n2;\r\n\t\t\tn=n+16*16*16*16*n3;\r\n\t\t\tn=n+16*16*16*16*16*n4;\r\n\t\t\tn=n+16*16*16*16*16*16*n5;\r\n\t\t\tn=n+16*16*16*16*16*16*16*n6;\r\n        return (n+1);\r\n    } \r\n\t  \r\n\r\nfunction sparse(uint id) public view returns(bytes16){\r\n\r\n\tbytes16 app = initial_block;\r\n\tif(id%2 !=0) app=setBit(app,128-(base_prefix_mask+1));  \r\n\tfor(uint8 j=1; j<(allocation_prefix_mask-base_prefix_mask); j++){\r\n\t\tif((id/(2**(uint(j))))%2!=0) app=setBit(app,128- (base_prefix_mask+1+j));\r\n\t\t}\r\n\treturn app;\r\n}\r\n\r\n\r\n  function isAllocatedPrefixExpired(int id) view public returns (bool){\r\n\t\r\n\tif(now >= (blocks[id].date + 365* 1 days) && blocks[id].date!=0 ){\r\n\t\treturn true;\r\n\t\t}else return false; \r\n\t}\r\n\r\n\tfunction isPrefixInUseIP(bytes16 ip) view public returns(bool){\r\n\tint id=int(reverseSparse(ip));\r\n\t\tif(!isAllocatedPrefixExpired(id)){\r\n\t\t\treturn true;\r\n\t\t}\r\n\t\telse if(blocks[id].ip_address==\"\"){\r\n\t\t\treturn false; \r\n\t\t\t}\r\n\t\treturn true;\r\n\t}\r\n\t\r\n\tfunction isPrefixInUse(int id) view public returns(bool){\r\n\t\tif(!isAllocatedPrefixExpired(id)){\r\n\t\t\treturn true;\r\n\t\t}\r\n\t\telse if(blocks[id].ip_address==\"\"){\r\n\t\t\treturn false; \r\n\t\t\t}\r\n\t\treturn true;\r\n\t}\r\n\r\n  function expire_id(int id) public returns (bool){\r\n\t\r\n\tif(blocks[id].date!=0 ){\r\n\t    blocks[id].date=blocks[id].date - 365* 1 days;\r\n\t\treturn true;\r\n\t\t}else return false; \r\n\t}\r\n\r\n\r\n}// END OF THE CONTRACT",
  "sourcePath": "C:\\Users\\User\\Desktop\\InBlock_vPaper\\InBlock_v1_2\\contracts\\InBlock_Data.sol",
  "compiler": {
    "name": "solc",
    "version": "0.4.24+commit.e67f0147.Emscripten.clang"
  },
  "schemaVersion": "2.0.1",
  "updatedAt": "2019-03-29T15:42:35.615Z"
}